{
    "_format": "hh-sol-artifact-1",
    "contractName": "MekaApesGame",
    "sourceName": "contracts/MekaApesGame.sol",
    "abi": [
        {
            "anonymous": false,
            "inputs": [
                {
                    "indexed": true,
                    "internalType": "uint256",
                    "name": "claimId",
                    "type": "uint256"
                },
                {
                    "indexed": true,
                    "internalType": "uint256",
                    "name": "tokenId",
                    "type": "uint256"
                },
                {
                    "indexed": false,
                    "internalType": "uint256",
                    "name": "amount",
                    "type": "uint256"
                }
            ],
            "name": "AttackReward",
            "type": "event"
        },
        {
            "anonymous": false,
            "inputs": [
                {
                    "indexed": true,
                    "internalType": "address",
                    "name": "account",
                    "type": "address"
                },
                {
                    "indexed": true,
                    "internalType": "uint256",
                    "name": "oogaId",
                    "type": "uint256"
                },
                {
                    "indexed": true,
                    "internalType": "uint256",
                    "name": "newTokenId",
                    "type": "uint256"
                }
            ],
            "name": "BabyOogaEvolve",
            "type": "event"
        },
        {
            "anonymous": false,
            "inputs": [
                {
                    "indexed": true,
                    "internalType": "address",
                    "name": "account",
                    "type": "address"
                },
                {
                    "indexed": true,
                    "internalType": "uint256",
                    "name": "crewId",
                    "type": "uint256"
                },
                {
                    "indexed": false,
                    "internalType": "uint256",
                    "name": "amount",
                    "type": "uint256"
                }
            ],
            "name": "ClaimCrewReward",
            "type": "event"
        },
        {
            "anonymous": false,
            "inputs": [
                {
                    "indexed": true,
                    "internalType": "uint256",
                    "name": "claimId",
                    "type": "uint256"
                },
                {
                    "indexed": true,
                    "internalType": "address",
                    "name": "account",
                    "type": "address"
                },
                {
                    "indexed": true,
                    "internalType": "uint256",
                    "name": "tokenId",
                    "type": "uint256"
                },
                {
                    "indexed": false,
                    "internalType": "uint256",
                    "name": "amount",
                    "type": "uint256"
                }
            ],
            "name": "ClaimReward",
            "type": "event"
        },
        {
            "anonymous": false,
            "inputs": [
                {
                    "indexed": true,
                    "internalType": "address",
                    "name": "account",
                    "type": "address"
                },
                {
                    "indexed": true,
                    "internalType": "uint256",
                    "name": "oogaId",
                    "type": "uint256"
                },
                {
                    "indexed": false,
                    "internalType": "uint256",
                    "name": "newLevel",
                    "type": "uint256"
                }
            ],
            "name": "LevelUpRoboOoga",
            "type": "event"
        },
        {
            "anonymous": false,
            "inputs": [
                {
                    "indexed": true,
                    "internalType": "address",
                    "name": "account",
                    "type": "address"
                },
                {
                    "indexed": true,
                    "internalType": "uint256",
                    "name": "crewId",
                    "type": "uint256"
                },
                {
                    "indexed": false,
                    "internalType": "uint256[]",
                    "name": "tokenIds",
                    "type": "uint256[]"
                }
            ],
            "name": "MakeCrew",
            "type": "event"
        },
        {
            "anonymous": false,
            "inputs": [
                {
                    "indexed": true,
                    "internalType": "uint256",
                    "name": "tokenId",
                    "type": "uint256"
                },
                {
                    "indexed": false,
                    "internalType": "uint256",
                    "name": "megaLevel",
                    "type": "uint256"
                }
            ],
            "name": "MegaMerged",
            "type": "event"
        },
        {
            "anonymous": false,
            "inputs": [
                {
                    "indexed": true,
                    "internalType": "uint256",
                    "name": "tokenId",
                    "type": "uint256"
                }
            ],
            "name": "MekaConvert",
            "type": "event"
        },
        {
            "anonymous": false,
            "inputs": [
                {
                    "indexed": true,
                    "internalType": "address",
                    "name": "account",
                    "type": "address"
                },
                {
                    "indexed": false,
                    "internalType": "uint256",
                    "name": "oogaIdSave",
                    "type": "uint256"
                },
                {
                    "indexed": true,
                    "internalType": "uint256",
                    "name": "oogaIdBurn",
                    "type": "uint256"
                }
            ],
            "name": "MergeMekaApes",
            "type": "event"
        },
        {
            "anonymous": false,
            "inputs": [
                {
                    "indexed": true,
                    "internalType": "address",
                    "name": "account",
                    "type": "address"
                },
                {
                    "indexed": false,
                    "internalType": "uint256",
                    "name": "startFromTokenId",
                    "type": "uint256"
                },
                {
                    "indexed": false,
                    "internalType": "uint256",
                    "name": "amount",
                    "type": "uint256"
                }
            ],
            "name": "MintMultipleRobo",
            "type": "event"
        },
        {
            "anonymous": false,
            "inputs": [
                {
                    "indexed": true,
                    "internalType": "uint256",
                    "name": "oogaId",
                    "type": "uint256"
                },
                {
                    "indexed": true,
                    "internalType": "address",
                    "name": "tributeAccount",
                    "type": "address"
                },
                {
                    "indexed": false,
                    "internalType": "uint256",
                    "name": "tributeOogaId",
                    "type": "uint256"
                }
            ],
            "name": "OogaAttacked",
            "type": "event"
        },
        {
            "anonymous": false,
            "inputs": [
                {
                    "indexed": true,
                    "internalType": "address",
                    "name": "previousOwner",
                    "type": "address"
                },
                {
                    "indexed": true,
                    "internalType": "address",
                    "name": "newOwner",
                    "type": "address"
                }
            ],
            "name": "OwnershipTransferred",
            "type": "event"
        },
        {
            "anonymous": false,
            "inputs": [
                {
                    "indexed": true,
                    "internalType": "uint256",
                    "name": "requestId",
                    "type": "uint256"
                },
                {
                    "indexed": false,
                    "internalType": "uint256",
                    "name": "entropy",
                    "type": "uint256"
                }
            ],
            "name": "ReceiveRandoms",
            "type": "event"
        },
        {
            "anonymous": false,
            "inputs": [
                {
                    "indexed": true,
                    "internalType": "uint256",
                    "name": "crewId",
                    "type": "uint256"
                }
            ],
            "name": "RemoveCrew",
            "type": "event"
        },
        {
            "anonymous": false,
            "inputs": [
                {
                    "indexed": true,
                    "internalType": "uint256",
                    "name": "requestId",
                    "type": "uint256"
                },
                {
                    "indexed": false,
                    "internalType": "uint256",
                    "name": "requestSeed",
                    "type": "uint256"
                }
            ],
            "name": "RequestRandoms",
            "type": "event"
        },
        {
            "anonymous": false,
            "inputs": [
                {
                    "indexed": true,
                    "internalType": "address",
                    "name": "account",
                    "type": "address"
                },
                {
                    "indexed": true,
                    "internalType": "uint256",
                    "name": "tokenId",
                    "type": "uint256"
                }
            ],
            "name": "RoboMint",
            "type": "event"
        },
        {
            "anonymous": false,
            "inputs": [
                {
                    "indexed": true,
                    "internalType": "uint256",
                    "name": "oogaId",
                    "type": "uint256"
                },
                {
                    "indexed": true,
                    "internalType": "address",
                    "name": "account",
                    "type": "address"
                }
            ],
            "name": "StakeOoga",
            "type": "event"
        },
        {
            "anonymous": false,
            "inputs": [
                {
                    "indexed": true,
                    "internalType": "uint256",
                    "name": "claimId",
                    "type": "uint256"
                },
                {
                    "indexed": false,
                    "internalType": "uint256",
                    "name": "totalTax",
                    "type": "uint256"
                }
            ],
            "name": "TaxReward",
            "type": "event"
        },
        {
            "anonymous": false,
            "inputs": [
                {
                    "indexed": true,
                    "internalType": "uint256",
                    "name": "oogaId",
                    "type": "uint256"
                },
                {
                    "indexed": true,
                    "internalType": "address",
                    "name": "account",
                    "type": "address"
                }
            ],
            "name": "UnstakeOoga",
            "type": "event"
        },
        {
            "inputs": [],
            "name": "ATTACK_CHANCE_DENOM",
            "outputs": [
                {
                    "internalType": "uint256",
                    "name": "",
                    "type": "uint256"
                }
            ],
            "stateMutability": "view",
            "type": "function"
        },
        {
            "inputs": [],
            "name": "CLAIM_TAX_DENOM",
            "outputs": [
                {
                    "internalType": "uint256",
                    "name": "",
                    "type": "uint256"
                }
            ],
            "stateMutability": "view",
            "type": "function"
        },
        {
            "inputs": [
                {
                    "internalType": "uint256",
                    "name": "amount",
                    "type": "uint256"
                }
            ],
            "name": "_ogRewardMint",
            "outputs": [],
            "stateMutability": "nonpayable",
            "type": "function"
        },
        {
            "inputs": [],
            "name": "addedOgForRewardsAtEnd",
            "outputs": [
                {
                    "internalType": "uint256",
                    "name": "",
                    "type": "uint256"
                }
            ],
            "stateMutability": "view",
            "type": "function"
        },
        {
            "inputs": [],
            "name": "allMintedTimestamp",
            "outputs": [
                {
                    "internalType": "uint256",
                    "name": "",
                    "type": "uint256"
                }
            ],
            "stateMutability": "view",
            "type": "function"
        },
        {
            "inputs": [],
            "name": "allTokensMinted",
            "outputs": [
                {
                    "internalType": "bool",
                    "name": "",
                    "type": "bool"
                }
            ],
            "stateMutability": "view",
            "type": "function"
        },
        {
            "inputs": [
                {
                    "internalType": "address",
                    "name": "account",
                    "type": "address"
                },
                {
                    "internalType": "uint256",
                    "name": "mintAllowance",
                    "type": "uint256"
                }
            ],
            "name": "allowedToMint",
            "outputs": [
                {
                    "internalType": "uint256",
                    "name": "",
                    "type": "uint256"
                }
            ],
            "stateMutability": "view",
            "type": "function"
        },
        {
            "inputs": [],
            "name": "baseFeeRefreshTime",
            "outputs": [
                {
                    "internalType": "uint256",
                    "name": "",
                    "type": "uint256"
                }
            ],
            "stateMutability": "view",
            "type": "function"
        },
        {
            "inputs": [],
            "name": "baseFeeUpdatedAt",
            "outputs": [
                {
                    "internalType": "uint256",
                    "name": "",
                    "type": "uint256"
                }
            ],
            "stateMutability": "view",
            "type": "function"
        },
        {
            "inputs": [
                {
                    "internalType": "uint256",
                    "name": "baseFeeRefreshTime_",
                    "type": "uint256"
                }
            ],
            "name": "changeBaseFeeRefreshTime",
            "outputs": [],
            "stateMutability": "nonpayable",
            "type": "function"
        },
        {
            "inputs": [
                {
                    "internalType": "bool",
                    "name": "gameActive_",
                    "type": "bool"
                }
            ],
            "name": "changeGameActive",
            "outputs": [],
            "stateMutability": "nonpayable",
            "type": "function"
        },
        {
            "inputs": [
                {
                    "internalType": "uint256[]",
                    "name": "mintOGpriceSteps_",
                    "type": "uint256[]"
                }
            ],
            "name": "changeMintOGPriceSteps",
            "outputs": [],
            "stateMutability": "nonpayable",
            "type": "function"
        },
        {
            "inputs": [
                {
                    "components": [
                        {
                            "internalType": "uint256",
                            "name": "mintPrice",
                            "type": "uint256"
                        },
                        {
                            "internalType": "uint256",
                            "name": "mintStakePrice",
                            "type": "uint256"
                        },
                        {
                            "internalType": "uint256[]",
                            "name": "mintOGprice",
                            "type": "uint256[]"
                        },
                        {
                            "internalType": "uint256[]",
                            "name": "mintOGstakePrice",
                            "type": "uint256[]"
                        },
                        {
                            "internalType": "uint256",
                            "name": "mintDMTstakePrice",
                            "type": "uint256"
                        },
                        {
                            "internalType": "uint256[]",
                            "name": "roboLevelupPrice",
                            "type": "uint256[]"
                        },
                        {
                            "internalType": "uint256",
                            "name": "mekaMergePrice",
                            "type": "uint256"
                        }
                    ],
                    "internalType": "struct Prices",
                    "name": "prices_",
                    "type": "tuple"
                }
            ],
            "name": "changePrices",
            "outputs": [],
            "stateMutability": "nonpayable",
            "type": "function"
        },
        {
            "inputs": [
                {
                    "components": [
                        {
                            "internalType": "uint256",
                            "name": "mintBase",
                            "type": "uint256"
                        },
                        {
                            "internalType": "uint256",
                            "name": "mintPerToken",
                            "type": "uint256"
                        },
                        {
                            "internalType": "uint256",
                            "name": "mintPerTokenStaked",
                            "type": "uint256"
                        },
                        {
                            "internalType": "uint256",
                            "name": "unstakeBase",
                            "type": "uint256"
                        },
                        {
                            "internalType": "uint256",
                            "name": "unstakePerToken",
                            "type": "uint256"
                        },
                        {
                            "internalType": "uint256",
                            "name": "mergeBase",
                            "type": "uint256"
                        }
                    ],
                    "internalType": "struct RandomsGas",
                    "name": "randomsGas_",
                    "type": "tuple"
                }
            ],
            "name": "changeRandomsGas",
            "outputs": [],
            "stateMutability": "nonpayable",
            "type": "function"
        },
        {
            "inputs": [
                {
                    "internalType": "uint256[]",
                    "name": "roboOogaRewardPerSec_",
                    "type": "uint256[]"
                },
                {
                    "internalType": "uint256[]",
                    "name": "roboOogaMinimalRewardToUnstake_",
                    "type": "uint256[]"
                },
                {
                    "internalType": "uint256[]",
                    "name": "roboOogaRewardAttackProbabilities_",
                    "type": "uint256[]"
                }
            ],
            "name": "changeRoboParameters",
            "outputs": [],
            "stateMutability": "nonpayable",
            "type": "function"
        },
        {
            "inputs": [
                {
                    "internalType": "uint256",
                    "name": "tokenId",
                    "type": "uint256"
                }
            ],
            "name": "claimAvailableAmount",
            "outputs": [
                {
                    "internalType": "uint256",
                    "name": "",
                    "type": "uint256"
                }
            ],
            "stateMutability": "view",
            "type": "function"
        },
        {
            "inputs": [
                {
                    "internalType": "uint256",
                    "name": "crewId",
                    "type": "uint256"
                }
            ],
            "name": "claimAvailableAmountCrew",
            "outputs": [
                {
                    "internalType": "uint256",
                    "name": "",
                    "type": "uint256"
                }
            ],
            "stateMutability": "view",
            "type": "function"
        },
        {
            "inputs": [
                {
                    "internalType": "uint256[]",
                    "name": "crewIds",
                    "type": "uint256[]"
                }
            ],
            "name": "claimAvailableAmountMultipleCrews",
            "outputs": [
                {
                    "internalType": "uint256[]",
                    "name": "result",
                    "type": "uint256[]"
                }
            ],
            "stateMutability": "view",
            "type": "function"
        },
        {
            "inputs": [
                {
                    "internalType": "uint256[]",
                    "name": "tokenIds",
                    "type": "uint256[]"
                }
            ],
            "name": "claimAvailableAmountMultipleTokens",
            "outputs": [
                {
                    "internalType": "uint256[]",
                    "name": "result",
                    "type": "uint256[]"
                }
            ],
            "stateMutability": "view",
            "type": "function"
        },
        {
            "inputs": [
                {
                    "internalType": "uint256",
                    "name": "crewId",
                    "type": "uint256"
                }
            ],
            "name": "claimCrewReward",
            "outputs": [],
            "stateMutability": "nonpayable",
            "type": "function"
        },
        {
            "inputs": [
                {
                    "internalType": "uint256",
                    "name": "",
                    "type": "uint256"
                }
            ],
            "name": "claimRequests",
            "outputs": [
                {
                    "internalType": "uint256",
                    "name": "totalMekaReward",
                    "type": "uint256"
                }
            ],
            "stateMutability": "view",
            "type": "function"
        },
        {
            "inputs": [
                {
                    "internalType": "uint256[]",
                    "name": "tokenIds",
                    "type": "uint256[]"
                }
            ],
            "name": "claimReward",
            "outputs": [],
            "stateMutability": "nonpayable",
            "type": "function"
        },
        {
            "inputs": [],
            "name": "claimTax",
            "outputs": [
                {
                    "internalType": "uint256",
                    "name": "",
                    "type": "uint256"
                }
            ],
            "stateMutability": "view",
            "type": "function"
        },
        {
            "inputs": [
                {
                    "internalType": "uint256[]",
                    "name": "tokenIds",
                    "type": "uint256[]"
                }
            ],
            "name": "createCrew",
            "outputs": [],
            "stateMutability": "nonpayable",
            "type": "function"
        },
        {
            "inputs": [],
            "name": "crewClaimPercent",
            "outputs": [
                {
                    "internalType": "uint256",
                    "name": "",
                    "type": "uint256"
                }
            ],
            "stateMutability": "view",
            "type": "function"
        },
        {
            "inputs": [
                {
                    "internalType": "uint256",
                    "name": "",
                    "type": "uint256"
                }
            ],
            "name": "crews",
            "outputs": [
                {
                    "internalType": "address",
                    "name": "owner",
                    "type": "address"
                },
                {
                    "internalType": "uint256",
                    "name": "lastClaimTimestamp",
                    "type": "uint256"
                },
                {
                    "internalType": "uint256",
                    "name": "totalRewardPerSec",
                    "type": "uint256"
                }
            ],
            "stateMutability": "view",
            "type": "function"
        },
        {
            "inputs": [],
            "name": "currentBaseFee",
            "outputs": [
                {
                    "internalType": "uint256",
                    "name": "",
                    "type": "uint256"
                }
            ],
            "stateMutability": "view",
            "type": "function"
        },
        {
            "inputs": [],
            "name": "currentOgPriceStep",
            "outputs": [
                {
                    "internalType": "uint256",
                    "name": "",
                    "type": "uint256"
                }
            ],
            "stateMutability": "view",
            "type": "function"
        },
        {
            "inputs": [],
            "name": "dmtMintAttackChance",
            "outputs": [
                {
                    "internalType": "uint256",
                    "name": "",
                    "type": "uint256"
                }
            ],
            "stateMutability": "view",
            "type": "function"
        },
        {
            "inputs": [],
            "name": "dmtToken",
            "outputs": [
                {
                    "internalType": "contract IDMT_ERC20",
                    "name": "",
                    "type": "address"
                }
            ],
            "stateMutability": "view",
            "type": "function"
        },
        {
            "inputs": [],
            "name": "erc721Contract",
            "outputs": [
                {
                    "internalType": "contract MekaApesERC721",
                    "name": "",
                    "type": "address"
                }
            ],
            "stateMutability": "view",
            "type": "function"
        },
        {
            "inputs": [],
            "name": "ethMintAttackChance",
            "outputs": [
                {
                    "internalType": "uint256",
                    "name": "",
                    "type": "uint256"
                }
            ],
            "stateMutability": "view",
            "type": "function"
        },
        {
            "inputs": [
                {
                    "internalType": "uint256[]",
                    "name": "tokenIds",
                    "type": "uint256[]"
                }
            ],
            "name": "evolveBabyOogas",
            "outputs": [],
            "stateMutability": "nonpayable",
            "type": "function"
        },
        {
            "inputs": [],
            "name": "gameActive",
            "outputs": [
                {
                    "internalType": "bool",
                    "name": "",
                    "type": "bool"
                }
            ],
            "stateMutability": "view",
            "type": "function"
        },
        {
            "inputs": [],
            "name": "getPrices",
            "outputs": [
                {
                    "components": [
                        {
                            "internalType": "uint256",
                            "name": "mintPrice",
                            "type": "uint256"
                        },
                        {
                            "internalType": "uint256",
                            "name": "mintStakePrice",
                            "type": "uint256"
                        },
                        {
                            "internalType": "uint256",
                            "name": "mintOGprice",
                            "type": "uint256"
                        },
                        {
                            "internalType": "uint256",
                            "name": "mintOGstakePrice",
                            "type": "uint256"
                        },
                        {
                            "internalType": "uint256",
                            "name": "mintDMTstakePrice",
                            "type": "uint256"
                        },
                        {
                            "internalType": "uint256[]",
                            "name": "roboLevelupPrice",
                            "type": "uint256[]"
                        },
                        {
                            "internalType": "uint256",
                            "name": "mekaMergePrice",
                            "type": "uint256"
                        },
                        {
                            "internalType": "uint256[]",
                            "name": "roboLevelupPriceOG",
                            "type": "uint256[]"
                        }
                    ],
                    "internalType": "struct PricesGetter",
                    "name": "",
                    "type": "tuple"
                }
            ],
            "stateMutability": "view",
            "type": "function"
        },
        {
            "inputs": [
                {
                    "internalType": "uint256",
                    "name": "",
                    "type": "uint256"
                }
            ],
            "name": "inCrew",
            "outputs": [
                {
                    "internalType": "uint256",
                    "name": "",
                    "type": "uint256"
                }
            ],
            "stateMutability": "view",
            "type": "function"
        },
        {
            "inputs": [],
            "name": "initV2",
            "outputs": [
                {
                    "internalType": "bool",
                    "name": "",
                    "type": "bool"
                }
            ],
            "stateMutability": "view",
            "type": "function"
        },
        {
            "inputs": [],
            "name": "initV3",
            "outputs": [
                {
                    "internalType": "bool",
                    "name": "",
                    "type": "bool"
                }
            ],
            "stateMutability": "view",
            "type": "function"
        },
        {
            "inputs": [],
            "name": "initV4",
            "outputs": [
                {
                    "internalType": "bool",
                    "name": "",
                    "type": "bool"
                }
            ],
            "stateMutability": "view",
            "type": "function"
        },
        {
            "inputs": [],
            "name": "initV5",
            "outputs": [
                {
                    "internalType": "bool",
                    "name": "",
                    "type": "bool"
                }
            ],
            "stateMutability": "view",
            "type": "function"
        },
        {
            "inputs": [
                {
                    "internalType": "uint256[]",
                    "name": "roboLevelupPrice_",
                    "type": "uint256[]"
                },
                {
                    "internalType": "uint256[]",
                    "name": "roboLevelupPriceOG_",
                    "type": "uint256[]"
                },
                {
                    "internalType": "uint256[]",
                    "name": "maxCrewForMekaLevel_",
                    "type": "uint256[]"
                },
                {
                    "internalType": "uint256[]",
                    "name": "roboOogaRewardPerSecInCrew_",
                    "type": "uint256[]"
                },
                {
                    "internalType": "uint256[]",
                    "name": "mekaCrewRewardMultiplier_",
                    "type": "uint256[]"
                }
            ],
            "name": "initialize_stage15",
            "outputs": [],
            "stateMutability": "nonpayable",
            "type": "function"
        },
        {
            "inputs": [
                {
                    "internalType": "uint256",
                    "name": "oogaId",
                    "type": "uint256"
                }
            ],
            "name": "isBabyOogaEvolved",
            "outputs": [
                {
                    "internalType": "bool",
                    "name": "",
                    "type": "bool"
                }
            ],
            "stateMutability": "view",
            "type": "function"
        },
        {
            "inputs": [
                {
                    "internalType": "uint256",
                    "name": "tokenId",
                    "type": "uint256"
                }
            ],
            "name": "levelUpRoboOooga",
            "outputs": [],
            "stateMutability": "nonpayable",
            "type": "function"
        },
        {
            "inputs": [
                {
                    "internalType": "uint256",
                    "name": "tokenId",
                    "type": "uint256"
                },
                {
                    "internalType": "uint256",
                    "name": "burnTokenId",
                    "type": "uint256"
                }
            ],
            "name": "levelUpRoboOoogaWithOG",
            "outputs": [],
            "stateMutability": "nonpayable",
            "type": "function"
        },
        {
            "inputs": [
                {
                    "internalType": "uint256",
                    "name": "",
                    "type": "uint256"
                }
            ],
            "name": "maxCrewForMekaLevel",
            "outputs": [
                {
                    "internalType": "uint256",
                    "name": "",
                    "type": "uint256"
                }
            ],
            "stateMutability": "view",
            "type": "function"
        },
        {
            "inputs": [],
            "name": "maxMintWithDMT",
            "outputs": [
                {
                    "internalType": "uint256",
                    "name": "",
                    "type": "uint256"
                }
            ],
            "stateMutability": "view",
            "type": "function"
        },
        {
            "inputs": [],
            "name": "maxMintedRewardTokens",
            "outputs": [
                {
                    "internalType": "uint256",
                    "name": "",
                    "type": "uint256"
                }
            ],
            "stateMutability": "view",
            "type": "function"
        },
        {
            "inputs": [],
            "name": "maxOgSupply",
            "outputs": [
                {
                    "internalType": "uint256",
                    "name": "",
                    "type": "uint256"
                }
            ],
            "stateMutability": "view",
            "type": "function"
        },
        {
            "inputs": [],
            "name": "maxTokenSupply",
            "outputs": [
                {
                    "internalType": "uint256",
                    "name": "",
                    "type": "uint256"
                }
            ],
            "stateMutability": "view",
            "type": "function"
        },
        {
            "inputs": [
                {
                    "internalType": "uint256",
                    "name": "",
                    "type": "uint256"
                }
            ],
            "name": "megaLevelProbabilities",
            "outputs": [
                {
                    "internalType": "uint256",
                    "name": "",
                    "type": "uint256"
                }
            ],
            "stateMutability": "view",
            "type": "function"
        },
        {
            "inputs": [
                {
                    "internalType": "uint256",
                    "name": "",
                    "type": "uint256"
                },
                {
                    "internalType": "uint256",
                    "name": "",
                    "type": "uint256"
                }
            ],
            "name": "megaStaked",
            "outputs": [
                {
                    "internalType": "uint256",
                    "name": "",
                    "type": "uint256"
                }
            ],
            "stateMutability": "view",
            "type": "function"
        },
        {
            "inputs": [
                {
                    "internalType": "uint256",
                    "name": "",
                    "type": "uint256"
                }
            ],
            "name": "megaTributePoints",
            "outputs": [
                {
                    "internalType": "uint256",
                    "name": "",
                    "type": "uint256"
                }
            ],
            "stateMutability": "view",
            "type": "function"
        },
        {
            "inputs": [
                {
                    "internalType": "uint256",
                    "name": "",
                    "type": "uint256"
                }
            ],
            "name": "mekaCrewRewardMultiplier",
            "outputs": [
                {
                    "internalType": "uint256",
                    "name": "",
                    "type": "uint256"
                }
            ],
            "stateMutability": "view",
            "type": "function"
        },
        {
            "inputs": [
                {
                    "internalType": "uint256",
                    "name": "",
                    "type": "uint256"
                }
            ],
            "name": "mekaLevelSharePoints",
            "outputs": [
                {
                    "internalType": "uint256",
                    "name": "",
                    "type": "uint256"
                }
            ],
            "stateMutability": "view",
            "type": "function"
        },
        {
            "inputs": [],
            "name": "mekaTotalPointsStaked",
            "outputs": [
                {
                    "internalType": "uint256",
                    "name": "",
                    "type": "uint256"
                }
            ],
            "stateMutability": "view",
            "type": "function"
        },
        {
            "inputs": [],
            "name": "mekaTotalRewardPerPoint",
            "outputs": [
                {
                    "internalType": "uint256",
                    "name": "",
                    "type": "uint256"
                }
            ],
            "stateMutability": "view",
            "type": "function"
        },
        {
            "inputs": [
                {
                    "internalType": "uint256",
                    "name": "tokenIdSave",
                    "type": "uint256"
                },
                {
                    "internalType": "uint256",
                    "name": "tokenIdBurn",
                    "type": "uint256"
                }
            ],
            "name": "mergeMekaApes",
            "outputs": [],
            "stateMutability": "payable",
            "type": "function"
        },
        {
            "inputs": [],
            "name": "mergeRandomGas",
            "outputs": [
                {
                    "internalType": "uint256",
                    "name": "",
                    "type": "uint256"
                }
            ],
            "stateMutability": "view",
            "type": "function"
        },
        {
            "inputs": [
                {
                    "internalType": "uint256",
                    "name": "",
                    "type": "uint256"
                }
            ],
            "name": "mergeRequests",
            "outputs": [
                {
                    "internalType": "uint256",
                    "name": "",
                    "type": "uint256"
                }
            ],
            "stateMutability": "view",
            "type": "function"
        },
        {
            "inputs": [
                {
                    "internalType": "uint256",
                    "name": "",
                    "type": "uint256"
                }
            ],
            "name": "mintOGpriceSteps",
            "outputs": [
                {
                    "internalType": "uint256",
                    "name": "",
                    "type": "uint256"
                }
            ],
            "stateMutability": "view",
            "type": "function"
        },
        {
            "inputs": [
                {
                    "internalType": "uint256",
                    "name": "amount",
                    "type": "uint256"
                },
                {
                    "internalType": "bool",
                    "name": "staking",
                    "type": "bool"
                }
            ],
            "name": "mintRandomGas",
            "outputs": [
                {
                    "internalType": "uint256",
                    "name": "",
                    "type": "uint256"
                }
            ],
            "stateMutability": "view",
            "type": "function"
        },
        {
            "inputs": [
                {
                    "internalType": "uint256",
                    "name": "",
                    "type": "uint256"
                }
            ],
            "name": "mintRequests",
            "outputs": [
                {
                    "internalType": "uint32",
                    "name": "startFromId",
                    "type": "uint32"
                },
                {
                    "internalType": "uint8",
                    "name": "amount",
                    "type": "uint8"
                },
                {
                    "internalType": "uint8",
                    "name": "attackChance",
                    "type": "uint8"
                },
                {
                    "internalType": "bool",
                    "name": "toStake",
                    "type": "bool"
                }
            ],
            "stateMutability": "view",
            "type": "function"
        },
        {
            "inputs": [
                {
                    "internalType": "address",
                    "name": "toAddress",
                    "type": "address"
                },
                {
                    "internalType": "uint256",
                    "name": "amount",
                    "type": "uint256"
                }
            ],
            "name": "mintRewardTokens",
            "outputs": [],
            "stateMutability": "nonpayable",
            "type": "function"
        },
        {
            "inputs": [],
            "name": "mintSale",
            "outputs": [
                {
                    "internalType": "bool",
                    "name": "",
                    "type": "bool"
                }
            ],
            "stateMutability": "view",
            "type": "function"
        },
        {
            "inputs": [],
            "name": "mintSaleAmount",
            "outputs": [
                {
                    "internalType": "uint256",
                    "name": "",
                    "type": "uint256"
                }
            ],
            "stateMutability": "view",
            "type": "function"
        },
        {
            "inputs": [],
            "name": "mintSigWallet",
            "outputs": [
                {
                    "internalType": "address",
                    "name": "",
                    "type": "address"
                }
            ],
            "stateMutability": "view",
            "type": "function"
        },
        {
            "inputs": [
                {
                    "internalType": "uint256",
                    "name": "amount",
                    "type": "uint256"
                }
            ],
            "name": "mintWithDMT",
            "outputs": [],
            "stateMutability": "payable",
            "type": "function"
        },
        {
            "inputs": [
                {
                    "internalType": "uint256",
                    "name": "amount",
                    "type": "uint256"
                },
                {
                    "internalType": "bool",
                    "name": "toStake",
                    "type": "bool"
                }
            ],
            "name": "mintWithOG",
            "outputs": [],
            "stateMutability": "payable",
            "type": "function"
        },
        {
            "inputs": [],
            "name": "nextClaimWithoutRandomId",
            "outputs": [
                {
                    "internalType": "uint256",
                    "name": "",
                    "type": "uint256"
                }
            ],
            "stateMutability": "view",
            "type": "function"
        },
        {
            "inputs": [],
            "name": "nextCrewId",
            "outputs": [
                {
                    "internalType": "uint256",
                    "name": "",
                    "type": "uint256"
                }
            ],
            "stateMutability": "view",
            "type": "function"
        },
        {
            "inputs": [],
            "name": "nextRandomRequestId",
            "outputs": [
                {
                    "internalType": "uint256",
                    "name": "",
                    "type": "uint256"
                }
            ],
            "stateMutability": "view",
            "type": "function"
        },
        {
            "inputs": [],
            "name": "nextTokenId",
            "outputs": [
                {
                    "internalType": "uint256",
                    "name": "",
                    "type": "uint256"
                }
            ],
            "stateMutability": "view",
            "type": "function"
        },
        {
            "inputs": [
                {
                    "internalType": "address",
                    "name": "",
                    "type": "address"
                }
            ],
            "name": "numberOfMintedOogas",
            "outputs": [
                {
                    "internalType": "uint256",
                    "name": "",
                    "type": "uint256"
                }
            ],
            "stateMutability": "view",
            "type": "function"
        },
        {
            "inputs": [],
            "name": "ogMintAttackChance",
            "outputs": [
                {
                    "internalType": "uint256",
                    "name": "",
                    "type": "uint256"
                }
            ],
            "stateMutability": "view",
            "type": "function"
        },
        {
            "inputs": [],
            "name": "ogMinted",
            "outputs": [
                {
                    "internalType": "uint256",
                    "name": "",
                    "type": "uint256"
                }
            ],
            "stateMutability": "view",
            "type": "function"
        },
        {
            "inputs": [],
            "name": "ogRewardMinted",
            "outputs": [
                {
                    "internalType": "bool",
                    "name": "",
                    "type": "bool"
                }
            ],
            "stateMutability": "view",
            "type": "function"
        },
        {
            "inputs": [],
            "name": "ogToken",
            "outputs": [
                {
                    "internalType": "contract OogearERC20",
                    "name": "",
                    "type": "address"
                }
            ],
            "stateMutability": "view",
            "type": "function"
        },
        {
            "inputs": [
                {
                    "internalType": "uint256",
                    "name": "",
                    "type": "uint256"
                }
            ],
            "name": "oogaAttributes",
            "outputs": [
                {
                    "internalType": "enum OogaType",
                    "name": "oogaType",
                    "type": "uint8"
                },
                {
                    "internalType": "uint8",
                    "name": "level",
                    "type": "uint8"
                },
                {
                    "internalType": "bool",
                    "name": "staked",
                    "type": "bool"
                },
                {
                    "internalType": "address",
                    "name": "stakedOwner",
                    "type": "address"
                },
                {
                    "internalType": "uint256",
                    "name": "lastClaimTimestamp",
                    "type": "uint256"
                },
                {
                    "internalType": "uint256",
                    "name": "savedReward",
                    "type": "uint256"
                },
                {
                    "internalType": "uint256",
                    "name": "lastRewardPerPoint",
                    "type": "uint256"
                },
                {
                    "internalType": "uint256",
                    "name": "stakedMegaIndex",
                    "type": "uint256"
                }
            ],
            "stateMutability": "view",
            "type": "function"
        },
        {
            "inputs": [
                {
                    "internalType": "uint256",
                    "name": "",
                    "type": "uint256"
                }
            ],
            "name": "oogaEvolved",
            "outputs": [
                {
                    "internalType": "bool",
                    "name": "",
                    "type": "bool"
                }
            ],
            "stateMutability": "view",
            "type": "function"
        },
        {
            "inputs": [],
            "name": "oogaVerse",
            "outputs": [
                {
                    "internalType": "contract IERC721",
                    "name": "",
                    "type": "address"
                }
            ],
            "stateMutability": "view",
            "type": "function"
        },
        {
            "inputs": [],
            "name": "owner",
            "outputs": [
                {
                    "internalType": "address",
                    "name": "",
                    "type": "address"
                }
            ],
            "stateMutability": "view",
            "type": "function"
        },
        {
            "inputs": [],
            "name": "previousBaseFee",
            "outputs": [
                {
                    "internalType": "uint256",
                    "name": "",
                    "type": "uint256"
                }
            ],
            "stateMutability": "view",
            "type": "function"
        },
        {
            "inputs": [],
            "name": "prices",
            "outputs": [
                {
                    "internalType": "uint256",
                    "name": "mintPrice",
                    "type": "uint256"
                },
                {
                    "internalType": "uint256",
                    "name": "mintStakePrice",
                    "type": "uint256"
                },
                {
                    "internalType": "uint256",
                    "name": "mintDMTstakePrice",
                    "type": "uint256"
                },
                {
                    "internalType": "uint256",
                    "name": "mekaMergePrice",
                    "type": "uint256"
                }
            ],
            "stateMutability": "view",
            "type": "function"
        },
        {
            "inputs": [],
            "name": "publicMintAllowance",
            "outputs": [
                {
                    "internalType": "uint256",
                    "name": "",
                    "type": "uint256"
                }
            ],
            "stateMutability": "view",
            "type": "function"
        },
        {
            "inputs": [],
            "name": "publicMintStarted",
            "outputs": [
                {
                    "internalType": "bool",
                    "name": "",
                    "type": "bool"
                }
            ],
            "stateMutability": "view",
            "type": "function"
        },
        {
            "inputs": [],
            "name": "randomMekaProbability",
            "outputs": [
                {
                    "internalType": "uint256",
                    "name": "",
                    "type": "uint256"
                }
            ],
            "stateMutability": "view",
            "type": "function"
        },
        {
            "inputs": [],
            "name": "randomProvider",
            "outputs": [
                {
                    "internalType": "address",
                    "name": "",
                    "type": "address"
                }
            ],
            "stateMutability": "view",
            "type": "function"
        },
        {
            "inputs": [
                {
                    "internalType": "uint256",
                    "name": "",
                    "type": "uint256"
                }
            ],
            "name": "randomRequests",
            "outputs": [
                {
                    "internalType": "enum RandomRequestType",
                    "name": "requestType",
                    "type": "uint8"
                },
                {
                    "internalType": "address",
                    "name": "user",
                    "type": "address"
                },
                {
                    "internalType": "bool",
                    "name": "active",
                    "type": "bool"
                }
            ],
            "stateMutability": "view",
            "type": "function"
        },
        {
            "inputs": [],
            "name": "randomsGas",
            "outputs": [
                {
                    "internalType": "uint256",
                    "name": "mintBase",
                    "type": "uint256"
                },
                {
                    "internalType": "uint256",
                    "name": "mintPerToken",
                    "type": "uint256"
                },
                {
                    "internalType": "uint256",
                    "name": "mintPerTokenStaked",
                    "type": "uint256"
                },
                {
                    "internalType": "uint256",
                    "name": "unstakeBase",
                    "type": "uint256"
                },
                {
                    "internalType": "uint256",
                    "name": "unstakePerToken",
                    "type": "uint256"
                },
                {
                    "internalType": "uint256",
                    "name": "mergeBase",
                    "type": "uint256"
                }
            ],
            "stateMutability": "view",
            "type": "function"
        },
        {
            "inputs": [
                {
                    "internalType": "uint256[]",
                    "name": "requestIds",
                    "type": "uint256[]"
                },
                {
                    "internalType": "uint256[]",
                    "name": "entropies",
                    "type": "uint256[]"
                }
            ],
            "name": "receiveMultipleRandoms",
            "outputs": [],
            "stateMutability": "nonpayable",
            "type": "function"
        },
        {
            "inputs": [
                {
                    "internalType": "uint256",
                    "name": "requestId",
                    "type": "uint256"
                },
                {
                    "internalType": "uint256",
                    "name": "entropy",
                    "type": "uint256"
                }
            ],
            "name": "receiveRandoms",
            "outputs": [],
            "stateMutability": "nonpayable",
            "type": "function"
        },
        {
            "inputs": [],
            "name": "renounceOwnership",
            "outputs": [],
            "stateMutability": "nonpayable",
            "type": "function"
        },
        {
            "inputs": [
                {
                    "internalType": "uint256",
                    "name": "",
                    "type": "uint256"
                }
            ],
            "name": "roboLevelupPriceOG",
            "outputs": [
                {
                    "internalType": "uint256",
                    "name": "",
                    "type": "uint256"
                }
            ],
            "stateMutability": "view",
            "type": "function"
        },
        {
            "inputs": [
                {
                    "internalType": "uint256",
                    "name": "",
                    "type": "uint256"
                }
            ],
            "name": "roboOogaMinimalRewardToUnstake",
            "outputs": [
                {
                    "internalType": "uint256",
                    "name": "",
                    "type": "uint256"
                }
            ],
            "stateMutability": "view",
            "type": "function"
        },
        {
            "inputs": [
                {
                    "internalType": "uint256",
                    "name": "",
                    "type": "uint256"
                }
            ],
            "name": "roboOogaRewardAttackProbabilities",
            "outputs": [
                {
                    "internalType": "uint256",
                    "name": "",
                    "type": "uint256"
                }
            ],
            "stateMutability": "view",
            "type": "function"
        },
        {
            "inputs": [
                {
                    "internalType": "uint256",
                    "name": "",
                    "type": "uint256"
                }
            ],
            "name": "roboOogaRewardPerSec",
            "outputs": [
                {
                    "internalType": "uint256",
                    "name": "",
                    "type": "uint256"
                }
            ],
            "stateMutability": "view",
            "type": "function"
        },
        {
            "inputs": [
                {
                    "internalType": "uint256",
                    "name": "",
                    "type": "uint256"
                }
            ],
            "name": "roboOogaRewardPerSecInCrew",
            "outputs": [
                {
                    "internalType": "uint256",
                    "name": "",
                    "type": "uint256"
                }
            ],
            "stateMutability": "view",
            "type": "function"
        },
        {
            "inputs": [
                {
                    "internalType": "uint256",
                    "name": "",
                    "type": "uint256"
                }
            ],
            "name": "roboOogaRewardPerSec_midStage",
            "outputs": [
                {
                    "internalType": "uint256",
                    "name": "",
                    "type": "uint256"
                }
            ],
            "stateMutability": "view",
            "type": "function"
        },
        {
            "inputs": [
                {
                    "internalType": "uint256[]",
                    "name": "tokenIds",
                    "type": "uint256[]"
                }
            ],
            "name": "stake",
            "outputs": [],
            "stateMutability": "nonpayable",
            "type": "function"
        },
        {
            "inputs": [],
            "name": "tokensMintedWithDMT",
            "outputs": [
                {
                    "internalType": "uint256",
                    "name": "",
                    "type": "uint256"
                }
            ],
            "stateMutability": "view",
            "type": "function"
        },
        {
            "inputs": [],
            "name": "totalMintETH",
            "outputs": [
                {
                    "internalType": "uint256",
                    "name": "",
                    "type": "uint256"
                }
            ],
            "stateMutability": "view",
            "type": "function"
        },
        {
            "inputs": [],
            "name": "totalMintedRewardTokens",
            "outputs": [
                {
                    "internalType": "uint256",
                    "name": "",
                    "type": "uint256"
                }
            ],
            "stateMutability": "view",
            "type": "function"
        },
        {
            "inputs": [],
            "name": "totalMintedTokens",
            "outputs": [
                {
                    "internalType": "uint256",
                    "name": "",
                    "type": "uint256"
                }
            ],
            "stateMutability": "view",
            "type": "function"
        },
        {
            "inputs": [],
            "name": "totalRandomTxFee",
            "outputs": [
                {
                    "internalType": "uint256",
                    "name": "",
                    "type": "uint256"
                }
            ],
            "stateMutability": "view",
            "type": "function"
        },
        {
            "inputs": [],
            "name": "totalRandomTxFeeWithdrawn",
            "outputs": [
                {
                    "internalType": "uint256",
                    "name": "",
                    "type": "uint256"
                }
            ],
            "stateMutability": "view",
            "type": "function"
        },
        {
            "inputs": [
                {
                    "internalType": "address",
                    "name": "newOwner",
                    "type": "address"
                }
            ],
            "name": "transferOwnership",
            "outputs": [],
            "stateMutability": "nonpayable",
            "type": "function"
        },
        {
            "inputs": [
                {
                    "internalType": "uint256[]",
                    "name": "tokenIds",
                    "type": "uint256[]"
                }
            ],
            "name": "unstake",
            "outputs": [],
            "stateMutability": "payable",
            "type": "function"
        },
        {
            "inputs": [
                {
                    "internalType": "uint256",
                    "name": "crewId",
                    "type": "uint256"
                }
            ],
            "name": "unstakeCrew",
            "outputs": [],
            "stateMutability": "nonpayable",
            "type": "function"
        },
        {
            "inputs": [
                {
                    "internalType": "uint256",
                    "name": "roboAmount",
                    "type": "uint256"
                }
            ],
            "name": "unstakeRandomGas",
            "outputs": [
                {
                    "internalType": "uint256",
                    "name": "",
                    "type": "uint256"
                }
            ],
            "stateMutability": "view",
            "type": "function"
        },
        {
            "inputs": [
                {
                    "internalType": "contract IERC20",
                    "name": "token",
                    "type": "address"
                },
                {
                    "internalType": "address",
                    "name": "toAddress",
                    "type": "address"
                },
                {
                    "internalType": "uint256",
                    "name": "amount",
                    "type": "uint256"
                }
            ],
            "name": "withdrawERC20",
            "outputs": [],
            "stateMutability": "nonpayable",
            "type": "function"
        },
        {
            "inputs": [
                {
                    "internalType": "contract IERC721",
                    "name": "token",
                    "type": "address"
                },
                {
                    "internalType": "address",
                    "name": "toAddress",
                    "type": "address"
                },
                {
                    "internalType": "uint256",
                    "name": "tokenId",
                    "type": "uint256"
                }
            ],
            "name": "withdrawERC721",
            "outputs": [],
            "stateMutability": "nonpayable",
            "type": "function"
        },
        {
            "inputs": [
                {
                    "internalType": "uint256",
                    "name": "amount",
                    "type": "uint256"
                }
            ],
            "name": "withdrawMintETH",
            "outputs": [],
            "stateMutability": "nonpayable",
            "type": "function"
        },
        {
            "inputs": [
                {
                    "internalType": "uint256",
                    "name": "amount",
                    "type": "uint256"
                }
            ],
            "name": "withdrawRandomTxFee",
            "outputs": [],
            "stateMutability": "nonpayable",
            "type": "function"
        },
        {
            "inputs": [
                {
                    "internalType": "address",
                    "name": "",
                    "type": "address"
                }
            ],
            "name": "withdrawerLastTotalMintETH",
            "outputs": [
                {
                    "internalType": "uint256",
                    "name": "",
                    "type": "uint256"
                }
            ],
            "stateMutability": "view",
            "type": "function"
        },
        {
            "inputs": [
                {
                    "internalType": "address",
                    "name": "",
                    "type": "address"
                }
            ],
            "name": "withdrawerPercent",
            "outputs": [
                {
                    "internalType": "uint256",
                    "name": "",
                    "type": "uint256"
                }
            ],
            "stateMutability": "view",
            "type": "function"
        }
    ],
    "bytecode": "0x608060405234801561001057600080fd5b50615fd180620000216000396000f3fe6080604052600436106105f45760003560e01c806392bbfd5111610310578063ca97f5201161019c578063e6d35655116100ed578063ed3940791161009b578063ed394079146113f1578063eee21c2d14611411578063f020044f14611431578063f22395c814611450578063f2fde38b14611466578063f3db119114611486578063febeb1321461149c578063ff75eece146114b257600080fd5b8063e6d35655146112f6578063e6f0ba611461130c578063e826cdf11461132c578063e9a16bdb14611381578063ec01952b1461139b578063ec7373ce146113b1578063ecb24fb5146113de57600080fd5b8063d835de061161014a578063d835de0614611236578063dd2c09481461124c578063dd2f6d4b14611261578063e0fcd6661461128e578063e449f341146112ae578063e65f8816146112c0578063e6b4d60b146112e057600080fd5b8063ca97f52014611136578063cabf161414611150578063cecb2db714611170578063d3419bf314611190578063d385014d146111d3578063d6ebe4fe14611200578063d7c97fb41461121657600080fd5b8063ad11cd0511610261578063c06fda8e1161020f578063c06fda8e14611010578063c24b719714611026578063c37a576114611046578063c44ca13314611076578063c54b73581461108c578063c94c7ff4146110a2578063ca067ad0146110c2578063ca24964b1461111c57600080fd5b8063ad11cd0514610f42578063b168dce214610f62578063b56c610514610f82578063b5e6230114610f98578063b69b2a6514610fb8578063bb905c7514610fd8578063bd9a548b14610fee57600080fd5b80639e158276116102be5780639e15827614610e4c5780639e5aba1a14610e62578063a0e69fe614610e82578063a4acf05114610ea1578063a4da467e14610eb4578063a4e9f29714610ed4578063a5b63cc914610f2c57600080fd5b806392bbfd5114610d5357806393b2662a14610d8057806394be311014610da057806395044c9214610dc0578063961b294a14610de057806397881c2f14610dff5780639978924114610e2c57600080fd5b80634fc7c9721161048f578063746aab91116103e0578063833c7fc01161038e578063833c7fc014610c87578063834e91cf14610c9d57806385ea000514610cb35780638da5cb5b14610cd35780638e32e31614610ce85780638ec14dfc14610cfd5780638f46500e14610d13578063909e376d14610d3357600080fd5b8063746aab9114610bb557806375794a3c14610bd55780637bf1b56214610beb5780637d15132314610c0b5780637d5ee8e614610c215780637e5ae4b714610c3757806382a0cc8f14610c6757600080fd5b8063662162d51161043d578063662162d514610a7a57806366ed6fbe14610a905780636bff950614610ab05780636c4a8c1714610b335780636eee2dad14610b60578063715018a614610b80578063729a90c814610b9557600080fd5b80634fc7c972146109b857806350f7c204146109d857806351e9a59a146109ee578063536b2a7a14610a0e5780635544986314610a2e5780635ca2034a14610a4e5780635e71cc7c14610a6457600080fd5b80632e9554d31161054957806344004cc1116104f757806344004cc1146108f2578063448883d714610912578063448b77531461092857806346dd847314610942578063482a527814610962578063489da8ff146109825780634e47a79a146109a257600080fd5b80632e9554d3146107995780633186d3c9146107b357806338e692af146107e05780633a6a6ca3146107f65780633bf27cf1146108165780634025feb21461084e578063424e65751461086e57600080fd5b8063113bf887116105a6578063113bf887146106d7578063118b8daf146106ed57806319de5221146107035780631b9401cd14610723578063213edf361461074357806325782210146107635780632626b8291461077957600080fd5b806301719327146105f95780630181de4214610622578063035240051461063857806308a1c391146106625780630a1b494d146106825780630ee9a59b146106975780630fbf0a93146106b7575b600080fd5b34801561060557600080fd5b5061060f60855481565b6040519081526020015b60405180910390f35b34801561062e57600080fd5b5061060f608b5481565b34801561064457600080fd5b506093546106529060ff1681565b6040519015158152602001610619565b34801561066e57600080fd5b5061060f61067d36600461555d565b6114d2565b610695610690366004615584565b6114f3565b005b3480156106a357600080fd5b5061060f6106b236600461555d565b6116e4565b3480156106c357600080fd5b506106956106d23660046155ff565b6116f4565b3480156106e357600080fd5b5061060f607e5481565b3480156106f957600080fd5b5061060f60b85481565b34801561070f57600080fd5b5061060f61071e366004615640565b611837565b34801561072f57600080fd5b5061069561073e366004615640565b61186b565b34801561074f57600080fd5b5061069561075e36600461555d565b61189f565b34801561076f57600080fd5b5061060f60815481565b34801561078557600080fd5b5061060f61079436600461555d565b611b5d565b3480156107a557600080fd5b5060b0546106529060ff1681565b3480156107bf57600080fd5b5061060f6107ce36600461555d565b60b36020526000908152604090205481565b3480156107ec57600080fd5b5061060f608a5481565b34801561080257600080fd5b5061060f61081136600461555d565b611b6d565b34801561082257600080fd5b50606754610836906001600160a01b031681565b6040516001600160a01b039091168152602001610619565b34801561085a57600080fd5b50610695610869366004615677565b611b7d565b34801561087a57600080fd5b506108c261088936600461555d565b60a46020526000908152604090205463ffffffff81169060ff600160201b8204811691600160281b8104821691600160301b9091041684565b6040805163ffffffff95909516855260ff9384166020860152919092169083015215156060820152608001610619565b3480156108fe57600080fd5b5061069561090d366004615677565b611c13565b34801561091e57600080fd5b5061060f607d5481565b34801561093457600080fd5b5060b9546106529060ff1681565b34801561094e57600080fd5b5061069561095d366004615790565b611cc2565b34801561096e57600080fd5b5061060f61097d36600461555d565b611d6d565b34801561098e57600080fd5b5061060f61099d36600461555d565b611d7d565b3480156109ae57600080fd5b5061060f60b15481565b3480156109c457600080fd5b506106956109d336600461555d565b611d8d565b3480156109e457600080fd5b5061060f609a5481565b3480156109fa57600080fd5b5061060f610a0936600461555d565b611e63565b348015610a1a57600080fd5b50610695610a2936600461555d565b611e73565b348015610a3a57600080fd5b50610695610a4936600461586f565b611f56565b348015610a5a57600080fd5b5061060f60925481565b348015610a7057600080fd5b5061060f60955481565b348015610a8657600080fd5b5061060f609c5481565b348015610a9c57600080fd5b5061060f610aab36600461555d565b611fb3565b348015610abc57600080fd5b50610b1f610acb36600461555d565b6090602052600090815260409020805460018201546002830154600384015460049094015460ff8085169561010086048216956201000081049092169463010000009092046001600160a01b031693919288565b6040516106199897969594939291906158fe565b348015610b3f57600080fd5b5061060f610b4e36600461555d565b60a66020526000908152604090205481565b348015610b6c57600080fd5b50610695610b7b366004615955565b611fc3565b348015610b8c57600080fd5b5061069561205b565b348015610ba157600080fd5b5061060f610bb036600461555d565b612096565b348015610bc157600080fd5b50610695610bd036600461555d565b6120a6565b348015610be157600080fd5b5061060f607f5481565b348015610bf757600080fd5b5061060f610c0636600461555d565b612182565b348015610c1757600080fd5b5061060f60995481565b348015610c2d57600080fd5b5061060f60985481565b348015610c4357600080fd5b50610652610c5236600461555d565b60009081526091602052604090205460ff1690565b348015610c7357600080fd5b50610695610c82366004615981565b612192565b348015610c9357600080fd5b5061060f609d5481565b348015610ca957600080fd5b5061060f60975481565b348015610cbf57600080fd5b50610695610cce36600461555d565b61225e565b348015610cdf57600080fd5b50610836612292565b348015610cf457600080fd5b5061060f6122a1565b348015610d0957600080fd5b5061060f60aa5481565b348015610d1f57600080fd5b50606a54610836906001600160a01b031681565b348015610d3f57600080fd5b50606854610836906001600160a01b031681565b348015610d5f57600080fd5b5061060f610d6e366004615a71565b60a16020526000908152604090205481565b348015610d8c57600080fd5b5061060f610d9b36600461555d565b6122b7565b348015610dac57600080fd5b50610695610dbb366004615a8e565b6122d5565b348015610dcc57600080fd5b5061060f610ddb36600461555d565b61232a565b348015610dec57600080fd5b5060ac5461065290610100900460ff1681565b348015610e0b57600080fd5b50610e1f610e1a3660046155ff565b61235d565b6040516106199190615b27565b348015610e3857600080fd5b5061060f610e4736600461555d565b612405565b348015610e5857600080fd5b5061060f60865481565b348015610e6e57600080fd5b50610695610e7d366004615640565b612415565b348015610e8e57600080fd5b5060ae5461065290610100900460ff1681565b610695610eaf36600461555d565b612875565b348015610ec057600080fd5b50610695610ecf3660046155ff565b612a49565b348015610ee057600080fd5b50607254607354607454607554607654607754610eff95949392919086565b604080519687526020870195909552938501929092526060840152608083015260a082015260c001610619565b348015610f3857600080fd5b5061060f609f5481565b348015610f4e57600080fd5b50610695610f5d3660046155ff565b612e64565b348015610f6e57600080fd5b50610695610f7d36600461555d565b612e9f565b348015610f8e57600080fd5b5061060f60835481565b348015610fa457600080fd5b5061060f610fb336600461555d565b612f64565b348015610fc457600080fd5b50606654610836906001600160a01b031681565b348015610fe457600080fd5b5061060f60ad5481565b348015610ffa57600080fd5b5061100361318e565b6040516106199190615ba6565b34801561101c57600080fd5b5061060f60845481565b34801561103257600080fd5b5061060f611041366004615584565b613303565b34801561105257600080fd5b5061065261106136600461555d565b60916020526000908152604090205460ff1681565b34801561108257600080fd5b5061060f60ab5481565b34801561109857600080fd5b5061060f60a75481565b3480156110ae57600080fd5b506106956110bd3660046155ff565b61331c565b3480156110ce57600080fd5b5061110d6110dd36600461555d565b60a36020526000908152604090205460ff808216916001600160a01b0361010082041691600160a81b9091041683565b60405161061993929190615c27565b34801561112857600080fd5b5060ae546106529060ff1681565b34801561114257600080fd5b5060ac546106529060ff1681565b34801561115c57600080fd5b5061060f61116b366004615955565b61334f565b34801561117c57600080fd5b50610e1f61118b3660046155ff565b613391565b34801561119c57600080fd5b50606b54606c54606f546071546111b39392919084565b604080519485526020850193909352918301526060820152608001610619565b3480156111df57600080fd5b5061060f6111ee36600461555d565b60a56020526000908152604090205481565b34801561120c57600080fd5b5061060f609b5481565b34801561122257600080fd5b50606554610836906001600160a01b031681565b34801561124257600080fd5b5061060f60795481565b34801561125857600080fd5b5061060f613432565b34801561126d57600080fd5b5061060f61127c366004615a71565b60946020526000908152604090205481565b34801561129a57600080fd5b506106956112a9366004615c5a565b61344a565b6106956112bc3660046155ff565b5050565b3480156112cc57600080fd5b506106956112db36600461555d565b61354a565b3480156112ec57600080fd5b5061060f60825481565b34801561130257600080fd5b5061060f60a95481565b34801561131857600080fd5b50606954610836906001600160a01b031681565b34801561133857600080fd5b5061137261134736600461555d565b60b2602052600090815260409020805460028201546003909201546001600160a01b03909116919083565b60405161061993929190615cc5565b34801561138d57600080fd5b506096546106529060ff1681565b3480156113a757600080fd5b5061060f60a25481565b3480156113bd57600080fd5b5061060f6113cc366004615a71565b60a06020526000908152604090205481565b6106956113ec366004615640565b61361a565b3480156113fd57600080fd5b5061069561140c3660046155ff565b613bbb565b34801561141d57600080fd5b5061069561142c366004615ce6565b613c2f565b34801561143d57600080fd5b5060965461065290610100900460ff1681565b34801561145c57600080fd5b5061060f609e5481565b34801561147257600080fd5b50610695611481366004615a71565b613c78565b34801561149257600080fd5b5061060f60a85481565b3480156114a857600080fd5b5061060f60805481565b3480156114be57600080fd5b5061060f6114cd36600461555d565b613d18565b607c81815481106114e257600080fd5b600091825260209091200154905081565b60965460ff1615801561150d5750609654610100900460ff165b6115325760405162461bcd60e51b815260040161152990615d03565b60405180910390fd5b609a548261153e6122a1565b6115489190615d36565b111561157c5760405162461bcd60e51b815260206004820152600360248201526245333160e81b6044820152606401611529565b6000611586613d28565b9050806115938484613d6a565b61159d9190615d4e565b3410156115d25760405162461bcd60e51b815260206004820152600360248201526245333360e81b6044820152606401611529565b34609d60008282546115e49190615d36565b9091555060009050821561161c57606b6003016079548154811061160a5761160a615d6d565b90600052602060002001549050611642565b606b6002016079548154811061163457611634615d6d565b906000526020600020015490505b6066546001600160a01b03166323b872dd333061165f8886615d4e565b6040518463ffffffff1660e01b815260040161167d93929190615d83565b602060405180830381600087803b15801561169757600080fd5b505af11580156116ab573d6000803e3d6000fd5b505050506040513d601f19601f820116820180604052508101906116cf9190615da7565b506116de338585608454613db4565b50505050565b608781815481106114e257600080fd5b609654610100900460ff1661171b5760405162461bcd60e51b815260040161152990615d03565b60005b818110156118325760655433906001600160a01b0316636352211e85858581811061174b5761174b615d6d565b905060200201356040518263ffffffff1660e01b815260040161177091815260200190565b60206040518083038186803b15801561178857600080fd5b505afa15801561179c573d6000803e3d6000fd5b505050506040513d601f19601f820116820180604052508101906117c09190615dc4565b6001600160a01b0316146117fc5760405162461bcd60e51b815260206004820152600360248201526245343160e81b6044820152606401611529565b61182083838381811061181157611811615d6d565b90506020020135336000613f1f565b8061182a81615de1565b91505061171e565b505050565b608c826004811061184757600080fd5b01818154811061185657600080fd5b90600052602060002001600091509150505481565b606a546001600160a01b031633146118955760405162461bcd60e51b815260040161152990615dfc565b6112bc82826140de565b60965460ff161580156118b95750609654610100900460ff165b6118d55760405162461bcd60e51b815260040161152990615d03565b6000818152609060205260409081902060655491516331a9108f60e11b815260048101849052909133916001600160a01b0390911690636352211e9060240160206040518083038186803b15801561192c57600080fd5b505afa158015611940573d6000803e3d6000fd5b505050506040513d601f19601f820116820180604052508101906119649190615dc4565b6001600160a01b0316148061198957508054630100000090046001600160a01b031633145b6119bb5760405162461bcd60e51b8152602060048201526003602482015262229b9960e91b6044820152606401611529565b6000815460ff1660018111156119d3576119d36158e8565b1480156119ea57508054600661010090910460ff16105b611a1c5760405162461bcd60e51b815260206004820152600360248201526245373160e81b6044820152606401611529565b805462010000900460ff1615611a5457611a3582612f64565b816002016000828254611a489190615d36565b90915550504260018201555b6067548154607080546001600160a01b03909316926323b872dd92339230929091610100900460ff16908110611a8c57611a8c615d6d565b90600052602060002001546040518463ffffffff1660e01b8152600401611ab593929190615d83565b600060405180830381600087803b158015611acf57600080fd5b505af1158015611ae3573d6000803e3d6000fd5b50508254610100900460ff1691508290506001611aff83615e19565b825460ff91821661010093840a90810290830219909116179092558354604051919004909116815283915033907f2ef0b9f6641bfe4ae9f94f2b9b20ece8b29e13b163e6425c14ff8f520e79412e9060200160405180910390a35050565b60b781815481106114e257600080fd5b607881815481106114e257600080fd5b33611b86612292565b6001600160a01b031614611bac5760405162461bcd60e51b815260040161152990615e39565b6040516323b872dd60e01b81526001600160a01b038416906323b872dd90611bdc90309086908690600401615d83565b600060405180830381600087803b158015611bf657600080fd5b505af1158015611c0a573d6000803e3d6000fd5b50505050505050565b33611c1c612292565b6001600160a01b031614611c425760405162461bcd60e51b815260040161152990615e39565b60405163a9059cbb60e01b81526001600160a01b0384169063a9059cbb90611c709085908590600401615e6e565b602060405180830381600087803b158015611c8a57600080fd5b505af1158015611c9e573d6000803e3d6000fd5b505050506040513d601f19601f820116820180604052508101906116de9190615da7565b33611ccb612292565b6001600160a01b031614611cf15760405162461bcd60e51b815260040161152990615e39565b8051606b908155602080830151606c5560408301518051849392611d1a92606d929101906154c2565b5060608201518051611d369160038401916020909101906154c2565b506080820151600482015560a08201518051611d5c9160058401916020909101906154c2565b5060c0820151816006015590505050565b60af81815481106114e257600080fd5b607b81815481106114e257600080fd5b606a546001600160a01b03163314611dcd5760405162461bcd60e51b815260206004820152600360248201526245393960e81b6044820152606401611529565b80609e54609d54611dde9190615e87565b1115611e125760405162461bcd60e51b815260206004820152600360248201526208a72760eb1b6044820152606401611529565b80609e6000828254611e249190615d36565b9091555050606a546040516001600160a01b039091169082156108fc029083906000818181858888f193505050501580156112bc573d6000803e3d6000fd5b60b581815481106114e257600080fd5b600081815260b26020526040902080546001600160a01b03163314611ec35760405162461bcd60e51b8152600401611529906020808252600490820152632298999960e11b604082015260600190565b611ecc82612e9f565b60005b6001820154811015611f2657600060b36000846001018481548110611ef657611ef6615d6d565b90600052602060002001548152602001908152602001600020819055508080611f1e90615de1565b915050611ecf565b5060405182907f09698112a550dd9c01c2bd871ca714f89914920cedcfeb00905d4de747159a3390600090a25050565b33611f5f612292565b6001600160a01b031614611f855760405162461bcd60e51b815260040161152990615e39565b8051607255602081015160735560408101516074556060810151607555608081015160765560a00151607755565b60b481815481106114e257600080fd5b33611fcc612292565b6001600160a01b031614611ff25760405162461bcd60e51b815260040161152990615e39565b609c54609b546120029083615d36565b11156120365760405162461bcd60e51b815260206004820152600360248201526245393760e81b6044820152606401611529565b80609b60008282546120489190615d36565b909155506112bc90508282600080613db4565b33612064612292565b6001600160a01b03161461208a5760405162461bcd60e51b815260040161152990615e39565b61209460006141de565b565b608881815481106114e257600080fd5b336120af612292565b6001600160a01b0316146120d55760405162461bcd60e51b815260040161152990615e39565b60ae5460ff161561210e5760405162461bcd60e51b815260206004820152600360248201526245303360e81b6044820152606401611529565b60ae805460ff191660011790556066546040516340c10f1960e01b81526001600160a01b03909116906340c10f199061214d9030908590600401615e6e565b600060405180830381600087803b15801561216757600080fd5b505af115801561217b573d6000803e3d6000fd5b5050505050565b608981815481106114e257600080fd5b3361219b612292565b6001600160a01b0316146121c15760405162461bcd60e51b815260040161152990615e39565b60b95460ff16156121fa5760405162461bcd60e51b815260206004820152600360248201526204539360ec1b6044820152606401611529565b60b9805460ff1916600117905561221360708b8b61550d565b5061222060b4898961550d565b5061222d60b6878761550d565b5061223a60b5858561550d565b5061224760b7838361550d565b5050600160b1555050600a60b85550505050505050565b33612267612292565b6001600160a01b03161461228d5760405162461bcd60e51b815260040161152990615e39565b60aa55565b6033546001600160a01b031690565b60006001607f546122b29190615e87565b905090565b60006122c282614230565b60a9546122cf9190615d4e565b92915050565b336122de612292565b6001600160a01b0316146123045760405162461bcd60e51b815260040161152990615e39565b612310607a878761550d565b5061231d607b858561550d565b50611c0a607c838361550d565b600081815260b2602052604081206003810154600282015461234c9042615e87565b6123569190615d4e565b9392505050565b6060816001600160401b03811115612377576123776156b8565b6040519080825280602002602001820160405280156123a0578160200160208202803683370190505b50905060005b828110156123fe576123cf8484838181106123c3576123c3615d6d565b90506020020135612f64565b8282815181106123e1576123e1615d6d565b6020908102919091010152806123f681615de1565b9150506123a6565b5092915050565b60b681815481106114e257600080fd5b609654610100900460ff1661243c5760405162461bcd60e51b815260040161152990615d03565b6000828152609060205260408082208383529181902060655491516331a9108f60e11b815260048101869052909133916001600160a01b0390911690636352211e9060240160206040518083038186803b15801561249957600080fd5b505afa1580156124ad573d6000803e3d6000fd5b505050506040513d601f19601f820116820180604052508101906124d19190615dc4565b6001600160a01b031614806124f657508154630100000090046001600160a01b031633145b61252b5760405162461bcd60e51b8152600401611529906020808252600490820152634537323160e01b604082015260600190565b6065546040516331a9108f60e11b81526004810185905233916001600160a01b031690636352211e9060240160206040518083038186803b15801561256f57600080fd5b505afa158015612583573d6000803e3d6000fd5b505050506040513d601f19601f820116820180604052508101906125a79190615dc4565b6001600160a01b031614806125cc57508054630100000090046001600160a01b031633145b6126015760405162461bcd60e51b815260040161152990602080825260049082015263229b991960e11b604082015260600190565b6000825460ff166001811115612619576126196158e8565b14801561263057508154600661010090910460ff16105b6126655760405162461bcd60e51b8152600401611529906020808252600490820152634537313160e01b604082015260600190565b6000815460ff16600181111561267d5761267d6158e8565b146126b35760405162461bcd60e51b815260040161152990602080825260049082015263229b989960e11b604082015260600190565b606654825460b480546001600160a01b03909316926323b872dd92339230929091610100900460ff169081106126eb576126eb615d6d565b90600052602060002001546040518463ffffffff1660e01b815260040161271493929190615d83565b602060405180830381600087803b15801561272e57600080fd5b505af1158015612742573d6000803e3d6000fd5b505050506040513d601f19601f820116820180604052508101906127669190615da7565b50606554604051630852cd8d60e31b8152600481018590526001600160a01b03909116906342966c6890602401600060405180830381600087803b1580156127ad57600080fd5b505af11580156127c1573d6000803e3d6000fd5b5050835462010000900460ff161591506127ff9050576127e084612f64565b8260020160008282546127f39190615d36565b90915550504260018301555b8154610100900460ff1682600161281583615e19565b825460ff91821661010093840a90810290830219909116179092558454604051919004909116815285915033907f2ef0b9f6641bfe4ae9f94f2b9b20ece8b29e13b163e6425c14ff8f520e79412e9060200160405180910390a350505050565b60965460ff1615801561288f5750609654610100900460ff165b6128ab5760405162461bcd60e51b815260040161152990615d03565b609a54816128b76122a1565b6128c19190615d36565b11156128f55760405162461bcd60e51b815260206004820152600360248201526222999960e91b6044820152606401611529565b608154816080546129069190615d36565b111561293a5760405162461bcd60e51b815260206004820152600360248201526245353160e81b6044820152606401611529565b6000612944613d28565b905080612952836001613d6a565b61295c9190615d4e565b3410156129915760405162461bcd60e51b8152602060048201526003602482015262114ccd60ea1b6044820152606401611529565b34609d60008282546129a39190615d36565b9091555050606754606f546001600160a01b03909116906323b872dd90339030906129cf908790615d4e565b6040518463ffffffff1660e01b81526004016129ed93929190615d83565b600060405180830381600087803b158015612a0757600080fd5b505af1158015612a1b573d6000803e3d6000fd5b50505050612a2e33836001608354613db4565b8160806000828254612a409190615d36565b90915550505050565b8080612a805760405162461bcd60e51b8152600401611529906020808252600490820152630453132360e41b604082015260600190565b60b180549081906000612a9283615de1565b9091555050600081815260b26020526040812080546001600160a01b031916331781559060908187878281612ac957612ac9615d6d565b9050602002013581526020019081526020016000209050600180811115612af257612af26158e8565b815460ff166001811115612b0857612b086158e8565b14612b3e5760405162461bcd60e51b8152600401611529906020808252600490820152634531323160e01b604082015260600190565b805460b680549091610100900460ff16908110612b5d57612b5d615d6d565b9060005260206000200154600185612b759190615e87565b1115612bac5760405162461bcd60e51b8152600401611529906020808252600490820152632298991960e11b604082015260600190565b8160010186866000818110612bc357612bc3615d6d565b8354600181018555600094855260208086209202939093013592019190915550839060b39088888281612bf857612bf8615d6d565b602090810292909201358352508101919091526040016000205560015b84811015612dce57600060906000898985818110612c3557612c35615d6d565b905060200201358152602001908152602001600020905060006001811115612c5f57612c5f6158e8565b815460ff166001811115612c7557612c756158e8565b14612cab5760405162461bcd60e51b8152600401611529906020808252600490820152634531323360e01b604082015260600190565b60b36000898985818110612cc157612cc1615d6d565b90506020020135815260200190815260200160002054600014612d0f5760405162461bcd60e51b815260040161152990602080825260049082015263114c4c8d60e21b604082015260600190565b83600101888884818110612d2557612d25615d6d565b83546001810185556000948552602094859020919094029290920135919092015550805460b580549091610100900460ff16908110612d6657612d66615d6d565b9060005260206000200154846003016000828254612d849190615d36565b9091555085905060b360008a8a86818110612da157612da1615d6d565b90506020020135815260200190815260200160002081905550508080612dc690615de1565b915050612c15565b50426002830155805460b78054606492610100900460ff16908110612df557612df5615d6d565b90600052602060002001548360030154612e0f9190615d4e565b612e199190615eb4565b6003830155604051839033907f3327bdce7131b9c8a0eb7f92a7eb272f7d4db704ca7be4e9f996cdb2bacec31690612e54908a908a90615ec8565b60405180910390a3505050505050565b33612e6d612292565b6001600160a01b031614612e935760405162461bcd60e51b815260040161152990615e39565b6118326078838361550d565b600081815260b26020526040902080546001600160a01b03163314612eef5760405162461bcd60e51b8152600401611529906020808252600490820152634531333160e01b604082015260600190565b6000612efa8361232a565b9050606460b85482612f0c9190615d4e565b612f169190615eb4565b4260028401559050612f28338261424d565b604051818152839033907fb411b44bd5c76eb08732ef9d1c023d5ef94e6c9b292801e07bcae2af5e4a860b9060200160405180910390a3505050565b60008181526090602052604080822081516101008101909252805483929190829060ff166001811115612f9957612f996158e8565b6001811115612faa57612faa6158e8565b8152815460ff61010082048116602084015262010000820416151560408301526001600160a01b03630100000090910416606082015260018201546080820152600282015460a0820152600382015460c082015260049091015460e0909101529050600081516001811115613021576130216158e8565b14156131575760a081015160ad5460008581526090602052604090206001015410156130f457607a826020015160ff168154811061306157613061615d6d565b9060005260206000200154609060008681526020019081526020016000206001015460ad546130909190615e87565b61309a9190615d4e565b6130a49082615d36565b905060af826020015160ff16815481106130c0576130c0615d6d565b906000526020600020015460ad54426130d99190615e87565b6130e39190615d4e565b6130ed9082615d36565b9050612356565b60af826020015160ff168154811061310e5761310e615d6d565b906000526020600020015460906000868152602001908152602001600020600101544261313b9190615e87565b6131459190615d4e565b61314f9082615d36565b949350505050565b6088816020015160ff168154811061317157613171615d6d565b90600052602060002001548160c00151608a5461234c9190615e87565b6131d660405180610100016040528060008152602001600081526020016000815260200160008152602001600081526020016060815260200160008152602001606081525090565b604051806101000160405280606b600001548152602001606b600101548152602001606b6002016079548154811061321057613210615d6d565b90600052602060002001548152602001606b6003016079548154811061323857613238615d6d565b600091825260209182902001548252606f548282015260708054604080518285028101850182528281529401939283018282801561329557602002820191906000526020600020905b815481526020019060010190808311613281575b50505050508152602001606b60060154815260200160b48054806020026020016040519081016040528092919081815260200182805480156132f657602002820191906000526020600020905b8154815260200190600101908083116132e2575b5050505050815250905090565b600061330f8383613d6a565b60a9546123569190615d4e565b609654610100900460ff166133435760405162461bcd60e51b815260040161152990615d03565b6118328282600061427f565b6001600160a01b03821660009081526094602052604081205460935460ff1661337957600061337d565b6092545b6133879084615d36565b6123569190615e87565b6060816001600160401b038111156133ab576133ab6156b8565b6040519080825280602002602001820160405280156133d4578160200160208202803683370190505b50905060005b828110156123fe576134038484838181106133f7576133f7615d6d565b9050602002013561232a565b82828151811061341557613415615d6d565b60209081029190910101528061342a81615de1565b9150506133da565b600061343d60775490565b60a9546122b29190615d4e565b606a546001600160a01b031633146134745760405162461bcd60e51b815260040161152990615dfc565b8260005b818110156134cc576134ba86868381811061349557613495615d6d565b905060200201358585848181106134ae576134ae615d6d565b905060200201356140de565b806134c481615de1565b915050613478565b506000609e54609d546134df9190615e87565b9050670429d069189e00008111156135425780609e60008282546135039190615d36565b9091555050606a546040516001600160a01b039091169082156108fc029083906000818181858888f19350505050158015611c0a573d6000803e3d6000fd5b505050505050565b33600090815260a0602052604090205461358c5760405162461bcd60e51b8152602060048201526003602482015262114e4d60ea1b6044820152606401611529565b33600090815260a0602090815260408083205460a1909252822054609f54606492916135b791615e87565b6135c19190615d4e565b6135cb9190615eb4565b9050808211156135d9578091505b609f5433600081815260a16020526040808220939093559151909184156108fc02918591818181858888f19350505050158015611832573d6000803e3d6000fd5b60965460ff161580156136345750609654610100900460ff165b6136505760405162461bcd60e51b815260040161152990615d03565b808214156136865760405162461bcd60e51b815260206004820152600360248201526245383160e81b6044820152606401611529565b6000613690613d28565b90508061369c60775490565b6136a69190615d4e565b3410156136db5760405162461bcd60e51b815260206004820152600360248201526222999b60e91b6044820152606401611529565b34609d60008282546136ed9190615d36565b90915550506000838152609060205260408082208483529181902060655491516331a9108f60e11b815260048101879052909133916001600160a01b0390911690636352211e9060240160206040518083038186803b15801561374f57600080fd5b505afa158015613763573d6000803e3d6000fd5b505050506040513d601f19601f820116820180604052508101906137879190615dc4565b6001600160a01b031614806137be5750815462010000900460ff1680156137be57508154630100000090046001600160a01b031633145b6137f05760405162461bcd60e51b8152602060048201526003602482015262114e0d60ea1b6044820152606401611529565b6065546040516331a9108f60e11b81526004810186905233916001600160a01b031690636352211e9060240160206040518083038186803b15801561383457600080fd5b505afa158015613848573d6000803e3d6000fd5b505050506040513d601f19601f8201168201806040525081019061386c9190615dc4565b6001600160a01b031614806138a35750805462010000900460ff1680156138a357508054630100000090046001600160a01b031633145b6138d55760405162461bcd60e51b815260206004820152600360248201526245383560e81b6044820152606401611529565b6001825460ff1660018111156138ed576138ed6158e8565b14801561390f57506001815460ff16600181111561390d5761390d6158e8565b145b6139415760405162461bcd60e51b8152602060048201526003602482015262229c1960e91b6044820152606401611529565b8154610100900460ff1615801561395f57508054610100900460ff16155b6139915760405162461bcd60e51b815260206004820152600360248201526245383360e81b6044820152606401611529565b815460009062010000900460ff161515600114156139f65760006139b487612f64565b90506139c08183615d36565b608a54600386015560a2546040518381529193508891339190600080516020615f7c8339815191529060200160405180910390a4505b815462010000900460ff16151560011415613a61576000613a1686612f64565b9050613a228183615d36565b608a54600385015560a2546040518381529193508791339190600080516020615f7c8339815191529060200160405180910390a4613a5f866146a7565b505b607154811015613b08576066546071546001600160a01b03909116906323b872dd9033903090613a92908690615e87565b6040518463ffffffff1660e01b8152600401613ab093929190615d83565b602060405180830381600087803b158015613aca57600080fd5b505af1158015613ade573d6000803e3d6000fd5b505050506040513d601f19601f82011682018060405250810190613b029190615da7565b50613b20565b607154613b20903390613b1b9084615e87565b61424d565b613b29866148fa565b606554604051630852cd8d60e31b8152600481018790526001600160a01b03909116906342966c6890602401600060405180830381600087803b158015613b6f57600080fd5b505af1158015613b83573d6000803e3d6000fd5b50506040518881528792503391507f7fbc09d28fa0377bea9dd7bc3289ca8cf2ed47c19c59b30347c08925c18e82d790602001612e54565b60965460ff16158015613bd55750609654610100900460ff165b613bf15760405162461bcd60e51b815260040161152990615d03565b60005b8181101561183257613c1d838383818110613c1157613c11615d6d565b905060200201356149ab565b80613c2781615de1565b915050613bf4565b33613c38612292565b6001600160a01b031614613c5e5760405162461bcd60e51b815260040161152990615e39565b609680549115156101000261ff0019909216919091179055565b33613c81612292565b6001600160a01b031614613ca75760405162461bcd60e51b815260040161152990615e39565b6001600160a01b038116613d0c5760405162461bcd60e51b815260206004820152602660248201527f4f776e61626c653a206e6577206f776e657220697320746865207a65726f206160448201526564647265737360d01b6064820152608401611529565b613d15816141de565b50565b607a81815481106114e257600080fd5b600060aa5460ab5442613d3b9190615e87565b1115613d505760a9805460a8554890554260ab555b60a95460a8541015613d63575060a85490565b5060a95490565b600081613d78576000613d90565b607454613d86600185615e87565b613d909190615d4e565b607354613d9d9085615d4e565b607254613daa9190615d36565b6123569190615d36565b60008115613dce57613dc7846002615d4e565b9050613dd1565b50825b6000613ddb614b39565b6040805160608101825260008082526001600160a01b038a16602080840191909152600183850181905285835260a39091529290208151815494955091939092839160ff191690836002811115613e3457613e346158e8565b021790555060208281015182546040948501511515600160a81b0260ff60a81b196001600160a01b039093166101000292909216610100600160b01b031990911617179091558151608081018352607f5463ffffffff908116825260ff8981168385019081528882168487019081528a151560608601908152600089815260a490975296909520935184549151955196511515600160301b0260ff60301b19978416600160281b029790971666ffff00000000001996909316600160201b0264ffffffffff19909216931692909217919091179290921691909117919091179055611c0a3086614b9d565b600083815260906020526040902081613f99576065546040516323b872dd60e01b81526001600160a01b03909116906323b872dd90613f6690869030908990600401615d83565b600060405180830381600087803b158015613f8057600080fd5b505af1158015613f94573d6000803e3d6000fd5b505050505b80546001600160a01b03841663010000000262010000600160b81b031990911617620100001781554260018281019190915560006002830155815460ff166001811115613fe857613fe86158e8565b14156140a2578054608880549091610100900460ff1690811061400d5761400d615d6d565b9060005260206000200154608b60008282546140299190615d36565b9091555050608a5460038201558054610100900460ff16156140a2578054608c90610100900460ff166004811061406257614062615d6d565b01546004828101919091558154608c9161010090910460ff1690811061408a5761408a615d6d565b01805460018101825560009182526020909120018490555b6040516001600160a01b0384169085907f5b53344e2b3d15f33a2ab59e3c199c7bbcb08f5ce03bf0a25c14f978647299a790600090a350505050565b817fa1400508f229eaea44d95e98b6da371661f6e873726585abd7efdbdc607169768260405161411091815260200190565b60405180910390a2600082815260a3602052604090208054600160a81b900460ff1661413b57505050565b805460ff60a81b191681556000815460ff16600281111561415e5761415e6158e8565b141561417f5780546118329061010090046001600160a01b03168484614cfe565b6002815460ff166002811115614197576141976158e8565b14156141a7576118328383614ed7565b6001815460ff1660028111156141bf576141bf6158e8565b14156118325780546118329061010090046001600160a01b0316848483565b603380546001600160a01b038381166001600160a01b0319831681179093556040519116919082907f8be0079c531659141344cd1fd0a4f28419497f9722a3daafe3b4186f6b6457e090600090a35050565b6076546000906142409083615d4e565b6075546122cf9190615d36565b6066546040516340c10f1960e01b815282916001600160a01b0316906340c10f1990611bdc9086908590600401615e6e565b6000808080808515614294575060a254614299565b5060a7545b600081815260a560205260408120905b8881101561457b576000609060008c8c858181106142c9576142c9615d6d565b90506020020135815260200190815260200160002090508060000160029054906101000a900460ff1615156001151514801561431557508054630100000090046001600160a01b031633145b6143475760405162461bcd60e51b815260206004820152600360248201526245393160e81b6044820152606401611529565b600061435e8c8c858181106123c3576123c3615d6d565b90506000825460ff166001811115614378576143786158e8565b14156144d95760006064607d54836143909190615d4e565b61439a9190615eb4565b90506143a68183615e87565b6143b0908a615d36565b98506143bc8188615d36565b42600185015596508a1561448a578254607b80549091610100900460ff169081106143e9576143e9615d6d565b90600052602060002001548210156144295760405162461bcd60e51b8152602060048201526003602482015262229c9960e91b6044820152606401611529565b846001018d8d8681811061443f5761443f615d6d565b835460018101855560009485526020948590209190940292909201359190920155506002850161446f8284615e87565b815460018101835560009283526020909220909101556144d3565b8c8c8581811061449c5761449c615d6d565b602002919091013590503387600080516020615f7c8339815191526144c18587615e87565b60405190815260200160405180910390a45b50614539565b6144e38188615d36565b608a54600384015596508b8b848181106144ff576144ff615d6d565b90506020020135336001600160a01b031686600080516020615f7c8339815191528460405161453091815260200190565b60405180910390a45b8915614560576145608c8c8581811061455457614554615d6d565b905060200201356146a7565b5060006002909101558061457381615de1565b9150506142a9565b5086801561458c5750600181015415155b1561463f57838155600061459e614b39565b60408051606081018252600180825233602080840191909152828401829052600085815260a3909152929092208151815494955091939092839160ff1916908360028111156145ef576145ef6158e8565b0217905550602082015181546040909301511515600160a81b0260ff60a81b196001600160a01b039092166101000291909116610100600160b01b0319909316929092179190911790555061464d565b61464d33613b1b8787615d36565b82156146975761465c8361503d565b817fa82e56087acdb4c45b596e06c5ef2d1e974654985bfd4300ebad87555eec136e8460405161468e91815260200190565b60405180910390a25b6001015498975050505050505050565b6000818152609060205260409020805462010000600160b81b031981168255630100000090046001600160a01b03166001825460ff1660018111156146ee576146ee6158e8565b1415614850578154608880549091610100900460ff1690811061471357614713615d6d565b9060005260206000200154608b600082825461472f9190615e87565b90915550508154610100900460ff1615614850578154600090608c90610100900460ff166004811061476357614763615d6d565b8454910190600190608c90610100900460ff166004811061478657614786615d6d565b01546147929190615e87565b815481106147a2576147a2615d6d565b60009182526020909120015483549091508190608c90610100900460ff16600481106147d0576147d0615d6d565b018460040154815481106147e6576147e6615d6d565b6000918252602090912001558254608c90610100900460ff166004811061480f5761480f615d6d565b0180548061481f5761481f615f04565b6000828152602080822083016000199081018390559092019092556004808601549383526090909152604090912001555b60006004808401919091556065546040516323b872dd60e01b81526001600160a01b03909116916323b872dd9161488d9130918691899101615d83565b600060405180830381600087803b1580156148a757600080fd5b505af11580156148bb573d6000803e3d6000fd5b50506040516001600160a01b03841692508591507f3a01954f64bfeed1c903bc3920f7a5639288ea25efc7a539195648519e4184a390600090a3505050565b6000614904614b39565b604080516060810182526002808252336020808401919091526001838501819052600086815260a39092529390208251815495965092949093849260ff19909216918490811115614957576149576158e8565b021790555060208281015182546040948501511515600160a81b0260ff60a81b196001600160a01b039093166101000292909216610100600160b01b03199091161717909155600092835260a69052902055565b621e8c518110156149e45760405162461bcd60e51b815260206004820152600360248201526245313160e81b6044820152606401611529565b60008181526091602052604090205460ff1615614a295760405162461bcd60e51b815260206004820152600360248201526222989960e91b6044820152606401611529565b6068546040516331a9108f60e11b81526004810183905233916001600160a01b031690636352211e9060240160206040518083038186803b158015614a6d57600080fd5b505afa158015614a81573d6000803e3d6000fd5b505050506040513d601f19601f82011682018060405250810190614aa59190615dc4565b6001600160a01b031614614ae15760405162461bcd60e51b815260206004820152600360248201526245313360e81b6044820152606401611529565b6000818152609160205260408120805460ff19166001179055614b0333615075565b6040519091508190839033907f584ea1a98d504e99c0dd0ca5ace55f5458d725e7e20a1ebb2e5e5af38434397190600090a45050565b600060a2547f315444e506fb06e32d43fe2cf48f37218994285028f458255be4a56810b66b8d60a254604051614b7191815260200190565b60405180910390a260a28054906000614b8983615de1565b9190505550600160a2546122b29190615e87565b607f8054600091839083614bb18385615d36565b92505081905550607860795481548110614bcd57614bcd615d6d565b9060005260206000200154607f5410614bf65760798054906000614bf083615de1565b91905055505b6065546040516322ce52b560e21b81526001600160a01b0390911690638b394ad490614c2a90879085908890600401615cc5565b600060405180830381600087803b158015614c4457600080fd5b505af1158015614c58573d6000803e3d6000fd5b5050505060005b83811015614cb257600160906000614c778486615d36565b81526020810191909152604001600020805460ff929092166101000261ff001990921691909117905580614caa81615de1565b915050614c5f565b5060408051828152602081018590526001600160a01b038616917f8b7c923d3e09b520f101439fe55b1b1ea3b1fcdfcb88afe6aed96873d341e1aa910160405180910390a29392505050565b600082815260a460205260408120805463ffffffff165b8154614d319060ff600160201b8204169063ffffffff16615f1a565b63ffffffff16811015613542576000818152609060205260409020614d558561514f565b608654909650909450841015614da157805461ffff1916600117815560405182907fe745cd12d6f4eb3c23b4aeb859314255073bdc0805d89f7622090698abf484b290600090a2614dd8565b60405182906001600160a01b038916907f17168db4d4772024cf56ab2222c1d7888481238be6bc32c3d7a8726a9483bab290600090a35b8254600090600160281b900460ff1615614e3457614df58661514f565b8554909750909550600160281b900460ff16851015614e34576000614e18615196565b90508015614e3257614e2b848289615206565b9650600191505b505b80614ec2578354600160301b900460ff1615614e5b57614e5683896001613f1f565b614ec2565b6065546040516323b872dd60e01b81526001600160a01b03909116906323b872dd90614e8f9030908c908890600401615d83565b600060405180830381600087803b158015614ea957600080fd5b505af1158015614ebd573d6000803e3d6000fd5b505050505b50508080614ecf90615de1565b915050614d15565b600082815260a66020908152604080832054808452609090925282209091614efe8461514f565b94509050614f0b81615308565b825461ff00191661010060ff928316021780845562010000900416151560011415614ff7576088600081548110614f4457614f44615d6d565b6000918252602090912001548254608880549091610100900460ff16908110614f6f57614f6f615d6d565b9060005260206000200154614f849190615e87565b608b6000828254614f959190615d36565b90915550508154608c90610100900460ff1660048110614fb757614fb7615d6d565b01546004838101919091558254608c9161010090910460ff16908110614fdf57614fdf615d6d565b01805460018101825560009182526020909120018390555b815460405161010090910460ff16815283907fe15c536009c86cf1fa16027c6ee4538c2bcce2bdcd80dd17fec4ea96182ef04c9060200160405180910390a25050505050565b615047308261424d565b608b5415613d1557608b5461505c9082615eb4565b608a600082825461506d9190615d36565b909155505050565b607f805460009181908361508883615de1565b91905055506078607954815481106150a2576150a2615d6d565b9060005260206000200154607f54106150cb57607980549060006150c583615de1565b91905055505b6065546040516340c10f1960e01b81526001600160a01b03909116906340c10f19906150fd9086908590600401615e6e565b600060405180830381600087803b15801561511757600080fd5b505af115801561512b573d6000803e3d6000fd5b5050506000828152609060205260409020805461ffff191660011790555092915050565b60008062100000831015615185576040805160208101859052016040516020818303038152906040528051906020012060001c92505b50506103ff811691600a9190911c90565b60008060015b6003811161520057608c81600481106151b7576151b7615d6d565b015460898054839081106151cd576151cd615d6d565b90600052602060002001546151e29190615d4e565b6151ec9083615d36565b9150806151f881615de1565b91505061519c565b50919050565b60008061521584846019615366565b935090506000615224826153c4565b606554600082815260906020526040908190205490516323b872dd60e01b81529293506001600160a01b03918216926323b872dd926152759230926301000000909104909116908b90600401615d83565b600060405180830381600087803b15801561528f57600080fd5b505af11580156152a3573d6000803e3d6000fd5b50505060008281526090602090815260409182902054915184815263010000009092046001600160a01b0316925088917f9055cdd665fdee53683ce213caee079a0b8a929160ad57c0b83ca49f032dfafc910160405180910390a35091949350505050565b6000805b60038160ff16101561535d5760878160ff168154811061532e5761532e615d6d565b906000526020600020015483101561534b57612356816001615f42565b8061535581615e19565b91505061530c565b50600092915050565b6000806001831b8085101561539d576040805160208101879052016040516020818303038152906040528051906020012060001c94505b6000866153ab600184615e87565b87166153b79190615f67565b979590941c955050505050565b60008060015b600381116154b8576000608c82600481106153e7576153e7615d6d565b015460898054849081106153fd576153fd615d6d565b90600052602060002001546154129190615d4e565b905061541e8184615d36565b8510156154985760006089838154811061543a5761543a615d6d565b906000526020600020015484876154519190615e87565b61545b9190615eb4565b9050608c836004811061547057615470615d6d565b01818154811061548257615482615d6d565b9060005260206000200154945050505050919050565b6154a28184615d36565b92505080806154b090615de1565b9150506153ca565b5060009392505050565b8280548282559060005260206000209081019282156154fd579160200282015b828111156154fd5782518255916020019190600101906154e2565b50615509929150615548565b5090565b8280548282559060005260206000209081019282156154fd579160200282015b828111156154fd57823582559160200191906001019061552d565b5b808211156155095760008155600101615549565b60006020828403121561556f57600080fd5b5035919050565b8015158114613d1557600080fd5b6000806040838503121561559757600080fd5b8235915060208301356155a981615576565b809150509250929050565b60008083601f8401126155c657600080fd5b5081356001600160401b038111156155dd57600080fd5b6020830191508360208260051b85010111156155f857600080fd5b9250929050565b6000806020838503121561561257600080fd5b82356001600160401b0381111561562857600080fd5b615634858286016155b4565b90969095509350505050565b6000806040838503121561565357600080fd5b50508035926020909101359150565b6001600160a01b0381168114613d1557600080fd5b60008060006060848603121561568c57600080fd5b833561569781615662565b925060208401356156a781615662565b929592945050506040919091013590565b634e487b7160e01b600052604160045260246000fd5b60405160e081016001600160401b03811182821017156156f0576156f06156b8565b60405290565b600082601f83011261570757600080fd5b813560206001600160401b0380831115615723576157236156b8565b8260051b604051601f19603f83011681018181108482111715615748576157486156b8565b60405293845285810183019383810192508785111561576657600080fd5b83870191505b848210156157855781358352918301919083019061576c565b979650505050505050565b6000602082840312156157a257600080fd5b81356001600160401b03808211156157b957600080fd5b9083019060e082860312156157cd57600080fd5b6157d56156ce565b82358152602083013560208201526040830135828111156157f557600080fd5b615801878286016156f6565b60408301525060608301358281111561581957600080fd5b615825878286016156f6565b6060830152506080830135608082015260a08301358281111561584757600080fd5b615853878286016156f6565b60a08301525060c083013560c082015280935050505092915050565b600060c0828403121561588157600080fd5b60405160c081018181106001600160401b03821117156158a3576158a36156b8565b8060405250823581526020830135602082015260408301356040820152606083013560608201526080830135608082015260a083013560a08201528091505092915050565b634e487b7160e01b600052602160045260246000fd5b610100810160028a10615913576159136158e8565b98815260ff97909716602088015294151560408701526001600160a01b03939093166060860152608085019190915260a084015260c083015260e09091015290565b6000806040838503121561596857600080fd5b823561597381615662565b946020939093013593505050565b60008060008060008060008060008060a08b8d0312156159a057600080fd5b8a356001600160401b03808211156159b757600080fd5b6159c38e838f016155b4565b909c509a5060208d01359150808211156159dc57600080fd5b6159e88e838f016155b4565b909a50985060408d0135915080821115615a0157600080fd5b615a0d8e838f016155b4565b909850965060608d0135915080821115615a2657600080fd5b615a328e838f016155b4565b909650945060808d0135915080821115615a4b57600080fd5b50615a588d828e016155b4565b915080935050809150509295989b9194979a5092959850565b600060208284031215615a8357600080fd5b813561235681615662565b60008060008060008060608789031215615aa757600080fd5b86356001600160401b0380821115615abe57600080fd5b615aca8a838b016155b4565b90985096506020890135915080821115615ae357600080fd5b615aef8a838b016155b4565b90965094506040890135915080821115615b0857600080fd5b50615b1589828a016155b4565b979a9699509497509295939492505050565b6020808252825182820181905260009190848201906040850190845b81811015615b5f57835183529284019291840191600101615b43565b50909695505050505050565b600081518084526020808501945080840160005b83811015615b9b57815187529582019590820190600101615b7f565b509495945050505050565b6020815281516020820152602082015160408201526040820151606082015260608201516080820152608082015160a0820152600060a08301516101008060c0850152615bf7610120850183615b6b565b915060c085015160e085015260e0850151601f198584030182860152615c1d8382615b6b565b9695505050505050565b6060810160038510615c3b57615c3b6158e8565b9381526001600160a01b03929092166020830152151560409091015290565b60008060008060408587031215615c7057600080fd5b84356001600160401b0380821115615c8757600080fd5b615c93888389016155b4565b90965094506020870135915080821115615cac57600080fd5b50615cb9878288016155b4565b95989497509550505050565b6001600160a01b039390931683526020830191909152604082015260600190565b600060208284031215615cf857600080fd5b813561235681615576565b60208082526003908201526245303160e81b604082015260600190565b634e487b7160e01b600052601160045260246000fd5b60008219821115615d4957615d49615d20565b500190565b6000816000190483118215151615615d6857615d68615d20565b500290565b634e487b7160e01b600052603260045260246000fd5b6001600160a01b039384168152919092166020820152604081019190915260600190565b600060208284031215615db957600080fd5b815161235681615576565b600060208284031215615dd657600080fd5b815161235681615662565b6000600019821415615df557615df5615d20565b5060010190565b60208082526003908201526204536360ec1b604082015260600190565b600060ff821660ff811415615e3057615e30615d20565b60010192915050565b6020808252818101527f4f776e61626c653a2063616c6c6572206973206e6f7420746865206f776e6572604082015260600190565b6001600160a01b03929092168252602082015260400190565b600082821015615e9957615e99615d20565b500390565b634e487b7160e01b600052601260045260246000fd5b600082615ec357615ec3615e9e565b500490565b6020808252810182905260006001600160fb1b03831115615ee857600080fd5b8260051b80856040850137600092016040019182525092915050565b634e487b7160e01b600052603160045260246000fd5b600063ffffffff808316818516808303821115615f3957615f39615d20565b01949350505050565b600060ff821660ff84168060ff03821115615f5f57615f5f615d20565b019392505050565b600082615f7657615f76615e9e565b50069056fe40e6a337f1a78915df745fd02b2ca082e64e8a780a99b8fbb355f64409b399cca26469706673582212207b915268da2d6f0ce78fe70ada68a837365c0e48ed3fe4264525a1c8422c7baf64736f6c63430008090033",
    "linkReferences": {},
    "deployedLinkReferences": {}
}