{
    "_format": "hh-sol-artifact-1",
    "contractName": "MekaApesGame_1",
    "sourceName": "contracts/MekaApesGame_1.sol",
    "abi": [
        {
            "anonymous": false,
            "inputs": [
                {
                    "indexed": true,
                    "internalType": "uint256",
                    "name": "crewId",
                    "type": "uint256"
                },
                {
                    "indexed": true,
                    "internalType": "uint256",
                    "name": "tokenIds",
                    "type": "uint256"
                }
            ],
            "name": "AddToCrew",
            "type": "event"
        },
        {
            "anonymous": false,
            "inputs": [
                {
                    "indexed": true,
                    "internalType": "address",
                    "name": "user",
                    "type": "address"
                },
                {
                    "indexed": true,
                    "internalType": "uint256",
                    "name": "burnOogaId",
                    "type": "uint256"
                },
                {
                    "indexed": false,
                    "internalType": "uint256",
                    "name": "addedCredits",
                    "type": "uint256"
                }
            ],
            "name": "AddUnstakeCredits",
            "type": "event"
        },
        {
            "anonymous": false,
            "inputs": [
                {
                    "indexed": true,
                    "internalType": "uint256",
                    "name": "claimId",
                    "type": "uint256"
                },
                {
                    "indexed": true,
                    "internalType": "uint256",
                    "name": "tokenId",
                    "type": "uint256"
                },
                {
                    "indexed": false,
                    "internalType": "uint256",
                    "name": "amount",
                    "type": "uint256"
                }
            ],
            "name": "AttackReward",
            "type": "event"
        },
        {
            "anonymous": false,
            "inputs": [
                {
                    "indexed": true,
                    "internalType": "address",
                    "name": "account",
                    "type": "address"
                },
                {
                    "indexed": true,
                    "internalType": "uint256",
                    "name": "oogaId",
                    "type": "uint256"
                },
                {
                    "indexed": true,
                    "internalType": "uint256",
                    "name": "newTokenId",
                    "type": "uint256"
                }
            ],
            "name": "BabyOogaEvolve",
            "type": "event"
        },
        {
            "anonymous": false,
            "inputs": [
                {
                    "indexed": true,
                    "internalType": "address",
                    "name": "account",
                    "type": "address"
                },
                {
                    "indexed": true,
                    "internalType": "uint256",
                    "name": "crewId",
                    "type": "uint256"
                },
                {
                    "indexed": false,
                    "internalType": "uint256",
                    "name": "amount",
                    "type": "uint256"
                }
            ],
            "name": "ClaimCrewReward",
            "type": "event"
        },
        {
            "anonymous": false,
            "inputs": [
                {
                    "indexed": true,
                    "internalType": "uint256",
                    "name": "claimId",
                    "type": "uint256"
                },
                {
                    "indexed": true,
                    "internalType": "address",
                    "name": "account",
                    "type": "address"
                },
                {
                    "indexed": true,
                    "internalType": "uint256",
                    "name": "tokenId",
                    "type": "uint256"
                },
                {
                    "indexed": false,
                    "internalType": "uint256",
                    "name": "amount",
                    "type": "uint256"
                }
            ],
            "name": "ClaimReward",
            "type": "event"
        },
        {
            "anonymous": false,
            "inputs": [
                {
                    "indexed": true,
                    "internalType": "address",
                    "name": "user",
                    "type": "address"
                },
                {
                    "indexed": false,
                    "internalType": "uint256",
                    "name": "reward",
                    "type": "uint256"
                }
            ],
            "name": "LeaderbordRewardClaim",
            "type": "event"
        },
        {
            "anonymous": false,
            "inputs": [
                {
                    "indexed": true,
                    "internalType": "address",
                    "name": "account",
                    "type": "address"
                },
                {
                    "indexed": true,
                    "internalType": "uint256",
                    "name": "oogaId",
                    "type": "uint256"
                },
                {
                    "indexed": false,
                    "internalType": "uint256",
                    "name": "newLevel",
                    "type": "uint256"
                }
            ],
            "name": "LevelUpRoboOoga",
            "type": "event"
        },
        {
            "anonymous": false,
            "inputs": [
                {
                    "indexed": true,
                    "internalType": "address",
                    "name": "account",
                    "type": "address"
                },
                {
                    "indexed": true,
                    "internalType": "uint256",
                    "name": "crewId",
                    "type": "uint256"
                }
            ],
            "name": "MakeCrew",
            "type": "event"
        },
        {
            "anonymous": false,
            "inputs": [
                {
                    "indexed": true,
                    "internalType": "uint256",
                    "name": "tokenId",
                    "type": "uint256"
                },
                {
                    "indexed": false,
                    "internalType": "uint256",
                    "name": "megaLevel",
                    "type": "uint256"
                }
            ],
            "name": "MegaMerged",
            "type": "event"
        },
        {
            "anonymous": false,
            "inputs": [
                {
                    "indexed": true,
                    "internalType": "uint256",
                    "name": "tokenId",
                    "type": "uint256"
                }
            ],
            "name": "MekaConvert",
            "type": "event"
        },
        {
            "anonymous": false,
            "inputs": [
                {
                    "indexed": true,
                    "internalType": "address",
                    "name": "account",
                    "type": "address"
                },
                {
                    "indexed": false,
                    "internalType": "uint256",
                    "name": "oogaIdSave",
                    "type": "uint256"
                },
                {
                    "indexed": true,
                    "internalType": "uint256",
                    "name": "oogaIdBurn",
                    "type": "uint256"
                }
            ],
            "name": "MergeMekaApes",
            "type": "event"
        },
        {
            "anonymous": false,
            "inputs": [
                {
                    "indexed": true,
                    "internalType": "address",
                    "name": "account",
                    "type": "address"
                },
                {
                    "indexed": false,
                    "internalType": "uint256",
                    "name": "startFromTokenId",
                    "type": "uint256"
                },
                {
                    "indexed": false,
                    "internalType": "uint256",
                    "name": "amount",
                    "type": "uint256"
                }
            ],
            "name": "MintMultipleRobo",
            "type": "event"
        },
        {
            "anonymous": false,
            "inputs": [
                {
                    "indexed": true,
                    "internalType": "uint256",
                    "name": "oogaId",
                    "type": "uint256"
                },
                {
                    "indexed": true,
                    "internalType": "address",
                    "name": "tributeAccount",
                    "type": "address"
                },
                {
                    "indexed": false,
                    "internalType": "uint256",
                    "name": "tributeOogaId",
                    "type": "uint256"
                }
            ],
            "name": "OogaAttacked",
            "type": "event"
        },
        {
            "anonymous": false,
            "inputs": [
                {
                    "indexed": true,
                    "internalType": "address",
                    "name": "previousOwner",
                    "type": "address"
                },
                {
                    "indexed": true,
                    "internalType": "address",
                    "name": "newOwner",
                    "type": "address"
                }
            ],
            "name": "OwnershipTransferred",
            "type": "event"
        },
        {
            "anonymous": false,
            "inputs": [
                {
                    "indexed": true,
                    "internalType": "uint256",
                    "name": "requestId",
                    "type": "uint256"
                },
                {
                    "indexed": false,
                    "internalType": "uint256",
                    "name": "entropy",
                    "type": "uint256"
                }
            ],
            "name": "ReceiveRandoms",
            "type": "event"
        },
        {
            "anonymous": false,
            "inputs": [
                {
                    "indexed": true,
                    "internalType": "uint256",
                    "name": "crewId",
                    "type": "uint256"
                }
            ],
            "name": "RemoveCrew",
            "type": "event"
        },
        {
            "anonymous": false,
            "inputs": [
                {
                    "indexed": true,
                    "internalType": "uint256",
                    "name": "crewId",
                    "type": "uint256"
                },
                {
                    "indexed": true,
                    "internalType": "uint256",
                    "name": "tokenIds",
                    "type": "uint256"
                }
            ],
            "name": "RemoveFromCrew",
            "type": "event"
        },
        {
            "anonymous": false,
            "inputs": [
                {
                    "indexed": true,
                    "internalType": "uint256",
                    "name": "requestId",
                    "type": "uint256"
                },
                {
                    "indexed": false,
                    "internalType": "uint256",
                    "name": "requestSeed",
                    "type": "uint256"
                }
            ],
            "name": "RequestRandoms",
            "type": "event"
        },
        {
            "anonymous": false,
            "inputs": [
                {
                    "indexed": true,
                    "internalType": "address",
                    "name": "account",
                    "type": "address"
                },
                {
                    "indexed": true,
                    "internalType": "uint256",
                    "name": "tokenId",
                    "type": "uint256"
                }
            ],
            "name": "RoboMint",
            "type": "event"
        },
        {
            "anonymous": false,
            "inputs": [
                {
                    "indexed": true,
                    "internalType": "uint256",
                    "name": "oogaId",
                    "type": "uint256"
                },
                {
                    "indexed": true,
                    "internalType": "address",
                    "name": "account",
                    "type": "address"
                }
            ],
            "name": "StakeOoga",
            "type": "event"
        },
        {
            "anonymous": false,
            "inputs": [
                {
                    "indexed": true,
                    "internalType": "uint256",
                    "name": "claimId",
                    "type": "uint256"
                },
                {
                    "indexed": false,
                    "internalType": "uint256",
                    "name": "totalTax",
                    "type": "uint256"
                }
            ],
            "name": "TaxReward",
            "type": "event"
        },
        {
            "anonymous": false,
            "inputs": [
                {
                    "indexed": true,
                    "internalType": "uint256",
                    "name": "oogaId",
                    "type": "uint256"
                },
                {
                    "indexed": true,
                    "internalType": "address",
                    "name": "account",
                    "type": "address"
                }
            ],
            "name": "UnstakeOoga",
            "type": "event"
        },
        {
            "stateMutability": "payable",
            "type": "fallback"
        },
        {
            "inputs": [],
            "name": "ATTACK_CHANCE_DENOM",
            "outputs": [
                {
                    "internalType": "uint256",
                    "name": "",
                    "type": "uint256"
                }
            ],
            "stateMutability": "view",
            "type": "function"
        },
        {
            "inputs": [],
            "name": "CLAIM_TAX_DENOM",
            "outputs": [
                {
                    "internalType": "uint256",
                    "name": "",
                    "type": "uint256"
                }
            ],
            "stateMutability": "view",
            "type": "function"
        },
        {
            "inputs": [],
            "name": "addedOgForRewardsAtEnd",
            "outputs": [
                {
                    "internalType": "uint256",
                    "name": "",
                    "type": "uint256"
                }
            ],
            "stateMutability": "view",
            "type": "function"
        },
        {
            "inputs": [],
            "name": "allMintedTimestamp",
            "outputs": [
                {
                    "internalType": "uint256",
                    "name": "",
                    "type": "uint256"
                }
            ],
            "stateMutability": "view",
            "type": "function"
        },
        {
            "inputs": [],
            "name": "allTokensMinted",
            "outputs": [
                {
                    "internalType": "bool",
                    "name": "",
                    "type": "bool"
                }
            ],
            "stateMutability": "view",
            "type": "function"
        },
        {
            "inputs": [],
            "name": "baseFeeRefreshTime",
            "outputs": [
                {
                    "internalType": "uint256",
                    "name": "",
                    "type": "uint256"
                }
            ],
            "stateMutability": "view",
            "type": "function"
        },
        {
            "inputs": [],
            "name": "baseFeeUpdatedAt",
            "outputs": [
                {
                    "internalType": "uint256",
                    "name": "",
                    "type": "uint256"
                }
            ],
            "stateMutability": "view",
            "type": "function"
        },
        {
            "inputs": [
                {
                    "internalType": "uint256[]",
                    "name": "tokenIds",
                    "type": "uint256[]"
                }
            ],
            "name": "burnOogaForUnstakeCredits",
            "outputs": [],
            "stateMutability": "nonpayable",
            "type": "function"
        },
        {
            "inputs": [
                {
                    "internalType": "uint256",
                    "name": "baseFeeRefreshTime_",
                    "type": "uint256"
                }
            ],
            "name": "changeBaseFeeRefreshTime",
            "outputs": [],
            "stateMutability": "nonpayable",
            "type": "function"
        },
        {
            "inputs": [
                {
                    "internalType": "address",
                    "name": "gameContract2_",
                    "type": "address"
                }
            ],
            "name": "changeContract2",
            "outputs": [],
            "stateMutability": "nonpayable",
            "type": "function"
        },
        {
            "inputs": [
                {
                    "internalType": "bool",
                    "name": "gameActive_",
                    "type": "bool"
                }
            ],
            "name": "changeGameActive",
            "outputs": [],
            "stateMutability": "nonpayable",
            "type": "function"
        },
        {
            "inputs": [
                {
                    "internalType": "uint256[]",
                    "name": "megaLevelProbabilities_",
                    "type": "uint256[]"
                },
                {
                    "internalType": "uint256[]",
                    "name": "mekaLevelSharePoints_",
                    "type": "uint256[]"
                },
                {
                    "internalType": "uint256[]",
                    "name": "megaTributePoints_",
                    "type": "uint256[]"
                }
            ],
            "name": "changeMekaParameters",
            "outputs": [],
            "stateMutability": "nonpayable",
            "type": "function"
        },
        {
            "inputs": [
                {
                    "internalType": "uint256[]",
                    "name": "mintOGpriceSteps_",
                    "type": "uint256[]"
                }
            ],
            "name": "changeMintOGPriceSteps",
            "outputs": [],
            "stateMutability": "nonpayable",
            "type": "function"
        },
        {
            "inputs": [
                {
                    "components": [
                        {
                            "internalType": "uint256",
                            "name": "mintPrice",
                            "type": "uint256"
                        },
                        {
                            "internalType": "uint256",
                            "name": "mintStakePrice",
                            "type": "uint256"
                        },
                        {
                            "internalType": "uint256[]",
                            "name": "mintOGprice",
                            "type": "uint256[]"
                        },
                        {
                            "internalType": "uint256[]",
                            "name": "mintOGstakePrice",
                            "type": "uint256[]"
                        },
                        {
                            "internalType": "uint256",
                            "name": "mintDMTstakePrice",
                            "type": "uint256"
                        },
                        {
                            "internalType": "uint256[]",
                            "name": "roboLevelupPrice",
                            "type": "uint256[]"
                        },
                        {
                            "internalType": "uint256",
                            "name": "mekaMergePrice",
                            "type": "uint256"
                        }
                    ],
                    "internalType": "struct Prices",
                    "name": "prices_",
                    "type": "tuple"
                }
            ],
            "name": "changePrices",
            "outputs": [],
            "stateMutability": "nonpayable",
            "type": "function"
        },
        {
            "inputs": [
                {
                    "components": [
                        {
                            "internalType": "uint256",
                            "name": "mintBase",
                            "type": "uint256"
                        },
                        {
                            "internalType": "uint256",
                            "name": "mintPerToken",
                            "type": "uint256"
                        },
                        {
                            "internalType": "uint256",
                            "name": "mintPerTokenStaked",
                            "type": "uint256"
                        },
                        {
                            "internalType": "uint256",
                            "name": "unstakeBase",
                            "type": "uint256"
                        },
                        {
                            "internalType": "uint256",
                            "name": "unstakePerToken",
                            "type": "uint256"
                        },
                        {
                            "internalType": "uint256",
                            "name": "mergeBase",
                            "type": "uint256"
                        }
                    ],
                    "internalType": "struct RandomsGas",
                    "name": "randomsGas_",
                    "type": "tuple"
                }
            ],
            "name": "changeRandomsGas",
            "outputs": [],
            "stateMutability": "nonpayable",
            "type": "function"
        },
        {
            "inputs": [
                {
                    "internalType": "uint256[]",
                    "name": "roboOogaRewardPerSec_",
                    "type": "uint256[]"
                },
                {
                    "internalType": "uint256[]",
                    "name": "roboOogaMinimalRewardToUnstake_",
                    "type": "uint256[]"
                },
                {
                    "internalType": "uint256[]",
                    "name": "roboOogaRewardAttackProbabilities_",
                    "type": "uint256[]"
                }
            ],
            "name": "changeRoboParameters",
            "outputs": [],
            "stateMutability": "nonpayable",
            "type": "function"
        },
        {
            "inputs": [
                {
                    "internalType": "uint256",
                    "name": "claimTax_",
                    "type": "uint256"
                },
                {
                    "internalType": "uint256",
                    "name": "maxMintWithDMT_",
                    "type": "uint256"
                },
                {
                    "internalType": "uint256",
                    "name": "mintSaleAmount_",
                    "type": "uint256"
                },
                {
                    "internalType": "uint256",
                    "name": "maxTokenSupply_",
                    "type": "uint256"
                },
                {
                    "internalType": "uint256",
                    "name": "maxOgSupply_",
                    "type": "uint256"
                },
                {
                    "internalType": "uint256",
                    "name": "addedOgForRewardsAtEnd_",
                    "type": "uint256"
                },
                {
                    "internalType": "uint256",
                    "name": "ethMintAttackChance_",
                    "type": "uint256"
                },
                {
                    "internalType": "uint256",
                    "name": "dmtMintAttackChance_",
                    "type": "uint256"
                },
                {
                    "internalType": "uint256",
                    "name": "ogMintAttackChance_",
                    "type": "uint256"
                },
                {
                    "internalType": "uint256",
                    "name": "randomMekaProbability_",
                    "type": "uint256"
                }
            ],
            "name": "changeSettings",
            "outputs": [],
            "stateMutability": "nonpayable",
            "type": "function"
        },
        {
            "inputs": [
                {
                    "internalType": "uint256",
                    "name": "crewId",
                    "type": "uint256"
                }
            ],
            "name": "claimAvailableAmountCrew",
            "outputs": [
                {
                    "internalType": "uint256",
                    "name": "",
                    "type": "uint256"
                }
            ],
            "stateMutability": "view",
            "type": "function"
        },
        {
            "inputs": [
                {
                    "internalType": "uint256[]",
                    "name": "tokenIds",
                    "type": "uint256[]"
                }
            ],
            "name": "claimAvailableAmountMultipleTokens",
            "outputs": [
                {
                    "internalType": "uint256[]",
                    "name": "result",
                    "type": "uint256[]"
                }
            ],
            "stateMutability": "view",
            "type": "function"
        },
        {
            "inputs": [
                {
                    "internalType": "uint256",
                    "name": "",
                    "type": "uint256"
                }
            ],
            "name": "claimRequests",
            "outputs": [
                {
                    "internalType": "uint256",
                    "name": "totalMekaReward",
                    "type": "uint256"
                }
            ],
            "stateMutability": "view",
            "type": "function"
        },
        {
            "inputs": [
                {
                    "internalType": "uint256[]",
                    "name": "tokenIds",
                    "type": "uint256[]"
                }
            ],
            "name": "claimReward",
            "outputs": [],
            "stateMutability": "nonpayable",
            "type": "function"
        },
        {
            "inputs": [],
            "name": "claimTax",
            "outputs": [
                {
                    "internalType": "uint256",
                    "name": "",
                    "type": "uint256"
                }
            ],
            "stateMutability": "view",
            "type": "function"
        },
        {
            "inputs": [],
            "name": "crewClaimPercent",
            "outputs": [
                {
                    "internalType": "uint256",
                    "name": "",
                    "type": "uint256"
                }
            ],
            "stateMutability": "view",
            "type": "function"
        },
        {
            "inputs": [
                {
                    "internalType": "uint256",
                    "name": "",
                    "type": "uint256"
                }
            ],
            "name": "crews",
            "outputs": [
                {
                    "internalType": "address",
                    "name": "owner",
                    "type": "address"
                },
                {
                    "internalType": "uint256",
                    "name": "lastClaimTimestamp",
                    "type": "uint256"
                },
                {
                    "internalType": "uint256",
                    "name": "totalRewardPerSec",
                    "type": "uint256"
                },
                {
                    "internalType": "uint256",
                    "name": "savedReward",
                    "type": "uint256"
                },
                {
                    "internalType": "uint256",
                    "name": "oogaCount",
                    "type": "uint256"
                }
            ],
            "stateMutability": "view",
            "type": "function"
        },
        {
            "inputs": [],
            "name": "currentBaseFee",
            "outputs": [
                {
                    "internalType": "uint256",
                    "name": "",
                    "type": "uint256"
                }
            ],
            "stateMutability": "view",
            "type": "function"
        },
        {
            "inputs": [],
            "name": "currentOgPriceStep",
            "outputs": [
                {
                    "internalType": "uint256",
                    "name": "",
                    "type": "uint256"
                }
            ],
            "stateMutability": "view",
            "type": "function"
        },
        {
            "inputs": [],
            "name": "dmtMintAttackChance",
            "outputs": [
                {
                    "internalType": "uint256",
                    "name": "",
                    "type": "uint256"
                }
            ],
            "stateMutability": "view",
            "type": "function"
        },
        {
            "inputs": [],
            "name": "dmtToken",
            "outputs": [
                {
                    "internalType": "contract IDMT_ERC20",
                    "name": "",
                    "type": "address"
                }
            ],
            "stateMutability": "view",
            "type": "function"
        },
        {
            "inputs": [],
            "name": "erc721Contract",
            "outputs": [
                {
                    "internalType": "contract MekaApesERC721",
                    "name": "",
                    "type": "address"
                }
            ],
            "stateMutability": "view",
            "type": "function"
        },
        {
            "inputs": [],
            "name": "ethMintAttackChance",
            "outputs": [
                {
                    "internalType": "uint256",
                    "name": "",
                    "type": "uint256"
                }
            ],
            "stateMutability": "view",
            "type": "function"
        },
        {
            "inputs": [
                {
                    "internalType": "uint256[]",
                    "name": "tokenIds",
                    "type": "uint256[]"
                }
            ],
            "name": "evolveBabyOogas",
            "outputs": [],
            "stateMutability": "nonpayable",
            "type": "function"
        },
        {
            "inputs": [],
            "name": "gameActive",
            "outputs": [
                {
                    "internalType": "bool",
                    "name": "",
                    "type": "bool"
                }
            ],
            "stateMutability": "view",
            "type": "function"
        },
        {
            "inputs": [],
            "name": "gameContract2",
            "outputs": [
                {
                    "internalType": "address",
                    "name": "",
                    "type": "address"
                }
            ],
            "stateMutability": "view",
            "type": "function"
        },
        {
            "inputs": [],
            "name": "getPrices",
            "outputs": [
                {
                    "components": [
                        {
                            "internalType": "uint256",
                            "name": "mintPrice",
                            "type": "uint256"
                        },
                        {
                            "internalType": "uint256",
                            "name": "mintStakePrice",
                            "type": "uint256"
                        },
                        {
                            "internalType": "uint256",
                            "name": "mintOGprice",
                            "type": "uint256"
                        },
                        {
                            "internalType": "uint256",
                            "name": "mintOGstakePrice",
                            "type": "uint256"
                        },
                        {
                            "internalType": "uint256",
                            "name": "mintDMTstakePrice",
                            "type": "uint256"
                        },
                        {
                            "internalType": "uint256[]",
                            "name": "roboLevelupPrice",
                            "type": "uint256[]"
                        },
                        {
                            "internalType": "uint256",
                            "name": "mekaMergePrice",
                            "type": "uint256"
                        },
                        {
                            "internalType": "uint256[]",
                            "name": "roboLevelupPriceOG",
                            "type": "uint256[]"
                        }
                    ],
                    "internalType": "struct PricesGetter",
                    "name": "",
                    "type": "tuple"
                }
            ],
            "stateMutability": "view",
            "type": "function"
        },
        {
            "inputs": [
                {
                    "internalType": "address",
                    "name": "user",
                    "type": "address"
                }
            ],
            "name": "getUnstakeCreditsForAddress",
            "outputs": [
                {
                    "internalType": "uint256",
                    "name": "",
                    "type": "uint256"
                }
            ],
            "stateMutability": "view",
            "type": "function"
        },
        {
            "inputs": [
                {
                    "internalType": "uint256",
                    "name": "",
                    "type": "uint256"
                }
            ],
            "name": "inCrew",
            "outputs": [
                {
                    "internalType": "uint256",
                    "name": "",
                    "type": "uint256"
                }
            ],
            "stateMutability": "view",
            "type": "function"
        },
        {
            "inputs": [],
            "name": "initV2",
            "outputs": [
                {
                    "internalType": "bool",
                    "name": "",
                    "type": "bool"
                }
            ],
            "stateMutability": "view",
            "type": "function"
        },
        {
            "inputs": [],
            "name": "initV3",
            "outputs": [
                {
                    "internalType": "bool",
                    "name": "",
                    "type": "bool"
                }
            ],
            "stateMutability": "view",
            "type": "function"
        },
        {
            "inputs": [],
            "name": "initV4",
            "outputs": [
                {
                    "internalType": "bool",
                    "name": "",
                    "type": "bool"
                }
            ],
            "stateMutability": "view",
            "type": "function"
        },
        {
            "inputs": [],
            "name": "initV5",
            "outputs": [
                {
                    "internalType": "bool",
                    "name": "",
                    "type": "bool"
                }
            ],
            "stateMutability": "view",
            "type": "function"
        },
        {
            "inputs": [
                {
                    "internalType": "address",
                    "name": "gameContract2_",
                    "type": "address"
                },
                {
                    "internalType": "uint256",
                    "name": "roboOogaRewardStart_",
                    "type": "uint256"
                },
                {
                    "internalType": "uint256",
                    "name": "roboOogaRewardEnd_",
                    "type": "uint256"
                },
                {
                    "internalType": "uint256",
                    "name": "roboOogaRewardIncreaseDuration_",
                    "type": "uint256"
                },
                {
                    "internalType": "uint256",
                    "name": "newMergePrice_",
                    "type": "uint256"
                },
                {
                    "internalType": "uint256",
                    "name": "newRandomMekaProbability_",
                    "type": "uint256"
                }
            ],
            "name": "initialize_stage15_1",
            "outputs": [],
            "stateMutability": "nonpayable",
            "type": "function"
        },
        {
            "inputs": [
                {
                    "internalType": "uint256[]",
                    "name": "roboLevelupPrice_",
                    "type": "uint256[]"
                },
                {
                    "internalType": "uint256[]",
                    "name": "roboLevelupPriceOG_",
                    "type": "uint256[]"
                },
                {
                    "internalType": "uint256[]",
                    "name": "maxCrewForMekaLevel_",
                    "type": "uint256[]"
                },
                {
                    "internalType": "uint256[]",
                    "name": "roboOogaRewardPerSecInCrew_",
                    "type": "uint256[]"
                },
                {
                    "internalType": "uint256[]",
                    "name": "mekaCrewRewardMultiplier_",
                    "type": "uint256[]"
                },
                {
                    "internalType": "uint256[]",
                    "name": "unstakeCreditsForRoboLevel_",
                    "type": "uint256[]"
                }
            ],
            "name": "initialize_stage15_2",
            "outputs": [],
            "stateMutability": "nonpayable",
            "type": "function"
        },
        {
            "inputs": [
                {
                    "internalType": "uint256",
                    "name": "oogaId",
                    "type": "uint256"
                }
            ],
            "name": "isBabyOogaEvolved",
            "outputs": [
                {
                    "internalType": "bool",
                    "name": "",
                    "type": "bool"
                }
            ],
            "stateMutability": "view",
            "type": "function"
        },
        {
            "inputs": [
                {
                    "internalType": "address",
                    "name": "",
                    "type": "address"
                }
            ],
            "name": "leaderboardRewardClaimed",
            "outputs": [
                {
                    "internalType": "uint256",
                    "name": "",
                    "type": "uint256"
                }
            ],
            "stateMutability": "view",
            "type": "function"
        },
        {
            "inputs": [
                {
                    "internalType": "uint256",
                    "name": "tokenId",
                    "type": "uint256"
                },
                {
                    "internalType": "uint256",
                    "name": "numberOfLevels",
                    "type": "uint256"
                }
            ],
            "name": "levelUpRoboOoga",
            "outputs": [],
            "stateMutability": "nonpayable",
            "type": "function"
        },
        {
            "inputs": [
                {
                    "internalType": "uint256",
                    "name": "tokenId",
                    "type": "uint256"
                },
                {
                    "internalType": "uint256",
                    "name": "numberOfLevels",
                    "type": "uint256"
                },
                {
                    "internalType": "uint256[]",
                    "name": "burnTokenIds",
                    "type": "uint256[]"
                }
            ],
            "name": "levelUpRoboOogaWithOG",
            "outputs": [],
            "stateMutability": "nonpayable",
            "type": "function"
        },
        {
            "inputs": [
                {
                    "internalType": "uint256",
                    "name": "",
                    "type": "uint256"
                }
            ],
            "name": "maxCrewForMekaLevel",
            "outputs": [
                {
                    "internalType": "uint256",
                    "name": "",
                    "type": "uint256"
                }
            ],
            "stateMutability": "view",
            "type": "function"
        },
        {
            "inputs": [],
            "name": "maxMintWithDMT",
            "outputs": [
                {
                    "internalType": "uint256",
                    "name": "",
                    "type": "uint256"
                }
            ],
            "stateMutability": "view",
            "type": "function"
        },
        {
            "inputs": [],
            "name": "maxMintedRewardTokens",
            "outputs": [
                {
                    "internalType": "uint256",
                    "name": "",
                    "type": "uint256"
                }
            ],
            "stateMutability": "view",
            "type": "function"
        },
        {
            "inputs": [],
            "name": "maxOgSupply",
            "outputs": [
                {
                    "internalType": "uint256",
                    "name": "",
                    "type": "uint256"
                }
            ],
            "stateMutability": "view",
            "type": "function"
        },
        {
            "inputs": [],
            "name": "maxTokenSupply",
            "outputs": [
                {
                    "internalType": "uint256",
                    "name": "",
                    "type": "uint256"
                }
            ],
            "stateMutability": "view",
            "type": "function"
        },
        {
            "inputs": [
                {
                    "internalType": "uint256",
                    "name": "",
                    "type": "uint256"
                }
            ],
            "name": "megaLevelProbabilities",
            "outputs": [
                {
                    "internalType": "uint256",
                    "name": "",
                    "type": "uint256"
                }
            ],
            "stateMutability": "view",
            "type": "function"
        },
        {
            "inputs": [
                {
                    "internalType": "uint256",
                    "name": "",
                    "type": "uint256"
                },
                {
                    "internalType": "uint256",
                    "name": "",
                    "type": "uint256"
                }
            ],
            "name": "megaStaked",
            "outputs": [
                {
                    "internalType": "uint256",
                    "name": "",
                    "type": "uint256"
                }
            ],
            "stateMutability": "view",
            "type": "function"
        },
        {
            "inputs": [
                {
                    "internalType": "uint256",
                    "name": "",
                    "type": "uint256"
                }
            ],
            "name": "megaTributePoints",
            "outputs": [
                {
                    "internalType": "uint256",
                    "name": "",
                    "type": "uint256"
                }
            ],
            "stateMutability": "view",
            "type": "function"
        },
        {
            "inputs": [
                {
                    "internalType": "uint256",
                    "name": "",
                    "type": "uint256"
                }
            ],
            "name": "mekaCrewRewardMultiplier",
            "outputs": [
                {
                    "internalType": "uint256",
                    "name": "",
                    "type": "uint256"
                }
            ],
            "stateMutability": "view",
            "type": "function"
        },
        {
            "inputs": [
                {
                    "internalType": "uint256",
                    "name": "",
                    "type": "uint256"
                }
            ],
            "name": "mekaLevelSharePoints",
            "outputs": [
                {
                    "internalType": "uint256",
                    "name": "",
                    "type": "uint256"
                }
            ],
            "stateMutability": "view",
            "type": "function"
        },
        {
            "inputs": [],
            "name": "mekaTotalPointsStaked",
            "outputs": [
                {
                    "internalType": "uint256",
                    "name": "",
                    "type": "uint256"
                }
            ],
            "stateMutability": "view",
            "type": "function"
        },
        {
            "inputs": [],
            "name": "mekaTotalRewardPerPoint",
            "outputs": [
                {
                    "internalType": "uint256",
                    "name": "",
                    "type": "uint256"
                }
            ],
            "stateMutability": "view",
            "type": "function"
        },
        {
            "inputs": [
                {
                    "internalType": "uint256",
                    "name": "tokenIdSave",
                    "type": "uint256"
                },
                {
                    "internalType": "uint256",
                    "name": "tokenIdBurn",
                    "type": "uint256"
                }
            ],
            "name": "mergeMekaApes",
            "outputs": [],
            "stateMutability": "payable",
            "type": "function"
        },
        {
            "inputs": [],
            "name": "mergeRandomGas",
            "outputs": [
                {
                    "internalType": "uint256",
                    "name": "",
                    "type": "uint256"
                }
            ],
            "stateMutability": "view",
            "type": "function"
        },
        {
            "inputs": [
                {
                    "internalType": "uint256",
                    "name": "",
                    "type": "uint256"
                }
            ],
            "name": "mergeRequests",
            "outputs": [
                {
                    "internalType": "uint256",
                    "name": "",
                    "type": "uint256"
                }
            ],
            "stateMutability": "view",
            "type": "function"
        },
        {
            "inputs": [],
            "name": "midStageOverTimestamp",
            "outputs": [
                {
                    "internalType": "uint256",
                    "name": "",
                    "type": "uint256"
                }
            ],
            "stateMutability": "view",
            "type": "function"
        },
        {
            "inputs": [
                {
                    "internalType": "uint256",
                    "name": "",
                    "type": "uint256"
                }
            ],
            "name": "mintOGpriceSteps",
            "outputs": [
                {
                    "internalType": "uint256",
                    "name": "",
                    "type": "uint256"
                }
            ],
            "stateMutability": "view",
            "type": "function"
        },
        {
            "inputs": [
                {
                    "internalType": "uint256",
                    "name": "amount",
                    "type": "uint256"
                },
                {
                    "internalType": "bool",
                    "name": "staking",
                    "type": "bool"
                }
            ],
            "name": "mintRandomGas",
            "outputs": [
                {
                    "internalType": "uint256",
                    "name": "",
                    "type": "uint256"
                }
            ],
            "stateMutability": "view",
            "type": "function"
        },
        {
            "inputs": [
                {
                    "internalType": "uint256",
                    "name": "",
                    "type": "uint256"
                }
            ],
            "name": "mintRequests",
            "outputs": [
                {
                    "internalType": "uint32",
                    "name": "startFromId",
                    "type": "uint32"
                },
                {
                    "internalType": "uint8",
                    "name": "amount",
                    "type": "uint8"
                },
                {
                    "internalType": "uint8",
                    "name": "attackChance",
                    "type": "uint8"
                },
                {
                    "internalType": "bool",
                    "name": "toStake",
                    "type": "bool"
                }
            ],
            "stateMutability": "view",
            "type": "function"
        },
        {
            "inputs": [
                {
                    "internalType": "address",
                    "name": "toAddress",
                    "type": "address"
                },
                {
                    "internalType": "uint256",
                    "name": "amount",
                    "type": "uint256"
                }
            ],
            "name": "mintRewardTokens",
            "outputs": [],
            "stateMutability": "nonpayable",
            "type": "function"
        },
        {
            "inputs": [],
            "name": "mintSale",
            "outputs": [
                {
                    "internalType": "bool",
                    "name": "",
                    "type": "bool"
                }
            ],
            "stateMutability": "view",
            "type": "function"
        },
        {
            "inputs": [],
            "name": "mintSaleAmount",
            "outputs": [
                {
                    "internalType": "uint256",
                    "name": "",
                    "type": "uint256"
                }
            ],
            "stateMutability": "view",
            "type": "function"
        },
        {
            "inputs": [],
            "name": "mintSigWallet",
            "outputs": [
                {
                    "internalType": "address",
                    "name": "",
                    "type": "address"
                }
            ],
            "stateMutability": "view",
            "type": "function"
        },
        {
            "inputs": [
                {
                    "internalType": "uint256",
                    "name": "amount",
                    "type": "uint256"
                }
            ],
            "name": "mintWithDMT",
            "outputs": [],
            "stateMutability": "payable",
            "type": "function"
        },
        {
            "inputs": [
                {
                    "internalType": "uint256",
                    "name": "amount",
                    "type": "uint256"
                },
                {
                    "internalType": "bool",
                    "name": "toStake",
                    "type": "bool"
                }
            ],
            "name": "mintWithOG",
            "outputs": [],
            "stateMutability": "payable",
            "type": "function"
        },
        {
            "inputs": [],
            "name": "nextClaimWithoutRandomId",
            "outputs": [
                {
                    "internalType": "uint256",
                    "name": "",
                    "type": "uint256"
                }
            ],
            "stateMutability": "view",
            "type": "function"
        },
        {
            "inputs": [],
            "name": "nextCrewId",
            "outputs": [
                {
                    "internalType": "uint256",
                    "name": "",
                    "type": "uint256"
                }
            ],
            "stateMutability": "view",
            "type": "function"
        },
        {
            "inputs": [],
            "name": "nextRandomRequestId",
            "outputs": [
                {
                    "internalType": "uint256",
                    "name": "",
                    "type": "uint256"
                }
            ],
            "stateMutability": "view",
            "type": "function"
        },
        {
            "inputs": [],
            "name": "nextTokenId",
            "outputs": [
                {
                    "internalType": "uint256",
                    "name": "",
                    "type": "uint256"
                }
            ],
            "stateMutability": "view",
            "type": "function"
        },
        {
            "inputs": [
                {
                    "internalType": "address",
                    "name": "",
                    "type": "address"
                }
            ],
            "name": "numberOfMintedOogas",
            "outputs": [
                {
                    "internalType": "uint256",
                    "name": "",
                    "type": "uint256"
                }
            ],
            "stateMutability": "view",
            "type": "function"
        },
        {
            "inputs": [],
            "name": "ogMintAttackChance",
            "outputs": [
                {
                    "internalType": "uint256",
                    "name": "",
                    "type": "uint256"
                }
            ],
            "stateMutability": "view",
            "type": "function"
        },
        {
            "inputs": [],
            "name": "ogMinted",
            "outputs": [
                {
                    "internalType": "uint256",
                    "name": "",
                    "type": "uint256"
                }
            ],
            "stateMutability": "view",
            "type": "function"
        },
        {
            "inputs": [],
            "name": "ogRewardMinted",
            "outputs": [
                {
                    "internalType": "bool",
                    "name": "",
                    "type": "bool"
                }
            ],
            "stateMutability": "view",
            "type": "function"
        },
        {
            "inputs": [],
            "name": "ogToken",
            "outputs": [
                {
                    "internalType": "contract OogearERC20",
                    "name": "",
                    "type": "address"
                }
            ],
            "stateMutability": "view",
            "type": "function"
        },
        {
            "inputs": [
                {
                    "internalType": "uint256",
                    "name": "",
                    "type": "uint256"
                }
            ],
            "name": "oogaAttributes",
            "outputs": [
                {
                    "internalType": "enum OogaType",
                    "name": "oogaType",
                    "type": "uint8"
                },
                {
                    "internalType": "uint8",
                    "name": "level",
                    "type": "uint8"
                },
                {
                    "internalType": "bool",
                    "name": "staked",
                    "type": "bool"
                },
                {
                    "internalType": "address",
                    "name": "stakedOwner",
                    "type": "address"
                },
                {
                    "internalType": "uint256",
                    "name": "lastClaimTimestamp",
                    "type": "uint256"
                },
                {
                    "internalType": "uint256",
                    "name": "savedReward",
                    "type": "uint256"
                },
                {
                    "internalType": "uint256",
                    "name": "lastRewardPerPoint",
                    "type": "uint256"
                },
                {
                    "internalType": "uint256",
                    "name": "stakedMegaIndex",
                    "type": "uint256"
                }
            ],
            "stateMutability": "view",
            "type": "function"
        },
        {
            "inputs": [
                {
                    "internalType": "uint256",
                    "name": "",
                    "type": "uint256"
                }
            ],
            "name": "oogaEvolved",
            "outputs": [
                {
                    "internalType": "bool",
                    "name": "",
                    "type": "bool"
                }
            ],
            "stateMutability": "view",
            "type": "function"
        },
        {
            "inputs": [],
            "name": "oogaVerse",
            "outputs": [
                {
                    "internalType": "contract IERC721",
                    "name": "",
                    "type": "address"
                }
            ],
            "stateMutability": "view",
            "type": "function"
        },
        {
            "inputs": [],
            "name": "owner",
            "outputs": [
                {
                    "internalType": "address",
                    "name": "",
                    "type": "address"
                }
            ],
            "stateMutability": "view",
            "type": "function"
        },
        {
            "inputs": [],
            "name": "previousBaseFee",
            "outputs": [
                {
                    "internalType": "uint256",
                    "name": "",
                    "type": "uint256"
                }
            ],
            "stateMutability": "view",
            "type": "function"
        },
        {
            "inputs": [],
            "name": "prices",
            "outputs": [
                {
                    "internalType": "uint256",
                    "name": "mintPrice",
                    "type": "uint256"
                },
                {
                    "internalType": "uint256",
                    "name": "mintStakePrice",
                    "type": "uint256"
                },
                {
                    "internalType": "uint256",
                    "name": "mintDMTstakePrice",
                    "type": "uint256"
                },
                {
                    "internalType": "uint256",
                    "name": "mekaMergePrice",
                    "type": "uint256"
                }
            ],
            "stateMutability": "view",
            "type": "function"
        },
        {
            "inputs": [],
            "name": "publicMintAllowance",
            "outputs": [
                {
                    "internalType": "uint256",
                    "name": "",
                    "type": "uint256"
                }
            ],
            "stateMutability": "view",
            "type": "function"
        },
        {
            "inputs": [],
            "name": "publicMintStarted",
            "outputs": [
                {
                    "internalType": "bool",
                    "name": "",
                    "type": "bool"
                }
            ],
            "stateMutability": "view",
            "type": "function"
        },
        {
            "inputs": [],
            "name": "randomMekaProbability",
            "outputs": [
                {
                    "internalType": "uint256",
                    "name": "",
                    "type": "uint256"
                }
            ],
            "stateMutability": "view",
            "type": "function"
        },
        {
            "inputs": [],
            "name": "randomProvider",
            "outputs": [
                {
                    "internalType": "address",
                    "name": "",
                    "type": "address"
                }
            ],
            "stateMutability": "view",
            "type": "function"
        },
        {
            "inputs": [
                {
                    "internalType": "uint256",
                    "name": "",
                    "type": "uint256"
                }
            ],
            "name": "randomRequests",
            "outputs": [
                {
                    "internalType": "enum RandomRequestType",
                    "name": "requestType",
                    "type": "uint8"
                },
                {
                    "internalType": "address",
                    "name": "user",
                    "type": "address"
                },
                {
                    "internalType": "bool",
                    "name": "active",
                    "type": "bool"
                }
            ],
            "stateMutability": "view",
            "type": "function"
        },
        {
            "inputs": [],
            "name": "randomsGas",
            "outputs": [
                {
                    "internalType": "uint256",
                    "name": "mintBase",
                    "type": "uint256"
                },
                {
                    "internalType": "uint256",
                    "name": "mintPerToken",
                    "type": "uint256"
                },
                {
                    "internalType": "uint256",
                    "name": "mintPerTokenStaked",
                    "type": "uint256"
                },
                {
                    "internalType": "uint256",
                    "name": "unstakeBase",
                    "type": "uint256"
                },
                {
                    "internalType": "uint256",
                    "name": "unstakePerToken",
                    "type": "uint256"
                },
                {
                    "internalType": "uint256",
                    "name": "mergeBase",
                    "type": "uint256"
                }
            ],
            "stateMutability": "view",
            "type": "function"
        },
        {
            "inputs": [
                {
                    "internalType": "uint256[]",
                    "name": "requestIds",
                    "type": "uint256[]"
                },
                {
                    "internalType": "uint256[]",
                    "name": "entropies",
                    "type": "uint256[]"
                }
            ],
            "name": "receiveMultipleRandoms",
            "outputs": [],
            "stateMutability": "nonpayable",
            "type": "function"
        },
        {
            "inputs": [
                {
                    "internalType": "uint256",
                    "name": "requestId",
                    "type": "uint256"
                },
                {
                    "internalType": "uint256",
                    "name": "entropy",
                    "type": "uint256"
                }
            ],
            "name": "receiveRandoms",
            "outputs": [],
            "stateMutability": "nonpayable",
            "type": "function"
        },
        {
            "inputs": [],
            "name": "renounceOwnership",
            "outputs": [],
            "stateMutability": "nonpayable",
            "type": "function"
        },
        {
            "inputs": [
                {
                    "internalType": "uint256",
                    "name": "",
                    "type": "uint256"
                }
            ],
            "name": "roboLevelupPriceOG",
            "outputs": [
                {
                    "internalType": "uint256",
                    "name": "",
                    "type": "uint256"
                }
            ],
            "stateMutability": "view",
            "type": "function"
        },
        {
            "inputs": [
                {
                    "internalType": "uint256",
                    "name": "",
                    "type": "uint256"
                }
            ],
            "name": "roboOogaMinimalRewardToUnstake",
            "outputs": [
                {
                    "internalType": "uint256",
                    "name": "",
                    "type": "uint256"
                }
            ],
            "stateMutability": "view",
            "type": "function"
        },
        {
            "inputs": [
                {
                    "internalType": "uint256",
                    "name": "",
                    "type": "uint256"
                }
            ],
            "name": "roboOogaRewardAttackProbabilities",
            "outputs": [
                {
                    "internalType": "uint256",
                    "name": "",
                    "type": "uint256"
                }
            ],
            "stateMutability": "view",
            "type": "function"
        },
        {
            "inputs": [],
            "name": "roboOogaRewardEnd",
            "outputs": [
                {
                    "internalType": "uint256",
                    "name": "",
                    "type": "uint256"
                }
            ],
            "stateMutability": "view",
            "type": "function"
        },
        {
            "inputs": [],
            "name": "roboOogaRewardIncreaseDuration",
            "outputs": [
                {
                    "internalType": "uint256",
                    "name": "",
                    "type": "uint256"
                }
            ],
            "stateMutability": "view",
            "type": "function"
        },
        {
            "inputs": [
                {
                    "internalType": "uint256",
                    "name": "",
                    "type": "uint256"
                }
            ],
            "name": "roboOogaRewardPerSec",
            "outputs": [
                {
                    "internalType": "uint256",
                    "name": "",
                    "type": "uint256"
                }
            ],
            "stateMutability": "view",
            "type": "function"
        },
        {
            "inputs": [
                {
                    "internalType": "uint256",
                    "name": "",
                    "type": "uint256"
                }
            ],
            "name": "roboOogaRewardPerSecInCrew",
            "outputs": [
                {
                    "internalType": "uint256",
                    "name": "",
                    "type": "uint256"
                }
            ],
            "stateMutability": "view",
            "type": "function"
        },
        {
            "inputs": [
                {
                    "internalType": "uint256",
                    "name": "",
                    "type": "uint256"
                }
            ],
            "name": "roboOogaRewardPerSec_midStage",
            "outputs": [
                {
                    "internalType": "uint256",
                    "name": "",
                    "type": "uint256"
                }
            ],
            "stateMutability": "view",
            "type": "function"
        },
        {
            "inputs": [],
            "name": "roboOogaRewardStart",
            "outputs": [
                {
                    "internalType": "uint256",
                    "name": "",
                    "type": "uint256"
                }
            ],
            "stateMutability": "view",
            "type": "function"
        },
        {
            "inputs": [
                {
                    "internalType": "uint256[]",
                    "name": "tokenIds",
                    "type": "uint256[]"
                }
            ],
            "name": "stake",
            "outputs": [],
            "stateMutability": "nonpayable",
            "type": "function"
        },
        {
            "inputs": [],
            "name": "tokensMintedWithDMT",
            "outputs": [
                {
                    "internalType": "uint256",
                    "name": "",
                    "type": "uint256"
                }
            ],
            "stateMutability": "view",
            "type": "function"
        },
        {
            "inputs": [],
            "name": "totalMintETH",
            "outputs": [
                {
                    "internalType": "uint256",
                    "name": "",
                    "type": "uint256"
                }
            ],
            "stateMutability": "view",
            "type": "function"
        },
        {
            "inputs": [],
            "name": "totalMintedRewardTokens",
            "outputs": [
                {
                    "internalType": "uint256",
                    "name": "",
                    "type": "uint256"
                }
            ],
            "stateMutability": "view",
            "type": "function"
        },
        {
            "inputs": [],
            "name": "totalMintedTokens",
            "outputs": [
                {
                    "internalType": "uint256",
                    "name": "",
                    "type": "uint256"
                }
            ],
            "stateMutability": "view",
            "type": "function"
        },
        {
            "inputs": [],
            "name": "totalRandomTxFee",
            "outputs": [
                {
                    "internalType": "uint256",
                    "name": "",
                    "type": "uint256"
                }
            ],
            "stateMutability": "view",
            "type": "function"
        },
        {
            "inputs": [],
            "name": "totalRandomTxFeeWithdrawn",
            "outputs": [
                {
                    "internalType": "uint256",
                    "name": "",
                    "type": "uint256"
                }
            ],
            "stateMutability": "view",
            "type": "function"
        },
        {
            "inputs": [
                {
                    "internalType": "address",
                    "name": "newOwner",
                    "type": "address"
                }
            ],
            "name": "transferOwnership",
            "outputs": [],
            "stateMutability": "nonpayable",
            "type": "function"
        },
        {
            "inputs": [
                {
                    "internalType": "uint256[]",
                    "name": "tokenIds",
                    "type": "uint256[]"
                }
            ],
            "name": "unstake",
            "outputs": [],
            "stateMutability": "nonpayable",
            "type": "function"
        },
        {
            "inputs": [
                {
                    "internalType": "address",
                    "name": "",
                    "type": "address"
                }
            ],
            "name": "unstakeCredits",
            "outputs": [
                {
                    "internalType": "uint256",
                    "name": "",
                    "type": "uint256"
                }
            ],
            "stateMutability": "view",
            "type": "function"
        },
        {
            "inputs": [
                {
                    "internalType": "uint256",
                    "name": "",
                    "type": "uint256"
                }
            ],
            "name": "unstakeCreditsForRoboLevel",
            "outputs": [
                {
                    "internalType": "uint256",
                    "name": "",
                    "type": "uint256"
                }
            ],
            "stateMutability": "view",
            "type": "function"
        },
        {
            "inputs": [],
            "name": "unstakeCreditsStart",
            "outputs": [
                {
                    "internalType": "uint256",
                    "name": "",
                    "type": "uint256"
                }
            ],
            "stateMutability": "view",
            "type": "function"
        },
        {
            "inputs": [
                {
                    "internalType": "address",
                    "name": "",
                    "type": "address"
                }
            ],
            "name": "usedUnstakeCredits",
            "outputs": [
                {
                    "internalType": "uint256",
                    "name": "",
                    "type": "uint256"
                }
            ],
            "stateMutability": "view",
            "type": "function"
        },
        {
            "inputs": [
                {
                    "internalType": "contract IERC20",
                    "name": "token",
                    "type": "address"
                },
                {
                    "internalType": "address",
                    "name": "toAddress",
                    "type": "address"
                },
                {
                    "internalType": "uint256",
                    "name": "amount",
                    "type": "uint256"
                }
            ],
            "name": "withdrawERC20",
            "outputs": [],
            "stateMutability": "nonpayable",
            "type": "function"
        },
        {
            "inputs": [
                {
                    "internalType": "contract IERC721",
                    "name": "token",
                    "type": "address"
                },
                {
                    "internalType": "address",
                    "name": "toAddress",
                    "type": "address"
                },
                {
                    "internalType": "uint256",
                    "name": "tokenId",
                    "type": "uint256"
                }
            ],
            "name": "withdrawERC721",
            "outputs": [],
            "stateMutability": "nonpayable",
            "type": "function"
        },
        {
            "inputs": [
                {
                    "internalType": "uint256",
                    "name": "amount",
                    "type": "uint256"
                }
            ],
            "name": "withdrawRandomTxFee",
            "outputs": [],
            "stateMutability": "nonpayable",
            "type": "function"
        },
        {
            "inputs": [
                {
                    "internalType": "address",
                    "name": "",
                    "type": "address"
                }
            ],
            "name": "withdrawerLastTotalMintETH",
            "outputs": [
                {
                    "internalType": "uint256",
                    "name": "",
                    "type": "uint256"
                }
            ],
            "stateMutability": "view",
            "type": "function"
        },
        {
            "inputs": [
                {
                    "internalType": "address",
                    "name": "",
                    "type": "address"
                }
            ],
            "name": "withdrawerPercent",
            "outputs": [
                {
                    "internalType": "uint256",
                    "name": "",
                    "type": "uint256"
                }
            ],
            "stateMutability": "view",
            "type": "function"
        }
    ],
    "bytecode": "0x608060405234801561001057600080fd5b50615ecf80620000216000396000f3fe6080604052600436106106415760003560e01c80638f46500e11610331578063c94c7ff4116101b2578063e6d35655116100f8578063ed3940791161009b578063ed39407914611555578063eee21c2d14611575578063f020044f14611595578063f22395c8146115b4578063f2fde38b146115ca578063f3db1191146115ea578063febeb13214611600578063ff75eece1461161657610641565b8063e6d3565514611409578063e6f0ba611461141f578063e826cdf11461143f578063e9a16bdb146114c5578063eb233d6a146114df578063ec01952b146114ff578063ec7373ce14611515578063ecb24fb51461154257610641565b8063d7c97fb411610160578063d7c97fb41461131b578063d835de061461133b578063dd2c094814611351578063dd2f6d4b14611366578063e0fcd66614611393578063e37e1dd3146113b3578063e449f341146113d3578063e6b4d60b146113f357610641565b8063c94c7ff4146111e7578063ca067ad014611207578063ca24964b14611261578063ca97f5201461127b578063d3419bf314611295578063d385014d146112d8578063d6ebe4fe1461130557610641565b8063a5b63cc911610277578063bd9a548b11610225578063bd9a548b146110f3578063c06fda8e14611115578063c24b71971461112b578063c25190d41461114b578063c37a57611461116b578063c44ca1331461119b578063c54b7358146111b1578063c8083ba5146111c757610641565b8063a5b63cc91461102e578063acac98dd14611044578063ad11cd051461105a578063adb987511461107a578063b56c6105146110a7578063b69b2a65146110bd578063bb905c75146110dd57610641565b80639624b2f9116102df5780639624b2f914610f0b57806397881c2f14610f215780639978924114610f4e5780639e15827614610f6e5780639efbdcd014610f84578063a0e69fe614610fa4578063a4acf05114610fc3578063a4e9f29714610fd657610641565b80638f46500e14610e29578063909e376d14610e49578063922c317a14610e6957806392bbfd5114610e7f57806394be311014610eac57806395044c9214610ecc578063961b294a14610eec57610641565b80634e47a79a116104c6578063715018a61161040c5780637e5ae4b7116103af5780637e5ae4b714610d4d57806382ce18c614610d7d578063833c7fc014610d9d578063834e91cf14610db357806385ea000514610dc95780638da5cb5b14610de95780638e32e31614610dfe5780638ec14dfc14610e1357610641565b8063715018a614610c69578063729a90c814610c7e57806375794a3c14610c9e57806376bcff4e14610cb45780637813e3ad14610ce15780637bf1b56214610d015780637d15132314610d215780637d5ee8e614610d3757610641565b80635ca58adf116104745780635ca58adf14610b0d5780635e71cc7c14610b2d578063662162d514610b4357806366ed6fbe14610b595780636bff950614610b795780636c4a8c1714610bfc5780636eee2dad14610c295780636fccea8814610c4957610641565b80634e47a79a14610a4b5780634fc7c97214610a6157806350f7c20414610a8157806351e9a59a14610a9757806352695aa014610ab75780635544986314610ad75780635ca2034a14610af757610641565b80632e9554d31161058b5780634025feb2116105395780634025feb2146108f7578063424e65751461091757806344004cc11461099b578063448883d7146109bb578063448b7753146109d157806346dd8473146109eb578063482a527814610a0b578063489da8ff14610a2b57610641565b80632e9554d3146108165780633186d3c9146108305780633764d26f1461085d57806338e692af146108735780633a6a6ca3146108895780633bf27cf1146108a95780633e2aec28146108e157610641565b80631064a383116105f35780631064a38314610727578063113bf88714610747578063118b8daf1461075d57806311b1c1011461077357806319de5221146107a05780631b9401cd146107c057806325782210146107e05780632626b829146107f657610641565b8063017193271461064b5780630181de4214610674578063035240051461068a57806308a1c391146106b45780630a1b494d146106d45780630ee9a59b146106e75780630fbf0a9314610707575b610649611636565b005b34801561065757600080fd5b5061066160855481565b6040519081526020015b60405180910390f35b34801561068057600080fd5b50610661608b5481565b34801561069657600080fd5b506093546106a49060ff1681565b604051901515815260200161066b565b3480156106c057600080fd5b506106616106cf366004615371565b61166b565b6106496106e2366004615398565b61168c565b3480156106f357600080fd5b50610661610702366004615371565b61187d565b34801561071357600080fd5b50610649610722366004615413565b61188d565b34801561073357600080fd5b50610649610742366004615413565b6119cb565b34801561075357600080fd5b50610661607e5481565b34801561076957600080fd5b5061066160b85481565b34801561077f57600080fd5b5061066161078e366004615469565b60bf6020526000908152604090205481565b3480156107ac57600080fd5b506106616107bb366004615486565b611b16565b3480156107cc57600080fd5b506106496107db366004615486565b611b4a565b3480156107ec57600080fd5b5061066160815481565b34801561080257600080fd5b50610661610811366004615371565b611b82565b34801561082257600080fd5b5060b0546106a49060ff1681565b34801561083c57600080fd5b5061066161084b366004615371565b60b36020526000908152604090205481565b34801561086957600080fd5b5061066160be5481565b34801561087f57600080fd5b50610661608a5481565b34801561089557600080fd5b506106616108a4366004615371565b611b92565b3480156108b557600080fd5b506067546108c9906001600160a01b031681565b6040516001600160a01b03909116815260200161066b565b3480156108ed57600080fd5b5061066160c35481565b34801561090357600080fd5b506106496109123660046154a8565b611ba2565b34801561092357600080fd5b5061096b610932366004615371565b60a46020526000908152604090205463ffffffff81169060ff600160201b8204811691600160281b8104821691600160301b9091041684565b6040805163ffffffff95909516855260ff938416602086015291909216908301521515606082015260800161066b565b3480156109a757600080fd5b506106496109b63660046154a8565b611c38565b3480156109c757600080fd5b50610661607d5481565b3480156109dd57600080fd5b5060b9546106a49060ff1681565b3480156109f757600080fd5b50610649610a063660046155c1565b611ce7565b348015610a1757600080fd5b50610661610a26366004615371565b611d92565b348015610a3757600080fd5b50610661610a46366004615371565b611da2565b348015610a5757600080fd5b5061066160b15481565b348015610a6d57600080fd5b50610649610a7c366004615371565b611db2565b348015610a8d57600080fd5b50610661609a5481565b348015610aa357600080fd5b50610661610ab2366004615371565b611e88565b348015610ac357600080fd5b50610649610ad2366004615486565b611e98565b348015610ae357600080fd5b50610649610af23660046156a0565b611ec2565b348015610b0357600080fd5b5061066160925481565b348015610b1957600080fd5b50610649610b28366004615719565b611f1f565b348015610b3957600080fd5b5061066160955481565b348015610b4f57600080fd5b50610661609c5481565b348015610b6557600080fd5b50610661610b74366004615371565b611f9f565b348015610b8557600080fd5b50610be8610b94366004615371565b6090602052600090815260409020805460018201546002830154600384015460049094015460ff8085169561010086048216956201000081049092169463010000009092046001600160a01b031693919288565b60405161066b989796959493929190615781565b348015610c0857600080fd5b50610661610c17366004615371565b60a66020526000908152604090205481565b348015610c3557600080fd5b50610649610c443660046157d8565b611faf565b348015610c5557600080fd5b50610649610c64366004615804565b612047565b348015610c7557600080fd5b5061064961209c565b348015610c8a57600080fd5b50610661610c99366004615371565b6120d7565b348015610caa57600080fd5b50610661607f5481565b348015610cc057600080fd5b50610661610ccf366004615469565b60bc6020526000908152604090205481565b348015610ced57600080fd5b50610649610cfc366004615469565b6120e7565b348015610d0d57600080fd5b50610661610d1c366004615371565b612138565b348015610d2d57600080fd5b5061066160995481565b348015610d4357600080fd5b5061066160985481565b348015610d5957600080fd5b506106a4610d68366004615371565b60009081526091602052604090205460ff1690565b348015610d8957600080fd5b5060c0546108c9906001600160a01b031681565b348015610da957600080fd5b50610661609d5481565b348015610dbf57600080fd5b5061066160975481565b348015610dd557600080fd5b50610649610de4366004615371565b612148565b348015610df557600080fd5b506108c961217c565b348015610e0a57600080fd5b5061066161218b565b348015610e1f57600080fd5b5061066160aa5481565b348015610e3557600080fd5b50606a546108c9906001600160a01b031681565b348015610e5557600080fd5b506068546108c9906001600160a01b031681565b348015610e7557600080fd5b5061066160c25481565b348015610e8b57600080fd5b50610661610e9a366004615469565b60a16020526000908152604090205481565b348015610eb857600080fd5b50610649610ec7366004615804565b6121a1565b348015610ed857600080fd5b50610661610ee7366004615371565b6121f6565b348015610ef857600080fd5b5060ac546106a490610100900460ff1681565b348015610f1757600080fd5b5061066160c15481565b348015610f2d57600080fd5b50610f41610f3c366004615413565b6122bf565b60405161066b919061589d565b348015610f5a57600080fd5b50610661610f69366004615371565b612367565b348015610f7a57600080fd5b5061066160865481565b348015610f9057600080fd5b50610661610f9f366004615371565b612377565b348015610fb057600080fd5b5060ae546106a490610100900460ff1681565b610649610fd1366004615371565b612387565b348015610fe257600080fd5b5060725460735460745460755460765460775461100195949392919086565b604080519687526020870195909552938501929092526060840152608083015260a082015260c00161066b565b34801561103a57600080fd5b50610661609f5481565b34801561105057600080fd5b5061066160ba5481565b34801561106657600080fd5b50610649611075366004615413565b61255b565b34801561108657600080fd5b50610661611095366004615469565b60bb6020526000908152604090205481565b3480156110b357600080fd5b5061066160835481565b3480156110c957600080fd5b506066546108c9906001600160a01b031681565b3480156110e957600080fd5b5061066160ad5481565b3480156110ff57600080fd5b50611108612596565b60405161066b919061591c565b34801561112157600080fd5b5061066160845481565b34801561113757600080fd5b50610661611146366004615398565b61270b565b34801561115757600080fd5b50610661611166366004615469565b61272b565b34801561117757600080fd5b506106a4611186366004615371565b60916020526000908152604090205460ff1681565b3480156111a757600080fd5b5061066160ab5481565b3480156111bd57600080fd5b5061066160a75481565b3480156111d357600080fd5b506106496111e236600461599d565b61276c565b3480156111f357600080fd5b50610649611202366004615413565b6127d3565b34801561121357600080fd5b50611252611222366004615371565b60a36020526000908152604090205460ff808216916001600160a01b0361010082041691600160a81b9091041683565b60405161066b939291906159e9565b34801561126d57600080fd5b5060ae546106a49060ff1681565b34801561128757600080fd5b5060ac546106a49060ff1681565b3480156112a157600080fd5b50606b54606c54606f546071546112b89392919084565b60408051948552602085019390935291830152606082015260800161066b565b3480156112e457600080fd5b506106616112f3366004615371565b60a56020526000908152604090205481565b34801561131157600080fd5b50610661609b5481565b34801561132757600080fd5b506065546108c9906001600160a01b031681565b34801561134757600080fd5b5061066160795481565b34801561135d57600080fd5b50610661612806565b34801561137257600080fd5b50610661611381366004615469565b60946020526000908152604090205481565b34801561139f57600080fd5b506106496113ae366004615a1c565b61281e565b3480156113bf57600080fd5b506106496113ce366004615a7b565b61291e565b3480156113df57600080fd5b506106496113ee366004615413565b61297c565b3480156113ff57600080fd5b5061066160825481565b34801561141557600080fd5b5061066160a95481565b34801561142b57600080fd5b506069546108c9906001600160a01b031681565b34801561144b57600080fd5b5061149361145a366004615371565b60b260205260009081526040902080546002820154600383015460048401546005909401546001600160a01b0390931693919290919085565b604080516001600160a01b0390961686526020860194909452928401919091526060830152608082015260a00161066b565b3480156114d157600080fd5b506096546106a49060ff1681565b3480156114eb57600080fd5b506106496114fa366004615ae3565b6129f0565b34801561150b57600080fd5b5061066160a25481565b34801561152157600080fd5b50610661611530366004615469565b60a06020526000908152604090205481565b610649611550366004615486565b612a96565b34801561156157600080fd5b50610649611570366004615413565b61309f565b34801561158157600080fd5b50610649611590366004615c20565b613113565b3480156115a157600080fd5b506096546106a490610100900460ff1681565b3480156115c057600080fd5b50610661609e5481565b3480156115d657600080fd5b506106496115e5366004615469565b61315c565b3480156115f657600080fd5b5061066160a85481565b34801561160c57600080fd5b5061066160805481565b34801561162257600080fd5b50610661611631366004615371565b6131fc565b60c0546001600160a01b03163660008037600080366000845af43d6000803e808015611661573d6000f35b3d6000fd5b505050565b607c818154811061167b57600080fd5b600091825260209091200154905081565b60965460ff161580156116a65750609654610100900460ff165b6116cb5760405162461bcd60e51b81526004016116c290615c3d565b60405180910390fd5b609a54826116d761218b565b6116e19190615c70565b11156117155760405162461bcd60e51b815260206004820152600360248201526245333160e81b60448201526064016116c2565b600061171f61320c565b90508061172c848461324e565b6117369190615c88565b34101561176b5760405162461bcd60e51b815260206004820152600360248201526245333360e81b60448201526064016116c2565b34609d600082825461177d9190615c70565b909155506000905082156117b557606b600301607954815481106117a3576117a3615ca7565b906000526020600020015490506117db565b606b600201607954815481106117cd576117cd615ca7565b906000526020600020015490505b6066546001600160a01b03166323b872dd33306117f88886615c88565b6040518463ffffffff1660e01b815260040161181693929190615cbd565b602060405180830381600087803b15801561183057600080fd5b505af1158015611844573d6000803e3d6000fd5b505050506040513d601f19601f820116820180604052508101906118689190615ce1565b50611877338585608454613298565b50505050565b6087818154811061167b57600080fd5b609654610100900460ff166118b45760405162461bcd60e51b81526004016116c290615c3d565b60005b818110156116665760655433906001600160a01b0316636352211e8585858181106118e4576118e4615ca7565b905060200201356040518263ffffffff1660e01b815260040161190991815260200190565b60206040518083038186803b15801561192157600080fd5b505afa158015611935573d6000803e3d6000fd5b505050506040513d601f19601f820116820180604052508101906119599190615cfe565b6001600160a01b0316146119955760405162461bcd60e51b815260206004820152600360248201526245343160e81b60448201526064016116c2565b6119b98383838181106119aa576119aa615ca7565b90506020020135336000613403565b806119c381615d1b565b9150506118b7565b60005b81811015611666576000609060008585858181106119ee576119ee615ca7565b9050602002013581526020019081526020016000209050611a26848484818110611a1a57611a1a615ca7565b90506020020135613517565b805460bd80549091610100900460ff16908110611a4557611a45615ca7565b600091825260208083209091015433835260bb90915260408220805491929091611a70908490615c70565b909155508490508383818110611a8857611a88615ca7565b90506020020135336001600160a01b03167fa6c4da636b3fb91fe9a6878135ec951f240c6b175b0636d3ed22ec30a6c34df260bd8460000160019054906101000a900460ff1660ff1681548110611ae157611ae1615ca7565b9060005260206000200154604051611afb91815260200190565b60405180910390a35080611b0e81615d1b565b9150506119ce565b608c8260048110611b2657600080fd5b018181548110611b3557600080fd5b90600052602060002001600091509150505481565b606a546001600160a01b03163314611b745760405162461bcd60e51b81526004016116c290615d36565b611b7e828261371a565b5050565b60b7818154811061167b57600080fd5b6078818154811061167b57600080fd5b33611bab61217c565b6001600160a01b031614611bd15760405162461bcd60e51b81526004016116c290615d53565b6040516323b872dd60e01b81526001600160a01b038416906323b872dd90611c0190309086908690600401615cbd565b600060405180830381600087803b158015611c1b57600080fd5b505af1158015611c2f573d6000803e3d6000fd5b50505050505050565b33611c4161217c565b6001600160a01b031614611c675760405162461bcd60e51b81526004016116c290615d53565b60405163a9059cbb60e01b81526001600160a01b0384169063a9059cbb90611c959085908590600401615d88565b602060405180830381600087803b158015611caf57600080fd5b505af1158015611cc3573d6000803e3d6000fd5b505050506040513d601f19601f820116820180604052508101906118779190615ce1565b33611cf061217c565b6001600160a01b031614611d165760405162461bcd60e51b81526004016116c290615d53565b8051606b908155602080830151606c5560408301518051849392611d3f92606d929101906152d6565b5060608201518051611d5b9160038401916020909101906152d6565b506080820151600482015560a08201518051611d819160058401916020909101906152d6565b5060c0820151816006015590505050565b60af818154811061167b57600080fd5b607b818154811061167b57600080fd5b606a546001600160a01b03163314611df25760405162461bcd60e51b815260206004820152600360248201526245393960e81b60448201526064016116c2565b80609e54609d54611e039190615da1565b1115611e375760405162461bcd60e51b815260206004820152600360248201526208a72760eb1b60448201526064016116c2565b80609e6000828254611e499190615c70565b9091555050606a546040516001600160a01b039091169082156108fc029083906000818181858888f19350505050158015611b7e573d6000803e3d6000fd5b60b5818154811061167b57600080fd5b60005b8181101561166657611eb083600160006137e3565b80611eba81615d1b565b915050611e9b565b33611ecb61217c565b6001600160a01b031614611ef15760405162461bcd60e51b81526004016116c290615d53565b8051607255602081015160735560408101516074556060810151607555608081015160765560a00151607755565b808314611f575760405162461bcd60e51b81526004016116c2906020808252600490820152634531353160e01b604082015260600190565b60005b83811015611f9857611f86856000858585818110611f7a57611f7a615ca7565b905060200201356137e3565b80611f9081615d1b565b915050611f5a565b5050505050565b60b4818154811061167b57600080fd5b33611fb861217c565b6001600160a01b031614611fde5760405162461bcd60e51b81526004016116c290615d53565b609c54609b54611fee9083615c70565b11156120225760405162461bcd60e51b815260206004820152600360248201526245393760e81b60448201526064016116c2565b80609b60008282546120349190615c70565b90915550611b7e90508282600080613298565b3361205061217c565b6001600160a01b0316146120765760405162461bcd60e51b81526004016116c290615d53565b61208260878787615321565b5061208f60888585615321565b50611c2f60898383615321565b336120a561217c565b6001600160a01b0316146120cb5760405162461bcd60e51b81526004016116c290615d53565b6120d56000613c26565b565b6088818154811061167b57600080fd5b336120f061217c565b6001600160a01b0316146121165760405162461bcd60e51b81526004016116c290615d53565b60c080546001600160a01b0319166001600160a01b0392909216919091179055565b6089818154811061167b57600080fd5b3361215161217c565b6001600160a01b0316146121775760405162461bcd60e51b81526004016116c290615d53565b60aa55565b6033546001600160a01b031690565b60006001607f5461219c9190615da1565b905090565b336121aa61217c565b6001600160a01b0316146121d05760405162461bcd60e51b81526004016116c290615d53565b6121dc607a8787615321565b506121e9607b8585615321565b50611c2f607c8383615321565b600081815260b2602052604081206001810180548391609091839190829061222057612220615ca7565b9060005260206000200154815260200190815260200160002090506000606460b78360000160019054906101000a900460ff1660ff168154811061226657612266615ca7565b906000526020600020015484600301546122809190615c88565b61228a9190615dce565b90508083600201544261229d9190615da1565b6122a79190615c88565b83600401546122b69190615c70565b95945050505050565b6060816001600160401b038111156122d9576122d96154e9565b604051908082528060200260200182016040528015612302578160200160208202803683370190505b50905060005b828110156123605761233184848381811061232557612325615ca7565b90506020020135613c78565b82828151811061234357612343615ca7565b60209081029190910101528061235881615d1b565b915050612308565b5092915050565b60b6818154811061167b57600080fd5b60bd818154811061167b57600080fd5b60965460ff161580156123a15750609654610100900460ff165b6123bd5760405162461bcd60e51b81526004016116c290615c3d565b609a54816123c961218b565b6123d39190615c70565b11156124075760405162461bcd60e51b815260206004820152600360248201526222999960e91b60448201526064016116c2565b608154816080546124189190615c70565b111561244c5760405162461bcd60e51b815260206004820152600360248201526245353160e81b60448201526064016116c2565b600061245661320c565b90508061246483600161324e565b61246e9190615c88565b3410156124a35760405162461bcd60e51b8152602060048201526003602482015262114ccd60ea1b60448201526064016116c2565b34609d60008282546124b59190615c70565b9091555050606754606f546001600160a01b03909116906323b872dd90339030906124e1908790615c88565b6040518463ffffffff1660e01b81526004016124ff93929190615cbd565b600060405180830381600087803b15801561251957600080fd5b505af115801561252d573d6000803e3d6000fd5b5050505061254033836001608354613298565b81608060008282546125529190615c70565b90915550505050565b3361256461217c565b6001600160a01b03161461258a5760405162461bcd60e51b81526004016116c290615d53565b61166660788383615321565b6125de60405180610100016040528060008152602001600081526020016000815260200160008152602001600081526020016060815260200160008152602001606081525090565b604051806101000160405280606b600001548152602001606b600101548152602001606b6002016079548154811061261857612618615ca7565b90600052602060002001548152602001606b6003016079548154811061264057612640615ca7565b600091825260209182902001548252606f548282015260708054604080518285028101850182528281529401939283018282801561269d57602002820191906000526020600020905b815481526020019060010190808311612689575b50505050508152602001606b60060154815260200160b48054806020026020016040519081016040528092919081815260200182805480156126fe57602002820191906000526020600020905b8154815260200190600101908083116126ea575b5050505050815250905090565b6000612717838361324e565b60a9546127249190615c88565b9392505050565b6001600160a01b038116600090815260bc602090815260408083205460bb90925282205460ba5461275c9190615c70565b6127669190615da1565b92915050565b3361277561217c565b6001600160a01b03161461279b5760405162461bcd60e51b81526004016116c290615d53565b60c080546001600160a01b0319166001600160a01b03979097169690961790955560be9390935560c29190915560c355607155608655565b609654610100900460ff166127fa5760405162461bcd60e51b81526004016116c290615c3d565b611b7e82826000613f62565b600061281160775490565b60a95461219c9190615c88565b606a546001600160a01b031633146128485760405162461bcd60e51b81526004016116c290615d36565b8260005b818110156128a05761288e86868381811061286957612869615ca7565b9050602002013585858481811061288257612882615ca7565b9050602002013561371a565b8061289881615d1b565b91505061284c565b506000609e54609d546128b39190615da1565b9050670429d069189e00008111156129165780609e60008282546128d79190615c70565b9091555050606a546040516001600160a01b039091169082156108fc029083906000818181858888f19350505050158015611c2f573d6000803e3d6000fd5b505050505050565b3361292761217c565b6001600160a01b03161461294d5760405162461bcd60e51b81526004016116c290615d53565b607d99909955608197909755609595909555609a93909355609891909155609955608255608355608455608655565b609654610100900460ff166129a35760405162461bcd60e51b81526004016116c290615c3d565b6129ac3361272b565b8111156129e45760405162461bcd60e51b81526004016116c2906020808252600490820152634531363160e01b604082015260600190565b611b7e82826001613f62565b336129f961217c565b6001600160a01b031614612a1f5760405162461bcd60e51b81526004016116c290615d53565b60b9805460ff19166001179055612a3860708d8d615321565b50612a4560b48b8b615321565b50612a5260b68989615321565b50612a5f60b58787615321565b50612a6c60b78585615321565b50612a7960bd8383615321565b5050600160b1555050600560ba5550504260c15550505050505050565b60965460ff16158015612ab05750609654610100900460ff165b612acc5760405162461bcd60e51b81526004016116c290615c3d565b80821415612b025760405162461bcd60e51b815260206004820152600360248201526245383160e81b60448201526064016116c2565b6000612b0c61320c565b905080612b1860775490565b612b229190615c88565b341015612b575760405162461bcd60e51b815260206004820152600360248201526222999b60e91b60448201526064016116c2565b34609d6000828254612b699190615c70565b90915550506000838152609060205260408082208483529181902060655491516331a9108f60e11b815260048101879052909133916001600160a01b0390911690636352211e9060240160206040518083038186803b158015612bcb57600080fd5b505afa158015612bdf573d6000803e3d6000fd5b505050506040513d601f19601f82011682018060405250810190612c039190615cfe565b6001600160a01b03161480612c3a5750815462010000900460ff168015612c3a57508154630100000090046001600160a01b031633145b612c6c5760405162461bcd60e51b8152602060048201526003602482015262114e0d60ea1b60448201526064016116c2565b6065546040516331a9108f60e11b81526004810186905233916001600160a01b031690636352211e9060240160206040518083038186803b158015612cb057600080fd5b505afa158015612cc4573d6000803e3d6000fd5b505050506040513d601f19601f82011682018060405250810190612ce89190615cfe565b6001600160a01b03161480612d1f5750805462010000900460ff168015612d1f57508054630100000090046001600160a01b031633145b612d515760405162461bcd60e51b815260206004820152600360248201526245383560e81b60448201526064016116c2565b600085815260b36020526040902054158015612d795750600084815260b36020526040902054155b612dae5760405162461bcd60e51b81526004016116c2906020808252600490820152634538313160e01b604082015260600190565b6001825460ff166001811115612dc657612dc661576b565b148015612de857506001815460ff166001811115612de657612de661576b565b145b612e1a5760405162461bcd60e51b8152602060048201526003602482015262229c1960e91b60448201526064016116c2565b8154610100900460ff16158015612e3857508054610100900460ff16155b612e6a5760405162461bcd60e51b815260206004820152600360248201526245383360e81b60448201526064016116c2565b815460009062010000900460ff16151560011415612ecf576000612e8d87613c78565b9050612e998183615c70565b608a54600386015560a2546040518381529193508891339190600080516020615e7a8339815191529060200160405180910390a4505b815462010000900460ff16151560011415612f3a576000612eef86613c78565b9050612efb8183615c70565b608a54600385015560a2546040518381529193508791339190600080516020615e7a8339815191529060200160405180910390a4612f3886614252565b505b607154811015612fe1576066546071546001600160a01b03909116906323b872dd9033903090612f6b908690615da1565b6040518463ffffffff1660e01b8152600401612f8993929190615cbd565b602060405180830381600087803b158015612fa357600080fd5b505af1158015612fb7573d6000803e3d6000fd5b505050506040513d601f19601f82011682018060405250810190612fdb9190615ce1565b50612ff9565b607154612ff9903390612ff49084615da1565b61439b565b613002866143cd565b606554604051630852cd8d60e31b8152600481018790526001600160a01b03909116906342966c6890602401600060405180830381600087803b15801561304857600080fd5b505af115801561305c573d6000803e3d6000fd5b50506040518881528792503391507f7fbc09d28fa0377bea9dd7bc3289ca8cf2ed47c19c59b30347c08925c18e82d79060200160405180910390a3505050505050565b60965460ff161580156130b95750609654610100900460ff165b6130d55760405162461bcd60e51b81526004016116c290615c3d565b60005b81811015611666576131018383838181106130f5576130f5615ca7565b9050602002013561447e565b8061310b81615d1b565b9150506130d8565b3361311c61217c565b6001600160a01b0316146131425760405162461bcd60e51b81526004016116c290615d53565b609680549115156101000261ff0019909216919091179055565b3361316561217c565b6001600160a01b03161461318b5760405162461bcd60e51b81526004016116c290615d53565b6001600160a01b0381166131f05760405162461bcd60e51b815260206004820152602660248201527f4f776e61626c653a206e6577206f776e657220697320746865207a65726f206160448201526564647265737360d01b60648201526084016116c2565b6131f981613c26565b50565b607a818154811061167b57600080fd5b600060aa5460ab544261321f9190615da1565b11156132345760a9805460a8554890554260ab555b60a95460a8541015613247575060a85490565b5060a95490565b60008161325c576000613274565b60745461326a600185615da1565b6132749190615c88565b6073546132819085615c88565b60725461328e9190615c70565b6127249190615c70565b600081156132b2576132ab846002615c88565b90506132b5565b50825b60006132bf61460c565b6040805160608101825260008082526001600160a01b038a16602080840191909152600183850181905285835260a39091529290208151815494955091939092839160ff1916908360028111156133185761331861576b565b021790555060208281015182546040948501511515600160a81b0260ff60a81b196001600160a01b039093166101000292909216610100600160b01b031990911617179091558151608081018352607f5463ffffffff908116825260ff8981168385019081528882168487019081528a151560608601908152600089815260a490975296909520935184549151955196511515600160301b0260ff60301b19978416600160281b029790971666ffff00000000001996909316600160201b0264ffffffffff19909216931692909217919091179290921691909117919091179055611c2f3086614670565b60008381526090602052604090208161347d576065546040516323b872dd60e01b81526001600160a01b03909116906323b872dd9061344a90869030908990600401615cbd565b600060405180830381600087803b15801561346457600080fd5b505af1158015613478573d6000803e3d6000fd5b505050505b80546001600160a01b03841663010000000262010000600160b81b031990911617620100001781554260018281019190915560006002830155815460ff1660018111156134cc576134cc61576b565b14156134db576134db846147d8565b6040516001600160a01b0384169085907f5b53344e2b3d15f33a2ab59e3c199c7bbcb08f5ce03bf0a25c14f978647299a790600090a350505050565b6000818152609060205260409081902060655491516331a9108f60e11b815260048101849052909133916001600160a01b0390911690636352211e9060240160206040518083038186803b15801561356e57600080fd5b505afa158015613582573d6000803e3d6000fd5b505050506040513d601f19601f820116820180604052508101906135a69190615cfe565b6001600160a01b031614806135cb57508054630100000090046001600160a01b031633145b6136005760405162461bcd60e51b81526004016116c290602080825260049082015263229b991960e11b604082015260600190565b6000815460ff1660018111156136185761361861576b565b1461364e5760405162461bcd60e51b81526004016116c290602080825260049082015263229b989960e11b604082015260600190565b600082815260b360205260409020541561369357600082815260b3602052604090205461367a9061489d565b600082815260b3602052604090205461369390836148c6565b805462010000900460ff16156136b0576136b033612ff484613c78565b805462010000600160b81b0319168155606554604051630852cd8d60e31b8152600481018490526001600160a01b03909116906342966c6890602401600060405180830381600087803b15801561370657600080fd5b505af1158015612916573d6000803e3d6000fd5b817fa1400508f229eaea44d95e98b6da371661f6e873726585abd7efdbdc607169768260405161374c91815260200190565b60405180910390a2600082815260a3602052604090208054600160a81b900460ff1661377757505050565b805460ff60a81b191681556000815460ff16600281111561379a5761379a61576b565b14156137bb5780546116669061010090046001600160a01b0316848461499d565b6002815460ff1660028111156137d3576137d361576b565b1415611666576116668383614b76565b60965460ff161580156137fd5750609654610100900460ff165b6138195760405162461bcd60e51b81526004016116c290615c3d565b6000838152609060205260409081902060655491516331a9108f60e11b815260048101869052909133916001600160a01b0390911690636352211e9060240160206040518083038186803b15801561387057600080fd5b505afa158015613884573d6000803e3d6000fd5b505050506040513d601f19601f820116820180604052508101906138a89190615cfe565b6001600160a01b031614806138cd57508054630100000090046001600160a01b031633145b6138ff5760405162461bcd60e51b8152602060048201526003602482015262229b9960e91b60448201526064016116c2565b6000815460ff1660018111156139175761391761576b565b14801561392e57508054600661010090910460ff16105b6139605760405162461bcd60e51b815260206004820152600360248201526245373160e81b60448201526064016116c2565b600084815260b3602052604090205415613a3057600084815260b3602052604090205461398c9061489d565b805460b580549091610100900460ff169081106139ab576139ab615ca7565b600091825260209091200154815460b5906139cf90610100900460ff166001615de2565b60ff16815481106139e2576139e2615ca7565b90600052602060002001546139f79190615da1565b600085815260b36020908152604080832054835260b290915281206003018054909190613a25908490615c70565b90915550613a559050565b805462010000900460ff1615613a5557613a4984613c78565b60028201554260018201555b8215613af3576067548154607080546001600160a01b03909316926323b872dd92339230929091610100900460ff16908110613a9357613a93615ca7565b90600052602060002001546040518463ffffffff1660e01b8152600401613abc93929190615cbd565b600060405180830381600087803b158015613ad657600080fd5b505af1158015613aea573d6000803e3d6000fd5b50505050613bb0565b606654815460b480546001600160a01b03909316926323b872dd92339230929091610100900460ff16908110613b2b57613b2b615ca7565b90600052602060002001546040518463ffffffff1660e01b8152600401613b5493929190615cbd565b602060405180830381600087803b158015613b6e57600080fd5b505af1158015613b82573d6000803e3d6000fd5b505050506040513d601f19601f82011682018060405250810190613ba69190615ce1565b50613bb082613517565b8054610100900460ff16816001613bc683615e07565b825460ff91821661010093840a90810290830219909116179092558354604051919004909116815285915033907f2ef0b9f6641bfe4ae9f94f2b9b20ece8b29e13b163e6425c14ff8f520e79412e9060200160405180910390a350505050565b603380546001600160a01b038381166001600160a01b0319831681179093556040519116919082907f8be0079c531659141344cd1fd0a4f28419497f9722a3daafe3b4186f6b6457e090600090a35050565b60008181526090602052604080822081516101008101909252805483929190829060ff166001811115613cad57613cad61576b565b6001811115613cbe57613cbe61576b565b8152815460ff61010082048116602084015262010000820416151560408301526001600160a01b03630100000090910416606082015260018201546080820152600282015460a0820152600382015460c082015260049091015460e0909101529050600081516001811115613d3557613d3561576b565b1415613f215760a081015160008481526090602052604090206001015460ad54811015613dc157607a836020015160ff1681548110613d7657613d76615ca7565b9060005260206000200154609060008781526020019081526020016000206001015460ad54613da59190615da1565b613daf9190615c88565b613db99083615c70565b915060ad5490505b60c154811015613e1a5760af836020015160ff1681548110613de557613de5615ca7565b90600052602060002001548160c154613dfe9190615da1565b613e089190615c88565b613e129083615c70565b915060c15490505b6000613e268242615da1565b9050600060c35460be5460c254613e3d9190615da1565b613e479190615dce565b905060c354821115613ece5760028160c35460c354613e669190615c88565b613e709190615c88565b613e7a9190615dce565b613e849085615c70565b935060be5460c354613e969190615c88565b613ea09085615c70565b935060c25460c35483613eb39190615da1565b613ebd9190615c88565b613ec79085615c70565b9350613f16565b600281613edb8480615c88565b613ee59190615c88565b613eef9190615dce565b613ef99085615c70565b935060be5482613f099190615c88565b613f139085615c70565b93505b509195945050505050565b6088816020015160ff1681548110613f3b57613f3b615ca7565b90600052602060002001548160c00151608a54613f589190615da1565b6127249190615c88565b60a780546000918291829182613f7783615d1b565b909155505060a75460005b868110156141f1576000609060008a8a85818110613fa257613fa2615ca7565b90506020020135815260200190815260200160002090508060000160029054906101000a900460ff16151560011515148015613fee57508054630100000090046001600160a01b031633145b6140205760405162461bcd60e51b815260206004820152600360248201526245393160e81b60448201526064016116c2565b60b360008a8a8581811061403657614036615ca7565b905060200201358152602001908152602001600020546000146140845760405162461bcd60e51b81526004016116c290602080825260049082015263229c989960e11b604082015260600190565b600061409b8a8a8581811061232557612325615ca7565b90506000825460ff1660018111156140b5576140b561576b565b141561414f5760006064607d54836140cd9190615c88565b6140d79190615dce565b90506140e38183615da1565b6140ed9089615c70565b97506140f98187615c70565b42600185015595508a8a8581811061411357614113615ca7565b602002919091013590503386600080516020615e7a8339815191526141388587615da1565b60405190815260200160405180910390a4506141af565b6141598187615c70565b608a546003840155955089898481811061417557614175615ca7565b90506020020135336001600160a01b031685600080516020615e7a833981519152846040516141a691815260200190565b60405180910390a45b87156141d6576141d68a8a858181106141ca576141ca615ca7565b90506020020135614252565b506000600290910155806141e981615d1b565b915050613f82565b5061420033612ff48686615c70565b8115611c2f5761420f82614cdc565b807fa82e56087acdb4c45b596e06c5ef2d1e974654985bfd4300ebad87555eec136e8360405161424191815260200190565b60405180910390a250505050505050565b6000818152609060205260409020805462010000600160b81b031981168255630100000090046001600160a01b03166001825460ff1660018111156142995761429961576b565b14156142ad576142a883614d14565b6142fa565b6000825460ff1660018111156142c5576142c561576b565b14156142fa576001600160a01b038116600090815260bc602052604081208054600192906142f4908490615c70565b90915550505b6065546040516323b872dd60e01b81526001600160a01b03909116906323b872dd9061432e90309085908890600401615cbd565b600060405180830381600087803b15801561434857600080fd5b505af115801561435c573d6000803e3d6000fd5b50506040516001600160a01b03841692508591507f3a01954f64bfeed1c903bc3920f7a5639288ea25efc7a539195648519e4184a390600090a3505050565b6066546040516340c10f1960e01b815282916001600160a01b0316906340c10f1990611c019086908590600401615d88565b60006143d761460c565b604080516060810182526002808252336020808401919091526001838501819052600086815260a39092529390208251815495965092949093849260ff1990921691849081111561442a5761442a61576b565b021790555060208281015182546040948501511515600160a81b0260ff60a81b196001600160a01b039093166101000292909216610100600160b01b03199091161717909155600092835260a69052902055565b621e8c518110156144b75760405162461bcd60e51b815260206004820152600360248201526245313160e81b60448201526064016116c2565b60008181526091602052604090205460ff16156144fc5760405162461bcd60e51b815260206004820152600360248201526222989960e91b60448201526064016116c2565b6068546040516331a9108f60e11b81526004810183905233916001600160a01b031690636352211e9060240160206040518083038186803b15801561454057600080fd5b505afa158015614554573d6000803e3d6000fd5b505050506040513d601f19601f820116820180604052508101906145789190615cfe565b6001600160a01b0316146145b45760405162461bcd60e51b815260206004820152600360248201526245313360e81b60448201526064016116c2565b6000818152609160205260408120805460ff191660011790556145d633614e89565b6040519091508190839033907f584ea1a98d504e99c0dd0ca5ace55f5458d725e7e20a1ebb2e5e5af38434397190600090a45050565b600060a2547f315444e506fb06e32d43fe2cf48f37218994285028f458255be4a56810b66b8d60a25460405161464491815260200190565b60405180910390a260a2805490600061465c83615d1b565b9190505550600160a25461219c9190615da1565b607f80546000918390836146848385615c70565b925050819055506078607954815481106146a0576146a0615ca7565b9060005260206000200154607f54106146c957607980549060006146c383615d1b565b91905055505b6065546040516322ce52b560e21b81526001600160a01b038681166004830152602482018490526044820186905290911690638b394ad490606401600060405180830381600087803b15801561471e57600080fd5b505af1158015614732573d6000803e3d6000fd5b5050505060005b8381101561478c576001609060006147518486615c70565b81526020810191909152604001600020805460ff929092166101000261ff00199092169190911790558061478481615d1b565b915050614739565b5060408051828152602081018590526001600160a01b038616917f8b7c923d3e09b520f101439fe55b1b1ea3b1fcdfcb88afe6aed96873d341e1aa910160405180910390a29392505050565b60008181526090602052604090208054608880549091610100900460ff1690811061480557614805615ca7565b9060005260206000200154608b60008282546148219190615c70565b9091555050608a5460038201558054610100900460ff1615611b7e578054608c90610100900460ff166004811061485a5761485a615ca7565b01546004828101919091558154608c9161010090910460ff1690811061488257614882615ca7565b01805460018101825560009182526020909120018290555050565b6148a6816121f6565b600091825260b26020526040909120600481019190915542600290910155565b60008181526090602052604090205460b580549091610100900460ff169081106148f2576148f2615ca7565b906000526020600020015460b2600084815260200190815260200160002060030160008282546149229190615da1565b9091555050600081815260b360209081526040808320839055609082528083204260019182015585845260b29092528220600501805491929091614967908490615da1565b9091555050604051819083907fbf29afa7b80118742f9b6f15e4a2f6ae38b0dc246732b5b2bdde209326c7dfca90600090a35050565b600082815260a460205260408120805463ffffffff165b81546149d09060ff600160201b8204169063ffffffff16615e27565b63ffffffff168110156129165760008181526090602052604090206149f485614f63565b608654909650909450841015614a4057805461ffff1916600117815560405182907fe745cd12d6f4eb3c23b4aeb859314255073bdc0805d89f7622090698abf484b290600090a2614a77565b60405182906001600160a01b038916907f17168db4d4772024cf56ab2222c1d7888481238be6bc32c3d7a8726a9483bab290600090a35b8254600090600160281b900460ff1615614ad357614a9486614f63565b8554909750909550600160281b900460ff16851015614ad3576000614ab7614faa565b90508015614ad157614aca84828961501a565b9650600191505b505b80614b61578354600160301b900460ff1615614afa57614af583896001613403565b614b61565b6065546040516323b872dd60e01b81526001600160a01b03909116906323b872dd90614b2e9030908c908890600401615cbd565b600060405180830381600087803b158015614b4857600080fd5b505af1158015614b5c573d6000803e3d6000fd5b505050505b50508080614b6e90615d1b565b9150506149b4565b600082815260a66020908152604080832054808452609090925282209091614b9d84614f63565b94509050614baa8161511c565b825461ff00191661010060ff928316021780845562010000900416151560011415614c96576088600081548110614be357614be3615ca7565b6000918252602090912001548254608880549091610100900460ff16908110614c0e57614c0e615ca7565b9060005260206000200154614c239190615da1565b608b6000828254614c349190615c70565b90915550508154608c90610100900460ff1660048110614c5657614c56615ca7565b01546004838101919091558254608c9161010090910460ff16908110614c7e57614c7e615ca7565b01805460018101825560009182526020909120018390555b815460405161010090910460ff16815283907fe15c536009c86cf1fa16027c6ee4538c2bcce2bdcd80dd17fec4ea96182ef04c9060200160405180910390a25050505050565b614ce6308261439b565b608b54156131f957608b54614cfb9082615dce565b608a6000828254614d0c9190615c70565b909155505050565b60008181526090602052604090208054608880549091610100900460ff16908110614d4157614d41615ca7565b9060005260206000200154608b6000828254614d5d9190615da1565b90915550508054610100900460ff1615614e7e578054600090608c90610100900460ff1660048110614d9157614d91615ca7565b8354910190600190608c90610100900460ff1660048110614db457614db4615ca7565b0154614dc09190615da1565b81548110614dd057614dd0615ca7565b60009182526020909120015482549091508190608c90610100900460ff1660048110614dfe57614dfe615ca7565b01836004015481548110614e1457614e14615ca7565b6000918252602090912001558154608c90610100900460ff1660048110614e3d57614e3d615ca7565b01805480614e4d57614e4d615e4f565b6000828152602080822083016000199081018390559092019092556004808501549383526090909152604090912001555b600060049091015550565b607f8054600091819083614e9c83615d1b565b9190505550607860795481548110614eb657614eb6615ca7565b9060005260206000200154607f5410614edf5760798054906000614ed983615d1b565b91905055505b6065546040516340c10f1960e01b81526001600160a01b03909116906340c10f1990614f119086908590600401615d88565b600060405180830381600087803b158015614f2b57600080fd5b505af1158015614f3f573d6000803e3d6000fd5b5050506000828152609060205260409020805461ffff191660011790555092915050565b60008062100000831015614f99576040805160208101859052016040516020818303038152906040528051906020012060001c92505b50506103ff811691600a9190911c90565b60008060015b6003811161501457608c8160048110614fcb57614fcb615ca7565b01546089805483908110614fe157614fe1615ca7565b9060005260206000200154614ff69190615c88565b6150009083615c70565b91508061500c81615d1b565b915050614fb0565b50919050565b6000806150298484601961517a565b935090506000615038826151d8565b606554600082815260906020526040908190205490516323b872dd60e01b81529293506001600160a01b03918216926323b872dd926150899230926301000000909104909116908b90600401615cbd565b600060405180830381600087803b1580156150a357600080fd5b505af11580156150b7573d6000803e3d6000fd5b50505060008281526090602090815260409182902054915184815263010000009092046001600160a01b0316925088917f9055cdd665fdee53683ce213caee079a0b8a929160ad57c0b83ca49f032dfafc910160405180910390a35091949350505050565b6000805b60038160ff1610156151715760878160ff168154811061514257615142615ca7565b906000526020600020015483101561515f57612724816001615de2565b8061516981615e07565b915050615120565b50600092915050565b6000806001831b808510156151b1576040805160208101879052016040516020818303038152906040528051906020012060001c94505b6000866151bf600184615da1565b87166151cb9190615e65565b979590941c955050505050565b60008060015b600381116152cc576000608c82600481106151fb576151fb615ca7565b0154608980548490811061521157615211615ca7565b90600052602060002001546152269190615c88565b90506152328184615c70565b8510156152ac5760006089838154811061524e5761524e615ca7565b906000526020600020015484876152659190615da1565b61526f9190615dce565b9050608c836004811061528457615284615ca7565b01818154811061529657615296615ca7565b9060005260206000200154945050505050919050565b6152b68184615c70565b92505080806152c490615d1b565b9150506151de565b5060009392505050565b828054828255906000526020600020908101928215615311579160200282015b828111156153115782518255916020019190600101906152f6565b5061531d92915061535c565b5090565b828054828255906000526020600020908101928215615311579160200282015b82811115615311578235825591602001919060010190615341565b5b8082111561531d576000815560010161535d565b60006020828403121561538357600080fd5b5035919050565b80151581146131f957600080fd5b600080604083850312156153ab57600080fd5b8235915060208301356153bd8161538a565b809150509250929050565b60008083601f8401126153da57600080fd5b5081356001600160401b038111156153f157600080fd5b6020830191508360208260051b850101111561540c57600080fd5b9250929050565b6000806020838503121561542657600080fd5b82356001600160401b0381111561543c57600080fd5b615448858286016153c8565b90969095509350505050565b6001600160a01b03811681146131f957600080fd5b60006020828403121561547b57600080fd5b813561272481615454565b6000806040838503121561549957600080fd5b50508035926020909101359150565b6000806000606084860312156154bd57600080fd5b83356154c881615454565b925060208401356154d881615454565b929592945050506040919091013590565b634e487b7160e01b600052604160045260246000fd5b60405160e081016001600160401b0381118282101715615521576155216154e9565b60405290565b600082601f83011261553857600080fd5b813560206001600160401b0380831115615554576155546154e9565b8260051b604051601f19603f83011681018181108482111715615579576155796154e9565b60405293845285810183019383810192508785111561559757600080fd5b83870191505b848210156155b65781358352918301919083019061559d565b979650505050505050565b6000602082840312156155d357600080fd5b81356001600160401b03808211156155ea57600080fd5b9083019060e082860312156155fe57600080fd5b6156066154ff565b823581526020830135602082015260408301358281111561562657600080fd5b61563287828601615527565b60408301525060608301358281111561564a57600080fd5b61565687828601615527565b6060830152506080830135608082015260a08301358281111561567857600080fd5b61568487828601615527565b60a08301525060c083013560c082015280935050505092915050565b600060c082840312156156b257600080fd5b60405160c081018181106001600160401b03821117156156d4576156d46154e9565b8060405250823581526020830135602082015260408301356040820152606083013560608201526080830135608082015260a083013560a08201528091505092915050565b6000806000806060858703121561572f57600080fd5b843593506020850135925060408501356001600160401b0381111561575357600080fd5b61575f878288016153c8565b95989497509550505050565b634e487b7160e01b600052602160045260246000fd5b610100810160028a106157965761579661576b565b98815260ff97909716602088015294151560408701526001600160a01b03939093166060860152608085019190915260a084015260c083015260e09091015290565b600080604083850312156157eb57600080fd5b82356157f681615454565b946020939093013593505050565b6000806000806000806060878903121561581d57600080fd5b86356001600160401b038082111561583457600080fd5b6158408a838b016153c8565b9098509650602089013591508082111561585957600080fd5b6158658a838b016153c8565b9096509450604089013591508082111561587e57600080fd5b5061588b89828a016153c8565b979a9699509497509295939492505050565b6020808252825182820181905260009190848201906040850190845b818110156158d5578351835292840192918401916001016158b9565b50909695505050505050565b600081518084526020808501945080840160005b83811015615911578151875295820195908201906001016158f5565b509495945050505050565b6020815281516020820152602082015160408201526040820151606082015260608201516080820152608082015160a0820152600060a08301516101008060c085015261596d6101208501836158e1565b915060c085015160e085015260e0850151601f19858403018286015261599383826158e1565b9695505050505050565b60008060008060008060c087890312156159b657600080fd5b86356159c181615454565b9860208801359850604088013597606081013597506080810135965060a00135945092505050565b60608101600385106159fd576159fd61576b565b9381526001600160a01b03929092166020830152151560409091015290565b60008060008060408587031215615a3257600080fd5b84356001600160401b0380821115615a4957600080fd5b615a55888389016153c8565b90965094506020870135915080821115615a6e57600080fd5b5061575f878288016153c8565b6000806000806000806000806000806101408b8d031215615a9b57600080fd5b505088359a60208a01359a5060408a013599606081013599506080810135985060a0810135975060c0810135965060e081013595506101008101359450610120013592509050565b60008060008060008060008060008060008060c08d8f031215615b0557600080fd5b6001600160401b038d351115615b1a57600080fd5b615b278e8e358f016153c8565b909c509a506001600160401b0360208e01351115615b4457600080fd5b615b548e60208f01358f016153c8565b909a5098506001600160401b0360408e01351115615b7157600080fd5b615b818e60408f01358f016153c8565b90985096506001600160401b0360608e01351115615b9e57600080fd5b615bae8e60608f01358f016153c8565b90965094506001600160401b0360808e01351115615bcb57600080fd5b615bdb8e60808f01358f016153c8565b90945092506001600160401b0360a08e01351115615bf857600080fd5b615c088e60a08f01358f016153c8565b81935080925050509295989b509295989b509295989b565b600060208284031215615c3257600080fd5b81356127248161538a565b60208082526003908201526245303160e81b604082015260600190565b634e487b7160e01b600052601160045260246000fd5b60008219821115615c8357615c83615c5a565b500190565b6000816000190483118215151615615ca257615ca2615c5a565b500290565b634e487b7160e01b600052603260045260246000fd5b6001600160a01b039384168152919092166020820152604081019190915260600190565b600060208284031215615cf357600080fd5b81516127248161538a565b600060208284031215615d1057600080fd5b815161272481615454565b6000600019821415615d2f57615d2f615c5a565b5060010190565b60208082526003908201526204536360ec1b604082015260600190565b6020808252818101527f4f776e61626c653a2063616c6c6572206973206e6f7420746865206f776e6572604082015260600190565b6001600160a01b03929092168252602082015260400190565b600082821015615db357615db3615c5a565b500390565b634e487b7160e01b600052601260045260246000fd5b600082615ddd57615ddd615db8565b500490565b600060ff821660ff84168060ff03821115615dff57615dff615c5a565b019392505050565b600060ff821660ff811415615e1e57615e1e615c5a565b60010192915050565b600063ffffffff808316818516808303821115615e4657615e46615c5a565b01949350505050565b634e487b7160e01b600052603160045260246000fd5b600082615e7457615e74615db8565b50069056fe40e6a337f1a78915df745fd02b2ca082e64e8a780a99b8fbb355f64409b399cca2646970667358221220248e349260f4ed31271a482055b62852b1b226b5f399956a06b267bbff21e1a464736f6c63430008090033",
    "linkReferences": {},
    "deployedLinkReferences": {}
}