{
    "_format": "hh-sol-artifact-1",
    "contractName": "MekaApesGame",
    "sourceName": "contracts/MekaApesGame.sol",
    "abi": [
        {
            "anonymous": false,
            "inputs": [
                {
                    "indexed": true,
                    "internalType": "uint256",
                    "name": "claimId",
                    "type": "uint256"
                },
                {
                    "indexed": true,
                    "internalType": "uint256",
                    "name": "tokenId",
                    "type": "uint256"
                },
                {
                    "indexed": false,
                    "internalType": "uint256",
                    "name": "amount",
                    "type": "uint256"
                }
            ],
            "name": "AttackReward",
            "type": "event"
        },
        {
            "anonymous": false,
            "inputs": [
                {
                    "indexed": true,
                    "internalType": "address",
                    "name": "account",
                    "type": "address"
                },
                {
                    "indexed": true,
                    "internalType": "uint256",
                    "name": "oogaId",
                    "type": "uint256"
                },
                {
                    "indexed": true,
                    "internalType": "uint256",
                    "name": "newTokenId",
                    "type": "uint256"
                }
            ],
            "name": "BabyOogaEvolve",
            "type": "event"
        },
        {
            "anonymous": false,
            "inputs": [
                {
                    "indexed": true,
                    "internalType": "uint256",
                    "name": "claimId",
                    "type": "uint256"
                },
                {
                    "indexed": true,
                    "internalType": "address",
                    "name": "account",
                    "type": "address"
                },
                {
                    "indexed": true,
                    "internalType": "uint256",
                    "name": "tokenId",
                    "type": "uint256"
                },
                {
                    "indexed": false,
                    "internalType": "uint256",
                    "name": "amount",
                    "type": "uint256"
                }
            ],
            "name": "ClaimReward",
            "type": "event"
        },
        {
            "anonymous": false,
            "inputs": [
                {
                    "indexed": true,
                    "internalType": "address",
                    "name": "account",
                    "type": "address"
                },
                {
                    "indexed": true,
                    "internalType": "uint256",
                    "name": "oogaId",
                    "type": "uint256"
                },
                {
                    "indexed": false,
                    "internalType": "uint256",
                    "name": "newLevel",
                    "type": "uint256"
                }
            ],
            "name": "LevelUpRoboOoga",
            "type": "event"
        },
        {
            "anonymous": false,
            "inputs": [
                {
                    "indexed": true,
                    "internalType": "uint256",
                    "name": "tokenId",
                    "type": "uint256"
                },
                {
                    "indexed": false,
                    "internalType": "uint256",
                    "name": "megaLevel",
                    "type": "uint256"
                }
            ],
            "name": "MegaMerged",
            "type": "event"
        },
        {
            "anonymous": false,
            "inputs": [
                {
                    "indexed": true,
                    "internalType": "uint256",
                    "name": "tokenId",
                    "type": "uint256"
                }
            ],
            "name": "MekaConvert",
            "type": "event"
        },
        {
            "anonymous": false,
            "inputs": [
                {
                    "indexed": true,
                    "internalType": "address",
                    "name": "account",
                    "type": "address"
                },
                {
                    "indexed": false,
                    "internalType": "uint256",
                    "name": "oogaIdSave",
                    "type": "uint256"
                },
                {
                    "indexed": true,
                    "internalType": "uint256",
                    "name": "oogaIdBurn",
                    "type": "uint256"
                }
            ],
            "name": "MergeMekaApes",
            "type": "event"
        },
        {
            "anonymous": false,
            "inputs": [
                {
                    "indexed": true,
                    "internalType": "address",
                    "name": "account",
                    "type": "address"
                },
                {
                    "indexed": false,
                    "internalType": "uint256",
                    "name": "startFromTokenId",
                    "type": "uint256"
                },
                {
                    "indexed": false,
                    "internalType": "uint256",
                    "name": "amount",
                    "type": "uint256"
                }
            ],
            "name": "MintMultipleRobo",
            "type": "event"
        },
        {
            "anonymous": false,
            "inputs": [
                {
                    "indexed": true,
                    "internalType": "uint256",
                    "name": "oogaId",
                    "type": "uint256"
                },
                {
                    "indexed": true,
                    "internalType": "address",
                    "name": "tributeAccount",
                    "type": "address"
                },
                {
                    "indexed": false,
                    "internalType": "uint256",
                    "name": "tributeOogaId",
                    "type": "uint256"
                }
            ],
            "name": "OogaAttacked",
            "type": "event"
        },
        {
            "anonymous": false,
            "inputs": [
                {
                    "indexed": true,
                    "internalType": "address",
                    "name": "previousOwner",
                    "type": "address"
                },
                {
                    "indexed": true,
                    "internalType": "address",
                    "name": "newOwner",
                    "type": "address"
                }
            ],
            "name": "OwnershipTransferred",
            "type": "event"
        },
        {
            "anonymous": false,
            "inputs": [
                {
                    "indexed": true,
                    "internalType": "uint256",
                    "name": "requestId",
                    "type": "uint256"
                },
                {
                    "indexed": false,
                    "internalType": "uint256",
                    "name": "entropy",
                    "type": "uint256"
                }
            ],
            "name": "ReceiveRandoms",
            "type": "event"
        },
        {
            "anonymous": false,
            "inputs": [
                {
                    "indexed": true,
                    "internalType": "uint256",
                    "name": "requestId",
                    "type": "uint256"
                },
                {
                    "indexed": false,
                    "internalType": "uint256",
                    "name": "requestSeed",
                    "type": "uint256"
                }
            ],
            "name": "RequestRandoms",
            "type": "event"
        },
        {
            "anonymous": false,
            "inputs": [
                {
                    "indexed": true,
                    "internalType": "uint256",
                    "name": "oogaId",
                    "type": "uint256"
                },
                {
                    "indexed": true,
                    "internalType": "address",
                    "name": "account",
                    "type": "address"
                }
            ],
            "name": "StakeOoga",
            "type": "event"
        },
        {
            "anonymous": false,
            "inputs": [
                {
                    "indexed": true,
                    "internalType": "uint256",
                    "name": "claimId",
                    "type": "uint256"
                },
                {
                    "indexed": false,
                    "internalType": "uint256",
                    "name": "totalTax",
                    "type": "uint256"
                }
            ],
            "name": "TaxReward",
            "type": "event"
        },
        {
            "anonymous": false,
            "inputs": [
                {
                    "indexed": true,
                    "internalType": "uint256",
                    "name": "oogaId",
                    "type": "uint256"
                },
                {
                    "indexed": true,
                    "internalType": "address",
                    "name": "account",
                    "type": "address"
                }
            ],
            "name": "UnstakeOoga",
            "type": "event"
        },
        {
            "inputs": [],
            "name": "ATTACK_CHANCE_DENOM",
            "outputs": [
                {
                    "internalType": "uint256",
                    "name": "",
                    "type": "uint256"
                }
            ],
            "stateMutability": "view",
            "type": "function"
        },
        {
            "inputs": [],
            "name": "CLAIM_TAX_DENOM",
            "outputs": [
                {
                    "internalType": "uint256",
                    "name": "",
                    "type": "uint256"
                }
            ],
            "stateMutability": "view",
            "type": "function"
        },
        {
            "inputs": [
                {
                    "internalType": "uint256",
                    "name": "ethAttackChance",
                    "type": "uint256"
                },
                {
                    "internalType": "uint256",
                    "name": "dmtAttackChance",
                    "type": "uint256"
                },
                {
                    "internalType": "uint256",
                    "name": "ogAttackChance",
                    "type": "uint256"
                }
            ],
            "name": "_changeAttackChances",
            "outputs": [],
            "stateMutability": "nonpayable",
            "type": "function"
        },
        {
            "inputs": [
                {
                    "internalType": "uint256",
                    "name": "currentOgPriceStep_",
                    "type": "uint256"
                }
            ],
            "name": "_changeCurrentOgStep",
            "outputs": [],
            "stateMutability": "nonpayable",
            "type": "function"
        },
        {
            "inputs": [
                {
                    "internalType": "bool",
                    "name": "gameActive_",
                    "type": "bool"
                }
            ],
            "name": "_changeGameActive",
            "outputs": [],
            "stateMutability": "nonpayable",
            "type": "function"
        },
        {
            "inputs": [
                {
                    "internalType": "uint256[]",
                    "name": "mintOGpriceSteps_",
                    "type": "uint256[]"
                }
            ],
            "name": "_changeMintOGPriceSteps",
            "outputs": [],
            "stateMutability": "nonpayable",
            "type": "function"
        },
        {
            "inputs": [
                {
                    "internalType": "bool",
                    "name": "mintSale_",
                    "type": "bool"
                }
            ],
            "name": "_changeMintSale",
            "outputs": [],
            "stateMutability": "nonpayable",
            "type": "function"
        },
        {
            "inputs": [
                {
                    "internalType": "uint256",
                    "name": "mintSaleAmount_",
                    "type": "uint256"
                }
            ],
            "name": "_changeMintSaleAmount",
            "outputs": [],
            "stateMutability": "nonpayable",
            "type": "function"
        },
        {
            "inputs": [
                {
                    "internalType": "uint256",
                    "name": "tokenId",
                    "type": "uint256"
                },
                {
                    "internalType": "uint8",
                    "name": "level",
                    "type": "uint8"
                }
            ],
            "name": "_changeOogaLevel",
            "outputs": [],
            "stateMutability": "nonpayable",
            "type": "function"
        },
        {
            "inputs": [
                {
                    "internalType": "bool",
                    "name": "publicMintStarted_",
                    "type": "bool"
                }
            ],
            "name": "_changePublicMintStarted",
            "outputs": [],
            "stateMutability": "nonpayable",
            "type": "function"
        },
        {
            "inputs": [
                {
                    "internalType": "address",
                    "name": "toAddress",
                    "type": "address"
                },
                {
                    "internalType": "uint256",
                    "name": "amount",
                    "type": "uint256"
                }
            ],
            "name": "_freeBurnOG",
            "outputs": [],
            "stateMutability": "nonpayable",
            "type": "function"
        },
        {
            "inputs": [
                {
                    "internalType": "address",
                    "name": "toAddress",
                    "type": "address"
                }
            ],
            "name": "_freeMintMeka",
            "outputs": [],
            "stateMutability": "nonpayable",
            "type": "function"
        },
        {
            "inputs": [
                {
                    "internalType": "address",
                    "name": "toAddress",
                    "type": "address"
                },
                {
                    "internalType": "uint256",
                    "name": "amount",
                    "type": "uint256"
                }
            ],
            "name": "_freeMintMultipleMeka",
            "outputs": [],
            "stateMutability": "nonpayable",
            "type": "function"
        },
        {
            "inputs": [
                {
                    "internalType": "address",
                    "name": "toAddress",
                    "type": "address"
                },
                {
                    "internalType": "uint256",
                    "name": "amount",
                    "type": "uint256"
                }
            ],
            "name": "_freeMintOG",
            "outputs": [],
            "stateMutability": "nonpayable",
            "type": "function"
        },
        {
            "inputs": [
                {
                    "internalType": "address",
                    "name": "toAddress",
                    "type": "address"
                },
                {
                    "internalType": "uint256",
                    "name": "amount",
                    "type": "uint256"
                }
            ],
            "name": "_freeMintRobo",
            "outputs": [],
            "stateMutability": "nonpayable",
            "type": "function"
        },
        {
            "inputs": [
                {
                    "components": [
                        {
                            "internalType": "uint256",
                            "name": "mintAllowance",
                            "type": "uint256"
                        },
                        {
                            "internalType": "uint8",
                            "name": "_v",
                            "type": "uint8"
                        },
                        {
                            "internalType": "bytes32",
                            "name": "_r",
                            "type": "bytes32"
                        },
                        {
                            "internalType": "bytes32",
                            "name": "_s",
                            "type": "bytes32"
                        }
                    ],
                    "internalType": "struct MintSignature",
                    "name": "sig",
                    "type": "tuple"
                },
                {
                    "internalType": "address",
                    "name": "acc",
                    "type": "address"
                }
            ],
            "name": "_verifyMintSig",
            "outputs": [
                {
                    "internalType": "bool",
                    "name": "",
                    "type": "bool"
                }
            ],
            "stateMutability": "view",
            "type": "function"
        },
        {
            "inputs": [
                {
                    "internalType": "address",
                    "name": "account",
                    "type": "address"
                },
                {
                    "internalType": "uint256",
                    "name": "mintAllowance",
                    "type": "uint256"
                }
            ],
            "name": "allowedToMint",
            "outputs": [
                {
                    "internalType": "uint256",
                    "name": "",
                    "type": "uint256"
                }
            ],
            "stateMutability": "view",
            "type": "function"
        },
        {
            "inputs": [
                {
                    "internalType": "bool",
                    "name": "gameActive_",
                    "type": "bool"
                }
            ],
            "name": "changeGameActive",
            "outputs": [],
            "stateMutability": "nonpayable",
            "type": "function"
        },
        {
            "inputs": [
                {
                    "internalType": "bool",
                    "name": "mintSale_",
                    "type": "bool"
                }
            ],
            "name": "changeMintSale",
            "outputs": [],
            "stateMutability": "nonpayable",
            "type": "function"
        },
        {
            "inputs": [
                {
                    "components": [
                        {
                            "internalType": "uint256",
                            "name": "mintPrice",
                            "type": "uint256"
                        },
                        {
                            "internalType": "uint256",
                            "name": "mintStakePrice",
                            "type": "uint256"
                        },
                        {
                            "internalType": "uint256[]",
                            "name": "mintOGprice",
                            "type": "uint256[]"
                        },
                        {
                            "internalType": "uint256[]",
                            "name": "mintOGstakePrice",
                            "type": "uint256[]"
                        },
                        {
                            "internalType": "uint256",
                            "name": "mintDMTstakePrice",
                            "type": "uint256"
                        },
                        {
                            "internalType": "uint256[]",
                            "name": "roboLevelupPrice",
                            "type": "uint256[]"
                        },
                        {
                            "internalType": "uint256",
                            "name": "mekaMergePrice",
                            "type": "uint256"
                        }
                    ],
                    "internalType": "struct Prices",
                    "name": "prices_",
                    "type": "tuple"
                }
            ],
            "name": "changePrices",
            "outputs": [],
            "stateMutability": "nonpayable",
            "type": "function"
        },
        {
            "inputs": [
                {
                    "internalType": "bool",
                    "name": "publicMintStarted_",
                    "type": "bool"
                }
            ],
            "name": "changePublicMintStarted",
            "outputs": [],
            "stateMutability": "nonpayable",
            "type": "function"
        },
        {
            "inputs": [
                {
                    "internalType": "uint256",
                    "name": "tokenId",
                    "type": "uint256"
                }
            ],
            "name": "claimAvailableAmount",
            "outputs": [
                {
                    "internalType": "uint256",
                    "name": "",
                    "type": "uint256"
                }
            ],
            "stateMutability": "view",
            "type": "function"
        },
        {
            "inputs": [
                {
                    "internalType": "uint256[]",
                    "name": "tokenIds",
                    "type": "uint256[]"
                }
            ],
            "name": "claimAvailableAmountMultipleTokens",
            "outputs": [
                {
                    "internalType": "uint256[]",
                    "name": "result",
                    "type": "uint256[]"
                }
            ],
            "stateMutability": "view",
            "type": "function"
        },
        {
            "inputs": [
                {
                    "internalType": "uint256",
                    "name": "",
                    "type": "uint256"
                }
            ],
            "name": "claimRequests",
            "outputs": [
                {
                    "internalType": "uint256",
                    "name": "totalMekaReward",
                    "type": "uint256"
                }
            ],
            "stateMutability": "view",
            "type": "function"
        },
        {
            "inputs": [
                {
                    "internalType": "uint256[]",
                    "name": "tokenIds",
                    "type": "uint256[]"
                }
            ],
            "name": "claimReward",
            "outputs": [],
            "stateMutability": "nonpayable",
            "type": "function"
        },
        {
            "inputs": [],
            "name": "claimTax",
            "outputs": [
                {
                    "internalType": "uint256",
                    "name": "",
                    "type": "uint256"
                }
            ],
            "stateMutability": "view",
            "type": "function"
        },
        {
            "inputs": [],
            "name": "currentOgPriceStep",
            "outputs": [
                {
                    "internalType": "uint256",
                    "name": "",
                    "type": "uint256"
                }
            ],
            "stateMutability": "view",
            "type": "function"
        },
        {
            "inputs": [],
            "name": "dmtMintAttackChance",
            "outputs": [
                {
                    "internalType": "uint256",
                    "name": "",
                    "type": "uint256"
                }
            ],
            "stateMutability": "view",
            "type": "function"
        },
        {
            "inputs": [],
            "name": "dmtToken",
            "outputs": [
                {
                    "internalType": "contract IDMT_ERC20",
                    "name": "",
                    "type": "address"
                }
            ],
            "stateMutability": "view",
            "type": "function"
        },
        {
            "inputs": [],
            "name": "erc721Contract",
            "outputs": [
                {
                    "internalType": "contract MekaApesERC721",
                    "name": "",
                    "type": "address"
                }
            ],
            "stateMutability": "view",
            "type": "function"
        },
        {
            "inputs": [],
            "name": "ethMintAttackChance",
            "outputs": [
                {
                    "internalType": "uint256",
                    "name": "",
                    "type": "uint256"
                }
            ],
            "stateMutability": "view",
            "type": "function"
        },
        {
            "inputs": [
                {
                    "internalType": "uint256[]",
                    "name": "tokenIds",
                    "type": "uint256[]"
                }
            ],
            "name": "evolveBabyOogas",
            "outputs": [],
            "stateMutability": "nonpayable",
            "type": "function"
        },
        {
            "inputs": [],
            "name": "gameActive",
            "outputs": [
                {
                    "internalType": "bool",
                    "name": "",
                    "type": "bool"
                }
            ],
            "stateMutability": "view",
            "type": "function"
        },
        {
            "inputs": [],
            "name": "getPrices",
            "outputs": [
                {
                    "components": [
                        {
                            "internalType": "uint256",
                            "name": "mintPrice",
                            "type": "uint256"
                        },
                        {
                            "internalType": "uint256",
                            "name": "mintStakePrice",
                            "type": "uint256"
                        },
                        {
                            "internalType": "uint256",
                            "name": "mintOGprice",
                            "type": "uint256"
                        },
                        {
                            "internalType": "uint256",
                            "name": "mintOGstakePrice",
                            "type": "uint256"
                        },
                        {
                            "internalType": "uint256",
                            "name": "mintDMTstakePrice",
                            "type": "uint256"
                        },
                        {
                            "internalType": "uint256[]",
                            "name": "roboLevelupPrice",
                            "type": "uint256[]"
                        },
                        {
                            "internalType": "uint256",
                            "name": "mekaMergePrice",
                            "type": "uint256"
                        }
                    ],
                    "internalType": "struct PricesGetter",
                    "name": "",
                    "type": "tuple"
                }
            ],
            "stateMutability": "view",
            "type": "function"
        },
        {
            "inputs": [
                {
                    "components": [
                        {
                            "internalType": "contract MekaApesERC721",
                            "name": "erc721Contract_",
                            "type": "address"
                        },
                        {
                            "internalType": "contract OogearERC20",
                            "name": "ogToken_",
                            "type": "address"
                        },
                        {
                            "internalType": "contract IDMT_ERC20",
                            "name": "dmtToken_",
                            "type": "address"
                        },
                        {
                            "internalType": "contract IERC721",
                            "name": "oogaVerse_",
                            "type": "address"
                        },
                        {
                            "internalType": "address",
                            "name": "mintSigWallet_",
                            "type": "address"
                        },
                        {
                            "internalType": "address",
                            "name": "randomProvider_",
                            "type": "address"
                        },
                        {
                            "components": [
                                {
                                    "internalType": "uint256",
                                    "name": "mintPrice",
                                    "type": "uint256"
                                },
                                {
                                    "internalType": "uint256",
                                    "name": "mintStakePrice",
                                    "type": "uint256"
                                },
                                {
                                    "internalType": "uint256[]",
                                    "name": "mintOGprice",
                                    "type": "uint256[]"
                                },
                                {
                                    "internalType": "uint256[]",
                                    "name": "mintOGstakePrice",
                                    "type": "uint256[]"
                                },
                                {
                                    "internalType": "uint256",
                                    "name": "mintDMTstakePrice",
                                    "type": "uint256"
                                },
                                {
                                    "internalType": "uint256[]",
                                    "name": "roboLevelupPrice",
                                    "type": "uint256[]"
                                },
                                {
                                    "internalType": "uint256",
                                    "name": "mekaMergePrice",
                                    "type": "uint256"
                                }
                            ],
                            "internalType": "struct Prices",
                            "name": "prices_",
                            "type": "tuple"
                        },
                        {
                            "components": [
                                {
                                    "internalType": "uint256",
                                    "name": "mintBase",
                                    "type": "uint256"
                                },
                                {
                                    "internalType": "uint256",
                                    "name": "mintPerToken",
                                    "type": "uint256"
                                },
                                {
                                    "internalType": "uint256",
                                    "name": "mintPerTokenStaked",
                                    "type": "uint256"
                                },
                                {
                                    "internalType": "uint256",
                                    "name": "unstakeBase",
                                    "type": "uint256"
                                },
                                {
                                    "internalType": "uint256",
                                    "name": "unstakePerToken",
                                    "type": "uint256"
                                },
                                {
                                    "internalType": "uint256",
                                    "name": "mergeBase",
                                    "type": "uint256"
                                }
                            ],
                            "internalType": "struct RandomsGas",
                            "name": "randomsGas_",
                            "type": "tuple"
                        },
                        {
                            "internalType": "uint256[]",
                            "name": "mintOGpriceSteps_",
                            "type": "uint256[]"
                        },
                        {
                            "internalType": "uint256[]",
                            "name": "roboOogaRewardPerSec_",
                            "type": "uint256[]"
                        },
                        {
                            "internalType": "uint256[]",
                            "name": "roboOogaMinimalRewardToUnstake_",
                            "type": "uint256[]"
                        },
                        {
                            "internalType": "uint256[]",
                            "name": "roboOogaRewardAttackProbabilities_",
                            "type": "uint256[]"
                        },
                        {
                            "internalType": "uint256[]",
                            "name": "megaLevelProbabilities_",
                            "type": "uint256[]"
                        },
                        {
                            "internalType": "uint256[]",
                            "name": "mekaLevelSharePoints_",
                            "type": "uint256[]"
                        },
                        {
                            "internalType": "uint256[]",
                            "name": "megaTributePoints_",
                            "type": "uint256[]"
                        },
                        {
                            "internalType": "uint256",
                            "name": "claimTax_",
                            "type": "uint256"
                        }
                    ],
                    "internalType": "struct InitParams",
                    "name": "initParams",
                    "type": "tuple"
                }
            ],
            "name": "initialize",
            "outputs": [],
            "stateMutability": "nonpayable",
            "type": "function"
        },
        {
            "inputs": [
                {
                    "internalType": "uint256",
                    "name": "oogaId",
                    "type": "uint256"
                }
            ],
            "name": "isBabyOogaEvolved",
            "outputs": [
                {
                    "internalType": "bool",
                    "name": "",
                    "type": "bool"
                }
            ],
            "stateMutability": "view",
            "type": "function"
        },
        {
            "inputs": [
                {
                    "internalType": "uint256",
                    "name": "tokenId",
                    "type": "uint256"
                }
            ],
            "name": "levelUpRoboOooga",
            "outputs": [],
            "stateMutability": "nonpayable",
            "type": "function"
        },
        {
            "inputs": [],
            "name": "maxMintWithDMT",
            "outputs": [
                {
                    "internalType": "uint256",
                    "name": "",
                    "type": "uint256"
                }
            ],
            "stateMutability": "view",
            "type": "function"
        },
        {
            "inputs": [],
            "name": "maxMintedRewardTokens",
            "outputs": [
                {
                    "internalType": "uint256",
                    "name": "",
                    "type": "uint256"
                }
            ],
            "stateMutability": "view",
            "type": "function"
        },
        {
            "inputs": [],
            "name": "maxOgSupply",
            "outputs": [
                {
                    "internalType": "uint256",
                    "name": "",
                    "type": "uint256"
                }
            ],
            "stateMutability": "view",
            "type": "function"
        },
        {
            "inputs": [],
            "name": "maxTokenSupply",
            "outputs": [
                {
                    "internalType": "uint256",
                    "name": "",
                    "type": "uint256"
                }
            ],
            "stateMutability": "view",
            "type": "function"
        },
        {
            "inputs": [
                {
                    "internalType": "uint256",
                    "name": "",
                    "type": "uint256"
                }
            ],
            "name": "megaLevelProbabilities",
            "outputs": [
                {
                    "internalType": "uint256",
                    "name": "",
                    "type": "uint256"
                }
            ],
            "stateMutability": "view",
            "type": "function"
        },
        {
            "inputs": [
                {
                    "internalType": "uint256",
                    "name": "",
                    "type": "uint256"
                },
                {
                    "internalType": "uint256",
                    "name": "",
                    "type": "uint256"
                }
            ],
            "name": "megaStaked",
            "outputs": [
                {
                    "internalType": "uint256",
                    "name": "",
                    "type": "uint256"
                }
            ],
            "stateMutability": "view",
            "type": "function"
        },
        {
            "inputs": [
                {
                    "internalType": "uint256",
                    "name": "",
                    "type": "uint256"
                }
            ],
            "name": "megaTributePoints",
            "outputs": [
                {
                    "internalType": "uint256",
                    "name": "",
                    "type": "uint256"
                }
            ],
            "stateMutability": "view",
            "type": "function"
        },
        {
            "inputs": [
                {
                    "internalType": "uint256",
                    "name": "",
                    "type": "uint256"
                }
            ],
            "name": "mekaLevelSharePoints",
            "outputs": [
                {
                    "internalType": "uint256",
                    "name": "",
                    "type": "uint256"
                }
            ],
            "stateMutability": "view",
            "type": "function"
        },
        {
            "inputs": [],
            "name": "mekaTotalPointsStaked",
            "outputs": [
                {
                    "internalType": "uint256",
                    "name": "",
                    "type": "uint256"
                }
            ],
            "stateMutability": "view",
            "type": "function"
        },
        {
            "inputs": [],
            "name": "mekaTotalRewardPerPoint",
            "outputs": [
                {
                    "internalType": "uint256",
                    "name": "",
                    "type": "uint256"
                }
            ],
            "stateMutability": "view",
            "type": "function"
        },
        {
            "inputs": [
                {
                    "internalType": "uint256",
                    "name": "tokenIdSave",
                    "type": "uint256"
                },
                {
                    "internalType": "uint256",
                    "name": "tokenIdBurn",
                    "type": "uint256"
                }
            ],
            "name": "mergeMekaApes",
            "outputs": [],
            "stateMutability": "payable",
            "type": "function"
        },
        {
            "inputs": [],
            "name": "mergeRandomGas",
            "outputs": [
                {
                    "internalType": "uint256",
                    "name": "",
                    "type": "uint256"
                }
            ],
            "stateMutability": "view",
            "type": "function"
        },
        {
            "inputs": [
                {
                    "internalType": "uint256",
                    "name": "",
                    "type": "uint256"
                }
            ],
            "name": "mergeRequests",
            "outputs": [
                {
                    "internalType": "uint256",
                    "name": "",
                    "type": "uint256"
                }
            ],
            "stateMutability": "view",
            "type": "function"
        },
        {
            "inputs": [
                {
                    "internalType": "uint256",
                    "name": "amount",
                    "type": "uint256"
                },
                {
                    "internalType": "bool",
                    "name": "toStake",
                    "type": "bool"
                },
                {
                    "components": [
                        {
                            "internalType": "uint256",
                            "name": "mintAllowance",
                            "type": "uint256"
                        },
                        {
                            "internalType": "uint8",
                            "name": "_v",
                            "type": "uint8"
                        },
                        {
                            "internalType": "bytes32",
                            "name": "_r",
                            "type": "bytes32"
                        },
                        {
                            "internalType": "bytes32",
                            "name": "_s",
                            "type": "bytes32"
                        }
                    ],
                    "internalType": "struct MintSignature",
                    "name": "sig",
                    "type": "tuple"
                }
            ],
            "name": "mint",
            "outputs": [],
            "stateMutability": "payable",
            "type": "function"
        },
        {
            "inputs": [
                {
                    "internalType": "uint256",
                    "name": "",
                    "type": "uint256"
                }
            ],
            "name": "mintOGpriceSteps",
            "outputs": [
                {
                    "internalType": "uint256",
                    "name": "",
                    "type": "uint256"
                }
            ],
            "stateMutability": "view",
            "type": "function"
        },
        {
            "inputs": [
                {
                    "internalType": "uint256",
                    "name": "amount",
                    "type": "uint256"
                },
                {
                    "internalType": "bool",
                    "name": "staking",
                    "type": "bool"
                }
            ],
            "name": "mintRandomGas",
            "outputs": [
                {
                    "internalType": "uint256",
                    "name": "",
                    "type": "uint256"
                }
            ],
            "stateMutability": "view",
            "type": "function"
        },
        {
            "inputs": [
                {
                    "internalType": "uint256",
                    "name": "",
                    "type": "uint256"
                }
            ],
            "name": "mintRequests",
            "outputs": [
                {
                    "internalType": "uint32",
                    "name": "startFromId",
                    "type": "uint32"
                },
                {
                    "internalType": "uint8",
                    "name": "amount",
                    "type": "uint8"
                },
                {
                    "internalType": "uint8",
                    "name": "attackChance",
                    "type": "uint8"
                },
                {
                    "internalType": "bool",
                    "name": "toStake",
                    "type": "bool"
                }
            ],
            "stateMutability": "view",
            "type": "function"
        },
        {
            "inputs": [
                {
                    "internalType": "address",
                    "name": "toAddress",
                    "type": "address"
                },
                {
                    "internalType": "uint256",
                    "name": "amount",
                    "type": "uint256"
                }
            ],
            "name": "mintRewardTokens",
            "outputs": [],
            "stateMutability": "payable",
            "type": "function"
        },
        {
            "inputs": [],
            "name": "mintSale",
            "outputs": [
                {
                    "internalType": "bool",
                    "name": "",
                    "type": "bool"
                }
            ],
            "stateMutability": "view",
            "type": "function"
        },
        {
            "inputs": [],
            "name": "mintSaleAmount",
            "outputs": [
                {
                    "internalType": "uint256",
                    "name": "",
                    "type": "uint256"
                }
            ],
            "stateMutability": "view",
            "type": "function"
        },
        {
            "inputs": [],
            "name": "mintSigWallet",
            "outputs": [
                {
                    "internalType": "address",
                    "name": "",
                    "type": "address"
                }
            ],
            "stateMutability": "view",
            "type": "function"
        },
        {
            "inputs": [
                {
                    "internalType": "uint256",
                    "name": "amount",
                    "type": "uint256"
                }
            ],
            "name": "mintWithDMT",
            "outputs": [],
            "stateMutability": "payable",
            "type": "function"
        },
        {
            "inputs": [
                {
                    "internalType": "uint256",
                    "name": "amount",
                    "type": "uint256"
                },
                {
                    "internalType": "bool",
                    "name": "toStake",
                    "type": "bool"
                }
            ],
            "name": "mintWithOG",
            "outputs": [],
            "stateMutability": "payable",
            "type": "function"
        },
        {
            "inputs": [],
            "name": "nextClaimWithoutRandomId",
            "outputs": [
                {
                    "internalType": "uint256",
                    "name": "",
                    "type": "uint256"
                }
            ],
            "stateMutability": "view",
            "type": "function"
        },
        {
            "inputs": [],
            "name": "nextRandomRequestId",
            "outputs": [
                {
                    "internalType": "uint256",
                    "name": "",
                    "type": "uint256"
                }
            ],
            "stateMutability": "view",
            "type": "function"
        },
        {
            "inputs": [],
            "name": "nextTokenId",
            "outputs": [
                {
                    "internalType": "uint256",
                    "name": "",
                    "type": "uint256"
                }
            ],
            "stateMutability": "view",
            "type": "function"
        },
        {
            "inputs": [
                {
                    "internalType": "address",
                    "name": "",
                    "type": "address"
                }
            ],
            "name": "numberOfMintedOogas",
            "outputs": [
                {
                    "internalType": "uint256",
                    "name": "",
                    "type": "uint256"
                }
            ],
            "stateMutability": "view",
            "type": "function"
        },
        {
            "inputs": [],
            "name": "ogMintAttackChance",
            "outputs": [
                {
                    "internalType": "uint256",
                    "name": "",
                    "type": "uint256"
                }
            ],
            "stateMutability": "view",
            "type": "function"
        },
        {
            "inputs": [],
            "name": "ogMinted",
            "outputs": [
                {
                    "internalType": "uint256",
                    "name": "",
                    "type": "uint256"
                }
            ],
            "stateMutability": "view",
            "type": "function"
        },
        {
            "inputs": [],
            "name": "ogToken",
            "outputs": [
                {
                    "internalType": "contract OogearERC20",
                    "name": "",
                    "type": "address"
                }
            ],
            "stateMutability": "view",
            "type": "function"
        },
        {
            "inputs": [
                {
                    "internalType": "uint256",
                    "name": "",
                    "type": "uint256"
                }
            ],
            "name": "oogaAttributes",
            "outputs": [
                {
                    "internalType": "enum OogaType",
                    "name": "oogaType",
                    "type": "uint8"
                },
                {
                    "internalType": "uint8",
                    "name": "level",
                    "type": "uint8"
                },
                {
                    "internalType": "bool",
                    "name": "staked",
                    "type": "bool"
                },
                {
                    "internalType": "address",
                    "name": "stakedOwner",
                    "type": "address"
                },
                {
                    "internalType": "uint256",
                    "name": "lastClaimTimestamp",
                    "type": "uint256"
                },
                {
                    "internalType": "uint256",
                    "name": "savedReward",
                    "type": "uint256"
                },
                {
                    "internalType": "uint256",
                    "name": "lastRewardPerPoint",
                    "type": "uint256"
                },
                {
                    "internalType": "uint256",
                    "name": "stakedMegaIndex",
                    "type": "uint256"
                }
            ],
            "stateMutability": "view",
            "type": "function"
        },
        {
            "inputs": [
                {
                    "internalType": "uint256",
                    "name": "",
                    "type": "uint256"
                }
            ],
            "name": "oogaEvolved",
            "outputs": [
                {
                    "internalType": "bool",
                    "name": "",
                    "type": "bool"
                }
            ],
            "stateMutability": "view",
            "type": "function"
        },
        {
            "inputs": [],
            "name": "oogaVerse",
            "outputs": [
                {
                    "internalType": "contract IERC721",
                    "name": "",
                    "type": "address"
                }
            ],
            "stateMutability": "view",
            "type": "function"
        },
        {
            "inputs": [],
            "name": "owner",
            "outputs": [
                {
                    "internalType": "address",
                    "name": "",
                    "type": "address"
                }
            ],
            "stateMutability": "view",
            "type": "function"
        },
        {
            "inputs": [],
            "name": "prices",
            "outputs": [
                {
                    "internalType": "uint256",
                    "name": "mintPrice",
                    "type": "uint256"
                },
                {
                    "internalType": "uint256",
                    "name": "mintStakePrice",
                    "type": "uint256"
                },
                {
                    "internalType": "uint256",
                    "name": "mintDMTstakePrice",
                    "type": "uint256"
                },
                {
                    "internalType": "uint256",
                    "name": "mekaMergePrice",
                    "type": "uint256"
                }
            ],
            "stateMutability": "view",
            "type": "function"
        },
        {
            "inputs": [],
            "name": "randomMekaProbability",
            "outputs": [
                {
                    "internalType": "uint256",
                    "name": "",
                    "type": "uint256"
                }
            ],
            "stateMutability": "view",
            "type": "function"
        },
        {
            "inputs": [],
            "name": "randomProvider",
            "outputs": [
                {
                    "internalType": "address",
                    "name": "",
                    "type": "address"
                }
            ],
            "stateMutability": "view",
            "type": "function"
        },
        {
            "inputs": [
                {
                    "internalType": "uint256",
                    "name": "",
                    "type": "uint256"
                }
            ],
            "name": "randomRequests",
            "outputs": [
                {
                    "internalType": "enum RandomRequestType",
                    "name": "requestType",
                    "type": "uint8"
                },
                {
                    "internalType": "address",
                    "name": "user",
                    "type": "address"
                },
                {
                    "internalType": "bool",
                    "name": "active",
                    "type": "bool"
                }
            ],
            "stateMutability": "view",
            "type": "function"
        },
        {
            "inputs": [],
            "name": "randomsGas",
            "outputs": [
                {
                    "internalType": "uint256",
                    "name": "mintBase",
                    "type": "uint256"
                },
                {
                    "internalType": "uint256",
                    "name": "mintPerToken",
                    "type": "uint256"
                },
                {
                    "internalType": "uint256",
                    "name": "mintPerTokenStaked",
                    "type": "uint256"
                },
                {
                    "internalType": "uint256",
                    "name": "unstakeBase",
                    "type": "uint256"
                },
                {
                    "internalType": "uint256",
                    "name": "unstakePerToken",
                    "type": "uint256"
                },
                {
                    "internalType": "uint256",
                    "name": "mergeBase",
                    "type": "uint256"
                }
            ],
            "stateMutability": "view",
            "type": "function"
        },
        {
            "inputs": [
                {
                    "internalType": "uint256",
                    "name": "requestId",
                    "type": "uint256"
                },
                {
                    "internalType": "uint256",
                    "name": "entropy",
                    "type": "uint256"
                }
            ],
            "name": "receiveRandoms",
            "outputs": [],
            "stateMutability": "nonpayable",
            "type": "function"
        },
        {
            "inputs": [],
            "name": "renounceOwnership",
            "outputs": [],
            "stateMutability": "nonpayable",
            "type": "function"
        },
        {
            "inputs": [
                {
                    "internalType": "uint256",
                    "name": "",
                    "type": "uint256"
                }
            ],
            "name": "roboOogaMinimalRewardToUnstake",
            "outputs": [
                {
                    "internalType": "uint256",
                    "name": "",
                    "type": "uint256"
                }
            ],
            "stateMutability": "view",
            "type": "function"
        },
        {
            "inputs": [
                {
                    "internalType": "uint256",
                    "name": "",
                    "type": "uint256"
                }
            ],
            "name": "roboOogaRewardAttackProbabilities",
            "outputs": [
                {
                    "internalType": "uint256",
                    "name": "",
                    "type": "uint256"
                }
            ],
            "stateMutability": "view",
            "type": "function"
        },
        {
            "inputs": [
                {
                    "internalType": "uint256",
                    "name": "",
                    "type": "uint256"
                }
            ],
            "name": "roboOogaRewardPerSec",
            "outputs": [
                {
                    "internalType": "uint256",
                    "name": "",
                    "type": "uint256"
                }
            ],
            "stateMutability": "view",
            "type": "function"
        },
        {
            "inputs": [
                {
                    "internalType": "uint256[]",
                    "name": "tokenIds",
                    "type": "uint256[]"
                }
            ],
            "name": "stake",
            "outputs": [],
            "stateMutability": "nonpayable",
            "type": "function"
        },
        {
            "inputs": [],
            "name": "tokensMintedWithDMT",
            "outputs": [
                {
                    "internalType": "uint256",
                    "name": "",
                    "type": "uint256"
                }
            ],
            "stateMutability": "view",
            "type": "function"
        },
        {
            "inputs": [],
            "name": "totalMintedRewardTokens",
            "outputs": [
                {
                    "internalType": "uint256",
                    "name": "",
                    "type": "uint256"
                }
            ],
            "stateMutability": "view",
            "type": "function"
        },
        {
            "inputs": [],
            "name": "totalMintedTokens",
            "outputs": [
                {
                    "internalType": "uint256",
                    "name": "",
                    "type": "uint256"
                }
            ],
            "stateMutability": "view",
            "type": "function"
        },
        {
            "inputs": [],
            "name": "totalRandomTxFee",
            "outputs": [
                {
                    "internalType": "uint256",
                    "name": "",
                    "type": "uint256"
                }
            ],
            "stateMutability": "view",
            "type": "function"
        },
        {
            "inputs": [],
            "name": "totalRandomTxFeeWithdrawn",
            "outputs": [
                {
                    "internalType": "uint256",
                    "name": "",
                    "type": "uint256"
                }
            ],
            "stateMutability": "view",
            "type": "function"
        },
        {
            "inputs": [
                {
                    "internalType": "address",
                    "name": "newOwner",
                    "type": "address"
                }
            ],
            "name": "transferOwnership",
            "outputs": [],
            "stateMutability": "nonpayable",
            "type": "function"
        },
        {
            "inputs": [
                {
                    "internalType": "uint256[]",
                    "name": "tokenIds",
                    "type": "uint256[]"
                }
            ],
            "name": "unstake",
            "outputs": [],
            "stateMutability": "payable",
            "type": "function"
        },
        {
            "inputs": [
                {
                    "internalType": "uint256",
                    "name": "roboAmount",
                    "type": "uint256"
                }
            ],
            "name": "unstakeRandomGas",
            "outputs": [
                {
                    "internalType": "uint256",
                    "name": "",
                    "type": "uint256"
                }
            ],
            "stateMutability": "view",
            "type": "function"
        },
        {
            "inputs": [
                {
                    "internalType": "uint256",
                    "name": "amount",
                    "type": "uint256"
                }
            ],
            "name": "withdrawRandomTxFee",
            "outputs": [],
            "stateMutability": "nonpayable",
            "type": "function"
        }
    ],
    "bytecode": "0x608060405234801561001057600080fd5b506158c380620000216000396000f3fe60806040526004361061059c5760003560e01c80638da5cb5b116102ec578063d385014d1161018a578063e6f0ba61116100ec578063f020044f11610095578063f38972ed1161006f578063f38972ed146111a0578063febeb132146111c0578063ff75eece146111d657600080fd5b8063f020044f1461114b578063f22395c81461116a578063f2fde38b1461118057600080fd5b8063ecb24fb5116100c6578063ecb24fb5146110f8578063ed3940791461110b578063eee21c2d1461112b57600080fd5b8063e6f0ba61146110a8578063e9a16bdb146110c8578063ec01952b146110e257600080fd5b8063db3820641161014e578063e2fa880611610128578063e2fa88061461105f578063e449f3411461107f578063e6b4d60b1461109257600080fd5b8063db38206414610fe8578063dd2c09481461101d578063dd2f6d4b1461103257600080fd5b8063d385014d14610f2b578063d6ebe4fe14610f58578063d7c97fb414610f6e578063d835de0614610f8e578063d96ef75914610fa457600080fd5b8063b5e623011161024e578063c37a5761116101f7578063ca067ad0116101d1578063ca067ad014610e6e578063cabf161414610ec8578063d3419bf314610ee857600080fd5b8063c37a576114610e08578063c54b735814610e38578063c94c7ff414610e4e57600080fd5b8063bd9a548b11610228578063bd9a548b14610db0578063c06fda8e14610dd2578063c24b719714610de857600080fd5b8063b5e6230114610d50578063b69b2a6514610d70578063bad7314814610d9057600080fd5b806397881c2f116102b0578063a4acf0511161028a578063a4acf05114610ccf578063a4e9f29714610ce2578063b56c610514610d3a57600080fd5b806397881c2f14610c6c57806398654df414610c995780639e15827614610cb957600080fd5b80638da5cb5b14610bd95780638e32e31614610bf75780638f46500e14610c0c578063909e376d14610c2c57806393b2662a14610c4c57600080fd5b806350e3ec881161045957806370a96f33116103bb5780637e5ae4b71161036457806386e7f0301161033e57806386e7f03014610b705780638caee82314610b905780638d6a6d8714610bb057600080fd5b80637e5ae4b714610b14578063833c7fc014610b44578063834e91cf14610b5a57600080fd5b806375794a3c1161039557806375794a3c14610ac85780637bf1b56214610ade5780637d5ee8e614610afe57600080fd5b806370a96f3314610a65578063715018a614610a93578063729a90c814610aa857600080fd5b8063662162d51161041d5780636c4a8c17116103f75780636c4a8c1714610a055780636eee2dad14610a325780636fddcb4614610a4557600080fd5b8063662162d51461093e5780636853709a146109545780636bff95061461098257600080fd5b806350e3ec88146108af57806350f7c204146108df5780635123455f146108f557806355e318b4146109085780635e71cc7c1461092857600080fd5b80631b9401cd116105025780633bf27cf1116104c657806346dd8473116104a057806346dd84731461084f578063489da8ff1461086f5780634fc7c9721461088f57600080fd5b80633bf27cf114610777578063424e6575146107af578063448883d71461083957600080fd5b80631b9401cd146106eb578063213edf361461070b578063257822101461072b57806338e692af146107415780633a6a6ca31461075757600080fd5b80630ee9a59b1161056457806312f30bde1161053e57806312f30bde1461068b57806319de5221146106ab5780631a480371146106cb57600080fd5b80630ee9a59b146106355780630fbf0a9314610655578063113bf8871461067557600080fd5b806301719327146105a15780630181de42146105ca57806308a1c391146105e05780630a1b494d146106005780630c17479314610615575b600080fd5b3480156105ad57600080fd5b506105b760855481565b6040519081526020015b60405180910390f35b3480156105d657600080fd5b506105b7608b5481565b3480156105ec57600080fd5b506105b76105fb366004614e03565b6111f6565b61061361060e366004614e2a565b611217565b005b34801561062157600080fd5b50610613610630366004614e5a565b611424565b34801561064157600080fd5b506105b7610650366004614e03565b61146c565b34801561066157600080fd5b50610613610670366004614e77565b61147c565b34801561068157600080fd5b506105b7607e5481565b34801561069757600080fd5b506106136106a6366004614e5a565b6115d0565b3480156106b757600080fd5b506105b76106c6366004614eec565b611618565b3480156106d757600080fd5b506106136106e6366004614f23565b61164c565b3480156106f757600080fd5b50610613610706366004614eec565b6116b7565b34801561071757600080fd5b50610613610726366004614e03565b611822565b34801561073757600080fd5b506105b760815481565b34801561074d57600080fd5b506105b7608a5481565b34801561076357600080fd5b506105b7610772366004614e03565b611b0e565b34801561078357600080fd5b50606754610797906001600160a01b031681565b6040516001600160a01b0390911681526020016105c1565b3480156107bb57600080fd5b506108096107ca366004614e03565b60a06020526000908152604090205463ffffffff81169060ff640100000000820481169165010000000000810482169166010000000000009091041684565b6040805163ffffffff95909516855260ff93841660208601529190921690830152151560608201526080016105c1565b34801561084557600080fd5b506105b7607d5481565b34801561085b57600080fd5b5061061361086a366004615029565b611b1e565b34801561087b57600080fd5b506105b761088a366004614e03565b611be2565b34801561089b57600080fd5b506106136108aa366004614e03565b611bf2565b3480156108bb57600080fd5b506108cf6108ca36600461518a565b611ccc565b60405190151581526020016105c1565b3480156108eb57600080fd5b506105b760995481565b6106136109033660046151b7565b611de2565b34801561091457600080fd5b506106136109233660046151f6565b611fcf565b34801561093457600080fd5b506105b760955481565b34801561094a57600080fd5b506105b7609b5481565b34801561096057600080fd5b5061061361096f366004614e5a565b6093805460ff1916911515919091179055565b34801561098e57600080fd5b506109f161099d366004614e03565b6090602052600090815260409020805460018201546002830154600384015460049094015460ff8085169561010086048216956201000081049092169463010000009092046001600160a01b031693919288565b6040516105c1989796959493929190615249565b348015610a1157600080fd5b506105b7610a20366004614e03565b60a26020526000908152604090205481565b610613610a40366004614f23565b611fe2565b348015610a5157600080fd5b50610613610a603660046152a0565b6120e3565b348015610a7157600080fd5b50610613610a80366004614e5a565b6096805460ff1916911515919091179055565b348015610a9f57600080fd5b506106136120ec565b348015610ab457600080fd5b506105b7610ac3366004614e03565b612140565b348015610ad457600080fd5b506105b7607f5481565b348015610aea57600080fd5b506105b7610af9366004614e03565b612150565b348015610b0a57600080fd5b506105b760985481565b348015610b2057600080fd5b506108cf610b2f366004614e03565b60009081526091602052604090205460ff1690565b348015610b5057600080fd5b506105b7609c5481565b348015610b6657600080fd5b506105b760975481565b348015610b7c57600080fd5b50610613610b8b366004614e03565b609555565b348015610b9c57600080fd5b50610613610bab366004614e03565b607955565b348015610bbc57600080fd5b50610613610bcb3660046152bd565b608292909255608355608455565b348015610be557600080fd5b506033546001600160a01b0316610797565b348015610c0357600080fd5b506105b7612160565b348015610c1857600080fd5b50606a54610797906001600160a01b031681565b348015610c3857600080fd5b50606854610797906001600160a01b031681565b348015610c5857600080fd5b506105b7610c67366004614e03565b612176565b348015610c7857600080fd5b50610c8c610c87366004614e77565b612199565b6040516105c191906152e9565b348015610ca557600080fd5b50610613610cb4366004614f23565b612242565b348015610cc557600080fd5b506105b760865481565b610613610cdd366004614e03565b612269565b348015610cee57600080fd5b50607254607354607454607554607654607754610d0d95949392919086565b604080519687526020870195909552938501929092526060840152608083015260a082015260c0016105c1565b348015610d4657600080fd5b506105b760835481565b348015610d5c57600080fd5b506105b7610d6b366004614e03565b61245d565b348015610d7c57600080fd5b50606654610797906001600160a01b031681565b348015610d9c57600080fd5b50610613610dab36600461532d565b6125c8565b348015610dbc57600080fd5b50610dc5612951565b6040516105c19190615369565b348015610dde57600080fd5b506105b760845481565b348015610df457600080fd5b506105b7610e03366004614e2a565b612a65565b348015610e1457600080fd5b506108cf610e23366004614e03565b60916020526000908152604090205460ff1681565b348015610e4457600080fd5b506105b760a35481565b348015610e5a57600080fd5b50610613610e69366004614e77565b612aaf565b348015610e7a57600080fd5b50610eb9610e89366004614e03565b609f6020526000908152604090205460ff808216916001600160a01b0361010082041691600160a81b9091041683565b6040516105c1939291906153fd565b348015610ed457600080fd5b506105b7610ee3366004614f23565b612af8565b348015610ef457600080fd5b50606b54606c54606f54607154610f0b9392919084565b6040805194855260208501939093529183015260608201526080016105c1565b348015610f3757600080fd5b506105b7610f46366004614e03565b60a16020526000908152604090205481565b348015610f6457600080fd5b506105b7609a5481565b348015610f7a57600080fd5b50606554610797906001600160a01b031681565b348015610f9a57600080fd5b506105b760795481565b348015610fb057600080fd5b50610613610fbf366004615430565b600091825260906020526040909120805460ff9092166101000261ff0019909216919091179055565b348015610ff457600080fd5b50610613611003366004614e5a565b609680549115156101000261ff0019909216919091179055565b34801561102957600080fd5b506077546105b7565b34801561103e57600080fd5b506105b761104d3660046152a0565b60946020526000908152604090205481565b34801561106b57600080fd5b5061061361107a366004614f23565b612b3a565b61061361108d366004614e77565b612b44565b34801561109e57600080fd5b506105b760825481565b3480156110b457600080fd5b50606954610797906001600160a01b031681565b3480156110d457600080fd5b506096546108cf9060ff1681565b3480156110ee57600080fd5b506105b7609e5481565b610613611106366004614eec565b612bf6565b34801561111757600080fd5b50610613611126366004614e77565b61315d565b34801561113757600080fd5b50610613611146366004614e5a565b6131e7565b34801561115757600080fd5b506096546108cf90610100900460ff1681565b34801561117657600080fd5b506105b7609d5481565b34801561118c57600080fd5b5061061361119b3660046152a0565b61322f565b3480156111ac57600080fd5b506106136111bb366004614f23565b6132e8565b3480156111cc57600080fd5b506105b760805481565b3480156111e257600080fd5b506105b76111f1366004614e03565b613321565b607c818154811061120657600080fd5b600091825260209091200154905081565b60965460ff161580156112315750609654610100900460ff165b6112685760405162461bcd60e51b815260206004820152600360248201526245303160e81b60448201526064015b60405180910390fd5b60995482611274612160565b61127e9190615472565b11156112b25760405162461bcd60e51b815260206004820152600360248201526245333160e81b604482015260640161125f565b486112bd8383612a65565b6112c7919061548a565b3410156112fc5760405162461bcd60e51b815260206004820152600360248201526245333360e81b604482015260640161125f565b34609c600082825461130e9190615472565b9091555060009050811561134657606b60030160795481548110611334576113346154a9565b9060005260206000200154905061136c565b606b6002016079548154811061135e5761135e6154a9565b906000526020600020015490505b6066546001600160a01b03166323b872dd3330611389878661548a565b6040516001600160e01b031960e086901b1681526001600160a01b0393841660048201529290911660248301526044820152606401602060405180830381600087803b1580156113d857600080fd5b505af11580156113ec573d6000803e3d6000fd5b505050506040513d601f19601f8201168201806040525081019061141091906154bf565b5061141f338484608454613331565b505050565b6033546001600160a01b03163314610a805760405162461bcd60e51b8152602060048201819052602482015260008051602061586e833981519152604482015260640161125f565b6087818154811061120657600080fd5b609654610100900460ff166114b95760405162461bcd60e51b815260206004820152600360248201526245303160e81b604482015260640161125f565b60005b8181101561141f5760655433906001600160a01b0316636352211e8585858181106114e9576114e96154a9565b905060200201356040518263ffffffff1660e01b815260040161150e91815260200190565b60206040518083038186803b15801561152657600080fd5b505afa15801561153a573d6000803e3d6000fd5b505050506040513d601f19601f8201168201806040525081019061155e91906154dc565b6001600160a01b03161461159a5760405162461bcd60e51b815260206004820152600360248201526245343160e81b604482015260640161125f565b6115be8383838181106115af576115af6154a9565b905060200201353360006134ae565b806115c8816154f9565b9150506114bc565b6033546001600160a01b0316331461096f5760405162461bcd60e51b8152602060048201819052602482015260008051602061586e833981519152604482015260640161125f565b608c826004811061162857600080fd5b01818154811061163757600080fd5b90600052602060002001600091509150505481565b6066546040516340c10f1960e01b81526001600160a01b03848116600483015260248201849052909116906340c10f19906044015b600060405180830381600087803b15801561169b57600080fd5b505af11580156116af573d6000803e3d6000fd5b505050505050565b606a546001600160a01b031633146116f75760405162461bcd60e51b815260206004820152600360248201526204536360ec1b604482015260640161125f565b817fa1400508f229eaea44d95e98b6da371661f6e873726585abd7efdbdc607169768260405161172991815260200190565b60405180910390a26000828152609f602052604090208054600160a81b900460ff1661177d5760405162461bcd60e51b815260206004820152600360248201526245363160e81b604482015260640161125f565b805460ff60a81b191681556000815460ff1660028111156117a0576117a0615233565b14156117c157805461141f9061010090046001600160a01b03168484613673565b6002815460ff1660028111156117d9576117d9615233565b14156117e95761141f838361381f565b6001815460ff16600281111561180157611801615233565b141561141f57805461141f9061010090046001600160a01b03168484613985565b60965460ff1615801561183c5750609654610100900460ff165b61186e5760405162461bcd60e51b815260206004820152600360248201526245303160e81b604482015260640161125f565b6000818152609060205260409081902060655491516331a9108f60e11b815260048101849052909133916001600160a01b0390911690636352211e9060240160206040518083038186803b1580156118c557600080fd5b505afa1580156118d9573d6000803e3d6000fd5b505050506040513d601f19601f820116820180604052508101906118fd91906154dc565b6001600160a01b0316148061192257508054630100000090046001600160a01b031633145b6119545760405162461bcd60e51b8152602060048201526003602482015262229b9960e91b604482015260640161125f565b6000815460ff16600181111561196c5761196c615233565b14801561198357508054600461010090910460ff16105b6119b55760405162461bcd60e51b815260206004820152600360248201526245373160e81b604482015260640161125f565b805462010000900460ff16156119ed576119ce8261245d565b8160020160008282546119e19190615472565b90915550504260018201555b6067548154607080546001600160a01b03909316926323b872dd92339230929091610100900460ff16908110611a2557611a256154a9565b6000918252602090912001546040516001600160e01b031960e086901b1681526001600160a01b0393841660048201529290911660248301526044820152606401600060405180830381600087803b158015611a8057600080fd5b505af1158015611a94573d6000803e3d6000fd5b50508254610100900460ff1691508290506001611ab083615514565b825460ff91821661010093840a90810290830219909116179092558354604051919004909116815283915033907f2ef0b9f6641bfe4ae9f94f2b9b20ece8b29e13b163e6425c14ff8f520e79412e9060200160405180910390a35050565b6078818154811061120657600080fd5b6033546001600160a01b03163314611b665760405162461bcd60e51b8152602060048201819052602482015260008051602061586e833981519152604482015260640161125f565b8051606b908155602080830151606c5560408301518051849392611b8f92606d92910190614d68565b5060608201518051611bab916003840191602090910190614d68565b506080820151600482015560a08201518051611bd1916005840191602090910190614d68565b5060c0820151816006015590505050565b607b818154811061120657600080fd5b606a546001600160a01b03163314611c325760405162461bcd60e51b815260206004820152600360248201526245393960e81b604482015260640161125f565b80609d54609c54611c439190615534565b1115611c775760405162461bcd60e51b815260206004820152600360248201526208a72760eb1b604482015260640161125f565b80609d6000828254611c899190615472565b9091555050606a546040516001600160a01b039091169082156108fc029083906000818181858888f19350505050158015611cc8573d6000803e3d6000fd5b5050565b8151604080516001600160a01b0384166020808301919091528183019390935281518082038301815260608201909252815191909201207f19457468657265756d205369676e6564204d6573736167653a0a3332000000006080830152609c8201819052600091829060bc01604051602081830303815290604052805190602001209050600060018287602001518860400151896060015160405160008152602001604052604051611d9a949392919093845260ff9290921660208401526040830152606082015260800190565b6020604051602081039080840390855afa158015611dbc573d6000803e3d6000fd5b5050604051601f1901516069546001600160a01b03908116911614979650505050505050565b60965460ff16611e1a5760405162461bcd60e51b815260206004820152600360248201526204530360ec1b604482015260640161125f565b60955483611e26612160565b611e309190615472565b1115611e5857611e3e612160565b609554611e4b9190615534565b6096805460ff1916905592505b805115611e9b57611e698133611ccc565b611e9b5760405162461bcd60e51b815260206004820152600360248201526204532360ec1b604482015260640161125f565b60935460009060ff16611eaf576000611eb3565b6092545b8251611ebf9190615472565b336000908152609460205260409020549091508190611edf908690615472565b1115611f135760405162461bcd60e51b815260206004820152600360248201526245323160e81b604482015260640161125f565b3360009081526094602052604081208054869290611f32908490615472565b90915550600090508315611f495750606c54611f4e565b50606b545b611f58818661548a565b341015611f8d5760405162461bcd60e51b815260206004820152600360248201526222991960e91b604482015260640161125f565b48611f988686612a65565b611fa2919061548a565b609c6000828254611fb39190615472565b92505081905550611fc8338686608254613331565b5050505050565b8051611cc8906078906020840190614d68565b6033546001600160a01b0316331461202a5760405162461bcd60e51b8152602060048201819052602482015260008051602061586e833981519152604482015260640161125f565b609b54609a5461203a9083615472565b111561206e5760405162461bcd60e51b815260206004820152600360248201526245393760e81b604482015260640161125f565b60004861207c836000612a65565b612086919061548a565b9050803410156120be5760405162461bcd60e51b8152602060048201526003602482015262229c9b60e91b604482015260640161125f565b80609c60008282546120d09190615472565b9091555061141f90508383600080613331565b611cc881613c1e565b6033546001600160a01b031633146121345760405162461bcd60e51b8152602060048201819052602482015260008051602061586e833981519152604482015260640161125f565b61213e6000613cfa565b565b6088818154811061120657600080fd5b6089818154811061120657600080fd5b60006001607f546121719190615534565b905090565b607654600090612186908361548a565b6075546121939190615472565b92915050565b60608167ffffffffffffffff8111156121b4576121b4614f4f565b6040519080825280602002602001820160405280156121dd578160200160208202803683370190505b50905060005b8281101561223b5761220c848483818110612200576122006154a9565b9050602002013561245d565b82828151811061221e5761221e6154a9565b602090810291909101015280612233816154f9565b9150506121e3565b5092915050565b60005b8181101561141f5761225683613c1e565b5080612261816154f9565b915050612245565b60965460ff161580156122835750609654610100900460ff165b6122b55760405162461bcd60e51b815260206004820152600360248201526245303160e81b604482015260640161125f565b609954816122c1612160565b6122cb9190615472565b11156122ff5760405162461bcd60e51b815260206004820152600360248201526222999960e91b604482015260640161125f565b608154816080546123109190615472565b11156123445760405162461bcd60e51b815260206004820152600360248201526245353160e81b604482015260640161125f565b48612350826001612a65565b61235a919061548a565b34101561238f5760405162461bcd60e51b8152602060048201526003602482015262114ccd60ea1b604482015260640161125f565b34609c60008282546123a19190615472565b9091555050606754606f546001600160a01b03909116906323b872dd90339030906123cd90869061548a565b6040516001600160e01b031960e086901b1681526001600160a01b0393841660048201529290911660248301526044820152606401600060405180830381600087803b15801561241c57600080fd5b505af1158015612430573d6000803e3d6000fd5b5050505061244333826001608354613331565b80608060008282546124559190615472565b909155505050565b60008181526090602052604080822081516101008101909252805483929190829060ff16600181111561249257612492615233565b60018111156124a3576124a3615233565b8152815460ff61010082048116602084015262010000820416151560408301526001600160a01b03630100000090910416606082015260018201546080820152600282015460a0820152600382015460c082015260049091015460e090910152905060008151600181111561251a5761251a615233565b141561258757607a816020015160ff168154811061253a5761253a6154a9565b90600052602060002001546090600085815260200190815260200160002060010154426125679190615534565b612571919061548a565b8160a001516125809190615472565b9392505050565b6088816020015160ff16815481106125a1576125a16154a9565b90600052602060002001548160c00151608a546125be9190615534565b612580919061548a565b600054610100900460ff166125e35760005460ff16156125e7565b303b155b61264a5760405162461bcd60e51b815260206004820152602e60248201527f496e697469616c697a61626c653a20636f6e747261637420697320616c72656160448201526d191e481a5b9a5d1a585b1a5e995960921b606482015260840161125f565b600054610100900460ff1615801561266c576000805461ffff19166101011790555b612674613d4c565b61268160208301836152a0565b606580546001600160a01b0319166001600160a01b03929092169190911790556126b160408301602084016152a0565b606680546001600160a01b0319166001600160a01b03929092169190911790556126e160608301604084016152a0565b606780546001600160a01b0319166001600160a01b039290921691909117905561271160808301606084016152a0565b606880546001600160a01b0319166001600160a01b039290921691909117905561274160a08301608084016152a0565b606980546001600160a01b0319166001600160a01b039290921691909117905561277160c0830160a084016152a0565b606a80546001600160a01b0319166001600160a01b03929092169190911790556001609e8190556305f5e10060a355607f5560006080819055612710608181905560955561d6d860995560978190556969e10de76676d080000060985560828190556034608355606760848190556086556096805461ffff191661010117905560036092556093805460ff19169055609a8190556032609b55608a819055608b5561282061022083018361554b565b61282c91608791614db3565b5061283b61024083018361554b565b61284791608891614db3565b5061285661026083018361554b565b61286291608991614db3565b5061287060c083018361559c565b606b61287c8282615637565b505060e08201356072556101008201356073556101208201356074556101408201356075556101608201356076556101808201356077556000609c819055609d556128cb6101a083018361554b565b6128d791607891614db3565b5060016079556128eb6101c083018361554b565b6128f791607a91614db3565b506129066101e083018361554b565b61291291607b91614db3565b5061292161020083018361554b565b61292d91607c91614db3565b50610280820135607d556064607e558015611cc8576000805461ff00191690555050565b6129916040518060e00160405280600081526020016000815260200160008152602001600081526020016000815260200160608152602001600081525090565b6040518060e00160405280606b600001548152602001606b600101548152602001606b600201607954815481106129ca576129ca6154a9565b90600052602060002001548152602001606b600301607954815481106129f2576129f26154a9565b600091825260209182902001548252606f5482820152607080546040805182850281018501825282815294019392830182828015612a4f57602002820191906000526020600020905b815481526020019060010190808311612a3b575b5050509183525050607154602090910152919050565b600081612a73576000612a8b565b607454612a81600185615534565b612a8b919061548a565b607354612a98908561548a565b607254612aa59190615472565b6125809190615472565b609654610100900460ff16612aec5760405162461bcd60e51b815260206004820152600360248201526245303160e81b604482015260640161125f565b61141f82826000613d83565b6001600160a01b03821660009081526094602052604081205460935460ff16612b22576000612b26565b6092545b612b309084615472565b6125809190615534565b61141f82826141c9565b609654610100900460ff16612b815760405162461bcd60e51b815260206004820152600360248201526245303160e81b604482015260640161125f565b6000612b8f83836001613d83565b905048612b9b82612176565b612ba5919061548a565b341015612bda5760405162461bcd60e51b815260206004820152600360248201526245333560e81b604482015260640161125f565b34609c6000828254612bec9190615472565b9091555050505050565b60965460ff16158015612c105750609654610100900460ff165b612c425760405162461bcd60e51b815260206004820152600360248201526245303160e81b604482015260640161125f565b80821415612c785760405162461bcd60e51b815260206004820152600360248201526245383160e81b604482015260640161125f565b607754612c8690489061548a565b341015612cbb5760405162461bcd60e51b815260206004820152600360248201526222999b60e91b604482015260640161125f565b34609c6000828254612ccd9190615472565b90915550506000828152609060205260408082208383529181902060655491516331a9108f60e11b815260048101869052909133916001600160a01b0390911690636352211e9060240160206040518083038186803b158015612d2f57600080fd5b505afa158015612d43573d6000803e3d6000fd5b505050506040513d601f19601f82011682018060405250810190612d6791906154dc565b6001600160a01b03161480612d9e5750815462010000900460ff168015612d9e57508154630100000090046001600160a01b031633145b612dd05760405162461bcd60e51b8152602060048201526003602482015262114e0d60ea1b604482015260640161125f565b6065546040516331a9108f60e11b81526004810185905233916001600160a01b031690636352211e9060240160206040518083038186803b158015612e1457600080fd5b505afa158015612e28573d6000803e3d6000fd5b505050506040513d601f19601f82011682018060405250810190612e4c91906154dc565b6001600160a01b03161480612e835750805462010000900460ff168015612e8357508054630100000090046001600160a01b031633145b612eb55760405162461bcd60e51b815260206004820152600360248201526245383560e81b604482015260640161125f565b6001825460ff166001811115612ecd57612ecd615233565b148015612eef57506001815460ff166001811115612eed57612eed615233565b145b612f215760405162461bcd60e51b8152602060048201526003602482015262229c1960e91b604482015260640161125f565b8154610100900460ff16158015612f3f57508054610100900460ff16155b612f715760405162461bcd60e51b815260206004820152600360248201526245383360e81b604482015260640161125f565b815460009062010000900460ff16151560011415612fa757612f928561245d565b612f9c9082615472565b608a54600385015590505b815462010000900460ff16151560011415612fe257612fc58461245d565b612fcf9082615472565b608a5460038401559050612fe284614331565b6071548110156130a0576066546071546001600160a01b03909116906323b872dd9033903090613013908690615534565b6040516001600160e01b031960e086901b1681526001600160a01b0393841660048201529290911660248301526044820152606401602060405180830381600087803b15801561306257600080fd5b505af1158015613076573d6000803e3d6000fd5b505050506040513d601f19601f8201168201806040525081019061309a91906154bf565b506130b8565b6071546130b89033906130b39084615534565b61458c565b6130c18561461b565b606554604051630852cd8d60e31b8152600481018690526001600160a01b03909116906342966c6890602401600060405180830381600087803b15801561310757600080fd5b505af115801561311b573d6000803e3d6000fd5b50506040518781528692503391507f7fbc09d28fa0377bea9dd7bc3289ca8cf2ed47c19c59b30347c08925c18e82d79060200160405180910390a35050505050565b60965460ff161580156131775750609654610100900460ff165b6131a95760405162461bcd60e51b815260206004820152600360248201526245303160e81b604482015260640161125f565b60005b8181101561141f576131d58383838181106131c9576131c96154a9565b905060200201356146cc565b806131df816154f9565b9150506131ac565b6033546001600160a01b031633146110035760405162461bcd60e51b8152602060048201819052602482015260008051602061586e833981519152604482015260640161125f565b6033546001600160a01b031633146132775760405162461bcd60e51b8152602060048201819052602482015260008051602061586e833981519152604482015260640161125f565b6001600160a01b0381166132dc5760405162461bcd60e51b815260206004820152602660248201527f4f776e61626c653a206e6577206f776e657220697320746865207a65726f206160448201526564647265737360d01b606482015260840161125f565b6132e581613cfa565b50565b606654604051632770a7eb60e21b81526001600160a01b0384811660048301526024820184905290911690639dc29fac90604401611681565b607a818154811061120657600080fd5b6000811561334b5761334484600261548a565b905061334e565b50825b600061335861485a565b6040805160608101825260008082526001600160a01b038a166020808401919091526001838501819052858352609f9091529290208151815494955091939092839160ff1916908360028111156133b1576133b1615233565b021790555060208281015182546040948501511515600160a81b0260ff60a81b196001600160a01b039093166101000292909216610100600160b01b031990911617179091558151608081018352607f5463ffffffff908116825260ff8981168385019081528882168487019081528a151560608601908152600089815260a09097529690952093518454915195519651151566010000000000000266ff0000000000001997841665010000000000029790971666ffff000000000019969093166401000000000264ffffffffff199092169316929092179190911792909216919091179190911790556134a530866141c9565b50505050505050565b60008381526090602052604090208161352e576065546040516323b872dd60e01b81526001600160a01b03858116600483015230602483015260448201879052909116906323b872dd90606401600060405180830381600087803b15801561351557600080fd5b505af1158015613529573d6000803e3d6000fd5b505050505b80546001600160a01b03841663010000000262010000600160b81b031990911617620100001781554260018281019190915560006002830155815460ff16600181111561357d5761357d615233565b1415613637578054608880549091610100900460ff169081106135a2576135a26154a9565b9060005260206000200154608b60008282546135be9190615472565b9091555050608a5460038201558054610100900460ff1615613637578054608c90610100900460ff16600481106135f7576135f76154a9565b01546004828101919091558154608c9161010090910460ff1690811061361f5761361f6154a9565b01805460018101825560009182526020909120018490555b6040516001600160a01b0384169085907f5b53344e2b3d15f33a2ab59e3c199c7bbcb08f5ce03bf0a25c14f978647299a790600090a350505050565b600082815260a060205260408120805463ffffffff165b81546136a79060ff6401000000008204169063ffffffff16615724565b63ffffffff168110156116af5760008181526090602052604090206136cb856148be565b60865490965090945084101561371357805461ffff1916600117815560405182907fe745cd12d6f4eb3c23b4aeb859314255073bdc0805d89f7622090698abf484b290600090a25b825460009065010000000000900460ff161561377357613732866148be565b855490975090955065010000000000900460ff16851015613773576000613757614905565b905080156137715761376a848289614975565b9650600191505b505b8061380a5783546601000000000000900460ff161561379d57613798838960016134ae565b61380a565b6065546040516323b872dd60e01b81523060048201526001600160a01b038a8116602483015260448201869052909116906323b872dd90606401600060405180830381600087803b1580156137f157600080fd5b505af1158015613805573d6000803e3d6000fd5b505050505b50508080613817906154f9565b91505061368a565b600082815260a26020908152604080832054808452609090925282209091613846846148be565b9450905061385381614aac565b825461ff00191661010060ff92831602178084556201000090041615156001141561393f57608860008154811061388c5761388c6154a9565b6000918252602090912001548254608880549091610100900460ff169081106138b7576138b76154a9565b90600052602060002001546138cc9190615534565b608b60008282546138dd9190615472565b90915550508154608c90610100900460ff16600481106138ff576138ff6154a9565b01546004838101919091558254608c9161010090910460ff16908110613927576139276154a9565b01805460018101825560009182526020909120018390555b815460405161010090910460ff16815283907fe15c536009c86cf1fa16027c6ee4538c2bcce2bdcd80dd17fec4ea96182ef04c9060200160405180910390a25050505050565b600082815260a160205260408120600181015490919081908190815b81811015613bf8576139b2876148be565b8098508194505050607c609060008860010184815481106139d5576139d56154a9565b9060005260206000200154815260200190815260200160002060000160019054906101000a900460ff1660ff1681548110613a1257613a126154a9565b9060005260206000200154831015613acf57856002018181548110613a3957613a396154a9565b906000526020600020015484613a4f9190615472565b9350856001018181548110613a6657613a666154a9565b9060005260206000200154887f1162a37c4c79ccae63cfe9f80b5c888f58f52918fbdee026c67d0865e095b2c4886002018481548110613aa857613aa86154a9565b9060005260206000200154604051613ac291815260200190565b60405180910390a3613b80565b856002018181548110613ae457613ae46154a9565b906000526020600020015485613afa9190615472565b9450856001018181548110613b1157613b116154a9565b9060005260206000200154896001600160a01b0316897f40e6a337f1a78915df745fd02b2ca082e64e8a780a99b8fbb355f64409b399cc896002018581548110613b5d57613b5d6154a9565b9060005260206000200154604051613b7791815260200190565b60405180910390a45b600088815260a160205260408120600101805483908110613ba357613ba36154a9565b9060005260206000200181905550600060a160008a81526020019081526020016000206002018281548110613bda57613bda6154a9565b60009182526020909120015580613bf0816154f9565b9150506139a1565b50613c0283614b0a565b8454613c149089906130b39087615472565b5050505050505050565b607f8054600091819083613c31836154f9565b9190505550607860795481548110613c4b57613c4b6154a9565b9060005260206000200154607f5410613c745760798054906000613c6e836154f9565b91905055505b6065546040516340c10f1960e01b81526001600160a01b03858116600483015260248201849052909116906340c10f1990604401600060405180830381600087803b158015613cc257600080fd5b505af1158015613cd6573d6000803e3d6000fd5b5050506000828152609060205260409020805461ffff191660011790555092915050565b603380546001600160a01b038381166001600160a01b0319831681179093556040519116919082907f8be0079c531659141344cd1fd0a4f28419497f9722a3daafe3b4186f6b6457e090600090a35050565b600054610100900460ff16613d735760405162461bcd60e51b815260040161125f9061574c565b613d7b614b3a565b61213e614b61565b6000808080808515613d985750609e54613d9d565b5060a3545b600081815260a160205260408120905b888110156140a4576000609060008c8c85818110613dcd57613dcd6154a9565b90506020020135815260200190815260200160002090508060000160029054906101000a900460ff16151560011515148015613e1957508054630100000090046001600160a01b031633145b613e4b5760405162461bcd60e51b815260206004820152600360248201526245393160e81b604482015260640161125f565b6000613e628c8c85818110612200576122006154a9565b90506000825460ff166001811115613e7c57613e7c615233565b1415613ff0576000607e54607d5483613e95919061548a565b613e9f91906157ad565b9050613eab8183615534565b613eb5908a615472565b9850613ec18188615472565b42600185015596508a15613f8f578254607b80549091610100900460ff16908110613eee57613eee6154a9565b9060005260206000200154821015613f2e5760405162461bcd60e51b8152602060048201526003602482015262229c9960e91b604482015260640161125f565b846001018d8d86818110613f4457613f446154a9565b8354600181018555600094855260209485902091909402929092013591909201555060028501613f748284615534565b81546001810183556000928352602090922090910155613fea565b8c8c85818110613fa157613fa16154a9565b6020029190910135905033877f40e6a337f1a78915df745fd02b2ca082e64e8a780a99b8fbb355f64409b399cc613fd88587615534565b60405190815260200160405180910390a45b50614062565b613ffa8188615472565b608a54600384015596508b8b84818110614016576140166154a9565b90506020020135336001600160a01b0316867f40e6a337f1a78915df745fd02b2ca082e64e8a780a99b8fbb355f64409b399cc8460405161405991815260200190565b60405180910390a45b8915614089576140898c8c8581811061407d5761407d6154a9565b90506020020135614331565b5060006002909101558061409c816154f9565b915050613dad565b508680156140b55750600181015415155b156141685783815560006140c761485a565b604080516060810182526001808252336020808401919091528284018290526000858152609f909152929092208151815494955091939092839160ff19169083600281111561411857614118615233565b0217905550602082015181546040909301511515600160a81b0260ff60a81b196001600160a01b039092166101000291909116610100600160b01b03199093169290921791909117905550614176565b614176336130b38787615472565b61417f83614b0a565b817fa82e56087acdb4c45b596e06c5ef2d1e974654985bfd4300ebad87555eec136e846040516141b191815260200190565b60405180910390a26001015498975050505050505050565b607f80546000918390836141dd8385615472565b925050819055506078607954815481106141f9576141f96154a9565b9060005260206000200154607f5410614222576079805490600061421c836154f9565b91905055505b6065546040516322ce52b560e21b81526001600160a01b038681166004830152602482018490526044820186905290911690638b394ad490606401600060405180830381600087803b15801561427757600080fd5b505af115801561428b573d6000803e3d6000fd5b5050505060005b838110156142e5576001609060006142aa8486615472565b81526020810191909152604001600020805460ff929092166101000261ff0019909216919091179055806142dd816154f9565b915050614292565b5060408051828152602081018590526001600160a01b038616917f8b7c923d3e09b520f101439fe55b1b1ea3b1fcdfcb88afe6aed96873d341e1aa910160405180910390a29392505050565b6000818152609060205260409020805462010000600160b81b031981168255630100000090046001600160a01b03166001825460ff16600181111561437857614378615233565b14156144da578154608880549091610100900460ff1690811061439d5761439d6154a9565b9060005260206000200154608b60008282546143b99190615534565b90915550508154610100900460ff16156144da578154600090608c90610100900460ff16600481106143ed576143ed6154a9565b8454910190600190608c90610100900460ff1660048110614410576144106154a9565b015461441c9190615534565b8154811061442c5761442c6154a9565b60009182526020909120015483549091508190608c90610100900460ff166004811061445a5761445a6154a9565b01846004015481548110614470576144706154a9565b6000918252602090912001558254608c90610100900460ff1660048110614499576144996154a9565b018054806144a9576144a96157c1565b6000828152602080822083016000199081018390559092019092556004808601549383526090909152604090912001555b60006004838101919091556065546040516323b872dd60e01b815230928101929092526001600160a01b0383811660248401526044830186905216906323b872dd90606401600060405180830381600087803b15801561453957600080fd5b505af115801561454d573d6000803e3d6000fd5b50506040516001600160a01b03841692508591507f3a01954f64bfeed1c903bc3920f7a5639288ea25efc7a539195648519e4184a390600090a3505050565b6098546097548291906145a0908390615472565b11156145b9576097546098546145b69190615534565b90505b6066546040516340c10f1960e01b81526001600160a01b03858116600483015260248201849052909116906340c10f1990604401600060405180830381600087803b15801561460757600080fd5b505af11580156134a5573d6000803e3d6000fd5b600061462561485a565b6040805160608101825260028082523360208084019190915260018385018190526000868152609f9092529390208251815495965092949093849260ff1990921691849081111561467857614678615233565b021790555060208281015182546040948501511515600160a81b0260ff60a81b196001600160a01b039093166101000292909216610100600160b01b03199091161717909155600092835260a29052902055565b621e8c518110156147055760405162461bcd60e51b815260206004820152600360248201526245313160e81b604482015260640161125f565b60008181526091602052604090205460ff161561474a5760405162461bcd60e51b815260206004820152600360248201526222989960e91b604482015260640161125f565b6068546040516331a9108f60e11b81526004810183905233916001600160a01b031690636352211e9060240160206040518083038186803b15801561478e57600080fd5b505afa1580156147a2573d6000803e3d6000fd5b505050506040513d601f19601f820116820180604052508101906147c691906154dc565b6001600160a01b0316146148025760405162461bcd60e51b815260206004820152600360248201526245313360e81b604482015260640161125f565b6000818152609160205260408120805460ff1916600117905561482433613c1e565b6040519091508190839033907f584ea1a98d504e99c0dd0ca5ace55f5458d725e7e20a1ebb2e5e5af38434397190600090a45050565b6000609e547f315444e506fb06e32d43fe2cf48f37218994285028f458255be4a56810b66b8d609e5460405161489291815260200190565b60405180910390a2609e80549060006148aa836154f9565b91905055506001609e546121719190615534565b600080621000008310156148f4576040805160208101859052016040516020818303038152906040528051906020012060001c92505b50506103ff811691600a9190911c90565b60008060015b6003811161496f57608c8160048110614926576149266154a9565b0154608980548390811061493c5761493c6154a9565b9060005260206000200154614951919061548a565b61495b9083615472565b915080614967816154f9565b91505061490b565b50919050565b60006149aa604051806040016040528060118152602001706f6f67612025732061747461636b65642160781b81525085614b91565b60006149b884846019614beb565b9350905060006149c782614c49565b606554600082815260906020526040908190205490516323b872dd60e01b81523060048201526001600160a01b03630100000090920482166024820152604481018a905292935016906323b872dd90606401600060405180830381600087803b158015614a3357600080fd5b505af1158015614a47573d6000803e3d6000fd5b50505060008281526090602090815260409182902054915184815263010000009092046001600160a01b0316925088917f9055cdd665fdee53683ce213caee079a0b8a929160ad57c0b83ca49f032dfafc910160405180910390a35091949350505050565b6000805b60038160ff161015614b015760878160ff1681548110614ad257614ad26154a9565b9060005260206000200154831015614aef576125808160016157d7565b80614af981615514565b915050614ab0565b50600092915050565b614b14308261458c565b608b54156132e557608b54614b2990826157ad565b608a60008282546124559190615472565b600054610100900460ff1661213e5760405162461bcd60e51b815260040161125f9061574c565b600054610100900460ff16614b885760405162461bcd60e51b815260040161125f9061574c565b61213e33613cfa565b611cc88282604051602401614ba79291906157fc565b60408051601f198184030181529190526020810180517bffffffffffffffffffffffffffffffffffffffffffffffffffffffff166309710a9d60e41b179052614d47565b6000806001831b80851015614c22576040805160208101879052016040516020818303038152906040528051906020012060001c94505b600086614c30600184615534565b8716614c3c9190615859565b979590941c955050505050565b60008060015b60038111614d3d576000608c8260048110614c6c57614c6c6154a9565b01546089805484908110614c8257614c826154a9565b9060005260206000200154614c97919061548a565b9050614ca38184615472565b851015614d1d57600060898381548110614cbf57614cbf6154a9565b90600052602060002001548487614cd69190615534565b614ce091906157ad565b9050608c8360048110614cf557614cf56154a9565b018181548110614d0757614d076154a9565b9060005260206000200154945050505050919050565b614d278184615472565b9250508080614d35906154f9565b915050614c4f565b5060009392505050565b80516a636f6e736f6c652e6c6f67602083016000808483855afa5050505050565b828054828255906000526020600020908101928215614da3579160200282015b82811115614da3578251825591602001919060010190614d88565b50614daf929150614dee565b5090565b828054828255906000526020600020908101928215614da3579160200282015b82811115614da3578235825591602001919060010190614dd3565b5b80821115614daf5760008155600101614def565b600060208284031215614e1557600080fd5b5035919050565b80151581146132e557600080fd5b60008060408385031215614e3d57600080fd5b823591506020830135614e4f81614e1c565b809150509250929050565b600060208284031215614e6c57600080fd5b813561258081614e1c565b60008060208385031215614e8a57600080fd5b823567ffffffffffffffff80821115614ea257600080fd5b818501915085601f830112614eb657600080fd5b813581811115614ec557600080fd5b8660208260051b8501011115614eda57600080fd5b60209290920196919550909350505050565b60008060408385031215614eff57600080fd5b50508035926020909101359150565b6001600160a01b03811681146132e557600080fd5b60008060408385031215614f3657600080fd5b8235614f4181614f0e565b946020939093013593505050565b634e487b7160e01b600052604160045260246000fd5b60405160e0810167ffffffffffffffff81118282101715614f8857614f88614f4f565b60405290565b600082601f830112614f9f57600080fd5b8135602067ffffffffffffffff80831115614fbc57614fbc614f4f565b8260051b604051601f19603f83011681018181108482111715614fe157614fe1614f4f565b604052938452858101830193838101925087851115614fff57600080fd5b83870191505b8482101561501e57813583529183019190830190615005565b979650505050505050565b60006020828403121561503b57600080fd5b813567ffffffffffffffff8082111561505357600080fd5b9083019060e0828603121561506757600080fd5b61506f614f65565b823581526020830135602082015260408301358281111561508f57600080fd5b61509b87828601614f8e565b6040830152506060830135828111156150b357600080fd5b6150bf87828601614f8e565b6060830152506080830135608082015260a0830135828111156150e157600080fd5b6150ed87828601614f8e565b60a08301525060c083013560c082015280935050505092915050565b803560ff8116811461511a57600080fd5b919050565b60006080828403121561513157600080fd5b6040516080810181811067ffffffffffffffff8211171561515457615154614f4f565b6040528235815290508061516a60208401615109565b602082015260408301356040820152606083013560608201525092915050565b60008060a0838503121561519d57600080fd5b6151a7848461511f565b91506080830135614e4f81614f0e565b600080600060c084860312156151cc57600080fd5b8335925060208401356151de81614e1c565b91506151ed856040860161511f565b90509250925092565b60006020828403121561520857600080fd5b813567ffffffffffffffff81111561521f57600080fd5b61522b84828501614f8e565b949350505050565b634e487b7160e01b600052602160045260246000fd5b610100810160028a1061525e5761525e615233565b98815260ff97909716602088015294151560408701526001600160a01b03939093166060860152608085019190915260a084015260c083015260e09091015290565b6000602082840312156152b257600080fd5b813561258081614f0e565b6000806000606084860312156152d257600080fd5b505081359360208301359350604090920135919050565b6020808252825182820181905260009190848201906040850190845b8181101561532157835183529284019291840191600101615305565b50909695505050505050565b60006020828403121561533f57600080fd5b813567ffffffffffffffff81111561535657600080fd5b82016102a0818503121561258057600080fd5b6000602080835261010083018451828501528185015160408501526040850151606085015260608501516080850152608085015160a085015260a085015160e060c0860152818151808452610120870191508483019350600092505b808310156153e557835182529284019260019290920191908401906153c5565b5060c087015160e08701528094505050505092915050565b606081016003851061541157615411615233565b9381526001600160a01b03929092166020830152151560409091015290565b6000806040838503121561544357600080fd5b8235915061545360208401615109565b90509250929050565b634e487b7160e01b600052601160045260246000fd5b600082198211156154855761548561545c565b500190565b60008160001904831182151516156154a4576154a461545c565b500290565b634e487b7160e01b600052603260045260246000fd5b6000602082840312156154d157600080fd5b815161258081614e1c565b6000602082840312156154ee57600080fd5b815161258081614f0e565b600060001982141561550d5761550d61545c565b5060010190565b600060ff821660ff81141561552b5761552b61545c565b60010192915050565b6000828210156155465761554661545c565b500390565b6000808335601e1984360301811261556257600080fd5b83018035915067ffffffffffffffff82111561557d57600080fd5b6020019150600581901b360382131561559557600080fd5b9250929050565b6000823560de198336030181126155b257600080fd5b9190910192915050565b680100000000000000008311156155d5576155d5614f4f565b80548382558084101561560c576000828152602081208581019083015b80821015615608578282556001820191506155f2565b5050505b5060008181526020812083915b858110156116af578235825560209092019160019182019101615619565b8135815560016020808401358284015560028301615658604086018661554b565b6801000000000000000081111561567157615671614f4f565b8254818455808210156156a55760008481528581208381019083015b808210156156a1578282559088019061568d565b5050505b50600092835260208320925b818110156156cc5782358455928501929184019185016156b1565b5050505050506156df606083018361554b565b6156ed8183600386016155bc565b50506080820135600482015561570660a083018361554b565b6157148183600586016155bc565b505060c082013560068201555050565b600063ffffffff8083168185168083038211156157435761574361545c565b01949350505050565b6020808252602b908201527f496e697469616c697a61626c653a20636f6e7472616374206973206e6f74206960408201526a6e697469616c697a696e6760a81b606082015260800190565b634e487b7160e01b600052601260045260246000fd5b6000826157bc576157bc615797565b500490565b634e487b7160e01b600052603160045260246000fd5b600060ff821660ff84168060ff038211156157f4576157f461545c565b019392505050565b604081526000835180604084015260005b8181101561582a576020818701810151606086840101520161580d565b8181111561583c576000606083860101525b50602083019390935250601f91909101601f191601606001919050565b60008261586857615868615797565b50069056fe4f776e61626c653a2063616c6c6572206973206e6f7420746865206f776e6572a264697066735822122027e947dfa62444b58f4e09c5719445395e3443216316fd488c9ed85aa791218d64736f6c63430008090033",
    "linkReferences": {},
    "deployedLinkReferences": {}
}