{
    "_format": "hh-sol-artifact-1",
    "contractName": "MekaApesGame",
    "sourceName": "contracts/MekaApesGame.sol",
    "abi": [
        {
            "anonymous": false,
            "inputs": [
                {
                    "indexed": true,
                    "internalType": "uint256",
                    "name": "tokenId",
                    "type": "uint256"
                },
                {
                    "indexed": false,
                    "internalType": "uint256",
                    "name": "amount",
                    "type": "uint256"
                }
            ],
            "name": "AttackReward",
            "type": "event"
        },
        {
            "anonymous": false,
            "inputs": [
                {
                    "indexed": true,
                    "internalType": "address",
                    "name": "account",
                    "type": "address"
                },
                {
                    "indexed": true,
                    "internalType": "uint256",
                    "name": "oogaId",
                    "type": "uint256"
                },
                {
                    "indexed": true,
                    "internalType": "uint256",
                    "name": "newTokenId",
                    "type": "uint256"
                }
            ],
            "name": "BabyOogaEvolve",
            "type": "event"
        },
        {
            "anonymous": false,
            "inputs": [
                {
                    "indexed": true,
                    "internalType": "address",
                    "name": "account",
                    "type": "address"
                },
                {
                    "indexed": true,
                    "internalType": "uint256",
                    "name": "tokenId",
                    "type": "uint256"
                },
                {
                    "indexed": false,
                    "internalType": "uint256",
                    "name": "amount",
                    "type": "uint256"
                }
            ],
            "name": "ClaimReward",
            "type": "event"
        },
        {
            "anonymous": false,
            "inputs": [
                {
                    "indexed": true,
                    "internalType": "address",
                    "name": "account",
                    "type": "address"
                },
                {
                    "indexed": true,
                    "internalType": "uint256",
                    "name": "oogaId",
                    "type": "uint256"
                },
                {
                    "indexed": false,
                    "internalType": "uint256",
                    "name": "newLevel",
                    "type": "uint256"
                }
            ],
            "name": "LevelUpRoboOoga",
            "type": "event"
        },
        {
            "anonymous": false,
            "inputs": [
                {
                    "indexed": true,
                    "internalType": "address",
                    "name": "account",
                    "type": "address"
                },
                {
                    "indexed": false,
                    "internalType": "uint256",
                    "name": "oogaIdSave",
                    "type": "uint256"
                },
                {
                    "indexed": true,
                    "internalType": "uint256",
                    "name": "oogaIdBurn",
                    "type": "uint256"
                },
                {
                    "indexed": false,
                    "internalType": "uint256",
                    "name": "megaLevel",
                    "type": "uint256"
                }
            ],
            "name": "MergeMekaApes",
            "type": "event"
        },
        {
            "anonymous": false,
            "inputs": [
                {
                    "indexed": true,
                    "internalType": "address",
                    "name": "account",
                    "type": "address"
                },
                {
                    "indexed": true,
                    "internalType": "uint256",
                    "name": "tokenId",
                    "type": "uint256"
                },
                {
                    "indexed": false,
                    "internalType": "uint256",
                    "name": "oogaType",
                    "type": "uint256"
                },
                {
                    "indexed": false,
                    "internalType": "uint256",
                    "name": "level",
                    "type": "uint256"
                }
            ],
            "name": "Mint",
            "type": "event"
        },
        {
            "anonymous": false,
            "inputs": [
                {
                    "indexed": true,
                    "internalType": "uint256",
                    "name": "oogaId",
                    "type": "uint256"
                },
                {
                    "indexed": true,
                    "internalType": "address",
                    "name": "tributeAccount",
                    "type": "address"
                }
            ],
            "name": "OogaAttacked",
            "type": "event"
        },
        {
            "anonymous": false,
            "inputs": [
                {
                    "indexed": true,
                    "internalType": "address",
                    "name": "previousOwner",
                    "type": "address"
                },
                {
                    "indexed": true,
                    "internalType": "address",
                    "name": "newOwner",
                    "type": "address"
                }
            ],
            "name": "OwnershipTransferred",
            "type": "event"
        },
        {
            "anonymous": false,
            "inputs": [
                {
                    "indexed": true,
                    "internalType": "uint256",
                    "name": "oogaId",
                    "type": "uint256"
                },
                {
                    "indexed": true,
                    "internalType": "address",
                    "name": "account",
                    "type": "address"
                }
            ],
            "name": "StakeOoga",
            "type": "event"
        },
        {
            "anonymous": false,
            "inputs": [
                {
                    "indexed": false,
                    "internalType": "uint256",
                    "name": "totalTax",
                    "type": "uint256"
                }
            ],
            "name": "TaxReward",
            "type": "event"
        },
        {
            "anonymous": false,
            "inputs": [
                {
                    "indexed": true,
                    "internalType": "uint256",
                    "name": "oogaId",
                    "type": "uint256"
                },
                {
                    "indexed": true,
                    "internalType": "address",
                    "name": "account",
                    "type": "address"
                }
            ],
            "name": "UnstakeOoga",
            "type": "event"
        },
        {
            "inputs": [],
            "name": "ATTACK_CHANCE_DENOM",
            "outputs": [
                {
                    "internalType": "uint256",
                    "name": "",
                    "type": "uint256"
                }
            ],
            "stateMutability": "view",
            "type": "function"
        },
        {
            "inputs": [],
            "name": "CLAIM_TAX_DENOM",
            "outputs": [
                {
                    "internalType": "uint256",
                    "name": "",
                    "type": "uint256"
                }
            ],
            "stateMutability": "view",
            "type": "function"
        },
        {
            "inputs": [
                {
                    "internalType": "address",
                    "name": "account",
                    "type": "address"
                },
                {
                    "internalType": "uint256",
                    "name": "amount",
                    "type": "uint256"
                }
            ],
            "name": "_changeMintAllowance",
            "outputs": [],
            "stateMutability": "nonpayable",
            "type": "function"
        },
        {
            "inputs": [
                {
                    "internalType": "bool",
                    "name": "mintSale_",
                    "type": "bool"
                }
            ],
            "name": "_changeMintSale",
            "outputs": [],
            "stateMutability": "nonpayable",
            "type": "function"
        },
        {
            "inputs": [
                {
                    "internalType": "uint256",
                    "name": "mintSaleAmount_",
                    "type": "uint256"
                }
            ],
            "name": "_changeMintSaleAmount",
            "outputs": [],
            "stateMutability": "nonpayable",
            "type": "function"
        },
        {
            "inputs": [
                {
                    "internalType": "uint256",
                    "name": "tokenId",
                    "type": "uint256"
                },
                {
                    "internalType": "uint256",
                    "name": "level",
                    "type": "uint256"
                }
            ],
            "name": "_changeOogaLevel",
            "outputs": [],
            "stateMutability": "nonpayable",
            "type": "function"
        },
        {
            "inputs": [
                {
                    "internalType": "bool",
                    "name": "publicMintStarted_",
                    "type": "bool"
                }
            ],
            "name": "_changePublicMintStarted",
            "outputs": [],
            "stateMutability": "nonpayable",
            "type": "function"
        },
        {
            "inputs": [
                {
                    "internalType": "address",
                    "name": "toAddress",
                    "type": "address"
                },
                {
                    "internalType": "uint256",
                    "name": "amount",
                    "type": "uint256"
                }
            ],
            "name": "_freeBurnOG",
            "outputs": [],
            "stateMutability": "nonpayable",
            "type": "function"
        },
        {
            "inputs": [
                {
                    "internalType": "address",
                    "name": "toAddress",
                    "type": "address"
                }
            ],
            "name": "_freeMintMeka",
            "outputs": [],
            "stateMutability": "nonpayable",
            "type": "function"
        },
        {
            "inputs": [
                {
                    "internalType": "address",
                    "name": "toAddress",
                    "type": "address"
                },
                {
                    "internalType": "uint256",
                    "name": "amount",
                    "type": "uint256"
                }
            ],
            "name": "_freeMintOG",
            "outputs": [],
            "stateMutability": "nonpayable",
            "type": "function"
        },
        {
            "inputs": [
                {
                    "internalType": "address",
                    "name": "toAddress",
                    "type": "address"
                }
            ],
            "name": "_freeMintRobo",
            "outputs": [],
            "stateMutability": "nonpayable",
            "type": "function"
        },
        {
            "inputs": [
                {
                    "internalType": "address",
                    "name": "account",
                    "type": "address"
                }
            ],
            "name": "allowedToMint",
            "outputs": [
                {
                    "internalType": "uint256",
                    "name": "",
                    "type": "uint256"
                }
            ],
            "stateMutability": "view",
            "type": "function"
        },
        {
            "inputs": [
                {
                    "internalType": "uint256",
                    "name": "mintOGprice_",
                    "type": "uint256"
                },
                {
                    "internalType": "uint256",
                    "name": "mintOGstakePrice_",
                    "type": "uint256"
                },
                {
                    "internalType": "uint256",
                    "name": "mintDMTstakePrice_",
                    "type": "uint256"
                }
            ],
            "name": "changeMintERC20Price",
            "outputs": [],
            "stateMutability": "nonpayable",
            "type": "function"
        },
        {
            "inputs": [
                {
                    "internalType": "uint256",
                    "name": "mintPrice_",
                    "type": "uint256"
                },
                {
                    "internalType": "uint256",
                    "name": "mintStakePrice_",
                    "type": "uint256"
                }
            ],
            "name": "changeMintPrice",
            "outputs": [],
            "stateMutability": "nonpayable",
            "type": "function"
        },
        {
            "inputs": [
                {
                    "internalType": "bool",
                    "name": "publicMintStarted_",
                    "type": "bool"
                }
            ],
            "name": "changePublicMintStarted",
            "outputs": [],
            "stateMutability": "nonpayable",
            "type": "function"
        },
        {
            "inputs": [
                {
                    "internalType": "uint256",
                    "name": "tokenId",
                    "type": "uint256"
                }
            ],
            "name": "claimAvailableAmount",
            "outputs": [
                {
                    "internalType": "uint256",
                    "name": "",
                    "type": "uint256"
                }
            ],
            "stateMutability": "view",
            "type": "function"
        },
        {
            "inputs": [
                {
                    "internalType": "uint256[]",
                    "name": "tokenIds",
                    "type": "uint256[]"
                }
            ],
            "name": "claimAvailableAmountMultipleTokens",
            "outputs": [
                {
                    "internalType": "uint256[]",
                    "name": "result",
                    "type": "uint256[]"
                }
            ],
            "stateMutability": "view",
            "type": "function"
        },
        {
            "inputs": [
                {
                    "internalType": "uint256[]",
                    "name": "tokenIds",
                    "type": "uint256[]"
                }
            ],
            "name": "claimReward",
            "outputs": [],
            "stateMutability": "nonpayable",
            "type": "function"
        },
        {
            "inputs": [],
            "name": "claimTax",
            "outputs": [
                {
                    "internalType": "uint256",
                    "name": "",
                    "type": "uint256"
                }
            ],
            "stateMutability": "view",
            "type": "function"
        },
        {
            "inputs": [],
            "name": "dmtMintAttackChance",
            "outputs": [
                {
                    "internalType": "uint256",
                    "name": "",
                    "type": "uint256"
                }
            ],
            "stateMutability": "view",
            "type": "function"
        },
        {
            "inputs": [],
            "name": "dmtToken",
            "outputs": [
                {
                    "internalType": "contract IDMT_ERC20",
                    "name": "",
                    "type": "address"
                }
            ],
            "stateMutability": "view",
            "type": "function"
        },
        {
            "inputs": [],
            "name": "erc721Contract",
            "outputs": [
                {
                    "internalType": "contract MekaApesERC721",
                    "name": "",
                    "type": "address"
                }
            ],
            "stateMutability": "view",
            "type": "function"
        },
        {
            "inputs": [],
            "name": "ethMintAttackChance",
            "outputs": [
                {
                    "internalType": "uint256",
                    "name": "",
                    "type": "uint256"
                }
            ],
            "stateMutability": "view",
            "type": "function"
        },
        {
            "inputs": [
                {
                    "internalType": "uint256[]",
                    "name": "tokenIds",
                    "type": "uint256[]"
                }
            ],
            "name": "evolveBabyOogas",
            "outputs": [],
            "stateMutability": "nonpayable",
            "type": "function"
        },
        {
            "inputs": [
                {
                    "components": [
                        {
                            "internalType": "contract MekaApesERC721",
                            "name": "erc721Contract_",
                            "type": "address"
                        },
                        {
                            "internalType": "contract RNGOracle",
                            "name": "rngOracle_",
                            "type": "address"
                        },
                        {
                            "internalType": "contract OogearERC20",
                            "name": "ogToken_",
                            "type": "address"
                        },
                        {
                            "internalType": "contract IDMT_ERC20",
                            "name": "dmtToken_",
                            "type": "address"
                        },
                        {
                            "internalType": "contract IERC721",
                            "name": "oogaVerse_",
                            "type": "address"
                        },
                        {
                            "internalType": "uint256",
                            "name": "mintPrice_",
                            "type": "uint256"
                        },
                        {
                            "internalType": "uint256",
                            "name": "mintStakePrice_",
                            "type": "uint256"
                        },
                        {
                            "internalType": "uint256",
                            "name": "mintOGprice_",
                            "type": "uint256"
                        },
                        {
                            "internalType": "uint256",
                            "name": "mintOGstakePrice_",
                            "type": "uint256"
                        },
                        {
                            "internalType": "uint256",
                            "name": "mintDMTstakePrice_",
                            "type": "uint256"
                        },
                        {
                            "internalType": "uint256",
                            "name": "roboLevelupPrice_",
                            "type": "uint256"
                        },
                        {
                            "internalType": "uint256[]",
                            "name": "roboOogaRewardPerSec_",
                            "type": "uint256[]"
                        },
                        {
                            "internalType": "uint256[]",
                            "name": "roboOogaMinimalRewardToUnstake_",
                            "type": "uint256[]"
                        },
                        {
                            "internalType": "uint256[]",
                            "name": "roboOogaRewardAttackProbabilities_",
                            "type": "uint256[]"
                        },
                        {
                            "internalType": "uint256[]",
                            "name": "megaLevelProbabilities_",
                            "type": "uint256[]"
                        },
                        {
                            "internalType": "uint256[]",
                            "name": "mekaLevelSharePoints_",
                            "type": "uint256[]"
                        },
                        {
                            "internalType": "uint256[]",
                            "name": "megaTributePoints_",
                            "type": "uint256[]"
                        },
                        {
                            "internalType": "uint256",
                            "name": "claimTax_",
                            "type": "uint256"
                        }
                    ],
                    "internalType": "struct InitParams",
                    "name": "initParams",
                    "type": "tuple"
                }
            ],
            "name": "initialize",
            "outputs": [],
            "stateMutability": "nonpayable",
            "type": "function"
        },
        {
            "inputs": [
                {
                    "internalType": "uint256",
                    "name": "oogaId",
                    "type": "uint256"
                }
            ],
            "name": "isBabyOogaEvolved",
            "outputs": [
                {
                    "internalType": "bool",
                    "name": "",
                    "type": "bool"
                }
            ],
            "stateMutability": "view",
            "type": "function"
        },
        {
            "inputs": [
                {
                    "internalType": "uint256",
                    "name": "tokenId",
                    "type": "uint256"
                }
            ],
            "name": "levelUpRoboOooga",
            "outputs": [],
            "stateMutability": "nonpayable",
            "type": "function"
        },
        {
            "inputs": [],
            "name": "maxMintWithDMT",
            "outputs": [
                {
                    "internalType": "uint256",
                    "name": "",
                    "type": "uint256"
                }
            ],
            "stateMutability": "view",
            "type": "function"
        },
        {
            "inputs": [
                {
                    "internalType": "uint256",
                    "name": "",
                    "type": "uint256"
                }
            ],
            "name": "megaLevelProbabilities",
            "outputs": [
                {
                    "internalType": "uint256",
                    "name": "",
                    "type": "uint256"
                }
            ],
            "stateMutability": "view",
            "type": "function"
        },
        {
            "inputs": [
                {
                    "internalType": "uint256",
                    "name": "",
                    "type": "uint256"
                },
                {
                    "internalType": "uint256",
                    "name": "",
                    "type": "uint256"
                }
            ],
            "name": "megaStaked",
            "outputs": [
                {
                    "internalType": "uint256",
                    "name": "",
                    "type": "uint256"
                }
            ],
            "stateMutability": "view",
            "type": "function"
        },
        {
            "inputs": [
                {
                    "internalType": "uint256",
                    "name": "",
                    "type": "uint256"
                }
            ],
            "name": "megaTributePoints",
            "outputs": [
                {
                    "internalType": "uint256",
                    "name": "",
                    "type": "uint256"
                }
            ],
            "stateMutability": "view",
            "type": "function"
        },
        {
            "inputs": [
                {
                    "internalType": "uint256",
                    "name": "",
                    "type": "uint256"
                }
            ],
            "name": "mekaLevelSharePoints",
            "outputs": [
                {
                    "internalType": "uint256",
                    "name": "",
                    "type": "uint256"
                }
            ],
            "stateMutability": "view",
            "type": "function"
        },
        {
            "inputs": [],
            "name": "mekaTotalPointsStaked",
            "outputs": [
                {
                    "internalType": "uint256",
                    "name": "",
                    "type": "uint256"
                }
            ],
            "stateMutability": "view",
            "type": "function"
        },
        {
            "inputs": [],
            "name": "mekaTotalRewardPerPoint",
            "outputs": [
                {
                    "internalType": "uint256",
                    "name": "",
                    "type": "uint256"
                }
            ],
            "stateMutability": "view",
            "type": "function"
        },
        {
            "inputs": [
                {
                    "internalType": "uint256",
                    "name": "tokenIdSave",
                    "type": "uint256"
                },
                {
                    "internalType": "uint256",
                    "name": "tokenIdBurn",
                    "type": "uint256"
                }
            ],
            "name": "mergeMekaApes",
            "outputs": [],
            "stateMutability": "nonpayable",
            "type": "function"
        },
        {
            "inputs": [
                {
                    "internalType": "uint256",
                    "name": "amount",
                    "type": "uint256"
                },
                {
                    "internalType": "bool",
                    "name": "toStake",
                    "type": "bool"
                }
            ],
            "name": "mint",
            "outputs": [],
            "stateMutability": "payable",
            "type": "function"
        },
        {
            "inputs": [
                {
                    "internalType": "address",
                    "name": "",
                    "type": "address"
                }
            ],
            "name": "mintAllowance",
            "outputs": [
                {
                    "internalType": "uint256",
                    "name": "",
                    "type": "uint256"
                }
            ],
            "stateMutability": "view",
            "type": "function"
        },
        {
            "inputs": [],
            "name": "mintDMTstakePrice",
            "outputs": [
                {
                    "internalType": "uint256",
                    "name": "",
                    "type": "uint256"
                }
            ],
            "stateMutability": "view",
            "type": "function"
        },
        {
            "inputs": [],
            "name": "mintOGprice",
            "outputs": [
                {
                    "internalType": "uint256",
                    "name": "",
                    "type": "uint256"
                }
            ],
            "stateMutability": "view",
            "type": "function"
        },
        {
            "inputs": [],
            "name": "mintOGstakePrice",
            "outputs": [
                {
                    "internalType": "uint256",
                    "name": "",
                    "type": "uint256"
                }
            ],
            "stateMutability": "view",
            "type": "function"
        },
        {
            "inputs": [],
            "name": "mintPrice",
            "outputs": [
                {
                    "internalType": "uint256",
                    "name": "",
                    "type": "uint256"
                }
            ],
            "stateMutability": "view",
            "type": "function"
        },
        {
            "inputs": [],
            "name": "mintSale",
            "outputs": [
                {
                    "internalType": "bool",
                    "name": "",
                    "type": "bool"
                }
            ],
            "stateMutability": "view",
            "type": "function"
        },
        {
            "inputs": [],
            "name": "mintSaleAmount",
            "outputs": [
                {
                    "internalType": "uint256",
                    "name": "",
                    "type": "uint256"
                }
            ],
            "stateMutability": "view",
            "type": "function"
        },
        {
            "inputs": [],
            "name": "mintStakePrice",
            "outputs": [
                {
                    "internalType": "uint256",
                    "name": "",
                    "type": "uint256"
                }
            ],
            "stateMutability": "view",
            "type": "function"
        },
        {
            "inputs": [
                {
                    "internalType": "uint256",
                    "name": "amount",
                    "type": "uint256"
                }
            ],
            "name": "mintWithDMT",
            "outputs": [],
            "stateMutability": "nonpayable",
            "type": "function"
        },
        {
            "inputs": [
                {
                    "internalType": "uint256",
                    "name": "amount",
                    "type": "uint256"
                },
                {
                    "internalType": "bool",
                    "name": "toStake",
                    "type": "bool"
                }
            ],
            "name": "mintWithOG",
            "outputs": [],
            "stateMutability": "nonpayable",
            "type": "function"
        },
        {
            "inputs": [],
            "name": "nextTokenId",
            "outputs": [
                {
                    "internalType": "uint256",
                    "name": "",
                    "type": "uint256"
                }
            ],
            "stateMutability": "view",
            "type": "function"
        },
        {
            "inputs": [
                {
                    "internalType": "address",
                    "name": "",
                    "type": "address"
                }
            ],
            "name": "numberOfMintedOogas",
            "outputs": [
                {
                    "internalType": "uint256",
                    "name": "",
                    "type": "uint256"
                }
            ],
            "stateMutability": "view",
            "type": "function"
        },
        {
            "inputs": [],
            "name": "ogMintAttackChance",
            "outputs": [
                {
                    "internalType": "uint256",
                    "name": "",
                    "type": "uint256"
                }
            ],
            "stateMutability": "view",
            "type": "function"
        },
        {
            "inputs": [],
            "name": "ogToken",
            "outputs": [
                {
                    "internalType": "contract OogearERC20",
                    "name": "",
                    "type": "address"
                }
            ],
            "stateMutability": "view",
            "type": "function"
        },
        {
            "inputs": [
                {
                    "internalType": "uint256",
                    "name": "",
                    "type": "uint256"
                }
            ],
            "name": "oogaAttributes",
            "outputs": [
                {
                    "internalType": "enum OogaType",
                    "name": "oogaType",
                    "type": "uint8"
                },
                {
                    "internalType": "uint256",
                    "name": "level",
                    "type": "uint256"
                },
                {
                    "internalType": "bool",
                    "name": "staked",
                    "type": "bool"
                },
                {
                    "internalType": "address",
                    "name": "stakedOwner",
                    "type": "address"
                },
                {
                    "internalType": "uint256",
                    "name": "lastClaimTimestamp",
                    "type": "uint256"
                },
                {
                    "internalType": "uint256",
                    "name": "savedReward",
                    "type": "uint256"
                },
                {
                    "internalType": "uint256",
                    "name": "lastRewardPerPoint",
                    "type": "uint256"
                },
                {
                    "internalType": "uint256",
                    "name": "stakedMegaIndex",
                    "type": "uint256"
                }
            ],
            "stateMutability": "view",
            "type": "function"
        },
        {
            "inputs": [
                {
                    "internalType": "uint256",
                    "name": "",
                    "type": "uint256"
                }
            ],
            "name": "oogaEvolved",
            "outputs": [
                {
                    "internalType": "bool",
                    "name": "",
                    "type": "bool"
                }
            ],
            "stateMutability": "view",
            "type": "function"
        },
        {
            "inputs": [],
            "name": "oogaVerse",
            "outputs": [
                {
                    "internalType": "contract IERC721",
                    "name": "",
                    "type": "address"
                }
            ],
            "stateMutability": "view",
            "type": "function"
        },
        {
            "inputs": [],
            "name": "owner",
            "outputs": [
                {
                    "internalType": "address",
                    "name": "",
                    "type": "address"
                }
            ],
            "stateMutability": "view",
            "type": "function"
        },
        {
            "inputs": [],
            "name": "randomMekaProbability",
            "outputs": [
                {
                    "internalType": "uint256",
                    "name": "",
                    "type": "uint256"
                }
            ],
            "stateMutability": "view",
            "type": "function"
        },
        {
            "inputs": [],
            "name": "renounceOwnership",
            "outputs": [],
            "stateMutability": "nonpayable",
            "type": "function"
        },
        {
            "inputs": [],
            "name": "rngOracle",
            "outputs": [
                {
                    "internalType": "contract RNGOracle",
                    "name": "",
                    "type": "address"
                }
            ],
            "stateMutability": "view",
            "type": "function"
        },
        {
            "inputs": [],
            "name": "roboLevelupPrice",
            "outputs": [
                {
                    "internalType": "uint256",
                    "name": "",
                    "type": "uint256"
                }
            ],
            "stateMutability": "view",
            "type": "function"
        },
        {
            "inputs": [
                {
                    "internalType": "uint256",
                    "name": "",
                    "type": "uint256"
                }
            ],
            "name": "roboOogaMinimalRewardToUnstake",
            "outputs": [
                {
                    "internalType": "uint256",
                    "name": "",
                    "type": "uint256"
                }
            ],
            "stateMutability": "view",
            "type": "function"
        },
        {
            "inputs": [
                {
                    "internalType": "uint256",
                    "name": "",
                    "type": "uint256"
                }
            ],
            "name": "roboOogaRewardAttackProbabilities",
            "outputs": [
                {
                    "internalType": "uint256",
                    "name": "",
                    "type": "uint256"
                }
            ],
            "stateMutability": "view",
            "type": "function"
        },
        {
            "inputs": [
                {
                    "internalType": "uint256",
                    "name": "",
                    "type": "uint256"
                }
            ],
            "name": "roboOogaRewardPerSec",
            "outputs": [
                {
                    "internalType": "uint256",
                    "name": "",
                    "type": "uint256"
                }
            ],
            "stateMutability": "view",
            "type": "function"
        },
        {
            "inputs": [
                {
                    "internalType": "uint256[]",
                    "name": "tokenIds",
                    "type": "uint256[]"
                }
            ],
            "name": "stake",
            "outputs": [],
            "stateMutability": "nonpayable",
            "type": "function"
        },
        {
            "inputs": [],
            "name": "tokensMintedWithDMT",
            "outputs": [
                {
                    "internalType": "uint256",
                    "name": "",
                    "type": "uint256"
                }
            ],
            "stateMutability": "view",
            "type": "function"
        },
        {
            "inputs": [],
            "name": "totalMintedTokens",
            "outputs": [
                {
                    "internalType": "uint256",
                    "name": "",
                    "type": "uint256"
                }
            ],
            "stateMutability": "view",
            "type": "function"
        },
        {
            "inputs": [
                {
                    "internalType": "address",
                    "name": "newOwner",
                    "type": "address"
                }
            ],
            "name": "transferOwnership",
            "outputs": [],
            "stateMutability": "nonpayable",
            "type": "function"
        },
        {
            "inputs": [
                {
                    "internalType": "uint256[]",
                    "name": "tokenIds",
                    "type": "uint256[]"
                }
            ],
            "name": "unstake",
            "outputs": [],
            "stateMutability": "nonpayable",
            "type": "function"
        },
        {
            "inputs": [
                {
                    "internalType": "address[]",
                    "name": "accounts",
                    "type": "address[]"
                },
                {
                    "internalType": "uint256[]",
                    "name": "amounts",
                    "type": "uint256[]"
                }
            ],
            "name": "whiltelist",
            "outputs": [],
            "stateMutability": "nonpayable",
            "type": "function"
        }
    ],
    "bytecode": "0x608060405234801561001057600080fd5b506144c1806100206000396000f3fe6080604052600436106104145760003560e01c80637bf1b56211610228578063c06fda8e11610128578063e449f341116100bb578063ed3940791161008a578063f38972ed1161006f578063f38972ed14610c5e578063febeb13214610c7e578063ff75eece14610c9457600080fd5b8063ed39407914610c1e578063f2fde38b14610c3e57600080fd5b8063e449f34114610bae578063e6b4d60b14610bce578063e9a16bdb14610be4578063ecb24fb514610bfe57600080fd5b8063ca62ea37116100f7578063ca62ea3714610b1b578063cb8b61ca14610b4b578063d7c97fb414610b61578063dd2f6d4b14610b8157600080fd5b8063c06fda8e14610a88578063c37a576114610a9e578063c5119ff814610ace578063c94c7ff414610afb57600080fd5b806397881c2f116101bb578063a89da3731161018a578063b56c61051161016f578063b56c610514610a32578063b5e6230114610a48578063b69b2a6514610a6857600080fd5b8063a89da373146109fc578063ab2a405814610a1c57600080fd5b806397881c2f146109795780639c507b8b146109a65780639e158276146109c6578063a4acf051146109dc57600080fd5b806387c63d41116101f757806387c63d41146109065780638da5cb5b146109265780638e32e31614610944578063909e376d1461095957600080fd5b80637bf1b5621461084f5780637d620c141461086f5780637e5ae4b7146108a657806386e7f030146108e657600080fd5b806340070459116103335780636b906d55116102c657806370342d0c11610295578063715018a61161027a578063715018a614610804578063729a90c81461081957806375794a3c1461083957600080fd5b806370342d0c146107b657806370a96f33146107d657600080fd5b80636b906d55146106e35780636bff9506146106f95780636e845a47146107765780636fddcb461461079657600080fd5b80636415e183116103025780636415e1831461067657806367f68fac1461068c5780636817c76c1461069f5780636853709a146106b557600080fd5b8063400704591461060a578063448883d71461062a578063489da8ff146106405780635e71cc7c1461066057600080fd5b806317522d9f116103ab578063257822101161037a57806325782210146105a85780633586dd9a146105be57806338e692af146105d45780633bf27cf1146105ea57600080fd5b806317522d9f1461051057806319de5221146105485780631a48037114610568578063213edf361461058857600080fd5b80630ee9a59b116103e75780630ee9a59b1461049a5780630fbf0a93146104ba578063113bf887146104da57806312f30bde146104f057600080fd5b806301719327146104195780630181de421461044257806308a1c391146104585780630a1b494d14610478575b600080fd5b34801561042557600080fd5b5061042f607b5481565b6040519081526020015b60405180910390f35b34801561044e57600080fd5b5061042f60815481565b34801561046457600080fd5b5061042f61047336600461415d565b610cb4565b34801561048457600080fd5b5061049861049336600461418d565b610cd5565b005b3480156104a657600080fd5b5061042f6104b536600461415d565b610e24565b3480156104c657600080fd5b506104986104d53660046140ac565b610e34565b3480156104e657600080fd5b5061042f60745481565b3480156104fc57600080fd5b5061049861050b3660046140ec565b610f7f565b34801561051c57600080fd5b50606654610530906001600160a01b031681565b6040516001600160a01b039091168152602001610439565b34801561055457600080fd5b5061042f6105633660046141bc565b610fd9565b34801561057457600080fd5b50610498610583366004614018565b61100d565b34801561059457600080fd5b506104986105a336600461415d565b611091565b3480156105b457600080fd5b5061042f60775481565b3480156105ca57600080fd5b5061042f606f5481565b3480156105e057600080fd5b5061042f60805481565b3480156105f657600080fd5b50606854610530906001600160a01b031681565b34801561061657600080fd5b506104986106253660046141dd565b6113a0565b34801561063657600080fd5b5061042f60735481565b34801561064c57600080fd5b5061042f61065b36600461415d565b611408565b34801561066c57600080fd5b5061042f608c5481565b34801561068257600080fd5b5061042f606c5481565b61049861069a36600461418d565b611418565b3480156106ab57600080fd5b5061042f606a5481565b3480156106c157600080fd5b506104986106d03660046140ec565b6089805460ff1916911515919091179055565b3480156106ef57600080fd5b5061042f606e5481565b34801561070557600080fd5b5061076261071436600461415d565b608660205260009081526040902080546001820154600283015460038401546004850154600586015460069096015460ff9586169694958416946101009094046001600160a01b0316939088565b60405161043998979695949392919061424c565b34801561078257600080fd5b50610498610791366004614043565b6115a2565b3480156107a257600080fd5b506104986107b1366004613fe0565b61169a565b3480156107c257600080fd5b506104986107d13660046141bc565b6116a7565b3480156107e257600080fd5b506104986107f13660046140ec565b608d805460ff1916911515919091179055565b34801561081057600080fd5b5061049861170c565b34801561082557600080fd5b5061042f61083436600461415d565b611772565b34801561084557600080fd5b5061042f60755481565b34801561085b57600080fd5b5061042f61086a36600461415d565b611782565b34801561087b57600080fd5b5061049861088a366004614018565b6001600160a01b039091166000908152608a6020526040902055565b3480156108b257600080fd5b506108d66108c136600461415d565b60009081526087602052604090205460ff1690565b6040519015158152602001610439565b3480156108f257600080fd5b5061049861090136600461415d565b608c55565b34801561091257600080fd5b50610498610921366004614124565b611792565b34801561093257600080fd5b506033546001600160a01b0316610530565b34801561095057600080fd5b5061042f611b42565b34801561096557600080fd5b50606954610530906001600160a01b031681565b34801561098557600080fd5b506109996109943660046140ac565b611b5a565b6040516104399190614208565b3480156109b257600080fd5b506104986109c1366004613fe0565b611c2d565b3480156109d257600080fd5b5061042f607c5481565b3480156109e857600080fd5b506104986109f736600461415d565b611c36565b348015610a0857600080fd5b5061042f610a17366004613fe0565b611dc8565b348015610a2857600080fd5b5061042f606b5481565b348015610a3e57600080fd5b5061042f60795481565b348015610a5457600080fd5b5061042f610a6336600461415d565b611e1f565b348015610a7457600080fd5b50606754610530906001600160a01b031681565b348015610a9457600080fd5b5061042f607a5481565b348015610aaa57600080fd5b506108d6610ab936600461415d565b60876020526000908152604090205460ff1681565b348015610ada57600080fd5b5061042f610ae9366004613fe0565b608a6020526000908152604090205481565b348015610b0757600080fd5b50610498610b163660046140ac565b611fc3565b348015610b2757600080fd5b50610498610b363660046141bc565b60009182526086602052604090912060010155565b348015610b5757600080fd5b5061042f606d5481565b348015610b6d57600080fd5b50606554610530906001600160a01b031681565b348015610b8d57600080fd5b5061042f610b9c366004613fe0565b608b6020526000908152604090205481565b348015610bba57600080fd5b50610498610bc93660046140ac565b611fcf565b348015610bda57600080fd5b5061042f60785481565b348015610bf057600080fd5b50608d546108d69060ff1681565b348015610c0a57600080fd5b50610498610c193660046141bc565b61211a565b348015610c2a57600080fd5b50610498610c393660046140ac565b612532565b348015610c4a57600080fd5b50610498610c59366004613fe0565b6125d1565b348015610c6a57600080fd5b50610498610c79366004614018565b6126b3565b348015610c8a57600080fd5b5061042f60765481565b348015610ca057600080fd5b5061042f610caf36600461415d565b612705565b60728181548110610cc457600080fd5b600091825260209091200154905081565b608e5482610ce1611b42565b610ceb919061438d565b1115610d3e5760405162461bcd60e51b815260206004820152600360248201527f453331000000000000000000000000000000000000000000000000000000000060448201526064015b60405180910390fd5b60008115610d4f5750606d54610d54565b50606c545b6067546001600160a01b03166323b872dd3330610d7187866143c5565b6040517fffffffff0000000000000000000000000000000000000000000000000000000060e086901b1681526001600160a01b0393841660048201529290911660248301526044820152606401602060405180830381600087803b158015610dd857600080fd5b505af1158015610dec573d6000803e3d6000fd5b505050506040513d601f19601f82011682018060405250810190610e109190614108565b50610e1f338484607a54612715565b505050565b607d8181548110610cc457600080fd5b60005b81811015610e1f5760655433906001600160a01b0316636352211e858585818110610e7257634e487b7160e01b600052603260045260246000fd5b905060200201356040518263ffffffff1660e01b8152600401610e9791815260200190565b60206040518083038186803b158015610eaf57600080fd5b505afa158015610ec3573d6000803e3d6000fd5b505050506040513d601f19601f82011682018060405250810190610ee79190613ffc565b6001600160a01b031614610f3d5760405162461bcd60e51b815260206004820152600360248201527f45343100000000000000000000000000000000000000000000000000000000006044820152606401610d35565b610f6d838383818110610f6057634e487b7160e01b600052603260045260246000fd5b90506020020135336128c0565b80610f7781614419565b915050610e37565b6033546001600160a01b031633146106d05760405162461bcd60e51b815260206004820181905260248201527f4f776e61626c653a2063616c6c6572206973206e6f7420746865206f776e65726044820152606401610d35565b60828260048110610fe957600080fd5b018181548110610ff857600080fd5b90600052602060002001600091509150505481565b6067546040517f40c10f190000000000000000000000000000000000000000000000000000000081526001600160a01b03848116600483015260248201849052909116906340c10f19906044015b600060405180830381600087803b15801561107557600080fd5b505af1158015611089573d6000803e3d6000fd5b505050505050565b608d5460ff16156110e45760405162461bcd60e51b815260206004820152600360248201527f45303100000000000000000000000000000000000000000000000000000000006044820152606401610d35565b6000818152608660205260409081902060655491517f6352211e00000000000000000000000000000000000000000000000000000000815260048101849052909133916001600160a01b0390911690636352211e9060240160206040518083038186803b15801561115457600080fd5b505afa158015611168573d6000803e3d6000fd5b505050506040513d601f19601f8201168201806040525081019061118c9190613ffc565b6001600160a01b031614806111b25750600281015461010090046001600160a01b031633145b6111fe5760405162461bcd60e51b815260206004820152600360248201527f45373200000000000000000000000000000000000000000000000000000000006044820152606401610d35565b6000815460ff16600181111561122457634e487b7160e01b600052602160045260246000fd5b148015611235575060038160010154105b6112815760405162461bcd60e51b815260206004820152600360248201527f45373100000000000000000000000000000000000000000000000000000000006044820152606401610d35565b600281015460ff16156112b65761129782611e1f565b8160040160008282546112aa919061438d565b90915550504260038201555b606854606f546040517f23b872dd00000000000000000000000000000000000000000000000000000000815233600482015230602482015260448101919091526001600160a01b03909116906323b872dd90606401600060405180830381600087803b15801561132557600080fd5b505af1158015611339573d6000803e3d6000fd5b5050506001820180549150600061134f83614419565b919050555081336001600160a01b03167f2ef0b9f6641bfe4ae9f94f2b9b20ece8b29e13b163e6425c14ff8f520e79412e836001015460405161139491815260200190565b60405180910390a35050565b6033546001600160a01b031633146113fa5760405162461bcd60e51b815260206004820181905260248201527f4f776e61626c653a2063616c6c6572206973206e6f7420746865206f776e65726044820152606401610d35565b606c92909255606d55606e55565b60718181548110610cc457600080fd5b608d5460ff1661146a5760405162461bcd60e51b815260206004820152600360248201527f45303000000000000000000000000000000000000000000000000000000000006044820152606401610d35565b608c5482611476611b42565b611480919061438d565b11156114a85761148e611b42565b608c5461149b9190614402565b608d805460ff1916905591505b816114b233611dc8565b10156115005760405162461bcd60e51b815260206004820152600360248201527f45323100000000000000000000000000000000000000000000000000000000006044820152606401610d35565b336000908152608b60205260408120805484929061151f90849061438d565b909155506000905081156115365750606b5461153b565b50606a545b61154581846143c5565b3410156115945760405162461bcd60e51b815260206004820152600360248201527f45323200000000000000000000000000000000000000000000000000000000006044820152606401610d35565b610e1f338484607854612715565b6033546001600160a01b031633146115fc5760405162461bcd60e51b815260206004820181905260248201527f4f776e61626c653a2063616c6c6572206973206e6f7420746865206f776e65726044820152606401610d35565b60005b838110156116935782828281811061162757634e487b7160e01b600052603260045260246000fd5b90506020020135608a600087878581811061165257634e487b7160e01b600052603260045260246000fd5b90506020020160208101906116679190613fe0565b6001600160a01b031681526020810191909152604001600020558061168b81614419565b9150506115ff565b5050505050565b6116a381612acb565b5050565b6033546001600160a01b031633146117015760405162461bcd60e51b815260206004820181905260248201527f4f776e61626c653a2063616c6c6572206973206e6f7420746865206f776e65726044820152606401610d35565b606a91909155606b55565b6033546001600160a01b031633146117665760405162461bcd60e51b815260206004820181905260248201527f4f776e61626c653a2063616c6c6572206973206e6f7420746865206f776e65726044820152606401610d35565b6117706000612b65565b565b607e8181548110610cc457600080fd5b607f8181548110610cc457600080fd5b600054610100900460ff166117ad5760005460ff16156117b1565b303b155b6118235760405162461bcd60e51b815260206004820152602e60248201527f496e697469616c697a61626c653a20636f6e747261637420697320616c72656160448201527f647920696e697469616c697a65640000000000000000000000000000000000006064820152608401610d35565b600054610100900460ff1615801561186257600080547fffffffffffffffffffffffffffffffffffffffffffffffffffffffffffff0000166101011790555b61186a612bcf565b6118776020830183613fe0565b606580547fffffffffffffffffffffffff0000000000000000000000000000000000000000166001600160a01b03929092169190911790556118bf6040830160208401613fe0565b606680547fffffffffffffffffffffffff0000000000000000000000000000000000000000166001600160a01b03929092169190911790556119076060830160408401613fe0565b606780547fffffffffffffffffffffffff0000000000000000000000000000000000000000166001600160a01b039290921691909117905561194f6080830160608401613fe0565b606880547fffffffffffffffffffffffff0000000000000000000000000000000000000000166001600160a01b039290921691909117905561199760a0830160808401613fe0565b606980547fffffffffffffffffffffffff0000000000000000000000000000000000000000166001600160a01b0392909216919091179055620f4241607555600060768190556127106077819055608c5561d6d8608e5560788190556005607955600a607a8190556064607b55607c55608d805460ff1990811660011790915560036088556089805490911690556080819055608155611a3b6101c0830183614327565b611a4791607d91613f36565b50611a566101e0830183614327565b611a6291607e91613f36565b50611a71610200830183614327565b611a7d91607f91613f36565b5060a0820135606a5560c0820135606b5560e0820135606c55610100820135606d55610120820135606e55610140820135606f55611abf610160830183614327565b611acb91607091613f36565b50611ada610180830183614327565b611ae691607191613f36565b50611af56101a0830183614327565b611b0191607291613f36565b50610220820135607355606460745580156116a357600080547fffffffffffffffffffffffffffffffffffffffffffffffffffffffffffff00ff1690555050565b6000620f4241607554611b559190614402565b905090565b60608167ffffffffffffffff811115611b8357634e487b7160e01b600052604160045260246000fd5b604051908082528060200260200182016040528015611bac578160200160208202803683370190505b50905060005b82811015611c2657611be9848483818110611bdd57634e487b7160e01b600052603260045260246000fd5b90506020020135611e1f565b828281518110611c0957634e487b7160e01b600052603260045260246000fd5b602090810291909101015280611c1e81614419565b915050611bb2565b5092915050565b6116a381612c5c565b608e5481611c42611b42565b611c4c919061438d565b1115611c9a5760405162461bcd60e51b815260206004820152600360248201527f45333200000000000000000000000000000000000000000000000000000000006044820152606401610d35565b60775481607654611cab919061438d565b1115611cf95760405162461bcd60e51b815260206004820152600360248201527f45353100000000000000000000000000000000000000000000000000000000006044820152606401610d35565b606854606e546001600160a01b03909116906323b872dd9033903090611d209086906143c5565b6040517fffffffff0000000000000000000000000000000000000000000000000000000060e086901b1681526001600160a01b0393841660048201529290911660248301526044820152606401600060405180830381600087803b158015611d8757600080fd5b505af1158015611d9b573d6000803e3d6000fd5b50505050611dae33826001607954612715565b8060766000828254611dc0919061438d565b909155505050565b60895460009060ff16611ddc576000611de0565b6088545b6001600160a01b0383166000908152608b6020908152604080832054608a90925290912054611e0f9190614402565b611e19919061438d565b92915050565b60008181526086602052604080822081516101008101909252805483929190829060ff166001811115611e6257634e487b7160e01b600052602160045260246000fd5b6001811115611e8157634e487b7160e01b600052602160045260246000fd5b815260018201546020820152600282015460ff81161515604083015261010090046001600160a01b0316606082015260038201546080820152600482015460a0820152600582015460c082015260069091015460e0909101529050600081516001811115611eff57634e487b7160e01b600052602160045260246000fd5b1415611f77576070816020015181548110611f2a57634e487b7160e01b600052603260045260246000fd5b9060005260206000200154608660008581526020019081526020016000206003015442611f579190614402565b611f6191906143c5565b8160a00151611f70919061438d565b9392505050565b607e816020015181548110611f9c57634e487b7160e01b600052603260045260246000fd5b90600052602060002001548160c00151608054611fb99190614402565b611f7091906143c5565b6116a382826000612c7e565b611fdb82826001612c7e565b60005b81811015610e1f576086600084848481811061200a57634e487b7160e01b600052603260045260246000fd5b602090810292909201358352508101919091526040016000206002015460ff16801561208d5750336086600085858581811061205657634e487b7160e01b600052603260045260246000fd5b90506020020135815260200190815260200160002060020160019054906101000a90046001600160a01b03166001600160a01b0316145b6120d95760405162461bcd60e51b815260206004820152600360248201527f45343200000000000000000000000000000000000000000000000000000000006044820152606401610d35565b6121088383838181106120fc57634e487b7160e01b600052603260045260246000fd5b9050602002013561316f565b8061211281614419565b915050611fde565b608d5460ff161561216d5760405162461bcd60e51b815260206004820152600360248201527f45303100000000000000000000000000000000000000000000000000000000006044820152606401610d35565b808214156121bd5760405162461bcd60e51b815260206004820152600360248201527f45383100000000000000000000000000000000000000000000000000000000006044820152606401610d35565b6065546040517f6352211e0000000000000000000000000000000000000000000000000000000081526004810184905233916001600160a01b031690636352211e9060240160206040518083038186803b15801561221a57600080fd5b505afa15801561222e573d6000803e3d6000fd5b505050506040513d601f19601f820116820180604052508101906122529190613ffc565b6001600160a01b031614801561230357506065546040517f6352211e0000000000000000000000000000000000000000000000000000000081526004810183905233916001600160a01b031690636352211e9060240160206040518083038186803b1580156122c057600080fd5b505afa1580156122d4573d6000803e3d6000fd5b505050506040513d601f19601f820116820180604052508101906122f89190613ffc565b6001600160a01b0316145b61234f5760405162461bcd60e51b815260206004820152600360248201527f45383200000000000000000000000000000000000000000000000000000000006044820152606401610d35565b60008281526086602052604080822083835291206001825460ff16600181111561238957634e487b7160e01b600052602160045260246000fd5b1480156123b957506001815460ff1660018111156123b757634e487b7160e01b600052602160045260246000fd5b145b6124055760405162461bcd60e51b815260206004820152600360248201527f45383300000000000000000000000000000000000000000000000000000000006044820152606401610d35565b600182015415801561241957506001810154155b6124655760405162461bcd60e51b815260206004820152600360248201527f45383400000000000000000000000000000000000000000000000000000000006044820152606401610d35565b61246d613468565b60018301556065546040517f42966c68000000000000000000000000000000000000000000000000000000008152600481018590526001600160a01b03909116906342966c6890602401600060405180830381600087803b1580156124d157600080fd5b505af11580156124e5573d6000803e3d6000fd5b505050600183015460408051878152602081019290925285925033917fa52b122853769966325e268b87626455fe921b1f137288cd6e1ed928135319eb910160405180910390a350505050565b608d5460ff16156125855760405162461bcd60e51b815260206004820152600360248201527f45303100000000000000000000000000000000000000000000000000000000006044820152606401610d35565b60005b81811015610e1f576125bf8383838181106125b357634e487b7160e01b600052603260045260246000fd5b90506020020135613584565b806125c981614419565b915050612588565b6033546001600160a01b0316331461262b5760405162461bcd60e51b815260206004820181905260248201527f4f776e61626c653a2063616c6c6572206973206e6f7420746865206f776e65726044820152606401610d35565b6001600160a01b0381166126a75760405162461bcd60e51b815260206004820152602660248201527f4f776e61626c653a206e6577206f776e657220697320746865207a65726f206160448201527f64647265737300000000000000000000000000000000000000000000000000006064820152608401610d35565b6126b081612b65565b50565b6067546040517f9dc29fac0000000000000000000000000000000000000000000000000000000081526001600160a01b0384811660048301526024820184905290911690639dc29fac9060440161105b565b60708181548110610cc457600080fd5b60005b8381101561169357607c546066546040517fcd4b691400000000000000000000000000000000000000000000000000000000815260646004820152600092916001600160a01b03169063cd4b691490602401602060405180830381600087803b15801561278457600080fd5b505af1158015612798573d6000803e3d6000fd5b505050506040513d601f19601f820116820180604052508101906127bc9190614175565b109050600081156127d7576127d087612acb565b90506127e3565b6127e087612c5c565b90505b60008411801561288757506066546040517fcd4b69140000000000000000000000000000000000000000000000000000000081526064600482015285916001600160a01b03169063cd4b691490602401602060405180830381600087803b15801561284d57600080fd5b505af1158015612861573d6000803e3d6000fd5b505050506040513d601f19601f820116820180604052508101906128859190614175565b105b1561289b576128968188613779565b6128ab565b84156128ab576128ab81886128c0565b505080806128b890614419565b915050612718565b6000828152608660205260409081902060655491517f23b872dd0000000000000000000000000000000000000000000000000000000081526001600160a01b03848116600483015230602483015260448201869052919291909116906323b872dd90606401600060405180830381600087803b15801561293f57600080fd5b505af1158015612953573d6000803e3d6000fd5b5050505060028101805460017fffffffffffffffffffffff0000000000000000000000000000000000000000009091166101006001600160a01b0386160217811790915542600383015560006004830155815460ff1660018111156129c857634e487b7160e01b600052602160045260246000fd5b1415612a9057607e8160010154815481106129f357634e487b7160e01b600052603260045260246000fd5b906000526020600020015460816000828254612a0f919061438d565b90915550506080546005820155600181015415612a90576082816001015460048110612a4b57634e487b7160e01b600052603260045260246000fd5b01546006820155600181015460829060048110612a7857634e487b7160e01b600052603260045260246000fd5b01805460018101825560009182526020909120018390555b6040516001600160a01b0383169084907f5b53344e2b3d15f33a2ab59e3c199c7bbcb08f5ce03bf0a25c14f978647299a790600090a3505050565b6000806075549050612b488382604051806101000160405280600180811115612b0457634e487b7160e01b600052602160045260246000fd5b81526020016000815260200160001515815260200160006001600160a01b031681526020016000815260200160008152602001600081526020016000815250613884565b5060758054906000612b5983614419565b90915550909392505050565b603380546001600160a01b038381167fffffffffffffffffffffffff0000000000000000000000000000000000000000831681179093556040519116919082907f8be0079c531659141344cd1fd0a4f28419497f9722a3daafe3b4186f6b6457e090600090a35050565b600054610100900460ff16612c4c5760405162461bcd60e51b815260206004820152602b60248201527f496e697469616c697a61626c653a20636f6e7472616374206973206e6f74206960448201527f6e697469616c697a696e670000000000000000000000000000000000000000006064820152608401610d35565b612c54613a57565b611770613ad4565b60755460408051610100810190915260009190612b4890849083908086612b04565b60008060005b848110156130ae57600060866000888885818110612cb257634e487b7160e01b600052603260045260246000fd5b60209081029290920135835250810191909152604001600020600281015490915060ff1615156001148015612cf85750600281015461010090046001600160a01b031633145b612d445760405162461bcd60e51b815260206004820152600360248201527f45393100000000000000000000000000000000000000000000000000000000006044820152606401610d35565b6000612d69888885818110611bdd57634e487b7160e01b600052603260045260246000fd5b90506000825460ff166001811115612d9157634e487b7160e01b600052602160045260246000fd5b141561300e5760008615612eea576071836001015481548110612dc457634e487b7160e01b600052603260045260246000fd5b9060005260206000200154821015612e1e5760405162461bcd60e51b815260206004820152600360248201527f45393200000000000000000000000000000000000000000000000000000000006044820152606401610d35565b6072836001015481548110612e4357634e487b7160e01b600052603260045260246000fd5b6000918252602090912001546066546040517fcd4b6914000000000000000000000000000000000000000000000000000000008152606460048201526001600160a01b039091169063cd4b691490602401602060405180830381600087803b158015612eae57600080fd5b505af1158015612ec2573d6000803e3d6000fd5b505050506040513d601f19601f82011682018060405250810190612ee69190614175565b1090505b8015612f5e57612ef982613b5a565b888885818110612f1957634e487b7160e01b600052603260045260246000fd5b905060200201357f726c288861959eddbddaef4fb090f1e0eaae7d917f9c43a68504e4bc42b2f71983604051612f5191815260200190565b60405180910390a2613008565b600060745460735484612f7191906143c5565b612f7b91906143a5565b9050612f878184614402565b612f91908861438d565b9650612f9d818761438d565b9550898986818110612fbf57634e487b7160e01b600052603260045260246000fd5b60200291909101359050337fe74e5c9d4ac1fc33412485f18c159a0a391efe287ab3fd271123f30e6bacf4e3612ff58487614402565b60405190815260200160405180910390a3505b5061308d565b613018818661438d565b6080546005840155945087878481811061304257634e487b7160e01b600052603260045260246000fd5b90506020020135336001600160a01b03167fe74e5c9d4ac1fc33412485f18c159a0a391efe287ab3fd271123f30e6bacf4e38360405161308491815260200190565b60405180910390a35b504260038201556000600490910155806130a681614419565b915050612c84565b506130b881613b5a565b6040518181527f0693f2d9c6761dccc13ecb93b9216162e46eadef5549bbbc3b90950b348bf9d49060200160405180910390a16067546040517f40c10f19000000000000000000000000000000000000000000000000000000008152336004820152602481018490526001600160a01b03909116906340c10f1990604401600060405180830381600087803b15801561315057600080fd5b505af1158015613164573d6000803e3d6000fd5b505050505050505050565b60008181526086602052604090819020600281015460655492517f23b872dd0000000000000000000000000000000000000000000000000000000081523060048201526101009091046001600160a01b039081166024830181905260448301869052929316906323b872dd90606401600060405180830381600087803b1580156131f857600080fd5b505af115801561320c573d6000803e3d6000fd5b5050506002830180547fffffffffffffffffffffff000000000000000000000000000000000000000000169055506001825460ff16600181111561326057634e487b7160e01b600052602160045260246000fd5b141561342657607e82600101548154811061328b57634e487b7160e01b600052603260045260246000fd5b9060005260206000200154608160008282546132a79190614402565b909155505060018201541561342657600060828360010154600481106132dd57634e487b7160e01b600052603260045260246000fd5b016001608285600101546004811061330557634e487b7160e01b600052603260045260246000fd5b01546133119190614402565b8154811061332f57634e487b7160e01b600052603260045260246000fd5b9060005260206000200154905080608284600101546004811061336257634e487b7160e01b600052603260045260246000fd5b0184600601548154811061338657634e487b7160e01b600052603260045260246000fd5b906000526020600020018190555060828360010154600481106133b957634e487b7160e01b600052603260045260246000fd5b018054806133d757634e487b7160e01b600052603160045260246000fd5b6000828152602080822083017fffffffffffffffffffffffffffffffffffffffffffffffffffffffffffffffff9081018390559092019092556006808601549383526086909152604090912001555b6000600683018190556040516001600160a01b0383169185917f3a01954f64bfeed1c903bc3920f7a5639288ea25efc7a539195648519e4184a39190a3505050565b6066546040517fcd4b69140000000000000000000000000000000000000000000000000000000081526064600482015260009182916001600160a01b039091169063cd4b691490602401602060405180830381600087803b1580156134cc57600080fd5b505af11580156134e0573d6000803e3d6000fd5b505050506040513d601f19601f820116820180604052508101906135049190614175565b90506000805b607d5481101561357a57607d818154811061353557634e487b7160e01b600052603260045260246000fd5b90600052602060002001548261354b919061438d565b9150818310156135685761356081600161438d565b935050505090565b8061357281614419565b91505061350a565b5060009250505090565b621e8c518110156135d75760405162461bcd60e51b815260206004820152600360248201527f45313100000000000000000000000000000000000000000000000000000000006044820152606401610d35565b60008181526087602052604090205460ff16156136365760405162461bcd60e51b815260206004820152600360248201527f45313200000000000000000000000000000000000000000000000000000000006044820152606401610d35565b6069546040517f6352211e0000000000000000000000000000000000000000000000000000000081526004810183905233916001600160a01b031690636352211e9060240160206040518083038186803b15801561369357600080fd5b505afa1580156136a7573d6000803e3d6000fd5b505050506040513d601f19601f820116820180604052508101906136cb9190613ffc565b6001600160a01b0316146137215760405162461bcd60e51b815260206004820152600360248201527f45313300000000000000000000000000000000000000000000000000000000006044820152606401610d35565b6000818152608760205260408120805460ff1916600117905561374333612acb565b6040519091508190839033907f584ea1a98d504e99c0dd0ca5ace55f5458d725e7e20a1ebb2e5e5af38434397190600090a45050565b6137b86040518060400160405280601181526020017f6f6f67612025732061747461636b65642100000000000000000000000000000081525083613bf6565b60006137c2613c87565b6065546040517f23b872dd0000000000000000000000000000000000000000000000000000000081526001600160a01b038581166004830152306024830152604482018790529293509116906323b872dd90606401600060405180830381600087803b15801561383157600080fd5b505af1158015613845573d6000803e3d6000fd5b50506040516001600160a01b03841692508591507f25e62b5345bc3d4cc6669b9d9091c6019b1f835ba44175f80633ce4636f68aa390600090a3505050565b6065546040517f40c10f190000000000000000000000000000000000000000000000000000000081526001600160a01b0385811660048301526024820185905260009216906340c10f1990604401600060405180830381600087803b1580156138ec57600080fd5b505af1158015613900573d6000803e3d6000fd5b505050600084815260866020526040902083518154859350829060ff19166001838181111561393f57634e487b7160e01b600052602160045260246000fd5b02179055506020820151600182810191909155604083015160028301805460608601517fffffffffffffffffffffff0000000000000000000000000000000000000000009091169215157fffffffffffffffffffffff0000000000000000000000000000000000000000ff16929092176101006001600160a01b03938416021790556080840151600384015560a0840151600484015560c0840151600584015560e090930151600690920191909155835185928716917fb4c03061fb5b7fed76389d5af8f2e0ddb09f8c70d1333abbb62582835e10accb9190811115613a3557634e487b7160e01b600052602160045260246000fd5b60208087015160408051938452918301520160405180910390a3509092915050565b600054610100900460ff166117705760405162461bcd60e51b815260206004820152602b60248201527f496e697469616c697a61626c653a20636f6e7472616374206973206e6f74206960448201527f6e697469616c697a696e670000000000000000000000000000000000000000006064820152608401610d35565b600054610100900460ff16613b515760405162461bcd60e51b815260206004820152602b60248201527f496e697469616c697a61626c653a20636f6e7472616374206973206e6f74206960448201527f6e697469616c697a696e670000000000000000000000000000000000000000006064820152608401610d35565b61177033612b65565b6067546040517f40c10f19000000000000000000000000000000000000000000000000000000008152306004820152602481018390526001600160a01b03909116906340c10f1990604401600060405180830381600087803b158015613bbf57600080fd5b505af1158015613bd3573d6000803e3d6000fd5b5050505060815481613be591906143a5565b60806000828254611dc0919061438d565b6116a38282604051602401613c0c9291906142ae565b604080517fffffffffffffffffffffffffffffffffffffffffffffffffffffffffffffffe08184030181529190526020810180517bffffffffffffffffffffffffffffffffffffffffffffffffffffffff167f9710a9d000000000000000000000000000000000000000000000000000000000179052613f15565b60008060015b60038111613d0d5760828160048110613cb657634e487b7160e01b600052603260045260246000fd5b0154607f805483908110613cda57634e487b7160e01b600052603260045260246000fd5b9060005260206000200154613cef91906143c5565b613cf9908361438d565b915080613d0581614419565b915050613c8d565b6066546040517fcd4b6914000000000000000000000000000000000000000000000000000000008152600481018490526000916001600160a01b03169063cd4b691490602401602060405180830381600087803b158015613d6d57600080fd5b505af1158015613d81573d6000803e3d6000fd5b505050506040513d601f19601f82011682018060405250810190613da59190614175565b90506000600192505b60038311613f0b57600060828460048110613dd957634e487b7160e01b600052603260045260246000fd5b0154607f805486908110613dfd57634e487b7160e01b600052603260045260246000fd5b9060005260206000200154613e1291906143c5565b9050613e1e818361438d565b831015613eeb576000607f8581548110613e4857634e487b7160e01b600052603260045260246000fd5b90600052602060002001548385613e5f9190614402565b613e6991906143a5565b90506086600060828760048110613e9057634e487b7160e01b600052603260045260246000fd5b018381548110613eb057634e487b7160e01b600052603260045260246000fd5b9060005260206000200154815260200190815260200160002060020160019054906101000a90046001600160a01b0316965050505050505090565b613ef5818361438d565b9150508280613f0390614419565b935050613dae565b3094505050505090565b80516a636f6e736f6c652e6c6f67602083016000808483855afa5050505050565b828054828255906000526020600020908101928215613f71579160200282015b82811115613f71578235825591602001919060010190613f56565b50613f7d929150613f81565b5090565b5b80821115613f7d5760008155600101613f82565b60008083601f840112613fa7578182fd5b50813567ffffffffffffffff811115613fbe578182fd5b6020830191508360208260051b8501011115613fd957600080fd5b9250929050565b600060208284031215613ff1578081fd5b8135611f7081614468565b60006020828403121561400d578081fd5b8151611f7081614468565b6000806040838503121561402a578081fd5b823561403581614468565b946020939093013593505050565b60008060008060408587031215614058578182fd5b843567ffffffffffffffff8082111561406f578384fd5b61407b88838901613f96565b90965094506020870135915080821115614093578384fd5b506140a087828801613f96565b95989497509550505050565b600080602083850312156140be578182fd5b823567ffffffffffffffff8111156140d4578283fd5b6140e085828601613f96565b90969095509350505050565b6000602082840312156140fd578081fd5b8135611f708161447d565b600060208284031215614119578081fd5b8151611f708161447d565b600060208284031215614135578081fd5b813567ffffffffffffffff81111561414b578182fd5b82016102408185031215611f70578182fd5b60006020828403121561416e578081fd5b5035919050565b600060208284031215614186578081fd5b5051919050565b6000806040838503121561419f578182fd5b8235915060208301356141b18161447d565b809150509250929050565b600080604083850312156141ce578182fd5b50508035926020909101359150565b6000806000606084860312156141f1578081fd5b505081359360208301359350604090920135919050565b6020808252825182820181905260009190848201906040850190845b8181101561424057835183529284019291840191600101614224565b50909695505050505050565b610100810160028a1061426f57634e487b7160e01b600052602160045260246000fd5b988152602081019790975294151560408701526001600160a01b03939093166060860152608085019190915260a084015260c083015260e09091015290565b6040815260008351806040840152815b818110156142db57602081870181015160608684010152016142be565b818111156142ec5782606083860101525b50602083019390935250601f919091017fffffffffffffffffffffffffffffffffffffffffffffffffffffffffffffffe01601606001919050565b60008083357fffffffffffffffffffffffffffffffffffffffffffffffffffffffffffffffe184360301811261435b578283fd5b83018035915067ffffffffffffffff821115614375578283fd5b6020019150600581901b3603821315613fd957600080fd5b600082198211156143a0576143a0614452565b500190565b6000826143c057634e487b7160e01b81526012600452602481fd5b500490565b6000817fffffffffffffffffffffffffffffffffffffffffffffffffffffffffffffffff04831182151516156143fd576143fd614452565b500290565b60008282101561441457614414614452565b500390565b60007fffffffffffffffffffffffffffffffffffffffffffffffffffffffffffffffff82141561444b5761444b614452565b5060010190565b634e487b7160e01b600052601160045260246000fd5b6001600160a01b03811681146126b057600080fd5b80151581146126b057600080fdfea2646970667358221220480e65d508093a67f8101ed94ae813a8c443624b7fd6f13040d0c798e04af24e64736f6c63430008040033",
    "linkReferences": {},
    "deployedLinkReferences": {}
}