{
    "_format": "hh-sol-artifact-1",
    "contractName": "MekaApesGame",
    "sourceName": "contracts/MekaApesGame.sol",
    "abi": [
        {
            "anonymous": false,
            "inputs": [
                {
                    "indexed": false,
                    "internalType": "uint256",
                    "name": "amount",
                    "type": "uint256"
                }
            ],
            "name": "AttackReward",
            "type": "event"
        },
        {
            "anonymous": false,
            "inputs": [
                {
                    "indexed": true,
                    "internalType": "address",
                    "name": "account",
                    "type": "address"
                },
                {
                    "indexed": true,
                    "internalType": "uint256",
                    "name": "oogaId",
                    "type": "uint256"
                },
                {
                    "indexed": true,
                    "internalType": "uint256",
                    "name": "newTokenId",
                    "type": "uint256"
                }
            ],
            "name": "BabyOogaEvolve",
            "type": "event"
        },
        {
            "anonymous": false,
            "inputs": [
                {
                    "indexed": true,
                    "internalType": "address",
                    "name": "account",
                    "type": "address"
                },
                {
                    "indexed": false,
                    "internalType": "uint256",
                    "name": "amount",
                    "type": "uint256"
                }
            ],
            "name": "ClaimReward",
            "type": "event"
        },
        {
            "anonymous": false,
            "inputs": [
                {
                    "indexed": true,
                    "internalType": "address",
                    "name": "account",
                    "type": "address"
                },
                {
                    "indexed": true,
                    "internalType": "uint256",
                    "name": "oogaId",
                    "type": "uint256"
                },
                {
                    "indexed": false,
                    "internalType": "uint256",
                    "name": "newLevel",
                    "type": "uint256"
                }
            ],
            "name": "LevelUpRoboOoga",
            "type": "event"
        },
        {
            "anonymous": false,
            "inputs": [
                {
                    "indexed": true,
                    "internalType": "address",
                    "name": "account",
                    "type": "address"
                },
                {
                    "indexed": false,
                    "internalType": "uint256",
                    "name": "oogaIdSave",
                    "type": "uint256"
                },
                {
                    "indexed": true,
                    "internalType": "uint256",
                    "name": "oogaIdBurn",
                    "type": "uint256"
                },
                {
                    "indexed": false,
                    "internalType": "uint256",
                    "name": "megaLevel",
                    "type": "uint256"
                }
            ],
            "name": "MergeMekaApes",
            "type": "event"
        },
        {
            "anonymous": false,
            "inputs": [
                {
                    "indexed": true,
                    "internalType": "address",
                    "name": "account",
                    "type": "address"
                },
                {
                    "indexed": true,
                    "internalType": "uint256",
                    "name": "tokenId",
                    "type": "uint256"
                },
                {
                    "indexed": false,
                    "internalType": "uint256",
                    "name": "oogaType",
                    "type": "uint256"
                },
                {
                    "indexed": false,
                    "internalType": "uint256",
                    "name": "level",
                    "type": "uint256"
                }
            ],
            "name": "Mint",
            "type": "event"
        },
        {
            "anonymous": false,
            "inputs": [
                {
                    "indexed": true,
                    "internalType": "uint256",
                    "name": "oogaId",
                    "type": "uint256"
                },
                {
                    "indexed": true,
                    "internalType": "address",
                    "name": "tributeAccount",
                    "type": "address"
                }
            ],
            "name": "OogaAttacked",
            "type": "event"
        },
        {
            "anonymous": false,
            "inputs": [
                {
                    "indexed": true,
                    "internalType": "address",
                    "name": "previousOwner",
                    "type": "address"
                },
                {
                    "indexed": true,
                    "internalType": "address",
                    "name": "newOwner",
                    "type": "address"
                }
            ],
            "name": "OwnershipTransferred",
            "type": "event"
        },
        {
            "anonymous": false,
            "inputs": [
                {
                    "indexed": true,
                    "internalType": "uint256",
                    "name": "oogaId",
                    "type": "uint256"
                },
                {
                    "indexed": true,
                    "internalType": "address",
                    "name": "account",
                    "type": "address"
                }
            ],
            "name": "StakeOoga",
            "type": "event"
        },
        {
            "anonymous": false,
            "inputs": [
                {
                    "indexed": false,
                    "internalType": "uint256",
                    "name": "taxAmount",
                    "type": "uint256"
                }
            ],
            "name": "TaxReward",
            "type": "event"
        },
        {
            "anonymous": false,
            "inputs": [
                {
                    "indexed": true,
                    "internalType": "uint256",
                    "name": "oogaId",
                    "type": "uint256"
                },
                {
                    "indexed": true,
                    "internalType": "address",
                    "name": "account",
                    "type": "address"
                }
            ],
            "name": "UnstakeOoga",
            "type": "event"
        },
        {
            "inputs": [],
            "name": "ATTACK_CHANCE_DENOM",
            "outputs": [
                {
                    "internalType": "uint256",
                    "name": "",
                    "type": "uint256"
                }
            ],
            "stateMutability": "view",
            "type": "function"
        },
        {
            "inputs": [],
            "name": "CLAIM_TAX_DENOM",
            "outputs": [
                {
                    "internalType": "uint256",
                    "name": "",
                    "type": "uint256"
                }
            ],
            "stateMutability": "view",
            "type": "function"
        },
        {
            "inputs": [
                {
                    "internalType": "address",
                    "name": "toAddress",
                    "type": "address"
                }
            ],
            "name": "_freeMintMeka",
            "outputs": [],
            "stateMutability": "nonpayable",
            "type": "function"
        },
        {
            "inputs": [
                {
                    "internalType": "address",
                    "name": "toAddress",
                    "type": "address"
                },
                {
                    "internalType": "uint256",
                    "name": "amount",
                    "type": "uint256"
                }
            ],
            "name": "_freeMintOG",
            "outputs": [],
            "stateMutability": "nonpayable",
            "type": "function"
        },
        {
            "inputs": [
                {
                    "internalType": "address",
                    "name": "toAddress",
                    "type": "address"
                }
            ],
            "name": "_freeMintRobo",
            "outputs": [],
            "stateMutability": "nonpayable",
            "type": "function"
        },
        {
            "inputs": [
                {
                    "internalType": "address",
                    "name": "account",
                    "type": "address"
                }
            ],
            "name": "allowedToMint",
            "outputs": [
                {
                    "internalType": "uint256",
                    "name": "",
                    "type": "uint256"
                }
            ],
            "stateMutability": "view",
            "type": "function"
        },
        {
            "inputs": [
                {
                    "internalType": "uint256",
                    "name": "mintOGprice_",
                    "type": "uint256"
                },
                {
                    "internalType": "uint256",
                    "name": "mintOGstakePrice_",
                    "type": "uint256"
                },
                {
                    "internalType": "uint256",
                    "name": "mintDMTstakePrice_",
                    "type": "uint256"
                }
            ],
            "name": "changeMintERC20Price",
            "outputs": [],
            "stateMutability": "nonpayable",
            "type": "function"
        },
        {
            "inputs": [
                {
                    "internalType": "uint256",
                    "name": "mintPrice_",
                    "type": "uint256"
                },
                {
                    "internalType": "uint256",
                    "name": "mintStakePrice_",
                    "type": "uint256"
                }
            ],
            "name": "changeMintPrice",
            "outputs": [],
            "stateMutability": "nonpayable",
            "type": "function"
        },
        {
            "inputs": [
                {
                    "internalType": "uint256",
                    "name": "tokenId",
                    "type": "uint256"
                }
            ],
            "name": "claimAvailableAmount",
            "outputs": [
                {
                    "internalType": "uint256",
                    "name": "",
                    "type": "uint256"
                }
            ],
            "stateMutability": "view",
            "type": "function"
        },
        {
            "inputs": [
                {
                    "internalType": "uint256[]",
                    "name": "tokenIds",
                    "type": "uint256[]"
                }
            ],
            "name": "claimAvailableAmountMultipleTokens",
            "outputs": [
                {
                    "internalType": "uint256[]",
                    "name": "result",
                    "type": "uint256[]"
                }
            ],
            "stateMutability": "view",
            "type": "function"
        },
        {
            "inputs": [
                {
                    "internalType": "uint256[]",
                    "name": "tokenIds",
                    "type": "uint256[]"
                }
            ],
            "name": "claimReward",
            "outputs": [],
            "stateMutability": "nonpayable",
            "type": "function"
        },
        {
            "inputs": [],
            "name": "claimTax",
            "outputs": [
                {
                    "internalType": "uint256",
                    "name": "",
                    "type": "uint256"
                }
            ],
            "stateMutability": "view",
            "type": "function"
        },
        {
            "inputs": [],
            "name": "dmtMintAttackChance",
            "outputs": [
                {
                    "internalType": "uint256",
                    "name": "",
                    "type": "uint256"
                }
            ],
            "stateMutability": "view",
            "type": "function"
        },
        {
            "inputs": [],
            "name": "dmtToken",
            "outputs": [
                {
                    "internalType": "contract IDMT_ERC20",
                    "name": "",
                    "type": "address"
                }
            ],
            "stateMutability": "view",
            "type": "function"
        },
        {
            "inputs": [],
            "name": "erc721Contract",
            "outputs": [
                {
                    "internalType": "contract MekaApesERC721",
                    "name": "",
                    "type": "address"
                }
            ],
            "stateMutability": "view",
            "type": "function"
        },
        {
            "inputs": [],
            "name": "ethMintAttackChance",
            "outputs": [
                {
                    "internalType": "uint256",
                    "name": "",
                    "type": "uint256"
                }
            ],
            "stateMutability": "view",
            "type": "function"
        },
        {
            "inputs": [
                {
                    "internalType": "uint256[]",
                    "name": "tokenIds",
                    "type": "uint256[]"
                }
            ],
            "name": "evolveBabyOogas",
            "outputs": [],
            "stateMutability": "nonpayable",
            "type": "function"
        },
        {
            "inputs": [
                {
                    "components": [
                        {
                            "internalType": "contract MekaApesERC721",
                            "name": "erc721Contract_",
                            "type": "address"
                        },
                        {
                            "internalType": "contract RNGOracle",
                            "name": "rngOracle_",
                            "type": "address"
                        },
                        {
                            "internalType": "contract OogearERC20",
                            "name": "ogToken_",
                            "type": "address"
                        },
                        {
                            "internalType": "contract IDMT_ERC20",
                            "name": "dmtToken_",
                            "type": "address"
                        },
                        {
                            "internalType": "contract IERC721",
                            "name": "oogaVerse_",
                            "type": "address"
                        },
                        {
                            "internalType": "uint256",
                            "name": "mintPrice_",
                            "type": "uint256"
                        },
                        {
                            "internalType": "uint256",
                            "name": "mintStakePrice_",
                            "type": "uint256"
                        },
                        {
                            "internalType": "uint256",
                            "name": "mintOGprice_",
                            "type": "uint256"
                        },
                        {
                            "internalType": "uint256",
                            "name": "mintOGstakePrice_",
                            "type": "uint256"
                        },
                        {
                            "internalType": "uint256",
                            "name": "mintDMTstakePrice_",
                            "type": "uint256"
                        },
                        {
                            "internalType": "uint256",
                            "name": "roboLevelupPrice_",
                            "type": "uint256"
                        },
                        {
                            "internalType": "uint256",
                            "name": "mekaMergePrice_",
                            "type": "uint256"
                        },
                        {
                            "internalType": "uint256",
                            "name": "roboOogaRewardPerSec_",
                            "type": "uint256"
                        },
                        {
                            "internalType": "uint256",
                            "name": "roboOogaMinimalRewardToUnstake_",
                            "type": "uint256"
                        },
                        {
                            "internalType": "uint256",
                            "name": "claimTax_",
                            "type": "uint256"
                        }
                    ],
                    "internalType": "struct InitParams",
                    "name": "initParams",
                    "type": "tuple"
                }
            ],
            "name": "initialize",
            "outputs": [],
            "stateMutability": "nonpayable",
            "type": "function"
        },
        {
            "inputs": [
                {
                    "internalType": "uint256",
                    "name": "oogaId",
                    "type": "uint256"
                }
            ],
            "name": "isBabyOogaEvolved",
            "outputs": [
                {
                    "internalType": "bool",
                    "name": "",
                    "type": "bool"
                }
            ],
            "stateMutability": "view",
            "type": "function"
        },
        {
            "inputs": [
                {
                    "internalType": "uint256",
                    "name": "tokenId",
                    "type": "uint256"
                }
            ],
            "name": "levelUpRoboOooga",
            "outputs": [],
            "stateMutability": "nonpayable",
            "type": "function"
        },
        {
            "inputs": [],
            "name": "maxMintWithDMT",
            "outputs": [
                {
                    "internalType": "uint256",
                    "name": "",
                    "type": "uint256"
                }
            ],
            "stateMutability": "view",
            "type": "function"
        },
        {
            "inputs": [],
            "name": "mekaMergePrice",
            "outputs": [
                {
                    "internalType": "uint256",
                    "name": "",
                    "type": "uint256"
                }
            ],
            "stateMutability": "view",
            "type": "function"
        },
        {
            "inputs": [
                {
                    "internalType": "uint256",
                    "name": "tokenIdSave",
                    "type": "uint256"
                },
                {
                    "internalType": "uint256",
                    "name": "tokenIdBurn",
                    "type": "uint256"
                }
            ],
            "name": "mergeMekaApes",
            "outputs": [],
            "stateMutability": "nonpayable",
            "type": "function"
        },
        {
            "inputs": [
                {
                    "internalType": "uint256",
                    "name": "amount",
                    "type": "uint256"
                },
                {
                    "internalType": "bool",
                    "name": "toStake",
                    "type": "bool"
                }
            ],
            "name": "mint",
            "outputs": [],
            "stateMutability": "payable",
            "type": "function"
        },
        {
            "inputs": [],
            "name": "mintDMTstakePrice",
            "outputs": [
                {
                    "internalType": "uint256",
                    "name": "",
                    "type": "uint256"
                }
            ],
            "stateMutability": "view",
            "type": "function"
        },
        {
            "inputs": [],
            "name": "mintOGprice",
            "outputs": [
                {
                    "internalType": "uint256",
                    "name": "",
                    "type": "uint256"
                }
            ],
            "stateMutability": "view",
            "type": "function"
        },
        {
            "inputs": [],
            "name": "mintOGstakePrice",
            "outputs": [
                {
                    "internalType": "uint256",
                    "name": "",
                    "type": "uint256"
                }
            ],
            "stateMutability": "view",
            "type": "function"
        },
        {
            "inputs": [],
            "name": "mintPrice",
            "outputs": [
                {
                    "internalType": "uint256",
                    "name": "",
                    "type": "uint256"
                }
            ],
            "stateMutability": "view",
            "type": "function"
        },
        {
            "inputs": [],
            "name": "mintStakePrice",
            "outputs": [
                {
                    "internalType": "uint256",
                    "name": "",
                    "type": "uint256"
                }
            ],
            "stateMutability": "view",
            "type": "function"
        },
        {
            "inputs": [
                {
                    "internalType": "uint256",
                    "name": "amount",
                    "type": "uint256"
                }
            ],
            "name": "mintWithDMT",
            "outputs": [],
            "stateMutability": "nonpayable",
            "type": "function"
        },
        {
            "inputs": [
                {
                    "internalType": "uint256",
                    "name": "amount",
                    "type": "uint256"
                },
                {
                    "internalType": "bool",
                    "name": "toStake",
                    "type": "bool"
                }
            ],
            "name": "mintWithOG",
            "outputs": [],
            "stateMutability": "nonpayable",
            "type": "function"
        },
        {
            "inputs": [],
            "name": "nextTokenId",
            "outputs": [
                {
                    "internalType": "uint256",
                    "name": "",
                    "type": "uint256"
                }
            ],
            "stateMutability": "view",
            "type": "function"
        },
        {
            "inputs": [],
            "name": "ogMintAttackChance",
            "outputs": [
                {
                    "internalType": "uint256",
                    "name": "",
                    "type": "uint256"
                }
            ],
            "stateMutability": "view",
            "type": "function"
        },
        {
            "inputs": [],
            "name": "ogToken",
            "outputs": [
                {
                    "internalType": "contract OogearERC20",
                    "name": "",
                    "type": "address"
                }
            ],
            "stateMutability": "view",
            "type": "function"
        },
        {
            "inputs": [
                {
                    "internalType": "uint256",
                    "name": "",
                    "type": "uint256"
                }
            ],
            "name": "oogaAttributes",
            "outputs": [
                {
                    "internalType": "enum OogaType",
                    "name": "oogaType",
                    "type": "uint8"
                },
                {
                    "internalType": "uint256",
                    "name": "level",
                    "type": "uint256"
                },
                {
                    "internalType": "bool",
                    "name": "staked",
                    "type": "bool"
                },
                {
                    "internalType": "address",
                    "name": "stakedOwner",
                    "type": "address"
                },
                {
                    "internalType": "uint256",
                    "name": "lastClaimTimestamp",
                    "type": "uint256"
                }
            ],
            "stateMutability": "view",
            "type": "function"
        },
        {
            "inputs": [
                {
                    "internalType": "uint256",
                    "name": "",
                    "type": "uint256"
                }
            ],
            "name": "oogaEvolved",
            "outputs": [
                {
                    "internalType": "bool",
                    "name": "",
                    "type": "bool"
                }
            ],
            "stateMutability": "view",
            "type": "function"
        },
        {
            "inputs": [],
            "name": "oogaVerse",
            "outputs": [
                {
                    "internalType": "contract IERC721",
                    "name": "",
                    "type": "address"
                }
            ],
            "stateMutability": "view",
            "type": "function"
        },
        {
            "inputs": [],
            "name": "owner",
            "outputs": [
                {
                    "internalType": "address",
                    "name": "",
                    "type": "address"
                }
            ],
            "stateMutability": "view",
            "type": "function"
        },
        {
            "inputs": [],
            "name": "renounceOwnership",
            "outputs": [],
            "stateMutability": "nonpayable",
            "type": "function"
        },
        {
            "inputs": [],
            "name": "rngOracle",
            "outputs": [
                {
                    "internalType": "contract RNGOracle",
                    "name": "",
                    "type": "address"
                }
            ],
            "stateMutability": "view",
            "type": "function"
        },
        {
            "inputs": [],
            "name": "roboLevelupPrice",
            "outputs": [
                {
                    "internalType": "uint256",
                    "name": "",
                    "type": "uint256"
                }
            ],
            "stateMutability": "view",
            "type": "function"
        },
        {
            "inputs": [],
            "name": "roboOogaMinimalRewardToUnstake",
            "outputs": [
                {
                    "internalType": "uint256",
                    "name": "",
                    "type": "uint256"
                }
            ],
            "stateMutability": "view",
            "type": "function"
        },
        {
            "inputs": [],
            "name": "roboOogaRewardPerSec",
            "outputs": [
                {
                    "internalType": "uint256",
                    "name": "",
                    "type": "uint256"
                }
            ],
            "stateMutability": "view",
            "type": "function"
        },
        {
            "inputs": [
                {
                    "internalType": "uint256[]",
                    "name": "tokenIds",
                    "type": "uint256[]"
                }
            ],
            "name": "stake",
            "outputs": [],
            "stateMutability": "nonpayable",
            "type": "function"
        },
        {
            "inputs": [],
            "name": "tokensMintedWithDMT",
            "outputs": [
                {
                    "internalType": "uint256",
                    "name": "",
                    "type": "uint256"
                }
            ],
            "stateMutability": "view",
            "type": "function"
        },
        {
            "inputs": [],
            "name": "totalMintedTokens",
            "outputs": [
                {
                    "internalType": "uint256",
                    "name": "",
                    "type": "uint256"
                }
            ],
            "stateMutability": "view",
            "type": "function"
        },
        {
            "inputs": [
                {
                    "internalType": "address",
                    "name": "newOwner",
                    "type": "address"
                }
            ],
            "name": "transferOwnership",
            "outputs": [],
            "stateMutability": "nonpayable",
            "type": "function"
        },
        {
            "inputs": [
                {
                    "internalType": "uint256[]",
                    "name": "tokenIds",
                    "type": "uint256[]"
                }
            ],
            "name": "unstake",
            "outputs": [],
            "stateMutability": "nonpayable",
            "type": "function"
        }
    ],
    "bytecode": "0x608060405234801561001057600080fd5b50614aaf806100206000396000f3fe6080604052600436106102935760003560e01c80637e5ae4b71161015a578063c06fda8e116100c1578063e449f3411161007a578063e449f341146109dd578063e6b4d60b14610a06578063ecb24fb514610a31578063ed39407914610a5a578063f2fde38b14610a83578063febeb13214610aac57610293565b8063c06fda8e146108cb578063c37a5761146108f6578063c94c7ff414610933578063cb8b61ca1461095c578063d7c97fb414610987578063e10da726146109b257610293565b8063a4acf05111610113578063a4acf051146107a7578063a89da373146107d0578063ab2a40581461080d578063b56c610514610838578063b5e6230114610863578063b69b2a65146108a057610293565b80637e5ae4b7146106835780638da5cb5b146106c05780638e32e316146106eb578063909e376d1461071657806397881c2f146107415780639c507b8b1461077e57610293565b806340070459116101fe5780636b906d55116101b75780636b906d55146105835780636bff9506146105ae5780636fddcb46146105ef57806370342d0c14610618578063715018a61461064157806375794a3c1461065857610293565b80634007045914610494578063448883d7146104bd5780635b1af7f4146104e85780636415e1831461051157806367f68fac1461053c5780636817c76c1461055857610293565b80631b68ef0a116102505780631b68ef0a146103945780631f445c80146103bf578063213edf36146103ea57806325782210146104135780633586dd9a1461043e5780633bf27cf11461046957610293565b806301719327146102985780630a1b494d146102c35780630fbf0a93146102ec578063113bf8871461031557806317522d9f146103405780631a4803711461036b575b600080fd5b3480156102a457600080fd5b506102ad610ad7565b6040516102ba9190614209565b60405180910390f35b3480156102cf57600080fd5b506102ea60048036038101906102e5919061394a565b610add565b005b3480156102f857600080fd5b50610313600480360381019061030e9190613793565b610bc5565b005b34801561032157600080fd5b5061032a610c34565b6040516103379190614209565b60405180910390f35b34801561034c57600080fd5b50610355610c3a565b6040516103629190613efa565b60405180910390f35b34801561037757600080fd5b50610392600480360381019061038d9190613757565b610c60565b005b3480156103a057600080fd5b506103a9610cf3565b6040516103b69190614209565b60405180910390f35b3480156103cb57600080fd5b506103d4610cf9565b6040516103e19190614209565b60405180910390f35b3480156103f657600080fd5b50610411600480360381019061040c91906138f8565b610cff565b005b34801561041f57600080fd5b50610428611006565b6040516104359190614209565b60405180910390f35b34801561044a57600080fd5b5061045361100c565b6040516104609190614209565b60405180910390f35b34801561047557600080fd5b5061047e611012565b60405161048b9190613e8e565b60405180910390f35b3480156104a057600080fd5b506104bb60048036038101906104b691906139c2565b611038565b005b3480156104c957600080fd5b506104d26110ce565b6040516104df9190614209565b60405180910390f35b3480156104f457600080fd5b5061050f600480360381019061050a91906138ce565b6110d4565b005b34801561051d57600080fd5b50610526611418565b6040516105339190614209565b60405180910390f35b6105566004803603810190610551919061394a565b61141e565b005b34801561056457600080fd5b5061056d6114e2565b60405161057a9190614209565b60405180910390f35b34801561058f57600080fd5b506105986114e8565b6040516105a59190614209565b60405180910390f35b3480156105ba57600080fd5b506105d560048036038101906105d091906138f8565b6114ee565b6040516105e6959493929190613f15565b60405180910390f35b3480156105fb57600080fd5b5061061660048036038101906106119190613705565b61155e565b005b34801561062457600080fd5b5061063f600480360381019061063a9190613986565b61156b565b005b34801561064d57600080fd5b506106566115f9565b005b34801561066457600080fd5b5061066d611681565b60405161067a9190614209565b60405180910390f35b34801561068f57600080fd5b506106aa60048036038101906106a591906138f8565b611687565b6040516106b79190613e73565b60405180910390f35b3480156106cc57600080fd5b506106d56116b1565b6040516106e29190613dd6565b60405180910390f35b3480156106f757600080fd5b506107006116db565b60405161070d9190614209565b60405180910390f35b34801561072257600080fd5b5061072b6116f3565b6040516107389190613ea9565b60405180910390f35b34801561074d57600080fd5b5061076860048036038101906107639190613793565b611719565b6040516107759190613e51565b60405180910390f35b34801561078a57600080fd5b506107a560048036038101906107a09190613705565b611844565b005b3480156107b357600080fd5b506107ce60048036038101906107c991906138f8565b611851565b005b3480156107dc57600080fd5b506107f760048036038101906107f29190613705565b61196c565b6040516108049190614209565b60405180910390f35b34801561081957600080fd5b50610822611977565b60405161082f9190614209565b60405180910390f35b34801561084457600080fd5b5061084d61197d565b60405161085a9190614209565b60405180910390f35b34801561086f57600080fd5b5061088a600480360381019061088591906138f8565b611983565b6040516108979190614209565b60405180910390f35b3480156108ac57600080fd5b506108b5611a68565b6040516108c29190613edf565b60405180910390f35b3480156108d757600080fd5b506108e0611a8e565b6040516108ed9190614209565b60405180910390f35b34801561090257600080fd5b5061091d600480360381019061091891906138f8565b611a94565b60405161092a9190613e73565b60405180910390f35b34801561093f57600080fd5b5061095a60048036038101906109559190613793565b611ab4565b005b34801561096857600080fd5b50610971611ac4565b60405161097e9190614209565b60405180910390f35b34801561099357600080fd5b5061099c611aca565b6040516109a99190613ec4565b60405180910390f35b3480156109be57600080fd5b506109c7611af0565b6040516109d49190614209565b60405180910390f35b3480156109e957600080fd5b50610a0460048036038101906109ff9190613793565b611af6565b005b348015610a1257600080fd5b50610a1b611b70565b604051610a289190614209565b60405180910390f35b348015610a3d57600080fd5b50610a586004803603810190610a539190613986565b611b76565b005b348015610a6657600080fd5b50610a816004803603810190610a7c9190613793565b6120a1565b005b348015610a8f57600080fd5b50610aaa6004803603810190610aa59190613705565b61210f565b005b348015610ab857600080fd5b50610ac1612207565b604051610ace9190614209565b60405180910390f35b607b5481565b60008115610aef57606d549050610af5565b606c5490505b606760009054906101000a900473ffffffffffffffffffffffffffffffffffffffff1673ffffffffffffffffffffffffffffffffffffffff166323b872dd33308685610b419190614329565b6040518463ffffffff1660e01b8152600401610b5f93929190613df1565b602060405180830381600087803b158015610b7957600080fd5b505af1158015610b8d573d6000803e3d6000fd5b505050506040513d601f19601f82011682018060405250810190610bb191906137d8565b50610bc0338484607a5461220d565b505050565b60005b82829050811015610c2f57610c1c838383818110610c0f577f4e487b7100000000000000000000000000000000000000000000000000000000600052603260045260246000fd5b90506020020135336123ef565b8080610c279061459b565b915050610bc8565b505050565b60745481565b606660009054906101000a900473ffffffffffffffffffffffffffffffffffffffff1681565b606760009054906101000a900473ffffffffffffffffffffffffffffffffffffffff1673ffffffffffffffffffffffffffffffffffffffff166340c10f1983836040518363ffffffff1660e01b8152600401610cbd929190613e28565b600060405180830381600087803b158015610cd757600080fd5b505af1158015610ceb573d6000803e3d6000fd5b505050505050565b60715481565b60725481565b3373ffffffffffffffffffffffffffffffffffffffff16606560009054906101000a900473ffffffffffffffffffffffffffffffffffffffff1673ffffffffffffffffffffffffffffffffffffffff16636352211e836040518263ffffffff1660e01b8152600401610d719190614209565b60206040518083038186803b158015610d8957600080fd5b505afa158015610d9d573d6000803e3d6000fd5b505050506040513d601f19601f82011682018060405250810190610dc1919061372e565b73ffffffffffffffffffffffffffffffffffffffff1614610e17576040517f08c379a0000000000000000000000000000000000000000000000000000000008152600401610e0e906141e9565b60405180910390fd5b6000607c6000838152602001908152602001600020905060006002811115610e68577f4e487b7100000000000000000000000000000000000000000000000000000000600052602160045260246000fd5b8160000160009054906101000a900460ff166002811115610eb2577f4e487b7100000000000000000000000000000000000000000000000000000000600052602160045260246000fd5b148015610ec3575060038160010154105b610f02576040517f08c379a0000000000000000000000000000000000000000000000000000000008152600401610ef990614029565b60405180910390fd5b606860009054906101000a900473ffffffffffffffffffffffffffffffffffffffff1673ffffffffffffffffffffffffffffffffffffffff166323b872dd3330606f546040518463ffffffff1660e01b8152600401610f6393929190613df1565b600060405180830381600087803b158015610f7d57600080fd5b505af1158015610f91573d6000803e3d6000fd5b50505050806001016000815480929190610faa9061459b565b9190505550813373ffffffffffffffffffffffffffffffffffffffff167f2ef0b9f6641bfe4ae9f94f2b9b20ece8b29e13b163e6425c14ff8f520e79412e8360010154604051610ffa9190614209565b60405180910390a35050565b60775481565b606f5481565b606860009054906101000a900473ffffffffffffffffffffffffffffffffffffffff1681565b611040612549565b73ffffffffffffffffffffffffffffffffffffffff1661105e6116b1565b73ffffffffffffffffffffffffffffffffffffffff16146110b4576040517f08c379a00000000000000000000000000000000000000000000000000000000081526004016110ab90614109565b60405180910390fd5b82606c8190555081606d8190555080606e81905550505050565b60735481565b600060019054906101000a900460ff166110fc5760008054906101000a900460ff1615611105565b611104612551565b5b611144576040517f08c379a000000000000000000000000000000000000000000000000000000000815260040161113b906140a9565b60405180910390fd5b60008060019054906101000a900460ff161590508015611194576001600060016101000a81548160ff02191690831515021790555060016000806101000a81548160ff0219169083151502179055505b61119c612562565b8160000160208101906111af9190613853565b606560006101000a81548173ffffffffffffffffffffffffffffffffffffffff021916908373ffffffffffffffffffffffffffffffffffffffff16021790555081602001602081019061120291906138a5565b606660006101000a81548173ffffffffffffffffffffffffffffffffffffffff021916908373ffffffffffffffffffffffffffffffffffffffff160217905550816040016020810190611255919061387c565b606760006101000a81548173ffffffffffffffffffffffffffffffffffffffff021916908373ffffffffffffffffffffffffffffffffffffffff1602179055508160600160208101906112a89190613801565b606860006101000a81548173ffffffffffffffffffffffffffffffffffffffff021916908373ffffffffffffffffffffffffffffffffffffffff1602179055508160800160208101906112fb919061382a565b606960006101000a81548173ffffffffffffffffffffffffffffffffffffffff021916908373ffffffffffffffffffffffffffffffffffffffff160217905550620f4241607581905550600060768190555061271060778190555060006078819055506005607981905550600a607a819055506064607b819055508160a00135606a819055508160c00135606b819055508160e00135606c81905550816101000135606d81905550816101200135606e81905550816101400135606f81905550816101600135607081905550816101800135607181905550816101a00135607281905550816101c00135607381905550606460748190555080156114145760008060016101000a81548160ff0219169083151502179055505b5050565b606c5481565b816114283361196c565b1015611469576040517f08c379a000000000000000000000000000000000000000000000000000000000815260040161146090614169565b60405180910390fd5b6000811561147b57606b549050611481565b606a5490505b808361148d9190614329565b3410156114cf576040517f08c379a00000000000000000000000000000000000000000000000000000000081526004016114c690613fe9565b60405180910390fd5b6114dd33848460785461220d565b505050565b606a5481565b606e5481565b607c6020528060005260406000206000915090508060000160009054906101000a900460ff16908060010154908060020160009054906101000a900460ff16908060020160019054906101000a900473ffffffffffffffffffffffffffffffffffffffff16908060030154905085565b611567816125c3565b5050565b611573612549565b73ffffffffffffffffffffffffffffffffffffffff166115916116b1565b73ffffffffffffffffffffffffffffffffffffffff16146115e7576040517f08c379a00000000000000000000000000000000000000000000000000000000081526004016115de90614109565b60405180910390fd5b81606a8190555080606b819055505050565b611601612549565b73ffffffffffffffffffffffffffffffffffffffff1661161f6116b1565b73ffffffffffffffffffffffffffffffffffffffff1614611675576040517f08c379a000000000000000000000000000000000000000000000000000000000815260040161166c90614109565b60405180910390fd5b61167f6000612673565b565b60755481565b6000607d600083815260200190815260200160002060009054906101000a900460ff169050919050565b6000603360009054906101000a900473ffffffffffffffffffffffffffffffffffffffff16905090565b6000620f42416075546116ee9190614383565b905090565b606960009054906101000a900473ffffffffffffffffffffffffffffffffffffffff1681565b60608282905067ffffffffffffffff81111561175e577f4e487b7100000000000000000000000000000000000000000000000000000000600052604160045260246000fd5b60405190808252806020026020018201604052801561178c5781602001602082028036833780820191505090505b50905060005b8383905081101561183d576117e58484838181106117d9577f4e487b7100000000000000000000000000000000000000000000000000000000600052603260045260246000fd5b90506020020135611983565b82828151811061181e577f4e487b7100000000000000000000000000000000000000000000000000000000600052603260045260246000fd5b60200260200101818152505080806118359061459b565b915050611792565b5092915050565b61184d81612739565b5050565b6077548160765461186291906142a2565b11156118a3576040517f08c379a000000000000000000000000000000000000000000000000000000000815260040161189a90614049565b60405180910390fd5b606860009054906101000a900473ffffffffffffffffffffffffffffffffffffffff1673ffffffffffffffffffffffffffffffffffffffff166323b872dd333084606e546118f19190614329565b6040518463ffffffff1660e01b815260040161190f93929190613df1565b600060405180830381600087803b15801561192957600080fd5b505af115801561193d573d6000803e3d6000fd5b505050506119503382600160795461220d565b806076600082825461196291906142a2565b9250508190555050565b600060049050919050565b606b5481565b60795481565b60008060028111156119be577f4e487b7100000000000000000000000000000000000000000000000000000000600052602160045260246000fd5b607c600084815260200190815260200160002060000160009054906101000a900460ff166002811115611a1a577f4e487b7100000000000000000000000000000000000000000000000000000000600052602160045260246000fd5b1415611a5657607154607c60008481526020019081526020016000206003015442611a459190614383565b611a4f9190614329565b9050611a63565b68031708ae004544000090505b919050565b606760009054906101000a900473ffffffffffffffffffffffffffffffffffffffff1681565b607a5481565b607d6020528060005260406000206000915054906101000a900460ff1681565b611ac0828260006127eb565b5050565b606d5481565b606560009054906101000a900473ffffffffffffffffffffffffffffffffffffffff1681565b60705481565b611b02828260016127eb565b60005b82829050811015611b6b57611b58838383818110611b4c577f4e487b7100000000000000000000000000000000000000000000000000000000600052603260045260246000fd5b90506020020135612c30565b8080611b639061459b565b915050611b05565b505050565b60785481565b80821415611bb9576040517f08c379a0000000000000000000000000000000000000000000000000000000008152600401611bb090614189565b60405180910390fd5b3373ffffffffffffffffffffffffffffffffffffffff16606560009054906101000a900473ffffffffffffffffffffffffffffffffffffffff1673ffffffffffffffffffffffffffffffffffffffff16636352211e846040518263ffffffff1660e01b8152600401611c2b9190614209565b60206040518083038186803b158015611c4357600080fd5b505afa158015611c57573d6000803e3d6000fd5b505050506040513d601f19601f82011682018060405250810190611c7b919061372e565b73ffffffffffffffffffffffffffffffffffffffff16148015611d7357503373ffffffffffffffffffffffffffffffffffffffff16606560009054906101000a900473ffffffffffffffffffffffffffffffffffffffff1673ffffffffffffffffffffffffffffffffffffffff16636352211e836040518263ffffffff1660e01b8152600401611d0b9190614209565b60206040518083038186803b158015611d2357600080fd5b505afa158015611d37573d6000803e3d6000fd5b505050506040513d601f19601f82011682018060405250810190611d5b919061372e565b73ffffffffffffffffffffffffffffffffffffffff16145b611db2576040517f08c379a0000000000000000000000000000000000000000000000000000000008152600401611da990614149565b60405180910390fd5b6000607c600084815260200190815260200160002090506000607c6000848152602001908152602001600020905060016002811115611e1a577f4e487b7100000000000000000000000000000000000000000000000000000000600052602160045260246000fd5b8260000160009054906101000a900460ff166002811115611e64577f4e487b7100000000000000000000000000000000000000000000000000000000600052602160045260246000fd5b148015611ef2575060016002811115611ea6577f4e487b7100000000000000000000000000000000000000000000000000000000600052602160045260246000fd5b8160000160009054906101000a900460ff166002811115611ef0577f4e487b7100000000000000000000000000000000000000000000000000000000600052602160045260246000fd5b145b611f31576040517f08c379a0000000000000000000000000000000000000000000000000000000008152600401611f2890614129565b60405180910390fd5b60028160000160006101000a81548160ff02191690836002811115611f7f577f4e487b7100000000000000000000000000000000000000000000000000000000600052602160045260246000fd5b0217905550606660009054906101000a900473ffffffffffffffffffffffffffffffffffffffff1673ffffffffffffffffffffffffffffffffffffffff1663cd4b691460036040518263ffffffff1660e01b8152600401611fe09190613f9e565b602060405180830381600087803b158015611ffa57600080fd5b505af115801561200e573d6000803e3d6000fd5b505050506040513d601f19601f820116820180604052508101906120329190613921565b600161203e91906142a2565b8160010181905550823373ffffffffffffffffffffffffffffffffffffffff167fa52b122853769966325e268b87626455fe921b1f137288cd6e1ed928135319eb868460010154604051612093929190614224565b60405180910390a350505050565b60005b8282905081101561210a576120f78383838181106120eb577f4e487b7100000000000000000000000000000000000000000000000000000000600052603260045260246000fd5b90506020020135612d81565b80806121029061459b565b9150506120a4565b505050565b612117612549565b73ffffffffffffffffffffffffffffffffffffffff166121356116b1565b73ffffffffffffffffffffffffffffffffffffffff161461218b576040517f08c379a000000000000000000000000000000000000000000000000000000000815260040161218290614109565b60405180910390fd5b600073ffffffffffffffffffffffffffffffffffffffff168173ffffffffffffffffffffffffffffffffffffffff1614156121fb576040517f08c379a00000000000000000000000000000000000000000000000000000000081526004016121f290614009565b60405180910390fd5b61220481612673565b50565b60765481565b60005b838110156123e857600080606660009054906101000a900473ffffffffffffffffffffffffffffffffffffffff1673ffffffffffffffffffffffffffffffffffffffff1663cd4b6914600a6040518263ffffffff1660e01b81526004016122779190613f68565b602060405180830381600087803b15801561229157600080fd5b505af11580156122a5573d6000803e3d6000fd5b505050506040513d601f19601f820116820180604052508101906122c99190613921565b149050600081156122e4576122dd876125c3565b90506122f0565b6122ed87612739565b90505b6000841180156123ad575083606660009054906101000a900473ffffffffffffffffffffffffffffffffffffffff1673ffffffffffffffffffffffffffffffffffffffff1663cd4b6914607b546040518263ffffffff1660e01b81526004016123599190614209565b602060405180830381600087803b15801561237357600080fd5b505af1158015612387573d6000803e3d6000fd5b505050506040513d601f19601f820116820180604052508101906123ab9190613921565b105b156123c1576123bc8188612fc8565b6123d3565b84156123d2576123d181886123ef565b5b5b505080806123e09061459b565b915050612210565b5050505050565b6000607c60008481526020019081526020016000209050606560009054906101000a900473ffffffffffffffffffffffffffffffffffffffff1673ffffffffffffffffffffffffffffffffffffffff166323b872dd8330866040518463ffffffff1660e01b815260040161246593929190613df1565b600060405180830381600087803b15801561247f57600080fd5b505af1158015612493573d6000803e3d6000fd5b5050505060018160020160006101000a81548160ff021916908315150217905550818160020160016101000a81548173ffffffffffffffffffffffffffffffffffffffff021916908373ffffffffffffffffffffffffffffffffffffffff1602179055504281600301819055508173ffffffffffffffffffffffffffffffffffffffff16837f5b53344e2b3d15f33a2ab59e3c199c7bbcb08f5ce03bf0a25c14f978647299a760405160405180910390a3505050565b600033905090565b600061255c306130e6565b15905090565b600060019054906101000a900460ff166125b1576040517f08c379a00000000000000000000000000000000000000000000000000000000081526004016125a8906141a9565b60405180910390fd5b6125b96130f9565b6125c161314a565b565b600080607554905061265183826040518060a0016040528060016002811115612615577f4e487b7100000000000000000000000000000000000000000000000000000000600052602160045260246000fd5b815260200160008152602001600015158152602001600073ffffffffffffffffffffffffffffffffffffffff16815260200160008152506131ab565b50607560008154809291906126659061459b565b919050555080915050919050565b6000603360009054906101000a900473ffffffffffffffffffffffffffffffffffffffff16905081603360006101000a81548173ffffffffffffffffffffffffffffffffffffffff021916908373ffffffffffffffffffffffffffffffffffffffff1602179055508173ffffffffffffffffffffffffffffffffffffffff168173ffffffffffffffffffffffffffffffffffffffff167f8be0079c531659141344cd1fd0a4f28419497f9722a3daafe3b4186f6b6457e060405160405180910390a35050565b60008060755490506127c9836075546040518060a001604052806000600281111561278d577f4e487b7100000000000000000000000000000000000000000000000000000000600052602160045260246000fd5b815260200160008152602001600015158152602001600073ffffffffffffffffffffffffffffffffffffffff16815260200160008152506131ab565b50607560008154809291906127dd9061459b565b919050555080915050919050565b60008060005b85859050811015612b32576000607c600088888581811061283b577f4e487b7100000000000000000000000000000000000000000000000000000000600052603260045260246000fd5b9050602002013581526020019081526020016000209050600115158160020160009054906101000a900460ff1615151480156128c657503373ffffffffffffffffffffffffffffffffffffffff168160020160019054906101000a900473ffffffffffffffffffffffffffffffffffffffff1673ffffffffffffffffffffffffffffffffffffffff16145b612905576040517f08c379a00000000000000000000000000000000000000000000000000000000081526004016128fc90614089565b60405180910390fd5b600061294f888885818110612943577f4e487b7100000000000000000000000000000000000000000000000000000000600052603260045260246000fd5b90506020020135611983565b90506000600281111561298b577f4e487b7100000000000000000000000000000000000000000000000000000000600052602160045260246000fd5b8260000160009054906101000a900460ff1660028111156129d5577f4e487b7100000000000000000000000000000000000000000000000000000000600052602160045260246000fd5b1415612b055760008615612adc57607254821015612a28576040517f08c379a0000000000000000000000000000000000000000000000000000000008152600401612a1f90614069565b60405180910390fd5b6000606660009054906101000a900473ffffffffffffffffffffffffffffffffffffffff1673ffffffffffffffffffffffffffffffffffffffff1663cd4b691460026040518263ffffffff1660e01b8152600401612a869190613f83565b602060405180830381600087803b158015612aa057600080fd5b505af1158015612ab4573d6000803e3d6000fd5b505050506040513d601f19601f82011682018060405250810190612ad89190613921565b1490505b8015612af057612aeb826133bf565b612aff565b8186612afc91906142a2565b95505b50612b14565b8084612b1191906142a2565b93505b42826003018190555050508080612b2a9061459b565b9150506127f1565b50600081612b3f84613488565b612b4991906142a2565b9050606760009054906101000a900473ffffffffffffffffffffffffffffffffffffffff1673ffffffffffffffffffffffffffffffffffffffff166340c10f1933836040518363ffffffff1660e01b8152600401612ba8929190613e28565b600060405180830381600087803b158015612bc257600080fd5b505af1158015612bd6573d6000803e3d6000fd5b505050503373ffffffffffffffffffffffffffffffffffffffff167fba8de60c3403ec381d1d484652ea1980e3c3e56359195c92525bff4ce47ad98e82604051612c209190614209565b60405180910390a2505050505050565b6000607c60008381526020019081526020016000209050606560009054906101000a900473ffffffffffffffffffffffffffffffffffffffff1673ffffffffffffffffffffffffffffffffffffffff166323b872dd3033856040518463ffffffff1660e01b8152600401612ca693929190613df1565b600060405180830381600087803b158015612cc057600080fd5b505af1158015612cd4573d6000803e3d6000fd5b5050505060008160020160006101000a81548160ff02191690831515021790555060008160020160016101000a81548173ffffffffffffffffffffffffffffffffffffffff021916908373ffffffffffffffffffffffffffffffffffffffff1602179055503373ffffffffffffffffffffffffffffffffffffffff16827f3a01954f64bfeed1c903bc3920f7a5639288ea25efc7a539195648519e4184a360405160405180910390a35050565b621e8c51811015612dc7576040517f08c379a0000000000000000000000000000000000000000000000000000000008152600401612dbe906140c9565b60405180910390fd5b60001515607d600083815260200190815260200160002060009054906101000a900460ff16151514612e2e576040517f08c379a0000000000000000000000000000000000000000000000000000000008152600401612e25906141c9565b60405180910390fd5b3373ffffffffffffffffffffffffffffffffffffffff16606960009054906101000a900473ffffffffffffffffffffffffffffffffffffffff1673ffffffffffffffffffffffffffffffffffffffff16636352211e836040518263ffffffff1660e01b8152600401612ea09190614209565b60206040518083038186803b158015612eb857600080fd5b505afa158015612ecc573d6000803e3d6000fd5b505050506040513d601f19601f82011682018060405250810190612ef0919061372e565b73ffffffffffffffffffffffffffffffffffffffff1614612f46576040517f08c379a0000000000000000000000000000000000000000000000000000000008152600401612f3d906140e9565b60405180910390fd5b6001607d600083815260200190815260200160002060006101000a81548160ff0219169083151502179055506000612f7d336125c3565b905080823373ffffffffffffffffffffffffffffffffffffffff167f584ea1a98d504e99c0dd0ca5ace55f5458d725e7e20a1ebb2e5e5af38434397160405160405180910390a45050565b6130076040518060400160405280601181526020017f6f6f67612025732061747461636b656421000000000000000000000000000000815250836134f3565b6000309050606560009054906101000a900473ffffffffffffffffffffffffffffffffffffffff1673ffffffffffffffffffffffffffffffffffffffff166323b872dd8330866040518463ffffffff1660e01b815260040161306b93929190613df1565b600060405180830381600087803b15801561308557600080fd5b505af1158015613099573d6000803e3d6000fd5b505050508073ffffffffffffffffffffffffffffffffffffffff16837f25e62b5345bc3d4cc6669b9d9091c6019b1f835ba44175f80633ce4636f68aa360405160405180910390a3505050565b600080823b905060008111915050919050565b600060019054906101000a900460ff16613148576040517f08c379a000000000000000000000000000000000000000000000000000000000815260040161313f906141a9565b60405180910390fd5b565b600060019054906101000a900460ff16613199576040517f08c379a0000000000000000000000000000000000000000000000000000000008152600401613190906141a9565b60405180910390fd5b6131a96131a4612549565b612673565b565b6000606560009054906101000a900473ffffffffffffffffffffffffffffffffffffffff1673ffffffffffffffffffffffffffffffffffffffff166340c10f1985856040518363ffffffff1660e01b815260040161320a929190613e28565b600060405180830381600087803b15801561322457600080fd5b505af1158015613238573d6000803e3d6000fd5b5050505081607c600085815260200190815260200160002060008201518160000160006101000a81548160ff021916908360028111156132a1577f4e487b7100000000000000000000000000000000000000000000000000000000600052602160045260246000fd5b02179055506020820151816001015560408201518160020160006101000a81548160ff02191690831515021790555060608201518160020160016101000a81548173ffffffffffffffffffffffffffffffffffffffff021916908373ffffffffffffffffffffffffffffffffffffffff16021790555060808201518160030155905050828473ffffffffffffffffffffffffffffffffffffffff167fb4c03061fb5b7fed76389d5af8f2e0ddb09f8c70d1333abbb62582835e10accb8460000151600281111561339a577f4e487b7100000000000000000000000000000000000000000000000000000000600052602160045260246000fd5b85602001516040516133ad929190614224565b60405180910390a38290509392505050565b606760009054906101000a900473ffffffffffffffffffffffffffffffffffffffff1673ffffffffffffffffffffffffffffffffffffffff166340c10f1930836040518363ffffffff1660e01b815260040161341c929190613e28565b600060405180830381600087803b15801561343657600080fd5b505af115801561344a573d6000803e3d6000fd5b505050507fd65dbb97b896e997056d34c29e8e6e8b73c2dfbb3df511966ff3f6ed85f1c0548160405161347d9190614209565b60405180910390a150565b6000806074546073548461349c9190614329565b6134a691906142f8565b90507f0693f2d9c6761dccc13ecb93b9216162e46eadef5549bbbc3b90950b348bf9d4816040516134d79190614209565b60405180910390a180836134eb9190614383565b915050919050565b61358b8282604051602401613509929190613fb9565b6040516020818303038152906040527f9710a9d0000000000000000000000000000000000000000000000000000000007bffffffffffffffffffffffffffffffffffffffffffffffffffffffff19166020820180517bffffffffffffffffffffffffffffffffffffffffffffffffffffffff838183161783525050505061358f565b5050565b60008151905060006a636f6e736f6c652e6c6f679050602083016000808483855afa5050505050565b6000813590506135c7816149c1565b92915050565b6000815190506135dc816149c1565b92915050565b60008083601f8401126135f457600080fd5b8235905067ffffffffffffffff81111561360d57600080fd5b60208301915083602082028301111561362557600080fd5b9250929050565b60008135905061363b816149d8565b92915050565b600081519050613650816149d8565b92915050565b600081359050613665816149ef565b92915050565b60008135905061367a81614a06565b92915050565b60008135905061368f81614a1d565b92915050565b6000813590506136a481614a34565b92915050565b6000813590506136b981614a4b565b92915050565b60006101e082840312156136d257600080fd5b81905092915050565b6000813590506136ea81614a62565b92915050565b6000815190506136ff81614a62565b92915050565b60006020828403121561371757600080fd5b6000613725848285016135b8565b91505092915050565b60006020828403121561374057600080fd5b600061374e848285016135cd565b91505092915050565b6000806040838503121561376a57600080fd5b6000613778858286016135b8565b9250506020613789858286016136db565b9150509250929050565b600080602083850312156137a657600080fd5b600083013567ffffffffffffffff8111156137c057600080fd5b6137cc858286016135e2565b92509250509250929050565b6000602082840312156137ea57600080fd5b60006137f884828501613641565b91505092915050565b60006020828403121561381357600080fd5b600061382184828501613656565b91505092915050565b60006020828403121561383c57600080fd5b600061384a8482850161366b565b91505092915050565b60006020828403121561386557600080fd5b600061387384828501613680565b91505092915050565b60006020828403121561388e57600080fd5b600061389c84828501613695565b91505092915050565b6000602082840312156138b757600080fd5b60006138c5848285016136aa565b91505092915050565b60006101e082840312156138e157600080fd5b60006138ef848285016136bf565b91505092915050565b60006020828403121561390a57600080fd5b6000613918848285016136db565b91505092915050565b60006020828403121561393357600080fd5b6000613941848285016136f0565b91505092915050565b6000806040838503121561395d57600080fd5b600061396b858286016136db565b925050602061397c8582860161362c565b9150509250929050565b6000806040838503121561399957600080fd5b60006139a7858286016136db565b92505060206139b8858286016136db565b9150509250929050565b6000806000606084860312156139d757600080fd5b60006139e5868287016136db565b93505060206139f6868287016136db565b9250506040613a07868287016136db565b9150509250925092565b6000613a1d8383613db8565b60208301905092915050565b613a32816143b7565b82525050565b6000613a438261425d565b613a4d8185614280565b9350613a588361424d565b8060005b83811015613a89578151613a708882613a11565b9750613a7b83614273565b925050600181019050613a5c565b5085935050505092915050565b613a9f816143c9565b82525050565b613aae8161446c565b82525050565b613abd81614490565b82525050565b613acc816144b4565b82525050565b613adb816144d8565b82525050565b613aea816144fc565b82525050565b613af981614520565b82525050565b613b0881614532565b82525050565b613b1781614544565b82525050565b613b2681614556565b82525050565b6000613b3782614268565b613b418185614291565b9350613b51818560208601614568565b613b5a81614671565b840191505092915050565b6000613b72600383614291565b9150613b7d82614682565b602082019050919050565b6000613b95602683614291565b9150613ba0826146ab565b604082019050919050565b6000613bb8600383614291565b9150613bc3826146fa565b602082019050919050565b6000613bdb600383614291565b9150613be682614723565b602082019050919050565b6000613bfe600383614291565b9150613c098261474c565b602082019050919050565b6000613c21600383614291565b9150613c2c82614775565b602082019050919050565b6000613c44602e83614291565b9150613c4f8261479e565b604082019050919050565b6000613c67600383614291565b9150613c72826147ed565b602082019050919050565b6000613c8a600383614291565b9150613c9582614816565b602082019050919050565b6000613cad602083614291565b9150613cb88261483f565b602082019050919050565b6000613cd0600383614291565b9150613cdb82614868565b602082019050919050565b6000613cf3600383614291565b9150613cfe82614891565b602082019050919050565b6000613d16600383614291565b9150613d21826148ba565b602082019050919050565b6000613d39600383614291565b9150613d44826148e3565b602082019050919050565b6000613d5c602b83614291565b9150613d678261490c565b604082019050919050565b6000613d7f600383614291565b9150613d8a8261495b565b602082019050919050565b6000613da2600383614291565b9150613dad82614984565b602082019050919050565b613dc181614462565b82525050565b613dd081614462565b82525050565b6000602082019050613deb6000830184613a29565b92915050565b6000606082019050613e066000830186613a29565b613e136020830185613a29565b613e206040830184613dc7565b949350505050565b6000604082019050613e3d6000830185613a29565b613e4a6020830184613dc7565b9392505050565b60006020820190508181036000830152613e6b8184613a38565b905092915050565b6000602082019050613e886000830184613a96565b92915050565b6000602082019050613ea36000830184613aa5565b92915050565b6000602082019050613ebe6000830184613ab4565b92915050565b6000602082019050613ed96000830184613ac3565b92915050565b6000602082019050613ef46000830184613ad2565b92915050565b6000602082019050613f0f6000830184613ae1565b92915050565b600060a082019050613f2a6000830188613af0565b613f376020830187613dc7565b613f446040830186613a96565b613f516060830185613a29565b613f5e6080830184613dc7565b9695505050505050565b6000602082019050613f7d6000830184613aff565b92915050565b6000602082019050613f986000830184613b0e565b92915050565b6000602082019050613fb36000830184613b1d565b92915050565b60006040820190508181036000830152613fd38185613b2c565b9050613fe26020830184613dc7565b9392505050565b6000602082019050818103600083015261400281613b65565b9050919050565b6000602082019050818103600083015261402281613b88565b9050919050565b6000602082019050818103600083015261404281613bab565b9050919050565b6000602082019050818103600083015261406281613bce565b9050919050565b6000602082019050818103600083015261408281613bf1565b9050919050565b600060208201905081810360008301526140a281613c14565b9050919050565b600060208201905081810360008301526140c281613c37565b9050919050565b600060208201905081810360008301526140e281613c5a565b9050919050565b6000602082019050818103600083015261410281613c7d565b9050919050565b6000602082019050818103600083015261412281613ca0565b9050919050565b6000602082019050818103600083015261414281613cc3565b9050919050565b6000602082019050818103600083015261416281613ce6565b9050919050565b6000602082019050818103600083015261418281613d09565b9050919050565b600060208201905081810360008301526141a281613d2c565b9050919050565b600060208201905081810360008301526141c281613d4f565b9050919050565b600060208201905081810360008301526141e281613d72565b9050919050565b6000602082019050818103600083015261420281613d95565b9050919050565b600060208201905061421e6000830184613dc7565b92915050565b60006040820190506142396000830185613dc7565b6142466020830184613dc7565b9392505050565b6000819050602082019050919050565b600081519050919050565b600081519050919050565b6000602082019050919050565b600082825260208201905092915050565b600082825260208201905092915050565b60006142ad82614462565b91506142b883614462565b9250827fffffffffffffffffffffffffffffffffffffffffffffffffffffffffffffffff038211156142ed576142ec6145e4565b5b828201905092915050565b600061430382614462565b915061430e83614462565b92508261431e5761431d614613565b5b828204905092915050565b600061433482614462565b915061433f83614462565b9250817fffffffffffffffffffffffffffffffffffffffffffffffffffffffffffffffff0483118215151615614378576143776145e4565b5b828202905092915050565b600061438e82614462565b915061439983614462565b9250828210156143ac576143ab6145e4565b5b828203905092915050565b60006143c282614442565b9050919050565b60008115159050919050565b60006143e0826143b7565b9050919050565b60006143f2826143b7565b9050919050565b6000614404826143b7565b9050919050565b6000614416826143b7565b9050919050565b6000614428826143b7565b9050919050565b600081905061443d826149ad565b919050565b600073ffffffffffffffffffffffffffffffffffffffff82169050919050565b6000819050919050565b60006144778261447e565b9050919050565b600061448982614442565b9050919050565b600061449b826144a2565b9050919050565b60006144ad82614442565b9050919050565b60006144bf826144c6565b9050919050565b60006144d182614442565b9050919050565b60006144e3826144ea565b9050919050565b60006144f582614442565b9050919050565b60006145078261450e565b9050919050565b600061451982614442565b9050919050565b600061452b8261442f565b9050919050565b600061453d82614462565b9050919050565b600061454f82614462565b9050919050565b600061456182614462565b9050919050565b60005b8381101561458657808201518184015260208101905061456b565b83811115614595576000848401525b50505050565b60006145a682614462565b91507fffffffffffffffffffffffffffffffffffffffffffffffffffffffffffffffff8214156145d9576145d86145e4565b5b600182019050919050565b7f4e487b7100000000000000000000000000000000000000000000000000000000600052601160045260246000fd5b7f4e487b7100000000000000000000000000000000000000000000000000000000600052601260045260246000fd5b7f4e487b7100000000000000000000000000000000000000000000000000000000600052602160045260246000fd5b6000601f19601f8301169050919050565b7f4532320000000000000000000000000000000000000000000000000000000000600082015250565b7f4f776e61626c653a206e6577206f776e657220697320746865207a65726f206160008201527f6464726573730000000000000000000000000000000000000000000000000000602082015250565b7f4537310000000000000000000000000000000000000000000000000000000000600082015250565b7f4535310000000000000000000000000000000000000000000000000000000000600082015250565b7f4539320000000000000000000000000000000000000000000000000000000000600082015250565b7f4539310000000000000000000000000000000000000000000000000000000000600082015250565b7f496e697469616c697a61626c653a20636f6e747261637420697320616c72656160008201527f647920696e697469616c697a6564000000000000000000000000000000000000602082015250565b7f4531310000000000000000000000000000000000000000000000000000000000600082015250565b7f4531330000000000000000000000000000000000000000000000000000000000600082015250565b7f4f776e61626c653a2063616c6c6572206973206e6f7420746865206f776e6572600082015250565b7f4538310000000000000000000000000000000000000000000000000000000000600082015250565b7f4538330000000000000000000000000000000000000000000000000000000000600082015250565b7f4532310000000000000000000000000000000000000000000000000000000000600082015250565b7f4538320000000000000000000000000000000000000000000000000000000000600082015250565b7f496e697469616c697a61626c653a20636f6e7472616374206973206e6f74206960008201527f6e697469616c697a696e67000000000000000000000000000000000000000000602082015250565b7f4531320000000000000000000000000000000000000000000000000000000000600082015250565b7f4537320000000000000000000000000000000000000000000000000000000000600082015250565b600381106149be576149bd614642565b5b50565b6149ca816143b7565b81146149d557600080fd5b50565b6149e1816143c9565b81146149ec57600080fd5b50565b6149f8816143d5565b8114614a0357600080fd5b50565b614a0f816143e7565b8114614a1a57600080fd5b50565b614a26816143f9565b8114614a3157600080fd5b50565b614a3d8161440b565b8114614a4857600080fd5b50565b614a548161441d565b8114614a5f57600080fd5b50565b614a6b81614462565b8114614a7657600080fd5b5056fea264697066735822122095d4a5f3536f97a780196802d71d0f622c267956b25e04806a564be9679291f064736f6c63430008040033",
    "linkReferences": {},
    "deployedLinkReferences": {}
}