{
    "_format": "hh-sol-artifact-1",
    "contractName": "MekaApesGame",
    "sourceName": "contracts/MekaApesGame.sol",
    "abi": [
        {
            "anonymous": false,
            "inputs": [
                {
                    "indexed": true,
                    "internalType": "uint256",
                    "name": "claimId",
                    "type": "uint256"
                },
                {
                    "indexed": true,
                    "internalType": "uint256",
                    "name": "tokenId",
                    "type": "uint256"
                },
                {
                    "indexed": false,
                    "internalType": "uint256",
                    "name": "amount",
                    "type": "uint256"
                }
            ],
            "name": "AttackReward",
            "type": "event"
        },
        {
            "anonymous": false,
            "inputs": [
                {
                    "indexed": true,
                    "internalType": "address",
                    "name": "account",
                    "type": "address"
                },
                {
                    "indexed": true,
                    "internalType": "uint256",
                    "name": "oogaId",
                    "type": "uint256"
                },
                {
                    "indexed": true,
                    "internalType": "uint256",
                    "name": "newTokenId",
                    "type": "uint256"
                }
            ],
            "name": "BabyOogaEvolve",
            "type": "event"
        },
        {
            "anonymous": false,
            "inputs": [
                {
                    "indexed": true,
                    "internalType": "uint256",
                    "name": "claimId",
                    "type": "uint256"
                },
                {
                    "indexed": true,
                    "internalType": "address",
                    "name": "account",
                    "type": "address"
                },
                {
                    "indexed": true,
                    "internalType": "uint256",
                    "name": "tokenId",
                    "type": "uint256"
                },
                {
                    "indexed": false,
                    "internalType": "uint256",
                    "name": "amount",
                    "type": "uint256"
                }
            ],
            "name": "ClaimReward",
            "type": "event"
        },
        {
            "anonymous": false,
            "inputs": [
                {
                    "indexed": true,
                    "internalType": "address",
                    "name": "account",
                    "type": "address"
                },
                {
                    "indexed": true,
                    "internalType": "uint256",
                    "name": "oogaId",
                    "type": "uint256"
                },
                {
                    "indexed": false,
                    "internalType": "uint256",
                    "name": "newLevel",
                    "type": "uint256"
                }
            ],
            "name": "LevelUpRoboOoga",
            "type": "event"
        },
        {
            "anonymous": false,
            "inputs": [
                {
                    "indexed": true,
                    "internalType": "uint256",
                    "name": "tokenId",
                    "type": "uint256"
                },
                {
                    "indexed": false,
                    "internalType": "uint256",
                    "name": "megaLevel",
                    "type": "uint256"
                }
            ],
            "name": "MegaMerged",
            "type": "event"
        },
        {
            "anonymous": false,
            "inputs": [
                {
                    "indexed": true,
                    "internalType": "uint256",
                    "name": "tokenId",
                    "type": "uint256"
                }
            ],
            "name": "MekaConvert",
            "type": "event"
        },
        {
            "anonymous": false,
            "inputs": [
                {
                    "indexed": true,
                    "internalType": "address",
                    "name": "account",
                    "type": "address"
                },
                {
                    "indexed": false,
                    "internalType": "uint256",
                    "name": "oogaIdSave",
                    "type": "uint256"
                },
                {
                    "indexed": true,
                    "internalType": "uint256",
                    "name": "oogaIdBurn",
                    "type": "uint256"
                }
            ],
            "name": "MergeMekaApes",
            "type": "event"
        },
        {
            "anonymous": false,
            "inputs": [
                {
                    "indexed": true,
                    "internalType": "address",
                    "name": "account",
                    "type": "address"
                },
                {
                    "indexed": false,
                    "internalType": "uint256",
                    "name": "startFromTokenId",
                    "type": "uint256"
                },
                {
                    "indexed": false,
                    "internalType": "uint256",
                    "name": "amount",
                    "type": "uint256"
                }
            ],
            "name": "MintMultipleRobo",
            "type": "event"
        },
        {
            "anonymous": false,
            "inputs": [
                {
                    "indexed": true,
                    "internalType": "uint256",
                    "name": "oogaId",
                    "type": "uint256"
                },
                {
                    "indexed": true,
                    "internalType": "address",
                    "name": "tributeAccount",
                    "type": "address"
                }
            ],
            "name": "OogaAttacked",
            "type": "event"
        },
        {
            "anonymous": false,
            "inputs": [
                {
                    "indexed": true,
                    "internalType": "address",
                    "name": "previousOwner",
                    "type": "address"
                },
                {
                    "indexed": true,
                    "internalType": "address",
                    "name": "newOwner",
                    "type": "address"
                }
            ],
            "name": "OwnershipTransferred",
            "type": "event"
        },
        {
            "anonymous": false,
            "inputs": [
                {
                    "indexed": true,
                    "internalType": "uint256",
                    "name": "requestId",
                    "type": "uint256"
                },
                {
                    "indexed": false,
                    "internalType": "uint256",
                    "name": "entropy",
                    "type": "uint256"
                }
            ],
            "name": "ReceiveRandoms",
            "type": "event"
        },
        {
            "anonymous": false,
            "inputs": [
                {
                    "indexed": true,
                    "internalType": "uint256",
                    "name": "requestId",
                    "type": "uint256"
                },
                {
                    "indexed": false,
                    "internalType": "uint256",
                    "name": "amount",
                    "type": "uint256"
                },
                {
                    "indexed": false,
                    "internalType": "uint256",
                    "name": "maxNumber",
                    "type": "uint256"
                },
                {
                    "indexed": false,
                    "internalType": "uint256",
                    "name": "requestSeed",
                    "type": "uint256"
                }
            ],
            "name": "RequestRandoms",
            "type": "event"
        },
        {
            "anonymous": false,
            "inputs": [
                {
                    "indexed": true,
                    "internalType": "uint256",
                    "name": "oogaId",
                    "type": "uint256"
                },
                {
                    "indexed": true,
                    "internalType": "address",
                    "name": "account",
                    "type": "address"
                }
            ],
            "name": "StakeOoga",
            "type": "event"
        },
        {
            "anonymous": false,
            "inputs": [
                {
                    "indexed": true,
                    "internalType": "uint256",
                    "name": "claimId",
                    "type": "uint256"
                },
                {
                    "indexed": false,
                    "internalType": "uint256",
                    "name": "totalTax",
                    "type": "uint256"
                }
            ],
            "name": "TaxReward",
            "type": "event"
        },
        {
            "anonymous": false,
            "inputs": [
                {
                    "indexed": true,
                    "internalType": "uint256",
                    "name": "oogaId",
                    "type": "uint256"
                },
                {
                    "indexed": true,
                    "internalType": "address",
                    "name": "account",
                    "type": "address"
                }
            ],
            "name": "UnstakeOoga",
            "type": "event"
        },
        {
            "inputs": [],
            "name": "ATTACK_CHANCE_DENOM",
            "outputs": [
                {
                    "internalType": "uint256",
                    "name": "",
                    "type": "uint256"
                }
            ],
            "stateMutability": "view",
            "type": "function"
        },
        {
            "inputs": [],
            "name": "CLAIM_TAX_DENOM",
            "outputs": [
                {
                    "internalType": "uint256",
                    "name": "",
                    "type": "uint256"
                }
            ],
            "stateMutability": "view",
            "type": "function"
        },
        {
            "inputs": [
                {
                    "internalType": "uint256",
                    "name": "ethAttackChance",
                    "type": "uint256"
                },
                {
                    "internalType": "uint256",
                    "name": "dmtAttackChance",
                    "type": "uint256"
                },
                {
                    "internalType": "uint256",
                    "name": "ogAttackChance",
                    "type": "uint256"
                }
            ],
            "name": "_changeAttackChances",
            "outputs": [],
            "stateMutability": "nonpayable",
            "type": "function"
        },
        {
            "inputs": [
                {
                    "internalType": "uint256",
                    "name": "currentOgPriceStep_",
                    "type": "uint256"
                }
            ],
            "name": "_changeCurrentOgStep",
            "outputs": [],
            "stateMutability": "nonpayable",
            "type": "function"
        },
        {
            "inputs": [
                {
                    "internalType": "bool",
                    "name": "gameActive_",
                    "type": "bool"
                }
            ],
            "name": "_changeGameActive",
            "outputs": [],
            "stateMutability": "nonpayable",
            "type": "function"
        },
        {
            "inputs": [
                {
                    "internalType": "bool",
                    "name": "mintSale_",
                    "type": "bool"
                }
            ],
            "name": "_changeMintSale",
            "outputs": [],
            "stateMutability": "nonpayable",
            "type": "function"
        },
        {
            "inputs": [
                {
                    "internalType": "uint256",
                    "name": "mintSaleAmount_",
                    "type": "uint256"
                }
            ],
            "name": "_changeMintSaleAmount",
            "outputs": [],
            "stateMutability": "nonpayable",
            "type": "function"
        },
        {
            "inputs": [
                {
                    "internalType": "uint256",
                    "name": "tokenId",
                    "type": "uint256"
                },
                {
                    "internalType": "uint256",
                    "name": "level",
                    "type": "uint256"
                }
            ],
            "name": "_changeOogaLevel",
            "outputs": [],
            "stateMutability": "nonpayable",
            "type": "function"
        },
        {
            "inputs": [
                {
                    "internalType": "bool",
                    "name": "publicMintStarted_",
                    "type": "bool"
                }
            ],
            "name": "_changePublicMintStarted",
            "outputs": [],
            "stateMutability": "nonpayable",
            "type": "function"
        },
        {
            "inputs": [
                {
                    "internalType": "address",
                    "name": "toAddress",
                    "type": "address"
                },
                {
                    "internalType": "uint256",
                    "name": "amount",
                    "type": "uint256"
                }
            ],
            "name": "_freeBurnOG",
            "outputs": [],
            "stateMutability": "nonpayable",
            "type": "function"
        },
        {
            "inputs": [
                {
                    "internalType": "address",
                    "name": "toAddress",
                    "type": "address"
                }
            ],
            "name": "_freeMintMeka",
            "outputs": [],
            "stateMutability": "nonpayable",
            "type": "function"
        },
        {
            "inputs": [
                {
                    "internalType": "address",
                    "name": "toAddress",
                    "type": "address"
                },
                {
                    "internalType": "uint256",
                    "name": "amount",
                    "type": "uint256"
                }
            ],
            "name": "_freeMintOG",
            "outputs": [],
            "stateMutability": "nonpayable",
            "type": "function"
        },
        {
            "inputs": [
                {
                    "internalType": "address",
                    "name": "toAddress",
                    "type": "address"
                }
            ],
            "name": "_freeMintRobo",
            "outputs": [],
            "stateMutability": "nonpayable",
            "type": "function"
        },
        {
            "inputs": [
                {
                    "components": [
                        {
                            "internalType": "uint256",
                            "name": "mintAllowance",
                            "type": "uint256"
                        },
                        {
                            "internalType": "uint8",
                            "name": "_v",
                            "type": "uint8"
                        },
                        {
                            "internalType": "bytes32",
                            "name": "_r",
                            "type": "bytes32"
                        },
                        {
                            "internalType": "bytes32",
                            "name": "_s",
                            "type": "bytes32"
                        }
                    ],
                    "internalType": "struct MintSignature",
                    "name": "sig",
                    "type": "tuple"
                },
                {
                    "internalType": "address",
                    "name": "acc",
                    "type": "address"
                }
            ],
            "name": "_verifyMintSig",
            "outputs": [
                {
                    "internalType": "bool",
                    "name": "",
                    "type": "bool"
                }
            ],
            "stateMutability": "view",
            "type": "function"
        },
        {
            "inputs": [
                {
                    "internalType": "address",
                    "name": "account",
                    "type": "address"
                },
                {
                    "internalType": "uint256",
                    "name": "mintAllowance",
                    "type": "uint256"
                }
            ],
            "name": "allowedToMint",
            "outputs": [
                {
                    "internalType": "uint256",
                    "name": "",
                    "type": "uint256"
                }
            ],
            "stateMutability": "view",
            "type": "function"
        },
        {
            "inputs": [
                {
                    "internalType": "bool",
                    "name": "gameActive_",
                    "type": "bool"
                }
            ],
            "name": "changeGameActive",
            "outputs": [],
            "stateMutability": "nonpayable",
            "type": "function"
        },
        {
            "inputs": [
                {
                    "internalType": "bool",
                    "name": "mintSale_",
                    "type": "bool"
                }
            ],
            "name": "changeMintSale",
            "outputs": [],
            "stateMutability": "nonpayable",
            "type": "function"
        },
        {
            "inputs": [
                {
                    "components": [
                        {
                            "internalType": "uint256",
                            "name": "mintPrice",
                            "type": "uint256"
                        },
                        {
                            "internalType": "uint256",
                            "name": "mintStakePrice",
                            "type": "uint256"
                        },
                        {
                            "internalType": "uint256[]",
                            "name": "mintOGprice",
                            "type": "uint256[]"
                        },
                        {
                            "internalType": "uint256[]",
                            "name": "mintOGstakePrice",
                            "type": "uint256[]"
                        },
                        {
                            "internalType": "uint256",
                            "name": "mintDMTstakePrice",
                            "type": "uint256"
                        },
                        {
                            "internalType": "uint256[]",
                            "name": "roboLevelupPrice",
                            "type": "uint256[]"
                        },
                        {
                            "internalType": "uint256",
                            "name": "mekaMergePrice",
                            "type": "uint256"
                        }
                    ],
                    "internalType": "struct Prices",
                    "name": "prices_",
                    "type": "tuple"
                }
            ],
            "name": "changePrices",
            "outputs": [],
            "stateMutability": "nonpayable",
            "type": "function"
        },
        {
            "inputs": [
                {
                    "internalType": "bool",
                    "name": "publicMintStarted_",
                    "type": "bool"
                }
            ],
            "name": "changePublicMintStarted",
            "outputs": [],
            "stateMutability": "nonpayable",
            "type": "function"
        },
        {
            "inputs": [
                {
                    "internalType": "uint256",
                    "name": "tokenId",
                    "type": "uint256"
                }
            ],
            "name": "claimAvailableAmount",
            "outputs": [
                {
                    "internalType": "uint256",
                    "name": "",
                    "type": "uint256"
                }
            ],
            "stateMutability": "view",
            "type": "function"
        },
        {
            "inputs": [
                {
                    "internalType": "uint256[]",
                    "name": "tokenIds",
                    "type": "uint256[]"
                }
            ],
            "name": "claimAvailableAmountMultipleTokens",
            "outputs": [
                {
                    "internalType": "uint256[]",
                    "name": "result",
                    "type": "uint256[]"
                }
            ],
            "stateMutability": "view",
            "type": "function"
        },
        {
            "inputs": [
                {
                    "internalType": "uint256",
                    "name": "",
                    "type": "uint256"
                }
            ],
            "name": "claimRequests",
            "outputs": [
                {
                    "internalType": "uint256",
                    "name": "totalMekaReward",
                    "type": "uint256"
                }
            ],
            "stateMutability": "view",
            "type": "function"
        },
        {
            "inputs": [
                {
                    "internalType": "uint256[]",
                    "name": "tokenIds",
                    "type": "uint256[]"
                }
            ],
            "name": "claimReward",
            "outputs": [],
            "stateMutability": "nonpayable",
            "type": "function"
        },
        {
            "inputs": [],
            "name": "claimTax",
            "outputs": [
                {
                    "internalType": "uint256",
                    "name": "",
                    "type": "uint256"
                }
            ],
            "stateMutability": "view",
            "type": "function"
        },
        {
            "inputs": [],
            "name": "currentOgPriceStep",
            "outputs": [
                {
                    "internalType": "uint256",
                    "name": "",
                    "type": "uint256"
                }
            ],
            "stateMutability": "view",
            "type": "function"
        },
        {
            "inputs": [],
            "name": "dmtMintAttackChance",
            "outputs": [
                {
                    "internalType": "uint256",
                    "name": "",
                    "type": "uint256"
                }
            ],
            "stateMutability": "view",
            "type": "function"
        },
        {
            "inputs": [],
            "name": "dmtToken",
            "outputs": [
                {
                    "internalType": "contract IDMT_ERC20",
                    "name": "",
                    "type": "address"
                }
            ],
            "stateMutability": "view",
            "type": "function"
        },
        {
            "inputs": [],
            "name": "erc721Contract",
            "outputs": [
                {
                    "internalType": "contract MekaApesERC721",
                    "name": "",
                    "type": "address"
                }
            ],
            "stateMutability": "view",
            "type": "function"
        },
        {
            "inputs": [],
            "name": "ethMintAttackChance",
            "outputs": [
                {
                    "internalType": "uint256",
                    "name": "",
                    "type": "uint256"
                }
            ],
            "stateMutability": "view",
            "type": "function"
        },
        {
            "inputs": [
                {
                    "internalType": "uint256[]",
                    "name": "tokenIds",
                    "type": "uint256[]"
                }
            ],
            "name": "evolveBabyOogas",
            "outputs": [],
            "stateMutability": "nonpayable",
            "type": "function"
        },
        {
            "inputs": [],
            "name": "gameActive",
            "outputs": [
                {
                    "internalType": "bool",
                    "name": "",
                    "type": "bool"
                }
            ],
            "stateMutability": "view",
            "type": "function"
        },
        {
            "inputs": [],
            "name": "getPrices",
            "outputs": [
                {
                    "components": [
                        {
                            "internalType": "uint256",
                            "name": "mintPrice",
                            "type": "uint256"
                        },
                        {
                            "internalType": "uint256",
                            "name": "mintStakePrice",
                            "type": "uint256"
                        },
                        {
                            "internalType": "uint256",
                            "name": "mintOGprice",
                            "type": "uint256"
                        },
                        {
                            "internalType": "uint256",
                            "name": "mintOGstakePrice",
                            "type": "uint256"
                        },
                        {
                            "internalType": "uint256",
                            "name": "mintDMTstakePrice",
                            "type": "uint256"
                        },
                        {
                            "internalType": "uint256[]",
                            "name": "roboLevelupPrice",
                            "type": "uint256[]"
                        },
                        {
                            "internalType": "uint256",
                            "name": "mekaMergePrice",
                            "type": "uint256"
                        }
                    ],
                    "internalType": "struct PricesGetter",
                    "name": "",
                    "type": "tuple"
                }
            ],
            "stateMutability": "view",
            "type": "function"
        },
        {
            "inputs": [
                {
                    "components": [
                        {
                            "internalType": "contract MekaApesERC721",
                            "name": "erc721Contract_",
                            "type": "address"
                        },
                        {
                            "internalType": "contract OogearERC20",
                            "name": "ogToken_",
                            "type": "address"
                        },
                        {
                            "internalType": "contract IDMT_ERC20",
                            "name": "dmtToken_",
                            "type": "address"
                        },
                        {
                            "internalType": "contract IERC721",
                            "name": "oogaVerse_",
                            "type": "address"
                        },
                        {
                            "internalType": "address",
                            "name": "mintSigWallet_",
                            "type": "address"
                        },
                        {
                            "components": [
                                {
                                    "internalType": "uint256",
                                    "name": "mintPrice",
                                    "type": "uint256"
                                },
                                {
                                    "internalType": "uint256",
                                    "name": "mintStakePrice",
                                    "type": "uint256"
                                },
                                {
                                    "internalType": "uint256[]",
                                    "name": "mintOGprice",
                                    "type": "uint256[]"
                                },
                                {
                                    "internalType": "uint256[]",
                                    "name": "mintOGstakePrice",
                                    "type": "uint256[]"
                                },
                                {
                                    "internalType": "uint256",
                                    "name": "mintDMTstakePrice",
                                    "type": "uint256"
                                },
                                {
                                    "internalType": "uint256[]",
                                    "name": "roboLevelupPrice",
                                    "type": "uint256[]"
                                },
                                {
                                    "internalType": "uint256",
                                    "name": "mekaMergePrice",
                                    "type": "uint256"
                                }
                            ],
                            "internalType": "struct Prices",
                            "name": "prices_",
                            "type": "tuple"
                        },
                        {
                            "internalType": "uint256[]",
                            "name": "mintOGpriceSteps_",
                            "type": "uint256[]"
                        },
                        {
                            "internalType": "uint256[]",
                            "name": "roboOogaRewardPerSec_",
                            "type": "uint256[]"
                        },
                        {
                            "internalType": "uint256[]",
                            "name": "roboOogaMinimalRewardToUnstake_",
                            "type": "uint256[]"
                        },
                        {
                            "internalType": "uint256[]",
                            "name": "roboOogaRewardAttackProbabilities_",
                            "type": "uint256[]"
                        },
                        {
                            "internalType": "uint256[]",
                            "name": "megaLevelProbabilities_",
                            "type": "uint256[]"
                        },
                        {
                            "internalType": "uint256[]",
                            "name": "mekaLevelSharePoints_",
                            "type": "uint256[]"
                        },
                        {
                            "internalType": "uint256[]",
                            "name": "megaTributePoints_",
                            "type": "uint256[]"
                        },
                        {
                            "internalType": "uint256",
                            "name": "claimTax_",
                            "type": "uint256"
                        }
                    ],
                    "internalType": "struct InitParams",
                    "name": "initParams",
                    "type": "tuple"
                }
            ],
            "name": "initialize",
            "outputs": [],
            "stateMutability": "nonpayable",
            "type": "function"
        },
        {
            "inputs": [
                {
                    "internalType": "uint256",
                    "name": "oogaId",
                    "type": "uint256"
                }
            ],
            "name": "isBabyOogaEvolved",
            "outputs": [
                {
                    "internalType": "bool",
                    "name": "",
                    "type": "bool"
                }
            ],
            "stateMutability": "view",
            "type": "function"
        },
        {
            "inputs": [
                {
                    "internalType": "uint256",
                    "name": "tokenId",
                    "type": "uint256"
                }
            ],
            "name": "levelUpRoboOooga",
            "outputs": [],
            "stateMutability": "nonpayable",
            "type": "function"
        },
        {
            "inputs": [],
            "name": "maxMintWithDMT",
            "outputs": [
                {
                    "internalType": "uint256",
                    "name": "",
                    "type": "uint256"
                }
            ],
            "stateMutability": "view",
            "type": "function"
        },
        {
            "inputs": [],
            "name": "maxOgSupply",
            "outputs": [
                {
                    "internalType": "uint256",
                    "name": "",
                    "type": "uint256"
                }
            ],
            "stateMutability": "view",
            "type": "function"
        },
        {
            "inputs": [],
            "name": "maxTokenSupply",
            "outputs": [
                {
                    "internalType": "uint256",
                    "name": "",
                    "type": "uint256"
                }
            ],
            "stateMutability": "view",
            "type": "function"
        },
        {
            "inputs": [
                {
                    "internalType": "uint256",
                    "name": "",
                    "type": "uint256"
                }
            ],
            "name": "megaLevelProbabilities",
            "outputs": [
                {
                    "internalType": "uint256",
                    "name": "",
                    "type": "uint256"
                }
            ],
            "stateMutability": "view",
            "type": "function"
        },
        {
            "inputs": [
                {
                    "internalType": "uint256",
                    "name": "",
                    "type": "uint256"
                },
                {
                    "internalType": "uint256",
                    "name": "",
                    "type": "uint256"
                }
            ],
            "name": "megaStaked",
            "outputs": [
                {
                    "internalType": "uint256",
                    "name": "",
                    "type": "uint256"
                }
            ],
            "stateMutability": "view",
            "type": "function"
        },
        {
            "inputs": [
                {
                    "internalType": "uint256",
                    "name": "",
                    "type": "uint256"
                }
            ],
            "name": "megaTributePoints",
            "outputs": [
                {
                    "internalType": "uint256",
                    "name": "",
                    "type": "uint256"
                }
            ],
            "stateMutability": "view",
            "type": "function"
        },
        {
            "inputs": [
                {
                    "internalType": "uint256",
                    "name": "",
                    "type": "uint256"
                }
            ],
            "name": "mekaLevelSharePoints",
            "outputs": [
                {
                    "internalType": "uint256",
                    "name": "",
                    "type": "uint256"
                }
            ],
            "stateMutability": "view",
            "type": "function"
        },
        {
            "inputs": [],
            "name": "mekaTotalPointsStaked",
            "outputs": [
                {
                    "internalType": "uint256",
                    "name": "",
                    "type": "uint256"
                }
            ],
            "stateMutability": "view",
            "type": "function"
        },
        {
            "inputs": [],
            "name": "mekaTotalRewardPerPoint",
            "outputs": [
                {
                    "internalType": "uint256",
                    "name": "",
                    "type": "uint256"
                }
            ],
            "stateMutability": "view",
            "type": "function"
        },
        {
            "inputs": [
                {
                    "internalType": "uint256",
                    "name": "tokenIdSave",
                    "type": "uint256"
                },
                {
                    "internalType": "uint256",
                    "name": "tokenIdBurn",
                    "type": "uint256"
                }
            ],
            "name": "mergeMekaApes",
            "outputs": [],
            "stateMutability": "nonpayable",
            "type": "function"
        },
        {
            "inputs": [
                {
                    "internalType": "uint256",
                    "name": "",
                    "type": "uint256"
                }
            ],
            "name": "mergeRequests",
            "outputs": [
                {
                    "internalType": "uint256",
                    "name": "",
                    "type": "uint256"
                }
            ],
            "stateMutability": "view",
            "type": "function"
        },
        {
            "inputs": [
                {
                    "internalType": "uint256",
                    "name": "amount",
                    "type": "uint256"
                },
                {
                    "internalType": "bool",
                    "name": "toStake",
                    "type": "bool"
                },
                {
                    "components": [
                        {
                            "internalType": "uint256",
                            "name": "mintAllowance",
                            "type": "uint256"
                        },
                        {
                            "internalType": "uint8",
                            "name": "_v",
                            "type": "uint8"
                        },
                        {
                            "internalType": "bytes32",
                            "name": "_r",
                            "type": "bytes32"
                        },
                        {
                            "internalType": "bytes32",
                            "name": "_s",
                            "type": "bytes32"
                        }
                    ],
                    "internalType": "struct MintSignature",
                    "name": "sig",
                    "type": "tuple"
                }
            ],
            "name": "mint",
            "outputs": [],
            "stateMutability": "payable",
            "type": "function"
        },
        {
            "inputs": [
                {
                    "internalType": "uint256",
                    "name": "",
                    "type": "uint256"
                }
            ],
            "name": "mintOGpriceSteps",
            "outputs": [
                {
                    "internalType": "uint256",
                    "name": "",
                    "type": "uint256"
                }
            ],
            "stateMutability": "view",
            "type": "function"
        },
        {
            "inputs": [
                {
                    "internalType": "uint256",
                    "name": "",
                    "type": "uint256"
                }
            ],
            "name": "mintRequests",
            "outputs": [
                {
                    "internalType": "uint256",
                    "name": "startFromId",
                    "type": "uint256"
                },
                {
                    "internalType": "uint256",
                    "name": "amount",
                    "type": "uint256"
                },
                {
                    "internalType": "uint256",
                    "name": "attackChance",
                    "type": "uint256"
                },
                {
                    "internalType": "bool",
                    "name": "toStake",
                    "type": "bool"
                }
            ],
            "stateMutability": "view",
            "type": "function"
        },
        {
            "inputs": [],
            "name": "mintSale",
            "outputs": [
                {
                    "internalType": "bool",
                    "name": "",
                    "type": "bool"
                }
            ],
            "stateMutability": "view",
            "type": "function"
        },
        {
            "inputs": [],
            "name": "mintSaleAmount",
            "outputs": [
                {
                    "internalType": "uint256",
                    "name": "",
                    "type": "uint256"
                }
            ],
            "stateMutability": "view",
            "type": "function"
        },
        {
            "inputs": [],
            "name": "mintSigWallet",
            "outputs": [
                {
                    "internalType": "address",
                    "name": "",
                    "type": "address"
                }
            ],
            "stateMutability": "view",
            "type": "function"
        },
        {
            "inputs": [
                {
                    "internalType": "uint256",
                    "name": "amount",
                    "type": "uint256"
                }
            ],
            "name": "mintWithDMT",
            "outputs": [],
            "stateMutability": "nonpayable",
            "type": "function"
        },
        {
            "inputs": [
                {
                    "internalType": "uint256",
                    "name": "amount",
                    "type": "uint256"
                },
                {
                    "internalType": "bool",
                    "name": "toStake",
                    "type": "bool"
                }
            ],
            "name": "mintWithOG",
            "outputs": [],
            "stateMutability": "nonpayable",
            "type": "function"
        },
        {
            "inputs": [],
            "name": "nextClaimWithoutRandomId",
            "outputs": [
                {
                    "internalType": "uint256",
                    "name": "",
                    "type": "uint256"
                }
            ],
            "stateMutability": "view",
            "type": "function"
        },
        {
            "inputs": [],
            "name": "nextRandomRequestId",
            "outputs": [
                {
                    "internalType": "uint256",
                    "name": "",
                    "type": "uint256"
                }
            ],
            "stateMutability": "view",
            "type": "function"
        },
        {
            "inputs": [],
            "name": "nextTokenId",
            "outputs": [
                {
                    "internalType": "uint256",
                    "name": "",
                    "type": "uint256"
                }
            ],
            "stateMutability": "view",
            "type": "function"
        },
        {
            "inputs": [
                {
                    "internalType": "address",
                    "name": "",
                    "type": "address"
                }
            ],
            "name": "numberOfMintedOogas",
            "outputs": [
                {
                    "internalType": "uint256",
                    "name": "",
                    "type": "uint256"
                }
            ],
            "stateMutability": "view",
            "type": "function"
        },
        {
            "inputs": [],
            "name": "ogMintAttackChance",
            "outputs": [
                {
                    "internalType": "uint256",
                    "name": "",
                    "type": "uint256"
                }
            ],
            "stateMutability": "view",
            "type": "function"
        },
        {
            "inputs": [],
            "name": "ogMinted",
            "outputs": [
                {
                    "internalType": "uint256",
                    "name": "",
                    "type": "uint256"
                }
            ],
            "stateMutability": "view",
            "type": "function"
        },
        {
            "inputs": [],
            "name": "ogToken",
            "outputs": [
                {
                    "internalType": "contract OogearERC20",
                    "name": "",
                    "type": "address"
                }
            ],
            "stateMutability": "view",
            "type": "function"
        },
        {
            "inputs": [
                {
                    "internalType": "uint256",
                    "name": "",
                    "type": "uint256"
                }
            ],
            "name": "oogaAttributes",
            "outputs": [
                {
                    "internalType": "enum OogaType",
                    "name": "oogaType",
                    "type": "uint8"
                },
                {
                    "internalType": "uint256",
                    "name": "level",
                    "type": "uint256"
                },
                {
                    "internalType": "bool",
                    "name": "staked",
                    "type": "bool"
                },
                {
                    "internalType": "address",
                    "name": "stakedOwner",
                    "type": "address"
                },
                {
                    "internalType": "uint256",
                    "name": "lastClaimTimestamp",
                    "type": "uint256"
                },
                {
                    "internalType": "uint256",
                    "name": "savedReward",
                    "type": "uint256"
                },
                {
                    "internalType": "uint256",
                    "name": "lastRewardPerPoint",
                    "type": "uint256"
                },
                {
                    "internalType": "uint256",
                    "name": "stakedMegaIndex",
                    "type": "uint256"
                }
            ],
            "stateMutability": "view",
            "type": "function"
        },
        {
            "inputs": [
                {
                    "internalType": "uint256",
                    "name": "",
                    "type": "uint256"
                }
            ],
            "name": "oogaEvolved",
            "outputs": [
                {
                    "internalType": "bool",
                    "name": "",
                    "type": "bool"
                }
            ],
            "stateMutability": "view",
            "type": "function"
        },
        {
            "inputs": [],
            "name": "oogaVerse",
            "outputs": [
                {
                    "internalType": "contract IERC721",
                    "name": "",
                    "type": "address"
                }
            ],
            "stateMutability": "view",
            "type": "function"
        },
        {
            "inputs": [],
            "name": "owner",
            "outputs": [
                {
                    "internalType": "address",
                    "name": "",
                    "type": "address"
                }
            ],
            "stateMutability": "view",
            "type": "function"
        },
        {
            "inputs": [],
            "name": "prices",
            "outputs": [
                {
                    "internalType": "uint256",
                    "name": "mintPrice",
                    "type": "uint256"
                },
                {
                    "internalType": "uint256",
                    "name": "mintStakePrice",
                    "type": "uint256"
                },
                {
                    "internalType": "uint256",
                    "name": "mintDMTstakePrice",
                    "type": "uint256"
                },
                {
                    "internalType": "uint256",
                    "name": "mekaMergePrice",
                    "type": "uint256"
                }
            ],
            "stateMutability": "view",
            "type": "function"
        },
        {
            "inputs": [],
            "name": "randomMekaProbability",
            "outputs": [
                {
                    "internalType": "uint256",
                    "name": "",
                    "type": "uint256"
                }
            ],
            "stateMutability": "view",
            "type": "function"
        },
        {
            "inputs": [
                {
                    "internalType": "uint256",
                    "name": "",
                    "type": "uint256"
                }
            ],
            "name": "randomRequests",
            "outputs": [
                {
                    "internalType": "enum RandomRequestType",
                    "name": "requestType",
                    "type": "uint8"
                },
                {
                    "internalType": "address",
                    "name": "user",
                    "type": "address"
                }
            ],
            "stateMutability": "view",
            "type": "function"
        },
        {
            "inputs": [
                {
                    "internalType": "uint256",
                    "name": "requestId",
                    "type": "uint256"
                },
                {
                    "internalType": "uint256[]",
                    "name": "randoms",
                    "type": "uint256[]"
                },
                {
                    "internalType": "uint256",
                    "name": "restOfEntropy",
                    "type": "uint256"
                },
                {
                    "internalType": "uint256",
                    "name": "entropy",
                    "type": "uint256"
                }
            ],
            "name": "receiveRandoms",
            "outputs": [],
            "stateMutability": "nonpayable",
            "type": "function"
        },
        {
            "inputs": [],
            "name": "renounceOwnership",
            "outputs": [],
            "stateMutability": "nonpayable",
            "type": "function"
        },
        {
            "inputs": [
                {
                    "internalType": "uint256",
                    "name": "",
                    "type": "uint256"
                }
            ],
            "name": "roboOogaMinimalRewardToUnstake",
            "outputs": [
                {
                    "internalType": "uint256",
                    "name": "",
                    "type": "uint256"
                }
            ],
            "stateMutability": "view",
            "type": "function"
        },
        {
            "inputs": [
                {
                    "internalType": "uint256",
                    "name": "",
                    "type": "uint256"
                }
            ],
            "name": "roboOogaRewardAttackProbabilities",
            "outputs": [
                {
                    "internalType": "uint256",
                    "name": "",
                    "type": "uint256"
                }
            ],
            "stateMutability": "view",
            "type": "function"
        },
        {
            "inputs": [
                {
                    "internalType": "uint256",
                    "name": "",
                    "type": "uint256"
                }
            ],
            "name": "roboOogaRewardPerSec",
            "outputs": [
                {
                    "internalType": "uint256",
                    "name": "",
                    "type": "uint256"
                }
            ],
            "stateMutability": "view",
            "type": "function"
        },
        {
            "inputs": [
                {
                    "internalType": "uint256[]",
                    "name": "tokenIds",
                    "type": "uint256[]"
                }
            ],
            "name": "stake",
            "outputs": [],
            "stateMutability": "nonpayable",
            "type": "function"
        },
        {
            "inputs": [],
            "name": "tokensMintedWithDMT",
            "outputs": [
                {
                    "internalType": "uint256",
                    "name": "",
                    "type": "uint256"
                }
            ],
            "stateMutability": "view",
            "type": "function"
        },
        {
            "inputs": [],
            "name": "totalMintedTokens",
            "outputs": [
                {
                    "internalType": "uint256",
                    "name": "",
                    "type": "uint256"
                }
            ],
            "stateMutability": "view",
            "type": "function"
        },
        {
            "inputs": [
                {
                    "internalType": "address",
                    "name": "newOwner",
                    "type": "address"
                }
            ],
            "name": "transferOwnership",
            "outputs": [],
            "stateMutability": "nonpayable",
            "type": "function"
        },
        {
            "inputs": [
                {
                    "internalType": "uint256[]",
                    "name": "tokenIds",
                    "type": "uint256[]"
                }
            ],
            "name": "unstake",
            "outputs": [],
            "stateMutability": "nonpayable",
            "type": "function"
        }
    ],
    "bytecode": "0x608060405234801561001057600080fd5b50615c6480620000216000396000f3fe60806040526004361061053d5760003560e01c80638d6a6d87116102af578063cabf161411610179578063e9a16bdb116100d6578063f020044f1161008a578063f38972ed1161006f578063f38972ed14610fb1578063febeb13214610fd1578063ff75eece14610fe757600080fd5b8063f020044f14610f72578063f2fde38b14610f9157600080fd5b8063ecb24fb5116100bb578063ecb24fb514610f12578063ed39407914610f32578063eee21c2d14610f5257600080fd5b8063e9a16bdb14610ee2578063ec01952b14610efc57600080fd5b8063db3820641161012d578063e449f34111610112578063e449f34114610e8c578063e6b4d60b14610eac578063e6f0ba6114610ec257600080fd5b8063db38206414610e0d578063dd2f6d4b14610e5f57600080fd5b8063d385014d1161015e578063d385014d14610daa578063d7c97fb414610dd7578063d835de0614610df757600080fd5b8063cabf161414610d47578063d3419bf314610d6757600080fd5b8063b56c610511610227578063c37a5761116101db578063c94c7ff4116101c0578063c94c7ff414610ca9578063ca067ad014610cc9578063ca62ea3714610d1757600080fd5b8063c37a576114610c63578063c54b735814610c9357600080fd5b8063b69b2a651161020c578063b69b2a6514610c0b578063bd9a548b14610c2b578063c06fda8e14610c4d57600080fd5b8063b56c610514610bd5578063b5e6230114610beb57600080fd5b806397881c2f1161027e5780639e158276116102635780639e15827614610b7f578063a4acf05114610b95578063b2efe0c114610bb557600080fd5b806397881c2f14610b325780639c507b8b14610b5f57600080fd5b80638d6a6d8714610ab65780638da5cb5b14610adf5780638e32e31614610afd578063909e376d14610b1257600080fd5b806346dd84731161040b57806370a96f33116103685780637d5ee8e61161031c578063834e91cf11610301578063834e91cf14610a6057806386e7f03014610a765780638caee82314610a9657600080fd5b80637d5ee8e614610a1a5780637e5ae4b714610a3057600080fd5b8063729a90c81161034d578063729a90c8146109c457806375794a3c146109e45780637bf1b562146109fa57600080fd5b806370a96f3314610981578063715018a6146109af57600080fd5b80635e71cc7c116103bf5780636bff9506116103a45780636bff9506146108b75780636c4a8c17146109345780636fddcb461461096157600080fd5b80635e71cc7c146108735780636853709a1461088957600080fd5b806350e3ec88116103f057806350e3ec881461081a57806350f7c2041461084a5780635123455f1461086057600080fd5b806346dd8473146107da578063489da8ff146107fa57600080fd5b806319de5221116104b957806338e692af1161046d5780633bf27cf1116104525780633bf27cf114610725578063424e65751461075d578063448883d7146107c457600080fd5b806338e692af146106ef5780633a6a6ca31461070557600080fd5b8063213edf361161049e578063213edf361461069957806325782210146106b9578063313ada94146106cf57600080fd5b806319de5221146106595780631a4803711461067957600080fd5b80630c174793116105105780630fbf0a93116104f55780630fbf0a9314610603578063113bf8871461062357806312f30bde1461063957600080fd5b80630c174793146105c35780630ee9a59b146105e357600080fd5b806301719327146105425780630181de421461056b57806308a1c391146105815780630a1b494d146105a1575b600080fd5b34801561054e57600080fd5b50610558607e5481565b6040519081526020015b60405180910390f35b34801561057757600080fd5b5061055860845481565b34801561058d57600080fd5b5061055861059c366004615655565b611007565b3480156105ad57600080fd5b506105c16105bc3660046156c2565b611028565b005b3480156105cf57600080fd5b506105c16105de3660046154d3565b61123b565b3480156105ef57600080fd5b506105586105fe366004615655565b611295565b34801561060f57600080fd5b506105c161061e366004615463565b6112a5565b34801561062f57600080fd5b5061055860775481565b34801561064557600080fd5b506105c16106543660046154d3565b611447565b34801561066557600080fd5b50610558610674366004615724565b6114a1565b34801561068557600080fd5b506105c1610694366004615438565b6114d5565b3480156106a557600080fd5b506105c16106b4366004615655565b611559565b3480156106c557600080fd5b50610558607a5481565b3480156106db57600080fd5b506105c16106ea36600461566d565b6118c0565b3480156106fb57600080fd5b5061055860835481565b34801561071157600080fd5b50610558610720366004615655565b611a00565b34801561073157600080fd5b50606754610745906001600160a01b031681565b6040516001600160a01b039091168152602001610562565b34801561076957600080fd5b506107a2610778366004615655565b60956020526000908152604090208054600182015460028301546003909301549192909160ff1684565b6040805194855260208501939093529183015215156060820152608001610562565b3480156107d057600080fd5b5061055860765481565b3480156107e657600080fd5b506105c16107f536600461557b565b611a10565b34801561080657600080fd5b50610558610815366004615655565b611ae6565b34801561082657600080fd5b5061083a610835366004615544565b611af6565b6040519015158152602001610562565b34801561085657600080fd5b5061055860925481565b6105c161086e3660046156e6565b611c2a565b34801561087f57600080fd5b50610558608e5481565b34801561089557600080fd5b506105c16108a43660046154d3565b608c805460ff1916911515919091179055565b3480156108c357600080fd5b506109206108d2366004615655565b608960205260009081526040902080546001820154600283015460038401546004850154600586015460069096015460ff9586169694958416946101009094046001600160a01b0316939088565b6040516105629897969594939291906157bd565b34801561094057600080fd5b5061055861094f366004615655565b60976020526000908152604090205481565b34801561096d57600080fd5b506105c161097c366004615400565b611e4b565b34801561098d57600080fd5b506105c161099c3660046154d3565b608f805460ff1916911515919091179055565b3480156109bb57600080fd5b506105c1611e58565b3480156109d057600080fd5b506105586109df366004615655565b611ebe565b3480156109f057600080fd5b5061055860785481565b348015610a0657600080fd5b50610558610a15366004615655565b611ece565b348015610a2657600080fd5b5061055860915481565b348015610a3c57600080fd5b5061083a610a4b366004615655565b6000908152608a602052604090205460ff1690565b348015610a6c57600080fd5b5061055860905481565b348015610a8257600080fd5b506105c1610a91366004615655565b608e55565b348015610aa257600080fd5b506105c1610ab1366004615655565b607255565b348015610ac257600080fd5b506105c1610ad1366004615745565b607b92909255607c55607d55565b348015610aeb57600080fd5b506033546001600160a01b0316610745565b348015610b0957600080fd5b50610558611ede565b348015610b1e57600080fd5b50606854610745906001600160a01b031681565b348015610b3e57600080fd5b50610b52610b4d366004615463565b611ef4565b60405161056291906157aa565b348015610b6b57600080fd5b506105c1610b7a366004615400565b611fc7565b348015610b8b57600080fd5b50610558607f5481565b348015610ba157600080fd5b506105c1610bb0366004615655565b611fd2565b348015610bc157600080fd5b506105c1610bd036600461550b565b6121ca565b348015610be157600080fd5b50610558607c5481565b348015610bf757600080fd5b50610558610c06366004615655565b6125bc565b348015610c1757600080fd5b50606654610745906001600160a01b031681565b348015610c3757600080fd5b50610c40612760565b60405161056291906158b6565b348015610c5957600080fd5b50610558607d5481565b348015610c6f57600080fd5b5061083a610c7e366004615655565b608a6020526000908152604090205460ff1681565b348015610c9f57600080fd5b5061055860985481565b348015610cb557600080fd5b506105c1610cc4366004615463565b612890565b348015610cd557600080fd5b50610d09610ce4366004615655565b60946020526000908152604090205460ff81169061010090046001600160a01b031682565b604051610562929190615811565b348015610d2357600080fd5b506105c1610d32366004615724565b60009182526089602052604090912060010155565b348015610d5357600080fd5b50610558610d62366004615438565b6128f3565b348015610d7357600080fd5b50606a54606b54606e54607054610d8a9392919084565b604080519485526020850193909352918301526060820152608001610562565b348015610db657600080fd5b50610558610dc5366004615655565b60966020526000908152604090205481565b348015610de357600080fd5b50606554610745906001600160a01b031681565b348015610e0357600080fd5b5061055860725481565b348015610e1957600080fd5b506105c1610e283660046154d3565b608f8054911515610100027fffffffffffffffffffffffffffffffffffffffffffffffffffffffffffff00ff909216919091179055565b348015610e6b57600080fd5b50610558610e7a366004615400565b608d6020526000908152604090205481565b348015610e9857600080fd5b506105c1610ea7366004615463565b612935565b348015610eb857600080fd5b50610558607b5481565b348015610ece57600080fd5b50606954610745906001600160a01b031681565b348015610eee57600080fd5b50608f5461083a9060ff1681565b348015610f0857600080fd5b5061055860935481565b348015610f1e57600080fd5b506105c1610f2d366004615724565b612998565b348015610f3e57600080fd5b506105c1610f4d366004615463565b612fac565b348015610f5e57600080fd5b506105c1610f6d3660046154d3565b61305e565b348015610f7e57600080fd5b50608f5461083a90610100900460ff1681565b348015610f9d57600080fd5b506105c1610fac366004615400565b6130b8565b348015610fbd57600080fd5b506105c1610fcc366004615438565b61319a565b348015610fdd57600080fd5b5061055860795481565b348015610ff357600080fd5b50610558611002366004615655565b6131ec565b6075818154811061101757600080fd5b600091825260209091200154905081565b608f5460ff161580156110425750608f54610100900460ff165b6110935760405162461bcd60e51b815260206004820152600360248201527f453031000000000000000000000000000000000000000000000000000000000060448201526064015b60405180910390fd5b6092548261109f611ede565b6110a991906159ee565b11156110f75760405162461bcd60e51b815260206004820152600360248201527f4533310000000000000000000000000000000000000000000000000000000000604482015260640161108a565b6000811561113757606a6003016072548154811061112557634e487b7160e01b600052603260045260246000fd5b9060005260206000200154905061116b565b606a6002016072548154811061115d57634e487b7160e01b600052603260045260246000fd5b906000526020600020015490505b6066546001600160a01b03166323b872dd33306111888786615a1a565b6040517fffffffff0000000000000000000000000000000000000000000000000000000060e086901b1681526001600160a01b0393841660048201529290911660248301526044820152606401602060405180830381600087803b1580156111ef57600080fd5b505af1158015611203573d6000803e3d6000fd5b505050506040513d601f19601f8201168201806040525081019061122791906154ef565b50611236338484607d546131fc565b505050565b6033546001600160a01b0316331461099c5760405162461bcd60e51b815260206004820181905260248201527f4f776e61626c653a2063616c6c6572206973206e6f7420746865206f776e6572604482015260640161108a565b6080818154811061101757600080fd5b608f54610100900460ff166112fc5760405162461bcd60e51b815260206004820152600360248201527f4530310000000000000000000000000000000000000000000000000000000000604482015260640161108a565b60005b818110156112365760655433906001600160a01b0316636352211e85858581811061133a57634e487b7160e01b600052603260045260246000fd5b905060200201356040518263ffffffff1660e01b815260040161135f91815260200190565b60206040518083038186803b15801561137757600080fd5b505afa15801561138b573d6000803e3d6000fd5b505050506040513d601f19601f820116820180604052508101906113af919061541c565b6001600160a01b0316146114055760405162461bcd60e51b815260206004820152600360248201527f4534310000000000000000000000000000000000000000000000000000000000604482015260640161108a565b61143583838381811061142857634e487b7160e01b600052603260045260246000fd5b9050602002013533613334565b8061143f81615ae9565b9150506112ff565b6033546001600160a01b031633146108a45760405162461bcd60e51b815260206004820181905260248201527f4f776e61626c653a2063616c6c6572206973206e6f7420746865206f776e6572604482015260640161108a565b608582600481106114b157600080fd5b0181815481106114c057600080fd5b90600052602060002001600091509150505481565b6066546040517f40c10f190000000000000000000000000000000000000000000000000000000081526001600160a01b03848116600483015260248201849052909116906340c10f19906044015b600060405180830381600087803b15801561153d57600080fd5b505af1158015611551573d6000803e3d6000fd5b505050505050565b608f5460ff161580156115735750608f54610100900460ff165b6115bf5760405162461bcd60e51b815260206004820152600360248201527f4530310000000000000000000000000000000000000000000000000000000000604482015260640161108a565b6000818152608960205260409081902060655491517f6352211e00000000000000000000000000000000000000000000000000000000815260048101849052909133916001600160a01b0390911690636352211e9060240160206040518083038186803b15801561162f57600080fd5b505afa158015611643573d6000803e3d6000fd5b505050506040513d601f19601f82011682018060405250810190611667919061541c565b6001600160a01b0316148061168d5750600281015461010090046001600160a01b031633145b6116d95760405162461bcd60e51b815260206004820152600360248201527f4537320000000000000000000000000000000000000000000000000000000000604482015260640161108a565b6000815460ff1660018111156116ff57634e487b7160e01b600052602160045260246000fd5b148015611710575060048160010154105b61175c5760405162461bcd60e51b815260206004820152600360248201527f4537310000000000000000000000000000000000000000000000000000000000604482015260640161108a565b600281015460ff161561179157611772826125bc565b81600401600082825461178591906159ee565b90915550504260038201555b6067546001820154606f80546001600160a01b03909316926323b872dd923392309290919081106117d257634e487b7160e01b600052603260045260246000fd5b6000918252602090912001546040517fffffffff0000000000000000000000000000000000000000000000000000000060e086901b1681526001600160a01b0393841660048201529290911660248301526044820152606401600060405180830381600087803b15801561184557600080fd5b505af1158015611859573d6000803e3d6000fd5b5050506001820180549150600061186f83615ae9565b919050555081336001600160a01b03167f2ef0b9f6641bfe4ae9f94f2b9b20ece8b29e13b163e6425c14ff8f520e79412e83600101546040516118b491815260200190565b60405180910390a35050565b837fa1400508f229eaea44d95e98b6da371661f6e873726585abd7efdbdc60716976826040516118f291815260200190565b60405180910390a2600084815260946020526040812090815460ff16600281111561192d57634e487b7160e01b600052602160045260246000fd5b141561195457805461194f9061010090046001600160a01b031686868661353f565b6119f9565b6002815460ff16600281111561197a57634e487b7160e01b600052602160045260246000fd5b14156119b25761194f85856000815181106119a557634e487b7160e01b600052603260045260246000fd5b6020026020010151613711565b6001815460ff1660028111156119d857634e487b7160e01b600052602160045260246000fd5b14156119f95780546119f99061010090046001600160a01b0316868661387c565b5050505050565b6071818154811061101757600080fd5b6033546001600160a01b03163314611a6a5760405162461bcd60e51b815260206004820181905260248201527f4f776e61626c653a2063616c6c6572206973206e6f7420746865206f776e6572604482015260640161108a565b8051606a908155602080830151606b5560408301518051849392611a9392606c92910190615235565b5060608201518051611aaf916003840191602090910190615235565b506080820151600482015560a08201518051611ad5916005840191602090910190615235565b5060c0820151816006015590505050565b6074818154811061101757600080fd5b8151604080516001600160a01b0384166020808301919091528183019390935281518082038301815260608201909252815191909201207f19457468657265756d205369676e6564204d6573736167653a0a3332000000006080830152609c8201819052600091829060bc01604051602081830303815290604052805190602001209050600060018287602001518860400151896060015160405160008152602001604052604051611bc4949392919093845260ff9290921660208401526040830152606082015260800190565b6020604051602081039080840390855afa158015611be6573d6000803e3d6000fd5b50506040517fffffffffffffffffffffffffffffffffffffffffffffffffffffffffffffffe001516069546001600160a01b03908116911614979650505050505050565b608f5460ff16611c7c5760405162461bcd60e51b815260206004820152600360248201527f4530300000000000000000000000000000000000000000000000000000000000604482015260640161108a565b608e5483611c88611ede565b611c9291906159ee565b1115611cba57611ca0611ede565b608e54611cad9190615a57565b608f805460ff1916905592505b805115611d1757611ccb8133611af6565b611d175760405162461bcd60e51b815260206004820152600360248201527f4532300000000000000000000000000000000000000000000000000000000000604482015260640161108a565b608c5460009060ff16611d2b576000611d2f565b608b545b8251611d3b91906159ee565b336000908152608d60205260409020549091508190611d5b9086906159ee565b1115611da95760405162461bcd60e51b815260206004820152600360248201527f4532310000000000000000000000000000000000000000000000000000000000604482015260640161108a565b336000908152608d602052604081208054869290611dc89084906159ee565b90915550600090508315611ddf5750606b54611de4565b50606a545b611dee8186615a1a565b341015611e3d5760405162461bcd60e51b815260206004820152600360248201527f4532320000000000000000000000000000000000000000000000000000000000604482015260640161108a565b6119f9338686607b546131fc565b611e5481613b48565b5050565b6033546001600160a01b03163314611eb25760405162461bcd60e51b815260206004820181905260248201527f4f776e61626c653a2063616c6c6572206973206e6f7420746865206f776e6572604482015260640161108a565b611ebc6000613d71565b565b6081818154811061101757600080fd5b6082818154811061101757600080fd5b60006001607854611eef9190615a57565b905090565b60608167ffffffffffffffff811115611f1d57634e487b7160e01b600052604160045260246000fd5b604051908082528060200260200182016040528015611f46578160200160208202803683370190505b50905060005b82811015611fc057611f83848483818110611f7757634e487b7160e01b600052603260045260246000fd5b905060200201356125bc565b828281518110611fa357634e487b7160e01b600052603260045260246000fd5b602090810291909101015280611fb881615ae9565b915050611f4c565b5092915050565b611e54816001613ddb565b608f5460ff16158015611fec5750608f54610100900460ff165b6120385760405162461bcd60e51b815260206004820152600360248201527f4530310000000000000000000000000000000000000000000000000000000000604482015260640161108a565b60925481612044611ede565b61204e91906159ee565b111561209c5760405162461bcd60e51b815260206004820152600360248201527f4533320000000000000000000000000000000000000000000000000000000000604482015260640161108a565b607a54816079546120ad91906159ee565b11156120fb5760405162461bcd60e51b815260206004820152600360248201527f4535310000000000000000000000000000000000000000000000000000000000604482015260640161108a565b606754606e546001600160a01b03909116906323b872dd9033903090612122908690615a1a565b6040517fffffffff0000000000000000000000000000000000000000000000000000000060e086901b1681526001600160a01b0393841660048201529290911660248301526044820152606401600060405180830381600087803b15801561218957600080fd5b505af115801561219d573d6000803e3d6000fd5b505050506121b033826001607c546131fc565b80607960008282546121c291906159ee565b909155505050565b600054610100900460ff166121e55760005460ff16156121e9565b303b155b61225b5760405162461bcd60e51b815260206004820152602e60248201527f496e697469616c697a61626c653a20636f6e747261637420697320616c72656160448201527f647920696e697469616c697a6564000000000000000000000000000000000000606482015260840161108a565b600054610100900460ff1615801561229a57600080547fffffffffffffffffffffffffffffffffffffffffffffffffffffffffffff0000166101011790555b6122a2614063565b6122af6020830183615400565b606580547fffffffffffffffffffffffff0000000000000000000000000000000000000000166001600160a01b03929092169190911790556122f76040830160208401615400565b606680547fffffffffffffffffffffffff0000000000000000000000000000000000000000166001600160a01b039290921691909117905561233f6060830160408401615400565b606780547fffffffffffffffffffffffff0000000000000000000000000000000000000000166001600160a01b03929092169190911790556123876080830160608401615400565b606880547fffffffffffffffffffffffff0000000000000000000000000000000000000000166001600160a01b03929092169190911790556123cf60a0830160808401615400565b606980547fffffffffffffffffffffffff0000000000000000000000000000000000000000166001600160a01b0392909216919091179055600160938190556305f5e10060985560785560006079819055612710607a819055608e5561d6d860925560908190556969e10de76676d0800000609155607b8190556005607c55600a607d8190556064607e55607f55608f80547fffffffffffffffffffffffffffffffffffffffffffffffffffffffffffff0000166101011790556003608b55608c805460ff1916905560838190556084556124ae61014083018361591b565b6124ba91608091615280565b506124c961016083018361591b565b6124d591608191615280565b506124e461018083018361591b565b6124f091608291615280565b506124fe60a0830183615988565b606a61250a8282615b8e565b5061251a905060c083018361591b565b61252691607191615280565b50600160725561253960e083018361591b565b61254591607391615280565b5061255461010083018361591b565b61256091607491615280565b5061256f61012083018361591b565b61257b91607591615280565b506101a082013560765560646077558015611e5457600080547fffffffffffffffffffffffffffffffffffffffffffffffffffffffffffff00ff1690555050565b60008181526089602052604080822081516101008101909252805483929190829060ff1660018111156125ff57634e487b7160e01b600052602160045260246000fd5b600181111561261e57634e487b7160e01b600052602160045260246000fd5b815260018201546020820152600282015460ff81161515604083015261010090046001600160a01b0316606082015260038201546080820152600482015460a0820152600582015460c082015260069091015460e090910152905060008151600181111561269c57634e487b7160e01b600052602160045260246000fd5b14156127145760738160200151815481106126c757634e487b7160e01b600052603260045260246000fd5b90600052602060002001546089600085815260200190815260200160002060030154426126f49190615a57565b6126fe9190615a1a565b8160a0015161270d91906159ee565b9392505050565b608181602001518154811061273957634e487b7160e01b600052603260045260246000fd5b90600052602060002001548160c001516083546127569190615a57565b61270d9190615a1a565b6127a06040518060e00160405280600081526020016000815260200160008152602001600081526020016000815260200160608152602001600081525090565b6040518060e00160405280606a600001548152602001606a600101548152602001606a600201607254815481106127e757634e487b7160e01b600052603260045260246000fd5b90600052602060002001548152602001606a6003016072548154811061281d57634e487b7160e01b600052603260045260246000fd5b600091825260209182902001548252606e5482820152606f8054604080518285028101850182528281529401939283018282801561287a57602002820191906000526020600020905b815481526020019060010190808311612866575b5050509183525050607054602090910152919050565b608f54610100900460ff166128e75760405162461bcd60e51b815260206004820152600360248201527f4530310000000000000000000000000000000000000000000000000000000000604482015260640161108a565b611e54828260006140f0565b6001600160a01b0382166000908152608d6020526040812054608c5460ff1661291d576000612921565b608b545b61292b90846159ee565b61270d9190615a57565b608f54610100900460ff1661298c5760405162461bcd60e51b815260206004820152600360248201527f4530310000000000000000000000000000000000000000000000000000000000604482015260640161108a565b611e54828260016140f0565b608f5460ff161580156129b25750608f54610100900460ff165b6129fe5760405162461bcd60e51b815260206004820152600360248201527f4530310000000000000000000000000000000000000000000000000000000000604482015260640161108a565b80821415612a4e5760405162461bcd60e51b815260206004820152600360248201527f4538310000000000000000000000000000000000000000000000000000000000604482015260640161108a565b6000828152608960205260408082208383529181902060655491517f6352211e00000000000000000000000000000000000000000000000000000000815260048101869052909133916001600160a01b0390911690636352211e9060240160206040518083038186803b158015612ac457600080fd5b505afa158015612ad8573d6000803e3d6000fd5b505050506040513d601f19601f82011682018060405250810190612afc919061541c565b6001600160a01b03161480612b315750600282015460ff168015612b315750600282015461010090046001600160a01b031633145b612b7d5760405162461bcd60e51b815260206004820152600360248201527f4538340000000000000000000000000000000000000000000000000000000000604482015260640161108a565b6065546040517f6352211e0000000000000000000000000000000000000000000000000000000081526004810185905233916001600160a01b031690636352211e9060240160206040518083038186803b158015612bda57600080fd5b505afa158015612bee573d6000803e3d6000fd5b505050506040513d601f19601f82011682018060405250810190612c12919061541c565b6001600160a01b03161480612c475750600281015460ff168015612c475750600281015461010090046001600160a01b031633145b612c935760405162461bcd60e51b815260206004820152600360248201527f4538350000000000000000000000000000000000000000000000000000000000604482015260640161108a565b6001825460ff166001811115612cb957634e487b7160e01b600052602160045260246000fd5b148015612ce957506001815460ff166001811115612ce757634e487b7160e01b600052602160045260246000fd5b145b612d355760405162461bcd60e51b815260206004820152600360248201527f4538320000000000000000000000000000000000000000000000000000000000604482015260640161108a565b6001820154158015612d4957506001810154155b612d955760405162461bcd60e51b815260206004820152600360248201527f4538330000000000000000000000000000000000000000000000000000000000604482015260640161108a565b600282015460009060ff16151560011415612dc857612db3856125bc565b612dbd90826159ee565b608354600585015590505b600282015460ff16151560011415612e0057612de3846125bc565b612ded90826159ee565b60835460058401559050612e00846145bc565b607054811015612ed6576066546070546001600160a01b03909116906323b872dd9033903090612e31908690615a57565b6040517fffffffff0000000000000000000000000000000000000000000000000000000060e086901b1681526001600160a01b0393841660048201529290911660248301526044820152606401602060405180830381600087803b158015612e9857600080fd5b505af1158015612eac573d6000803e3d6000fd5b505050506040513d601f19601f82011682018060405250810190612ed091906154ef565b50612eee565b607054612eee903390612ee99084615a57565b6148b5565b612ef78561495d565b6065546040517f42966c68000000000000000000000000000000000000000000000000000000008152600481018690526001600160a01b03909116906342966c6890602401600060405180830381600087803b158015612f5657600080fd5b505af1158015612f6a573d6000803e3d6000fd5b50506040518781528692503391507f7fbc09d28fa0377bea9dd7bc3289ca8cf2ed47c19c59b30347c08925c18e82d79060200160405180910390a35050505050565b608f5460ff16158015612fc65750608f54610100900460ff165b6130125760405162461bcd60e51b815260206004820152600360248201527f4530310000000000000000000000000000000000000000000000000000000000604482015260640161108a565b60005b818110156112365761304c83838381811061304057634e487b7160e01b600052603260045260246000fd5b90506020020135614a13565b8061305681615ae9565b915050613015565b6033546001600160a01b03163314610e285760405162461bcd60e51b815260206004820181905260248201527f4f776e61626c653a2063616c6c6572206973206e6f7420746865206f776e6572604482015260640161108a565b6033546001600160a01b031633146131125760405162461bcd60e51b815260206004820181905260248201527f4f776e61626c653a2063616c6c6572206973206e6f7420746865206f776e6572604482015260640161108a565b6001600160a01b03811661318e5760405162461bcd60e51b815260206004820152602660248201527f4f776e61626c653a206e6577206f776e657220697320746865207a65726f206160448201527f6464726573730000000000000000000000000000000000000000000000000000606482015260840161108a565b61319781613d71565b50565b6066546040517f9dc29fac0000000000000000000000000000000000000000000000000000000081526001600160a01b0384811660048301526024820184905290911690639dc29fac90604401611523565b6073818154811061101757600080fd5b600081156132165761320f846002615a1a565b9050613219565b50825b60006132288260646000614c08565b6040805180820190915290915080600081526001600160a01b038816602091820152600083815260949091526040902081518154829060ff1916600183600281111561328457634e487b7160e01b600052602160045260246000fd5b021790555060209182015181547fffffffffffffffffffffff0000000000000000000000000000000000000000ff166101006001600160a01b03909216919091021790556040805160808101825260785481528083018881528183018781528815156060840190815260008781526095909652939094209151825551600182015591516002830155516003909101805460ff191691151591909117905561332b3086613ddb565b50505050505050565b6000828152608960205260409081902060655491517f23b872dd0000000000000000000000000000000000000000000000000000000081526001600160a01b03848116600483015230602483015260448201869052919291909116906323b872dd90606401600060405180830381600087803b1580156133b357600080fd5b505af11580156133c7573d6000803e3d6000fd5b5050505060028101805460017fffffffffffffffffffffff0000000000000000000000000000000000000000009091166101006001600160a01b0386160217811790915542600383015560006004830155815460ff16600181111561343c57634e487b7160e01b600052602160045260246000fd5b141561350457608181600101548154811061346757634e487b7160e01b600052603260045260246000fd5b90600052602060002001546084600082825461348391906159ee565b909155505060835460058201556001810154156135045760858160010154600481106134bf57634e487b7160e01b600052603260045260246000fd5b015460068201556001810154608590600481106134ec57634e487b7160e01b600052603260045260246000fd5b01805460018101825560009182526020909120018390555b6040516001600160a01b0383169084907f5b53344e2b3d15f33a2ab59e3c199c7bbcb08f5ce03bf0a25c14f978647299a790600090a3505050565b600083815260956020526040812080545b6001820154825461356191906159ee565b81101561332b576000818152608960205260409020607f54865187908690811061359b57634e487b7160e01b600052603260045260246000fd5b602002602001015110156135e757805460ff191660019081178255600090820181905560405183917fe745cd12d6f4eb3c23b4aeb859314255073bdc0805d89f7622090698abf484b291a25b836135f181615ae9565b9450506000808460020154111561365557836002015487868151811061362757634e487b7160e01b600052603260045260246000fd5b6020026020010151101561364757613640833088614c7c565b9550600190505b8461365181615ae9565b9550505b806136fc57600384015460ff161561367657613671838a613334565b6136fc565b6065546040517f23b872dd0000000000000000000000000000000000000000000000000000000081523060048201526001600160a01b038b8116602483015260448201869052909116906323b872dd90606401600060405180830381600087803b1580156136e357600080fd5b505af11580156136f7573d6000803e3d6000fd5b505050505b5050808061370990615ae9565b915050613550565b600082815260976020908152604080832054808452608990925290912061373783614dc0565b600180830191909155600282015460ff161515141561383857608160008154811061377257634e487b7160e01b600052603260045260246000fd5b906000526020600020015460818260010154815481106137a257634e487b7160e01b600052603260045260246000fd5b90600052602060002001546137b79190615a57565b608460008282546137c891906159ee565b90915550506001810154608590600481106137f357634e487b7160e01b600052603260045260246000fd5b0154600682015560018101546085906004811061382057634e487b7160e01b600052603260045260246000fd5b01805460018101825560009182526020909120018290555b817fe15c536009c86cf1fa16027c6ee4538c2bcce2bdcd80dd17fec4ea96182ef04c826001015460405161386e91815260200190565b60405180910390a250505050565b60008281526096602052604081209080805b8451811015613b2c576075608960008660010184815481106138c057634e487b7160e01b600052603260045260246000fd5b9060005260206000200154815260200190815260200160002060010154815481106138fb57634e487b7160e01b600052603260045260246000fd5b906000526020600020015485828151811061392657634e487b7160e01b600052603260045260246000fd5b60200260200101511015613a095783600201818154811061395757634e487b7160e01b600052603260045260246000fd5b90600052602060002001548261396d91906159ee565b915083600101818154811061399257634e487b7160e01b600052603260045260246000fd5b9060005260206000200154867f1162a37c4c79ccae63cfe9f80b5c888f58f52918fbdee026c67d0865e095b2c48660020184815481106139e257634e487b7160e01b600052603260045260246000fd5b90600052602060002001546040516139fc91815260200190565b60405180910390a3613ae4565b836002018181548110613a2c57634e487b7160e01b600052603260045260246000fd5b906000526020600020015483613a4291906159ee565b9250836001018181548110613a6757634e487b7160e01b600052603260045260246000fd5b9060005260206000200154876001600160a01b0316877f40e6a337f1a78915df745fd02b2ca082e64e8a780a99b8fbb355f64409b399cc876002018581548110613ac157634e487b7160e01b600052603260045260246000fd5b9060005260206000200154604051613adb91815260200190565b60405180910390a45b613b1a846001018281548110613b0a57634e487b7160e01b600052603260045260246000fd5b90600052602060002001546145bc565b80613b2481615ae9565b91505061388e565b50613b3681614e37565b8254611551908790612ee990856159ee565b60788054600091819083613b5b83615ae9565b9190505550607160725481548110613b8357634e487b7160e01b600052603260045260246000fd5b906000526020600020015460785410613bac5760728054906000613ba683615ae9565b91905055505b6065546040517f40c10f190000000000000000000000000000000000000000000000000000000081526001600160a01b03858116600483015260248201849052909116906340c10f1990604401600060405180830381600087803b158015613c1357600080fd5b505af1158015613c27573d6000803e3d6000fd5b50505050604051806101000160405280600180811115613c5757634e487b7160e01b600052602160045260246000fd5b8152600060208083018290526040808401839052606084018390526080840183905260a0840183905260c0840183905260e0909301829052848252608990522081518154829060ff191660018381811115613cc257634e487b7160e01b600052602160045260246000fd5b021790555060208201516001820155604082015160028201805460608501516001600160a01b0316610100027fffffffffffffffffffffff0000000000000000000000000000000000000000ff931515939093167fffffffffffffffffffffff000000000000000000000000000000000000000000909116179190911790556080820151600382015560a0820151600482015560c0820151600582015560e09091015160069091015592915050565b603380546001600160a01b038381167fffffffffffffffffffffffff0000000000000000000000000000000000000000831681179093556040519116919082907f8be0079c531659141344cd1fd0a4f28419497f9722a3daafe3b4186f6b6457e090600090a35050565b60788054600091839083613def83856159ee565b92505081905550607160725481548110613e1957634e487b7160e01b600052603260045260246000fd5b906000526020600020015460785410613e425760728054906000613e3c83615ae9565b91905055505b6065546040517f8b394ad40000000000000000000000000000000000000000000000000000000081526001600160a01b038681166004830152602482018490526044820186905290911690638b394ad490606401600060405180830381600087803b158015613eb057600080fd5b505af1158015613ec4573d6000803e3d6000fd5b5050505060005b83811015614017576040805161010081018252600080825260016020830152918101829052606081018290526080810182905260a0810182905260c0810182905260e0810182905290608990613f2184866159ee565b8152602081019190915260400160002081518154829060ff191660018381811115613f5c57634e487b7160e01b600052602160045260246000fd5b021790555060208201516001820155604082015160028201805460608501516001600160a01b0316610100027fffffffffffffffffffffff0000000000000000000000000000000000000000ff931515939093167fffffffffffffffffffffff000000000000000000000000000000000000000000909116179190911790556080820151600382015560a0820151600482015560c0820151600582015560e0909101516006909101558061400f81615ae9565b915050613ecb565b5060408051828152602081018590526001600160a01b038616917f8b7c923d3e09b520f101439fe55b1b1ea3b1fcdfcb88afe6aed96873d341e1aa910160405180910390a29392505050565b600054610100900460ff166140e05760405162461bcd60e51b815260206004820152602b60248201527f496e697469616c697a61626c653a20636f6e7472616374206973206e6f74206960448201527f6e697469616c697a696e67000000000000000000000000000000000000000000606482015260840161108a565b6140e8614e67565b611ebc614ee4565b6000806000808415614105575060935461410a565b506098545b6000818152609660205260408120905b878110156144a6576000608960008b8b8581811061414857634e487b7160e01b600052603260045260246000fd5b60209081029290920135835250810191909152604001600020600281015490915060ff161515600114801561418e5750600281015461010090046001600160a01b031633145b6141da5760405162461bcd60e51b815260206004820152600360248201527f4539310000000000000000000000000000000000000000000000000000000000604482015260640161108a565b60006141ff8b8b85818110611f7757634e487b7160e01b600052603260045260246000fd5b90506000825460ff16600181111561422757634e487b7160e01b600052602160045260246000fd5b14156143d7576000607754607654836142409190615a1a565b61424a9190615a06565b90506142568183615a57565b614260908a6159ee565b985061426c81886159ee565b4260038501559650891561436857607483600101548154811061429f57634e487b7160e01b600052603260045260246000fd5b90600052602060002001548210156142f95760405162461bcd60e51b815260206004820152600360248201527f4539320000000000000000000000000000000000000000000000000000000000604482015260640161108a565b846001018c8c8681811061431d57634e487b7160e01b600052603260045260246000fd5b835460018101855560009485526020948590209190940292909201359190920155506002850161434d8284615a57565b815460018101835560009283526020909220909101556143d1565b8b8b8581811061438857634e487b7160e01b600052603260045260246000fd5b6020029190910135905033877f40e6a337f1a78915df745fd02b2ca082e64e8a780a99b8fbb355f64409b399cc6143bf8587615a57565b60405190815260200160405180910390a45b5061448b565b6143e181886159ee565b608354600584015596508a8a8481811061440b57634e487b7160e01b600052603260045260246000fd5b90506020020135336001600160a01b0316867f40e6a337f1a78915df745fd02b2ca082e64e8a780a99b8fbb355f64409b399cc8460405161444e91815260200190565b60405180910390a4881561448b5761448b8b8b8581811061447f57634e487b7160e01b600052603260045260246000fd5b905060200201356145bc565b5060006004909101558061449e81615ae9565b91505061411a565b5085156145615783815560018101546000906144c490606483614c08565b60408051808201909152909150806001815233602091820152600083815260949091526040902081518154829060ff1916600183600281111561451757634e487b7160e01b600052602160045260246000fd5b02179055506020919091015181546001600160a01b03909116610100027fffffffffffffffffffffff0000000000000000000000000000000000000000ff9091161790555061456f565b61456f33612ee987876159ee565b61457883614e37565b817fa82e56087acdb4c45b596e06c5ef2d1e974654985bfd4300ebad87555eec136e846040516145aa91815260200190565b60405180910390a25050505050505050565b60008181526089602052604090819020600281015460655492517f23b872dd0000000000000000000000000000000000000000000000000000000081523060048201526101009091046001600160a01b039081166024830181905260448301869052929316906323b872dd90606401600060405180830381600087803b15801561464557600080fd5b505af1158015614659573d6000803e3d6000fd5b5050506002830180547fffffffffffffffffffffff000000000000000000000000000000000000000000169055506001825460ff1660018111156146ad57634e487b7160e01b600052602160045260246000fd5b14156148735760818260010154815481106146d857634e487b7160e01b600052603260045260246000fd5b9060005260206000200154608460008282546146f49190615a57565b9091555050600182015415614873576000608583600101546004811061472a57634e487b7160e01b600052603260045260246000fd5b016001608585600101546004811061475257634e487b7160e01b600052603260045260246000fd5b015461475e9190615a57565b8154811061477c57634e487b7160e01b600052603260045260246000fd5b906000526020600020015490508060858460010154600481106147af57634e487b7160e01b600052603260045260246000fd5b018460060154815481106147d357634e487b7160e01b600052603260045260246000fd5b9060005260206000200181905550608583600101546004811061480657634e487b7160e01b600052603260045260246000fd5b0180548061482457634e487b7160e01b600052603160045260246000fd5b6000828152602080822083017fffffffffffffffffffffffffffffffffffffffffffffffffffffffffffffffff9081018390559092019092556006808601549383526089909152604090912001555b6000600683018190556040516001600160a01b0383169185917f3a01954f64bfeed1c903bc3920f7a5639288ea25efc7a539195648519e4184a39190a3505050565b6091546090548291906148c99083906159ee565b11156148e2576090546091546148df9190615a57565b90505b6066546040517f40c10f190000000000000000000000000000000000000000000000000000000081526001600160a01b03858116600483015260248201849052909116906340c10f1990604401600060405180830381600087803b15801561494957600080fd5b505af115801561332b573d6000803e3d6000fd5b600061496d600160646000614c08565b60408051808201909152909150806002815233602091820152600083815260949091526040902081518154829060ff191660018360028111156149c057634e487b7160e01b600052602160045260246000fd5b021790555060209182015181546001600160a01b03909116610100027fffffffffffffffffffffff0000000000000000000000000000000000000000ff9091161790556000918252609790526040902055565b621e8c51811015614a665760405162461bcd60e51b815260206004820152600360248201527f4531310000000000000000000000000000000000000000000000000000000000604482015260640161108a565b6000818152608a602052604090205460ff1615614ac55760405162461bcd60e51b815260206004820152600360248201527f4531320000000000000000000000000000000000000000000000000000000000604482015260640161108a565b6068546040517f6352211e0000000000000000000000000000000000000000000000000000000081526004810183905233916001600160a01b031690636352211e9060240160206040518083038186803b158015614b2257600080fd5b505afa158015614b36573d6000803e3d6000fd5b505050506040513d601f19601f82011682018060405250810190614b5a919061541c565b6001600160a01b031614614bb05760405162461bcd60e51b815260206004820152600360248201527f4531330000000000000000000000000000000000000000000000000000000000604482015260640161108a565b6000818152608a60205260408120805460ff19166001179055614bd233613b48565b6040519091508190839033907f584ea1a98d504e99c0dd0ca5ace55f5458d725e7e20a1ebb2e5e5af38434397190600090a45050565b6093546040805185815260208101859052908101839052600091907f705d3e695a7ab752b1edf2ce198c72190ab23aac7a98324657cf03976797e9859060600160405180910390a260938054906000614c6083615ae9565b91905055506001609354614c749190615a57565b949350505050565b6000614cbd6040518060400160405280601181526020017f6f6f67612025732061747461636b65642100000000000000000000000000000081525085614f6a565b6000614cc7614ffb565b90506000614cd782856019615087565b945090506000614ce6826150b1565b90506001600160a01b03811615614db5576065546040517f23b872dd0000000000000000000000000000000000000000000000000000000081526001600160a01b0388811660048301528381166024830152604482018a9052909116906323b872dd90606401600060405180830381600087803b158015614d6657600080fd5b505af1158015614d7a573d6000803e3d6000fd5b50506040516001600160a01b03841692508991507f25e62b5345bc3d4cc6669b9d9091c6019b1f835ba44175f80633ce4636f68aa390600090a35b509295945050505050565b600080805b608054811015614e2d5760808181548110614df057634e487b7160e01b600052603260045260246000fd5b906000526020600020015482614e0691906159ee565b915081841015614e1b57614c748160016159ee565b80614e2581615ae9565b915050614dc5565b5060009392505050565b614e4130826148b5565b6084541561319757608454614e569082615a06565b608360008282546121c291906159ee565b600054610100900460ff16611ebc5760405162461bcd60e51b815260206004820152602b60248201527f496e697469616c697a61626c653a20636f6e7472616374206973206e6f74206960448201527f6e697469616c697a696e67000000000000000000000000000000000000000000606482015260840161108a565b600054610100900460ff16614f615760405162461bcd60e51b815260206004820152602b60248201527f496e697469616c697a61626c653a20636f6e7472616374206973206e6f74206960448201527f6e697469616c697a696e67000000000000000000000000000000000000000000606482015260840161108a565b611ebc33613d71565b611e548282604051602401614f8092919061583d565b604080517fffffffffffffffffffffffffffffffffffffffffffffffffffffffffffffffe08184030181529190526020810180517bffffffffffffffffffffffffffffffffffffffffffffffffffffffff167f9710a9d000000000000000000000000000000000000000000000000000000000179052615214565b60008060015b60038111615081576085816004811061502a57634e487b7160e01b600052603260045260246000fd5b0154608280548390811061504e57634e487b7160e01b600052603260045260246000fd5b90600052602060002001546150639190615a1a565b61506d90836159ee565b91508061507981615ae9565b915050615001565b50919050565b6000808085615099600180871b615a57565b86166150a59190615b22565b969490931c9450505050565b60008060015b60038111614e2d576000608582600481106150e257634e487b7160e01b600052603260045260246000fd5b0154608280548490811061510657634e487b7160e01b600052603260045260246000fd5b906000526020600020015461511b9190615a1a565b905061512781846159ee565b8510156151f45760006082838154811061515157634e487b7160e01b600052603260045260246000fd5b906000526020600020015484876151689190615a57565b6151729190615a06565b9050608960006085856004811061519957634e487b7160e01b600052603260045260246000fd5b0183815481106151b957634e487b7160e01b600052603260045260246000fd5b9060005260206000200154815260200190815260200160002060020160019054906101000a90046001600160a01b0316945050505050919050565b6151fe81846159ee565b925050808061520c90615ae9565b9150506150b7565b80516a636f6e736f6c652e6c6f67602083016000808483855afa5050505050565b828054828255906000526020600020908101928215615270579160200282015b82811115615270578251825591602001919060010190615255565b5061527c9291506152bb565b5090565b828054828255906000526020600020908101928215615270579160200282015b828111156152705782358255916020019190600101906152a0565b5b8082111561527c57600081556001016152bc565b600082601f8301126152e0578081fd5b8135602067ffffffffffffffff808311156152fd576152fd615b78565b8260051b6040517fffffffffffffffffffffffffffffffffffffffffffffffffffffffffffffffe0603f8301168101818110848211171561534057615340615b78565b6040528481528381019250868401828801850189101561535e578687fd5b8692505b85831015615380578035845292840192600192909201918401615362565b50979650505050505050565b60006080828403121561539d578081fd5b6040516080810181811067ffffffffffffffff821117156153c0576153c0615b78565b60405282358152905080602083013560ff811681146153de57600080fd5b8060208301525060408301356040820152606083013560608201525092915050565b600060208284031215615411578081fd5b813561270d81615c0b565b60006020828403121561542d578081fd5b815161270d81615c0b565b6000806040838503121561544a578081fd5b823561545581615c0b565b946020939093013593505050565b60008060208385031215615475578182fd5b823567ffffffffffffffff8082111561548c578384fd5b818501915085601f83011261549f578384fd5b8135818111156154ad578485fd5b8660208260051b85010111156154c1578485fd5b60209290920196919550909350505050565b6000602082840312156154e4578081fd5b813561270d81615c20565b600060208284031215615500578081fd5b815161270d81615c20565b60006020828403121561551c578081fd5b813567ffffffffffffffff811115615532578182fd5b82016101c0818503121561270d578182fd5b60008060a08385031215615556578182fd5b615560848461538c565b9150608083013561557081615c0b565b809150509250929050565b60006020828403121561558c578081fd5b813567ffffffffffffffff808211156155a3578283fd5b9083019060e082860312156155b6578283fd5b6155be6159c5565b82358152602083013560208201526040830135828111156155dd578485fd5b6155e9878286016152d0565b604083015250606083013582811115615600578485fd5b61560c878286016152d0565b6060830152506080830135608082015260a08301358281111561562d578485fd5b615639878286016152d0565b60a08301525060c083013560c082015280935050505092915050565b600060208284031215615666578081fd5b5035919050565b60008060008060808587031215615682578182fd5b84359350602085013567ffffffffffffffff81111561569f578283fd5b6156ab878288016152d0565b949794965050505060408301359260600135919050565b600080604083850312156156d4578182fd5b82359150602083013561557081615c20565b600080600060c084860312156156fa578081fd5b83359250602084013561570c81615c20565b915061571b856040860161538c565b90509250925092565b60008060408385031215615736578182fd5b50508035926020909101359150565b600080600060608486031215615759578081fd5b505081359360208301359350604090920135919050565b6000815180845260208085019450808401835b8381101561579f57815187529582019590820190600101615783565b509495945050505050565b60208152600061270d6020830184615770565b610100810160028a106157d2576157d2615b62565b988152602081019790975294151560408701526001600160a01b03939093166060860152608085019190915260a084015260c083015260e09091015290565b604081016003841061582557615825615b62565b9281526001600160a01b039190911660209091015290565b6040815260008351806040840152815b8181101561586a576020818701810151606086840101520161584d565b8181111561587b5782606083860101525b50602083019390935250601f919091017fffffffffffffffffffffffffffffffffffffffffffffffffffffffffffffffe01601606001919050565b6020815281516020820152602082015160408201526040820151606082015260608201516080820152608082015160a0820152600060a083015160e060c0840152615905610100840182615770565b905060c084015160e08401528091505092915050565b60008083357fffffffffffffffffffffffffffffffffffffffffffffffffffffffffffffffe184360301811261594f578283fd5b83018035915067ffffffffffffffff821115615969578283fd5b6020019150600581901b360382131561598157600080fd5b9250929050565b600082357fffffffffffffffffffffffffffffffffffffffffffffffffffffffffffffff218336030181126159bb578182fd5b9190910192915050565b60405160e0810167ffffffffffffffff811182821017156159e8576159e8615b78565b60405290565b60008219821115615a0157615a01615b36565b500190565b600082615a1557615a15615b4c565b500490565b6000817fffffffffffffffffffffffffffffffffffffffffffffffffffffffffffffffff0483118215151615615a5257615a52615b36565b500290565b600082821015615a6957615a69615b36565b500390565b68010000000000000000831115615a8757615a87615b78565b805483825580841015615abe576000828152602090208481019082015b80821015615abb5760008255600182019150615aa4565b50505b5060008181526020812083915b85811015611551578235825560209092019160019182019101615acb565b60007fffffffffffffffffffffffffffffffffffffffffffffffffffffffffffffffff821415615b1b57615b1b615b36565b5060010190565b600082615b3157615b31615b4c565b500690565b634e487b7160e01b600052601160045260246000fd5b634e487b7160e01b600052601260045260246000fd5b634e487b7160e01b600052602160045260246000fd5b634e487b7160e01b600052604160045260246000fd5b8135815560208201356001820155615ba9604083018361591b565b615bb7818360028601615a6e565b5050615bc6606083018361591b565b615bd4818360038601615a6e565b505060808201356004820155615bed60a083018361591b565b615bfb818360058601615a6e565b505060c082013560068201555050565b6001600160a01b038116811461319757600080fd5b801515811461319757600080fdfea2646970667358221220ae488731d922c3a42352e3df1b5aed40869a07657911db527cf9337126871ae264736f6c63430008040033",
    "linkReferences": {},
    "deployedLinkReferences": {}
}