{
    "_format": "hh-sol-artifact-1",
    "contractName": "MekaApesGame",
    "sourceName": "contracts/MekaApesGame.sol",
    "abi": [
        {
            "anonymous": false,
            "inputs": [
                {
                    "indexed": true,
                    "internalType": "uint256",
                    "name": "crewId",
                    "type": "uint256"
                },
                {
                    "indexed": true,
                    "internalType": "uint256[]",
                    "name": "tokenIds",
                    "type": "uint256[]"
                }
            ],
            "name": "AddToCrew",
            "type": "event"
        },
        {
            "anonymous": false,
            "inputs": [
                {
                    "indexed": true,
                    "internalType": "uint256",
                    "name": "claimId",
                    "type": "uint256"
                },
                {
                    "indexed": true,
                    "internalType": "uint256",
                    "name": "tokenId",
                    "type": "uint256"
                },
                {
                    "indexed": false,
                    "internalType": "uint256",
                    "name": "amount",
                    "type": "uint256"
                }
            ],
            "name": "AttackReward",
            "type": "event"
        },
        {
            "anonymous": false,
            "inputs": [
                {
                    "indexed": true,
                    "internalType": "address",
                    "name": "account",
                    "type": "address"
                },
                {
                    "indexed": true,
                    "internalType": "uint256",
                    "name": "oogaId",
                    "type": "uint256"
                },
                {
                    "indexed": true,
                    "internalType": "uint256",
                    "name": "newTokenId",
                    "type": "uint256"
                }
            ],
            "name": "BabyOogaEvolve",
            "type": "event"
        },
        {
            "anonymous": false,
            "inputs": [
                {
                    "indexed": true,
                    "internalType": "address",
                    "name": "account",
                    "type": "address"
                },
                {
                    "indexed": true,
                    "internalType": "uint256",
                    "name": "crewId",
                    "type": "uint256"
                },
                {
                    "indexed": false,
                    "internalType": "uint256",
                    "name": "amount",
                    "type": "uint256"
                }
            ],
            "name": "ClaimCrewReward",
            "type": "event"
        },
        {
            "anonymous": false,
            "inputs": [
                {
                    "indexed": true,
                    "internalType": "uint256",
                    "name": "claimId",
                    "type": "uint256"
                },
                {
                    "indexed": true,
                    "internalType": "address",
                    "name": "account",
                    "type": "address"
                },
                {
                    "indexed": true,
                    "internalType": "uint256",
                    "name": "tokenId",
                    "type": "uint256"
                },
                {
                    "indexed": false,
                    "internalType": "uint256",
                    "name": "amount",
                    "type": "uint256"
                }
            ],
            "name": "ClaimReward",
            "type": "event"
        },
        {
            "anonymous": false,
            "inputs": [
                {
                    "indexed": true,
                    "internalType": "address",
                    "name": "account",
                    "type": "address"
                },
                {
                    "indexed": true,
                    "internalType": "uint256",
                    "name": "oogaId",
                    "type": "uint256"
                },
                {
                    "indexed": false,
                    "internalType": "uint256",
                    "name": "newLevel",
                    "type": "uint256"
                }
            ],
            "name": "LevelUpRoboOoga",
            "type": "event"
        },
        {
            "anonymous": false,
            "inputs": [
                {
                    "indexed": true,
                    "internalType": "address",
                    "name": "account",
                    "type": "address"
                },
                {
                    "indexed": true,
                    "internalType": "uint256",
                    "name": "crewId",
                    "type": "uint256"
                }
            ],
            "name": "MakeCrew",
            "type": "event"
        },
        {
            "anonymous": false,
            "inputs": [
                {
                    "indexed": true,
                    "internalType": "uint256",
                    "name": "tokenId",
                    "type": "uint256"
                },
                {
                    "indexed": false,
                    "internalType": "uint256",
                    "name": "megaLevel",
                    "type": "uint256"
                }
            ],
            "name": "MegaMerged",
            "type": "event"
        },
        {
            "anonymous": false,
            "inputs": [
                {
                    "indexed": true,
                    "internalType": "uint256",
                    "name": "tokenId",
                    "type": "uint256"
                }
            ],
            "name": "MekaConvert",
            "type": "event"
        },
        {
            "anonymous": false,
            "inputs": [
                {
                    "indexed": true,
                    "internalType": "address",
                    "name": "account",
                    "type": "address"
                },
                {
                    "indexed": false,
                    "internalType": "uint256",
                    "name": "oogaIdSave",
                    "type": "uint256"
                },
                {
                    "indexed": true,
                    "internalType": "uint256",
                    "name": "oogaIdBurn",
                    "type": "uint256"
                }
            ],
            "name": "MergeMekaApes",
            "type": "event"
        },
        {
            "anonymous": false,
            "inputs": [
                {
                    "indexed": true,
                    "internalType": "address",
                    "name": "account",
                    "type": "address"
                },
                {
                    "indexed": false,
                    "internalType": "uint256",
                    "name": "startFromTokenId",
                    "type": "uint256"
                },
                {
                    "indexed": false,
                    "internalType": "uint256",
                    "name": "amount",
                    "type": "uint256"
                }
            ],
            "name": "MintMultipleRobo",
            "type": "event"
        },
        {
            "anonymous": false,
            "inputs": [
                {
                    "indexed": true,
                    "internalType": "uint256",
                    "name": "oogaId",
                    "type": "uint256"
                },
                {
                    "indexed": true,
                    "internalType": "address",
                    "name": "tributeAccount",
                    "type": "address"
                },
                {
                    "indexed": false,
                    "internalType": "uint256",
                    "name": "tributeOogaId",
                    "type": "uint256"
                }
            ],
            "name": "OogaAttacked",
            "type": "event"
        },
        {
            "anonymous": false,
            "inputs": [
                {
                    "indexed": true,
                    "internalType": "address",
                    "name": "previousOwner",
                    "type": "address"
                },
                {
                    "indexed": true,
                    "internalType": "address",
                    "name": "newOwner",
                    "type": "address"
                }
            ],
            "name": "OwnershipTransferred",
            "type": "event"
        },
        {
            "anonymous": false,
            "inputs": [
                {
                    "indexed": true,
                    "internalType": "uint256",
                    "name": "requestId",
                    "type": "uint256"
                },
                {
                    "indexed": false,
                    "internalType": "uint256",
                    "name": "entropy",
                    "type": "uint256"
                }
            ],
            "name": "ReceiveRandoms",
            "type": "event"
        },
        {
            "anonymous": false,
            "inputs": [
                {
                    "indexed": true,
                    "internalType": "uint256",
                    "name": "crewId",
                    "type": "uint256"
                }
            ],
            "name": "RemoveCrew",
            "type": "event"
        },
        {
            "anonymous": false,
            "inputs": [
                {
                    "indexed": true,
                    "internalType": "uint256",
                    "name": "crewId",
                    "type": "uint256"
                },
                {
                    "indexed": true,
                    "internalType": "uint256[]",
                    "name": "tokenIds",
                    "type": "uint256[]"
                }
            ],
            "name": "RemoveFromCrew",
            "type": "event"
        },
        {
            "anonymous": false,
            "inputs": [
                {
                    "indexed": true,
                    "internalType": "uint256",
                    "name": "requestId",
                    "type": "uint256"
                },
                {
                    "indexed": false,
                    "internalType": "uint256",
                    "name": "requestSeed",
                    "type": "uint256"
                }
            ],
            "name": "RequestRandoms",
            "type": "event"
        },
        {
            "anonymous": false,
            "inputs": [
                {
                    "indexed": true,
                    "internalType": "address",
                    "name": "account",
                    "type": "address"
                },
                {
                    "indexed": true,
                    "internalType": "uint256",
                    "name": "tokenId",
                    "type": "uint256"
                }
            ],
            "name": "RoboMint",
            "type": "event"
        },
        {
            "anonymous": false,
            "inputs": [
                {
                    "indexed": true,
                    "internalType": "uint256",
                    "name": "oogaId",
                    "type": "uint256"
                },
                {
                    "indexed": true,
                    "internalType": "address",
                    "name": "account",
                    "type": "address"
                }
            ],
            "name": "StakeOoga",
            "type": "event"
        },
        {
            "anonymous": false,
            "inputs": [
                {
                    "indexed": true,
                    "internalType": "uint256",
                    "name": "claimId",
                    "type": "uint256"
                },
                {
                    "indexed": false,
                    "internalType": "uint256",
                    "name": "totalTax",
                    "type": "uint256"
                }
            ],
            "name": "TaxReward",
            "type": "event"
        },
        {
            "anonymous": false,
            "inputs": [
                {
                    "indexed": true,
                    "internalType": "uint256",
                    "name": "oogaId",
                    "type": "uint256"
                },
                {
                    "indexed": true,
                    "internalType": "address",
                    "name": "account",
                    "type": "address"
                }
            ],
            "name": "UnstakeOoga",
            "type": "event"
        },
        {
            "inputs": [],
            "name": "ATTACK_CHANCE_DENOM",
            "outputs": [
                {
                    "internalType": "uint256",
                    "name": "",
                    "type": "uint256"
                }
            ],
            "stateMutability": "view",
            "type": "function"
        },
        {
            "inputs": [],
            "name": "CLAIM_TAX_DENOM",
            "outputs": [
                {
                    "internalType": "uint256",
                    "name": "",
                    "type": "uint256"
                }
            ],
            "stateMutability": "view",
            "type": "function"
        },
        {
            "inputs": [
                {
                    "internalType": "uint256",
                    "name": "amount",
                    "type": "uint256"
                }
            ],
            "name": "_ogRewardMint",
            "outputs": [],
            "stateMutability": "nonpayable",
            "type": "function"
        },
        {
            "inputs": [],
            "name": "addedOgForRewardsAtEnd",
            "outputs": [
                {
                    "internalType": "uint256",
                    "name": "",
                    "type": "uint256"
                }
            ],
            "stateMutability": "view",
            "type": "function"
        },
        {
            "inputs": [],
            "name": "allMintedTimestamp",
            "outputs": [
                {
                    "internalType": "uint256",
                    "name": "",
                    "type": "uint256"
                }
            ],
            "stateMutability": "view",
            "type": "function"
        },
        {
            "inputs": [],
            "name": "allTokensMinted",
            "outputs": [
                {
                    "internalType": "bool",
                    "name": "",
                    "type": "bool"
                }
            ],
            "stateMutability": "view",
            "type": "function"
        },
        {
            "inputs": [],
            "name": "baseFeeRefreshTime",
            "outputs": [
                {
                    "internalType": "uint256",
                    "name": "",
                    "type": "uint256"
                }
            ],
            "stateMutability": "view",
            "type": "function"
        },
        {
            "inputs": [],
            "name": "baseFeeUpdatedAt",
            "outputs": [
                {
                    "internalType": "uint256",
                    "name": "",
                    "type": "uint256"
                }
            ],
            "stateMutability": "view",
            "type": "function"
        },
        {
            "inputs": [
                {
                    "internalType": "uint256[]",
                    "name": "tokenIds",
                    "type": "uint256[]"
                }
            ],
            "name": "burnOogaForUnstakeCredits",
            "outputs": [],
            "stateMutability": "nonpayable",
            "type": "function"
        },
        {
            "inputs": [
                {
                    "internalType": "uint256",
                    "name": "crewId",
                    "type": "uint256"
                },
                {
                    "internalType": "uint256[]",
                    "name": "addTokenIds",
                    "type": "uint256[]"
                },
                {
                    "internalType": "uint256[]",
                    "name": "removeTokenIds",
                    "type": "uint256[]"
                }
            ],
            "name": "changeCrew",
            "outputs": [],
            "stateMutability": "nonpayable",
            "type": "function"
        },
        {
            "inputs": [
                {
                    "internalType": "bool",
                    "name": "gameActive_",
                    "type": "bool"
                }
            ],
            "name": "changeGameActive",
            "outputs": [],
            "stateMutability": "nonpayable",
            "type": "function"
        },
        {
            "inputs": [
                {
                    "internalType": "uint256[]",
                    "name": "mintOGpriceSteps_",
                    "type": "uint256[]"
                }
            ],
            "name": "changeMintOGPriceSteps",
            "outputs": [],
            "stateMutability": "nonpayable",
            "type": "function"
        },
        {
            "inputs": [
                {
                    "components": [
                        {
                            "internalType": "uint256",
                            "name": "mintPrice",
                            "type": "uint256"
                        },
                        {
                            "internalType": "uint256",
                            "name": "mintStakePrice",
                            "type": "uint256"
                        },
                        {
                            "internalType": "uint256[]",
                            "name": "mintOGprice",
                            "type": "uint256[]"
                        },
                        {
                            "internalType": "uint256[]",
                            "name": "mintOGstakePrice",
                            "type": "uint256[]"
                        },
                        {
                            "internalType": "uint256",
                            "name": "mintDMTstakePrice",
                            "type": "uint256"
                        },
                        {
                            "internalType": "uint256[]",
                            "name": "roboLevelupPrice",
                            "type": "uint256[]"
                        },
                        {
                            "internalType": "uint256",
                            "name": "mekaMergePrice",
                            "type": "uint256"
                        }
                    ],
                    "internalType": "struct Prices",
                    "name": "prices_",
                    "type": "tuple"
                }
            ],
            "name": "changePrices",
            "outputs": [],
            "stateMutability": "nonpayable",
            "type": "function"
        },
        {
            "inputs": [
                {
                    "components": [
                        {
                            "internalType": "uint256",
                            "name": "mintBase",
                            "type": "uint256"
                        },
                        {
                            "internalType": "uint256",
                            "name": "mintPerToken",
                            "type": "uint256"
                        },
                        {
                            "internalType": "uint256",
                            "name": "mintPerTokenStaked",
                            "type": "uint256"
                        },
                        {
                            "internalType": "uint256",
                            "name": "unstakeBase",
                            "type": "uint256"
                        },
                        {
                            "internalType": "uint256",
                            "name": "unstakePerToken",
                            "type": "uint256"
                        },
                        {
                            "internalType": "uint256",
                            "name": "mergeBase",
                            "type": "uint256"
                        }
                    ],
                    "internalType": "struct RandomsGas",
                    "name": "randomsGas_",
                    "type": "tuple"
                }
            ],
            "name": "changeRandomsGas",
            "outputs": [],
            "stateMutability": "nonpayable",
            "type": "function"
        },
        {
            "inputs": [
                {
                    "internalType": "uint256[]",
                    "name": "roboOogaRewardPerSec_",
                    "type": "uint256[]"
                },
                {
                    "internalType": "uint256[]",
                    "name": "roboOogaMinimalRewardToUnstake_",
                    "type": "uint256[]"
                },
                {
                    "internalType": "uint256[]",
                    "name": "roboOogaRewardAttackProbabilities_",
                    "type": "uint256[]"
                }
            ],
            "name": "changeRoboParameters",
            "outputs": [],
            "stateMutability": "nonpayable",
            "type": "function"
        },
        {
            "inputs": [
                {
                    "internalType": "uint256",
                    "name": "tokenId",
                    "type": "uint256"
                }
            ],
            "name": "claimAvailableAmount",
            "outputs": [
                {
                    "internalType": "uint256",
                    "name": "",
                    "type": "uint256"
                }
            ],
            "stateMutability": "view",
            "type": "function"
        },
        {
            "inputs": [
                {
                    "internalType": "uint256",
                    "name": "crewId",
                    "type": "uint256"
                }
            ],
            "name": "claimAvailableAmountCrew",
            "outputs": [
                {
                    "internalType": "uint256",
                    "name": "",
                    "type": "uint256"
                }
            ],
            "stateMutability": "view",
            "type": "function"
        },
        {
            "inputs": [
                {
                    "internalType": "uint256[]",
                    "name": "crewIds",
                    "type": "uint256[]"
                }
            ],
            "name": "claimAvailableAmountMultipleCrews",
            "outputs": [
                {
                    "internalType": "uint256[]",
                    "name": "result",
                    "type": "uint256[]"
                }
            ],
            "stateMutability": "view",
            "type": "function"
        },
        {
            "inputs": [
                {
                    "internalType": "uint256[]",
                    "name": "tokenIds",
                    "type": "uint256[]"
                }
            ],
            "name": "claimAvailableAmountMultipleTokens",
            "outputs": [
                {
                    "internalType": "uint256[]",
                    "name": "result",
                    "type": "uint256[]"
                }
            ],
            "stateMutability": "view",
            "type": "function"
        },
        {
            "inputs": [
                {
                    "internalType": "uint256",
                    "name": "crewId",
                    "type": "uint256"
                }
            ],
            "name": "claimCrewReward",
            "outputs": [],
            "stateMutability": "nonpayable",
            "type": "function"
        },
        {
            "inputs": [
                {
                    "internalType": "uint256",
                    "name": "",
                    "type": "uint256"
                }
            ],
            "name": "claimRequests",
            "outputs": [
                {
                    "internalType": "uint256",
                    "name": "totalMekaReward",
                    "type": "uint256"
                }
            ],
            "stateMutability": "view",
            "type": "function"
        },
        {
            "inputs": [
                {
                    "internalType": "uint256[]",
                    "name": "tokenIds",
                    "type": "uint256[]"
                }
            ],
            "name": "claimReward",
            "outputs": [],
            "stateMutability": "nonpayable",
            "type": "function"
        },
        {
            "inputs": [],
            "name": "claimTax",
            "outputs": [
                {
                    "internalType": "uint256",
                    "name": "",
                    "type": "uint256"
                }
            ],
            "stateMutability": "view",
            "type": "function"
        },
        {
            "inputs": [
                {
                    "internalType": "uint256[]",
                    "name": "tokenIds",
                    "type": "uint256[]"
                }
            ],
            "name": "createCrew",
            "outputs": [],
            "stateMutability": "nonpayable",
            "type": "function"
        },
        {
            "inputs": [],
            "name": "crewClaimPercent",
            "outputs": [
                {
                    "internalType": "uint256",
                    "name": "",
                    "type": "uint256"
                }
            ],
            "stateMutability": "view",
            "type": "function"
        },
        {
            "inputs": [
                {
                    "internalType": "uint256",
                    "name": "",
                    "type": "uint256"
                }
            ],
            "name": "crews",
            "outputs": [
                {
                    "internalType": "address",
                    "name": "owner",
                    "type": "address"
                },
                {
                    "internalType": "uint256",
                    "name": "lastClaimTimestamp",
                    "type": "uint256"
                },
                {
                    "internalType": "uint256",
                    "name": "totalRewardPerSec",
                    "type": "uint256"
                },
                {
                    "internalType": "uint256",
                    "name": "savedReward",
                    "type": "uint256"
                }
            ],
            "stateMutability": "view",
            "type": "function"
        },
        {
            "inputs": [],
            "name": "currentBaseFee",
            "outputs": [
                {
                    "internalType": "uint256",
                    "name": "",
                    "type": "uint256"
                }
            ],
            "stateMutability": "view",
            "type": "function"
        },
        {
            "inputs": [],
            "name": "currentOgPriceStep",
            "outputs": [
                {
                    "internalType": "uint256",
                    "name": "",
                    "type": "uint256"
                }
            ],
            "stateMutability": "view",
            "type": "function"
        },
        {
            "inputs": [],
            "name": "dmtMintAttackChance",
            "outputs": [
                {
                    "internalType": "uint256",
                    "name": "",
                    "type": "uint256"
                }
            ],
            "stateMutability": "view",
            "type": "function"
        },
        {
            "inputs": [],
            "name": "dmtToken",
            "outputs": [
                {
                    "internalType": "contract IDMT_ERC20",
                    "name": "",
                    "type": "address"
                }
            ],
            "stateMutability": "view",
            "type": "function"
        },
        {
            "inputs": [],
            "name": "erc721Contract",
            "outputs": [
                {
                    "internalType": "contract MekaApesERC721",
                    "name": "",
                    "type": "address"
                }
            ],
            "stateMutability": "view",
            "type": "function"
        },
        {
            "inputs": [],
            "name": "ethMintAttackChance",
            "outputs": [
                {
                    "internalType": "uint256",
                    "name": "",
                    "type": "uint256"
                }
            ],
            "stateMutability": "view",
            "type": "function"
        },
        {
            "inputs": [
                {
                    "internalType": "uint256[]",
                    "name": "tokenIds",
                    "type": "uint256[]"
                }
            ],
            "name": "evolveBabyOogas",
            "outputs": [],
            "stateMutability": "nonpayable",
            "type": "function"
        },
        {
            "inputs": [],
            "name": "gameActive",
            "outputs": [
                {
                    "internalType": "bool",
                    "name": "",
                    "type": "bool"
                }
            ],
            "stateMutability": "view",
            "type": "function"
        },
        {
            "inputs": [],
            "name": "getPrices",
            "outputs": [
                {
                    "components": [
                        {
                            "internalType": "uint256",
                            "name": "mintPrice",
                            "type": "uint256"
                        },
                        {
                            "internalType": "uint256",
                            "name": "mintStakePrice",
                            "type": "uint256"
                        },
                        {
                            "internalType": "uint256",
                            "name": "mintOGprice",
                            "type": "uint256"
                        },
                        {
                            "internalType": "uint256",
                            "name": "mintOGstakePrice",
                            "type": "uint256"
                        },
                        {
                            "internalType": "uint256",
                            "name": "mintDMTstakePrice",
                            "type": "uint256"
                        },
                        {
                            "internalType": "uint256[]",
                            "name": "roboLevelupPrice",
                            "type": "uint256[]"
                        },
                        {
                            "internalType": "uint256",
                            "name": "mekaMergePrice",
                            "type": "uint256"
                        },
                        {
                            "internalType": "uint256[]",
                            "name": "roboLevelupPriceOG",
                            "type": "uint256[]"
                        }
                    ],
                    "internalType": "struct PricesGetter",
                    "name": "",
                    "type": "tuple"
                }
            ],
            "stateMutability": "view",
            "type": "function"
        },
        {
            "inputs": [
                {
                    "internalType": "address",
                    "name": "user",
                    "type": "address"
                }
            ],
            "name": "getUnstakeCreditsForAddress",
            "outputs": [
                {
                    "internalType": "uint256",
                    "name": "",
                    "type": "uint256"
                }
            ],
            "stateMutability": "view",
            "type": "function"
        },
        {
            "inputs": [
                {
                    "internalType": "uint256",
                    "name": "",
                    "type": "uint256"
                }
            ],
            "name": "inCrew",
            "outputs": [
                {
                    "internalType": "uint256",
                    "name": "",
                    "type": "uint256"
                }
            ],
            "stateMutability": "view",
            "type": "function"
        },
        {
            "inputs": [],
            "name": "initV2",
            "outputs": [
                {
                    "internalType": "bool",
                    "name": "",
                    "type": "bool"
                }
            ],
            "stateMutability": "view",
            "type": "function"
        },
        {
            "inputs": [],
            "name": "initV3",
            "outputs": [
                {
                    "internalType": "bool",
                    "name": "",
                    "type": "bool"
                }
            ],
            "stateMutability": "view",
            "type": "function"
        },
        {
            "inputs": [],
            "name": "initV4",
            "outputs": [
                {
                    "internalType": "bool",
                    "name": "",
                    "type": "bool"
                }
            ],
            "stateMutability": "view",
            "type": "function"
        },
        {
            "inputs": [],
            "name": "initV5",
            "outputs": [
                {
                    "internalType": "bool",
                    "name": "",
                    "type": "bool"
                }
            ],
            "stateMutability": "view",
            "type": "function"
        },
        {
            "inputs": [
                {
                    "internalType": "uint256[]",
                    "name": "roboLevelupPrice_",
                    "type": "uint256[]"
                },
                {
                    "internalType": "uint256[]",
                    "name": "roboLevelupPriceOG_",
                    "type": "uint256[]"
                },
                {
                    "internalType": "uint256[]",
                    "name": "maxCrewForMekaLevel_",
                    "type": "uint256[]"
                },
                {
                    "internalType": "uint256[]",
                    "name": "roboOogaRewardPerSecInCrew_",
                    "type": "uint256[]"
                },
                {
                    "internalType": "uint256[]",
                    "name": "mekaCrewRewardMultiplier_",
                    "type": "uint256[]"
                },
                {
                    "internalType": "uint256[]",
                    "name": "unstakeCreditsForRoboLevel_",
                    "type": "uint256[]"
                }
            ],
            "name": "initialize_stage15",
            "outputs": [],
            "stateMutability": "nonpayable",
            "type": "function"
        },
        {
            "inputs": [
                {
                    "internalType": "uint256",
                    "name": "oogaId",
                    "type": "uint256"
                }
            ],
            "name": "isBabyOogaEvolved",
            "outputs": [
                {
                    "internalType": "bool",
                    "name": "",
                    "type": "bool"
                }
            ],
            "stateMutability": "view",
            "type": "function"
        },
        {
            "inputs": [
                {
                    "internalType": "uint256",
                    "name": "tokenId",
                    "type": "uint256"
                },
                {
                    "internalType": "uint256",
                    "name": "numberOfLevels",
                    "type": "uint256"
                }
            ],
            "name": "levelUpRoboOoga",
            "outputs": [],
            "stateMutability": "nonpayable",
            "type": "function"
        },
        {
            "inputs": [
                {
                    "internalType": "uint256",
                    "name": "tokenId",
                    "type": "uint256"
                },
                {
                    "internalType": "uint256",
                    "name": "numberOfLevels",
                    "type": "uint256"
                },
                {
                    "internalType": "uint256[]",
                    "name": "burnTokenIds",
                    "type": "uint256[]"
                }
            ],
            "name": "levelUpRoboOogaWithOG",
            "outputs": [],
            "stateMutability": "nonpayable",
            "type": "function"
        },
        {
            "inputs": [
                {
                    "internalType": "uint256",
                    "name": "",
                    "type": "uint256"
                }
            ],
            "name": "maxCrewForMekaLevel",
            "outputs": [
                {
                    "internalType": "uint256",
                    "name": "",
                    "type": "uint256"
                }
            ],
            "stateMutability": "view",
            "type": "function"
        },
        {
            "inputs": [],
            "name": "maxMintWithDMT",
            "outputs": [
                {
                    "internalType": "uint256",
                    "name": "",
                    "type": "uint256"
                }
            ],
            "stateMutability": "view",
            "type": "function"
        },
        {
            "inputs": [],
            "name": "maxMintedRewardTokens",
            "outputs": [
                {
                    "internalType": "uint256",
                    "name": "",
                    "type": "uint256"
                }
            ],
            "stateMutability": "view",
            "type": "function"
        },
        {
            "inputs": [],
            "name": "maxOgSupply",
            "outputs": [
                {
                    "internalType": "uint256",
                    "name": "",
                    "type": "uint256"
                }
            ],
            "stateMutability": "view",
            "type": "function"
        },
        {
            "inputs": [],
            "name": "maxTokenSupply",
            "outputs": [
                {
                    "internalType": "uint256",
                    "name": "",
                    "type": "uint256"
                }
            ],
            "stateMutability": "view",
            "type": "function"
        },
        {
            "inputs": [
                {
                    "internalType": "uint256",
                    "name": "",
                    "type": "uint256"
                }
            ],
            "name": "megaLevelProbabilities",
            "outputs": [
                {
                    "internalType": "uint256",
                    "name": "",
                    "type": "uint256"
                }
            ],
            "stateMutability": "view",
            "type": "function"
        },
        {
            "inputs": [
                {
                    "internalType": "uint256",
                    "name": "",
                    "type": "uint256"
                },
                {
                    "internalType": "uint256",
                    "name": "",
                    "type": "uint256"
                }
            ],
            "name": "megaStaked",
            "outputs": [
                {
                    "internalType": "uint256",
                    "name": "",
                    "type": "uint256"
                }
            ],
            "stateMutability": "view",
            "type": "function"
        },
        {
            "inputs": [
                {
                    "internalType": "uint256",
                    "name": "",
                    "type": "uint256"
                }
            ],
            "name": "megaTributePoints",
            "outputs": [
                {
                    "internalType": "uint256",
                    "name": "",
                    "type": "uint256"
                }
            ],
            "stateMutability": "view",
            "type": "function"
        },
        {
            "inputs": [
                {
                    "internalType": "uint256",
                    "name": "",
                    "type": "uint256"
                }
            ],
            "name": "mekaCrewRewardMultiplier",
            "outputs": [
                {
                    "internalType": "uint256",
                    "name": "",
                    "type": "uint256"
                }
            ],
            "stateMutability": "view",
            "type": "function"
        },
        {
            "inputs": [
                {
                    "internalType": "uint256",
                    "name": "",
                    "type": "uint256"
                }
            ],
            "name": "mekaLevelSharePoints",
            "outputs": [
                {
                    "internalType": "uint256",
                    "name": "",
                    "type": "uint256"
                }
            ],
            "stateMutability": "view",
            "type": "function"
        },
        {
            "inputs": [],
            "name": "mekaTotalPointsStaked",
            "outputs": [
                {
                    "internalType": "uint256",
                    "name": "",
                    "type": "uint256"
                }
            ],
            "stateMutability": "view",
            "type": "function"
        },
        {
            "inputs": [],
            "name": "mekaTotalRewardPerPoint",
            "outputs": [
                {
                    "internalType": "uint256",
                    "name": "",
                    "type": "uint256"
                }
            ],
            "stateMutability": "view",
            "type": "function"
        },
        {
            "inputs": [
                {
                    "internalType": "uint256",
                    "name": "tokenIdSave",
                    "type": "uint256"
                },
                {
                    "internalType": "uint256",
                    "name": "tokenIdBurn",
                    "type": "uint256"
                }
            ],
            "name": "mergeMekaApes",
            "outputs": [],
            "stateMutability": "payable",
            "type": "function"
        },
        {
            "inputs": [],
            "name": "mergeRandomGas",
            "outputs": [
                {
                    "internalType": "uint256",
                    "name": "",
                    "type": "uint256"
                }
            ],
            "stateMutability": "view",
            "type": "function"
        },
        {
            "inputs": [
                {
                    "internalType": "uint256",
                    "name": "",
                    "type": "uint256"
                }
            ],
            "name": "mergeRequests",
            "outputs": [
                {
                    "internalType": "uint256",
                    "name": "",
                    "type": "uint256"
                }
            ],
            "stateMutability": "view",
            "type": "function"
        },
        {
            "inputs": [
                {
                    "internalType": "uint256",
                    "name": "",
                    "type": "uint256"
                }
            ],
            "name": "mintOGpriceSteps",
            "outputs": [
                {
                    "internalType": "uint256",
                    "name": "",
                    "type": "uint256"
                }
            ],
            "stateMutability": "view",
            "type": "function"
        },
        {
            "inputs": [
                {
                    "internalType": "uint256",
                    "name": "amount",
                    "type": "uint256"
                },
                {
                    "internalType": "bool",
                    "name": "staking",
                    "type": "bool"
                }
            ],
            "name": "mintRandomGas",
            "outputs": [
                {
                    "internalType": "uint256",
                    "name": "",
                    "type": "uint256"
                }
            ],
            "stateMutability": "view",
            "type": "function"
        },
        {
            "inputs": [
                {
                    "internalType": "uint256",
                    "name": "",
                    "type": "uint256"
                }
            ],
            "name": "mintRequests",
            "outputs": [
                {
                    "internalType": "uint32",
                    "name": "startFromId",
                    "type": "uint32"
                },
                {
                    "internalType": "uint8",
                    "name": "amount",
                    "type": "uint8"
                },
                {
                    "internalType": "uint8",
                    "name": "attackChance",
                    "type": "uint8"
                },
                {
                    "internalType": "bool",
                    "name": "toStake",
                    "type": "bool"
                }
            ],
            "stateMutability": "view",
            "type": "function"
        },
        {
            "inputs": [],
            "name": "mintSale",
            "outputs": [
                {
                    "internalType": "bool",
                    "name": "",
                    "type": "bool"
                }
            ],
            "stateMutability": "view",
            "type": "function"
        },
        {
            "inputs": [],
            "name": "mintSaleAmount",
            "outputs": [
                {
                    "internalType": "uint256",
                    "name": "",
                    "type": "uint256"
                }
            ],
            "stateMutability": "view",
            "type": "function"
        },
        {
            "inputs": [],
            "name": "mintSigWallet",
            "outputs": [
                {
                    "internalType": "address",
                    "name": "",
                    "type": "address"
                }
            ],
            "stateMutability": "view",
            "type": "function"
        },
        {
            "inputs": [
                {
                    "internalType": "uint256",
                    "name": "amount",
                    "type": "uint256"
                },
                {
                    "internalType": "bool",
                    "name": "toStake",
                    "type": "bool"
                }
            ],
            "name": "mintWithOG",
            "outputs": [],
            "stateMutability": "payable",
            "type": "function"
        },
        {
            "inputs": [],
            "name": "nextClaimWithoutRandomId",
            "outputs": [
                {
                    "internalType": "uint256",
                    "name": "",
                    "type": "uint256"
                }
            ],
            "stateMutability": "view",
            "type": "function"
        },
        {
            "inputs": [],
            "name": "nextCrewId",
            "outputs": [
                {
                    "internalType": "uint256",
                    "name": "",
                    "type": "uint256"
                }
            ],
            "stateMutability": "view",
            "type": "function"
        },
        {
            "inputs": [],
            "name": "nextRandomRequestId",
            "outputs": [
                {
                    "internalType": "uint256",
                    "name": "",
                    "type": "uint256"
                }
            ],
            "stateMutability": "view",
            "type": "function"
        },
        {
            "inputs": [],
            "name": "nextTokenId",
            "outputs": [
                {
                    "internalType": "uint256",
                    "name": "",
                    "type": "uint256"
                }
            ],
            "stateMutability": "view",
            "type": "function"
        },
        {
            "inputs": [
                {
                    "internalType": "address",
                    "name": "",
                    "type": "address"
                }
            ],
            "name": "numberOfMintedOogas",
            "outputs": [
                {
                    "internalType": "uint256",
                    "name": "",
                    "type": "uint256"
                }
            ],
            "stateMutability": "view",
            "type": "function"
        },
        {
            "inputs": [],
            "name": "ogMintAttackChance",
            "outputs": [
                {
                    "internalType": "uint256",
                    "name": "",
                    "type": "uint256"
                }
            ],
            "stateMutability": "view",
            "type": "function"
        },
        {
            "inputs": [],
            "name": "ogMinted",
            "outputs": [
                {
                    "internalType": "uint256",
                    "name": "",
                    "type": "uint256"
                }
            ],
            "stateMutability": "view",
            "type": "function"
        },
        {
            "inputs": [],
            "name": "ogRewardMinted",
            "outputs": [
                {
                    "internalType": "bool",
                    "name": "",
                    "type": "bool"
                }
            ],
            "stateMutability": "view",
            "type": "function"
        },
        {
            "inputs": [],
            "name": "ogToken",
            "outputs": [
                {
                    "internalType": "contract OogearERC20",
                    "name": "",
                    "type": "address"
                }
            ],
            "stateMutability": "view",
            "type": "function"
        },
        {
            "inputs": [
                {
                    "internalType": "uint256",
                    "name": "",
                    "type": "uint256"
                }
            ],
            "name": "oogaAttributes",
            "outputs": [
                {
                    "internalType": "enum OogaType",
                    "name": "oogaType",
                    "type": "uint8"
                },
                {
                    "internalType": "uint8",
                    "name": "level",
                    "type": "uint8"
                },
                {
                    "internalType": "bool",
                    "name": "staked",
                    "type": "bool"
                },
                {
                    "internalType": "address",
                    "name": "stakedOwner",
                    "type": "address"
                },
                {
                    "internalType": "uint256",
                    "name": "lastClaimTimestamp",
                    "type": "uint256"
                },
                {
                    "internalType": "uint256",
                    "name": "savedReward",
                    "type": "uint256"
                },
                {
                    "internalType": "uint256",
                    "name": "lastRewardPerPoint",
                    "type": "uint256"
                },
                {
                    "internalType": "uint256",
                    "name": "stakedMegaIndex",
                    "type": "uint256"
                }
            ],
            "stateMutability": "view",
            "type": "function"
        },
        {
            "inputs": [
                {
                    "internalType": "uint256",
                    "name": "",
                    "type": "uint256"
                }
            ],
            "name": "oogaEvolved",
            "outputs": [
                {
                    "internalType": "bool",
                    "name": "",
                    "type": "bool"
                }
            ],
            "stateMutability": "view",
            "type": "function"
        },
        {
            "inputs": [],
            "name": "oogaVerse",
            "outputs": [
                {
                    "internalType": "contract IERC721",
                    "name": "",
                    "type": "address"
                }
            ],
            "stateMutability": "view",
            "type": "function"
        },
        {
            "inputs": [],
            "name": "owner",
            "outputs": [
                {
                    "internalType": "address",
                    "name": "",
                    "type": "address"
                }
            ],
            "stateMutability": "view",
            "type": "function"
        },
        {
            "inputs": [],
            "name": "previousBaseFee",
            "outputs": [
                {
                    "internalType": "uint256",
                    "name": "",
                    "type": "uint256"
                }
            ],
            "stateMutability": "view",
            "type": "function"
        },
        {
            "inputs": [],
            "name": "prices",
            "outputs": [
                {
                    "internalType": "uint256",
                    "name": "mintPrice",
                    "type": "uint256"
                },
                {
                    "internalType": "uint256",
                    "name": "mintStakePrice",
                    "type": "uint256"
                },
                {
                    "internalType": "uint256",
                    "name": "mintDMTstakePrice",
                    "type": "uint256"
                },
                {
                    "internalType": "uint256",
                    "name": "mekaMergePrice",
                    "type": "uint256"
                }
            ],
            "stateMutability": "view",
            "type": "function"
        },
        {
            "inputs": [],
            "name": "publicMintAllowance",
            "outputs": [
                {
                    "internalType": "uint256",
                    "name": "",
                    "type": "uint256"
                }
            ],
            "stateMutability": "view",
            "type": "function"
        },
        {
            "inputs": [],
            "name": "publicMintStarted",
            "outputs": [
                {
                    "internalType": "bool",
                    "name": "",
                    "type": "bool"
                }
            ],
            "stateMutability": "view",
            "type": "function"
        },
        {
            "inputs": [],
            "name": "randomMekaProbability",
            "outputs": [
                {
                    "internalType": "uint256",
                    "name": "",
                    "type": "uint256"
                }
            ],
            "stateMutability": "view",
            "type": "function"
        },
        {
            "inputs": [],
            "name": "randomProvider",
            "outputs": [
                {
                    "internalType": "address",
                    "name": "",
                    "type": "address"
                }
            ],
            "stateMutability": "view",
            "type": "function"
        },
        {
            "inputs": [
                {
                    "internalType": "uint256",
                    "name": "",
                    "type": "uint256"
                }
            ],
            "name": "randomRequests",
            "outputs": [
                {
                    "internalType": "enum RandomRequestType",
                    "name": "requestType",
                    "type": "uint8"
                },
                {
                    "internalType": "address",
                    "name": "user",
                    "type": "address"
                },
                {
                    "internalType": "bool",
                    "name": "active",
                    "type": "bool"
                }
            ],
            "stateMutability": "view",
            "type": "function"
        },
        {
            "inputs": [],
            "name": "randomsGas",
            "outputs": [
                {
                    "internalType": "uint256",
                    "name": "mintBase",
                    "type": "uint256"
                },
                {
                    "internalType": "uint256",
                    "name": "mintPerToken",
                    "type": "uint256"
                },
                {
                    "internalType": "uint256",
                    "name": "mintPerTokenStaked",
                    "type": "uint256"
                },
                {
                    "internalType": "uint256",
                    "name": "unstakeBase",
                    "type": "uint256"
                },
                {
                    "internalType": "uint256",
                    "name": "unstakePerToken",
                    "type": "uint256"
                },
                {
                    "internalType": "uint256",
                    "name": "mergeBase",
                    "type": "uint256"
                }
            ],
            "stateMutability": "view",
            "type": "function"
        },
        {
            "inputs": [
                {
                    "internalType": "uint256[]",
                    "name": "requestIds",
                    "type": "uint256[]"
                },
                {
                    "internalType": "uint256[]",
                    "name": "entropies",
                    "type": "uint256[]"
                }
            ],
            "name": "receiveMultipleRandoms",
            "outputs": [],
            "stateMutability": "nonpayable",
            "type": "function"
        },
        {
            "inputs": [
                {
                    "internalType": "uint256",
                    "name": "requestId",
                    "type": "uint256"
                },
                {
                    "internalType": "uint256",
                    "name": "entropy",
                    "type": "uint256"
                }
            ],
            "name": "receiveRandoms",
            "outputs": [],
            "stateMutability": "nonpayable",
            "type": "function"
        },
        {
            "inputs": [
                {
                    "internalType": "uint256",
                    "name": "crewId",
                    "type": "uint256"
                }
            ],
            "name": "removeCrew",
            "outputs": [],
            "stateMutability": "nonpayable",
            "type": "function"
        },
        {
            "inputs": [],
            "name": "renounceOwnership",
            "outputs": [],
            "stateMutability": "nonpayable",
            "type": "function"
        },
        {
            "inputs": [
                {
                    "internalType": "uint256",
                    "name": "",
                    "type": "uint256"
                }
            ],
            "name": "roboLevelupPriceOG",
            "outputs": [
                {
                    "internalType": "uint256",
                    "name": "",
                    "type": "uint256"
                }
            ],
            "stateMutability": "view",
            "type": "function"
        },
        {
            "inputs": [
                {
                    "internalType": "uint256",
                    "name": "",
                    "type": "uint256"
                }
            ],
            "name": "roboOogaMinimalRewardToUnstake",
            "outputs": [
                {
                    "internalType": "uint256",
                    "name": "",
                    "type": "uint256"
                }
            ],
            "stateMutability": "view",
            "type": "function"
        },
        {
            "inputs": [
                {
                    "internalType": "uint256",
                    "name": "",
                    "type": "uint256"
                }
            ],
            "name": "roboOogaRewardAttackProbabilities",
            "outputs": [
                {
                    "internalType": "uint256",
                    "name": "",
                    "type": "uint256"
                }
            ],
            "stateMutability": "view",
            "type": "function"
        },
        {
            "inputs": [
                {
                    "internalType": "uint256",
                    "name": "",
                    "type": "uint256"
                }
            ],
            "name": "roboOogaRewardPerSec",
            "outputs": [
                {
                    "internalType": "uint256",
                    "name": "",
                    "type": "uint256"
                }
            ],
            "stateMutability": "view",
            "type": "function"
        },
        {
            "inputs": [
                {
                    "internalType": "uint256",
                    "name": "",
                    "type": "uint256"
                }
            ],
            "name": "roboOogaRewardPerSecInCrew",
            "outputs": [
                {
                    "internalType": "uint256",
                    "name": "",
                    "type": "uint256"
                }
            ],
            "stateMutability": "view",
            "type": "function"
        },
        {
            "inputs": [
                {
                    "internalType": "uint256",
                    "name": "",
                    "type": "uint256"
                }
            ],
            "name": "roboOogaRewardPerSec_midStage",
            "outputs": [
                {
                    "internalType": "uint256",
                    "name": "",
                    "type": "uint256"
                }
            ],
            "stateMutability": "view",
            "type": "function"
        },
        {
            "inputs": [
                {
                    "internalType": "uint256[]",
                    "name": "tokenIds",
                    "type": "uint256[]"
                }
            ],
            "name": "stake",
            "outputs": [],
            "stateMutability": "nonpayable",
            "type": "function"
        },
        {
            "inputs": [],
            "name": "tokensMintedWithDMT",
            "outputs": [
                {
                    "internalType": "uint256",
                    "name": "",
                    "type": "uint256"
                }
            ],
            "stateMutability": "view",
            "type": "function"
        },
        {
            "inputs": [],
            "name": "totalMintETH",
            "outputs": [
                {
                    "internalType": "uint256",
                    "name": "",
                    "type": "uint256"
                }
            ],
            "stateMutability": "view",
            "type": "function"
        },
        {
            "inputs": [],
            "name": "totalMintedRewardTokens",
            "outputs": [
                {
                    "internalType": "uint256",
                    "name": "",
                    "type": "uint256"
                }
            ],
            "stateMutability": "view",
            "type": "function"
        },
        {
            "inputs": [],
            "name": "totalMintedTokens",
            "outputs": [
                {
                    "internalType": "uint256",
                    "name": "",
                    "type": "uint256"
                }
            ],
            "stateMutability": "view",
            "type": "function"
        },
        {
            "inputs": [],
            "name": "totalRandomTxFee",
            "outputs": [
                {
                    "internalType": "uint256",
                    "name": "",
                    "type": "uint256"
                }
            ],
            "stateMutability": "view",
            "type": "function"
        },
        {
            "inputs": [],
            "name": "totalRandomTxFeeWithdrawn",
            "outputs": [
                {
                    "internalType": "uint256",
                    "name": "",
                    "type": "uint256"
                }
            ],
            "stateMutability": "view",
            "type": "function"
        },
        {
            "inputs": [
                {
                    "internalType": "address",
                    "name": "newOwner",
                    "type": "address"
                }
            ],
            "name": "transferOwnership",
            "outputs": [],
            "stateMutability": "nonpayable",
            "type": "function"
        },
        {
            "inputs": [
                {
                    "internalType": "uint256[]",
                    "name": "tokenIds",
                    "type": "uint256[]"
                }
            ],
            "name": "unstake",
            "outputs": [],
            "stateMutability": "payable",
            "type": "function"
        },
        {
            "inputs": [
                {
                    "internalType": "address",
                    "name": "",
                    "type": "address"
                }
            ],
            "name": "unstakeCredits",
            "outputs": [
                {
                    "internalType": "uint256",
                    "name": "",
                    "type": "uint256"
                }
            ],
            "stateMutability": "view",
            "type": "function"
        },
        {
            "inputs": [
                {
                    "internalType": "uint256",
                    "name": "",
                    "type": "uint256"
                }
            ],
            "name": "unstakeCreditsForRoboLevel",
            "outputs": [
                {
                    "internalType": "uint256",
                    "name": "",
                    "type": "uint256"
                }
            ],
            "stateMutability": "view",
            "type": "function"
        },
        {
            "inputs": [],
            "name": "unstakeCreditsStart",
            "outputs": [
                {
                    "internalType": "uint256",
                    "name": "",
                    "type": "uint256"
                }
            ],
            "stateMutability": "view",
            "type": "function"
        },
        {
            "inputs": [
                {
                    "internalType": "uint256",
                    "name": "roboAmount",
                    "type": "uint256"
                }
            ],
            "name": "unstakeRandomGas",
            "outputs": [
                {
                    "internalType": "uint256",
                    "name": "",
                    "type": "uint256"
                }
            ],
            "stateMutability": "view",
            "type": "function"
        },
        {
            "inputs": [
                {
                    "internalType": "address",
                    "name": "",
                    "type": "address"
                }
            ],
            "name": "usedUnstakeCredits",
            "outputs": [
                {
                    "internalType": "uint256",
                    "name": "",
                    "type": "uint256"
                }
            ],
            "stateMutability": "view",
            "type": "function"
        },
        {
            "inputs": [
                {
                    "internalType": "address",
                    "name": "",
                    "type": "address"
                }
            ],
            "name": "withdrawerLastTotalMintETH",
            "outputs": [
                {
                    "internalType": "uint256",
                    "name": "",
                    "type": "uint256"
                }
            ],
            "stateMutability": "view",
            "type": "function"
        },
        {
            "inputs": [
                {
                    "internalType": "address",
                    "name": "",
                    "type": "address"
                }
            ],
            "name": "withdrawerPercent",
            "outputs": [
                {
                    "internalType": "uint256",
                    "name": "",
                    "type": "uint256"
                }
            ],
            "stateMutability": "view",
            "type": "function"
        }
    ],
    "bytecode": "0x608060405234801561001057600080fd5b50615fd380620000216000396000f3fe6080604052600436106105295760003560e01c806393b2662a116102a5578063ca067ad01161016c578063ca067ad014611034578063ca24964b1461108e578063ca97f520146110a8578063cecb2db7146110c2578063d3419bf3146110e2578063d385014d14611125578063d6ebe4fe14611152578063d7c97fb414611168578063d835de0614611188578063dd2c09481461119e578063dd2f6d4b146111b3578063e0fcd666146111e0578063e449f34114611200578063e6b4d60b14611213578063e6d3565514611229578063e6f0ba611461123f578063e826cdf11461125f578063e9a16bdb146112d5578063ec01952b146112ef578063ec7373ce14611305578063ecb24fb514611332578063ed39407914611345578063eee21c2d14611365578063f020044f14611385578063f22395c8146113a4578063f2fde38b146113ba578063f3db1191146113da578063febeb132146113f0578063ff75eece1461140657600080fd5b806393b2662a14610ca257806394be311014610cc257806395044c9214610ce2578063961b294a14610d0257806397881c2f14610d215780639978924114610d4e5780639e15827614610d6e5780639efbdcd014610d84578063a0e69fe614610da4578063a4da467e14610dc3578063a4e9f29714610de3578063a5b63cc914610e3b578063acac98dd14610e51578063ad11cd0514610e67578063adb9875114610e87578063b168dce214610eb4578063b56c610514610ed4578063b5e6230114610eea578063b69b2a6514610f0a578063bb905c7514610f2a578063bd9a548b14610f40578063c06fda8e14610f62578063c24b719714610f78578063c25190d414610f98578063c37a576114610fb8578063c44ca13314610fe8578063c54b735814610ffe578063c94c7ff41461101457600080fd5b806352695aa0116103f457806352695aa0146108e357806355449863146109035780635ca2034a146109235780635ca58adf146109395780635e71cc7c14610959578063662162d51461096f57806366ed6fbe146109855780636bff9506146109a55780636c4a8c1714610a28578063704a6f5914610a55578063715018a614610a755780637250c41814610a8a578063729a90c814610aaa578063746aab9114610aca57806375794a3c14610aea57806376bcff4e14610b005780637bf1b56214610b2d5780637d15132314610b4d5780637d5ee8e614610b635780637e5ae4b714610b79578063833c7fc014610ba9578063834e91cf14610bbf578063878e9de614610bd55780638da5cb5b14610bf55780638e32e31614610c0a5780638ec14dfc14610c1f5780638f46500e14610c35578063909e376d14610c5557806392bbfd5114610c7557600080fd5b8063017193271461052e5780630181de4214610557578063035240051461056d57806308a1c391146105975780630a1b494d146105b75780630ee9a59b146105cc5780630fbf0a93146105ec5780631064a3831461060c578063113bf8871461062c578063118b8daf1461064257806319de5221146106585780631b9401cd1461067857806325782210146106985780632626b829146106ae5780632e9554d3146106ce5780633186d3c9146106e857806338e692af146107155780633a6a6ca31461072b5780633bf27cf11461074b578063424e657514610783578063448883d714610807578063448b77531461081d57806346dd847314610837578063482a527814610857578063489da8ff146108775780634e47a79a1461089757806350f7c204146108ad57806351e9a59a146108c3575b600080fd5b34801561053a57600080fd5b5061054460855481565b6040519081526020015b60405180910390f35b34801561056357600080fd5b50610544608b5481565b34801561057957600080fd5b506093546105879060ff1681565b604051901515815260200161054e565b3480156105a357600080fd5b506105446105b23660046154f1565b611426565b6105ca6105c5366004615518565b611447565b005b3480156105d857600080fd5b506105446105e73660046154f1565b611638565b3480156105f857600080fd5b506105ca610607366004615593565b611648565b34801561061857600080fd5b506105ca610627366004615593565b61178b565b34801561063857600080fd5b50610544607e5481565b34801561064e57600080fd5b5061054460b85481565b34801561066457600080fd5b506105446106733660046155d4565b6119e9565b34801561068457600080fd5b506105ca6106933660046155d4565b611a1d565b3480156106a457600080fd5b5061054460815481565b3480156106ba57600080fd5b506105446106c93660046154f1565b611a55565b3480156106da57600080fd5b5060b0546105879060ff1681565b3480156106f457600080fd5b506105446107033660046154f1565b60b36020526000908152604090205481565b34801561072157600080fd5b50610544608a5481565b34801561073757600080fd5b506105446107463660046154f1565b611a65565b34801561075757600080fd5b5060675461076b906001600160a01b031681565b6040516001600160a01b03909116815260200161054e565b34801561078f57600080fd5b506107d761079e3660046154f1565b60a46020526000908152604090205463ffffffff81169060ff600160201b8204811691600160281b8104821691600160301b9091041684565b6040805163ffffffff95909516855260ff938416602086015291909216908301521515606082015260800161054e565b34801561081357600080fd5b50610544607d5481565b34801561082957600080fd5b5060b9546105879060ff1681565b34801561084357600080fd5b506105ca6108523660046156ce565b611a75565b34801561086357600080fd5b506105446108723660046154f1565b611b20565b34801561088357600080fd5b506105446108923660046154f1565b611b30565b3480156108a357600080fd5b5061054460b15481565b3480156108b957600080fd5b50610544609a5481565b3480156108cf57600080fd5b506105446108de3660046154f1565b611b40565b3480156108ef57600080fd5b506105ca6108fe3660046155d4565b611b50565b34801561090f57600080fd5b506105ca61091e3660046157ad565b611b76565b34801561092f57600080fd5b5061054460925481565b34801561094557600080fd5b506105ca610954366004615826565b611bd3565b34801561096557600080fd5b5061054460955481565b34801561097b57600080fd5b50610544609c5481565b34801561099157600080fd5b506105446109a03660046154f1565b611c51565b3480156109b157600080fd5b50610a146109c03660046154f1565b6090602052600090815260409020805460018201546002830154600384015460049094015460ff8085169561010086048216956201000081049092169463010000009092046001600160a01b031693919288565b60405161054e98979695949392919061588e565b348015610a3457600080fd5b50610544610a433660046154f1565b60a66020526000908152604090205481565b348015610a6157600080fd5b506105ca610a703660046154f1565b611c61565b348015610a8157600080fd5b506105ca611d7e565b348015610a9657600080fd5b506105ca610aa53660046158e5565b611db9565b348015610ab657600080fd5b50610544610ac53660046154f1565b611e60565b348015610ad657600080fd5b506105ca610ae53660046154f1565b611e70565b348015610af657600080fd5b50610544607f5481565b348015610b0c57600080fd5b50610544610b1b366004615a37565b60bc6020526000908152604090205481565b348015610b3957600080fd5b50610544610b483660046154f1565b611f45565b348015610b5957600080fd5b5061054460995481565b348015610b6f57600080fd5b5061054460985481565b348015610b8557600080fd5b50610587610b943660046154f1565b60009081526091602052604090205460ff1690565b348015610bb557600080fd5b50610544609d5481565b348015610bcb57600080fd5b5061054460975481565b348015610be157600080fd5b506105ca610bf0366004615a54565b611f55565b348015610c0157600080fd5b5061076b611fd9565b348015610c1657600080fd5b50610544611fe8565b348015610c2b57600080fd5b5061054460aa5481565b348015610c4157600080fd5b50606a5461076b906001600160a01b031681565b348015610c6157600080fd5b5060685461076b906001600160a01b031681565b348015610c8157600080fd5b50610544610c90366004615a37565b60a16020526000908152604090205481565b348015610cae57600080fd5b50610544610cbd3660046154f1565b611ffe565b348015610cce57600080fd5b506105ca610cdd366004615acd565b61201c565b348015610cee57600080fd5b50610544610cfd3660046154f1565b61207a565b348015610d0e57600080fd5b5060ac5461058790610100900460ff1681565b348015610d2d57600080fd5b50610d41610d3c366004615593565b612143565b60405161054e9190615b66565b348015610d5a57600080fd5b50610544610d693660046154f1565b6121eb565b348015610d7a57600080fd5b5061054460865481565b348015610d9057600080fd5b50610544610d9f3660046154f1565b6121fb565b348015610db057600080fd5b5060ae5461058790610100900460ff1681565b348015610dcf57600080fd5b506105ca610dde366004615593565b61220b565b348015610def57600080fd5b50607254607354607454607554607654607754610e0e95949392919086565b604080519687526020870195909552938501929092526060840152608083015260a082015260c00161054e565b348015610e4757600080fd5b50610544609f5481565b348015610e5d57600080fd5b5061054460ba5481565b348015610e7357600080fd5b506105ca610e82366004615593565b612422565b348015610e9357600080fd5b50610544610ea2366004615a37565b60bb6020526000908152604090205481565b348015610ec057600080fd5b506105ca610ecf3660046154f1565b61245d565b348015610ee057600080fd5b5061054460835481565b348015610ef657600080fd5b50610544610f053660046154f1565b612529565b348015610f1657600080fd5b5060665461076b906001600160a01b031681565b348015610f3657600080fd5b5061054460ad5481565b348015610f4c57600080fd5b50610f5561275f565b60405161054e9190615be5565b348015610f6e57600080fd5b5061054460845481565b348015610f8457600080fd5b50610544610f93366004615518565b6128d4565b348015610fa457600080fd5b50610544610fb3366004615a37565b6128ed565b348015610fc457600080fd5b50610587610fd33660046154f1565b60916020526000908152604090205460ff1681565b348015610ff457600080fd5b5061054460ab5481565b34801561100a57600080fd5b5061054460a75481565b34801561102057600080fd5b506105ca61102f366004615593565b612928565b34801561104057600080fd5b5061107f61104f3660046154f1565b60a36020526000908152604090205460ff808216916001600160a01b0361010082041691600160a81b9091041683565b60405161054e93929190615c66565b34801561109a57600080fd5b5060ae546105879060ff1681565b3480156110b457600080fd5b5060ac546105879060ff1681565b3480156110ce57600080fd5b50610d416110dd366004615593565b61295b565b3480156110ee57600080fd5b50606b54606c54606f546071546111059392919084565b60408051948552602085019390935291830152606082015260800161054e565b34801561113157600080fd5b506105446111403660046154f1565b60a56020526000908152604090205481565b34801561115e57600080fd5b50610544609b5481565b34801561117457600080fd5b5060655461076b906001600160a01b031681565b34801561119457600080fd5b5061054460795481565b3480156111aa57600080fd5b506105446129fc565b3480156111bf57600080fd5b506105446111ce366004615a37565b60946020526000908152604090205481565b3480156111ec57600080fd5b506105ca6111fb366004615c99565b612a14565b6105ca61120e366004615593565b612a96565b34801561121f57600080fd5b5061054460825481565b34801561123557600080fd5b5061054460a95481565b34801561124b57600080fd5b5060695461076b906001600160a01b031681565b34801561126b57600080fd5b506112ab61127a3660046154f1565b60b26020526000908152604090208054600282015460038301546004909301546001600160a01b0390921692909184565b604080516001600160a01b039095168552602085019390935291830152606082015260800161054e565b3480156112e157600080fd5b506096546105879060ff1681565b3480156112fb57600080fd5b5061054460a25481565b34801561131157600080fd5b50610544611320366004615a37565b60a06020526000908152604090205481565b6105ca6113403660046155d4565b612b0c565b34801561135157600080fd5b506105ca611360366004615593565b6130b8565b34801561137157600080fd5b506105ca611380366004615cf8565b61312c565b34801561139157600080fd5b5060965461058790610100900460ff1681565b3480156113b057600080fd5b50610544609e5481565b3480156113c657600080fd5b506105ca6113d5366004615a37565b613175565b3480156113e657600080fd5b5061054460a85481565b3480156113fc57600080fd5b5061054460805481565b34801561141257600080fd5b506105446114213660046154f1565b613215565b607c818154811061143657600080fd5b600091825260209091200154905081565b60965460ff161580156114615750609654610100900460ff165b6114865760405162461bcd60e51b815260040161147d90615d15565b60405180910390fd5b609a5482611492611fe8565b61149c9190615d48565b11156114d05760405162461bcd60e51b815260206004820152600360248201526245333160e81b604482015260640161147d565b60006114da613225565b9050806114e78484613267565b6114f19190615d60565b3410156115265760405162461bcd60e51b815260206004820152600360248201526245333360e81b604482015260640161147d565b34609d60008282546115389190615d48565b9091555060009050821561157057606b6003016079548154811061155e5761155e615d7f565b90600052602060002001549050611596565b606b6002016079548154811061158857611588615d7f565b906000526020600020015490505b6066546001600160a01b03166323b872dd33306115b38886615d60565b6040518463ffffffff1660e01b81526004016115d193929190615d95565b602060405180830381600087803b1580156115eb57600080fd5b505af11580156115ff573d6000803e3d6000fd5b505050506040513d601f19601f820116820180604052508101906116239190615db9565b506116323385856084546132b1565b50505050565b6087818154811061143657600080fd5b609654610100900460ff1661166f5760405162461bcd60e51b815260040161147d90615d15565b60005b818110156117865760655433906001600160a01b0316636352211e85858581811061169f5761169f615d7f565b905060200201356040518263ffffffff1660e01b81526004016116c491815260200190565b60206040518083038186803b1580156116dc57600080fd5b505afa1580156116f0573d6000803e3d6000fd5b505050506040513d601f19601f820116820180604052508101906117149190615dd6565b6001600160a01b0316146117505760405162461bcd60e51b815260206004820152600360248201526245343160e81b604482015260640161147d565b61177483838381811061176557611765615d7f565b9050602002013533600061341a565b8061177e81615df3565b915050611672565b505050565b60005b81811015611786576000609060008585858181106117ae576117ae615d7f565b6020908102929092013583525081019190915260400160002060655490915033906001600160a01b0316636352211e8686868181106117ef576117ef615d7f565b905060200201356040518263ffffffff1660e01b815260040161181491815260200190565b60206040518083038186803b15801561182c57600080fd5b505afa158015611840573d6000803e3d6000fd5b505050506040513d601f19601f820116820180604052508101906118649190615dd6565b6001600160a01b0316148061188957508054630100000090046001600160a01b031633145b6118be5760405162461bcd60e51b815260040161147d9060208082526004908201526322989b9960e11b604082015260600190565b6000815460ff1660018111156118d6576118d6615878565b1461190c5760405162461bcd60e51b815260040161147d906020808252600490820152634531373360e01b604082015260600190565b805460bd80549091610100900460ff1690811061192b5761192b615d7f565b600091825260208083209091015433835260bb90915260408220805491929091611956908490615d48565b90915550506065546001600160a01b03166342966c6885858581811061197e5761197e615d7f565b905060200201356040518263ffffffff1660e01b81526004016119a391815260200190565b600060405180830381600087803b1580156119bd57600080fd5b505af11580156119d1573d6000803e3d6000fd5b505050505080806119e190615df3565b91505061178e565b608c82600481106119f957600080fd5b018181548110611a0857600080fd5b90600052602060002001600091509150505481565b606a546001600160a01b03163314611a475760405162461bcd60e51b815260040161147d90615e0e565b611a5182826135d9565b5050565b60b7818154811061143657600080fd5b6078818154811061143657600080fd5b33611a7e611fd9565b6001600160a01b031614611aa45760405162461bcd60e51b815260040161147d90615e2b565b8051606b908155602080830151606c5560408301518051849392611acd92606d92910190615456565b5060608201518051611ae9916003840191602090910190615456565b506080820151600482015560a08201518051611b0f916005840191602090910190615456565b5060c0820151816006015590505050565b60af818154811061143657600080fd5b607b818154811061143657600080fd5b60b5818154811061143657600080fd5b60005b8181101561178657611b64836136d9565b80611b6e81615df3565b915050611b53565b33611b7f611fd9565b6001600160a01b031614611ba55760405162461bcd60e51b815260040161147d90615e2b565b8051607255602081015160735560408101516074556060810151607555608081015160765560a00151607755565b808314611c0b5760405162461bcd60e51b815260040161147d906020808252600490820152634531353160e01b604082015260600190565b60005b83811015611c4a57611c3885848484818110611c2c57611c2c615d7f565b90506020020135613997565b80611c4281615df3565b915050611c0e565b5050505050565b60b4818154811061143657600080fd5b600081815260b26020526040902080546001600160a01b03163314611cb15760405162461bcd60e51b815260040161147d906020808252600490820152632298999960e11b604082015260600190565b611cba8261245d565b60005b6001820154811015611d4e578260b36000846001018481548110611ce357611ce3615d7f565b90600052602060002001548152602001908152602001600020541415611d3c57600060b36000846001018481548110611d1e57611d1e615d7f565b90600052602060002001548152602001908152602001600020819055505b80611d4681615df3565b915050611cbd565b5060405182907f09698112a550dd9c01c2bd871ca714f89914920cedcfeb00905d4de747159a3390600090a25050565b33611d87611fd9565b6001600160a01b031614611dad5760405162461bcd60e51b815260040161147d90615e2b565b611db76000613df7565b565b33611dc2611fd9565b6001600160a01b031614611de85760405162461bcd60e51b815260040161147d90615e2b565b60b9805460ff19166001179055611e0160708d8d6154a1565b50611e0e60b48b8b6154a1565b50611e1b60b689896154a1565b50611e2860b587876154a1565b50611e3560b785856154a1565b50611e4260bd83836154a1565b5050600160b1555050600a60b8555050600560ba5550505050505050565b6088818154811061143657600080fd5b33611e79611fd9565b6001600160a01b031614611e9f5760405162461bcd60e51b815260040161147d90615e2b565b60ae5460ff1615611ed85760405162461bcd60e51b815260206004820152600360248201526245303360e81b604482015260640161147d565b60ae805460ff191660011790556066546040516340c10f1960e01b81526001600160a01b03909116906340c10f1990611f179030908590600401615e60565b600060405180830381600087803b158015611f3157600080fd5b505af1158015611c4a573d6000803e3d6000fd5b6089818154811061143657600080fd5b600085815260b26020526040902080546001600160a01b03163314611fa55760405162461bcd60e51b815260040161147d906020808252600490820152634531313160e01b604082015260600190565b611fae8661207a565b6004820155426002820155611fc68686866000613e49565b611fd186848461405c565b505050505050565b6033546001600160a01b031690565b60006001607f54611ff99190615e79565b905090565b600061200982614235565b60a9546120169190615d60565b92915050565b33612025611fd9565b6001600160a01b03161461204b5760405162461bcd60e51b815260040161147d90615e2b565b612057607a87876154a1565b50612064607b85856154a1565b50612071607c83836154a1565b50505050505050565b600081815260b260205260408120600181018054839160909183919082906120a4576120a4615d7f565b9060005260206000200154815260200190815260200160002090506000606460b78360000160019054906101000a900460ff1660ff16815481106120ea576120ea615d7f565b906000526020600020015484600301546121049190615d60565b61210e9190615ea6565b9050808360020154426121219190615e79565b61212b9190615d60565b836004015461213a9190615d48565b95945050505050565b6060816001600160401b0381111561215d5761215d6155f6565b604051908082528060200260200182016040528015612186578160200160208202803683370190505b50905060005b828110156121e4576121b58484838181106121a9576121a9615d7f565b90506020020135612529565b8282815181106121c7576121c7615d7f565b6020908102919091010152806121dc81615df3565b91505061218c565b5092915050565b60b6818154811061143657600080fd5b60bd818154811061143657600080fd5b80806122425760405162461bcd60e51b815260040161147d906020808252600490820152630453132360e41b604082015260600190565b60b18054908190600061225483615df3565b9091555050604051819033907fa6df9b8f40e16bf37c6f7f7dca55aaf3900a42a82bf36a2be3a2af68d5953f0e90600090a3600081815260b26020526040812080546001600160a01b0319163317815590609081878782816122b8576122b8615d7f565b90506020020135815260200190815260200160002090506001808111156122e1576122e1615878565b815460ff1660018111156122f7576122f7615878565b1461232d5760405162461bcd60e51b815260040161147d906020808252600490820152634531323160e01b604082015260600190565b805460b680549091610100900460ff1690811061234c5761234c615d7f565b90600052602060002001546001856123649190615e79565b111561239b5760405162461bcd60e51b815260040161147d906020808252600490820152632298991960e11b604082015260600190565b81600101868660008181106123b2576123b2615d7f565b8354600181018555600094855260208086209202939093013592019190915550839060b390888882816123e7576123e7615d7f565b9050602002013581526020019081526020016000208190555061240d8387876001613e49565b50426002820155600060049091015550505050565b3361242b611fd9565b6001600160a01b0316146124515760405162461bcd60e51b815260040161147d90615e2b565b611786607883836154a1565b600081815260b26020526040902080546001600160a01b031633146124ad5760405162461bcd60e51b815260040161147d906020808252600490820152634531333160e01b604082015260600190565b60006124b88361207a565b9050606460b854826124ca9190615d60565b6124d49190615ea6565b4260028401556000600484015590506124ed3382614252565b604051818152839033907fb411b44bd5c76eb08732ef9d1c023d5ef94e6c9b292801e07bcae2af5e4a860b9060200160405180910390a3505050565b60008181526090602052604080822081516101008101909252805483929190829060ff16600181111561255e5761255e615878565b600181111561256f5761256f615878565b8152815460ff61010082048116602084015262010000820416151560408301526001600160a01b03630100000090910416606082015260018201546080820152600282015460a0820152600382015460c082015260049091015460e09091015290506000815160018111156125e6576125e6615878565b141561271e5760a081015160ad5460008581526090602052604090206001015410156126b957607a826020015160ff168154811061262657612626615d7f565b9060005260206000200154609060008681526020019081526020016000206001015460ad546126559190615e79565b61265f9190615d60565b6126699082615d48565b905060af826020015160ff168154811061268557612685615d7f565b906000526020600020015460ad544261269e9190615e79565b6126a89190615d60565b6126b29082615d48565b9050612717565b60af826020015160ff16815481106126d3576126d3615d7f565b90600052602060002001546090600086815260200190815260200160002060010154426127009190615e79565b61270a9190615d60565b6127149082615d48565b90505b9392505050565b6088816020015160ff168154811061273857612738615d7f565b90600052602060002001548160c00151608a546127559190615e79565b6127179190615d60565b6127a760405180610100016040528060008152602001600081526020016000815260200160008152602001600081526020016060815260200160008152602001606081525090565b604051806101000160405280606b600001548152602001606b600101548152602001606b600201607954815481106127e1576127e1615d7f565b90600052602060002001548152602001606b6003016079548154811061280957612809615d7f565b600091825260209182902001548252606f548282015260708054604080518285028101850182528281529401939283018282801561286657602002820191906000526020600020905b815481526020019060010190808311612852575b50505050508152602001606b60060154815260200160b48054806020026020016040519081016040528092919081815260200182805480156128c757602002820191906000526020600020905b8154815260200190600101908083116128b3575b5050505050815250905090565b60006128e08383613267565b60a9546127179190615d60565b6001600160a01b038116600090815260bc602090815260408083205460bb90925282205460ba5461291e9190615d48565b6120169190615e79565b609654610100900460ff1661294f5760405162461bcd60e51b815260040161147d90615d15565b611786828260006142b2565b6060816001600160401b03811115612975576129756155f6565b60405190808252806020026020018201604052801561299e578160200160208202803683370190505b50905060005b828110156121e4576129cd8484838181106129c1576129c1615d7f565b9050602002013561207a565b8282815181106129df576129df615d7f565b6020908102919091010152806129f481615df3565b9150506129a4565b6000612a0760775490565b60a954611ff99190615d60565b606a546001600160a01b03163314612a3e5760405162461bcd60e51b815260040161147d90615e0e565b8260005b81811015611fd157612a84868683818110612a5f57612a5f615d7f565b90506020020135858584818110612a7857612a78615d7f565b905060200201356135d9565b80612a8e81615df3565b915050612a42565b609654610100900460ff16612abd5760405162461bcd60e51b815260040161147d90615d15565b612ac6336128ed565b811115612afe5760405162461bcd60e51b815260040161147d906020808252600490820152634531363160e01b604082015260600190565b6000611632838360016142b2565b60965460ff16158015612b265750609654610100900460ff165b612b425760405162461bcd60e51b815260040161147d90615d15565b80821415612b785760405162461bcd60e51b815260206004820152600360248201526245383160e81b604482015260640161147d565b6000612b82613225565b905080612b8e60775490565b612b989190615d60565b341015612bcd5760405162461bcd60e51b815260206004820152600360248201526222999b60e91b604482015260640161147d565b34609d6000828254612bdf9190615d48565b90915550506000838152609060205260408082208483529181902060655491516331a9108f60e11b815260048101879052909133916001600160a01b0390911690636352211e9060240160206040518083038186803b158015612c4157600080fd5b505afa158015612c55573d6000803e3d6000fd5b505050506040513d601f19601f82011682018060405250810190612c799190615dd6565b6001600160a01b03161480612cb05750815462010000900460ff168015612cb057508154630100000090046001600160a01b031633145b612ce25760405162461bcd60e51b8152602060048201526003602482015262114e0d60ea1b604482015260640161147d565b6065546040516331a9108f60e11b81526004810186905233916001600160a01b031690636352211e9060240160206040518083038186803b158015612d2657600080fd5b505afa158015612d3a573d6000803e3d6000fd5b505050506040513d601f19601f82011682018060405250810190612d5e9190615dd6565b6001600160a01b03161480612d955750805462010000900460ff168015612d9557508054630100000090046001600160a01b031633145b612dc75760405162461bcd60e51b815260206004820152600360248201526245383560e81b604482015260640161147d565b6001825460ff166001811115612ddf57612ddf615878565b148015612e0157506001815460ff166001811115612dff57612dff615878565b145b612e335760405162461bcd60e51b8152602060048201526003602482015262229c1960e91b604482015260640161147d565b8154610100900460ff16158015612e5157508054610100900460ff16155b612e835760405162461bcd60e51b815260206004820152600360248201526245383360e81b604482015260640161147d565b815460009062010000900460ff16151560011415612ee8576000612ea687612529565b9050612eb28183615d48565b608a54600386015560a2546040518381529193508891339190600080516020615f7e8339815191529060200160405180910390a4505b815462010000900460ff16151560011415612f53576000612f0886612529565b9050612f148183615d48565b608a54600385015560a2546040518381529193508791339190600080516020615f7e8339815191529060200160405180910390a4612f5186614634565b505b607154811015612ffa576066546071546001600160a01b03909116906323b872dd9033903090612f84908690615e79565b6040518463ffffffff1660e01b8152600401612fa293929190615d95565b602060405180830381600087803b158015612fbc57600080fd5b505af1158015612fd0573d6000803e3d6000fd5b505050506040513d601f19601f82011682018060405250810190612ff49190615db9565b50613012565b60715461301290339061300d9084615e79565b614252565b61301b86614887565b606554604051630852cd8d60e31b8152600481018790526001600160a01b03909116906342966c6890602401600060405180830381600087803b15801561306157600080fd5b505af1158015613075573d6000803e3d6000fd5b50506040518881528792503391507f7fbc09d28fa0377bea9dd7bc3289ca8cf2ed47c19c59b30347c08925c18e82d79060200160405180910390a3505050505050565b60965460ff161580156130d25750609654610100900460ff165b6130ee5760405162461bcd60e51b815260040161147d90615d15565b60005b818110156117865761311a83838381811061310e5761310e615d7f565b90506020020135614938565b8061312481615df3565b9150506130f1565b33613135611fd9565b6001600160a01b03161461315b5760405162461bcd60e51b815260040161147d90615e2b565b609680549115156101000261ff0019909216919091179055565b3361317e611fd9565b6001600160a01b0316146131a45760405162461bcd60e51b815260040161147d90615e2b565b6001600160a01b0381166132095760405162461bcd60e51b815260206004820152602660248201527f4f776e61626c653a206e6577206f776e657220697320746865207a65726f206160448201526564647265737360d01b606482015260840161147d565b61321281613df7565b50565b607a818154811061143657600080fd5b600060aa5460ab54426132389190615e79565b111561324d5760a9805460a8554890554260ab555b60a95460a8541015613260575060a85490565b5060a95490565b60008161327557600061328d565b607454613283600185615e79565b61328d9190615d60565b60735461329a9085615d60565b6072546132a79190615d48565b6127179190615d48565b600081156132cb576132c4846002615d60565b90506132ce565b50825b60006132d8614ac6565b6040805160608101825260008082526001600160a01b038a16602080840191909152600183850181905285835260a39091529290208151815494955091939092839160ff19169083600281111561333157613331615878565b021790555060208281015182546040948501511515600160a81b0260ff60a81b196001600160a01b039093166101000292909216610100600160b01b031990911617179091558151608081018352607f5463ffffffff908116825260ff8981168385019081528882168487019081528a151560608601908152600089815260a490975296909520935184549151955196511515600160301b0260ff60301b19978416600160281b029790971661ffff60281b1996909316600160201b0264ffffffffff199092169316929092179190911792909216919091179190911790556120713086614b2a565b600083815260906020526040902081613494576065546040516323b872dd60e01b81526001600160a01b03909116906323b872dd9061346190869030908990600401615d95565b600060405180830381600087803b15801561347b57600080fd5b505af115801561348f573d6000803e3d6000fd5b505050505b80546001600160a01b03841663010000000262010000600160b81b031990911617620100001781554260018281019190915560006002830155815460ff1660018111156134e3576134e3615878565b141561359d578054608880549091610100900460ff1690811061350857613508615d7f565b9060005260206000200154608b60008282546135249190615d48565b9091555050608a5460038201558054610100900460ff161561359d578054608c90610100900460ff166004811061355d5761355d615d7f565b01546004828101919091558154608c9161010090910460ff1690811061358557613585615d7f565b01805460018101825560009182526020909120018490555b6040516001600160a01b0384169085907f5b53344e2b3d15f33a2ab59e3c199c7bbcb08f5ce03bf0a25c14f978647299a790600090a350505050565b817fa1400508f229eaea44d95e98b6da371661f6e873726585abd7efdbdc607169768260405161360b91815260200190565b60405180910390a2600082815260a3602052604090208054600160a81b900460ff1661363657505050565b805460ff60a81b191681556000815460ff16600281111561365957613659615878565b141561367a5780546117869061010090046001600160a01b03168484614c92565b6002815460ff16600281111561369257613692615878565b14156136a2576117868383614e6b565b6001815460ff1660028111156136ba576136ba615878565b14156117865780546117869061010090046001600160a01b0316848483565b60965460ff161580156136f35750609654610100900460ff165b61370f5760405162461bcd60e51b815260040161147d90615d15565b6000818152609060205260409081902060655491516331a9108f60e11b815260048101849052909133916001600160a01b0390911690636352211e9060240160206040518083038186803b15801561376657600080fd5b505afa15801561377a573d6000803e3d6000fd5b505050506040513d601f19601f8201168201806040525081019061379e9190615dd6565b6001600160a01b031614806137c357508054630100000090046001600160a01b031633145b6137f55760405162461bcd60e51b8152602060048201526003602482015262229b9960e91b604482015260640161147d565b6000815460ff16600181111561380d5761380d615878565b14801561382457508054600661010090910460ff16105b6138565760405162461bcd60e51b815260206004820152600360248201526245373160e81b604482015260640161147d565b805462010000900460ff161561388e5761386f82612529565b8160020160008282546138829190615d48565b90915550504260018201555b6067548154607080546001600160a01b03909316926323b872dd92339230929091610100900460ff169081106138c6576138c6615d7f565b90600052602060002001546040518463ffffffff1660e01b81526004016138ef93929190615d95565b600060405180830381600087803b15801561390957600080fd5b505af115801561391d573d6000803e3d6000fd5b50508254610100900460ff169150829050600161393983615eba565b825460ff91821661010093840a90810290830219909116179092558354604051919004909116815283915033907f2ef0b9f6641bfe4ae9f94f2b9b20ece8b29e13b163e6425c14ff8f520e79412e9060200160405180910390a35050565b609654610100900460ff166139be5760405162461bcd60e51b815260040161147d90615d15565b6000828152609060205260408082208383529181902060655491516331a9108f60e11b815260048101869052909133916001600160a01b0390911690636352211e9060240160206040518083038186803b158015613a1b57600080fd5b505afa158015613a2f573d6000803e3d6000fd5b505050506040513d601f19601f82011682018060405250810190613a539190615dd6565b6001600160a01b03161480613a7857508154630100000090046001600160a01b031633145b613aad5760405162461bcd60e51b815260040161147d906020808252600490820152634537323160e01b604082015260600190565b6065546040516331a9108f60e11b81526004810185905233916001600160a01b031690636352211e9060240160206040518083038186803b158015613af157600080fd5b505afa158015613b05573d6000803e3d6000fd5b505050506040513d601f19601f82011682018060405250810190613b299190615dd6565b6001600160a01b03161480613b4e57508054630100000090046001600160a01b031633145b613b835760405162461bcd60e51b815260040161147d90602080825260049082015263229b991960e11b604082015260600190565b6000825460ff166001811115613b9b57613b9b615878565b148015613bb257508154600661010090910460ff16105b613be75760405162461bcd60e51b815260040161147d906020808252600490820152634537313160e01b604082015260600190565b6000815460ff166001811115613bff57613bff615878565b14613c355760405162461bcd60e51b815260040161147d90602080825260049082015263229b989960e11b604082015260600190565b606654825460b480546001600160a01b03909316926323b872dd92339230929091610100900460ff16908110613c6d57613c6d615d7f565b90600052602060002001546040518463ffffffff1660e01b8152600401613c9693929190615d95565b602060405180830381600087803b158015613cb057600080fd5b505af1158015613cc4573d6000803e3d6000fd5b505050506040513d601f19601f82011682018060405250810190613ce89190615db9565b50606554604051630852cd8d60e31b8152600481018590526001600160a01b03909116906342966c6890602401600060405180830381600087803b158015613d2f57600080fd5b505af1158015613d43573d6000803e3d6000fd5b5050835462010000900460ff16159150613d81905057613d6284612529565b826002016000828254613d759190615d48565b90915550504260018301555b8154610100900460ff16826001613d9783615eba565b825460ff91821661010093840a90810290830219909116179092558454604051919004909116815285915033907f2ef0b9f6641bfe4ae9f94f2b9b20ece8b29e13b163e6425c14ff8f520e79412e9060200160405180910390a350505050565b603380546001600160a01b038381166001600160a01b0319831681179093556040519116919082907f8be0079c531659141344cd1fd0a4f28419497f9722a3daafe3b4186f6b6457e090600090a35050565b600084815260b260205260409020815b8381101561401257600060906000878785818110613e7957613e79615d7f565b905060200201358152602001908152602001600020905060006001811115613ea357613ea3615878565b815460ff166001811115613eb957613eb9615878565b14613eef5760405162461bcd60e51b815260040161147d906020808252600490820152634531333360e01b604082015260600190565b60b36000878785818110613f0557613f05615d7f565b90506020020135815260200190815260200160002054600014613f535760405162461bcd60e51b815260040161147d90602080825260049082015263114c4ccd60e21b604082015260600190565b82600101868684818110613f6957613f69615d7f565b83546001810185556000948552602094859020919094029290920135919092015550805460b580549091610100900460ff16908110613faa57613faa615d7f565b9060005260206000200154836003016000828254613fc89190615d48565b9091555087905060b36000888886818110613fe557613fe5615d7f565b9050602002013581526020019081526020016000208190555050808061400a90615df3565b915050613e59565b508383604051614023929190615eda565b6040519081900381209086907f20fa48f96ddb431c644d268a2856186b6d0dede941f3cc696c3481fd9fab736490600090a35050505050565b600083815260b260205260408120905b828110156141ec5760006090600086868581811061408c5761408c615d7f565b9050602002013581526020019081526020016000209050600060018111156140b6576140b6615878565b815460ff1660018111156140cc576140cc615878565b146141025760405162461bcd60e51b815260040161147d906020808252600490820152634531343360e01b604082015260600190565b8560b3600087878681811061411957614119615d7f565b90506020020135815260200190815260200160002054146141655760405162461bcd60e51b815260040161147d90602080825260049082015263114c4d0d60e21b604082015260600190565b805460b580549091610100900460ff1690811061418457614184615d7f565b90600052602060002001548360030160008282546141a29190615e79565b909155506000905060b3818787868181106141bf576141bf615d7f565b905060200201358152602001908152602001600020819055505080806141e490615df3565b91505061406c565b5082826040516141fd929190615eda565b6040519081900381209085907fbb70f2326b89df4e13eca1e3eaf0a70cf881771b660d6f3084bec6eea2a6d2a290600090a350505050565b6076546000906142459083615d60565b6075546120169190615d48565b6066546040516340c10f1960e01b815282916001600160a01b0316906340c10f19906142849086908590600401615e60565b600060405180830381600087803b15801561429e57600080fd5b505af1158015612071573d6000803e3d6000fd5b60008080808085156142c7575060a2546142cc565b5060a7545b600081815260a560205260408120905b888110156145ae576000609060008c8c858181106142fc576142fc615d7f565b90506020020135815260200190815260200160002090508060000160029054906101000a900460ff1615156001151514801561434857508054630100000090046001600160a01b031633145b61437a5760405162461bcd60e51b815260206004820152600360248201526245393160e81b604482015260640161147d565b60006143918c8c858181106121a9576121a9615d7f565b90506000825460ff1660018111156143ab576143ab615878565b141561450c5760006064607d54836143c39190615d60565b6143cd9190615ea6565b90506143d98183615e79565b6143e3908a615d48565b98506143ef8188615d48565b42600185015596508a156144bd578254607b80549091610100900460ff1690811061441c5761441c615d7f565b906000526020600020015482101561445c5760405162461bcd60e51b8152602060048201526003602482015262229c9960e91b604482015260640161147d565b846001018d8d8681811061447257614472615d7f565b83546001810185556000948552602094859020919094029290920135919092015550600285016144a28284615e79565b81546001810183556000928352602090922090910155614506565b8c8c858181106144cf576144cf615d7f565b602002919091013590503387600080516020615f7e8339815191526144f48587615e79565b60405190815260200160405180910390a45b5061456c565b6145168188615d48565b608a54600384015596508b8b8481811061453257614532615d7f565b90506020020135336001600160a01b031686600080516020615f7e8339815191528460405161456391815260200190565b60405180910390a45b8915614593576145938c8c8581811061458757614587615d7f565b90506020020135614634565b506000600290910155806145a681615df3565b9150506142dc565b508680156145bf5750600181015415155b156145cc578381556145da565b6145da3361300d8787615d48565b8215614624576145e983614fd1565b817fa82e56087acdb4c45b596e06c5ef2d1e974654985bfd4300ebad87555eec136e8460405161461b91815260200190565b60405180910390a25b6001015498975050505050505050565b6000818152609060205260409020805462010000600160b81b031981168255630100000090046001600160a01b03166001825460ff16600181111561467b5761467b615878565b14156147dd578154608880549091610100900460ff169081106146a0576146a0615d7f565b9060005260206000200154608b60008282546146bc9190615e79565b90915550508154610100900460ff16156147dd578154600090608c90610100900460ff16600481106146f0576146f0615d7f565b8454910190600190608c90610100900460ff166004811061471357614713615d7f565b015461471f9190615e79565b8154811061472f5761472f615d7f565b60009182526020909120015483549091508190608c90610100900460ff166004811061475d5761475d615d7f565b0184600401548154811061477357614773615d7f565b6000918252602090912001558254608c90610100900460ff166004811061479c5761479c615d7f565b018054806147ac576147ac615f06565b6000828152602080822083016000199081018390559092019092556004808601549383526090909152604090912001555b60006004808401919091556065546040516323b872dd60e01b81526001600160a01b03909116916323b872dd9161481a9130918691899101615d95565b600060405180830381600087803b15801561483457600080fd5b505af1158015614848573d6000803e3d6000fd5b50506040516001600160a01b03841692508591507f3a01954f64bfeed1c903bc3920f7a5639288ea25efc7a539195648519e4184a390600090a3505050565b6000614891614ac6565b604080516060810182526002808252336020808401919091526001838501819052600086815260a39092529390208251815495965092949093849260ff199092169184908111156148e4576148e4615878565b021790555060208281015182546040948501511515600160a81b0260ff60a81b196001600160a01b039093166101000292909216610100600160b01b03199091161717909155600092835260a69052902055565b621e8c518110156149715760405162461bcd60e51b815260206004820152600360248201526245313160e81b604482015260640161147d565b60008181526091602052604090205460ff16156149b65760405162461bcd60e51b815260206004820152600360248201526222989960e91b604482015260640161147d565b6068546040516331a9108f60e11b81526004810183905233916001600160a01b031690636352211e9060240160206040518083038186803b1580156149fa57600080fd5b505afa158015614a0e573d6000803e3d6000fd5b505050506040513d601f19601f82011682018060405250810190614a329190615dd6565b6001600160a01b031614614a6e5760405162461bcd60e51b815260206004820152600360248201526245313360e81b604482015260640161147d565b6000818152609160205260408120805460ff19166001179055614a9033615009565b6040519091508190839033907f584ea1a98d504e99c0dd0ca5ace55f5458d725e7e20a1ebb2e5e5af38434397190600090a45050565b600060a2547f315444e506fb06e32d43fe2cf48f37218994285028f458255be4a56810b66b8d60a254604051614afe91815260200190565b60405180910390a260a28054906000614b1683615df3565b9190505550600160a254611ff99190615e79565b607f8054600091839083614b3e8385615d48565b92505081905550607860795481548110614b5a57614b5a615d7f565b9060005260206000200154607f5410614b835760798054906000614b7d83615df3565b91905055505b6065546040516322ce52b560e21b81526001600160a01b038681166004830152602482018490526044820186905290911690638b394ad490606401600060405180830381600087803b158015614bd857600080fd5b505af1158015614bec573d6000803e3d6000fd5b5050505060005b83811015614c4657600160906000614c0b8486615d48565b81526020810191909152604001600020805460ff929092166101000261ff001990921691909117905580614c3e81615df3565b915050614bf3565b5060408051828152602081018590526001600160a01b038616917f8b7c923d3e09b520f101439fe55b1b1ea3b1fcdfcb88afe6aed96873d341e1aa910160405180910390a29392505050565b600082815260a460205260408120805463ffffffff165b8154614cc59060ff600160201b8204169063ffffffff16615f1c565b63ffffffff16811015611fd1576000818152609060205260409020614ce9856150e3565b608654909650909450841015614d3557805461ffff1916600117815560405182907fe745cd12d6f4eb3c23b4aeb859314255073bdc0805d89f7622090698abf484b290600090a2614d6c565b60405182906001600160a01b038916907f17168db4d4772024cf56ab2222c1d7888481238be6bc32c3d7a8726a9483bab290600090a35b8254600090600160281b900460ff1615614dc857614d89866150e3565b8554909750909550600160281b900460ff16851015614dc8576000614dac61512a565b90508015614dc657614dbf84828961519a565b9650600191505b505b80614e56578354600160301b900460ff1615614def57614dea8389600161341a565b614e56565b6065546040516323b872dd60e01b81526001600160a01b03909116906323b872dd90614e239030908c908890600401615d95565b600060405180830381600087803b158015614e3d57600080fd5b505af1158015614e51573d6000803e3d6000fd5b505050505b50508080614e6390615df3565b915050614ca9565b600082815260a66020908152604080832054808452609090925282209091614e92846150e3565b94509050614e9f8161529c565b825461ff00191661010060ff928316021780845562010000900416151560011415614f8b576088600081548110614ed857614ed8615d7f565b6000918252602090912001548254608880549091610100900460ff16908110614f0357614f03615d7f565b9060005260206000200154614f189190615e79565b608b6000828254614f299190615d48565b90915550508154608c90610100900460ff1660048110614f4b57614f4b615d7f565b01546004838101919091558254608c9161010090910460ff16908110614f7357614f73615d7f565b01805460018101825560009182526020909120018390555b815460405161010090910460ff16815283907fe15c536009c86cf1fa16027c6ee4538c2bcce2bdcd80dd17fec4ea96182ef04c9060200160405180910390a25050505050565b614fdb3082614252565b608b541561321257608b54614ff09082615ea6565b608a60008282546150019190615d48565b909155505050565b607f805460009181908361501c83615df3565b919050555060786079548154811061503657615036615d7f565b9060005260206000200154607f541061505f576079805490600061505983615df3565b91905055505b6065546040516340c10f1960e01b81526001600160a01b03909116906340c10f19906150919086908590600401615e60565b600060405180830381600087803b1580156150ab57600080fd5b505af11580156150bf573d6000803e3d6000fd5b5050506000828152609060205260409020805461ffff191660011790555092915050565b60008062100000831015615119576040805160208101859052016040516020818303038152906040528051906020012060001c92505b50506103ff811691600a9190911c90565b60008060015b6003811161519457608c816004811061514b5761514b615d7f565b0154608980548390811061516157615161615d7f565b90600052602060002001546151769190615d60565b6151809083615d48565b91508061518c81615df3565b915050615130565b50919050565b6000806151a9848460196152fa565b9350905060006151b882615358565b606554600082815260906020526040908190205490516323b872dd60e01b81529293506001600160a01b03918216926323b872dd926152099230926301000000909104909116908b90600401615d95565b600060405180830381600087803b15801561522357600080fd5b505af1158015615237573d6000803e3d6000fd5b50505060008281526090602090815260409182902054915184815263010000009092046001600160a01b0316925088917f9055cdd665fdee53683ce213caee079a0b8a929160ad57c0b83ca49f032dfafc910160405180910390a35091949350505050565b6000805b60038160ff1610156152f15760878160ff16815481106152c2576152c2615d7f565b90600052602060002001548310156152df57612717816001615f44565b806152e981615eba565b9150506152a0565b50600092915050565b6000806001831b80851015615331576040805160208101879052016040516020818303038152906040528051906020012060001c94505b60008661533f600184615e79565b871661534b9190615f69565b979590941c955050505050565b60008060015b6003811161544c576000608c826004811061537b5761537b615d7f565b0154608980548490811061539157615391615d7f565b90600052602060002001546153a69190615d60565b90506153b28184615d48565b85101561542c576000608983815481106153ce576153ce615d7f565b906000526020600020015484876153e59190615e79565b6153ef9190615ea6565b9050608c836004811061540457615404615d7f565b01818154811061541657615416615d7f565b9060005260206000200154945050505050919050565b6154368184615d48565b925050808061544490615df3565b91505061535e565b5060009392505050565b828054828255906000526020600020908101928215615491579160200282015b82811115615491578251825591602001919060010190615476565b5061549d9291506154dc565b5090565b828054828255906000526020600020908101928215615491579160200282015b828111156154915782358255916020019190600101906154c1565b5b8082111561549d57600081556001016154dd565b60006020828403121561550357600080fd5b5035919050565b801515811461321257600080fd5b6000806040838503121561552b57600080fd5b82359150602083013561553d8161550a565b809150509250929050565b60008083601f84011261555a57600080fd5b5081356001600160401b0381111561557157600080fd5b6020830191508360208260051b850101111561558c57600080fd5b9250929050565b600080602083850312156155a657600080fd5b82356001600160401b038111156155bc57600080fd5b6155c885828601615548565b90969095509350505050565b600080604083850312156155e757600080fd5b50508035926020909101359150565b634e487b7160e01b600052604160045260246000fd5b60405160e081016001600160401b038111828210171561562e5761562e6155f6565b60405290565b600082601f83011261564557600080fd5b813560206001600160401b0380831115615661576156616155f6565b8260051b604051601f19603f83011681018181108482111715615686576156866155f6565b6040529384528581018301938381019250878511156156a457600080fd5b83870191505b848210156156c3578135835291830191908301906156aa565b979650505050505050565b6000602082840312156156e057600080fd5b81356001600160401b03808211156156f757600080fd5b9083019060e0828603121561570b57600080fd5b61571361560c565b823581526020830135602082015260408301358281111561573357600080fd5b61573f87828601615634565b60408301525060608301358281111561575757600080fd5b61576387828601615634565b6060830152506080830135608082015260a08301358281111561578557600080fd5b61579187828601615634565b60a08301525060c083013560c082015280935050505092915050565b600060c082840312156157bf57600080fd5b60405160c081018181106001600160401b03821117156157e1576157e16155f6565b8060405250823581526020830135602082015260408301356040820152606083013560608201526080830135608082015260a083013560a08201528091505092915050565b6000806000806060858703121561583c57600080fd5b843593506020850135925060408501356001600160401b0381111561586057600080fd5b61586c87828801615548565b95989497509550505050565b634e487b7160e01b600052602160045260246000fd5b610100810160028a106158a3576158a3615878565b98815260ff97909716602088015294151560408701526001600160a01b03939093166060860152608085019190915260a084015260c083015260e09091015290565b60008060008060008060008060008060008060c08d8f03121561590757600080fd5b6001600160401b038d35111561591c57600080fd5b6159298e8e358f01615548565b909c509a506001600160401b0360208e0135111561594657600080fd5b6159568e60208f01358f01615548565b909a5098506001600160401b0360408e0135111561597357600080fd5b6159838e60408f01358f01615548565b90985096506001600160401b0360608e013511156159a057600080fd5b6159b08e60608f01358f01615548565b90965094506001600160401b0360808e013511156159cd57600080fd5b6159dd8e60808f01358f01615548565b90945092506001600160401b0360a08e013511156159fa57600080fd5b615a0a8e60a08f01358f01615548565b81935080925050509295989b509295989b509295989b565b6001600160a01b038116811461321257600080fd5b600060208284031215615a4957600080fd5b813561271781615a22565b600080600080600060608688031215615a6c57600080fd5b8535945060208601356001600160401b0380821115615a8a57600080fd5b615a9689838a01615548565b90965094506040880135915080821115615aaf57600080fd5b50615abc88828901615548565b969995985093965092949392505050565b60008060008060008060608789031215615ae657600080fd5b86356001600160401b0380821115615afd57600080fd5b615b098a838b01615548565b90985096506020890135915080821115615b2257600080fd5b615b2e8a838b01615548565b90965094506040890135915080821115615b4757600080fd5b50615b5489828a01615548565b979a9699509497509295939492505050565b6020808252825182820181905260009190848201906040850190845b81811015615b9e57835183529284019291840191600101615b82565b50909695505050505050565b600081518084526020808501945080840160005b83811015615bda57815187529582019590820190600101615bbe565b509495945050505050565b6020815281516020820152602082015160408201526040820151606082015260608201516080820152608082015160a0820152600060a08301516101008060c0850152615c36610120850183615baa565b915060c085015160e085015260e0850151601f198584030182860152615c5c8382615baa565b9695505050505050565b6060810160038510615c7a57615c7a615878565b9381526001600160a01b03929092166020830152151560409091015290565b60008060008060408587031215615caf57600080fd5b84356001600160401b0380821115615cc657600080fd5b615cd288838901615548565b90965094506020870135915080821115615ceb57600080fd5b5061586c87828801615548565b600060208284031215615d0a57600080fd5b81356127178161550a565b60208082526003908201526245303160e81b604082015260600190565b634e487b7160e01b600052601160045260246000fd5b60008219821115615d5b57615d5b615d32565b500190565b6000816000190483118215151615615d7a57615d7a615d32565b500290565b634e487b7160e01b600052603260045260246000fd5b6001600160a01b039384168152919092166020820152604081019190915260600190565b600060208284031215615dcb57600080fd5b81516127178161550a565b600060208284031215615de857600080fd5b815161271781615a22565b6000600019821415615e0757615e07615d32565b5060010190565b60208082526003908201526204536360ec1b604082015260600190565b6020808252818101527f4f776e61626c653a2063616c6c6572206973206e6f7420746865206f776e6572604082015260600190565b6001600160a01b03929092168252602082015260400190565b600082821015615e8b57615e8b615d32565b500390565b634e487b7160e01b600052601260045260246000fd5b600082615eb557615eb5615e90565b500490565b600060ff821660ff811415615ed157615ed1615d32565b60010192915050565b60006001600160fb1b03831115615ef057600080fd5b8260051b80858437600092019182525092915050565b634e487b7160e01b600052603160045260246000fd5b600063ffffffff808316818516808303821115615f3b57615f3b615d32565b01949350505050565b600060ff821660ff84168060ff03821115615f6157615f61615d32565b019392505050565b600082615f7857615f78615e90565b50069056fe40e6a337f1a78915df745fd02b2ca082e64e8a780a99b8fbb355f64409b399cca2646970667358221220ee4154eb73cdd2fe1de7e202ca136285fbff57146b694f55780d672725a0e9bb64736f6c63430008090033",
    "linkReferences": {},
    "deployedLinkReferences": {}
}