{
    "_format": "hh-sol-artifact-1",
    "contractName": "MekaApesGame",
    "sourceName": "contracts/MekaApesGame.sol",
    "abi": [
        {
            "anonymous": false,
            "inputs": [
                {
                    "indexed": true,
                    "internalType": "uint256",
                    "name": "tokenId",
                    "type": "uint256"
                },
                {
                    "indexed": false,
                    "internalType": "uint256",
                    "name": "amount",
                    "type": "uint256"
                }
            ],
            "name": "AttackReward",
            "type": "event"
        },
        {
            "anonymous": false,
            "inputs": [
                {
                    "indexed": true,
                    "internalType": "address",
                    "name": "account",
                    "type": "address"
                },
                {
                    "indexed": true,
                    "internalType": "uint256",
                    "name": "oogaId",
                    "type": "uint256"
                },
                {
                    "indexed": true,
                    "internalType": "uint256",
                    "name": "newTokenId",
                    "type": "uint256"
                }
            ],
            "name": "BabyOogaEvolve",
            "type": "event"
        },
        {
            "anonymous": false,
            "inputs": [
                {
                    "indexed": true,
                    "internalType": "address",
                    "name": "account",
                    "type": "address"
                },
                {
                    "indexed": true,
                    "internalType": "uint256",
                    "name": "tokenId",
                    "type": "uint256"
                },
                {
                    "indexed": false,
                    "internalType": "uint256",
                    "name": "amount",
                    "type": "uint256"
                }
            ],
            "name": "ClaimReward",
            "type": "event"
        },
        {
            "anonymous": false,
            "inputs": [
                {
                    "indexed": true,
                    "internalType": "address",
                    "name": "account",
                    "type": "address"
                },
                {
                    "indexed": true,
                    "internalType": "uint256",
                    "name": "oogaId",
                    "type": "uint256"
                },
                {
                    "indexed": false,
                    "internalType": "uint256",
                    "name": "newLevel",
                    "type": "uint256"
                }
            ],
            "name": "LevelUpRoboOoga",
            "type": "event"
        },
        {
            "anonymous": false,
            "inputs": [
                {
                    "indexed": true,
                    "internalType": "address",
                    "name": "account",
                    "type": "address"
                },
                {
                    "indexed": false,
                    "internalType": "uint256",
                    "name": "oogaIdSave",
                    "type": "uint256"
                },
                {
                    "indexed": true,
                    "internalType": "uint256",
                    "name": "oogaIdBurn",
                    "type": "uint256"
                },
                {
                    "indexed": false,
                    "internalType": "uint256",
                    "name": "megaLevel",
                    "type": "uint256"
                }
            ],
            "name": "MergeMekaApes",
            "type": "event"
        },
        {
            "anonymous": false,
            "inputs": [
                {
                    "indexed": true,
                    "internalType": "address",
                    "name": "account",
                    "type": "address"
                },
                {
                    "indexed": true,
                    "internalType": "uint256",
                    "name": "tokenId",
                    "type": "uint256"
                },
                {
                    "indexed": false,
                    "internalType": "uint256",
                    "name": "oogaType",
                    "type": "uint256"
                },
                {
                    "indexed": false,
                    "internalType": "uint256",
                    "name": "level",
                    "type": "uint256"
                }
            ],
            "name": "Mint",
            "type": "event"
        },
        {
            "anonymous": false,
            "inputs": [
                {
                    "indexed": true,
                    "internalType": "uint256",
                    "name": "oogaId",
                    "type": "uint256"
                },
                {
                    "indexed": true,
                    "internalType": "address",
                    "name": "tributeAccount",
                    "type": "address"
                }
            ],
            "name": "OogaAttacked",
            "type": "event"
        },
        {
            "anonymous": false,
            "inputs": [
                {
                    "indexed": true,
                    "internalType": "address",
                    "name": "previousOwner",
                    "type": "address"
                },
                {
                    "indexed": true,
                    "internalType": "address",
                    "name": "newOwner",
                    "type": "address"
                }
            ],
            "name": "OwnershipTransferred",
            "type": "event"
        },
        {
            "anonymous": false,
            "inputs": [
                {
                    "indexed": true,
                    "internalType": "uint256",
                    "name": "oogaId",
                    "type": "uint256"
                },
                {
                    "indexed": true,
                    "internalType": "address",
                    "name": "account",
                    "type": "address"
                }
            ],
            "name": "StakeOoga",
            "type": "event"
        },
        {
            "anonymous": false,
            "inputs": [
                {
                    "indexed": false,
                    "internalType": "uint256",
                    "name": "totalTax",
                    "type": "uint256"
                }
            ],
            "name": "TaxReward",
            "type": "event"
        },
        {
            "anonymous": false,
            "inputs": [
                {
                    "indexed": true,
                    "internalType": "uint256",
                    "name": "oogaId",
                    "type": "uint256"
                },
                {
                    "indexed": true,
                    "internalType": "address",
                    "name": "account",
                    "type": "address"
                }
            ],
            "name": "UnstakeOoga",
            "type": "event"
        },
        {
            "inputs": [],
            "name": "ATTACK_CHANCE_DENOM",
            "outputs": [
                {
                    "internalType": "uint256",
                    "name": "",
                    "type": "uint256"
                }
            ],
            "stateMutability": "view",
            "type": "function"
        },
        {
            "inputs": [],
            "name": "CLAIM_TAX_DENOM",
            "outputs": [
                {
                    "internalType": "uint256",
                    "name": "",
                    "type": "uint256"
                }
            ],
            "stateMutability": "view",
            "type": "function"
        },
        {
            "inputs": [
                {
                    "internalType": "uint256",
                    "name": "ethAttackChance",
                    "type": "uint256"
                },
                {
                    "internalType": "uint256",
                    "name": "dmtAttackChance",
                    "type": "uint256"
                },
                {
                    "internalType": "uint256",
                    "name": "ogAttackChance",
                    "type": "uint256"
                }
            ],
            "name": "_changeAttackChances",
            "outputs": [],
            "stateMutability": "nonpayable",
            "type": "function"
        },
        {
            "inputs": [
                {
                    "internalType": "bool",
                    "name": "gameActive_",
                    "type": "bool"
                }
            ],
            "name": "_changeGameActive",
            "outputs": [],
            "stateMutability": "nonpayable",
            "type": "function"
        },
        {
            "inputs": [
                {
                    "internalType": "bool",
                    "name": "mintSale_",
                    "type": "bool"
                }
            ],
            "name": "_changeMintSale",
            "outputs": [],
            "stateMutability": "nonpayable",
            "type": "function"
        },
        {
            "inputs": [
                {
                    "internalType": "uint256",
                    "name": "mintSaleAmount_",
                    "type": "uint256"
                }
            ],
            "name": "_changeMintSaleAmount",
            "outputs": [],
            "stateMutability": "nonpayable",
            "type": "function"
        },
        {
            "inputs": [
                {
                    "internalType": "uint256",
                    "name": "tokenId",
                    "type": "uint256"
                },
                {
                    "internalType": "uint256",
                    "name": "level",
                    "type": "uint256"
                }
            ],
            "name": "_changeOogaLevel",
            "outputs": [],
            "stateMutability": "nonpayable",
            "type": "function"
        },
        {
            "inputs": [
                {
                    "internalType": "bool",
                    "name": "publicMintStarted_",
                    "type": "bool"
                }
            ],
            "name": "_changePublicMintStarted",
            "outputs": [],
            "stateMutability": "nonpayable",
            "type": "function"
        },
        {
            "inputs": [
                {
                    "internalType": "address",
                    "name": "toAddress",
                    "type": "address"
                },
                {
                    "internalType": "uint256",
                    "name": "amount",
                    "type": "uint256"
                }
            ],
            "name": "_freeBurnOG",
            "outputs": [],
            "stateMutability": "nonpayable",
            "type": "function"
        },
        {
            "inputs": [
                {
                    "internalType": "address",
                    "name": "toAddress",
                    "type": "address"
                }
            ],
            "name": "_freeMintMeka",
            "outputs": [],
            "stateMutability": "nonpayable",
            "type": "function"
        },
        {
            "inputs": [
                {
                    "internalType": "address",
                    "name": "toAddress",
                    "type": "address"
                },
                {
                    "internalType": "uint256",
                    "name": "amount",
                    "type": "uint256"
                }
            ],
            "name": "_freeMintOG",
            "outputs": [],
            "stateMutability": "nonpayable",
            "type": "function"
        },
        {
            "inputs": [
                {
                    "internalType": "address",
                    "name": "toAddress",
                    "type": "address"
                }
            ],
            "name": "_freeMintRobo",
            "outputs": [],
            "stateMutability": "nonpayable",
            "type": "function"
        },
        {
            "inputs": [
                {
                    "components": [
                        {
                            "internalType": "uint256",
                            "name": "mintAllowance",
                            "type": "uint256"
                        },
                        {
                            "internalType": "uint8",
                            "name": "_v",
                            "type": "uint8"
                        },
                        {
                            "internalType": "bytes32",
                            "name": "_r",
                            "type": "bytes32"
                        },
                        {
                            "internalType": "bytes32",
                            "name": "_s",
                            "type": "bytes32"
                        }
                    ],
                    "internalType": "struct MintSignature",
                    "name": "sig",
                    "type": "tuple"
                },
                {
                    "internalType": "address",
                    "name": "acc",
                    "type": "address"
                }
            ],
            "name": "_verifyMintSig",
            "outputs": [
                {
                    "internalType": "bool",
                    "name": "",
                    "type": "bool"
                }
            ],
            "stateMutability": "view",
            "type": "function"
        },
        {
            "inputs": [
                {
                    "internalType": "address",
                    "name": "account",
                    "type": "address"
                },
                {
                    "internalType": "uint256",
                    "name": "mintAllowance",
                    "type": "uint256"
                }
            ],
            "name": "allowedToMint",
            "outputs": [
                {
                    "internalType": "uint256",
                    "name": "",
                    "type": "uint256"
                }
            ],
            "stateMutability": "view",
            "type": "function"
        },
        {
            "inputs": [
                {
                    "internalType": "bool",
                    "name": "gameActive_",
                    "type": "bool"
                }
            ],
            "name": "changeGameActive",
            "outputs": [],
            "stateMutability": "nonpayable",
            "type": "function"
        },
        {
            "inputs": [
                {
                    "components": [
                        {
                            "internalType": "uint256",
                            "name": "mintPrice",
                            "type": "uint256"
                        },
                        {
                            "internalType": "uint256",
                            "name": "mintStakePrice",
                            "type": "uint256"
                        },
                        {
                            "internalType": "uint256[]",
                            "name": "mintOGprice",
                            "type": "uint256[]"
                        },
                        {
                            "internalType": "uint256[]",
                            "name": "mintOGstakePrice",
                            "type": "uint256[]"
                        },
                        {
                            "internalType": "uint256",
                            "name": "mintDMTstakePrice",
                            "type": "uint256"
                        },
                        {
                            "internalType": "uint256[]",
                            "name": "roboLevelupPrice",
                            "type": "uint256[]"
                        },
                        {
                            "internalType": "uint256",
                            "name": "mekaMergePrice",
                            "type": "uint256"
                        }
                    ],
                    "internalType": "struct Prices",
                    "name": "prices_",
                    "type": "tuple"
                }
            ],
            "name": "changePrices",
            "outputs": [],
            "stateMutability": "nonpayable",
            "type": "function"
        },
        {
            "inputs": [
                {
                    "internalType": "bool",
                    "name": "publicMintStarted_",
                    "type": "bool"
                }
            ],
            "name": "changePublicMintStarted",
            "outputs": [],
            "stateMutability": "nonpayable",
            "type": "function"
        },
        {
            "inputs": [
                {
                    "internalType": "uint256",
                    "name": "tokenId",
                    "type": "uint256"
                }
            ],
            "name": "claimAvailableAmount",
            "outputs": [
                {
                    "internalType": "uint256",
                    "name": "",
                    "type": "uint256"
                }
            ],
            "stateMutability": "view",
            "type": "function"
        },
        {
            "inputs": [
                {
                    "internalType": "uint256[]",
                    "name": "tokenIds",
                    "type": "uint256[]"
                }
            ],
            "name": "claimAvailableAmountMultipleTokens",
            "outputs": [
                {
                    "internalType": "uint256[]",
                    "name": "result",
                    "type": "uint256[]"
                }
            ],
            "stateMutability": "view",
            "type": "function"
        },
        {
            "inputs": [
                {
                    "internalType": "uint256[]",
                    "name": "tokenIds",
                    "type": "uint256[]"
                }
            ],
            "name": "claimReward",
            "outputs": [],
            "stateMutability": "nonpayable",
            "type": "function"
        },
        {
            "inputs": [],
            "name": "claimTax",
            "outputs": [
                {
                    "internalType": "uint256",
                    "name": "",
                    "type": "uint256"
                }
            ],
            "stateMutability": "view",
            "type": "function"
        },
        {
            "inputs": [],
            "name": "currentOgPriceStep",
            "outputs": [
                {
                    "internalType": "uint256",
                    "name": "",
                    "type": "uint256"
                }
            ],
            "stateMutability": "view",
            "type": "function"
        },
        {
            "inputs": [],
            "name": "dmtMintAttackChance",
            "outputs": [
                {
                    "internalType": "uint256",
                    "name": "",
                    "type": "uint256"
                }
            ],
            "stateMutability": "view",
            "type": "function"
        },
        {
            "inputs": [],
            "name": "dmtToken",
            "outputs": [
                {
                    "internalType": "contract IDMT_ERC20",
                    "name": "",
                    "type": "address"
                }
            ],
            "stateMutability": "view",
            "type": "function"
        },
        {
            "inputs": [],
            "name": "erc721Contract",
            "outputs": [
                {
                    "internalType": "contract MekaApesERC721",
                    "name": "",
                    "type": "address"
                }
            ],
            "stateMutability": "view",
            "type": "function"
        },
        {
            "inputs": [],
            "name": "ethMintAttackChance",
            "outputs": [
                {
                    "internalType": "uint256",
                    "name": "",
                    "type": "uint256"
                }
            ],
            "stateMutability": "view",
            "type": "function"
        },
        {
            "inputs": [
                {
                    "internalType": "uint256[]",
                    "name": "tokenIds",
                    "type": "uint256[]"
                }
            ],
            "name": "evolveBabyOogas",
            "outputs": [],
            "stateMutability": "nonpayable",
            "type": "function"
        },
        {
            "inputs": [],
            "name": "gameActive",
            "outputs": [
                {
                    "internalType": "bool",
                    "name": "",
                    "type": "bool"
                }
            ],
            "stateMutability": "view",
            "type": "function"
        },
        {
            "inputs": [],
            "name": "getPrices",
            "outputs": [
                {
                    "components": [
                        {
                            "internalType": "uint256",
                            "name": "mintPrice",
                            "type": "uint256"
                        },
                        {
                            "internalType": "uint256",
                            "name": "mintStakePrice",
                            "type": "uint256"
                        },
                        {
                            "internalType": "uint256",
                            "name": "mintOGprice",
                            "type": "uint256"
                        },
                        {
                            "internalType": "uint256",
                            "name": "mintOGstakePrice",
                            "type": "uint256"
                        },
                        {
                            "internalType": "uint256",
                            "name": "mintDMTstakePrice",
                            "type": "uint256"
                        },
                        {
                            "internalType": "uint256[]",
                            "name": "roboLevelupPrice",
                            "type": "uint256[]"
                        },
                        {
                            "internalType": "uint256",
                            "name": "mekaMergePrice",
                            "type": "uint256"
                        }
                    ],
                    "internalType": "struct PricesGetter",
                    "name": "",
                    "type": "tuple"
                }
            ],
            "stateMutability": "view",
            "type": "function"
        },
        {
            "inputs": [
                {
                    "components": [
                        {
                            "internalType": "contract MekaApesERC721",
                            "name": "erc721Contract_",
                            "type": "address"
                        },
                        {
                            "internalType": "contract RNGOracle",
                            "name": "rngOracle_",
                            "type": "address"
                        },
                        {
                            "internalType": "contract OogearERC20",
                            "name": "ogToken_",
                            "type": "address"
                        },
                        {
                            "internalType": "contract IDMT_ERC20",
                            "name": "dmtToken_",
                            "type": "address"
                        },
                        {
                            "internalType": "contract IERC721",
                            "name": "oogaVerse_",
                            "type": "address"
                        },
                        {
                            "internalType": "address",
                            "name": "mintSigWallet_",
                            "type": "address"
                        },
                        {
                            "components": [
                                {
                                    "internalType": "uint256",
                                    "name": "mintPrice",
                                    "type": "uint256"
                                },
                                {
                                    "internalType": "uint256",
                                    "name": "mintStakePrice",
                                    "type": "uint256"
                                },
                                {
                                    "internalType": "uint256[]",
                                    "name": "mintOGprice",
                                    "type": "uint256[]"
                                },
                                {
                                    "internalType": "uint256[]",
                                    "name": "mintOGstakePrice",
                                    "type": "uint256[]"
                                },
                                {
                                    "internalType": "uint256",
                                    "name": "mintDMTstakePrice",
                                    "type": "uint256"
                                },
                                {
                                    "internalType": "uint256[]",
                                    "name": "roboLevelupPrice",
                                    "type": "uint256[]"
                                },
                                {
                                    "internalType": "uint256",
                                    "name": "mekaMergePrice",
                                    "type": "uint256"
                                }
                            ],
                            "internalType": "struct Prices",
                            "name": "prices_",
                            "type": "tuple"
                        },
                        {
                            "internalType": "uint256[]",
                            "name": "mintOGpriceSteps_",
                            "type": "uint256[]"
                        },
                        {
                            "internalType": "uint256[]",
                            "name": "roboOogaRewardPerSec_",
                            "type": "uint256[]"
                        },
                        {
                            "internalType": "uint256[]",
                            "name": "roboOogaMinimalRewardToUnstake_",
                            "type": "uint256[]"
                        },
                        {
                            "internalType": "uint256[]",
                            "name": "roboOogaRewardAttackProbabilities_",
                            "type": "uint256[]"
                        },
                        {
                            "internalType": "uint256[]",
                            "name": "megaLevelProbabilities_",
                            "type": "uint256[]"
                        },
                        {
                            "internalType": "uint256[]",
                            "name": "mekaLevelSharePoints_",
                            "type": "uint256[]"
                        },
                        {
                            "internalType": "uint256[]",
                            "name": "megaTributePoints_",
                            "type": "uint256[]"
                        },
                        {
                            "internalType": "uint256",
                            "name": "claimTax_",
                            "type": "uint256"
                        }
                    ],
                    "internalType": "struct InitParams",
                    "name": "initParams",
                    "type": "tuple"
                }
            ],
            "name": "initialize",
            "outputs": [],
            "stateMutability": "nonpayable",
            "type": "function"
        },
        {
            "inputs": [
                {
                    "internalType": "uint256",
                    "name": "oogaId",
                    "type": "uint256"
                }
            ],
            "name": "isBabyOogaEvolved",
            "outputs": [
                {
                    "internalType": "bool",
                    "name": "",
                    "type": "bool"
                }
            ],
            "stateMutability": "view",
            "type": "function"
        },
        {
            "inputs": [
                {
                    "internalType": "uint256",
                    "name": "tokenId",
                    "type": "uint256"
                }
            ],
            "name": "levelUpRoboOooga",
            "outputs": [],
            "stateMutability": "nonpayable",
            "type": "function"
        },
        {
            "inputs": [],
            "name": "maxMintWithDMT",
            "outputs": [
                {
                    "internalType": "uint256",
                    "name": "",
                    "type": "uint256"
                }
            ],
            "stateMutability": "view",
            "type": "function"
        },
        {
            "inputs": [],
            "name": "maxOgSupply",
            "outputs": [
                {
                    "internalType": "uint256",
                    "name": "",
                    "type": "uint256"
                }
            ],
            "stateMutability": "view",
            "type": "function"
        },
        {
            "inputs": [],
            "name": "maxTokenSupply",
            "outputs": [
                {
                    "internalType": "uint256",
                    "name": "",
                    "type": "uint256"
                }
            ],
            "stateMutability": "view",
            "type": "function"
        },
        {
            "inputs": [
                {
                    "internalType": "uint256",
                    "name": "",
                    "type": "uint256"
                }
            ],
            "name": "megaLevelProbabilities",
            "outputs": [
                {
                    "internalType": "uint256",
                    "name": "",
                    "type": "uint256"
                }
            ],
            "stateMutability": "view",
            "type": "function"
        },
        {
            "inputs": [
                {
                    "internalType": "uint256",
                    "name": "",
                    "type": "uint256"
                },
                {
                    "internalType": "uint256",
                    "name": "",
                    "type": "uint256"
                }
            ],
            "name": "megaStaked",
            "outputs": [
                {
                    "internalType": "uint256",
                    "name": "",
                    "type": "uint256"
                }
            ],
            "stateMutability": "view",
            "type": "function"
        },
        {
            "inputs": [
                {
                    "internalType": "uint256",
                    "name": "",
                    "type": "uint256"
                }
            ],
            "name": "megaTributePoints",
            "outputs": [
                {
                    "internalType": "uint256",
                    "name": "",
                    "type": "uint256"
                }
            ],
            "stateMutability": "view",
            "type": "function"
        },
        {
            "inputs": [
                {
                    "internalType": "uint256",
                    "name": "",
                    "type": "uint256"
                }
            ],
            "name": "mekaLevelSharePoints",
            "outputs": [
                {
                    "internalType": "uint256",
                    "name": "",
                    "type": "uint256"
                }
            ],
            "stateMutability": "view",
            "type": "function"
        },
        {
            "inputs": [],
            "name": "mekaTotalPointsStaked",
            "outputs": [
                {
                    "internalType": "uint256",
                    "name": "",
                    "type": "uint256"
                }
            ],
            "stateMutability": "view",
            "type": "function"
        },
        {
            "inputs": [],
            "name": "mekaTotalRewardPerPoint",
            "outputs": [
                {
                    "internalType": "uint256",
                    "name": "",
                    "type": "uint256"
                }
            ],
            "stateMutability": "view",
            "type": "function"
        },
        {
            "inputs": [
                {
                    "internalType": "uint256",
                    "name": "tokenIdSave",
                    "type": "uint256"
                },
                {
                    "internalType": "uint256",
                    "name": "tokenIdBurn",
                    "type": "uint256"
                }
            ],
            "name": "mergeMekaApes",
            "outputs": [],
            "stateMutability": "nonpayable",
            "type": "function"
        },
        {
            "inputs": [
                {
                    "internalType": "uint256",
                    "name": "amount",
                    "type": "uint256"
                },
                {
                    "internalType": "bool",
                    "name": "toStake",
                    "type": "bool"
                },
                {
                    "components": [
                        {
                            "internalType": "uint256",
                            "name": "mintAllowance",
                            "type": "uint256"
                        },
                        {
                            "internalType": "uint8",
                            "name": "_v",
                            "type": "uint8"
                        },
                        {
                            "internalType": "bytes32",
                            "name": "_r",
                            "type": "bytes32"
                        },
                        {
                            "internalType": "bytes32",
                            "name": "_s",
                            "type": "bytes32"
                        }
                    ],
                    "internalType": "struct MintSignature",
                    "name": "sig",
                    "type": "tuple"
                }
            ],
            "name": "mint",
            "outputs": [],
            "stateMutability": "payable",
            "type": "function"
        },
        {
            "inputs": [
                {
                    "internalType": "uint256",
                    "name": "",
                    "type": "uint256"
                }
            ],
            "name": "mintOGpriceSteps",
            "outputs": [
                {
                    "internalType": "uint256",
                    "name": "",
                    "type": "uint256"
                }
            ],
            "stateMutability": "view",
            "type": "function"
        },
        {
            "inputs": [],
            "name": "mintSale",
            "outputs": [
                {
                    "internalType": "bool",
                    "name": "",
                    "type": "bool"
                }
            ],
            "stateMutability": "view",
            "type": "function"
        },
        {
            "inputs": [],
            "name": "mintSaleAmount",
            "outputs": [
                {
                    "internalType": "uint256",
                    "name": "",
                    "type": "uint256"
                }
            ],
            "stateMutability": "view",
            "type": "function"
        },
        {
            "inputs": [],
            "name": "mintSigWallet",
            "outputs": [
                {
                    "internalType": "address",
                    "name": "",
                    "type": "address"
                }
            ],
            "stateMutability": "view",
            "type": "function"
        },
        {
            "inputs": [
                {
                    "internalType": "uint256",
                    "name": "amount",
                    "type": "uint256"
                }
            ],
            "name": "mintWithDMT",
            "outputs": [],
            "stateMutability": "nonpayable",
            "type": "function"
        },
        {
            "inputs": [
                {
                    "internalType": "uint256",
                    "name": "amount",
                    "type": "uint256"
                },
                {
                    "internalType": "bool",
                    "name": "toStake",
                    "type": "bool"
                }
            ],
            "name": "mintWithOG",
            "outputs": [],
            "stateMutability": "nonpayable",
            "type": "function"
        },
        {
            "inputs": [],
            "name": "nextTokenId",
            "outputs": [
                {
                    "internalType": "uint256",
                    "name": "",
                    "type": "uint256"
                }
            ],
            "stateMutability": "view",
            "type": "function"
        },
        {
            "inputs": [
                {
                    "internalType": "address",
                    "name": "",
                    "type": "address"
                }
            ],
            "name": "numberOfMintedOogas",
            "outputs": [
                {
                    "internalType": "uint256",
                    "name": "",
                    "type": "uint256"
                }
            ],
            "stateMutability": "view",
            "type": "function"
        },
        {
            "inputs": [],
            "name": "ogMintAttackChance",
            "outputs": [
                {
                    "internalType": "uint256",
                    "name": "",
                    "type": "uint256"
                }
            ],
            "stateMutability": "view",
            "type": "function"
        },
        {
            "inputs": [],
            "name": "ogMinted",
            "outputs": [
                {
                    "internalType": "uint256",
                    "name": "",
                    "type": "uint256"
                }
            ],
            "stateMutability": "view",
            "type": "function"
        },
        {
            "inputs": [],
            "name": "ogToken",
            "outputs": [
                {
                    "internalType": "contract OogearERC20",
                    "name": "",
                    "type": "address"
                }
            ],
            "stateMutability": "view",
            "type": "function"
        },
        {
            "inputs": [
                {
                    "internalType": "uint256",
                    "name": "",
                    "type": "uint256"
                }
            ],
            "name": "oogaAttributes",
            "outputs": [
                {
                    "internalType": "enum OogaType",
                    "name": "oogaType",
                    "type": "uint8"
                },
                {
                    "internalType": "uint256",
                    "name": "level",
                    "type": "uint256"
                },
                {
                    "internalType": "bool",
                    "name": "staked",
                    "type": "bool"
                },
                {
                    "internalType": "address",
                    "name": "stakedOwner",
                    "type": "address"
                },
                {
                    "internalType": "uint256",
                    "name": "lastClaimTimestamp",
                    "type": "uint256"
                },
                {
                    "internalType": "uint256",
                    "name": "savedReward",
                    "type": "uint256"
                },
                {
                    "internalType": "uint256",
                    "name": "lastRewardPerPoint",
                    "type": "uint256"
                },
                {
                    "internalType": "uint256",
                    "name": "stakedMegaIndex",
                    "type": "uint256"
                }
            ],
            "stateMutability": "view",
            "type": "function"
        },
        {
            "inputs": [
                {
                    "internalType": "uint256",
                    "name": "",
                    "type": "uint256"
                }
            ],
            "name": "oogaEvolved",
            "outputs": [
                {
                    "internalType": "bool",
                    "name": "",
                    "type": "bool"
                }
            ],
            "stateMutability": "view",
            "type": "function"
        },
        {
            "inputs": [],
            "name": "oogaVerse",
            "outputs": [
                {
                    "internalType": "contract IERC721",
                    "name": "",
                    "type": "address"
                }
            ],
            "stateMutability": "view",
            "type": "function"
        },
        {
            "inputs": [],
            "name": "owner",
            "outputs": [
                {
                    "internalType": "address",
                    "name": "",
                    "type": "address"
                }
            ],
            "stateMutability": "view",
            "type": "function"
        },
        {
            "inputs": [],
            "name": "prices",
            "outputs": [
                {
                    "internalType": "uint256",
                    "name": "mintPrice",
                    "type": "uint256"
                },
                {
                    "internalType": "uint256",
                    "name": "mintStakePrice",
                    "type": "uint256"
                },
                {
                    "internalType": "uint256",
                    "name": "mintDMTstakePrice",
                    "type": "uint256"
                },
                {
                    "internalType": "uint256",
                    "name": "mekaMergePrice",
                    "type": "uint256"
                }
            ],
            "stateMutability": "view",
            "type": "function"
        },
        {
            "inputs": [],
            "name": "randomMekaProbability",
            "outputs": [
                {
                    "internalType": "uint256",
                    "name": "",
                    "type": "uint256"
                }
            ],
            "stateMutability": "view",
            "type": "function"
        },
        {
            "inputs": [],
            "name": "renounceOwnership",
            "outputs": [],
            "stateMutability": "nonpayable",
            "type": "function"
        },
        {
            "inputs": [],
            "name": "rngOracle",
            "outputs": [
                {
                    "internalType": "contract RNGOracle",
                    "name": "",
                    "type": "address"
                }
            ],
            "stateMutability": "view",
            "type": "function"
        },
        {
            "inputs": [
                {
                    "internalType": "uint256",
                    "name": "",
                    "type": "uint256"
                }
            ],
            "name": "roboOogaMinimalRewardToUnstake",
            "outputs": [
                {
                    "internalType": "uint256",
                    "name": "",
                    "type": "uint256"
                }
            ],
            "stateMutability": "view",
            "type": "function"
        },
        {
            "inputs": [
                {
                    "internalType": "uint256",
                    "name": "",
                    "type": "uint256"
                }
            ],
            "name": "roboOogaRewardAttackProbabilities",
            "outputs": [
                {
                    "internalType": "uint256",
                    "name": "",
                    "type": "uint256"
                }
            ],
            "stateMutability": "view",
            "type": "function"
        },
        {
            "inputs": [
                {
                    "internalType": "uint256",
                    "name": "",
                    "type": "uint256"
                }
            ],
            "name": "roboOogaRewardPerSec",
            "outputs": [
                {
                    "internalType": "uint256",
                    "name": "",
                    "type": "uint256"
                }
            ],
            "stateMutability": "view",
            "type": "function"
        },
        {
            "inputs": [
                {
                    "internalType": "uint256[]",
                    "name": "tokenIds",
                    "type": "uint256[]"
                }
            ],
            "name": "stake",
            "outputs": [],
            "stateMutability": "nonpayable",
            "type": "function"
        },
        {
            "inputs": [],
            "name": "tokensMintedWithDMT",
            "outputs": [
                {
                    "internalType": "uint256",
                    "name": "",
                    "type": "uint256"
                }
            ],
            "stateMutability": "view",
            "type": "function"
        },
        {
            "inputs": [],
            "name": "totalMintedTokens",
            "outputs": [
                {
                    "internalType": "uint256",
                    "name": "",
                    "type": "uint256"
                }
            ],
            "stateMutability": "view",
            "type": "function"
        },
        {
            "inputs": [
                {
                    "internalType": "address",
                    "name": "newOwner",
                    "type": "address"
                }
            ],
            "name": "transferOwnership",
            "outputs": [],
            "stateMutability": "nonpayable",
            "type": "function"
        },
        {
            "inputs": [
                {
                    "internalType": "uint256[]",
                    "name": "tokenIds",
                    "type": "uint256[]"
                }
            ],
            "name": "unstake",
            "outputs": [],
            "stateMutability": "nonpayable",
            "type": "function"
        }
    ],
    "bytecode": "0x608060405234801561001057600080fd5b5061519f806100206000396000f3fe6080604052600436106104655760003560e01c806386e7f03011610243578063cabf161411610143578063e9a16bdb116100bb578063f020044f1161008a578063f38972ed1161006f578063f38972ed14610d9a578063febeb13214610dba578063ff75eece14610dd057600080fd5b8063f020044f14610d5b578063f2fde38b14610d7a57600080fd5b8063e9a16bdb14610ce1578063ecb24fb514610cfb578063ed39407914610d1b578063eee21c2d14610d3b57600080fd5b8063db38206411610112578063e449f341116100f7578063e449f34114610c8b578063e6b4d60b14610cab578063e6f0ba6114610cc157600080fd5b8063db38206414610c0c578063dd2f6d4b14610c5e57600080fd5b8063cabf161414610b73578063d3419bf314610b93578063d7c97fb414610bd6578063d835de0614610bf657600080fd5b8063a4acf051116101d6578063bd9a548b116101a5578063c37a57611161018a578063c37a576114610af3578063c94c7ff414610b23578063ca62ea3714610b4357600080fd5b8063bd9a548b14610abb578063c06fda8e14610add57600080fd5b8063a4acf05114610a45578063b56c610514610a65578063b5e6230114610a7b578063b69b2a6514610a9b57600080fd5b8063909e376d11610212578063909e376d146109c257806397881c2f146109e25780639c507b8b14610a0f5780639e15827614610a2f57600080fd5b806386e7f030146109465780638d6a6d87146109665780638da5cb5b1461098f5780638e32e316146109ad57600080fd5b8063448883d7116103695780636fddcb46116102e157806375794a3c116102b05780637d5ee8e6116102955780637d5ee8e6146108ea5780637e5ae4b714610900578063834e91cf1461093057600080fd5b806375794a3c146108b45780637bf1b562146108ca57600080fd5b80636fddcb461461081357806370a96f3314610833578063715018a61461087f578063729a90c81461089457600080fd5b806350f7c204116103385780635e71cc7c1161031d5780635e71cc7c146107345780636853709a1461074a5780636bff95061461079657600080fd5b806350f7c2041461070b5780635123455f1461072157600080fd5b8063448883d71461068557806346dd84731461069b578063489da8ff146106bb57806350e3ec88146106db57600080fd5b806317522d9f116103fc578063213edf36116103cb57806338e692af116103b057806338e692af1461062f5780633a6a6ca3146106455780633bf27cf11461066557600080fd5b8063213edf36146105f9578063257822101461061957600080fd5b806317522d9f1461056157806319de5221146105995780631a480371146105b95780631b849b14146105d957600080fd5b80630ee9a59b116104385780630ee9a59b146104eb5780630fbf0a931461050b578063113bf8871461052b57806312f30bde1461054157600080fd5b8063017193271461046a5780630181de421461049357806308a1c391146104a95780630a1b494d146104c9575b600080fd5b34801561047657600080fd5b50610480607f5481565b6040519081526020015b60405180910390f35b34801561049f57600080fd5b5061048060855481565b3480156104b557600080fd5b506104806104c4366004614c1f565b610df0565b3480156104d557600080fd5b506104e96104e4366004614c4f565b610e11565b005b3480156104f757600080fd5b50610480610506366004614c1f565b610fbe565b34801561051757600080fd5b506104e9610526366004614a2d565b610fce565b34801561053757600080fd5b5061048060785481565b34801561054d57600080fd5b506104e961055c366004614a9d565b611170565b34801561056d57600080fd5b50606654610581906001600160a01b031681565b6040516001600160a01b03909116815260200161048a565b3480156105a557600080fd5b506104806105b4366004614cb1565b6111ca565b3480156105c557600080fd5b506104e96105d4366004614a02565b6111fe565b3480156105e557600080fd5b506104e96105f4366004614ad5565b611282565b34801561060557600080fd5b506104e9610614366004614c1f565b6116d1565b34801561062557600080fd5b50610480607b5481565b34801561063b57600080fd5b5061048060845481565b34801561065157600080fd5b50610480610660366004614c1f565b611a38565b34801561067157600080fd5b50606854610581906001600160a01b031681565b34801561069157600080fd5b5061048060775481565b3480156106a757600080fd5b506104e96106b6366004614b45565b611a48565b3480156106c757600080fd5b506104806106d6366004614c1f565b611b1e565b3480156106e757600080fd5b506106fb6106f6366004614b0e565b611b2e565b604051901515815260200161048a565b34801561071757600080fd5b5061048060935481565b6104e961072f366004614c73565b611c62565b34801561074057600080fd5b50610480608f5481565b34801561075657600080fd5b506104e9610765366004614a9d565b608d80547fffffffffffffffffffffffffffffffffffffffffffffffffffffffffffffff0016911515919091179055565b3480156107a257600080fd5b506107ff6107b1366004614c1f565b608a60205260009081526040902080546001820154600283015460038401546004850154600586015460069096015460ff9586169694958416946101009094046001600160a01b0316939088565b60405161048a989796959493929190614d4a565b34801561081f57600080fd5b506104e961082e3660046149ca565b611ea8565b34801561083f57600080fd5b506104e961084e366004614a9d565b609080547fffffffffffffffffffffffffffffffffffffffffffffffffffffffffffffff0016911515919091179055565b34801561088b57600080fd5b506104e9611eb1565b3480156108a057600080fd5b506104806108af366004614c1f565b611f17565b3480156108c057600080fd5b5061048060795481565b3480156108d657600080fd5b506104806108e5366004614c1f565b611f27565b3480156108f657600080fd5b5061048060925481565b34801561090c57600080fd5b506106fb61091b366004614c1f565b6000908152608b602052604090205460ff1690565b34801561093c57600080fd5b5061048060915481565b34801561095257600080fd5b506104e9610961366004614c1f565b608f55565b34801561097257600080fd5b506104e9610981366004614cd2565b607c92909255607d55607e55565b34801561099b57600080fd5b506033546001600160a01b0316610581565b3480156109b957600080fd5b50610480611f37565b3480156109ce57600080fd5b50606954610581906001600160a01b031681565b3480156109ee57600080fd5b50610a026109fd366004614a2d565b611f4f565b60405161048a9190614d37565b348015610a1b57600080fd5b506104e9610a2a3660046149ca565b612022565b348015610a3b57600080fd5b5061048060805481565b348015610a5157600080fd5b506104e9610a60366004614c1f565b61202b565b348015610a7157600080fd5b50610480607d5481565b348015610a8757600080fd5b50610480610a96366004614c1f565b6121bd565b348015610aa757600080fd5b50606754610581906001600160a01b031681565b348015610ac757600080fd5b50610ad0612361565b60405161048a9190614e25565b348015610ae957600080fd5b50610480607e5481565b348015610aff57600080fd5b506106fb610b0e366004614c1f565b608b6020526000908152604090205460ff1681565b348015610b2f57600080fd5b506104e9610b3e366004614a2d565b612491565b348015610b4f57600080fd5b506104e9610b5e366004614cb1565b6000918252608a602052604090912060010155565b348015610b7f57600080fd5b50610480610b8e366004614a02565b6124f4565b348015610b9f57600080fd5b50606b54606c54606f54607154610bb69392919084565b60408051948552602085019390935291830152606082015260800161048a565b348015610be257600080fd5b50606554610581906001600160a01b031681565b348015610c0257600080fd5b5061048060735481565b348015610c1857600080fd5b506104e9610c27366004614a9d565b60908054911515610100027fffffffffffffffffffffffffffffffffffffffffffffffffffffffffffff00ff909216919091179055565b348015610c6a57600080fd5b50610480610c793660046149ca565b608e6020526000908152604090205481565b348015610c9757600080fd5b506104e9610ca6366004614a2d565b612536565b348015610cb757600080fd5b50610480607c5481565b348015610ccd57600080fd5b50606a54610581906001600160a01b031681565b348015610ced57600080fd5b506090546106fb9060ff1681565b348015610d0757600080fd5b506104e9610d16366004614cb1565b61279a565b348015610d2757600080fd5b506104e9610d36366004614a2d565b612ceb565b348015610d4757600080fd5b506104e9610d56366004614a9d565b612d9d565b348015610d6757600080fd5b506090546106fb90610100900460ff1681565b348015610d8657600080fd5b506104e9610d953660046149ca565b612df7565b348015610da657600080fd5b506104e9610db5366004614a02565b612ed9565b348015610dc657600080fd5b50610480607a5481565b348015610ddc57600080fd5b50610480610deb366004614c1f565b612f2b565b60768181548110610e0057600080fd5b600091825260209091200154905081565b60935482610e1d611f37565b610e279190614f5d565b1115610e7a5760405162461bcd60e51b815260206004820152600360248201527f453331000000000000000000000000000000000000000000000000000000000060448201526064015b60405180910390fd5b60008115610eba57606b60030160735481548110610ea857634e487b7160e01b600052603260045260246000fd5b90600052602060002001549050610eee565b606b60020160735481548110610ee057634e487b7160e01b600052603260045260246000fd5b906000526020600020015490505b6067546001600160a01b03166323b872dd3330610f0b8786614f95565b6040517fffffffff0000000000000000000000000000000000000000000000000000000060e086901b1681526001600160a01b0393841660048201529290911660248301526044820152606401602060405180830381600087803b158015610f7257600080fd5b505af1158015610f86573d6000803e3d6000fd5b505050506040513d601f19601f82011682018060405250810190610faa9190614ab9565b50610fb9338484607e54612f3b565b505050565b60818181548110610e0057600080fd5b609054610100900460ff166110255760405162461bcd60e51b815260206004820152600360248201527f45303100000000000000000000000000000000000000000000000000000000006044820152606401610e71565b60005b81811015610fb95760655433906001600160a01b0316636352211e85858581811061106357634e487b7160e01b600052603260045260246000fd5b905060200201356040518263ffffffff1660e01b815260040161108891815260200190565b60206040518083038186803b1580156110a057600080fd5b505afa1580156110b4573d6000803e3d6000fd5b505050506040513d601f19601f820116820180604052508101906110d891906149e6565b6001600160a01b03161461112e5760405162461bcd60e51b815260206004820152600360248201527f45343100000000000000000000000000000000000000000000000000000000006044820152606401610e71565b61115e83838381811061115157634e487b7160e01b600052603260045260246000fd5b90506020020135336130e6565b8061116881615064565b915050611028565b6033546001600160a01b031633146107655760405162461bcd60e51b815260206004820181905260248201527f4f776e61626c653a2063616c6c6572206973206e6f7420746865206f776e65726044820152606401610e71565b608682600481106111da57600080fd5b0181815481106111e957600080fd5b90600052602060002001600091509150505481565b6067546040517f40c10f190000000000000000000000000000000000000000000000000000000081526001600160a01b03848116600483015260248201849052909116906340c10f19906044015b600060405180830381600087803b15801561126657600080fd5b505af115801561127a573d6000803e3d6000fd5b505050505050565b600054610100900460ff1661129d5760005460ff16156112a1565b303b155b6113135760405162461bcd60e51b815260206004820152602e60248201527f496e697469616c697a61626c653a20636f6e747261637420697320616c72656160448201527f647920696e697469616c697a65640000000000000000000000000000000000006064820152608401610e71565b600054610100900460ff1615801561135257600080547fffffffffffffffffffffffffffffffffffffffffffffffffffffffffffff0000166101011790555b61135a6132f1565b61136760208301836149ca565b606580547fffffffffffffffffffffffff0000000000000000000000000000000000000000166001600160a01b03929092169190911790556113af60408301602084016149ca565b606680547fffffffffffffffffffffffff0000000000000000000000000000000000000000166001600160a01b03929092169190911790556113f760608301604084016149ca565b606780547fffffffffffffffffffffffff0000000000000000000000000000000000000000166001600160a01b039290921691909117905561143f60808301606084016149ca565b606880547fffffffffffffffffffffffff0000000000000000000000000000000000000000166001600160a01b039290921691909117905561148760a08301608084016149ca565b606980547fffffffffffffffffffffffff0000000000000000000000000000000000000000166001600160a01b03929092169190911790556114cf60c0830160a084016149ca565b606a80547fffffffffffffffffffffffff0000000000000000000000000000000000000000166001600160a01b0392909216919091179055620f42416079556000607a819055612710607b819055608f5561d6d860935560918190556969e10de76676d0800000609255607c8190556005607d55600a607e8190556064607f55608055609080547fffffffffffffffffffffffffffffffffffffffffffffffffffffffffffff0000166101011790556003608c55608d80547fffffffffffffffffffffffffffffffffffffffffffffffffffffffffffffff0016905560848190556085556115c1610160830183614e8a565b6115cd916081916147ff565b506115dc610180830183614e8a565b6115e8916082916147ff565b506115f76101a0830183614e8a565b611603916083916147ff565b5061161160c0830183614ef7565b606b61161d82826150c9565b5061162d905060e0830183614e8a565b611639916072916147ff565b50600160735561164d610100830183614e8a565b611659916074916147ff565b50611668610120830183614e8a565b611674916075916147ff565b50611683610140830183614e8a565b61168f916076916147ff565b506101c0820135607755606460785580156116cd57600080547fffffffffffffffffffffffffffffffffffffffffffffffffffffffffffff00ff1690555b5050565b60905460ff161580156116eb5750609054610100900460ff165b6117375760405162461bcd60e51b815260206004820152600360248201527f45303100000000000000000000000000000000000000000000000000000000006044820152606401610e71565b6000818152608a60205260409081902060655491517f6352211e00000000000000000000000000000000000000000000000000000000815260048101849052909133916001600160a01b0390911690636352211e9060240160206040518083038186803b1580156117a757600080fd5b505afa1580156117bb573d6000803e3d6000fd5b505050506040513d601f19601f820116820180604052508101906117df91906149e6565b6001600160a01b031614806118055750600281015461010090046001600160a01b031633145b6118515760405162461bcd60e51b815260206004820152600360248201527f45373200000000000000000000000000000000000000000000000000000000006044820152606401610e71565b6000815460ff16600181111561187757634e487b7160e01b600052602160045260246000fd5b148015611888575060048160010154105b6118d45760405162461bcd60e51b815260206004820152600360248201527f45373100000000000000000000000000000000000000000000000000000000006044820152606401610e71565b600281015460ff1615611909576118ea826121bd565b8160040160008282546118fd9190614f5d565b90915550504260038201555b6068546001820154607080546001600160a01b03909316926323b872dd9233923092909190811061194a57634e487b7160e01b600052603260045260246000fd5b6000918252602090912001546040517fffffffff0000000000000000000000000000000000000000000000000000000060e086901b1681526001600160a01b0393841660048201529290911660248301526044820152606401600060405180830381600087803b1580156119bd57600080fd5b505af11580156119d1573d6000803e3d6000fd5b505050600182018054915060006119e783615064565b919050555081336001600160a01b03167f2ef0b9f6641bfe4ae9f94f2b9b20ece8b29e13b163e6425c14ff8f520e79412e8360010154604051611a2c91815260200190565b60405180910390a35050565b60728181548110610e0057600080fd5b6033546001600160a01b03163314611aa25760405162461bcd60e51b815260206004820181905260248201527f4f776e61626c653a2063616c6c6572206973206e6f7420746865206f776e65726044820152606401610e71565b8051606b908155602080830151606c5560408301518051849392611acb92606d9291019061484a565b5060608201518051611ae791600384019160209091019061484a565b506080820151600482015560a08201518051611b0d91600584019160209091019061484a565b5060c0820151816006015590505050565b60758181548110610e0057600080fd5b8151604080516001600160a01b0384166020808301919091528183019390935281518082038301815260608201909252815191909201207f19457468657265756d205369676e6564204d6573736167653a0a3332000000006080830152609c8201819052600091829060bc01604051602081830303815290604052805190602001209050600060018287602001518860400151896060015160405160008152602001604052604051611bfc949392919093845260ff9290921660208401526040830152606082015260800190565b6020604051602081039080840390855afa158015611c1e573d6000803e3d6000fd5b50506040517fffffffffffffffffffffffffffffffffffffffffffffffffffffffffffffffe00151606a546001600160a01b03908116911614979650505050505050565b60905460ff16611cb45760405162461bcd60e51b815260206004820152600360248201527f45303000000000000000000000000000000000000000000000000000000000006044820152606401610e71565b608f5483611cc0611f37565b611cca9190614f5d565b1115611d1057611cd8611f37565b608f54611ce59190614fd2565b609080547fffffffffffffffffffffffffffffffffffffffffffffffffffffffffffffff0016905592505b805115611d6d57611d218133611b2e565b611d6d5760405162461bcd60e51b815260206004820152600360248201527f45323000000000000000000000000000000000000000000000000000000000006044820152606401610e71565b608d5460009060ff16611d81576000611d85565b608c545b8251611d919190614f5d565b336000908152608e60205260409020549091508190611db1908690614f5d565b1115611dff5760405162461bcd60e51b815260206004820152600360248201527f45323100000000000000000000000000000000000000000000000000000000006044820152606401610e71565b336000908152608e602052604081208054869290611e1e908490614f5d565b90915550600090508315611e355750606c54611e3a565b50606b545b611e448186614f95565b341015611e935760405162461bcd60e51b815260206004820152600360248201527f45323200000000000000000000000000000000000000000000000000000000006044820152606401610e71565b611ea1338686607c54612f3b565b5050505050565b6116cd8161337e565b6033546001600160a01b03163314611f0b5760405162461bcd60e51b815260206004820181905260248201527f4f776e61626c653a2063616c6c6572206973206e6f7420746865206f776e65726044820152606401610e71565b611f156000613463565b565b60828181548110610e0057600080fd5b60838181548110610e0057600080fd5b6000620f4241607954611f4a9190614fd2565b905090565b60608167ffffffffffffffff811115611f7857634e487b7160e01b600052604160045260246000fd5b604051908082528060200260200182016040528015611fa1578160200160208202803683370190505b50905060005b8281101561201b57611fde848483818110611fd257634e487b7160e01b600052603260045260246000fd5b905060200201356121bd565b828281518110611ffe57634e487b7160e01b600052603260045260246000fd5b60209081029190910101528061201381615064565b915050611fa7565b5092915050565b6116cd816134cd565b60935481612037611f37565b6120419190614f5d565b111561208f5760405162461bcd60e51b815260206004820152600360248201527f45333200000000000000000000000000000000000000000000000000000000006044820152606401610e71565b607b5481607a546120a09190614f5d565b11156120ee5760405162461bcd60e51b815260206004820152600360248201527f45353100000000000000000000000000000000000000000000000000000000006044820152606401610e71565b606854606f546001600160a01b03909116906323b872dd9033903090612115908690614f95565b6040517fffffffff0000000000000000000000000000000000000000000000000000000060e086901b1681526001600160a01b0393841660048201529290911660248301526044820152606401600060405180830381600087803b15801561217c57600080fd5b505af1158015612190573d6000803e3d6000fd5b505050506121a333826001607d54612f3b565b80607a60008282546121b59190614f5d565b909155505050565b6000818152608a602052604080822081516101008101909252805483929190829060ff16600181111561220057634e487b7160e01b600052602160045260246000fd5b600181111561221f57634e487b7160e01b600052602160045260246000fd5b815260018201546020820152600282015460ff81161515604083015261010090046001600160a01b0316606082015260038201546080820152600482015460a0820152600582015460c082015260069091015460e090910152905060008151600181111561229d57634e487b7160e01b600052602160045260246000fd5b14156123155760748160200151815481106122c857634e487b7160e01b600052603260045260246000fd5b9060005260206000200154608a600085815260200190815260200160002060030154426122f59190614fd2565b6122ff9190614f95565b8160a0015161230e9190614f5d565b9392505050565b608281602001518154811061233a57634e487b7160e01b600052603260045260246000fd5b90600052602060002001548160c001516084546123579190614fd2565b61230e9190614f95565b6123a16040518060e00160405280600081526020016000815260200160008152602001600081526020016000815260200160608152602001600081525090565b6040518060e00160405280606b600001548152602001606b600101548152602001606b600201607354815481106123e857634e487b7160e01b600052603260045260246000fd5b90600052602060002001548152602001606b6003016073548154811061241e57634e487b7160e01b600052603260045260246000fd5b600091825260209182902001548252606f548282015260708054604080518285028101850182528281529401939283018282801561247b57602002820191906000526020600020905b815481526020019060010190808311612467575b5050509183525050607154602090910152919050565b609054610100900460ff166124e85760405162461bcd60e51b815260206004820152600360248201527f45303100000000000000000000000000000000000000000000000000000000006044820152606401610e71565b6116cd8282600061352e565b6001600160a01b0382166000908152608e6020526040812054608d5460ff1661251e576000612522565b608c545b61252c9084614f5d565b61230e9190614fd2565b609054610100900460ff1661258d5760405162461bcd60e51b815260206004820152600360248201527f45303100000000000000000000000000000000000000000000000000000000006044820152606401610e71565b60005b8181101561264e576000608a60008585858181106125be57634e487b7160e01b600052603260045260246000fd5b60209081029290920135835250810191909152604001600020600281015490915061010090046001600160a01b0316331461263b5760405162461bcd60e51b815260206004820152600360248201527f45343300000000000000000000000000000000000000000000000000000000006044820152606401610e71565b508061264681615064565b915050612590565b5061265b8282600161352e565b60005b81811015610fb957608a600084848481811061268a57634e487b7160e01b600052603260045260246000fd5b602090810292909201358352508101919091526040016000206002015460ff16801561270d575033608a60008585858181106126d657634e487b7160e01b600052603260045260246000fd5b90506020020135815260200190815260200160002060020160019054906101000a90046001600160a01b03166001600160a01b0316145b6127595760405162461bcd60e51b815260206004820152600360248201527f45343200000000000000000000000000000000000000000000000000000000006044820152606401610e71565b61278883838381811061277c57634e487b7160e01b600052603260045260246000fd5b905060200201356139a5565b8061279281615064565b91505061265e565b60905460ff161580156127b45750609054610100900460ff165b6128005760405162461bcd60e51b815260206004820152600360248201527f45303100000000000000000000000000000000000000000000000000000000006044820152606401610e71565b808214156128505760405162461bcd60e51b815260206004820152600360248201527f45383100000000000000000000000000000000000000000000000000000000006044820152606401610e71565b6000828152608a60205260408082208383529181902060655491517f6352211e00000000000000000000000000000000000000000000000000000000815260048101869052909133916001600160a01b0390911690636352211e9060240160206040518083038186803b1580156128c657600080fd5b505afa1580156128da573d6000803e3d6000fd5b505050506040513d601f19601f820116820180604052508101906128fe91906149e6565b6001600160a01b031614806129335750600282015460ff1680156129335750600282015461010090046001600160a01b031633145b61297f5760405162461bcd60e51b815260206004820152600360248201527f45383400000000000000000000000000000000000000000000000000000000006044820152606401610e71565b6065546040517f6352211e0000000000000000000000000000000000000000000000000000000081526004810185905233916001600160a01b031690636352211e9060240160206040518083038186803b1580156129dc57600080fd5b505afa1580156129f0573d6000803e3d6000fd5b505050506040513d601f19601f82011682018060405250810190612a1491906149e6565b6001600160a01b03161480612a495750600281015460ff168015612a495750600281015461010090046001600160a01b031633145b612a955760405162461bcd60e51b815260206004820152600360248201527f45383500000000000000000000000000000000000000000000000000000000006044820152606401610e71565b6001825460ff166001811115612abb57634e487b7160e01b600052602160045260246000fd5b148015612aeb57506001815460ff166001811115612ae957634e487b7160e01b600052602160045260246000fd5b145b612b375760405162461bcd60e51b815260206004820152600360248201527f45383200000000000000000000000000000000000000000000000000000000006044820152606401610e71565b6001820154158015612b4b57506001810154155b612b975760405162461bcd60e51b815260206004820152600360248201527f45383300000000000000000000000000000000000000000000000000000000006044820152606401610e71565b6068546071546040517f23b872dd00000000000000000000000000000000000000000000000000000000815233600482015230602482015260448101919091526001600160a01b03909116906323b872dd90606401600060405180830381600087803b158015612c0657600080fd5b505af1158015612c1a573d6000803e3d6000fd5b50505050612c26613c9e565b60018301556065546040517f42966c68000000000000000000000000000000000000000000000000000000008152600481018590526001600160a01b03909116906342966c6890602401600060405180830381600087803b158015612c8a57600080fd5b505af1158015612c9e573d6000803e3d6000fd5b505050600183015460408051878152602081019290925285925033917fa52b122853769966325e268b87626455fe921b1f137288cd6e1ed928135319eb910160405180910390a350505050565b60905460ff16158015612d055750609054610100900460ff165b612d515760405162461bcd60e51b815260206004820152600360248201527f45303100000000000000000000000000000000000000000000000000000000006044820152606401610e71565b60005b81811015610fb957612d8b838383818110612d7f57634e487b7160e01b600052603260045260246000fd5b90506020020135613dba565b80612d9581615064565b915050612d54565b6033546001600160a01b03163314610c275760405162461bcd60e51b815260206004820181905260248201527f4f776e61626c653a2063616c6c6572206973206e6f7420746865206f776e65726044820152606401610e71565b6033546001600160a01b03163314612e515760405162461bcd60e51b815260206004820181905260248201527f4f776e61626c653a2063616c6c6572206973206e6f7420746865206f776e65726044820152606401610e71565b6001600160a01b038116612ecd5760405162461bcd60e51b815260206004820152602660248201527f4f776e61626c653a206e6577206f776e657220697320746865207a65726f206160448201527f64647265737300000000000000000000000000000000000000000000000000006064820152608401610e71565b612ed681613463565b50565b6067546040517f9dc29fac0000000000000000000000000000000000000000000000000000000081526001600160a01b0384811660048301526024820184905290911690639dc29fac9060440161124c565b60748181548110610e0057600080fd5b60005b83811015611ea1576080546066546040517fcd4b691400000000000000000000000000000000000000000000000000000000815260646004820152600092916001600160a01b03169063cd4b691490602401602060405180830381600087803b158015612faa57600080fd5b505af1158015612fbe573d6000803e3d6000fd5b505050506040513d601f19601f82011682018060405250810190612fe29190614c37565b10905060008115612ffd57612ff68761337e565b9050613009565b613006876134cd565b90505b6000841180156130ad57506066546040517fcd4b69140000000000000000000000000000000000000000000000000000000081526064600482015285916001600160a01b03169063cd4b691490602401602060405180830381600087803b15801561307357600080fd5b505af1158015613087573d6000803e3d6000fd5b505050506040513d601f19601f820116820180604052508101906130ab9190614c37565b105b156130c1576130bc8188613fcd565b6130d1565b84156130d1576130d181886130e6565b505080806130de90615064565b915050612f3e565b6000828152608a60205260409081902060655491517f23b872dd0000000000000000000000000000000000000000000000000000000081526001600160a01b03848116600483015230602483015260448201869052919291909116906323b872dd90606401600060405180830381600087803b15801561316557600080fd5b505af1158015613179573d6000803e3d6000fd5b5050505060028101805460017fffffffffffffffffffffff0000000000000000000000000000000000000000009091166101006001600160a01b0386160217811790915542600383015560006004830155815460ff1660018111156131ee57634e487b7160e01b600052602160045260246000fd5b14156132b657608281600101548154811061321957634e487b7160e01b600052603260045260246000fd5b9060005260206000200154608560008282546132359190614f5d565b909155505060845460058201556001810154156132b657608681600101546004811061327157634e487b7160e01b600052603260045260246000fd5b0154600682015560018101546086906004811061329e57634e487b7160e01b600052603260045260246000fd5b01805460018101825560009182526020909120018390555b6040516001600160a01b0383169084907f5b53344e2b3d15f33a2ab59e3c199c7bbcb08f5ce03bf0a25c14f978647299a790600090a3505050565b600054610100900460ff1661336e5760405162461bcd60e51b815260206004820152602b60248201527f496e697469616c697a61626c653a20636f6e7472616374206973206e6f74206960448201527f6e697469616c697a696e670000000000000000000000000000000000000000006064820152608401610e71565b6133766140e9565b611f15614166565b60008060795490506133fb83826040518061010001604052806001808111156133b757634e487b7160e01b600052602160045260246000fd5b81526020016000815260200160001515815260200160006001600160a01b0316815260200160008152602001600081526020016000815260200160008152506141ec565b506079805490600061340c83615064565b919050555060726073548154811061343457634e487b7160e01b600052603260045260246000fd5b90600052602060002001546079541061345d576073805490600061345783615064565b91905055505b92915050565b603380546001600160a01b038381167fffffffffffffffffffffffff0000000000000000000000000000000000000000831681179093556040519116919082907f8be0079c531659141344cd1fd0a4f28419497f9722a3daafe3b4186f6b6457e090600090a35050565b607954604080516101008101909152600091906133fb9084908390808681526020016001815260200160001515815260200160006001600160a01b0316815260200160008152602001600081526020016000815260200160008152506141ec565b60008060005b8481101561395e576000608a600088888581811061356257634e487b7160e01b600052603260045260246000fd5b60209081029290920135835250810191909152604001600020600281015490915060ff16151560011480156135a85750600281015461010090046001600160a01b031633145b6135f45760405162461bcd60e51b815260206004820152600360248201527f45393100000000000000000000000000000000000000000000000000000000006044820152606401610e71565b6000613619888885818110611fd257634e487b7160e01b600052603260045260246000fd5b90506000825460ff16600181111561364157634e487b7160e01b600052602160045260246000fd5b14156138be576000861561379a57607583600101548154811061367457634e487b7160e01b600052603260045260246000fd5b90600052602060002001548210156136ce5760405162461bcd60e51b815260206004820152600360248201527f45393200000000000000000000000000000000000000000000000000000000006044820152606401610e71565b60768360010154815481106136f357634e487b7160e01b600052603260045260246000fd5b6000918252602090912001546066546040517fcd4b6914000000000000000000000000000000000000000000000000000000008152606460048201526001600160a01b039091169063cd4b691490602401602060405180830381600087803b15801561375e57600080fd5b505af1158015613772573d6000803e3d6000fd5b505050506040513d601f19601f820116820180604052508101906137969190614c37565b1090505b801561380e576137a9826143dd565b8888858181106137c957634e487b7160e01b600052603260045260246000fd5b905060200201357f726c288861959eddbddaef4fb090f1e0eaae7d917f9c43a68504e4bc42b2f7198360405161380191815260200190565b60405180910390a26138b8565b6000607854607754846138219190614f95565b61382b9190614f75565b90506138378184614fd2565b6138419088614f5d565b965061384d8187614f5d565b955089898681811061386f57634e487b7160e01b600052603260045260246000fd5b60200291909101359050337fe74e5c9d4ac1fc33412485f18c159a0a391efe287ab3fd271123f30e6bacf4e36138a58487614fd2565b60405190815260200160405180910390a3505b5061393d565b6138c88186614f5d565b608454600584015594508787848181106138f257634e487b7160e01b600052603260045260246000fd5b90506020020135336001600160a01b03167fe74e5c9d4ac1fc33412485f18c159a0a391efe287ab3fd271123f30e6bacf4e38360405161393491815260200190565b60405180910390a35b5042600382015560006004909101558061395681615064565b915050613534565b50613968816143dd565b6040518181527f0693f2d9c6761dccc13ecb93b9216162e46eadef5549bbbc3b90950b348bf9d49060200160405180910390a1611ea1338361440d565b6000818152608a602052604090819020600281015460655492517f23b872dd0000000000000000000000000000000000000000000000000000000081523060048201526101009091046001600160a01b039081166024830181905260448301869052929316906323b872dd90606401600060405180830381600087803b158015613a2e57600080fd5b505af1158015613a42573d6000803e3d6000fd5b5050506002830180547fffffffffffffffffffffff000000000000000000000000000000000000000000169055506001825460ff166001811115613a9657634e487b7160e01b600052602160045260246000fd5b1415613c5c576082826001015481548110613ac157634e487b7160e01b600052603260045260246000fd5b906000526020600020015460856000828254613add9190614fd2565b9091555050600182015415613c5c5760006086836001015460048110613b1357634e487b7160e01b600052603260045260246000fd5b0160016086856001015460048110613b3b57634e487b7160e01b600052603260045260246000fd5b0154613b479190614fd2565b81548110613b6557634e487b7160e01b600052603260045260246000fd5b90600052602060002001549050806086846001015460048110613b9857634e487b7160e01b600052603260045260246000fd5b01846006015481548110613bbc57634e487b7160e01b600052603260045260246000fd5b90600052602060002001819055506086836001015460048110613bef57634e487b7160e01b600052603260045260246000fd5b01805480613c0d57634e487b7160e01b600052603160045260246000fd5b6000828152602080822083017fffffffffffffffffffffffffffffffffffffffffffffffffffffffffffffffff908101839055909201909255600680860154938352608a909152604090912001555b6000600683018190556040516001600160a01b0383169185917f3a01954f64bfeed1c903bc3920f7a5639288ea25efc7a539195648519e4184a39190a3505050565b6066546040517fcd4b69140000000000000000000000000000000000000000000000000000000081526064600482015260009182916001600160a01b039091169063cd4b691490602401602060405180830381600087803b158015613d0257600080fd5b505af1158015613d16573d6000803e3d6000fd5b505050506040513d601f19601f82011682018060405250810190613d3a9190614c37565b90506000805b608154811015613db05760818181548110613d6b57634e487b7160e01b600052603260045260246000fd5b906000526020600020015482613d819190614f5d565b915081831015613d9e57613d96816001614f5d565b935050505090565b80613da881615064565b915050613d40565b5060009250505090565b621e8c51811015613e0d5760405162461bcd60e51b815260206004820152600360248201527f45313100000000000000000000000000000000000000000000000000000000006044820152606401610e71565b6000818152608b602052604090205460ff1615613e6c5760405162461bcd60e51b815260206004820152600360248201527f45313200000000000000000000000000000000000000000000000000000000006044820152606401610e71565b6069546040517f6352211e0000000000000000000000000000000000000000000000000000000081526004810183905233916001600160a01b031690636352211e9060240160206040518083038186803b158015613ec957600080fd5b505afa158015613edd573d6000803e3d6000fd5b505050506040513d601f19601f82011682018060405250810190613f0191906149e6565b6001600160a01b031614613f575760405162461bcd60e51b815260206004820152600360248201527f45313300000000000000000000000000000000000000000000000000000000006044820152606401610e71565b6000818152608b6020526040812080547fffffffffffffffffffffffffffffffffffffffffffffffffffffffffffffff00166001179055613f973361337e565b6040519091508190839033907f584ea1a98d504e99c0dd0ca5ace55f5458d725e7e20a1ebb2e5e5af38434397190600090a45050565b61400c6040518060400160405280601181526020017f6f6f67612025732061747461636b656421000000000000000000000000000000815250836144be565b600061401661454f565b90506001600160a01b03811615610fb9576065546040517f23b872dd0000000000000000000000000000000000000000000000000000000081526001600160a01b038481166004830152838116602483015260448201869052909116906323b872dd90606401600060405180830381600087803b15801561409657600080fd5b505af11580156140aa573d6000803e3d6000fd5b50506040516001600160a01b03841692508591507f25e62b5345bc3d4cc6669b9d9091c6019b1f835ba44175f80633ce4636f68aa390600090a3505050565b600054610100900460ff16611f155760405162461bcd60e51b815260206004820152602b60248201527f496e697469616c697a61626c653a20636f6e7472616374206973206e6f74206960448201527f6e697469616c697a696e670000000000000000000000000000000000000000006064820152608401610e71565b600054610100900460ff166141e35760405162461bcd60e51b815260206004820152602b60248201527f496e697469616c697a61626c653a20636f6e7472616374206973206e6f74206960448201527f6e697469616c697a696e670000000000000000000000000000000000000000006064820152608401610e71565b611f1533613463565b6065546040517f40c10f190000000000000000000000000000000000000000000000000000000081526001600160a01b0385811660048301526024820185905260009216906340c10f1990604401600060405180830381600087803b15801561425457600080fd5b505af1158015614268573d6000803e3d6000fd5b5050506000848152608a602052604090208351815485935082907fffffffffffffffffffffffffffffffffffffffffffffffffffffffffffffff0016600183818111156142c557634e487b7160e01b600052602160045260246000fd5b02179055506020820151600182810191909155604083015160028301805460608601517fffffffffffffffffffffff0000000000000000000000000000000000000000009091169215157fffffffffffffffffffffff0000000000000000000000000000000000000000ff16929092176101006001600160a01b03938416021790556080840151600384015560a0840151600484015560c0840151600584015560e090930151600690920191909155835185928716917fb4c03061fb5b7fed76389d5af8f2e0ddb09f8c70d1333abbb62582835e10accb91908111156143bb57634e487b7160e01b600052602160045260246000fd5b60208087015160408051938452918301520160405180910390a3509092915050565b6143e7308261440d565b60855415612ed6576085546143fc9082614f75565b608460008282546121b59190614f5d565b609254609154829190614421908390614f5d565b111561443a576091546092546144379190614fd2565b90505b6067546040517f40c10f190000000000000000000000000000000000000000000000000000000081526001600160a01b03858116600483015260248201849052909116906340c10f1990604401600060405180830381600087803b1580156144a157600080fd5b505af11580156144b5573d6000803e3d6000fd5b50505050505050565b6116cd82826040516024016144d4929190614dac565b604080517fffffffffffffffffffffffffffffffffffffffffffffffffffffffffffffffe08184030181529190526020810180517bffffffffffffffffffffffffffffffffffffffffffffffffffffffff167f9710a9d0000000000000000000000000000000000000000000000000000000001790526147de565b60008060015b600381116145d5576086816004811061457e57634e487b7160e01b600052603260045260246000fd5b015460838054839081106145a257634e487b7160e01b600052603260045260246000fd5b90600052602060002001546145b79190614f95565b6145c19083614f5d565b9150806145cd81615064565b915050614555565b6066546040517fcd4b6914000000000000000000000000000000000000000000000000000000008152600481018490526000916001600160a01b03169063cd4b691490602401602060405180830381600087803b15801561463557600080fd5b505af1158015614649573d6000803e3d6000fd5b505050506040513d601f19601f8201168201806040525081019061466d9190614c37565b90506000600192505b600383116147d3576000608684600481106146a157634e487b7160e01b600052603260045260246000fd5b015460838054869081106146c557634e487b7160e01b600052603260045260246000fd5b90600052602060002001546146da9190614f95565b90506146e68183614f5d565b8310156147b35760006083858154811061471057634e487b7160e01b600052603260045260246000fd5b906000526020600020015483856147279190614fd2565b6147319190614f75565b9050608a60006086876004811061475857634e487b7160e01b600052603260045260246000fd5b01838154811061477857634e487b7160e01b600052603260045260246000fd5b9060005260206000200154815260200190815260200160002060020160019054906101000a90046001600160a01b0316965050505050505090565b6147bd8183614f5d565b91505082806147cb90615064565b935050614676565b600094505050505090565b80516a636f6e736f6c652e6c6f67602083016000808483855afa5050505050565b82805482825590600052602060002090810192821561483a579160200282015b8281111561483a57823582559160200191906001019061481f565b50614846929150614885565b5090565b82805482825590600052602060002090810192821561483a579160200282015b8281111561483a57825182559160200191906001019061486a565b5b808211156148465760008155600101614886565b600082601f8301126148aa578081fd5b8135602067ffffffffffffffff808311156148c7576148c76150b3565b8260051b6040517fffffffffffffffffffffffffffffffffffffffffffffffffffffffffffffffe0603f8301168101818110848211171561490a5761490a6150b3565b60405284815283810192508684018288018501891015614928578687fd5b8692505b8583101561494a57803584529284019260019290920191840161492c565b50979650505050505050565b600060808284031215614967578081fd5b6040516080810181811067ffffffffffffffff8211171561498a5761498a6150b3565b60405282358152905080602083013560ff811681146149a857600080fd5b8060208301525060408301356040820152606083013560608201525092915050565b6000602082840312156149db578081fd5b813561230e81615146565b6000602082840312156149f7578081fd5b815161230e81615146565b60008060408385031215614a14578081fd5b8235614a1f81615146565b946020939093013593505050565b60008060208385031215614a3f578182fd5b823567ffffffffffffffff80821115614a56578384fd5b818501915085601f830112614a69578384fd5b813581811115614a77578485fd5b8660208260051b8501011115614a8b578485fd5b60209290920196919550909350505050565b600060208284031215614aae578081fd5b813561230e8161515b565b600060208284031215614aca578081fd5b815161230e8161515b565b600060208284031215614ae6578081fd5b813567ffffffffffffffff811115614afc578182fd5b82016101e0818503121561230e578182fd5b60008060a08385031215614b20578182fd5b614b2a8484614956565b91506080830135614b3a81615146565b809150509250929050565b600060208284031215614b56578081fd5b813567ffffffffffffffff80821115614b6d578283fd5b9083019060e08286031215614b80578283fd5b614b88614f34565b8235815260208301356020820152604083013582811115614ba7578485fd5b614bb38782860161489a565b604083015250606083013582811115614bca578485fd5b614bd68782860161489a565b6060830152506080830135608082015260a083013582811115614bf7578485fd5b614c038782860161489a565b60a08301525060c083013560c082015280935050505092915050565b600060208284031215614c30578081fd5b5035919050565b600060208284031215614c48578081fd5b5051919050565b60008060408385031215614c61578182fd5b823591506020830135614b3a8161515b565b600080600060c08486031215614c87578081fd5b833592506020840135614c998161515b565b9150614ca88560408601614956565b90509250925092565b60008060408385031215614cc3578182fd5b50508035926020909101359150565b600080600060608486031215614ce6578081fd5b505081359360208301359350604090920135919050565b6000815180845260208085019450808401835b83811015614d2c57815187529582019590820190600101614d10565b509495945050505050565b60208152600061230e6020830184614cfd565b610100810160028a10614d6d57634e487b7160e01b600052602160045260246000fd5b988152602081019790975294151560408701526001600160a01b03939093166060860152608085019190915260a084015260c083015260e09091015290565b6040815260008351806040840152815b81811015614dd95760208187018101516060868401015201614dbc565b81811115614dea5782606083860101525b50602083019390935250601f919091017fffffffffffffffffffffffffffffffffffffffffffffffffffffffffffffffe01601606001919050565b6020815281516020820152602082015160408201526040820151606082015260608201516080820152608082015160a0820152600060a083015160e060c0840152614e74610100840182614cfd565b905060c084015160e08401528091505092915050565b60008083357fffffffffffffffffffffffffffffffffffffffffffffffffffffffffffffffe1843603018112614ebe578283fd5b83018035915067ffffffffffffffff821115614ed8578283fd5b6020019150600581901b3603821315614ef057600080fd5b9250929050565b600082357fffffffffffffffffffffffffffffffffffffffffffffffffffffffffffffff21833603018112614f2a578182fd5b9190910192915050565b60405160e0810167ffffffffffffffff81118282101715614f5757614f576150b3565b60405290565b60008219821115614f7057614f7061509d565b500190565b600082614f9057634e487b7160e01b81526012600452602481fd5b500490565b6000817fffffffffffffffffffffffffffffffffffffffffffffffffffffffffffffffff0483118215151615614fcd57614fcd61509d565b500290565b600082821015614fe457614fe461509d565b500390565b68010000000000000000831115615002576150026150b3565b805483825580841015615039576000828152602090208481019082015b80821015615036576000825560018201915061501f565b50505b5060008181526020812083915b8581101561127a578235825560209092019160019182019101615046565b60007fffffffffffffffffffffffffffffffffffffffffffffffffffffffffffffffff8214156150965761509661509d565b5060010190565b634e487b7160e01b600052601160045260246000fd5b634e487b7160e01b600052604160045260246000fd5b81358155602082013560018201556150e46040830183614e8a565b6150f2818360028601614fe9565b50506151016060830183614e8a565b61510f818360038601614fe9565b50506080820135600482015561512860a0830183614e8a565b615136818360058601614fe9565b505060c082013560068201555050565b6001600160a01b0381168114612ed657600080fd5b8015158114612ed657600080fdfea2646970667358221220de575cf91a07908b07344b63b20e563cb789b22cab9505fc96a70c6dfc85088b64736f6c63430008040033",
    "linkReferences": {},
    "deployedLinkReferences": {}
}