{
    "_format": "hh-sol-artifact-1",
    "contractName": "MekaApesGame",
    "sourceName": "contracts/MekaApesGame.sol",
    "abi": [
        {
            "anonymous": false,
            "inputs": [
                {
                    "indexed": true,
                    "internalType": "uint256",
                    "name": "crewId",
                    "type": "uint256"
                },
                {
                    "indexed": true,
                    "internalType": "uint256",
                    "name": "tokenIds",
                    "type": "uint256"
                }
            ],
            "name": "AddToCrew",
            "type": "event"
        },
        {
            "anonymous": false,
            "inputs": [
                {
                    "indexed": true,
                    "internalType": "uint256",
                    "name": "claimId",
                    "type": "uint256"
                },
                {
                    "indexed": true,
                    "internalType": "uint256",
                    "name": "tokenId",
                    "type": "uint256"
                },
                {
                    "indexed": false,
                    "internalType": "uint256",
                    "name": "amount",
                    "type": "uint256"
                }
            ],
            "name": "AttackReward",
            "type": "event"
        },
        {
            "anonymous": false,
            "inputs": [
                {
                    "indexed": true,
                    "internalType": "address",
                    "name": "account",
                    "type": "address"
                },
                {
                    "indexed": true,
                    "internalType": "uint256",
                    "name": "oogaId",
                    "type": "uint256"
                },
                {
                    "indexed": true,
                    "internalType": "uint256",
                    "name": "newTokenId",
                    "type": "uint256"
                }
            ],
            "name": "BabyOogaEvolve",
            "type": "event"
        },
        {
            "anonymous": false,
            "inputs": [
                {
                    "indexed": true,
                    "internalType": "address",
                    "name": "account",
                    "type": "address"
                },
                {
                    "indexed": true,
                    "internalType": "uint256",
                    "name": "crewId",
                    "type": "uint256"
                },
                {
                    "indexed": false,
                    "internalType": "uint256",
                    "name": "amount",
                    "type": "uint256"
                }
            ],
            "name": "ClaimCrewReward",
            "type": "event"
        },
        {
            "anonymous": false,
            "inputs": [
                {
                    "indexed": true,
                    "internalType": "uint256",
                    "name": "claimId",
                    "type": "uint256"
                },
                {
                    "indexed": true,
                    "internalType": "address",
                    "name": "account",
                    "type": "address"
                },
                {
                    "indexed": true,
                    "internalType": "uint256",
                    "name": "tokenId",
                    "type": "uint256"
                },
                {
                    "indexed": false,
                    "internalType": "uint256",
                    "name": "amount",
                    "type": "uint256"
                }
            ],
            "name": "ClaimReward",
            "type": "event"
        },
        {
            "anonymous": false,
            "inputs": [
                {
                    "indexed": true,
                    "internalType": "address",
                    "name": "account",
                    "type": "address"
                },
                {
                    "indexed": true,
                    "internalType": "uint256",
                    "name": "oogaId",
                    "type": "uint256"
                },
                {
                    "indexed": false,
                    "internalType": "uint256",
                    "name": "newLevel",
                    "type": "uint256"
                }
            ],
            "name": "LevelUpRoboOoga",
            "type": "event"
        },
        {
            "anonymous": false,
            "inputs": [
                {
                    "indexed": true,
                    "internalType": "address",
                    "name": "account",
                    "type": "address"
                },
                {
                    "indexed": true,
                    "internalType": "uint256",
                    "name": "crewId",
                    "type": "uint256"
                }
            ],
            "name": "MakeCrew",
            "type": "event"
        },
        {
            "anonymous": false,
            "inputs": [
                {
                    "indexed": true,
                    "internalType": "uint256",
                    "name": "tokenId",
                    "type": "uint256"
                },
                {
                    "indexed": false,
                    "internalType": "uint256",
                    "name": "megaLevel",
                    "type": "uint256"
                }
            ],
            "name": "MegaMerged",
            "type": "event"
        },
        {
            "anonymous": false,
            "inputs": [
                {
                    "indexed": true,
                    "internalType": "uint256",
                    "name": "tokenId",
                    "type": "uint256"
                }
            ],
            "name": "MekaConvert",
            "type": "event"
        },
        {
            "anonymous": false,
            "inputs": [
                {
                    "indexed": true,
                    "internalType": "address",
                    "name": "account",
                    "type": "address"
                },
                {
                    "indexed": false,
                    "internalType": "uint256",
                    "name": "oogaIdSave",
                    "type": "uint256"
                },
                {
                    "indexed": true,
                    "internalType": "uint256",
                    "name": "oogaIdBurn",
                    "type": "uint256"
                }
            ],
            "name": "MergeMekaApes",
            "type": "event"
        },
        {
            "anonymous": false,
            "inputs": [
                {
                    "indexed": true,
                    "internalType": "address",
                    "name": "account",
                    "type": "address"
                },
                {
                    "indexed": false,
                    "internalType": "uint256",
                    "name": "startFromTokenId",
                    "type": "uint256"
                },
                {
                    "indexed": false,
                    "internalType": "uint256",
                    "name": "amount",
                    "type": "uint256"
                }
            ],
            "name": "MintMultipleRobo",
            "type": "event"
        },
        {
            "anonymous": false,
            "inputs": [
                {
                    "indexed": true,
                    "internalType": "uint256",
                    "name": "oogaId",
                    "type": "uint256"
                },
                {
                    "indexed": true,
                    "internalType": "address",
                    "name": "tributeAccount",
                    "type": "address"
                },
                {
                    "indexed": false,
                    "internalType": "uint256",
                    "name": "tributeOogaId",
                    "type": "uint256"
                }
            ],
            "name": "OogaAttacked",
            "type": "event"
        },
        {
            "anonymous": false,
            "inputs": [
                {
                    "indexed": true,
                    "internalType": "address",
                    "name": "previousOwner",
                    "type": "address"
                },
                {
                    "indexed": true,
                    "internalType": "address",
                    "name": "newOwner",
                    "type": "address"
                }
            ],
            "name": "OwnershipTransferred",
            "type": "event"
        },
        {
            "anonymous": false,
            "inputs": [
                {
                    "indexed": true,
                    "internalType": "uint256",
                    "name": "requestId",
                    "type": "uint256"
                },
                {
                    "indexed": false,
                    "internalType": "uint256",
                    "name": "entropy",
                    "type": "uint256"
                }
            ],
            "name": "ReceiveRandoms",
            "type": "event"
        },
        {
            "anonymous": false,
            "inputs": [
                {
                    "indexed": true,
                    "internalType": "uint256",
                    "name": "crewId",
                    "type": "uint256"
                }
            ],
            "name": "RemoveCrew",
            "type": "event"
        },
        {
            "anonymous": false,
            "inputs": [
                {
                    "indexed": true,
                    "internalType": "uint256",
                    "name": "crewId",
                    "type": "uint256"
                },
                {
                    "indexed": true,
                    "internalType": "uint256",
                    "name": "tokenIds",
                    "type": "uint256"
                }
            ],
            "name": "RemoveFromCrew",
            "type": "event"
        },
        {
            "anonymous": false,
            "inputs": [
                {
                    "indexed": true,
                    "internalType": "uint256",
                    "name": "requestId",
                    "type": "uint256"
                },
                {
                    "indexed": false,
                    "internalType": "uint256",
                    "name": "requestSeed",
                    "type": "uint256"
                }
            ],
            "name": "RequestRandoms",
            "type": "event"
        },
        {
            "anonymous": false,
            "inputs": [
                {
                    "indexed": true,
                    "internalType": "address",
                    "name": "account",
                    "type": "address"
                },
                {
                    "indexed": true,
                    "internalType": "uint256",
                    "name": "tokenId",
                    "type": "uint256"
                }
            ],
            "name": "RoboMint",
            "type": "event"
        },
        {
            "anonymous": false,
            "inputs": [
                {
                    "indexed": true,
                    "internalType": "uint256",
                    "name": "oogaId",
                    "type": "uint256"
                },
                {
                    "indexed": true,
                    "internalType": "address",
                    "name": "account",
                    "type": "address"
                }
            ],
            "name": "StakeOoga",
            "type": "event"
        },
        {
            "anonymous": false,
            "inputs": [
                {
                    "indexed": true,
                    "internalType": "uint256",
                    "name": "claimId",
                    "type": "uint256"
                },
                {
                    "indexed": false,
                    "internalType": "uint256",
                    "name": "totalTax",
                    "type": "uint256"
                }
            ],
            "name": "TaxReward",
            "type": "event"
        },
        {
            "anonymous": false,
            "inputs": [
                {
                    "indexed": true,
                    "internalType": "uint256",
                    "name": "oogaId",
                    "type": "uint256"
                },
                {
                    "indexed": true,
                    "internalType": "address",
                    "name": "account",
                    "type": "address"
                }
            ],
            "name": "UnstakeOoga",
            "type": "event"
        },
        {
            "inputs": [],
            "name": "ATTACK_CHANCE_DENOM",
            "outputs": [
                {
                    "internalType": "uint256",
                    "name": "",
                    "type": "uint256"
                }
            ],
            "stateMutability": "view",
            "type": "function"
        },
        {
            "inputs": [],
            "name": "CLAIM_TAX_DENOM",
            "outputs": [
                {
                    "internalType": "uint256",
                    "name": "",
                    "type": "uint256"
                }
            ],
            "stateMutability": "view",
            "type": "function"
        },
        {
            "inputs": [
                {
                    "internalType": "uint256",
                    "name": "amount",
                    "type": "uint256"
                }
            ],
            "name": "_ogRewardMint",
            "outputs": [],
            "stateMutability": "nonpayable",
            "type": "function"
        },
        {
            "inputs": [],
            "name": "addedOgForRewardsAtEnd",
            "outputs": [
                {
                    "internalType": "uint256",
                    "name": "",
                    "type": "uint256"
                }
            ],
            "stateMutability": "view",
            "type": "function"
        },
        {
            "inputs": [],
            "name": "allMintedTimestamp",
            "outputs": [
                {
                    "internalType": "uint256",
                    "name": "",
                    "type": "uint256"
                }
            ],
            "stateMutability": "view",
            "type": "function"
        },
        {
            "inputs": [],
            "name": "allTokensMinted",
            "outputs": [
                {
                    "internalType": "bool",
                    "name": "",
                    "type": "bool"
                }
            ],
            "stateMutability": "view",
            "type": "function"
        },
        {
            "inputs": [],
            "name": "baseFeeRefreshTime",
            "outputs": [
                {
                    "internalType": "uint256",
                    "name": "",
                    "type": "uint256"
                }
            ],
            "stateMutability": "view",
            "type": "function"
        },
        {
            "inputs": [],
            "name": "baseFeeUpdatedAt",
            "outputs": [
                {
                    "internalType": "uint256",
                    "name": "",
                    "type": "uint256"
                }
            ],
            "stateMutability": "view",
            "type": "function"
        },
        {
            "inputs": [
                {
                    "internalType": "uint256[]",
                    "name": "tokenIds",
                    "type": "uint256[]"
                }
            ],
            "name": "burnOogaForUnstakeCredits",
            "outputs": [],
            "stateMutability": "nonpayable",
            "type": "function"
        },
        {
            "inputs": [
                {
                    "internalType": "uint256",
                    "name": "crewId",
                    "type": "uint256"
                },
                {
                    "internalType": "uint256[]",
                    "name": "addTokenIds",
                    "type": "uint256[]"
                },
                {
                    "internalType": "uint256[]",
                    "name": "removeTokenIds",
                    "type": "uint256[]"
                }
            ],
            "name": "changeCrew",
            "outputs": [],
            "stateMutability": "nonpayable",
            "type": "function"
        },
        {
            "inputs": [
                {
                    "internalType": "bool",
                    "name": "gameActive_",
                    "type": "bool"
                }
            ],
            "name": "changeGameActive",
            "outputs": [],
            "stateMutability": "nonpayable",
            "type": "function"
        },
        {
            "inputs": [
                {
                    "internalType": "uint256[]",
                    "name": "mintOGpriceSteps_",
                    "type": "uint256[]"
                }
            ],
            "name": "changeMintOGPriceSteps",
            "outputs": [],
            "stateMutability": "nonpayable",
            "type": "function"
        },
        {
            "inputs": [
                {
                    "components": [
                        {
                            "internalType": "uint256",
                            "name": "mintPrice",
                            "type": "uint256"
                        },
                        {
                            "internalType": "uint256",
                            "name": "mintStakePrice",
                            "type": "uint256"
                        },
                        {
                            "internalType": "uint256[]",
                            "name": "mintOGprice",
                            "type": "uint256[]"
                        },
                        {
                            "internalType": "uint256[]",
                            "name": "mintOGstakePrice",
                            "type": "uint256[]"
                        },
                        {
                            "internalType": "uint256",
                            "name": "mintDMTstakePrice",
                            "type": "uint256"
                        },
                        {
                            "internalType": "uint256[]",
                            "name": "roboLevelupPrice",
                            "type": "uint256[]"
                        },
                        {
                            "internalType": "uint256",
                            "name": "mekaMergePrice",
                            "type": "uint256"
                        }
                    ],
                    "internalType": "struct Prices",
                    "name": "prices_",
                    "type": "tuple"
                }
            ],
            "name": "changePrices",
            "outputs": [],
            "stateMutability": "nonpayable",
            "type": "function"
        },
        {
            "inputs": [
                {
                    "components": [
                        {
                            "internalType": "uint256",
                            "name": "mintBase",
                            "type": "uint256"
                        },
                        {
                            "internalType": "uint256",
                            "name": "mintPerToken",
                            "type": "uint256"
                        },
                        {
                            "internalType": "uint256",
                            "name": "mintPerTokenStaked",
                            "type": "uint256"
                        },
                        {
                            "internalType": "uint256",
                            "name": "unstakeBase",
                            "type": "uint256"
                        },
                        {
                            "internalType": "uint256",
                            "name": "unstakePerToken",
                            "type": "uint256"
                        },
                        {
                            "internalType": "uint256",
                            "name": "mergeBase",
                            "type": "uint256"
                        }
                    ],
                    "internalType": "struct RandomsGas",
                    "name": "randomsGas_",
                    "type": "tuple"
                }
            ],
            "name": "changeRandomsGas",
            "outputs": [],
            "stateMutability": "nonpayable",
            "type": "function"
        },
        {
            "inputs": [
                {
                    "internalType": "uint256[]",
                    "name": "roboOogaRewardPerSec_",
                    "type": "uint256[]"
                },
                {
                    "internalType": "uint256[]",
                    "name": "roboOogaMinimalRewardToUnstake_",
                    "type": "uint256[]"
                },
                {
                    "internalType": "uint256[]",
                    "name": "roboOogaRewardAttackProbabilities_",
                    "type": "uint256[]"
                }
            ],
            "name": "changeRoboParameters",
            "outputs": [],
            "stateMutability": "nonpayable",
            "type": "function"
        },
        {
            "inputs": [
                {
                    "internalType": "uint256",
                    "name": "tokenId",
                    "type": "uint256"
                }
            ],
            "name": "claimAvailableAmount",
            "outputs": [
                {
                    "internalType": "uint256",
                    "name": "",
                    "type": "uint256"
                }
            ],
            "stateMutability": "view",
            "type": "function"
        },
        {
            "inputs": [
                {
                    "internalType": "uint256",
                    "name": "crewId",
                    "type": "uint256"
                }
            ],
            "name": "claimAvailableAmountCrew",
            "outputs": [
                {
                    "internalType": "uint256",
                    "name": "",
                    "type": "uint256"
                }
            ],
            "stateMutability": "view",
            "type": "function"
        },
        {
            "inputs": [
                {
                    "internalType": "uint256[]",
                    "name": "crewIds",
                    "type": "uint256[]"
                }
            ],
            "name": "claimAvailableAmountMultipleCrews",
            "outputs": [
                {
                    "internalType": "uint256[]",
                    "name": "result",
                    "type": "uint256[]"
                }
            ],
            "stateMutability": "view",
            "type": "function"
        },
        {
            "inputs": [
                {
                    "internalType": "uint256[]",
                    "name": "tokenIds",
                    "type": "uint256[]"
                }
            ],
            "name": "claimAvailableAmountMultipleTokens",
            "outputs": [
                {
                    "internalType": "uint256[]",
                    "name": "result",
                    "type": "uint256[]"
                }
            ],
            "stateMutability": "view",
            "type": "function"
        },
        {
            "inputs": [
                {
                    "internalType": "uint256[]",
                    "name": "crewIds",
                    "type": "uint256[]"
                }
            ],
            "name": "claimCrewReward",
            "outputs": [],
            "stateMutability": "nonpayable",
            "type": "function"
        },
        {
            "inputs": [
                {
                    "internalType": "uint256",
                    "name": "",
                    "type": "uint256"
                }
            ],
            "name": "claimRequests",
            "outputs": [
                {
                    "internalType": "uint256",
                    "name": "totalMekaReward",
                    "type": "uint256"
                }
            ],
            "stateMutability": "view",
            "type": "function"
        },
        {
            "inputs": [
                {
                    "internalType": "uint256[]",
                    "name": "tokenIds",
                    "type": "uint256[]"
                }
            ],
            "name": "claimReward",
            "outputs": [],
            "stateMutability": "nonpayable",
            "type": "function"
        },
        {
            "inputs": [],
            "name": "claimTax",
            "outputs": [
                {
                    "internalType": "uint256",
                    "name": "",
                    "type": "uint256"
                }
            ],
            "stateMutability": "view",
            "type": "function"
        },
        {
            "inputs": [
                {
                    "internalType": "uint256[]",
                    "name": "tokenIds",
                    "type": "uint256[]"
                }
            ],
            "name": "createCrew",
            "outputs": [],
            "stateMutability": "nonpayable",
            "type": "function"
        },
        {
            "inputs": [],
            "name": "crewClaimPercent",
            "outputs": [
                {
                    "internalType": "uint256",
                    "name": "",
                    "type": "uint256"
                }
            ],
            "stateMutability": "view",
            "type": "function"
        },
        {
            "inputs": [
                {
                    "internalType": "uint256",
                    "name": "",
                    "type": "uint256"
                }
            ],
            "name": "crews",
            "outputs": [
                {
                    "internalType": "address",
                    "name": "owner",
                    "type": "address"
                },
                {
                    "internalType": "uint256",
                    "name": "lastClaimTimestamp",
                    "type": "uint256"
                },
                {
                    "internalType": "uint256",
                    "name": "totalRewardPerSec",
                    "type": "uint256"
                },
                {
                    "internalType": "uint256",
                    "name": "savedReward",
                    "type": "uint256"
                }
            ],
            "stateMutability": "view",
            "type": "function"
        },
        {
            "inputs": [],
            "name": "currentBaseFee",
            "outputs": [
                {
                    "internalType": "uint256",
                    "name": "",
                    "type": "uint256"
                }
            ],
            "stateMutability": "view",
            "type": "function"
        },
        {
            "inputs": [],
            "name": "currentOgPriceStep",
            "outputs": [
                {
                    "internalType": "uint256",
                    "name": "",
                    "type": "uint256"
                }
            ],
            "stateMutability": "view",
            "type": "function"
        },
        {
            "inputs": [],
            "name": "dmtMintAttackChance",
            "outputs": [
                {
                    "internalType": "uint256",
                    "name": "",
                    "type": "uint256"
                }
            ],
            "stateMutability": "view",
            "type": "function"
        },
        {
            "inputs": [],
            "name": "dmtToken",
            "outputs": [
                {
                    "internalType": "contract IDMT_ERC20",
                    "name": "",
                    "type": "address"
                }
            ],
            "stateMutability": "view",
            "type": "function"
        },
        {
            "inputs": [],
            "name": "erc721Contract",
            "outputs": [
                {
                    "internalType": "contract MekaApesERC721",
                    "name": "",
                    "type": "address"
                }
            ],
            "stateMutability": "view",
            "type": "function"
        },
        {
            "inputs": [],
            "name": "ethMintAttackChance",
            "outputs": [
                {
                    "internalType": "uint256",
                    "name": "",
                    "type": "uint256"
                }
            ],
            "stateMutability": "view",
            "type": "function"
        },
        {
            "inputs": [
                {
                    "internalType": "uint256[]",
                    "name": "tokenIds",
                    "type": "uint256[]"
                }
            ],
            "name": "evolveBabyOogas",
            "outputs": [],
            "stateMutability": "nonpayable",
            "type": "function"
        },
        {
            "inputs": [],
            "name": "fix",
            "outputs": [],
            "stateMutability": "nonpayable",
            "type": "function"
        },
        {
            "inputs": [],
            "name": "gameActive",
            "outputs": [
                {
                    "internalType": "bool",
                    "name": "",
                    "type": "bool"
                }
            ],
            "stateMutability": "view",
            "type": "function"
        },
        {
            "inputs": [],
            "name": "getPrices",
            "outputs": [
                {
                    "components": [
                        {
                            "internalType": "uint256",
                            "name": "mintPrice",
                            "type": "uint256"
                        },
                        {
                            "internalType": "uint256",
                            "name": "mintStakePrice",
                            "type": "uint256"
                        },
                        {
                            "internalType": "uint256",
                            "name": "mintOGprice",
                            "type": "uint256"
                        },
                        {
                            "internalType": "uint256",
                            "name": "mintOGstakePrice",
                            "type": "uint256"
                        },
                        {
                            "internalType": "uint256",
                            "name": "mintDMTstakePrice",
                            "type": "uint256"
                        },
                        {
                            "internalType": "uint256[]",
                            "name": "roboLevelupPrice",
                            "type": "uint256[]"
                        },
                        {
                            "internalType": "uint256",
                            "name": "mekaMergePrice",
                            "type": "uint256"
                        },
                        {
                            "internalType": "uint256[]",
                            "name": "roboLevelupPriceOG",
                            "type": "uint256[]"
                        }
                    ],
                    "internalType": "struct PricesGetter",
                    "name": "",
                    "type": "tuple"
                }
            ],
            "stateMutability": "view",
            "type": "function"
        },
        {
            "inputs": [
                {
                    "internalType": "address",
                    "name": "user",
                    "type": "address"
                }
            ],
            "name": "getUnstakeCreditsForAddress",
            "outputs": [
                {
                    "internalType": "uint256",
                    "name": "",
                    "type": "uint256"
                }
            ],
            "stateMutability": "view",
            "type": "function"
        },
        {
            "inputs": [
                {
                    "internalType": "uint256",
                    "name": "",
                    "type": "uint256"
                }
            ],
            "name": "inCrew",
            "outputs": [
                {
                    "internalType": "uint256",
                    "name": "",
                    "type": "uint256"
                }
            ],
            "stateMutability": "view",
            "type": "function"
        },
        {
            "inputs": [],
            "name": "initV2",
            "outputs": [
                {
                    "internalType": "bool",
                    "name": "",
                    "type": "bool"
                }
            ],
            "stateMutability": "view",
            "type": "function"
        },
        {
            "inputs": [],
            "name": "initV3",
            "outputs": [
                {
                    "internalType": "bool",
                    "name": "",
                    "type": "bool"
                }
            ],
            "stateMutability": "view",
            "type": "function"
        },
        {
            "inputs": [],
            "name": "initV4",
            "outputs": [
                {
                    "internalType": "bool",
                    "name": "",
                    "type": "bool"
                }
            ],
            "stateMutability": "view",
            "type": "function"
        },
        {
            "inputs": [],
            "name": "initV5",
            "outputs": [
                {
                    "internalType": "bool",
                    "name": "",
                    "type": "bool"
                }
            ],
            "stateMutability": "view",
            "type": "function"
        },
        {
            "inputs": [
                {
                    "internalType": "uint256",
                    "name": "oogaId",
                    "type": "uint256"
                }
            ],
            "name": "isBabyOogaEvolved",
            "outputs": [
                {
                    "internalType": "bool",
                    "name": "",
                    "type": "bool"
                }
            ],
            "stateMutability": "view",
            "type": "function"
        },
        {
            "inputs": [
                {
                    "internalType": "uint256",
                    "name": "tokenId",
                    "type": "uint256"
                },
                {
                    "internalType": "uint256",
                    "name": "numberOfLevels",
                    "type": "uint256"
                }
            ],
            "name": "levelUpRoboOoga",
            "outputs": [],
            "stateMutability": "nonpayable",
            "type": "function"
        },
        {
            "inputs": [
                {
                    "internalType": "uint256",
                    "name": "tokenId",
                    "type": "uint256"
                },
                {
                    "internalType": "uint256",
                    "name": "numberOfLevels",
                    "type": "uint256"
                },
                {
                    "internalType": "uint256[]",
                    "name": "burnTokenIds",
                    "type": "uint256[]"
                }
            ],
            "name": "levelUpRoboOogaWithOG",
            "outputs": [],
            "stateMutability": "nonpayable",
            "type": "function"
        },
        {
            "inputs": [
                {
                    "internalType": "uint256",
                    "name": "",
                    "type": "uint256"
                }
            ],
            "name": "maxCrewForMekaLevel",
            "outputs": [
                {
                    "internalType": "uint256",
                    "name": "",
                    "type": "uint256"
                }
            ],
            "stateMutability": "view",
            "type": "function"
        },
        {
            "inputs": [],
            "name": "maxMintWithDMT",
            "outputs": [
                {
                    "internalType": "uint256",
                    "name": "",
                    "type": "uint256"
                }
            ],
            "stateMutability": "view",
            "type": "function"
        },
        {
            "inputs": [],
            "name": "maxMintedRewardTokens",
            "outputs": [
                {
                    "internalType": "uint256",
                    "name": "",
                    "type": "uint256"
                }
            ],
            "stateMutability": "view",
            "type": "function"
        },
        {
            "inputs": [],
            "name": "maxOgSupply",
            "outputs": [
                {
                    "internalType": "uint256",
                    "name": "",
                    "type": "uint256"
                }
            ],
            "stateMutability": "view",
            "type": "function"
        },
        {
            "inputs": [],
            "name": "maxTokenSupply",
            "outputs": [
                {
                    "internalType": "uint256",
                    "name": "",
                    "type": "uint256"
                }
            ],
            "stateMutability": "view",
            "type": "function"
        },
        {
            "inputs": [
                {
                    "internalType": "uint256",
                    "name": "",
                    "type": "uint256"
                }
            ],
            "name": "megaLevelProbabilities",
            "outputs": [
                {
                    "internalType": "uint256",
                    "name": "",
                    "type": "uint256"
                }
            ],
            "stateMutability": "view",
            "type": "function"
        },
        {
            "inputs": [
                {
                    "internalType": "uint256",
                    "name": "",
                    "type": "uint256"
                },
                {
                    "internalType": "uint256",
                    "name": "",
                    "type": "uint256"
                }
            ],
            "name": "megaStaked",
            "outputs": [
                {
                    "internalType": "uint256",
                    "name": "",
                    "type": "uint256"
                }
            ],
            "stateMutability": "view",
            "type": "function"
        },
        {
            "inputs": [
                {
                    "internalType": "uint256",
                    "name": "",
                    "type": "uint256"
                }
            ],
            "name": "megaTributePoints",
            "outputs": [
                {
                    "internalType": "uint256",
                    "name": "",
                    "type": "uint256"
                }
            ],
            "stateMutability": "view",
            "type": "function"
        },
        {
            "inputs": [
                {
                    "internalType": "uint256",
                    "name": "",
                    "type": "uint256"
                }
            ],
            "name": "mekaCrewRewardMultiplier",
            "outputs": [
                {
                    "internalType": "uint256",
                    "name": "",
                    "type": "uint256"
                }
            ],
            "stateMutability": "view",
            "type": "function"
        },
        {
            "inputs": [
                {
                    "internalType": "uint256",
                    "name": "",
                    "type": "uint256"
                }
            ],
            "name": "mekaLevelSharePoints",
            "outputs": [
                {
                    "internalType": "uint256",
                    "name": "",
                    "type": "uint256"
                }
            ],
            "stateMutability": "view",
            "type": "function"
        },
        {
            "inputs": [],
            "name": "mekaTotalPointsStaked",
            "outputs": [
                {
                    "internalType": "uint256",
                    "name": "",
                    "type": "uint256"
                }
            ],
            "stateMutability": "view",
            "type": "function"
        },
        {
            "inputs": [],
            "name": "mekaTotalRewardPerPoint",
            "outputs": [
                {
                    "internalType": "uint256",
                    "name": "",
                    "type": "uint256"
                }
            ],
            "stateMutability": "view",
            "type": "function"
        },
        {
            "inputs": [
                {
                    "internalType": "uint256",
                    "name": "tokenIdSave",
                    "type": "uint256"
                },
                {
                    "internalType": "uint256",
                    "name": "tokenIdBurn",
                    "type": "uint256"
                }
            ],
            "name": "mergeMekaApes",
            "outputs": [],
            "stateMutability": "payable",
            "type": "function"
        },
        {
            "inputs": [],
            "name": "mergeRandomGas",
            "outputs": [
                {
                    "internalType": "uint256",
                    "name": "",
                    "type": "uint256"
                }
            ],
            "stateMutability": "view",
            "type": "function"
        },
        {
            "inputs": [
                {
                    "internalType": "uint256",
                    "name": "",
                    "type": "uint256"
                }
            ],
            "name": "mergeRequests",
            "outputs": [
                {
                    "internalType": "uint256",
                    "name": "",
                    "type": "uint256"
                }
            ],
            "stateMutability": "view",
            "type": "function"
        },
        {
            "inputs": [
                {
                    "internalType": "uint256",
                    "name": "",
                    "type": "uint256"
                }
            ],
            "name": "mintOGpriceSteps",
            "outputs": [
                {
                    "internalType": "uint256",
                    "name": "",
                    "type": "uint256"
                }
            ],
            "stateMutability": "view",
            "type": "function"
        },
        {
            "inputs": [
                {
                    "internalType": "uint256",
                    "name": "amount",
                    "type": "uint256"
                },
                {
                    "internalType": "bool",
                    "name": "staking",
                    "type": "bool"
                }
            ],
            "name": "mintRandomGas",
            "outputs": [
                {
                    "internalType": "uint256",
                    "name": "",
                    "type": "uint256"
                }
            ],
            "stateMutability": "view",
            "type": "function"
        },
        {
            "inputs": [
                {
                    "internalType": "uint256",
                    "name": "",
                    "type": "uint256"
                }
            ],
            "name": "mintRequests",
            "outputs": [
                {
                    "internalType": "uint32",
                    "name": "startFromId",
                    "type": "uint32"
                },
                {
                    "internalType": "uint8",
                    "name": "amount",
                    "type": "uint8"
                },
                {
                    "internalType": "uint8",
                    "name": "attackChance",
                    "type": "uint8"
                },
                {
                    "internalType": "bool",
                    "name": "toStake",
                    "type": "bool"
                }
            ],
            "stateMutability": "view",
            "type": "function"
        },
        {
            "inputs": [],
            "name": "mintSale",
            "outputs": [
                {
                    "internalType": "bool",
                    "name": "",
                    "type": "bool"
                }
            ],
            "stateMutability": "view",
            "type": "function"
        },
        {
            "inputs": [],
            "name": "mintSaleAmount",
            "outputs": [
                {
                    "internalType": "uint256",
                    "name": "",
                    "type": "uint256"
                }
            ],
            "stateMutability": "view",
            "type": "function"
        },
        {
            "inputs": [],
            "name": "mintSigWallet",
            "outputs": [
                {
                    "internalType": "address",
                    "name": "",
                    "type": "address"
                }
            ],
            "stateMutability": "view",
            "type": "function"
        },
        {
            "inputs": [
                {
                    "internalType": "uint256",
                    "name": "amount",
                    "type": "uint256"
                },
                {
                    "internalType": "bool",
                    "name": "toStake",
                    "type": "bool"
                }
            ],
            "name": "mintWithOG",
            "outputs": [],
            "stateMutability": "payable",
            "type": "function"
        },
        {
            "inputs": [],
            "name": "nextClaimWithoutRandomId",
            "outputs": [
                {
                    "internalType": "uint256",
                    "name": "",
                    "type": "uint256"
                }
            ],
            "stateMutability": "view",
            "type": "function"
        },
        {
            "inputs": [],
            "name": "nextCrewId",
            "outputs": [
                {
                    "internalType": "uint256",
                    "name": "",
                    "type": "uint256"
                }
            ],
            "stateMutability": "view",
            "type": "function"
        },
        {
            "inputs": [],
            "name": "nextRandomRequestId",
            "outputs": [
                {
                    "internalType": "uint256",
                    "name": "",
                    "type": "uint256"
                }
            ],
            "stateMutability": "view",
            "type": "function"
        },
        {
            "inputs": [],
            "name": "nextTokenId",
            "outputs": [
                {
                    "internalType": "uint256",
                    "name": "",
                    "type": "uint256"
                }
            ],
            "stateMutability": "view",
            "type": "function"
        },
        {
            "inputs": [
                {
                    "internalType": "address",
                    "name": "",
                    "type": "address"
                }
            ],
            "name": "numberOfMintedOogas",
            "outputs": [
                {
                    "internalType": "uint256",
                    "name": "",
                    "type": "uint256"
                }
            ],
            "stateMutability": "view",
            "type": "function"
        },
        {
            "inputs": [],
            "name": "ogMintAttackChance",
            "outputs": [
                {
                    "internalType": "uint256",
                    "name": "",
                    "type": "uint256"
                }
            ],
            "stateMutability": "view",
            "type": "function"
        },
        {
            "inputs": [],
            "name": "ogMinted",
            "outputs": [
                {
                    "internalType": "uint256",
                    "name": "",
                    "type": "uint256"
                }
            ],
            "stateMutability": "view",
            "type": "function"
        },
        {
            "inputs": [],
            "name": "ogRewardMinted",
            "outputs": [
                {
                    "internalType": "bool",
                    "name": "",
                    "type": "bool"
                }
            ],
            "stateMutability": "view",
            "type": "function"
        },
        {
            "inputs": [],
            "name": "ogToken",
            "outputs": [
                {
                    "internalType": "contract OogearERC20",
                    "name": "",
                    "type": "address"
                }
            ],
            "stateMutability": "view",
            "type": "function"
        },
        {
            "inputs": [
                {
                    "internalType": "uint256",
                    "name": "",
                    "type": "uint256"
                }
            ],
            "name": "oogaAttributes",
            "outputs": [
                {
                    "internalType": "enum OogaType",
                    "name": "oogaType",
                    "type": "uint8"
                },
                {
                    "internalType": "uint8",
                    "name": "level",
                    "type": "uint8"
                },
                {
                    "internalType": "bool",
                    "name": "staked",
                    "type": "bool"
                },
                {
                    "internalType": "address",
                    "name": "stakedOwner",
                    "type": "address"
                },
                {
                    "internalType": "uint256",
                    "name": "lastClaimTimestamp",
                    "type": "uint256"
                },
                {
                    "internalType": "uint256",
                    "name": "savedReward",
                    "type": "uint256"
                },
                {
                    "internalType": "uint256",
                    "name": "lastRewardPerPoint",
                    "type": "uint256"
                },
                {
                    "internalType": "uint256",
                    "name": "stakedMegaIndex",
                    "type": "uint256"
                }
            ],
            "stateMutability": "view",
            "type": "function"
        },
        {
            "inputs": [
                {
                    "internalType": "uint256",
                    "name": "",
                    "type": "uint256"
                }
            ],
            "name": "oogaEvolved",
            "outputs": [
                {
                    "internalType": "bool",
                    "name": "",
                    "type": "bool"
                }
            ],
            "stateMutability": "view",
            "type": "function"
        },
        {
            "inputs": [],
            "name": "oogaVerse",
            "outputs": [
                {
                    "internalType": "contract IERC721",
                    "name": "",
                    "type": "address"
                }
            ],
            "stateMutability": "view",
            "type": "function"
        },
        {
            "inputs": [],
            "name": "owner",
            "outputs": [
                {
                    "internalType": "address",
                    "name": "",
                    "type": "address"
                }
            ],
            "stateMutability": "view",
            "type": "function"
        },
        {
            "inputs": [],
            "name": "previousBaseFee",
            "outputs": [
                {
                    "internalType": "uint256",
                    "name": "",
                    "type": "uint256"
                }
            ],
            "stateMutability": "view",
            "type": "function"
        },
        {
            "inputs": [],
            "name": "prices",
            "outputs": [
                {
                    "internalType": "uint256",
                    "name": "mintPrice",
                    "type": "uint256"
                },
                {
                    "internalType": "uint256",
                    "name": "mintStakePrice",
                    "type": "uint256"
                },
                {
                    "internalType": "uint256",
                    "name": "mintDMTstakePrice",
                    "type": "uint256"
                },
                {
                    "internalType": "uint256",
                    "name": "mekaMergePrice",
                    "type": "uint256"
                }
            ],
            "stateMutability": "view",
            "type": "function"
        },
        {
            "inputs": [],
            "name": "publicMintAllowance",
            "outputs": [
                {
                    "internalType": "uint256",
                    "name": "",
                    "type": "uint256"
                }
            ],
            "stateMutability": "view",
            "type": "function"
        },
        {
            "inputs": [],
            "name": "publicMintStarted",
            "outputs": [
                {
                    "internalType": "bool",
                    "name": "",
                    "type": "bool"
                }
            ],
            "stateMutability": "view",
            "type": "function"
        },
        {
            "inputs": [],
            "name": "randomMekaProbability",
            "outputs": [
                {
                    "internalType": "uint256",
                    "name": "",
                    "type": "uint256"
                }
            ],
            "stateMutability": "view",
            "type": "function"
        },
        {
            "inputs": [],
            "name": "randomProvider",
            "outputs": [
                {
                    "internalType": "address",
                    "name": "",
                    "type": "address"
                }
            ],
            "stateMutability": "view",
            "type": "function"
        },
        {
            "inputs": [
                {
                    "internalType": "uint256",
                    "name": "",
                    "type": "uint256"
                }
            ],
            "name": "randomRequests",
            "outputs": [
                {
                    "internalType": "enum RandomRequestType",
                    "name": "requestType",
                    "type": "uint8"
                },
                {
                    "internalType": "address",
                    "name": "user",
                    "type": "address"
                },
                {
                    "internalType": "bool",
                    "name": "active",
                    "type": "bool"
                }
            ],
            "stateMutability": "view",
            "type": "function"
        },
        {
            "inputs": [],
            "name": "randomsGas",
            "outputs": [
                {
                    "internalType": "uint256",
                    "name": "mintBase",
                    "type": "uint256"
                },
                {
                    "internalType": "uint256",
                    "name": "mintPerToken",
                    "type": "uint256"
                },
                {
                    "internalType": "uint256",
                    "name": "mintPerTokenStaked",
                    "type": "uint256"
                },
                {
                    "internalType": "uint256",
                    "name": "unstakeBase",
                    "type": "uint256"
                },
                {
                    "internalType": "uint256",
                    "name": "unstakePerToken",
                    "type": "uint256"
                },
                {
                    "internalType": "uint256",
                    "name": "mergeBase",
                    "type": "uint256"
                }
            ],
            "stateMutability": "view",
            "type": "function"
        },
        {
            "inputs": [
                {
                    "internalType": "uint256[]",
                    "name": "requestIds",
                    "type": "uint256[]"
                },
                {
                    "internalType": "uint256[]",
                    "name": "entropies",
                    "type": "uint256[]"
                }
            ],
            "name": "receiveMultipleRandoms",
            "outputs": [],
            "stateMutability": "nonpayable",
            "type": "function"
        },
        {
            "inputs": [
                {
                    "internalType": "uint256",
                    "name": "requestId",
                    "type": "uint256"
                },
                {
                    "internalType": "uint256",
                    "name": "entropy",
                    "type": "uint256"
                }
            ],
            "name": "receiveRandoms",
            "outputs": [],
            "stateMutability": "nonpayable",
            "type": "function"
        },
        {
            "inputs": [
                {
                    "internalType": "uint256[]",
                    "name": "crewIds",
                    "type": "uint256[]"
                }
            ],
            "name": "removeCrew",
            "outputs": [],
            "stateMutability": "nonpayable",
            "type": "function"
        },
        {
            "inputs": [],
            "name": "renounceOwnership",
            "outputs": [],
            "stateMutability": "nonpayable",
            "type": "function"
        },
        {
            "inputs": [
                {
                    "internalType": "uint256",
                    "name": "",
                    "type": "uint256"
                }
            ],
            "name": "roboLevelupPriceOG",
            "outputs": [
                {
                    "internalType": "uint256",
                    "name": "",
                    "type": "uint256"
                }
            ],
            "stateMutability": "view",
            "type": "function"
        },
        {
            "inputs": [
                {
                    "internalType": "uint256",
                    "name": "",
                    "type": "uint256"
                }
            ],
            "name": "roboOogaMinimalRewardToUnstake",
            "outputs": [
                {
                    "internalType": "uint256",
                    "name": "",
                    "type": "uint256"
                }
            ],
            "stateMutability": "view",
            "type": "function"
        },
        {
            "inputs": [
                {
                    "internalType": "uint256",
                    "name": "",
                    "type": "uint256"
                }
            ],
            "name": "roboOogaRewardAttackProbabilities",
            "outputs": [
                {
                    "internalType": "uint256",
                    "name": "",
                    "type": "uint256"
                }
            ],
            "stateMutability": "view",
            "type": "function"
        },
        {
            "inputs": [
                {
                    "internalType": "uint256",
                    "name": "",
                    "type": "uint256"
                }
            ],
            "name": "roboOogaRewardPerSec",
            "outputs": [
                {
                    "internalType": "uint256",
                    "name": "",
                    "type": "uint256"
                }
            ],
            "stateMutability": "view",
            "type": "function"
        },
        {
            "inputs": [
                {
                    "internalType": "uint256",
                    "name": "",
                    "type": "uint256"
                }
            ],
            "name": "roboOogaRewardPerSecInCrew",
            "outputs": [
                {
                    "internalType": "uint256",
                    "name": "",
                    "type": "uint256"
                }
            ],
            "stateMutability": "view",
            "type": "function"
        },
        {
            "inputs": [
                {
                    "internalType": "uint256",
                    "name": "",
                    "type": "uint256"
                }
            ],
            "name": "roboOogaRewardPerSec_midStage",
            "outputs": [
                {
                    "internalType": "uint256",
                    "name": "",
                    "type": "uint256"
                }
            ],
            "stateMutability": "view",
            "type": "function"
        },
        {
            "inputs": [],
            "name": "roboOogaRewardStart",
            "outputs": [
                {
                    "internalType": "uint256",
                    "name": "",
                    "type": "uint256"
                }
            ],
            "stateMutability": "view",
            "type": "function"
        },
        {
            "inputs": [
                {
                    "internalType": "uint256[]",
                    "name": "tokenIds",
                    "type": "uint256[]"
                }
            ],
            "name": "stake",
            "outputs": [],
            "stateMutability": "nonpayable",
            "type": "function"
        },
        {
            "inputs": [],
            "name": "tokensMintedWithDMT",
            "outputs": [
                {
                    "internalType": "uint256",
                    "name": "",
                    "type": "uint256"
                }
            ],
            "stateMutability": "view",
            "type": "function"
        },
        {
            "inputs": [],
            "name": "totalMintETH",
            "outputs": [
                {
                    "internalType": "uint256",
                    "name": "",
                    "type": "uint256"
                }
            ],
            "stateMutability": "view",
            "type": "function"
        },
        {
            "inputs": [],
            "name": "totalMintedRewardTokens",
            "outputs": [
                {
                    "internalType": "uint256",
                    "name": "",
                    "type": "uint256"
                }
            ],
            "stateMutability": "view",
            "type": "function"
        },
        {
            "inputs": [],
            "name": "totalMintedTokens",
            "outputs": [
                {
                    "internalType": "uint256",
                    "name": "",
                    "type": "uint256"
                }
            ],
            "stateMutability": "view",
            "type": "function"
        },
        {
            "inputs": [],
            "name": "totalRandomTxFee",
            "outputs": [
                {
                    "internalType": "uint256",
                    "name": "",
                    "type": "uint256"
                }
            ],
            "stateMutability": "view",
            "type": "function"
        },
        {
            "inputs": [],
            "name": "totalRandomTxFeeWithdrawn",
            "outputs": [
                {
                    "internalType": "uint256",
                    "name": "",
                    "type": "uint256"
                }
            ],
            "stateMutability": "view",
            "type": "function"
        },
        {
            "inputs": [
                {
                    "internalType": "address",
                    "name": "newOwner",
                    "type": "address"
                }
            ],
            "name": "transferOwnership",
            "outputs": [],
            "stateMutability": "nonpayable",
            "type": "function"
        },
        {
            "inputs": [
                {
                    "internalType": "uint256[]",
                    "name": "tokenIds",
                    "type": "uint256[]"
                }
            ],
            "name": "unstake",
            "outputs": [],
            "stateMutability": "nonpayable",
            "type": "function"
        },
        {
            "inputs": [
                {
                    "internalType": "address",
                    "name": "",
                    "type": "address"
                }
            ],
            "name": "unstakeCredits",
            "outputs": [
                {
                    "internalType": "uint256",
                    "name": "",
                    "type": "uint256"
                }
            ],
            "stateMutability": "view",
            "type": "function"
        },
        {
            "inputs": [
                {
                    "internalType": "uint256",
                    "name": "",
                    "type": "uint256"
                }
            ],
            "name": "unstakeCreditsForRoboLevel",
            "outputs": [
                {
                    "internalType": "uint256",
                    "name": "",
                    "type": "uint256"
                }
            ],
            "stateMutability": "view",
            "type": "function"
        },
        {
            "inputs": [],
            "name": "unstakeCreditsStart",
            "outputs": [
                {
                    "internalType": "uint256",
                    "name": "",
                    "type": "uint256"
                }
            ],
            "stateMutability": "view",
            "type": "function"
        },
        {
            "inputs": [
                {
                    "internalType": "address",
                    "name": "",
                    "type": "address"
                }
            ],
            "name": "usedUnstakeCredits",
            "outputs": [
                {
                    "internalType": "uint256",
                    "name": "",
                    "type": "uint256"
                }
            ],
            "stateMutability": "view",
            "type": "function"
        },
        {
            "inputs": [
                {
                    "internalType": "address",
                    "name": "",
                    "type": "address"
                }
            ],
            "name": "withdrawerLastTotalMintETH",
            "outputs": [
                {
                    "internalType": "uint256",
                    "name": "",
                    "type": "uint256"
                }
            ],
            "stateMutability": "view",
            "type": "function"
        },
        {
            "inputs": [
                {
                    "internalType": "address",
                    "name": "",
                    "type": "address"
                }
            ],
            "name": "withdrawerPercent",
            "outputs": [
                {
                    "internalType": "uint256",
                    "name": "",
                    "type": "uint256"
                }
            ],
            "stateMutability": "view",
            "type": "function"
        }
    ],
    "bytecode": "0x608060405234801561001057600080fd5b50615f0480620000216000396000f3fe6080604052600436106105e95760003560e01c806392bbfd5111610305578063ca067ad01161019c578063e6d35655116100ed578063ed3940791161009b578063ed394079146113fd578063eee21c2d1461141d578063f020044f1461143d578063f22395c81461145c578063f2fde38b14611472578063f3db119114611492578063febeb132146114a8578063ff75eece146114be57600080fd5b8063e6d35655146112e1578063e6f0ba61146112f7578063e826cdf114611317578063e9a16bdb1461138d578063ec01952b146113a7578063ec7373ce146113bd578063ecb24fb5146113ea57600080fd5b8063d7c97fb41161014a578063d7c97fb414611213578063d835de0614611233578063dd2c094814611249578063dd2f6d4b1461125e578063e0fcd6661461128b578063e449f341146112ab578063e6b4d60b146112cb57600080fd5b8063ca067ad0146110df578063ca24964b14611139578063ca97f52014611153578063cecb2db71461116d578063d3419bf31461118d578063d385014d146111d0578063d6ebe4fe146111fd57600080fd5b8063ad11cd0511610256578063c06fda8e11610204578063c06fda8e1461100d578063c24b719714611023578063c25190d414611043578063c37a576114611063578063c44ca13314611093578063c54b7358146110a9578063c94c7ff4146110bf57600080fd5b8063ad11cd0514610f32578063adb9875114610f52578063b56c610514610f7f578063b5e6230114610f95578063b69b2a6514610fb5578063bb905c7514610fd5578063bd9a548b14610feb57600080fd5b80639efbdcd0116102b35780639efbdcd014610e3a578063a0e69fe614610e5a578063a4da467e14610e79578063a4e9f29714610e99578063a551878e14610ef1578063a5b63cc914610f06578063acac98dd14610f1c57600080fd5b806392bbfd5114610d4b57806394be311014610d7857806395044c9214610d98578063961b294a14610db857806397881c2f14610dd75780639978924114610e045780639e15827614610e2457600080fd5b806350f7c20411610484578063746aab91116103d5578063833c7fc011610383578063833c7fc014610c7f578063834e91cf14610c95578063878e9de614610cab5780638da5cb5b14610ccb5780638e32e31614610ce05780638ec14dfc14610cf55780638f46500e14610d0b578063909e376d14610d2b57600080fd5b8063746aab9114610ba057806375794a3c14610bc057806376bcff4e14610bd65780637bf1b56214610c035780637d15132314610c235780637d5ee8e614610c395780637e5ae4b714610c4f57600080fd5b8063662162d511610432578063662162d514610a6557806366ed6fbe14610a7b5780636bb6866414610a9b5780636bff950614610abb5780636c4a8c1714610b3e578063715018a614610b6b578063729a90c814610b8057600080fd5b806350f7c204146109a357806351e9a59a146109b957806352695aa0146109d957806355449863146109f95780635ca2034a14610a195780635ca58adf14610a2f5780635e71cc7c14610a4f57600080fd5b80632e9554d31161053e578063448883d7116104ec578063448883d7146108dd578063448b7753146108f357806346dd84731461090d578063482a52781461092d578063489da8ff1461094d5780634e47a79a1461096d5780635072c1ee1461098357600080fd5b80632e9554d31461078e5780633186d3c9146107a85780633764d26f146107d557806338e692af146107eb5780633a6a6ca3146108015780633bf27cf114610821578063424e65751461085957600080fd5b80631064a3831161059b5780631064a383146106cc578063113bf887146106ec578063118b8daf1461070257806319de5221146107185780631b9401cd1461073857806325782210146107585780632626b8291461076e57600080fd5b806301719327146105ee5780630181de4214610617578063035240051461062d57806308a1c391146106575780630a1b494d146106775780630ee9a59b1461068c5780630fbf0a93146106ac575b600080fd5b3480156105fa57600080fd5b5061060460855481565b6040519081526020015b60405180910390f35b34801561062357600080fd5b50610604608b5481565b34801561063957600080fd5b506093546106479060ff1681565b604051901515815260200161060e565b34801561066357600080fd5b5061060461067236600461558b565b6114de565b61068a6106853660046155b2565b6114ff565b005b34801561069857600080fd5b506106046106a736600461558b565b6116f0565b3480156106b857600080fd5b5061068a6106c736600461562d565b611700565b3480156106d857600080fd5b5061068a6106e736600461562d565b611843565b3480156106f857600080fd5b50610604607e5481565b34801561070e57600080fd5b5061060460b85481565b34801561072457600080fd5b5061060461073336600461566e565b611aa1565b34801561074457600080fd5b5061068a61075336600461566e565b611ad5565b34801561076457600080fd5b5061060460815481565b34801561077a57600080fd5b5061060461078936600461558b565b611b0d565b34801561079a57600080fd5b5060b0546106479060ff1681565b3480156107b457600080fd5b506106046107c336600461558b565b60b36020526000908152604090205481565b3480156107e157600080fd5b5061060460be5481565b3480156107f757600080fd5b50610604608a5481565b34801561080d57600080fd5b5061060461081c36600461558b565b611b1d565b34801561082d57600080fd5b50606754610841906001600160a01b031681565b6040516001600160a01b03909116815260200161060e565b34801561086557600080fd5b506108ad61087436600461558b565b60a46020526000908152604090205463ffffffff81169060ff600160201b8204811691600160281b8104821691600160301b9091041684565b6040805163ffffffff95909516855260ff938416602086015291909216908301521515606082015260800161060e565b3480156108e957600080fd5b50610604607d5481565b3480156108ff57600080fd5b5060b9546106479060ff1681565b34801561091957600080fd5b5061068a610928366004615768565b611b2d565b34801561093957600080fd5b5061060461094836600461558b565b611bd8565b34801561095957600080fd5b5061060461096836600461558b565b611be8565b34801561097957600080fd5b5061060460b15481565b34801561098f57600080fd5b5061068a61099e36600461562d565b611bf8565b3480156109af57600080fd5b50610604609a5481565b3480156109c557600080fd5b506106046109d436600461558b565b611c36565b3480156109e557600080fd5b5061068a6109f436600461566e565b611c46565b348015610a0557600080fd5b5061068a610a14366004615847565b611c6c565b348015610a2557600080fd5b5061060460925481565b348015610a3b57600080fd5b5061068a610a4a3660046158c0565b611cc9565b348015610a5b57600080fd5b5061060460955481565b348015610a7157600080fd5b50610604609c5481565b348015610a8757600080fd5b50610604610a9636600461558b565b611d47565b348015610aa757600080fd5b5061068a610ab636600461562d565b611d57565b348015610ac757600080fd5b50610b2a610ad636600461558b565b6090602052600090815260409020805460018201546002830154600384015460049094015460ff8085169561010086048216956201000081049092169463010000009092046001600160a01b031693919288565b60405161060e989796959493929190615928565b348015610b4a57600080fd5b50610604610b5936600461558b565b60a66020526000908152604090205481565b348015610b7757600080fd5b5061068a611d95565b348015610b8c57600080fd5b50610604610b9b36600461558b565b611dd0565b348015610bac57600080fd5b5061068a610bbb36600461558b565b611de0565b348015610bcc57600080fd5b50610604607f5481565b348015610be257600080fd5b50610604610bf1366004615994565b60bc6020526000908152604090205481565b348015610c0f57600080fd5b50610604610c1e36600461558b565b611eb5565b348015610c2f57600080fd5b5061060460995481565b348015610c4557600080fd5b5061060460985481565b348015610c5b57600080fd5b50610647610c6a36600461558b565b60009081526091602052604090205460ff1690565b348015610c8b57600080fd5b50610604609d5481565b348015610ca157600080fd5b5061060460975481565b348015610cb757600080fd5b5061068a610cc63660046159b1565b611ec5565b348015610cd757600080fd5b50610841611f49565b348015610cec57600080fd5b50610604611f58565b348015610d0157600080fd5b5061060460aa5481565b348015610d1757600080fd5b50606a54610841906001600160a01b031681565b348015610d3757600080fd5b50606854610841906001600160a01b031681565b348015610d5757600080fd5b50610604610d66366004615994565b60a16020526000908152604090205481565b348015610d8457600080fd5b5061068a610d93366004615a2a565b611f6e565b348015610da457600080fd5b50610604610db336600461558b565b611fcc565b348015610dc457600080fd5b5060ac5461064790610100900460ff1681565b348015610de357600080fd5b50610df7610df236600461562d565b612095565b60405161060e9190615ac3565b348015610e1057600080fd5b50610604610e1f36600461558b565b61213d565b348015610e3057600080fd5b5061060460865481565b348015610e4657600080fd5b50610604610e5536600461558b565b61214d565b348015610e6657600080fd5b5060ae5461064790610100900460ff1681565b348015610e8557600080fd5b5061068a610e9436600461562d565b61215d565b348015610ea557600080fd5b50607254607354607454607554607654607754610ec495949392919086565b604080519687526020870195909552938501929092526060840152608083015260a082015260c00161060e565b348015610efd57600080fd5b5061068a6123bb565b348015610f1257600080fd5b50610604609f5481565b348015610f2857600080fd5b5061060460ba5481565b348015610f3e57600080fd5b5061068a610f4d36600461562d565b6123f9565b348015610f5e57600080fd5b50610604610f6d366004615994565b60bb6020526000908152604090205481565b348015610f8b57600080fd5b5061060460835481565b348015610fa157600080fd5b50610604610fb036600461558b565b612434565b348015610fc157600080fd5b50606654610841906001600160a01b031681565b348015610fe157600080fd5b5061060460ad5481565b348015610ff757600080fd5b50611000612642565b60405161060e9190615b42565b34801561101957600080fd5b5061060460845481565b34801561102f57600080fd5b5061060461103e3660046155b2565b6127b7565b34801561104f57600080fd5b5061060461105e366004615994565b6127d0565b34801561106f57600080fd5b5061064761107e36600461558b565b60916020526000908152604090205460ff1681565b34801561109f57600080fd5b5061060460ab5481565b3480156110b557600080fd5b5061060460a75481565b3480156110cb57600080fd5b5061068a6110da36600461562d565b612811565b3480156110eb57600080fd5b5061112a6110fa36600461558b565b60a36020526000908152604090205460ff808216916001600160a01b0361010082041691600160a81b9091041683565b60405161060e93929190615bc3565b34801561114557600080fd5b5060ae546106479060ff1681565b34801561115f57600080fd5b5060ac546106479060ff1681565b34801561117957600080fd5b50610df761118836600461562d565b612844565b34801561119957600080fd5b50606b54606c54606f546071546111b09392919084565b60408051948552602085019390935291830152606082015260800161060e565b3480156111dc57600080fd5b506106046111eb36600461558b565b60a56020526000908152604090205481565b34801561120957600080fd5b50610604609b5481565b34801561121f57600080fd5b50606554610841906001600160a01b031681565b34801561123f57600080fd5b5061060460795481565b34801561125557600080fd5b506106046128e5565b34801561126a57600080fd5b50610604611279366004615994565b60946020526000908152604090205481565b34801561129757600080fd5b5061068a6112a6366004615bf6565b6128fd565b3480156112b757600080fd5b5061068a6112c636600461562d565b61297f565b3480156112d757600080fd5b5061060460825481565b3480156112ed57600080fd5b5061060460a95481565b34801561130357600080fd5b50606954610841906001600160a01b031681565b34801561132357600080fd5b5061136361133236600461558b565b60b26020526000908152604090208054600282015460038301546004909301546001600160a01b0390921692909184565b604080516001600160a01b039095168552602085019390935291830152606082015260800161060e565b34801561139957600080fd5b506096546106479060ff1681565b3480156113b357600080fd5b5061060460a25481565b3480156113c957600080fd5b506106046113d8366004615994565b60a06020526000908152604090205481565b61068a6113f836600461566e565b6129f5565b34801561140957600080fd5b5061068a61141836600461562d565b612fa1565b34801561142957600080fd5b5061068a611438366004615c55565b613015565b34801561144957600080fd5b5060965461064790610100900460ff1681565b34801561146857600080fd5b50610604609e5481565b34801561147e57600080fd5b5061068a61148d366004615994565b61305e565b34801561149e57600080fd5b5061060460a85481565b3480156114b457600080fd5b5061060460805481565b3480156114ca57600080fd5b506106046114d936600461558b565b6130fe565b607c81815481106114ee57600080fd5b600091825260209091200154905081565b60965460ff161580156115195750609654610100900460ff165b61153e5760405162461bcd60e51b815260040161153590615c72565b60405180910390fd5b609a548261154a611f58565b6115549190615ca5565b11156115885760405162461bcd60e51b815260206004820152600360248201526245333160e81b6044820152606401611535565b600061159261310e565b90508061159f8484613150565b6115a99190615cbd565b3410156115de5760405162461bcd60e51b815260206004820152600360248201526245333360e81b6044820152606401611535565b34609d60008282546115f09190615ca5565b9091555060009050821561162857606b6003016079548154811061161657611616615cdc565b9060005260206000200154905061164e565b606b6002016079548154811061164057611640615cdc565b906000526020600020015490505b6066546001600160a01b03166323b872dd333061166b8886615cbd565b6040518463ffffffff1660e01b815260040161168993929190615cf2565b602060405180830381600087803b1580156116a357600080fd5b505af11580156116b7573d6000803e3d6000fd5b505050506040513d601f19601f820116820180604052508101906116db9190615d16565b506116ea33858560845461319a565b50505050565b608781815481106114ee57600080fd5b609654610100900460ff166117275760405162461bcd60e51b815260040161153590615c72565b60005b8181101561183e5760655433906001600160a01b0316636352211e85858581811061175757611757615cdc565b905060200201356040518263ffffffff1660e01b815260040161177c91815260200190565b60206040518083038186803b15801561179457600080fd5b505afa1580156117a8573d6000803e3d6000fd5b505050506040513d601f19601f820116820180604052508101906117cc9190615d33565b6001600160a01b0316146118085760405162461bcd60e51b815260206004820152600360248201526245343160e81b6044820152606401611535565b61182c83838381811061181d5761181d615cdc565b90506020020135336000613305565b8061183681615d50565b91505061172a565b505050565b60005b8181101561183e5760006090600085858581811061186657611866615cdc565b6020908102929092013583525081019190915260400160002060655490915033906001600160a01b0316636352211e8686868181106118a7576118a7615cdc565b905060200201356040518263ffffffff1660e01b81526004016118cc91815260200190565b60206040518083038186803b1580156118e457600080fd5b505afa1580156118f8573d6000803e3d6000fd5b505050506040513d601f19601f8201168201806040525081019061191c9190615d33565b6001600160a01b0316148061194157508054630100000090046001600160a01b031633145b6119765760405162461bcd60e51b81526004016115359060208082526004908201526322989b9960e11b604082015260600190565b6000815460ff16600181111561198e5761198e615912565b146119c45760405162461bcd60e51b8152600401611535906020808252600490820152634531373360e01b604082015260600190565b805460bd80549091610100900460ff169081106119e3576119e3615cdc565b600091825260208083209091015433835260bb90915260408220805491929091611a0e908490615ca5565b90915550506065546001600160a01b03166342966c68858585818110611a3657611a36615cdc565b905060200201356040518263ffffffff1660e01b8152600401611a5b91815260200190565b600060405180830381600087803b158015611a7557600080fd5b505af1158015611a89573d6000803e3d6000fd5b50505050508080611a9990615d50565b915050611846565b608c8260048110611ab157600080fd5b018181548110611ac057600080fd5b90600052602060002001600091509150505481565b606a546001600160a01b03163314611aff5760405162461bcd60e51b815260040161153590615d6b565b611b0982826134c4565b5050565b60b781815481106114ee57600080fd5b607881815481106114ee57600080fd5b33611b36611f49565b6001600160a01b031614611b5c5760405162461bcd60e51b815260040161153590615d88565b8051606b908155602080830151606c5560408301518051849392611b8592606d929101906154f0565b5060608201518051611ba19160038401916020909101906154f0565b506080820151600482015560a08201518051611bc79160058401916020909101906154f0565b5060c0820151816006015590505050565b60af81815481106114ee57600080fd5b607b81815481106114ee57600080fd5b60005b8181101561183e57611c24838383818110611c1857611c18615cdc565b905060200201356135c4565b80611c2e81615d50565b915050611bfb565b60b581815481106114ee57600080fd5b60005b8181101561183e57611c5a83613690565b80611c6481615d50565b915050611c49565b33611c75611f49565b6001600160a01b031614611c9b5760405162461bcd60e51b815260040161153590615d88565b8051607255602081015160735560408101516074556060810151607555608081015160765560a00151607755565b808314611d015760405162461bcd60e51b8152600401611535906020808252600490820152634531353160e01b604082015260600190565b60005b83811015611d4057611d2e85848484818110611d2257611d22615cdc565b9050602002013561393b565b80611d3881615d50565b915050611d04565b5050505050565b60b481815481106114ee57600080fd5b60005b8181101561183e57611d83838383818110611d7757611d77615cdc565b90506020020135613d88565b80611d8d81615d50565b915050611d5a565b33611d9e611f49565b6001600160a01b031614611dc45760405162461bcd60e51b815260040161153590615d88565b611dce6000613ea5565b565b608881815481106114ee57600080fd5b33611de9611f49565b6001600160a01b031614611e0f5760405162461bcd60e51b815260040161153590615d88565b60ae5460ff1615611e485760405162461bcd60e51b815260206004820152600360248201526245303360e81b6044820152606401611535565b60ae805460ff191660011790556066546040516340c10f1960e01b81526001600160a01b03909116906340c10f1990611e879030908590600401615dbd565b600060405180830381600087803b158015611ea157600080fd5b505af1158015611d40573d6000803e3d6000fd5b608981815481106114ee57600080fd5b600085815260b26020526040902080546001600160a01b03163314611f155760405162461bcd60e51b8152600401611535906020808252600490820152634531313160e01b604082015260600190565b611f1e86611fcc565b6004820155426002820155611f368686866000613ef7565b611f41868484614105565b505050505050565b6033546001600160a01b031690565b60006001607f54611f699190615dd6565b905090565b33611f77611f49565b6001600160a01b031614611f9d5760405162461bcd60e51b815260040161153590615d88565b611fa9607a878761553b565b50611fb6607b858561553b565b50611fc3607c838361553b565b50505050505050565b600081815260b26020526040812060018101805483916090918391908290611ff657611ff6615cdc565b9060005260206000200154815260200190815260200160002090506000606460b78360000160019054906101000a900460ff1660ff168154811061203c5761203c615cdc565b906000526020600020015484600301546120569190615cbd565b6120609190615e03565b9050808360020154426120739190615dd6565b61207d9190615cbd565b836004015461208c9190615ca5565b95945050505050565b6060816001600160401b038111156120af576120af615690565b6040519080825280602002602001820160405280156120d8578160200160208202803683370190505b50905060005b82811015612136576121078484838181106120fb576120fb615cdc565b90506020020135612434565b82828151811061211957612119615cdc565b60209081029190910101528061212e81615d50565b9150506120de565b5092915050565b60b681815481106114ee57600080fd5b60bd81815481106114ee57600080fd5b80806121945760405162461bcd60e51b8152600401611535906020808252600490820152630453132360e41b604082015260600190565b60b1805490819060006121a683615d50565b9091555050604051819033907fa6df9b8f40e16bf37c6f7f7dca55aaf3900a42a82bf36a2be3a2af68d5953f0e90600090a3600081815260b26020526040812080546001600160a01b03191633178155906090818787828161220a5761220a615cdc565b905060200201358152602001908152602001600020905060018081111561223357612233615912565b815460ff16600181111561224957612249615912565b1461227f5760405162461bcd60e51b8152600401611535906020808252600490820152634531323160e01b604082015260600190565b805460b680549091610100900460ff1690811061229e5761229e615cdc565b90600052602060002001546001856122b69190615dd6565b11156122ed5760405162461bcd60e51b8152600401611535906020808252600490820152632298991960e11b604082015260600190565b816001018686600081811061230457612304615cdc565b8354600181018555600094855260208086209202939093013592019190915550839060b3908888828161233957612339615cdc565b905060200201358152602001908152602001600020819055508585600081811061236557612365615cdc565b90506020020135837f8f128424f32a4d6764618308b84307db75f4151f3580608175283d54326fe5a560405160405180910390a36123a68387876001613ef7565b50426002820155600060049091015550505050565b336123c4611f49565b6001600160a01b0316146123ea5760405162461bcd60e51b815260040161153590615d88565b6801158e460913d0000060be55565b33612402611f49565b6001600160a01b0316146124285760405162461bcd60e51b815260040161153590615d88565b61183e6078838361553b565b60008181526090602052604080822081516101008101909252805483929190829060ff16600181111561246957612469615912565b600181111561247a5761247a615912565b8152815460ff61010082048116602084015262010000820416151560408301526001600160a01b03630100000090910416606082015260018201546080820152600282015460a0820152600382015460c082015260049091015460e09091015290506000815160018111156124f1576124f1615912565b14156126015760a081015160ad5460008581526090602052604090206001015410156125c457607a826020015160ff168154811061253157612531615cdc565b9060005260206000200154609060008681526020019081526020016000206001015460ad546125609190615dd6565b61256a9190615cbd565b6125749082615ca5565b905060af826020015160ff168154811061259057612590615cdc565b906000526020600020015460ad54426125a99190615dd6565b6125b39190615cbd565b6125bd9082615ca5565b90506125fa565b60be546000858152609060205260409020600101546125e39042615dd6565b6125ed9190615cbd565b6125f79082615ca5565b90505b9392505050565b6088816020015160ff168154811061261b5761261b615cdc565b90600052602060002001548160c00151608a546126389190615dd6565b6125fa9190615cbd565b61268a60405180610100016040528060008152602001600081526020016000815260200160008152602001600081526020016060815260200160008152602001606081525090565b604051806101000160405280606b600001548152602001606b600101548152602001606b600201607954815481106126c4576126c4615cdc565b90600052602060002001548152602001606b600301607954815481106126ec576126ec615cdc565b600091825260209182902001548252606f548282015260708054604080518285028101850182528281529401939283018282801561274957602002820191906000526020600020905b815481526020019060010190808311612735575b50505050508152602001606b60060154815260200160b48054806020026020016040519081016040528092919081815260200182805480156127aa57602002820191906000526020600020905b815481526020019060010190808311612796575b5050505050815250905090565b60006127c38383613150565b60a9546125fa9190615cbd565b6001600160a01b038116600090815260bc602090815260408083205460bb90925282205460ba546128019190615ca5565b61280b9190615dd6565b92915050565b609654610100900460ff166128385760405162461bcd60e51b815260040161153590615c72565b61183e828260006142da565b6060816001600160401b0381111561285e5761285e615690565b604051908082528060200260200182016040528015612887578160200160208202803683370190505b50905060005b82811015612136576128b68484838181106128aa576128aa615cdc565b90506020020135611fcc565b8282815181106128c8576128c8615cdc565b6020908102919091010152806128dd81615d50565b91505061288d565b60006128f060775490565b60a954611f699190615cbd565b606a546001600160a01b031633146129275760405162461bcd60e51b815260040161153590615d6b565b8260005b81811015611f415761296d86868381811061294857612948615cdc565b9050602002013585858481811061296157612961615cdc565b905060200201356134c4565b8061297781615d50565b91505061292b565b609654610100900460ff166129a65760405162461bcd60e51b815260040161153590615c72565b6129af336127d0565b8111156129e75760405162461bcd60e51b8152600401611535906020808252600490820152634531363160e01b604082015260600190565b60006116ea838360016142da565b60965460ff16158015612a0f5750609654610100900460ff165b612a2b5760405162461bcd60e51b815260040161153590615c72565b80821415612a615760405162461bcd60e51b815260206004820152600360248201526245383160e81b6044820152606401611535565b6000612a6b61310e565b905080612a7760775490565b612a819190615cbd565b341015612ab65760405162461bcd60e51b815260206004820152600360248201526222999b60e91b6044820152606401611535565b34609d6000828254612ac89190615ca5565b90915550506000838152609060205260408082208483529181902060655491516331a9108f60e11b815260048101879052909133916001600160a01b0390911690636352211e9060240160206040518083038186803b158015612b2a57600080fd5b505afa158015612b3e573d6000803e3d6000fd5b505050506040513d601f19601f82011682018060405250810190612b629190615d33565b6001600160a01b03161480612b995750815462010000900460ff168015612b9957508154630100000090046001600160a01b031633145b612bcb5760405162461bcd60e51b8152602060048201526003602482015262114e0d60ea1b6044820152606401611535565b6065546040516331a9108f60e11b81526004810186905233916001600160a01b031690636352211e9060240160206040518083038186803b158015612c0f57600080fd5b505afa158015612c23573d6000803e3d6000fd5b505050506040513d601f19601f82011682018060405250810190612c479190615d33565b6001600160a01b03161480612c7e5750805462010000900460ff168015612c7e57508054630100000090046001600160a01b031633145b612cb05760405162461bcd60e51b815260206004820152600360248201526245383560e81b6044820152606401611535565b6001825460ff166001811115612cc857612cc8615912565b148015612cea57506001815460ff166001811115612ce857612ce8615912565b145b612d1c5760405162461bcd60e51b8152602060048201526003602482015262229c1960e91b6044820152606401611535565b8154610100900460ff16158015612d3a57508054610100900460ff16155b612d6c5760405162461bcd60e51b815260206004820152600360248201526245383360e81b6044820152606401611535565b815460009062010000900460ff16151560011415612dd1576000612d8f87612434565b9050612d9b8183615ca5565b608a54600386015560a2546040518381529193508891339190600080516020615eaf8339815191529060200160405180910390a4505b815462010000900460ff16151560011415612e3c576000612df186612434565b9050612dfd8183615ca5565b608a54600385015560a2546040518381529193508791339190600080516020615eaf8339815191529060200160405180910390a4612e3a8661463a565b505b607154811015612ee3576066546071546001600160a01b03909116906323b872dd9033903090612e6d908690615dd6565b6040518463ffffffff1660e01b8152600401612e8b93929190615cf2565b602060405180830381600087803b158015612ea557600080fd5b505af1158015612eb9573d6000803e3d6000fd5b505050506040513d601f19601f82011682018060405250810190612edd9190615d16565b50612efb565b607154612efb903390612ef69084615dd6565b6148c1565b612f0486614921565b606554604051630852cd8d60e31b8152600481018790526001600160a01b03909116906342966c6890602401600060405180830381600087803b158015612f4a57600080fd5b505af1158015612f5e573d6000803e3d6000fd5b50506040518881528792503391507f7fbc09d28fa0377bea9dd7bc3289ca8cf2ed47c19c59b30347c08925c18e82d79060200160405180910390a3505050505050565b60965460ff16158015612fbb5750609654610100900460ff165b612fd75760405162461bcd60e51b815260040161153590615c72565b60005b8181101561183e57613003838383818110612ff757612ff7615cdc565b905060200201356149d2565b8061300d81615d50565b915050612fda565b3361301e611f49565b6001600160a01b0316146130445760405162461bcd60e51b815260040161153590615d88565b609680549115156101000261ff0019909216919091179055565b33613067611f49565b6001600160a01b03161461308d5760405162461bcd60e51b815260040161153590615d88565b6001600160a01b0381166130f25760405162461bcd60e51b815260206004820152602660248201527f4f776e61626c653a206e6577206f776e657220697320746865207a65726f206160448201526564647265737360d01b6064820152608401611535565b6130fb81613ea5565b50565b607a81815481106114ee57600080fd5b600060aa5460ab54426131219190615dd6565b11156131365760a9805460a8554890554260ab555b60a95460a8541015613149575060a85490565b5060a95490565b60008161315e576000613176565b60745461316c600185615dd6565b6131769190615cbd565b6073546131839085615cbd565b6072546131909190615ca5565b6125fa9190615ca5565b600081156131b4576131ad846002615cbd565b90506131b7565b50825b60006131c1614b60565b6040805160608101825260008082526001600160a01b038a16602080840191909152600183850181905285835260a39091529290208151815494955091939092839160ff19169083600281111561321a5761321a615912565b021790555060208281015182546040948501511515600160a81b0260ff60a81b196001600160a01b039093166101000292909216610100600160b01b031990911617179091558151608081018352607f5463ffffffff908116825260ff8981168385019081528882168487019081528a151560608601908152600089815260a490975296909520935184549151955196511515600160301b0260ff60301b19978416600160281b029790971666ffff00000000001996909316600160201b0264ffffffffff19909216931692909217919091179290921691909117919091179055611fc33086614bc4565b60008381526090602052604090208161337f576065546040516323b872dd60e01b81526001600160a01b03909116906323b872dd9061334c90869030908990600401615cf2565b600060405180830381600087803b15801561336657600080fd5b505af115801561337a573d6000803e3d6000fd5b505050505b80546001600160a01b03841663010000000262010000600160b81b031990911617620100001781554260018281019190915560006002830155815460ff1660018111156133ce576133ce615912565b1415613488578054608880549091610100900460ff169081106133f3576133f3615cdc565b9060005260206000200154608b600082825461340f9190615ca5565b9091555050608a5460038201558054610100900460ff1615613488578054608c90610100900460ff166004811061344857613448615cdc565b01546004828101919091558154608c9161010090910460ff1690811061347057613470615cdc565b01805460018101825560009182526020909120018490555b6040516001600160a01b0384169085907f5b53344e2b3d15f33a2ab59e3c199c7bbcb08f5ce03bf0a25c14f978647299a790600090a350505050565b817fa1400508f229eaea44d95e98b6da371661f6e873726585abd7efdbdc60716976826040516134f691815260200190565b60405180910390a2600082815260a3602052604090208054600160a81b900460ff1661352157505050565b805460ff60a81b191681556000815460ff16600281111561354457613544615912565b141561356557805461183e9061010090046001600160a01b03168484614d2c565b6002815460ff16600281111561357d5761357d615912565b141561358d5761183e8383614f05565b6001815460ff1660028111156135a5576135a5615912565b141561183e57805461183e9061010090046001600160a01b0316848483565b600081815260b26020526040902080546001600160a01b031633146136145760405162461bcd60e51b8152600401611535906020808252600490820152634531333160e01b604082015260600190565b600061361f83611fcc565b9050606460b854826136319190615cbd565b61363b9190615e03565b42600284015560006004840155905061365433826148c1565b604051818152839033907fb411b44bd5c76eb08732ef9d1c023d5ef94e6c9b292801e07bcae2af5e4a860b9060200160405180910390a3505050565b60965460ff161580156136aa5750609654610100900460ff165b6136c65760405162461bcd60e51b815260040161153590615c72565b6000818152609060205260409081902060655491516331a9108f60e11b815260048101849052909133916001600160a01b0390911690636352211e9060240160206040518083038186803b15801561371d57600080fd5b505afa158015613731573d6000803e3d6000fd5b505050506040513d601f19601f820116820180604052508101906137559190615d33565b6001600160a01b0316148061377a57508054630100000090046001600160a01b031633145b6137ac5760405162461bcd60e51b8152602060048201526003602482015262229b9960e91b6044820152606401611535565b6000815460ff1660018111156137c4576137c4615912565b1480156137db57508054600661010090910460ff16105b61380d5760405162461bcd60e51b815260206004820152600360248201526245373160e81b6044820152606401611535565b805462010000900460ff16156138325761382682612434565b60028201554260018201555b6067548154607080546001600160a01b03909316926323b872dd92339230929091610100900460ff1690811061386a5761386a615cdc565b90600052602060002001546040518463ffffffff1660e01b815260040161389393929190615cf2565b600060405180830381600087803b1580156138ad57600080fd5b505af11580156138c1573d6000803e3d6000fd5b50508254610100900460ff16915082905060016138dd83615e17565b825460ff91821661010093840a90810290830219909116179092558354604051919004909116815283915033907f2ef0b9f6641bfe4ae9f94f2b9b20ece8b29e13b163e6425c14ff8f520e79412e9060200160405180910390a35050565b609654610100900460ff166139625760405162461bcd60e51b815260040161153590615c72565b6000828152609060205260408082208383529181902060655491516331a9108f60e11b815260048101869052909133916001600160a01b0390911690636352211e9060240160206040518083038186803b1580156139bf57600080fd5b505afa1580156139d3573d6000803e3d6000fd5b505050506040513d601f19601f820116820180604052508101906139f79190615d33565b6001600160a01b03161480613a1c57508154630100000090046001600160a01b031633145b613a515760405162461bcd60e51b8152600401611535906020808252600490820152634537323160e01b604082015260600190565b6065546040516331a9108f60e11b81526004810185905233916001600160a01b031690636352211e9060240160206040518083038186803b158015613a9557600080fd5b505afa158015613aa9573d6000803e3d6000fd5b505050506040513d601f19601f82011682018060405250810190613acd9190615d33565b6001600160a01b03161480613af257508054630100000090046001600160a01b031633145b613b275760405162461bcd60e51b815260040161153590602080825260049082015263229b991960e11b604082015260600190565b6000825460ff166001811115613b3f57613b3f615912565b148015613b5657508154600661010090910460ff16105b613b8b5760405162461bcd60e51b8152600401611535906020808252600490820152634537313160e01b604082015260600190565b6000815460ff166001811115613ba357613ba3615912565b14613bd95760405162461bcd60e51b815260040161153590602080825260049082015263229b989960e11b604082015260600190565b606654825460b480546001600160a01b03909316926323b872dd92339230929091610100900460ff16908110613c1157613c11615cdc565b90600052602060002001546040518463ffffffff1660e01b8152600401613c3a93929190615cf2565b602060405180830381600087803b158015613c5457600080fd5b505af1158015613c68573d6000803e3d6000fd5b505050506040513d601f19601f82011682018060405250810190613c8c9190615d16565b50606554604051630852cd8d60e31b8152600481018590526001600160a01b03909116906342966c6890602401600060405180830381600087803b158015613cd357600080fd5b505af1158015613ce7573d6000803e3d6000fd5b5050835462010000900460ff16159150613d12905057613d0684612434565b60028301554260018301555b8154610100900460ff16826001613d2883615e17565b825460ff91821661010093840a90810290830219909116179092558454604051919004909116815285915033907f2ef0b9f6641bfe4ae9f94f2b9b20ece8b29e13b163e6425c14ff8f520e79412e9060200160405180910390a350505050565b600081815260b26020526040902080546001600160a01b03163314613dd85760405162461bcd60e51b8152600401611535906020808252600490820152632298999960e11b604082015260600190565b613de1826135c4565b60005b6001820154811015613e75578260b36000846001018481548110613e0a57613e0a615cdc565b90600052602060002001548152602001908152602001600020541415613e6357600060b36000846001018481548110613e4557613e45615cdc565b90600052602060002001548152602001908152602001600020819055505b80613e6d81615d50565b915050613de4565b5060405182907f09698112a550dd9c01c2bd871ca714f89914920cedcfeb00905d4de747159a3390600090a25050565b603380546001600160a01b038381166001600160a01b0319831681179093556040519116919082907f8be0079c531659141344cd1fd0a4f28419497f9722a3daafe3b4186f6b6457e090600090a35050565b600084815260b260205260409020815b83811015611f4157600060906000878785818110613f2757613f27615cdc565b905060200201358152602001908152602001600020905060006001811115613f5157613f51615912565b815460ff166001811115613f6757613f67615912565b14613f9d5760405162461bcd60e51b8152600401611535906020808252600490820152634531333360e01b604082015260600190565b60b36000878785818110613fb357613fb3615cdc565b905060200201358152602001908152602001600020546000146140015760405162461bcd60e51b815260040161153590602080825260049082015263114c4ccd60e21b604082015260600190565b8260010186868481811061401757614017615cdc565b83546001810185556000948552602094859020919094029290920135919092015550805460b580549091610100900460ff1690811061405857614058615cdc565b90600052602060002001548360030160008282546140769190615ca5565b9091555087905060b3600088888681811061409357614093615cdc565b905060200201358152602001908152602001600020819055508585838181106140be576140be615cdc565b90506020020135877f8f128424f32a4d6764618308b84307db75f4151f3580608175283d54326fe5a560405160405180910390a350806140fd81615d50565b915050613f07565b600083815260b260205260408120905b82811015611d405760006090600086868581811061413557614135615cdc565b90506020020135815260200190815260200160002090506000600181111561415f5761415f615912565b815460ff16600181111561417557614175615912565b146141ab5760405162461bcd60e51b8152600401611535906020808252600490820152634531343360e01b604082015260600190565b8560b360008787868181106141c2576141c2615cdc565b905060200201358152602001908152602001600020541461420e5760405162461bcd60e51b815260040161153590602080825260049082015263114c4d0d60e21b604082015260600190565b805460b580549091610100900460ff1690811061422d5761422d615cdc565b906000526020600020015483600301600082825461424b9190615dd6565b909155506000905060b38187878681811061426857614268615cdc565b9050602002013581526020019081526020016000208190555084848381811061429357614293615cdc565b90506020020135867fbf29afa7b80118742f9b6f15e4a2f6ae38b0dc246732b5b2bdde209326c7dfca60405160405180910390a350806142d281615d50565b915050614115565b60008080808085156142ef575060a2546142f4565b5060a7545b600081815260a560205260408120905b888110156145d1576000609060008c8c8581811061432457614324615cdc565b90506020020135815260200190815260200160002090508060000160029054906101000a900460ff1615156001151514801561437057508054630100000090046001600160a01b031633145b6143a25760405162461bcd60e51b815260206004820152600360248201526245393160e81b6044820152606401611535565b60006143b98c8c858181106120fb576120fb615cdc565b90506000825460ff1660018111156143d3576143d3615912565b141561452f5760006064607d54836143eb9190615cbd565b6143f59190615e03565b90506144018183615dd6565b61440b908a615ca5565b98506144178188615ca5565b42600185015596508a156144e1578254607b80549091610100900460ff1690811061444457614444615cdc565b90600052602060002001548210156144845760405162461bcd60e51b8152602060048201526003602482015262229c9960e91b6044820152606401611535565b846001018d8d8681811061449a5761449a615cdc565b83546001810185556000948552602094859020919094029290920135919092015550600285016144ca8284615dd6565b815460018101835560009283526020909220909101555b8c8c858181106144f3576144f3615cdc565b602002919091013590503387600080516020615eaf8339815191526145188587615dd6565b60405190815260200160405180910390a45061458f565b6145398188615ca5565b608a54600384015596508b8b8481811061455557614555615cdc565b90506020020135336001600160a01b031686600080516020615eaf8339815191528460405161458691815260200190565b60405180910390a45b89156145b6576145b68c8c858181106145aa576145aa615cdc565b9050602002013561463a565b506000600290910155806145c981615d50565b915050614304565b506145e033612ef68787615ca5565b821561462a576145ef8361506b565b817fa82e56087acdb4c45b596e06c5ef2d1e974654985bfd4300ebad87555eec136e8460405161462191815260200190565b60405180910390a25b6001015498975050505050505050565b6000818152609060205260409020805462010000600160b81b031981168255630100000090046001600160a01b03166001825460ff16600181111561468157614681615912565b14156147e8578154608880549091610100900460ff169081106146a6576146a6615cdc565b9060005260206000200154608b60008282546146c29190615dd6565b90915550508154610100900460ff16156147e3578154600090608c90610100900460ff16600481106146f6576146f6615cdc565b8454910190600190608c90610100900460ff166004811061471957614719615cdc565b01546147259190615dd6565b8154811061473557614735615cdc565b60009182526020909120015483549091508190608c90610100900460ff166004811061476357614763615cdc565b0184600401548154811061477957614779615cdc565b6000918252602090912001558254608c90610100900460ff16600481106147a2576147a2615cdc565b018054806147b2576147b2615e37565b6000828152602080822083016000199081018390559092019092556004808601549383526090909152604090912001555b614817565b6001600160a01b038116600090815260bc60205260408120805460019290614811908490615ca5565b90915550505b60006004808401919091556065546040516323b872dd60e01b81526001600160a01b03909116916323b872dd916148549130918691899101615cf2565b600060405180830381600087803b15801561486e57600080fd5b505af1158015614882573d6000803e3d6000fd5b50506040516001600160a01b03841692508591507f3a01954f64bfeed1c903bc3920f7a5639288ea25efc7a539195648519e4184a390600090a3505050565b6066546040516340c10f1960e01b815282916001600160a01b0316906340c10f19906148f39086908590600401615dbd565b600060405180830381600087803b15801561490d57600080fd5b505af1158015611fc3573d6000803e3d6000fd5b600061492b614b60565b604080516060810182526002808252336020808401919091526001838501819052600086815260a39092529390208251815495965092949093849260ff1990921691849081111561497e5761497e615912565b021790555060208281015182546040948501511515600160a81b0260ff60a81b196001600160a01b039093166101000292909216610100600160b01b03199091161717909155600092835260a69052902055565b621e8c51811015614a0b5760405162461bcd60e51b815260206004820152600360248201526245313160e81b6044820152606401611535565b60008181526091602052604090205460ff1615614a505760405162461bcd60e51b815260206004820152600360248201526222989960e91b6044820152606401611535565b6068546040516331a9108f60e11b81526004810183905233916001600160a01b031690636352211e9060240160206040518083038186803b158015614a9457600080fd5b505afa158015614aa8573d6000803e3d6000fd5b505050506040513d601f19601f82011682018060405250810190614acc9190615d33565b6001600160a01b031614614b085760405162461bcd60e51b815260206004820152600360248201526245313360e81b6044820152606401611535565b6000818152609160205260408120805460ff19166001179055614b2a336150a3565b6040519091508190839033907f584ea1a98d504e99c0dd0ca5ace55f5458d725e7e20a1ebb2e5e5af38434397190600090a45050565b600060a2547f315444e506fb06e32d43fe2cf48f37218994285028f458255be4a56810b66b8d60a254604051614b9891815260200190565b60405180910390a260a28054906000614bb083615d50565b9190505550600160a254611f699190615dd6565b607f8054600091839083614bd88385615ca5565b92505081905550607860795481548110614bf457614bf4615cdc565b9060005260206000200154607f5410614c1d5760798054906000614c1783615d50565b91905055505b6065546040516322ce52b560e21b81526001600160a01b038681166004830152602482018490526044820186905290911690638b394ad490606401600060405180830381600087803b158015614c7257600080fd5b505af1158015614c86573d6000803e3d6000fd5b5050505060005b83811015614ce057600160906000614ca58486615ca5565b81526020810191909152604001600020805460ff929092166101000261ff001990921691909117905580614cd881615d50565b915050614c8d565b5060408051828152602081018590526001600160a01b038616917f8b7c923d3e09b520f101439fe55b1b1ea3b1fcdfcb88afe6aed96873d341e1aa910160405180910390a29392505050565b600082815260a460205260408120805463ffffffff165b8154614d5f9060ff600160201b8204169063ffffffff16615e4d565b63ffffffff16811015611f41576000818152609060205260409020614d838561517d565b608654909650909450841015614dcf57805461ffff1916600117815560405182907fe745cd12d6f4eb3c23b4aeb859314255073bdc0805d89f7622090698abf484b290600090a2614e06565b60405182906001600160a01b038916907f17168db4d4772024cf56ab2222c1d7888481238be6bc32c3d7a8726a9483bab290600090a35b8254600090600160281b900460ff1615614e6257614e238661517d565b8554909750909550600160281b900460ff16851015614e62576000614e466151c4565b90508015614e6057614e59848289615234565b9650600191505b505b80614ef0578354600160301b900460ff1615614e8957614e8483896001613305565b614ef0565b6065546040516323b872dd60e01b81526001600160a01b03909116906323b872dd90614ebd9030908c908890600401615cf2565b600060405180830381600087803b158015614ed757600080fd5b505af1158015614eeb573d6000803e3d6000fd5b505050505b50508080614efd90615d50565b915050614d43565b600082815260a66020908152604080832054808452609090925282209091614f2c8461517d565b94509050614f3981615336565b825461ff00191661010060ff928316021780845562010000900416151560011415615025576088600081548110614f7257614f72615cdc565b6000918252602090912001548254608880549091610100900460ff16908110614f9d57614f9d615cdc565b9060005260206000200154614fb29190615dd6565b608b6000828254614fc39190615ca5565b90915550508154608c90610100900460ff1660048110614fe557614fe5615cdc565b01546004838101919091558254608c9161010090910460ff1690811061500d5761500d615cdc565b01805460018101825560009182526020909120018390555b815460405161010090910460ff16815283907fe15c536009c86cf1fa16027c6ee4538c2bcce2bdcd80dd17fec4ea96182ef04c9060200160405180910390a25050505050565b61507530826148c1565b608b54156130fb57608b5461508a9082615e03565b608a600082825461509b9190615ca5565b909155505050565b607f80546000918190836150b683615d50565b91905055506078607954815481106150d0576150d0615cdc565b9060005260206000200154607f54106150f957607980549060006150f383615d50565b91905055505b6065546040516340c10f1960e01b81526001600160a01b03909116906340c10f199061512b9086908590600401615dbd565b600060405180830381600087803b15801561514557600080fd5b505af1158015615159573d6000803e3d6000fd5b5050506000828152609060205260409020805461ffff191660011790555092915050565b600080621000008310156151b3576040805160208101859052016040516020818303038152906040528051906020012060001c92505b50506103ff811691600a9190911c90565b60008060015b6003811161522e57608c81600481106151e5576151e5615cdc565b015460898054839081106151fb576151fb615cdc565b90600052602060002001546152109190615cbd565b61521a9083615ca5565b91508061522681615d50565b9150506151ca565b50919050565b60008061524384846019615394565b935090506000615252826153f2565b606554600082815260906020526040908190205490516323b872dd60e01b81529293506001600160a01b03918216926323b872dd926152a39230926301000000909104909116908b90600401615cf2565b600060405180830381600087803b1580156152bd57600080fd5b505af11580156152d1573d6000803e3d6000fd5b50505060008281526090602090815260409182902054915184815263010000009092046001600160a01b0316925088917f9055cdd665fdee53683ce213caee079a0b8a929160ad57c0b83ca49f032dfafc910160405180910390a35091949350505050565b6000805b60038160ff16101561538b5760878160ff168154811061535c5761535c615cdc565b9060005260206000200154831015615379576125fa816001615e75565b8061538381615e17565b91505061533a565b50600092915050565b6000806001831b808510156153cb576040805160208101879052016040516020818303038152906040528051906020012060001c94505b6000866153d9600184615dd6565b87166153e59190615e9a565b979590941c955050505050565b60008060015b600381116154e6576000608c826004811061541557615415615cdc565b0154608980548490811061542b5761542b615cdc565b90600052602060002001546154409190615cbd565b905061544c8184615ca5565b8510156154c65760006089838154811061546857615468615cdc565b9060005260206000200154848761547f9190615dd6565b6154899190615e03565b9050608c836004811061549e5761549e615cdc565b0181815481106154b0576154b0615cdc565b9060005260206000200154945050505050919050565b6154d08184615ca5565b92505080806154de90615d50565b9150506153f8565b5060009392505050565b82805482825590600052602060002090810192821561552b579160200282015b8281111561552b578251825591602001919060010190615510565b50615537929150615576565b5090565b82805482825590600052602060002090810192821561552b579160200282015b8281111561552b57823582559160200191906001019061555b565b5b808211156155375760008155600101615577565b60006020828403121561559d57600080fd5b5035919050565b80151581146130fb57600080fd5b600080604083850312156155c557600080fd5b8235915060208301356155d7816155a4565b809150509250929050565b60008083601f8401126155f457600080fd5b5081356001600160401b0381111561560b57600080fd5b6020830191508360208260051b850101111561562657600080fd5b9250929050565b6000806020838503121561564057600080fd5b82356001600160401b0381111561565657600080fd5b615662858286016155e2565b90969095509350505050565b6000806040838503121561568157600080fd5b50508035926020909101359150565b634e487b7160e01b600052604160045260246000fd5b60405160e081016001600160401b03811182821017156156c8576156c8615690565b60405290565b600082601f8301126156df57600080fd5b813560206001600160401b03808311156156fb576156fb615690565b8260051b604051601f19603f8301168101818110848211171561572057615720615690565b60405293845285810183019383810192508785111561573e57600080fd5b83870191505b8482101561575d57813583529183019190830190615744565b979650505050505050565b60006020828403121561577a57600080fd5b81356001600160401b038082111561579157600080fd5b9083019060e082860312156157a557600080fd5b6157ad6156a6565b82358152602083013560208201526040830135828111156157cd57600080fd5b6157d9878286016156ce565b6040830152506060830135828111156157f157600080fd5b6157fd878286016156ce565b6060830152506080830135608082015260a08301358281111561581f57600080fd5b61582b878286016156ce565b60a08301525060c083013560c082015280935050505092915050565b600060c0828403121561585957600080fd5b60405160c081018181106001600160401b038211171561587b5761587b615690565b8060405250823581526020830135602082015260408301356040820152606083013560608201526080830135608082015260a083013560a08201528091505092915050565b600080600080606085870312156158d657600080fd5b843593506020850135925060408501356001600160401b038111156158fa57600080fd5b615906878288016155e2565b95989497509550505050565b634e487b7160e01b600052602160045260246000fd5b610100810160028a1061593d5761593d615912565b98815260ff97909716602088015294151560408701526001600160a01b03939093166060860152608085019190915260a084015260c083015260e09091015290565b6001600160a01b03811681146130fb57600080fd5b6000602082840312156159a657600080fd5b81356125fa8161597f565b6000806000806000606086880312156159c957600080fd5b8535945060208601356001600160401b03808211156159e757600080fd5b6159f389838a016155e2565b90965094506040880135915080821115615a0c57600080fd5b50615a19888289016155e2565b969995985093965092949392505050565b60008060008060008060608789031215615a4357600080fd5b86356001600160401b0380821115615a5a57600080fd5b615a668a838b016155e2565b90985096506020890135915080821115615a7f57600080fd5b615a8b8a838b016155e2565b90965094506040890135915080821115615aa457600080fd5b50615ab189828a016155e2565b979a9699509497509295939492505050565b6020808252825182820181905260009190848201906040850190845b81811015615afb57835183529284019291840191600101615adf565b50909695505050505050565b600081518084526020808501945080840160005b83811015615b3757815187529582019590820190600101615b1b565b509495945050505050565b6020815281516020820152602082015160408201526040820151606082015260608201516080820152608082015160a0820152600060a08301516101008060c0850152615b93610120850183615b07565b915060c085015160e085015260e0850151601f198584030182860152615bb98382615b07565b9695505050505050565b6060810160038510615bd757615bd7615912565b9381526001600160a01b03929092166020830152151560409091015290565b60008060008060408587031215615c0c57600080fd5b84356001600160401b0380821115615c2357600080fd5b615c2f888389016155e2565b90965094506020870135915080821115615c4857600080fd5b50615906878288016155e2565b600060208284031215615c6757600080fd5b81356125fa816155a4565b60208082526003908201526245303160e81b604082015260600190565b634e487b7160e01b600052601160045260246000fd5b60008219821115615cb857615cb8615c8f565b500190565b6000816000190483118215151615615cd757615cd7615c8f565b500290565b634e487b7160e01b600052603260045260246000fd5b6001600160a01b039384168152919092166020820152604081019190915260600190565b600060208284031215615d2857600080fd5b81516125fa816155a4565b600060208284031215615d4557600080fd5b81516125fa8161597f565b6000600019821415615d6457615d64615c8f565b5060010190565b60208082526003908201526204536360ec1b604082015260600190565b6020808252818101527f4f776e61626c653a2063616c6c6572206973206e6f7420746865206f776e6572604082015260600190565b6001600160a01b03929092168252602082015260400190565b600082821015615de857615de8615c8f565b500390565b634e487b7160e01b600052601260045260246000fd5b600082615e1257615e12615ded565b500490565b600060ff821660ff811415615e2e57615e2e615c8f565b60010192915050565b634e487b7160e01b600052603160045260246000fd5b600063ffffffff808316818516808303821115615e6c57615e6c615c8f565b01949350505050565b600060ff821660ff84168060ff03821115615e9257615e92615c8f565b019392505050565b600082615ea957615ea9615ded565b50069056fe40e6a337f1a78915df745fd02b2ca082e64e8a780a99b8fbb355f64409b399cca2646970667358221220d8cc83c489ee023be49cf907cba786da363c1c1aeed8ff076feda74b8083e6cc64736f6c63430008090033",
    "linkReferences": {},
    "deployedLinkReferences": {}
}