{
    "_format": "hh-sol-artifact-1",
    "contractName": "MekaApesGame_1",
    "sourceName": "contracts/MekaApesGame_1.sol",
    "abi": [
        {
            "anonymous": false,
            "inputs": [
                {
                    "indexed": true,
                    "internalType": "uint256",
                    "name": "crewId",
                    "type": "uint256"
                },
                {
                    "indexed": true,
                    "internalType": "uint256",
                    "name": "tokenIds",
                    "type": "uint256"
                }
            ],
            "name": "AddToCrew",
            "type": "event"
        },
        {
            "anonymous": false,
            "inputs": [
                {
                    "indexed": true,
                    "internalType": "address",
                    "name": "user",
                    "type": "address"
                },
                {
                    "indexed": true,
                    "internalType": "uint256",
                    "name": "burnOogaId",
                    "type": "uint256"
                },
                {
                    "indexed": false,
                    "internalType": "uint256",
                    "name": "addedCredits",
                    "type": "uint256"
                }
            ],
            "name": "AddUnstakeCredits",
            "type": "event"
        },
        {
            "anonymous": false,
            "inputs": [
                {
                    "indexed": true,
                    "internalType": "uint256",
                    "name": "claimId",
                    "type": "uint256"
                },
                {
                    "indexed": true,
                    "internalType": "uint256",
                    "name": "tokenId",
                    "type": "uint256"
                },
                {
                    "indexed": false,
                    "internalType": "uint256",
                    "name": "amount",
                    "type": "uint256"
                }
            ],
            "name": "AttackReward",
            "type": "event"
        },
        {
            "anonymous": false,
            "inputs": [
                {
                    "indexed": true,
                    "internalType": "address",
                    "name": "account",
                    "type": "address"
                },
                {
                    "indexed": true,
                    "internalType": "uint256",
                    "name": "oogaId",
                    "type": "uint256"
                },
                {
                    "indexed": true,
                    "internalType": "uint256",
                    "name": "newTokenId",
                    "type": "uint256"
                }
            ],
            "name": "BabyOogaEvolve",
            "type": "event"
        },
        {
            "anonymous": false,
            "inputs": [
                {
                    "indexed": true,
                    "internalType": "uint256",
                    "name": "tokenId",
                    "type": "uint256"
                },
                {
                    "indexed": true,
                    "internalType": "address",
                    "name": "account",
                    "type": "address"
                }
            ],
            "name": "ChangeStaker",
            "type": "event"
        },
        {
            "anonymous": false,
            "inputs": [
                {
                    "indexed": true,
                    "internalType": "address",
                    "name": "account",
                    "type": "address"
                },
                {
                    "indexed": true,
                    "internalType": "uint256",
                    "name": "crewId",
                    "type": "uint256"
                },
                {
                    "indexed": false,
                    "internalType": "uint256",
                    "name": "amount",
                    "type": "uint256"
                }
            ],
            "name": "ClaimCrewReward",
            "type": "event"
        },
        {
            "anonymous": false,
            "inputs": [
                {
                    "indexed": true,
                    "internalType": "uint256",
                    "name": "claimId",
                    "type": "uint256"
                },
                {
                    "indexed": true,
                    "internalType": "address",
                    "name": "account",
                    "type": "address"
                },
                {
                    "indexed": true,
                    "internalType": "uint256",
                    "name": "tokenId",
                    "type": "uint256"
                },
                {
                    "indexed": false,
                    "internalType": "uint256",
                    "name": "amount",
                    "type": "uint256"
                }
            ],
            "name": "ClaimReward",
            "type": "event"
        },
        {
            "anonymous": false,
            "inputs": [
                {
                    "indexed": true,
                    "internalType": "address",
                    "name": "user",
                    "type": "address"
                },
                {
                    "indexed": false,
                    "internalType": "uint256",
                    "name": "reward",
                    "type": "uint256"
                }
            ],
            "name": "LeaderbordRewardClaim",
            "type": "event"
        },
        {
            "anonymous": false,
            "inputs": [
                {
                    "indexed": true,
                    "internalType": "address",
                    "name": "account",
                    "type": "address"
                },
                {
                    "indexed": true,
                    "internalType": "uint256",
                    "name": "oogaId",
                    "type": "uint256"
                },
                {
                    "indexed": true,
                    "internalType": "uint256",
                    "name": "newLevel",
                    "type": "uint256"
                }
            ],
            "name": "LevelUpRoboOoga",
            "type": "event"
        },
        {
            "anonymous": false,
            "inputs": [
                {
                    "indexed": true,
                    "internalType": "address",
                    "name": "account",
                    "type": "address"
                },
                {
                    "indexed": true,
                    "internalType": "uint256",
                    "name": "crewId",
                    "type": "uint256"
                }
            ],
            "name": "MakeCrew",
            "type": "event"
        },
        {
            "anonymous": false,
            "inputs": [
                {
                    "indexed": true,
                    "internalType": "uint256",
                    "name": "tokenId",
                    "type": "uint256"
                },
                {
                    "indexed": true,
                    "internalType": "uint256",
                    "name": "megaLevel",
                    "type": "uint256"
                }
            ],
            "name": "MegaMerged",
            "type": "event"
        },
        {
            "anonymous": false,
            "inputs": [
                {
                    "indexed": true,
                    "internalType": "uint256",
                    "name": "tokenId",
                    "type": "uint256"
                }
            ],
            "name": "MekaConvert",
            "type": "event"
        },
        {
            "anonymous": false,
            "inputs": [
                {
                    "indexed": true,
                    "internalType": "address",
                    "name": "account",
                    "type": "address"
                },
                {
                    "indexed": true,
                    "internalType": "uint256",
                    "name": "oogaIdSave",
                    "type": "uint256"
                },
                {
                    "indexed": true,
                    "internalType": "uint256",
                    "name": "oogaIdBurn",
                    "type": "uint256"
                }
            ],
            "name": "MergeMekaApes",
            "type": "event"
        },
        {
            "anonymous": false,
            "inputs": [
                {
                    "indexed": true,
                    "internalType": "address",
                    "name": "account",
                    "type": "address"
                },
                {
                    "indexed": true,
                    "internalType": "uint256",
                    "name": "startFromTokenId",
                    "type": "uint256"
                },
                {
                    "indexed": true,
                    "internalType": "uint256",
                    "name": "amount",
                    "type": "uint256"
                }
            ],
            "name": "MintMultipleRobo",
            "type": "event"
        },
        {
            "anonymous": false,
            "inputs": [
                {
                    "indexed": true,
                    "internalType": "uint256",
                    "name": "oogaId",
                    "type": "uint256"
                },
                {
                    "indexed": true,
                    "internalType": "address",
                    "name": "tributeAccount",
                    "type": "address"
                },
                {
                    "indexed": true,
                    "internalType": "uint256",
                    "name": "tributeOogaId",
                    "type": "uint256"
                }
            ],
            "name": "OogaAttacked",
            "type": "event"
        },
        {
            "anonymous": false,
            "inputs": [
                {
                    "indexed": true,
                    "internalType": "address",
                    "name": "previousOwner",
                    "type": "address"
                },
                {
                    "indexed": true,
                    "internalType": "address",
                    "name": "newOwner",
                    "type": "address"
                }
            ],
            "name": "OwnershipTransferred",
            "type": "event"
        },
        {
            "anonymous": false,
            "inputs": [
                {
                    "indexed": true,
                    "internalType": "uint256",
                    "name": "requestId",
                    "type": "uint256"
                },
                {
                    "indexed": false,
                    "internalType": "uint256",
                    "name": "entropy",
                    "type": "uint256"
                }
            ],
            "name": "ReceiveRandoms",
            "type": "event"
        },
        {
            "anonymous": false,
            "inputs": [
                {
                    "indexed": true,
                    "internalType": "uint256",
                    "name": "crewId",
                    "type": "uint256"
                }
            ],
            "name": "RemoveCrew",
            "type": "event"
        },
        {
            "anonymous": false,
            "inputs": [
                {
                    "indexed": true,
                    "internalType": "uint256",
                    "name": "crewId",
                    "type": "uint256"
                },
                {
                    "indexed": true,
                    "internalType": "uint256",
                    "name": "tokenIds",
                    "type": "uint256"
                }
            ],
            "name": "RemoveFromCrew",
            "type": "event"
        },
        {
            "anonymous": false,
            "inputs": [
                {
                    "indexed": true,
                    "internalType": "uint256",
                    "name": "requestId",
                    "type": "uint256"
                },
                {
                    "indexed": false,
                    "internalType": "uint256",
                    "name": "requestSeed",
                    "type": "uint256"
                }
            ],
            "name": "RequestRandoms",
            "type": "event"
        },
        {
            "anonymous": false,
            "inputs": [
                {
                    "indexed": true,
                    "internalType": "address",
                    "name": "account",
                    "type": "address"
                },
                {
                    "indexed": true,
                    "internalType": "uint256",
                    "name": "tokenId",
                    "type": "uint256"
                }
            ],
            "name": "RoboMint",
            "type": "event"
        },
        {
            "anonymous": false,
            "inputs": [
                {
                    "indexed": true,
                    "internalType": "uint256",
                    "name": "oogaId",
                    "type": "uint256"
                },
                {
                    "indexed": true,
                    "internalType": "address",
                    "name": "account",
                    "type": "address"
                }
            ],
            "name": "StakeOoga",
            "type": "event"
        },
        {
            "anonymous": false,
            "inputs": [
                {
                    "indexed": true,
                    "internalType": "uint256",
                    "name": "claimId",
                    "type": "uint256"
                },
                {
                    "indexed": false,
                    "internalType": "uint256",
                    "name": "totalTax",
                    "type": "uint256"
                }
            ],
            "name": "TaxReward",
            "type": "event"
        },
        {
            "anonymous": false,
            "inputs": [
                {
                    "indexed": true,
                    "internalType": "uint256",
                    "name": "oogaId",
                    "type": "uint256"
                },
                {
                    "indexed": true,
                    "internalType": "address",
                    "name": "account",
                    "type": "address"
                }
            ],
            "name": "UnstakeOoga",
            "type": "event"
        },
        {
            "stateMutability": "payable",
            "type": "fallback"
        },
        {
            "inputs": [],
            "name": "ATTACK_CHANCE_DENOM",
            "outputs": [
                {
                    "internalType": "uint256",
                    "name": "",
                    "type": "uint256"
                }
            ],
            "stateMutability": "view",
            "type": "function"
        },
        {
            "inputs": [],
            "name": "addedOgForRewardsAtEnd",
            "outputs": [
                {
                    "internalType": "uint256",
                    "name": "",
                    "type": "uint256"
                }
            ],
            "stateMutability": "view",
            "type": "function"
        },
        {
            "inputs": [],
            "name": "allMintedTimestamp",
            "outputs": [
                {
                    "internalType": "uint256",
                    "name": "",
                    "type": "uint256"
                }
            ],
            "stateMutability": "view",
            "type": "function"
        },
        {
            "inputs": [],
            "name": "allTokensMinted",
            "outputs": [
                {
                    "internalType": "bool",
                    "name": "",
                    "type": "bool"
                }
            ],
            "stateMutability": "view",
            "type": "function"
        },
        {
            "inputs": [],
            "name": "baseFeeRefreshTime",
            "outputs": [
                {
                    "internalType": "uint256",
                    "name": "",
                    "type": "uint256"
                }
            ],
            "stateMutability": "view",
            "type": "function"
        },
        {
            "inputs": [],
            "name": "baseFeeUpdatedAt",
            "outputs": [
                {
                    "internalType": "uint256",
                    "name": "",
                    "type": "uint256"
                }
            ],
            "stateMutability": "view",
            "type": "function"
        },
        {
            "inputs": [
                {
                    "internalType": "uint256[]",
                    "name": "tokenIds",
                    "type": "uint256[]"
                }
            ],
            "name": "burnOogaForUnstakeCredits",
            "outputs": [],
            "stateMutability": "nonpayable",
            "type": "function"
        },
        {
            "inputs": [
                {
                    "internalType": "uint256",
                    "name": "baseFeeRefreshTime_",
                    "type": "uint256"
                }
            ],
            "name": "changeBaseFeeRefreshTime",
            "outputs": [],
            "stateMutability": "nonpayable",
            "type": "function"
        },
        {
            "inputs": [
                {
                    "internalType": "address",
                    "name": "gameContract2_",
                    "type": "address"
                }
            ],
            "name": "changeContract2",
            "outputs": [],
            "stateMutability": "nonpayable",
            "type": "function"
        },
        {
            "inputs": [
                {
                    "internalType": "bool",
                    "name": "gameActive_",
                    "type": "bool"
                }
            ],
            "name": "changeGameActive",
            "outputs": [],
            "stateMutability": "nonpayable",
            "type": "function"
        },
        {
            "inputs": [
                {
                    "internalType": "uint256[]",
                    "name": "megaLevelProbabilities_",
                    "type": "uint256[]"
                },
                {
                    "internalType": "uint256[]",
                    "name": "mekaLevelSharePoints_",
                    "type": "uint256[]"
                },
                {
                    "internalType": "uint256[]",
                    "name": "megaTributePoints_",
                    "type": "uint256[]"
                }
            ],
            "name": "changeMekaParameters",
            "outputs": [],
            "stateMutability": "nonpayable",
            "type": "function"
        },
        {
            "inputs": [
                {
                    "internalType": "uint256[]",
                    "name": "mintOGpriceSteps_",
                    "type": "uint256[]"
                }
            ],
            "name": "changeMintOGPriceSteps",
            "outputs": [],
            "stateMutability": "nonpayable",
            "type": "function"
        },
        {
            "inputs": [
                {
                    "components": [
                        {
                            "internalType": "uint256",
                            "name": "mintPrice",
                            "type": "uint256"
                        },
                        {
                            "internalType": "uint256",
                            "name": "mintStakePrice",
                            "type": "uint256"
                        },
                        {
                            "internalType": "uint256[]",
                            "name": "mintOGprice",
                            "type": "uint256[]"
                        },
                        {
                            "internalType": "uint256[]",
                            "name": "mintOGstakePrice",
                            "type": "uint256[]"
                        },
                        {
                            "internalType": "uint256",
                            "name": "mintDMTstakePrice",
                            "type": "uint256"
                        },
                        {
                            "internalType": "uint256[]",
                            "name": "roboLevelupPrice",
                            "type": "uint256[]"
                        },
                        {
                            "internalType": "uint256",
                            "name": "mekaMergePrice",
                            "type": "uint256"
                        }
                    ],
                    "internalType": "struct Prices",
                    "name": "prices_",
                    "type": "tuple"
                }
            ],
            "name": "changePrices",
            "outputs": [],
            "stateMutability": "nonpayable",
            "type": "function"
        },
        {
            "inputs": [
                {
                    "components": [
                        {
                            "internalType": "uint256",
                            "name": "mintBase",
                            "type": "uint256"
                        },
                        {
                            "internalType": "uint256",
                            "name": "mintPerToken",
                            "type": "uint256"
                        },
                        {
                            "internalType": "uint256",
                            "name": "mintPerTokenStaked",
                            "type": "uint256"
                        },
                        {
                            "internalType": "uint256",
                            "name": "unstakeBase",
                            "type": "uint256"
                        },
                        {
                            "internalType": "uint256",
                            "name": "unstakePerToken",
                            "type": "uint256"
                        },
                        {
                            "internalType": "uint256",
                            "name": "mergeBase",
                            "type": "uint256"
                        }
                    ],
                    "internalType": "struct RandomsGas",
                    "name": "randomsGas_",
                    "type": "tuple"
                }
            ],
            "name": "changeRandomsGas",
            "outputs": [],
            "stateMutability": "nonpayable",
            "type": "function"
        },
        {
            "inputs": [
                {
                    "internalType": "uint256[]",
                    "name": "roboLevelupPriceOG_",
                    "type": "uint256[]"
                }
            ],
            "name": "changeRoboLevelupPriceOG",
            "outputs": [],
            "stateMutability": "nonpayable",
            "type": "function"
        },
        {
            "inputs": [
                {
                    "internalType": "uint256[]",
                    "name": "roboOogaRewardPerSec_",
                    "type": "uint256[]"
                },
                {
                    "internalType": "uint256[]",
                    "name": "roboOogaMinimalRewardToUnstake_",
                    "type": "uint256[]"
                },
                {
                    "internalType": "uint256[]",
                    "name": "roboOogaRewardAttackProbabilities_",
                    "type": "uint256[]"
                }
            ],
            "name": "changeRoboParameters",
            "outputs": [],
            "stateMutability": "nonpayable",
            "type": "function"
        },
        {
            "inputs": [
                {
                    "internalType": "uint256",
                    "name": "claimTax_",
                    "type": "uint256"
                },
                {
                    "internalType": "uint256",
                    "name": "maxMintWithDMT_",
                    "type": "uint256"
                },
                {
                    "internalType": "uint256",
                    "name": "mintSaleAmount_",
                    "type": "uint256"
                },
                {
                    "internalType": "uint256",
                    "name": "maxTokenSupply_",
                    "type": "uint256"
                },
                {
                    "internalType": "uint256",
                    "name": "maxOgSupply_",
                    "type": "uint256"
                },
                {
                    "internalType": "uint256",
                    "name": "addedOgForRewardsAtEnd_",
                    "type": "uint256"
                },
                {
                    "internalType": "uint256",
                    "name": "ethMintAttackChance_",
                    "type": "uint256"
                },
                {
                    "internalType": "uint256",
                    "name": "dmtMintAttackChance_",
                    "type": "uint256"
                },
                {
                    "internalType": "uint256",
                    "name": "ogMintAttackChance_",
                    "type": "uint256"
                },
                {
                    "internalType": "uint256",
                    "name": "randomMekaProbability_",
                    "type": "uint256"
                }
            ],
            "name": "changeSettings",
            "outputs": [],
            "stateMutability": "nonpayable",
            "type": "function"
        },
        {
            "inputs": [
                {
                    "internalType": "uint256",
                    "name": "crewId",
                    "type": "uint256"
                }
            ],
            "name": "claimAvailableAmountCrew",
            "outputs": [
                {
                    "internalType": "uint256",
                    "name": "",
                    "type": "uint256"
                }
            ],
            "stateMutability": "view",
            "type": "function"
        },
        {
            "inputs": [
                {
                    "internalType": "uint256[]",
                    "name": "tokenIds",
                    "type": "uint256[]"
                }
            ],
            "name": "claimAvailableAmountMultipleTokens",
            "outputs": [
                {
                    "internalType": "uint256[]",
                    "name": "result",
                    "type": "uint256[]"
                }
            ],
            "stateMutability": "view",
            "type": "function"
        },
        {
            "inputs": [
                {
                    "internalType": "uint256",
                    "name": "",
                    "type": "uint256"
                }
            ],
            "name": "claimRequests",
            "outputs": [
                {
                    "internalType": "uint256",
                    "name": "totalMekaReward",
                    "type": "uint256"
                }
            ],
            "stateMutability": "view",
            "type": "function"
        },
        {
            "inputs": [
                {
                    "internalType": "uint256[]",
                    "name": "tokenIds",
                    "type": "uint256[]"
                }
            ],
            "name": "claimReward",
            "outputs": [],
            "stateMutability": "nonpayable",
            "type": "function"
        },
        {
            "inputs": [],
            "name": "claimTax",
            "outputs": [
                {
                    "internalType": "uint256",
                    "name": "",
                    "type": "uint256"
                }
            ],
            "stateMutability": "view",
            "type": "function"
        },
        {
            "inputs": [],
            "name": "crewClaimPercent",
            "outputs": [
                {
                    "internalType": "uint256",
                    "name": "",
                    "type": "uint256"
                }
            ],
            "stateMutability": "view",
            "type": "function"
        },
        {
            "inputs": [
                {
                    "internalType": "uint256",
                    "name": "",
                    "type": "uint256"
                }
            ],
            "name": "crews",
            "outputs": [
                {
                    "internalType": "address",
                    "name": "owner",
                    "type": "address"
                },
                {
                    "internalType": "uint256",
                    "name": "lastClaimTimestamp",
                    "type": "uint256"
                },
                {
                    "internalType": "uint256",
                    "name": "totalRewardPerSec",
                    "type": "uint256"
                },
                {
                    "internalType": "uint256",
                    "name": "savedReward",
                    "type": "uint256"
                },
                {
                    "internalType": "uint256",
                    "name": "oogaCount",
                    "type": "uint256"
                }
            ],
            "stateMutability": "view",
            "type": "function"
        },
        {
            "inputs": [],
            "name": "currentBaseFee",
            "outputs": [
                {
                    "internalType": "uint256",
                    "name": "",
                    "type": "uint256"
                }
            ],
            "stateMutability": "view",
            "type": "function"
        },
        {
            "inputs": [],
            "name": "currentOgPriceStep",
            "outputs": [
                {
                    "internalType": "uint256",
                    "name": "",
                    "type": "uint256"
                }
            ],
            "stateMutability": "view",
            "type": "function"
        },
        {
            "inputs": [],
            "name": "dmtMintAttackChance",
            "outputs": [
                {
                    "internalType": "uint256",
                    "name": "",
                    "type": "uint256"
                }
            ],
            "stateMutability": "view",
            "type": "function"
        },
        {
            "inputs": [],
            "name": "dmtToken",
            "outputs": [
                {
                    "internalType": "contract IDMT_ERC20",
                    "name": "",
                    "type": "address"
                }
            ],
            "stateMutability": "view",
            "type": "function"
        },
        {
            "inputs": [],
            "name": "erc721Contract",
            "outputs": [
                {
                    "internalType": "contract MekaApesERC721",
                    "name": "",
                    "type": "address"
                }
            ],
            "stateMutability": "view",
            "type": "function"
        },
        {
            "inputs": [],
            "name": "ethMintAttackChance",
            "outputs": [
                {
                    "internalType": "uint256",
                    "name": "",
                    "type": "uint256"
                }
            ],
            "stateMutability": "view",
            "type": "function"
        },
        {
            "inputs": [
                {
                    "internalType": "uint256[]",
                    "name": "tokenIds",
                    "type": "uint256[]"
                }
            ],
            "name": "evolveBabyOogas",
            "outputs": [],
            "stateMutability": "nonpayable",
            "type": "function"
        },
        {
            "inputs": [],
            "name": "gameActive",
            "outputs": [
                {
                    "internalType": "bool",
                    "name": "",
                    "type": "bool"
                }
            ],
            "stateMutability": "view",
            "type": "function"
        },
        {
            "inputs": [],
            "name": "gameContract2",
            "outputs": [
                {
                    "internalType": "address",
                    "name": "",
                    "type": "address"
                }
            ],
            "stateMutability": "view",
            "type": "function"
        },
        {
            "inputs": [],
            "name": "getPrices",
            "outputs": [
                {
                    "components": [
                        {
                            "internalType": "uint256",
                            "name": "mintPrice",
                            "type": "uint256"
                        },
                        {
                            "internalType": "uint256",
                            "name": "mintStakePrice",
                            "type": "uint256"
                        },
                        {
                            "internalType": "uint256",
                            "name": "mintOGprice",
                            "type": "uint256"
                        },
                        {
                            "internalType": "uint256",
                            "name": "mintOGstakePrice",
                            "type": "uint256"
                        },
                        {
                            "internalType": "uint256",
                            "name": "mintDMTstakePrice",
                            "type": "uint256"
                        },
                        {
                            "internalType": "uint256[]",
                            "name": "roboLevelupPrice",
                            "type": "uint256[]"
                        },
                        {
                            "internalType": "uint256",
                            "name": "mekaMergePrice",
                            "type": "uint256"
                        },
                        {
                            "internalType": "uint256[]",
                            "name": "roboLevelupPriceOG",
                            "type": "uint256[]"
                        }
                    ],
                    "internalType": "struct PricesGetter",
                    "name": "",
                    "type": "tuple"
                }
            ],
            "stateMutability": "view",
            "type": "function"
        },
        {
            "inputs": [
                {
                    "internalType": "address",
                    "name": "user",
                    "type": "address"
                }
            ],
            "name": "getUnstakeCreditsForAddress",
            "outputs": [
                {
                    "internalType": "uint256",
                    "name": "",
                    "type": "uint256"
                }
            ],
            "stateMutability": "view",
            "type": "function"
        },
        {
            "inputs": [
                {
                    "internalType": "uint256",
                    "name": "",
                    "type": "uint256"
                }
            ],
            "name": "inCrew",
            "outputs": [
                {
                    "internalType": "uint256",
                    "name": "",
                    "type": "uint256"
                }
            ],
            "stateMutability": "view",
            "type": "function"
        },
        {
            "inputs": [],
            "name": "initV2",
            "outputs": [
                {
                    "internalType": "bool",
                    "name": "",
                    "type": "bool"
                }
            ],
            "stateMutability": "view",
            "type": "function"
        },
        {
            "inputs": [],
            "name": "initV3",
            "outputs": [
                {
                    "internalType": "bool",
                    "name": "",
                    "type": "bool"
                }
            ],
            "stateMutability": "view",
            "type": "function"
        },
        {
            "inputs": [],
            "name": "initV4",
            "outputs": [
                {
                    "internalType": "bool",
                    "name": "",
                    "type": "bool"
                }
            ],
            "stateMutability": "view",
            "type": "function"
        },
        {
            "inputs": [],
            "name": "initV5",
            "outputs": [
                {
                    "internalType": "bool",
                    "name": "",
                    "type": "bool"
                }
            ],
            "stateMutability": "view",
            "type": "function"
        },
        {
            "inputs": [
                {
                    "internalType": "uint256",
                    "name": "oogaId",
                    "type": "uint256"
                }
            ],
            "name": "isBabyOogaEvolved",
            "outputs": [
                {
                    "internalType": "bool",
                    "name": "",
                    "type": "bool"
                }
            ],
            "stateMutability": "view",
            "type": "function"
        },
        {
            "inputs": [
                {
                    "internalType": "address",
                    "name": "",
                    "type": "address"
                }
            ],
            "name": "leaderboardRewardClaimed",
            "outputs": [
                {
                    "internalType": "uint256",
                    "name": "",
                    "type": "uint256"
                }
            ],
            "stateMutability": "view",
            "type": "function"
        },
        {
            "inputs": [
                {
                    "internalType": "uint256",
                    "name": "tokenId",
                    "type": "uint256"
                },
                {
                    "internalType": "uint256",
                    "name": "numberOfLevels",
                    "type": "uint256"
                }
            ],
            "name": "levelUpRoboOoga",
            "outputs": [],
            "stateMutability": "nonpayable",
            "type": "function"
        },
        {
            "inputs": [
                {
                    "internalType": "uint256",
                    "name": "tokenId",
                    "type": "uint256"
                },
                {
                    "internalType": "uint256",
                    "name": "numberOfLevels",
                    "type": "uint256"
                },
                {
                    "internalType": "uint256[]",
                    "name": "burnTokenIds",
                    "type": "uint256[]"
                }
            ],
            "name": "levelUpRoboOogaWithOG",
            "outputs": [],
            "stateMutability": "nonpayable",
            "type": "function"
        },
        {
            "inputs": [
                {
                    "internalType": "uint256",
                    "name": "",
                    "type": "uint256"
                }
            ],
            "name": "maxCrewForMekaLevel",
            "outputs": [
                {
                    "internalType": "uint256",
                    "name": "",
                    "type": "uint256"
                }
            ],
            "stateMutability": "view",
            "type": "function"
        },
        {
            "inputs": [],
            "name": "maxMintWithDMT",
            "outputs": [
                {
                    "internalType": "uint256",
                    "name": "",
                    "type": "uint256"
                }
            ],
            "stateMutability": "view",
            "type": "function"
        },
        {
            "inputs": [],
            "name": "maxMintedRewardTokens",
            "outputs": [
                {
                    "internalType": "uint256",
                    "name": "",
                    "type": "uint256"
                }
            ],
            "stateMutability": "view",
            "type": "function"
        },
        {
            "inputs": [],
            "name": "maxOgSupply",
            "outputs": [
                {
                    "internalType": "uint256",
                    "name": "",
                    "type": "uint256"
                }
            ],
            "stateMutability": "view",
            "type": "function"
        },
        {
            "inputs": [],
            "name": "maxTokenSupply",
            "outputs": [
                {
                    "internalType": "uint256",
                    "name": "",
                    "type": "uint256"
                }
            ],
            "stateMutability": "view",
            "type": "function"
        },
        {
            "inputs": [
                {
                    "internalType": "uint256",
                    "name": "",
                    "type": "uint256"
                }
            ],
            "name": "megaLevelProbabilities",
            "outputs": [
                {
                    "internalType": "uint256",
                    "name": "",
                    "type": "uint256"
                }
            ],
            "stateMutability": "view",
            "type": "function"
        },
        {
            "inputs": [
                {
                    "internalType": "uint256",
                    "name": "",
                    "type": "uint256"
                },
                {
                    "internalType": "uint256",
                    "name": "",
                    "type": "uint256"
                }
            ],
            "name": "megaStaked",
            "outputs": [
                {
                    "internalType": "uint256",
                    "name": "",
                    "type": "uint256"
                }
            ],
            "stateMutability": "view",
            "type": "function"
        },
        {
            "inputs": [
                {
                    "internalType": "uint256",
                    "name": "",
                    "type": "uint256"
                }
            ],
            "name": "megaTributePoints",
            "outputs": [
                {
                    "internalType": "uint256",
                    "name": "",
                    "type": "uint256"
                }
            ],
            "stateMutability": "view",
            "type": "function"
        },
        {
            "inputs": [
                {
                    "internalType": "uint256",
                    "name": "",
                    "type": "uint256"
                }
            ],
            "name": "mekaCrewRewardMultiplier",
            "outputs": [
                {
                    "internalType": "uint256",
                    "name": "",
                    "type": "uint256"
                }
            ],
            "stateMutability": "view",
            "type": "function"
        },
        {
            "inputs": [
                {
                    "internalType": "uint256",
                    "name": "",
                    "type": "uint256"
                }
            ],
            "name": "mekaLevelSharePoints",
            "outputs": [
                {
                    "internalType": "uint256",
                    "name": "",
                    "type": "uint256"
                }
            ],
            "stateMutability": "view",
            "type": "function"
        },
        {
            "inputs": [],
            "name": "mekaTotalPointsStaked",
            "outputs": [
                {
                    "internalType": "uint256",
                    "name": "",
                    "type": "uint256"
                }
            ],
            "stateMutability": "view",
            "type": "function"
        },
        {
            "inputs": [],
            "name": "mekaTotalRewardPerPoint",
            "outputs": [
                {
                    "internalType": "uint256",
                    "name": "",
                    "type": "uint256"
                }
            ],
            "stateMutability": "view",
            "type": "function"
        },
        {
            "inputs": [
                {
                    "internalType": "uint256",
                    "name": "tokenIdSave",
                    "type": "uint256"
                },
                {
                    "internalType": "uint256",
                    "name": "tokenIdBurn",
                    "type": "uint256"
                }
            ],
            "name": "mergeMekaApes",
            "outputs": [],
            "stateMutability": "payable",
            "type": "function"
        },
        {
            "inputs": [],
            "name": "mergeRandomGas",
            "outputs": [
                {
                    "internalType": "uint256",
                    "name": "",
                    "type": "uint256"
                }
            ],
            "stateMutability": "view",
            "type": "function"
        },
        {
            "inputs": [
                {
                    "internalType": "uint256",
                    "name": "",
                    "type": "uint256"
                }
            ],
            "name": "mergeRequests",
            "outputs": [
                {
                    "internalType": "uint256",
                    "name": "",
                    "type": "uint256"
                }
            ],
            "stateMutability": "view",
            "type": "function"
        },
        {
            "inputs": [],
            "name": "midStageOverTimestamp",
            "outputs": [
                {
                    "internalType": "uint256",
                    "name": "",
                    "type": "uint256"
                }
            ],
            "stateMutability": "view",
            "type": "function"
        },
        {
            "inputs": [
                {
                    "internalType": "uint256",
                    "name": "",
                    "type": "uint256"
                }
            ],
            "name": "mintOGpriceSteps",
            "outputs": [
                {
                    "internalType": "uint256",
                    "name": "",
                    "type": "uint256"
                }
            ],
            "stateMutability": "view",
            "type": "function"
        },
        {
            "inputs": [
                {
                    "internalType": "uint256",
                    "name": "amount",
                    "type": "uint256"
                },
                {
                    "internalType": "bool",
                    "name": "staking",
                    "type": "bool"
                }
            ],
            "name": "mintRandomGas",
            "outputs": [
                {
                    "internalType": "uint256",
                    "name": "",
                    "type": "uint256"
                }
            ],
            "stateMutability": "view",
            "type": "function"
        },
        {
            "inputs": [
                {
                    "internalType": "uint256",
                    "name": "",
                    "type": "uint256"
                }
            ],
            "name": "mintRequests",
            "outputs": [
                {
                    "internalType": "uint32",
                    "name": "startFromId",
                    "type": "uint32"
                },
                {
                    "internalType": "uint8",
                    "name": "amount",
                    "type": "uint8"
                },
                {
                    "internalType": "uint8",
                    "name": "attackChance",
                    "type": "uint8"
                },
                {
                    "internalType": "bool",
                    "name": "toStake",
                    "type": "bool"
                }
            ],
            "stateMutability": "view",
            "type": "function"
        },
        {
            "inputs": [
                {
                    "internalType": "address",
                    "name": "toAddress",
                    "type": "address"
                },
                {
                    "internalType": "uint256",
                    "name": "amount",
                    "type": "uint256"
                }
            ],
            "name": "mintRewardTokens",
            "outputs": [],
            "stateMutability": "nonpayable",
            "type": "function"
        },
        {
            "inputs": [],
            "name": "mintSale",
            "outputs": [
                {
                    "internalType": "bool",
                    "name": "",
                    "type": "bool"
                }
            ],
            "stateMutability": "view",
            "type": "function"
        },
        {
            "inputs": [],
            "name": "mintSaleAmount",
            "outputs": [
                {
                    "internalType": "uint256",
                    "name": "",
                    "type": "uint256"
                }
            ],
            "stateMutability": "view",
            "type": "function"
        },
        {
            "inputs": [],
            "name": "mintSigWallet",
            "outputs": [
                {
                    "internalType": "address",
                    "name": "",
                    "type": "address"
                }
            ],
            "stateMutability": "view",
            "type": "function"
        },
        {
            "inputs": [
                {
                    "internalType": "uint256",
                    "name": "amount",
                    "type": "uint256"
                }
            ],
            "name": "mintWithDMT",
            "outputs": [],
            "stateMutability": "payable",
            "type": "function"
        },
        {
            "inputs": [
                {
                    "internalType": "uint256",
                    "name": "amount",
                    "type": "uint256"
                },
                {
                    "internalType": "bool",
                    "name": "toStake",
                    "type": "bool"
                }
            ],
            "name": "mintWithOG",
            "outputs": [],
            "stateMutability": "payable",
            "type": "function"
        },
        {
            "inputs": [],
            "name": "nextClaimWithoutRandomId",
            "outputs": [
                {
                    "internalType": "uint256",
                    "name": "",
                    "type": "uint256"
                }
            ],
            "stateMutability": "view",
            "type": "function"
        },
        {
            "inputs": [],
            "name": "nextCrewId",
            "outputs": [
                {
                    "internalType": "uint256",
                    "name": "",
                    "type": "uint256"
                }
            ],
            "stateMutability": "view",
            "type": "function"
        },
        {
            "inputs": [],
            "name": "nextRandomRequestId",
            "outputs": [
                {
                    "internalType": "uint256",
                    "name": "",
                    "type": "uint256"
                }
            ],
            "stateMutability": "view",
            "type": "function"
        },
        {
            "inputs": [],
            "name": "nextTokenId",
            "outputs": [
                {
                    "internalType": "uint256",
                    "name": "",
                    "type": "uint256"
                }
            ],
            "stateMutability": "view",
            "type": "function"
        },
        {
            "inputs": [
                {
                    "internalType": "address",
                    "name": "",
                    "type": "address"
                }
            ],
            "name": "numberOfMintedOogas",
            "outputs": [
                {
                    "internalType": "uint256",
                    "name": "",
                    "type": "uint256"
                }
            ],
            "stateMutability": "view",
            "type": "function"
        },
        {
            "inputs": [],
            "name": "ogMintAttackChance",
            "outputs": [
                {
                    "internalType": "uint256",
                    "name": "",
                    "type": "uint256"
                }
            ],
            "stateMutability": "view",
            "type": "function"
        },
        {
            "inputs": [],
            "name": "ogMinted",
            "outputs": [
                {
                    "internalType": "uint256",
                    "name": "",
                    "type": "uint256"
                }
            ],
            "stateMutability": "view",
            "type": "function"
        },
        {
            "inputs": [],
            "name": "ogRewardMinted",
            "outputs": [
                {
                    "internalType": "bool",
                    "name": "",
                    "type": "bool"
                }
            ],
            "stateMutability": "view",
            "type": "function"
        },
        {
            "inputs": [],
            "name": "ogToken",
            "outputs": [
                {
                    "internalType": "contract OogearERC20",
                    "name": "",
                    "type": "address"
                }
            ],
            "stateMutability": "view",
            "type": "function"
        },
        {
            "inputs": [
                {
                    "internalType": "uint256",
                    "name": "",
                    "type": "uint256"
                }
            ],
            "name": "oogaAttributes",
            "outputs": [
                {
                    "internalType": "enum OogaType",
                    "name": "oogaType",
                    "type": "uint8"
                },
                {
                    "internalType": "uint8",
                    "name": "level",
                    "type": "uint8"
                },
                {
                    "internalType": "bool",
                    "name": "staked",
                    "type": "bool"
                },
                {
                    "internalType": "address",
                    "name": "stakedOwner",
                    "type": "address"
                },
                {
                    "internalType": "uint256",
                    "name": "lastClaimTimestamp",
                    "type": "uint256"
                },
                {
                    "internalType": "uint256",
                    "name": "savedReward",
                    "type": "uint256"
                },
                {
                    "internalType": "uint256",
                    "name": "lastRewardPerPoint",
                    "type": "uint256"
                },
                {
                    "internalType": "uint256",
                    "name": "stakedMegaIndex",
                    "type": "uint256"
                }
            ],
            "stateMutability": "view",
            "type": "function"
        },
        {
            "inputs": [
                {
                    "internalType": "uint256",
                    "name": "",
                    "type": "uint256"
                }
            ],
            "name": "oogaEvolved",
            "outputs": [
                {
                    "internalType": "bool",
                    "name": "",
                    "type": "bool"
                }
            ],
            "stateMutability": "view",
            "type": "function"
        },
        {
            "inputs": [],
            "name": "oogaVerse",
            "outputs": [
                {
                    "internalType": "contract IERC721",
                    "name": "",
                    "type": "address"
                }
            ],
            "stateMutability": "view",
            "type": "function"
        },
        {
            "inputs": [],
            "name": "owner",
            "outputs": [
                {
                    "internalType": "address",
                    "name": "",
                    "type": "address"
                }
            ],
            "stateMutability": "view",
            "type": "function"
        },
        {
            "inputs": [],
            "name": "previousBaseFee",
            "outputs": [
                {
                    "internalType": "uint256",
                    "name": "",
                    "type": "uint256"
                }
            ],
            "stateMutability": "view",
            "type": "function"
        },
        {
            "inputs": [],
            "name": "prices",
            "outputs": [
                {
                    "internalType": "uint256",
                    "name": "mintPrice",
                    "type": "uint256"
                },
                {
                    "internalType": "uint256",
                    "name": "mintStakePrice",
                    "type": "uint256"
                },
                {
                    "internalType": "uint256",
                    "name": "mintDMTstakePrice",
                    "type": "uint256"
                },
                {
                    "internalType": "uint256",
                    "name": "mekaMergePrice",
                    "type": "uint256"
                }
            ],
            "stateMutability": "view",
            "type": "function"
        },
        {
            "inputs": [],
            "name": "publicMintAllowance",
            "outputs": [
                {
                    "internalType": "uint256",
                    "name": "",
                    "type": "uint256"
                }
            ],
            "stateMutability": "view",
            "type": "function"
        },
        {
            "inputs": [],
            "name": "publicMintStarted",
            "outputs": [
                {
                    "internalType": "bool",
                    "name": "",
                    "type": "bool"
                }
            ],
            "stateMutability": "view",
            "type": "function"
        },
        {
            "inputs": [],
            "name": "randomMekaProbability",
            "outputs": [
                {
                    "internalType": "uint256",
                    "name": "",
                    "type": "uint256"
                }
            ],
            "stateMutability": "view",
            "type": "function"
        },
        {
            "inputs": [],
            "name": "randomProvider",
            "outputs": [
                {
                    "internalType": "address",
                    "name": "",
                    "type": "address"
                }
            ],
            "stateMutability": "view",
            "type": "function"
        },
        {
            "inputs": [
                {
                    "internalType": "uint256",
                    "name": "",
                    "type": "uint256"
                }
            ],
            "name": "randomRequests",
            "outputs": [
                {
                    "internalType": "enum RandomRequestType",
                    "name": "requestType",
                    "type": "uint8"
                },
                {
                    "internalType": "address",
                    "name": "user",
                    "type": "address"
                },
                {
                    "internalType": "bool",
                    "name": "active",
                    "type": "bool"
                }
            ],
            "stateMutability": "view",
            "type": "function"
        },
        {
            "inputs": [],
            "name": "randomsGas",
            "outputs": [
                {
                    "internalType": "uint256",
                    "name": "mintBase",
                    "type": "uint256"
                },
                {
                    "internalType": "uint256",
                    "name": "mintPerToken",
                    "type": "uint256"
                },
                {
                    "internalType": "uint256",
                    "name": "mintPerTokenStaked",
                    "type": "uint256"
                },
                {
                    "internalType": "uint256",
                    "name": "unstakeBase",
                    "type": "uint256"
                },
                {
                    "internalType": "uint256",
                    "name": "unstakePerToken",
                    "type": "uint256"
                },
                {
                    "internalType": "uint256",
                    "name": "mergeBase",
                    "type": "uint256"
                }
            ],
            "stateMutability": "view",
            "type": "function"
        },
        {
            "inputs": [
                {
                    "internalType": "uint256[]",
                    "name": "requestIds",
                    "type": "uint256[]"
                },
                {
                    "internalType": "uint256[]",
                    "name": "entropies",
                    "type": "uint256[]"
                }
            ],
            "name": "receiveMultipleRandoms",
            "outputs": [],
            "stateMutability": "nonpayable",
            "type": "function"
        },
        {
            "inputs": [
                {
                    "internalType": "uint256",
                    "name": "requestId",
                    "type": "uint256"
                },
                {
                    "internalType": "uint256",
                    "name": "entropy",
                    "type": "uint256"
                }
            ],
            "name": "receiveRandoms",
            "outputs": [],
            "stateMutability": "nonpayable",
            "type": "function"
        },
        {
            "inputs": [
                {
                    "internalType": "address",
                    "name": "",
                    "type": "address"
                }
            ],
            "name": "recoverOGClaimed",
            "outputs": [
                {
                    "internalType": "uint256",
                    "name": "",
                    "type": "uint256"
                }
            ],
            "stateMutability": "view",
            "type": "function"
        },
        {
            "inputs": [],
            "name": "recoverSigWallet",
            "outputs": [
                {
                    "internalType": "address",
                    "name": "",
                    "type": "address"
                }
            ],
            "stateMutability": "view",
            "type": "function"
        },
        {
            "inputs": [],
            "name": "renounceOwnership",
            "outputs": [],
            "stateMutability": "nonpayable",
            "type": "function"
        },
        {
            "inputs": [
                {
                    "internalType": "uint256",
                    "name": "",
                    "type": "uint256"
                }
            ],
            "name": "roboLevelupPriceOG",
            "outputs": [
                {
                    "internalType": "uint256",
                    "name": "",
                    "type": "uint256"
                }
            ],
            "stateMutability": "view",
            "type": "function"
        },
        {
            "inputs": [
                {
                    "internalType": "uint256",
                    "name": "",
                    "type": "uint256"
                }
            ],
            "name": "roboOogaMinimalRewardToUnstake",
            "outputs": [
                {
                    "internalType": "uint256",
                    "name": "",
                    "type": "uint256"
                }
            ],
            "stateMutability": "view",
            "type": "function"
        },
        {
            "inputs": [
                {
                    "internalType": "uint256",
                    "name": "",
                    "type": "uint256"
                }
            ],
            "name": "roboOogaRewardAttackProbabilities",
            "outputs": [
                {
                    "internalType": "uint256",
                    "name": "",
                    "type": "uint256"
                }
            ],
            "stateMutability": "view",
            "type": "function"
        },
        {
            "inputs": [],
            "name": "roboOogaRewardEnd",
            "outputs": [
                {
                    "internalType": "uint256",
                    "name": "",
                    "type": "uint256"
                }
            ],
            "stateMutability": "view",
            "type": "function"
        },
        {
            "inputs": [],
            "name": "roboOogaRewardIncreaseDuration",
            "outputs": [
                {
                    "internalType": "uint256",
                    "name": "",
                    "type": "uint256"
                }
            ],
            "stateMutability": "view",
            "type": "function"
        },
        {
            "inputs": [
                {
                    "internalType": "uint256",
                    "name": "",
                    "type": "uint256"
                }
            ],
            "name": "roboOogaRewardPerSec",
            "outputs": [
                {
                    "internalType": "uint256",
                    "name": "",
                    "type": "uint256"
                }
            ],
            "stateMutability": "view",
            "type": "function"
        },
        {
            "inputs": [
                {
                    "internalType": "uint256",
                    "name": "",
                    "type": "uint256"
                }
            ],
            "name": "roboOogaRewardPerSecInCrew",
            "outputs": [
                {
                    "internalType": "uint256",
                    "name": "",
                    "type": "uint256"
                }
            ],
            "stateMutability": "view",
            "type": "function"
        },
        {
            "inputs": [
                {
                    "internalType": "uint256",
                    "name": "",
                    "type": "uint256"
                }
            ],
            "name": "roboOogaRewardPerSec_midStage",
            "outputs": [
                {
                    "internalType": "uint256",
                    "name": "",
                    "type": "uint256"
                }
            ],
            "stateMutability": "view",
            "type": "function"
        },
        {
            "inputs": [],
            "name": "roboOogaRewardStart",
            "outputs": [
                {
                    "internalType": "uint256",
                    "name": "",
                    "type": "uint256"
                }
            ],
            "stateMutability": "view",
            "type": "function"
        },
        {
            "inputs": [
                {
                    "internalType": "uint256[]",
                    "name": "tokenIds",
                    "type": "uint256[]"
                }
            ],
            "name": "stake",
            "outputs": [],
            "stateMutability": "nonpayable",
            "type": "function"
        },
        {
            "inputs": [],
            "name": "tokensMintedWithDMT",
            "outputs": [
                {
                    "internalType": "uint256",
                    "name": "",
                    "type": "uint256"
                }
            ],
            "stateMutability": "view",
            "type": "function"
        },
        {
            "inputs": [],
            "name": "totalMintETH",
            "outputs": [
                {
                    "internalType": "uint256",
                    "name": "",
                    "type": "uint256"
                }
            ],
            "stateMutability": "view",
            "type": "function"
        },
        {
            "inputs": [],
            "name": "totalMintedRewardTokens",
            "outputs": [
                {
                    "internalType": "uint256",
                    "name": "",
                    "type": "uint256"
                }
            ],
            "stateMutability": "view",
            "type": "function"
        },
        {
            "inputs": [],
            "name": "totalMintedTokens",
            "outputs": [
                {
                    "internalType": "uint256",
                    "name": "",
                    "type": "uint256"
                }
            ],
            "stateMutability": "view",
            "type": "function"
        },
        {
            "inputs": [],
            "name": "totalRandomTxFee",
            "outputs": [
                {
                    "internalType": "uint256",
                    "name": "",
                    "type": "uint256"
                }
            ],
            "stateMutability": "view",
            "type": "function"
        },
        {
            "inputs": [],
            "name": "totalRandomTxFeeWithdrawn",
            "outputs": [
                {
                    "internalType": "uint256",
                    "name": "",
                    "type": "uint256"
                }
            ],
            "stateMutability": "view",
            "type": "function"
        },
        {
            "inputs": [
                {
                    "internalType": "address",
                    "name": "newOwner",
                    "type": "address"
                }
            ],
            "name": "transferOwnership",
            "outputs": [],
            "stateMutability": "nonpayable",
            "type": "function"
        },
        {
            "inputs": [
                {
                    "internalType": "uint256[]",
                    "name": "tokenIds",
                    "type": "uint256[]"
                }
            ],
            "name": "unstake",
            "outputs": [],
            "stateMutability": "nonpayable",
            "type": "function"
        },
        {
            "inputs": [
                {
                    "internalType": "address",
                    "name": "",
                    "type": "address"
                }
            ],
            "name": "unstakeCredits",
            "outputs": [
                {
                    "internalType": "uint256",
                    "name": "",
                    "type": "uint256"
                }
            ],
            "stateMutability": "view",
            "type": "function"
        },
        {
            "inputs": [
                {
                    "internalType": "uint256",
                    "name": "",
                    "type": "uint256"
                }
            ],
            "name": "unstakeCreditsForRoboLevel",
            "outputs": [
                {
                    "internalType": "uint256",
                    "name": "",
                    "type": "uint256"
                }
            ],
            "stateMutability": "view",
            "type": "function"
        },
        {
            "inputs": [],
            "name": "unstakeCreditsStart",
            "outputs": [
                {
                    "internalType": "uint256",
                    "name": "",
                    "type": "uint256"
                }
            ],
            "stateMutability": "view",
            "type": "function"
        },
        {
            "inputs": [
                {
                    "internalType": "address",
                    "name": "",
                    "type": "address"
                }
            ],
            "name": "usedUnstakeCredits",
            "outputs": [
                {
                    "internalType": "uint256",
                    "name": "",
                    "type": "uint256"
                }
            ],
            "stateMutability": "view",
            "type": "function"
        },
        {
            "inputs": [
                {
                    "internalType": "contract IERC20",
                    "name": "token",
                    "type": "address"
                },
                {
                    "internalType": "address",
                    "name": "toAddress",
                    "type": "address"
                },
                {
                    "internalType": "uint256",
                    "name": "amount",
                    "type": "uint256"
                }
            ],
            "name": "withdrawERC20",
            "outputs": [],
            "stateMutability": "nonpayable",
            "type": "function"
        },
        {
            "inputs": [
                {
                    "internalType": "contract IERC721",
                    "name": "token",
                    "type": "address"
                },
                {
                    "internalType": "address",
                    "name": "toAddress",
                    "type": "address"
                },
                {
                    "internalType": "uint256",
                    "name": "tokenId",
                    "type": "uint256"
                }
            ],
            "name": "withdrawERC721",
            "outputs": [],
            "stateMutability": "nonpayable",
            "type": "function"
        },
        {
            "inputs": [
                {
                    "internalType": "uint256",
                    "name": "amount",
                    "type": "uint256"
                }
            ],
            "name": "withdrawRandomTxFee",
            "outputs": [],
            "stateMutability": "nonpayable",
            "type": "function"
        },
        {
            "inputs": [
                {
                    "internalType": "address",
                    "name": "",
                    "type": "address"
                }
            ],
            "name": "withdrawerLastTotalMintETH",
            "outputs": [
                {
                    "internalType": "uint256",
                    "name": "",
                    "type": "uint256"
                }
            ],
            "stateMutability": "view",
            "type": "function"
        },
        {
            "inputs": [
                {
                    "internalType": "address",
                    "name": "",
                    "type": "address"
                }
            ],
            "name": "withdrawerPercent",
            "outputs": [
                {
                    "internalType": "uint256",
                    "name": "",
                    "type": "uint256"
                }
            ],
            "stateMutability": "view",
            "type": "function"
        }
    ],
    "bytecode": "0x608060405234801561001057600080fd5b50615c7f80620000216000396000f3fe6080604052600436106106415760003560e01c80638e32e31611610331578063c54b7358116101b2578063e6b4d60b116100f8578063ed3940791161009b578063ed3940791461156c578063eee21c2d1461158c578063f020044f146115ac578063f22395c8146115cb578063f2fde38b146115e1578063f3db119114611601578063febeb13214611617578063ff75eece1461162d57610641565b8063e6b4d60b1461142a578063e6d3565514611440578063e6f0ba6114611456578063e826cdf114611476578063e9a16bdb146114fc578063ec01952b14611516578063ec7373ce1461152c578063ecb24fb51461155957610641565b8063d6ebe4fe11610160578063d6ebe4fe1461133c578063d7c97fb414611352578063d835de0614611372578063dd2c094814611388578063dd2f6d4b1461139d578063e0fcd666146113ca578063e37e1dd3146113ea578063e449f3411461140a57610641565b8063c54b735814611208578063c94c7ff41461121e578063ca067ad01461123e578063ca24964b14611298578063ca97f520146112b2578063d3419bf3146112cc578063d385014d1461130f57610641565b8063a4acf05111610277578063b69b2a6511610225578063b69b2a6514611114578063bb905c7514611134578063bd9a548b1461114a578063c06fda8e1461116c578063c24b719714611182578063c25190d4146111a2578063c37a5761146111c2578063c44ca133146111f257610641565b8063a4acf0511461101a578063a4e9f2971461102d578063a5b63cc914611085578063acac98dd1461109b578063ad11cd05146110b1578063adb98751146110d1578063b56c6105146110fe57610641565b806395044c92116102df57806395044c9214610f23578063961b294a14610f435780639624b2f914610f6257806397881c2f14610f785780639978924114610fa55780639e15827614610fc55780639efbdcd014610fdb578063a0e69fe614610ffb57610641565b80638e32e31614610e555780638ec14dfc14610e6a5780638f46500e14610e80578063909e376d14610ea0578063922c317a14610ec057806392bbfd5114610ed657806394be311014610f0357610641565b80634e47a79a116104c65780636eee2dad1161040c5780637d151323116103af5780637d15132314610d785780637d5ee8e614610d8e5780637e5ae4b714610da457806382ce18c614610dd4578063833c7fc014610df4578063834e91cf14610e0a57806385ea000514610e205780638da5cb5b14610e4057610641565b80636eee2dad14610c805780636fccea8814610ca0578063715018a614610cc0578063729a90c814610cd557806375794a3c14610cf557806376bcff4e14610d0b5780637813e3ad14610d385780637bf1b56214610d5857610641565b80635ca2034a116104745780635ca2034a14610b2e5780635ca58adf14610b445780635e71cc7c14610b6457806362e6ba5914610b7a578063662162d514610b9a57806366ed6fbe14610bb05780636bff950614610bd05780636c4a8c1714610c5357610641565b80634e47a79a14610a625780634fc7c97214610a7857806350f7c20414610a9857806351e9a59a14610aae57806352695aa014610ace5780635544986314610aee5780635a541fb014610b0e57610641565b80632e9554d31161058b5780634025feb2116105395780634025feb21461090e578063424e65751461092e57806344004cc1146109b2578063448883d7146109d2578063448b7753146109e857806346dd847314610a02578063482a527814610a22578063489da8ff14610a4257610641565b80632e9554d31461082d5780633186d3c9146108475780633764d26f1461087457806338e692af1461088a5780633a6a6ca3146108a05780633bf27cf1146108c05780633e2aec28146108f857610641565b80631064a383116105f35780631064a38314610727578063118b8daf1461074757806311b1c1011461075d57806319de52211461078a5780631b9401cd146107aa578063243a7b94146107ca57806325782210146107f75780632626b8291461080d57610641565b8063017193271461064b5780630181de4214610674578063035240051461068a57806308a1c391146106b45780630a1b494d146106d45780630ee9a59b146106e75780630fbf0a9314610707575b61064961164d565b005b34801561065757600080fd5b5061066160845481565b6040519081526020015b60405180910390f35b34801561068057600080fd5b50610661608a5481565b34801561069657600080fd5b506092546106a49060ff1681565b604051901515815260200161066b565b3480156106c057600080fd5b506106616106cf3660046152aa565b611682565b6106496106e23660046152d1565b6116a3565b3480156106f357600080fd5b506106616107023660046152aa565b611894565b34801561071357600080fd5b5061064961072236600461534c565b6118a4565b34801561073357600080fd5b5061064961074236600461534c565b6119e2565b34801561075357600080fd5b5061066160b75481565b34801561076957600080fd5b506106616107783660046153a2565b60be6020526000908152604090205481565b34801561079657600080fd5b506106616107a53660046153bf565b611b2d565b3480156107b657600080fd5b506106496107c53660046153bf565b611b61565b3480156107d657600080fd5b506106616107e53660046153a2565b60c36020526000908152604090205481565b34801561080357600080fd5b5061066160805481565b34801561081957600080fd5b506106616108283660046152aa565b611b99565b34801561083957600080fd5b5060af546106a49060ff1681565b34801561085357600080fd5b506106616108623660046152aa565b60b26020526000908152604090205481565b34801561088057600080fd5b5061066160bd5481565b34801561089657600080fd5b5061066160895481565b3480156108ac57600080fd5b506106616108bb3660046152aa565b611ba9565b3480156108cc57600080fd5b506067546108e0906001600160a01b031681565b6040516001600160a01b03909116815260200161066b565b34801561090457600080fd5b5061066160c25481565b34801561091a57600080fd5b506106496109293660046153e1565b611bb9565b34801561093a57600080fd5b506109826109493660046152aa565b60a36020526000908152604090205463ffffffff81169060ff600160201b8204811691600160281b8104821691600160301b9091041684565b6040805163ffffffff95909516855260ff938416602086015291909216908301521515606082015260800161066b565b3480156109be57600080fd5b506106496109cd3660046153e1565b611c4f565b3480156109de57600080fd5b50610661607d5481565b3480156109f457600080fd5b5060b8546106a49060ff1681565b348015610a0e57600080fd5b50610649610a1d3660046154fa565b611cfe565b348015610a2e57600080fd5b50610661610a3d3660046152aa565b611da9565b348015610a4e57600080fd5b50610661610a5d3660046152aa565b611db9565b348015610a6e57600080fd5b5061066160b05481565b348015610a8457600080fd5b50610649610a933660046152aa565b611dc9565b348015610aa457600080fd5b5061066160995481565b348015610aba57600080fd5b50610661610ac93660046152aa565b611e9f565b348015610ada57600080fd5b50610649610ae93660046153bf565b611eaf565b348015610afa57600080fd5b50610649610b093660046155d9565b611ed9565b348015610b1a57600080fd5b50610649610b2936600461534c565b611f36565b348015610b3a57600080fd5b5061066160915481565b348015610b5057600080fd5b50610649610b5f366004615652565b611f71565b348015610b7057600080fd5b5061066160945481565b348015610b8657600080fd5b5060c4546108e0906001600160a01b031681565b348015610ba657600080fd5b50610661609b5481565b348015610bbc57600080fd5b50610661610bcb3660046152aa565b611ff1565b348015610bdc57600080fd5b50610c3f610beb3660046152aa565b608f602052600090815260409020805460018201546002830154600384015460049094015460ff8085169561010086048216956201000081049092169463010000009092046001600160a01b031693919288565b60405161066b9897969594939291906156ba565b348015610c5f57600080fd5b50610661610c6e3660046152aa565b60a56020526000908152604090205481565b348015610c8c57600080fd5b50610649610c9b366004615711565b612001565b348015610cac57600080fd5b50610649610cbb36600461573d565b612099565b348015610ccc57600080fd5b506106496120ee565b348015610ce157600080fd5b50610661610cf03660046152aa565b612129565b348015610d0157600080fd5b50610661607e5481565b348015610d1757600080fd5b50610661610d263660046153a2565b60bb6020526000908152604090205481565b348015610d4457600080fd5b50610649610d533660046153a2565b612139565b348015610d6457600080fd5b50610661610d733660046152aa565b61218a565b348015610d8457600080fd5b5061066160985481565b348015610d9a57600080fd5b5061066160975481565b348015610db057600080fd5b506106a4610dbf3660046152aa565b60009081526090602052604090205460ff1690565b348015610de057600080fd5b5060bf546108e0906001600160a01b031681565b348015610e0057600080fd5b50610661609c5481565b348015610e1657600080fd5b5061066160965481565b348015610e2c57600080fd5b50610649610e3b3660046152aa565b61219a565b348015610e4c57600080fd5b506108e06121ce565b348015610e6157600080fd5b506106616121dd565b348015610e7657600080fd5b5061066160a95481565b348015610e8c57600080fd5b50606a546108e0906001600160a01b031681565b348015610eac57600080fd5b506068546108e0906001600160a01b031681565b348015610ecc57600080fd5b5061066160c15481565b348015610ee257600080fd5b50610661610ef13660046153a2565b60a06020526000908152604090205481565b348015610f0f57600080fd5b50610649610f1e36600461573d565b6121f3565b348015610f2f57600080fd5b50610661610f3e3660046152aa565b612248565b348015610f4f57600080fd5b5060ab546106a490610100900460ff1681565b348015610f6e57600080fd5b5061066160c05481565b348015610f8457600080fd5b50610f98610f9336600461534c565b612311565b60405161066b91906157d6565b348015610fb157600080fd5b50610661610fc03660046152aa565b6123b9565b348015610fd157600080fd5b5061066160855481565b348015610fe757600080fd5b50610661610ff63660046152aa565b6123c9565b34801561100757600080fd5b5060ad546106a490610100900460ff1681565b6106496110283660046152aa565b6123d9565b34801561103957600080fd5b5060725460735460745460755460765460775461105895949392919086565b604080519687526020870195909552938501929092526060840152608083015260a082015260c00161066b565b34801561109157600080fd5b50610661609e5481565b3480156110a757600080fd5b5061066160b95481565b3480156110bd57600080fd5b506106496110cc36600461534c565b6125ad565b3480156110dd57600080fd5b506106616110ec3660046153a2565b60ba6020526000908152604090205481565b34801561110a57600080fd5b5061066160825481565b34801561112057600080fd5b506066546108e0906001600160a01b031681565b34801561114057600080fd5b5061066160ac5481565b34801561115657600080fd5b5061115f6125e8565b60405161066b9190615855565b34801561117857600080fd5b5061066160835481565b34801561118e57600080fd5b5061066161119d3660046152d1565b61275d565b3480156111ae57600080fd5b506106616111bd3660046153a2565b61277d565b3480156111ce57600080fd5b506106a46111dd3660046152aa565b60906020526000908152604090205460ff1681565b3480156111fe57600080fd5b5061066160aa5481565b34801561121457600080fd5b5061066160a65481565b34801561122a57600080fd5b5061064961123936600461534c565b6127be565b34801561124a57600080fd5b506112896112593660046152aa565b60a26020526000908152604090205460ff808216916001600160a01b0361010082041691600160a81b9091041683565b60405161066b939291906158d6565b3480156112a457600080fd5b5060ad546106a49060ff1681565b3480156112be57600080fd5b5060ab546106a49060ff1681565b3480156112d857600080fd5b50606b54606c54606f546071546112ef9392919084565b60408051948552602085019390935291830152606082015260800161066b565b34801561131b57600080fd5b5061066161132a3660046152aa565b60a46020526000908152604090205481565b34801561134857600080fd5b50610661609a5481565b34801561135e57600080fd5b506065546108e0906001600160a01b031681565b34801561137e57600080fd5b5061066160795481565b34801561139457600080fd5b506106616127f1565b3480156113a957600080fd5b506106616113b83660046153a2565b60936020526000908152604090205481565b3480156113d657600080fd5b506106496113e5366004615909565b612809565b3480156113f657600080fd5b50610649611405366004615968565b612909565b34801561141657600080fd5b5061064961142536600461534c565b612967565b34801561143657600080fd5b5061066160815481565b34801561144c57600080fd5b5061066160a85481565b34801561146257600080fd5b506069546108e0906001600160a01b031681565b34801561148257600080fd5b506114ca6114913660046152aa565b60b160205260009081526040902080546002820154600383015460048401546005909401546001600160a01b0390931693919290919085565b604080516001600160a01b0390961686526020860194909452928401919091526060830152608082015260a00161066b565b34801561150857600080fd5b506095546106a49060ff1681565b34801561152257600080fd5b5061066160a15481565b34801561153857600080fd5b506106616115473660046153a2565b609f6020526000908152604090205481565b6106496115673660046153bf565b61299a565b34801561157857600080fd5b5061064961158736600461534c565b612f9b565b34801561159857600080fd5b506106496115a73660046159d0565b61300f565b3480156115b857600080fd5b506095546106a490610100900460ff1681565b3480156115d757600080fd5b50610661609d5481565b3480156115ed57600080fd5b506106496115fc3660046153a2565b613058565b34801561160d57600080fd5b5061066160a75481565b34801561162357600080fd5b50610661607f5481565b34801561163957600080fd5b506106616116483660046152aa565b6130f8565b60bf546001600160a01b03163660008037600080366000845af43d6000803e808015611678573d6000f35b3d6000fd5b505050565b607c818154811061169257600080fd5b600091825260209091200154905081565b60955460ff161580156116bd5750609554610100900460ff165b6116e25760405162461bcd60e51b81526004016116d9906159ed565b60405180910390fd5b609954826116ee6121dd565b6116f89190615a20565b111561172c5760405162461bcd60e51b815260206004820152600360248201526245333160e81b60448201526064016116d9565b6000611736613108565b905080611743848461314a565b61174d9190615a38565b3410156117825760405162461bcd60e51b815260206004820152600360248201526245333360e81b60448201526064016116d9565b34609c60008282546117949190615a20565b909155506000905082156117cc57606b600301607954815481106117ba576117ba615a57565b906000526020600020015490506117f2565b606b600201607954815481106117e4576117e4615a57565b906000526020600020015490505b6066546001600160a01b03166323b872dd333061180f8886615a38565b6040518463ffffffff1660e01b815260040161182d93929190615a6d565b602060405180830381600087803b15801561184757600080fd5b505af115801561185b573d6000803e3d6000fd5b505050506040513d601f19601f8201168201806040525081019061187f9190615a91565b5061188e338585608354613194565b50505050565b6086818154811061169257600080fd5b609554610100900460ff166118cb5760405162461bcd60e51b81526004016116d9906159ed565b60005b8181101561167d5760655433906001600160a01b0316636352211e8585858181106118fb576118fb615a57565b905060200201356040518263ffffffff1660e01b815260040161192091815260200190565b60206040518083038186803b15801561193857600080fd5b505afa15801561194c573d6000803e3d6000fd5b505050506040513d601f19601f820116820180604052508101906119709190615aae565b6001600160a01b0316146119ac5760405162461bcd60e51b815260206004820152600360248201526245343160e81b60448201526064016116d9565b6119d08383838181106119c1576119c1615a57565b905060200201353360006132ff565b806119da81615acb565b9150506118ce565b60005b8181101561167d576000608f6000858585818110611a0557611a05615a57565b9050602002013581526020019081526020016000209050611a3d848484818110611a3157611a31615a57565b90506020020135613413565b805460bc80549091610100900460ff16908110611a5c57611a5c615a57565b600091825260208083209091015433835260ba90915260408220805491929091611a87908490615a20565b909155508490508383818110611a9f57611a9f615a57565b90506020020135336001600160a01b03167fa6c4da636b3fb91fe9a6878135ec951f240c6b175b0636d3ed22ec30a6c34df260bc8460000160019054906101000a900460ff1660ff1681548110611af857611af8615a57565b9060005260206000200154604051611b1291815260200190565b60405180910390a35080611b2581615acb565b9150506119e5565b608b8260048110611b3d57600080fd5b018181548110611b4c57600080fd5b90600052602060002001600091509150505481565b606a546001600160a01b03163314611b8b5760405162461bcd60e51b81526004016116d990615ae6565b611b958282613616565b5050565b60b6818154811061169257600080fd5b6078818154811061169257600080fd5b33611bc26121ce565b6001600160a01b031614611be85760405162461bcd60e51b81526004016116d990615b03565b6040516323b872dd60e01b81526001600160a01b038416906323b872dd90611c1890309086908690600401615a6d565b600060405180830381600087803b158015611c3257600080fd5b505af1158015611c46573d6000803e3d6000fd5b50505050505050565b33611c586121ce565b6001600160a01b031614611c7e5760405162461bcd60e51b81526004016116d990615b03565b60405163a9059cbb60e01b81526001600160a01b0384169063a9059cbb90611cac9085908590600401615b38565b602060405180830381600087803b158015611cc657600080fd5b505af1158015611cda573d6000803e3d6000fd5b505050506040513d601f19601f8201168201806040525081019061188e9190615a91565b33611d076121ce565b6001600160a01b031614611d2d5760405162461bcd60e51b81526004016116d990615b03565b8051606b908155602080830151606c5560408301518051849392611d5692606d9291019061520f565b5060608201518051611d7291600384019160209091019061520f565b506080820151600482015560a08201518051611d9891600584019160209091019061520f565b5060c0820151816006015590505050565b60ae818154811061169257600080fd5b607b818154811061169257600080fd5b606a546001600160a01b03163314611e095760405162461bcd60e51b815260206004820152600360248201526245393960e81b60448201526064016116d9565b80609d54609c54611e1a9190615b51565b1115611e4e5760405162461bcd60e51b815260206004820152600360248201526208a72760eb1b60448201526064016116d9565b80609d6000828254611e609190615a20565b9091555050606a546040516001600160a01b039091169082156108fc029083906000818181858888f19350505050158015611b95573d6000803e3d6000fd5b60b4818154811061169257600080fd5b60005b8181101561167d57611ec783600160006136df565b80611ed181615acb565b915050611eb2565b33611ee26121ce565b6001600160a01b031614611f085760405162461bcd60e51b81526004016116d990615b03565b8051607255602081015160735560408101516074556060810151607555608081015160765560a00151607755565b33611f3f6121ce565b6001600160a01b031614611f655760405162461bcd60e51b81526004016116d990615b03565b61167d60b3838361525a565b808314611fa95760405162461bcd60e51b81526004016116d9906020808252600490820152634531353160e01b604082015260600190565b60005b83811015611fea57611fd8856000858585818110611fcc57611fcc615a57565b905060200201356136df565b80611fe281615acb565b915050611fac565b5050505050565b60b3818154811061169257600080fd5b3361200a6121ce565b6001600160a01b0316146120305760405162461bcd60e51b81526004016116d990615b03565b609b54609a546120409083615a20565b11156120745760405162461bcd60e51b815260206004820152600360248201526245393760e81b60448201526064016116d9565b80609a60008282546120869190615a20565b90915550611b9590508282600080613194565b336120a26121ce565b6001600160a01b0316146120c85760405162461bcd60e51b81526004016116d990615b03565b6120d46086878761525a565b506120e16087858561525a565b50611c466088838361525a565b336120f76121ce565b6001600160a01b03161461211d5760405162461bcd60e51b81526004016116d990615b03565b6121276000613b53565b565b6087818154811061169257600080fd5b336121426121ce565b6001600160a01b0316146121685760405162461bcd60e51b81526004016116d990615b03565b60bf80546001600160a01b0319166001600160a01b0392909216919091179055565b6088818154811061169257600080fd5b336121a36121ce565b6001600160a01b0316146121c95760405162461bcd60e51b81526004016116d990615b03565b60a955565b6033546001600160a01b031690565b60006001607e546121ee9190615b51565b905090565b336121fc6121ce565b6001600160a01b0316146122225760405162461bcd60e51b81526004016116d990615b03565b61222e607a878761525a565b5061223b607b858561525a565b50611c46607c838361525a565b600081815260b1602052604081206001810180548391608f91839190829061227257612272615a57565b9060005260206000200154815260200190815260200160002090506000606460b68360000160019054906101000a900460ff1660ff16815481106122b8576122b8615a57565b906000526020600020015484600301546122d29190615a38565b6122dc9190615b7e565b9050808360020154426122ef9190615b51565b6122f99190615a38565b83600401546123089190615a20565b95945050505050565b6060816001600160401b0381111561232b5761232b615422565b604051908082528060200260200182016040528015612354578160200160208202803683370190505b50905060005b828110156123b25761238384848381811061237757612377615a57565b90506020020135613ba5565b82828151811061239557612395615a57565b6020908102919091010152806123aa81615acb565b91505061235a565b5092915050565b60b5818154811061169257600080fd5b60bc818154811061169257600080fd5b60955460ff161580156123f35750609554610100900460ff165b61240f5760405162461bcd60e51b81526004016116d9906159ed565b6099548161241b6121dd565b6124259190615a20565b11156124595760405162461bcd60e51b815260206004820152600360248201526222999960e91b60448201526064016116d9565b60805481607f5461246a9190615a20565b111561249e5760405162461bcd60e51b815260206004820152600360248201526245353160e81b60448201526064016116d9565b60006124a8613108565b9050806124b683600161314a565b6124c09190615a38565b3410156124f55760405162461bcd60e51b8152602060048201526003602482015262114ccd60ea1b60448201526064016116d9565b34609c60008282546125079190615a20565b9091555050606754606f546001600160a01b03909116906323b872dd9033903090612533908790615a38565b6040518463ffffffff1660e01b815260040161255193929190615a6d565b600060405180830381600087803b15801561256b57600080fd5b505af115801561257f573d6000803e3d6000fd5b5050505061259233836001608254613194565b81607f60008282546125a49190615a20565b90915550505050565b336125b66121ce565b6001600160a01b0316146125dc5760405162461bcd60e51b81526004016116d990615b03565b61167d6078838361525a565b61263060405180610100016040528060008152602001600081526020016000815260200160008152602001600081526020016060815260200160008152602001606081525090565b604051806101000160405280606b600001548152602001606b600101548152602001606b6002016079548154811061266a5761266a615a57565b90600052602060002001548152602001606b6003016079548154811061269257612692615a57565b600091825260209182902001548252606f54828201526070805460408051828502810185018252828152940193928301828280156126ef57602002820191906000526020600020905b8154815260200190600101908083116126db575b50505050508152602001606b60060154815260200160b380548060200260200160405190810160405280929190818152602001828054801561275057602002820191906000526020600020905b81548152602001906001019080831161273c575b5050505050815250905090565b6000612769838361314a565b60a8546127769190615a38565b9392505050565b6001600160a01b038116600090815260bb602090815260408083205460ba90925282205460b9546127ae9190615a20565b6127b89190615b51565b92915050565b609554610100900460ff166127e55760405162461bcd60e51b81526004016116d9906159ed565b611b9582826000613e79565b60006127fc60775490565b60a8546121ee9190615a38565b606a546001600160a01b031633146128335760405162461bcd60e51b81526004016116d990615ae6565b8260005b8181101561288b5761287986868381811061285457612854615a57565b9050602002013585858481811061286d5761286d615a57565b90506020020135613616565b8061288381615acb565b915050612837565b506000609d54609c5461289e9190615b51565b9050670429d069189e00008111156129015780609d60008282546128c29190615a20565b9091555050606a546040516001600160a01b039091169082156108fc029083906000818181858888f19350505050158015611c46573d6000803e3d6000fd5b505050505050565b336129126121ce565b6001600160a01b0316146129385760405162461bcd60e51b81526004016116d990615b03565b607d99909955608097909755609495909555609993909355609791909155609855608155608255608355608555565b609554610100900460ff1661298e5760405162461bcd60e51b81526004016116d9906159ed565b611b9582826001613e79565b60955460ff161580156129b45750609554610100900460ff165b6129d05760405162461bcd60e51b81526004016116d9906159ed565b80821415612a065760405162461bcd60e51b815260206004820152600360248201526245383160e81b60448201526064016116d9565b6000612a10613108565b905080612a1c60775490565b612a269190615a38565b341015612a5b5760405162461bcd60e51b815260206004820152600360248201526222999b60e91b60448201526064016116d9565b34609c6000828254612a6d9190615a20565b90915550506000838152608f60205260408082208483529181902060655491516331a9108f60e11b815260048101879052909133916001600160a01b0390911690636352211e9060240160206040518083038186803b158015612acf57600080fd5b505afa158015612ae3573d6000803e3d6000fd5b505050506040513d601f19601f82011682018060405250810190612b079190615aae565b6001600160a01b03161480612b3e5750815462010000900460ff168015612b3e57508154630100000090046001600160a01b031633145b612b705760405162461bcd60e51b8152602060048201526003602482015262114e0d60ea1b60448201526064016116d9565b6065546040516331a9108f60e11b81526004810186905233916001600160a01b031690636352211e9060240160206040518083038186803b158015612bb457600080fd5b505afa158015612bc8573d6000803e3d6000fd5b505050506040513d601f19601f82011682018060405250810190612bec9190615aae565b6001600160a01b03161480612c235750805462010000900460ff168015612c2357508054630100000090046001600160a01b031633145b612c555760405162461bcd60e51b815260206004820152600360248201526245383560e81b60448201526064016116d9565b600085815260b26020526040902054158015612c7d5750600084815260b26020526040902054155b612cb25760405162461bcd60e51b81526004016116d9906020808252600490820152634538313160e01b604082015260600190565b6001825460ff166001811115612cca57612cca6156a4565b148015612cec57506001815460ff166001811115612cea57612cea6156a4565b145b612d1e5760405162461bcd60e51b8152602060048201526003602482015262229c1960e91b60448201526064016116d9565b8154610100900460ff16158015612d3c57508054610100900460ff16155b612d6e5760405162461bcd60e51b815260206004820152600360248201526245383360e81b60448201526064016116d9565b815460009062010000900460ff16151560011415612dd3576000612d9187613ba5565b9050612d9d8183615a20565b608954600386015560a1546040518381529193508891339190600080516020615c2a8339815191529060200160405180910390a4505b815462010000900460ff16151560011415612e3e576000612df386613ba5565b9050612dff8183615a20565b608954600385015560a1546040518381529193508791339190600080516020615c2a8339815191529060200160405180910390a4612e3c86614169565b505b607154811015612ee5576066546071546001600160a01b03909116906323b872dd9033903090612e6f908690615b51565b6040518463ffffffff1660e01b8152600401612e8d93929190615a6d565b602060405180830381600087803b158015612ea757600080fd5b505af1158015612ebb573d6000803e3d6000fd5b505050506040513d601f19601f82011682018060405250810190612edf9190615a91565b50612efd565b607154612efd903390612ef89084615b51565b6142f3565b612f0686614325565b606554604051630852cd8d60e31b8152600481018790526001600160a01b03909116906342966c6890602401600060405180830381600087803b158015612f4c57600080fd5b505af1158015612f60573d6000803e3d6000fd5b505060405187925088915033907f7fbc09d28fa0377bea9dd7bc3289ca8cf2ed47c19c59b30347c08925c18e82d790600090a4505050505050565b60955460ff16158015612fb55750609554610100900460ff165b612fd15760405162461bcd60e51b81526004016116d9906159ed565b60005b8181101561167d57612ffd838383818110612ff157612ff1615a57565b905060200201356143d6565b8061300781615acb565b915050612fd4565b336130186121ce565b6001600160a01b03161461303e5760405162461bcd60e51b81526004016116d990615b03565b609580549115156101000261ff0019909216919091179055565b336130616121ce565b6001600160a01b0316146130875760405162461bcd60e51b81526004016116d990615b03565b6001600160a01b0381166130ec5760405162461bcd60e51b815260206004820152602660248201527f4f776e61626c653a206e6577206f776e657220697320746865207a65726f206160448201526564647265737360d01b60648201526084016116d9565b6130f581613b53565b50565b607a818154811061169257600080fd5b600060a95460aa544261311b9190615b51565b11156131305760a8805460a7554890554260aa555b60a85460a7541015613143575060a75490565b5060a85490565b600081613158576000613170565b607454613166600185615b51565b6131709190615a38565b60735461317d9085615a38565b60725461318a9190615a20565b6127769190615a20565b600081156131ae576131a7846002615a38565b90506131b1565b50825b60006131bb614564565b6040805160608101825260008082526001600160a01b038a16602080840191909152600183850181905285835260a29091529290208151815494955091939092839160ff191690836002811115613214576132146156a4565b021790555060208281015182546040948501511515600160a81b0260ff60a81b196001600160a01b039093166101000292909216610100600160b01b031990911617179091558151608081018352607e5463ffffffff908116825260ff8981168385019081528882168487019081528a151560608601908152600089815260a390975296909520935184549151955196511515600160301b0260ff60301b19978416600160281b029790971666ffff00000000001996909316600160201b0264ffffffffff19909216931692909217919091179290921691909117919091179055611c4630866145c8565b6000838152608f6020526040902081613379576065546040516323b872dd60e01b81526001600160a01b03909116906323b872dd9061334690869030908990600401615a6d565b600060405180830381600087803b15801561336057600080fd5b505af1158015613374573d6000803e3d6000fd5b505050505b80546001600160a01b03841663010000000262010000600160b81b031990911617620100001781554260018281019190915560006002830155815460ff1660018111156133c8576133c86156a4565b14156133d7576133d784614724565b6040516001600160a01b0384169085907f5b53344e2b3d15f33a2ab59e3c199c7bbcb08f5ce03bf0a25c14f978647299a790600090a350505050565b6000818152608f60205260409081902060655491516331a9108f60e11b815260048101849052909133916001600160a01b0390911690636352211e9060240160206040518083038186803b15801561346a57600080fd5b505afa15801561347e573d6000803e3d6000fd5b505050506040513d601f19601f820116820180604052508101906134a29190615aae565b6001600160a01b031614806134c757508054630100000090046001600160a01b031633145b6134fc5760405162461bcd60e51b81526004016116d990602080825260049082015263229b991960e11b604082015260600190565b6000815460ff166001811115613514576135146156a4565b1461354a5760405162461bcd60e51b81526004016116d990602080825260049082015263229b989960e11b604082015260600190565b600082815260b260205260409020541561358f57600082815260b26020526040902054613576906147e9565b600082815260b2602052604090205461358f9083614812565b805462010000900460ff16156135ac576135ac33612ef884613ba5565b805462010000600160b81b0319168155606554604051630852cd8d60e31b8152600481018490526001600160a01b03909116906342966c6890602401600060405180830381600087803b15801561360257600080fd5b505af1158015612901573d6000803e3d6000fd5b817fa1400508f229eaea44d95e98b6da371661f6e873726585abd7efdbdc607169768260405161364891815260200190565b60405180910390a2600082815260a2602052604090208054600160a81b900460ff1661367357505050565b805460ff60a81b191681556000815460ff166002811115613696576136966156a4565b14156136b757805461167d9061010090046001600160a01b031684846148e9565b6002815460ff1660028111156136cf576136cf6156a4565b141561167d5761167d8383614ac2565b60955460ff161580156136f95750609554610100900460ff165b6137155760405162461bcd60e51b81526004016116d9906159ed565b6000838152608f60205260409081902060655491516331a9108f60e11b815260048101869052909133916001600160a01b0390911690636352211e9060240160206040518083038186803b15801561376c57600080fd5b505afa158015613780573d6000803e3d6000fd5b505050506040513d601f19601f820116820180604052508101906137a49190615aae565b6001600160a01b031614806137c957508054630100000090046001600160a01b031633145b6137fb5760405162461bcd60e51b8152602060048201526003602482015262229b9960e91b60448201526064016116d9565b6000815460ff166001811115613813576138136156a4565b14801561382a57508054600661010090910460ff16105b61385c5760405162461bcd60e51b815260206004820152600360248201526245373160e81b60448201526064016116d9565b818414156138955760405162461bcd60e51b81526004016116d9906020808252600490820152630453733360e41b604082015260600190565b600084815260b260205260409020541561396557600084815260b260205260409020546138c1906147e9565b805460b480549091610100900460ff169081106138e0576138e0615a57565b600091825260209091200154815460b49061390490610100900460ff166001615b92565b60ff168154811061391757613917615a57565b906000526020600020015461392c9190615b51565b600085815260b26020908152604080832054835260b19091528120600301805490919061395a908490615a20565b9091555061398a9050565b805462010000900460ff161561398a5761397e84613ba5565b60028201554260018201555b8215613a28576067548154607080546001600160a01b03909316926323b872dd92339230929091610100900460ff169081106139c8576139c8615a57565b90600052602060002001546040518463ffffffff1660e01b81526004016139f193929190615a6d565b600060405180830381600087803b158015613a0b57600080fd5b505af1158015613a1f573d6000803e3d6000fd5b50505050613ae5565b606654815460b380546001600160a01b03909316926323b872dd92339230929091610100900460ff16908110613a6057613a60615a57565b90600052602060002001546040518463ffffffff1660e01b8152600401613a8993929190615a6d565b602060405180830381600087803b158015613aa357600080fd5b505af1158015613ab7573d6000803e3d6000fd5b505050506040513d601f19601f82011682018060405250810190613adb9190615a91565b50613ae582613413565b8054610100900460ff16816001613afb83615bb7565b825460ff91821661010093840a908102908302199091161790925583546040519190049091169150859033907f2ef0b9f6641bfe4ae9f94f2b9b20ece8b29e13b163e6425c14ff8f520e79412e90600090a450505050565b603380546001600160a01b038381166001600160a01b0319831681179093556040519116919082907f8be0079c531659141344cd1fd0a4f28419497f9722a3daafe3b4186f6b6457e090600090a35050565b6000818152608f602052604080822081516101008101909252805483929190829060ff166001811115613bda57613bda6156a4565b6001811115613beb57613beb6156a4565b8152815460ff61010082048116602084015262010000820416151560408301526001600160a01b03630100000090910416606082015260018201546080820152600282015460a0820152600382015460c082015260049091015460e0909101529050600081516001811115613c6257613c626156a4565b1415613e385760a08101516000848152608f602052604090206001015460ac54811015613cd857607a836020015160ff1681548110613ca357613ca3615a57565b90600052602060002001548160ac54613cbc9190615b51565b613cc69190615a38565b613cd09083615a20565b915060ac5490505b60c054811015613d315760ae836020015160ff1681548110613cfc57613cfc615a57565b90600052602060002001548160c054613d159190615b51565b613d1f9190615a38565b613d299083615a20565b915060c05490505b6000613d3d8242615b51565b9050600060c25460bd5460c154613d549190615b51565b613d5e9190615b7e565b905060c254821115613de55760028160c25460c254613d7d9190615a38565b613d879190615a38565b613d919190615b7e565b613d9b9085615a20565b935060bd5460c254613dad9190615a38565b613db79085615a20565b935060c15460c25483613dca9190615b51565b613dd49190615a38565b613dde9085615a20565b9350613e2d565b600281613df28480615a38565b613dfc9190615a38565b613e069190615b7e565b613e109085615a20565b935060bd5482613e209190615a38565b613e2a9085615a20565b93505b509195945050505050565b6087816020015160ff1681548110613e5257613e52615a57565b90600052602060002001548160c00151608954613e6f9190615b51565b6127769190615a38565b60a680546000918291829182613e8e83615acb565b909155505060a65460005b86811015614108576000608f60008a8a85818110613eb957613eb9615a57565b90506020020135815260200190815260200160002090508060000160029054906101000a900460ff16151560011515148015613f0557508054630100000090046001600160a01b031633145b613f375760405162461bcd60e51b815260206004820152600360248201526245393160e81b60448201526064016116d9565b60b260008a8a85818110613f4d57613f4d615a57565b90506020020135815260200190815260200160002054600014613f9b5760405162461bcd60e51b81526004016116d990602080825260049082015263229c989960e11b604082015260600190565b6000613fb28a8a8581811061237757612377615a57565b90506000825460ff166001811115613fcc57613fcc6156a4565b14156140665760006064607d5483613fe49190615a38565b613fee9190615b7e565b9050613ffa8183615b51565b6140049089615a20565b97506140108187615a20565b42600185015595508a8a8581811061402a5761402a615a57565b602002919091013590503386600080516020615c2a83398151915261404f8587615b51565b60405190815260200160405180910390a4506140c6565b6140708187615a20565b6089546003840155955089898481811061408c5761408c615a57565b90506020020135336001600160a01b031685600080516020615c2a833981519152846040516140bd91815260200190565b60405180910390a45b87156140ed576140ed8a8a858181106140e1576140e1615a57565b90506020020135614169565b5060006002909101558061410081615acb565b915050613e99565b5061411733612ef88686615a20565b8115611c465761412682614c20565b807fa82e56087acdb4c45b596e06c5ef2d1e974654985bfd4300ebad87555eec136e8360405161415891815260200190565b60405180910390a250505050505050565b6000818152608f60205260409020805462010000600160b81b031981168255630100000090046001600160a01b03166001825460ff1660018111156141b0576141b06156a4565b14156141c4576141bf83614c58565b614252565b6000825460ff1660018111156141dc576141dc6156a4565b14156142525760006141ed3361277d565b116142235760405162461bcd60e51b81526004016116d9906020808252600490820152634531363160e01b604082015260600190565b6001600160a01b038116600090815260bb6020526040812080546001929061424c908490615a20565b90915550505b6065546040516323b872dd60e01b81526001600160a01b03909116906323b872dd9061428690309085908890600401615a6d565b600060405180830381600087803b1580156142a057600080fd5b505af11580156142b4573d6000803e3d6000fd5b50506040516001600160a01b03841692508591507f3a01954f64bfeed1c903bc3920f7a5639288ea25efc7a539195648519e4184a390600090a3505050565b6066546040516340c10f1960e01b815282916001600160a01b0316906340c10f1990611c189086908590600401615b38565b600061432f614564565b604080516060810182526002808252336020808401919091526001838501819052600086815260a29092529390208251815495965092949093849260ff19909216918490811115614382576143826156a4565b021790555060208281015182546040948501511515600160a81b0260ff60a81b196001600160a01b039093166101000292909216610100600160b01b03199091161717909155600092835260a59052902055565b621e8c5181101561440f5760405162461bcd60e51b815260206004820152600360248201526245313160e81b60448201526064016116d9565b60008181526090602052604090205460ff16156144545760405162461bcd60e51b815260206004820152600360248201526222989960e91b60448201526064016116d9565b6068546040516331a9108f60e11b81526004810183905233916001600160a01b031690636352211e9060240160206040518083038186803b15801561449857600080fd5b505afa1580156144ac573d6000803e3d6000fd5b505050506040513d601f19601f820116820180604052508101906144d09190615aae565b6001600160a01b03161461450c5760405162461bcd60e51b815260206004820152600360248201526245313360e81b60448201526064016116d9565b6000818152609060205260408120805460ff1916600117905561452e33614dcd565b6040519091508190839033907f584ea1a98d504e99c0dd0ca5ace55f5458d725e7e20a1ebb2e5e5af38434397190600090a45050565b600060a1547f315444e506fb06e32d43fe2cf48f37218994285028f458255be4a56810b66b8d60a15460405161459c91815260200190565b60405180910390a260a180549060006145b483615acb565b9190505550600160a1546121ee9190615b51565b607e80546000918390836145dc8385615a20565b925050819055506078607954815481106145f8576145f8615a57565b9060005260206000200154607e5410614621576079805490600061461b83615acb565b91905055505b6065546040516322ce52b560e21b81526001600160a01b038681166004830152602482018490526044820186905290911690638b394ad490606401600060405180830381600087803b15801561467657600080fd5b505af115801561468a573d6000803e3d6000fd5b5050505060005b838110156146e4576001608f60006146a98486615a20565b81526020810191909152604001600020805460ff929092166101000261ff0019909216919091179055806146dc81615acb565b915050614691565b508281856001600160a01b03167f8b7c923d3e09b520f101439fe55b1b1ea3b1fcdfcb88afe6aed96873d341e1aa60405160405180910390a49392505050565b6000818152608f602052604090208054608780549091610100900460ff1690811061475157614751615a57565b9060005260206000200154608a600082825461476d9190615a20565b909155505060895460038201558054610100900460ff1615611b95578054608b90610100900460ff16600481106147a6576147a6615a57565b01546004828101919091558154608b9161010090910460ff169081106147ce576147ce615a57565b01805460018101825560009182526020909120018290555050565b6147f281612248565b600091825260b16020526040909120600481019190915542600290910155565b6000818152608f602052604090205460b480549091610100900460ff1690811061483e5761483e615a57565b906000526020600020015460b16000848152602001908152602001600020600301600082825461486e9190615b51565b9091555050600081815260b260209081526040808320839055608f82528083204260019182015585845260b190925282206005018054919290916148b3908490615b51565b9091555050604051819083907fbf29afa7b80118742f9b6f15e4a2f6ae38b0dc246732b5b2bdde209326c7dfca90600090a35050565b600082815260a360205260408120805463ffffffff165b815461491c9060ff600160201b8204169063ffffffff16615bd7565b63ffffffff16811015612901576000818152608f6020526040902061494085614ea7565b60855490965090945084101561498c57805461ffff1916600117815560405182907fe745cd12d6f4eb3c23b4aeb859314255073bdc0805d89f7622090698abf484b290600090a26149c3565b60405182906001600160a01b038916907f17168db4d4772024cf56ab2222c1d7888481238be6bc32c3d7a8726a9483bab290600090a35b8254600090600160281b900460ff1615614a1f576149e086614ea7565b8554909750909550600160281b900460ff16851015614a1f576000614a03614eee565b90508015614a1d57614a16848289614f5e565b9650600191505b505b80614aad578354600160301b900460ff1615614a4657614a41838960016132ff565b614aad565b6065546040516323b872dd60e01b81526001600160a01b03909116906323b872dd90614a7a9030908c908890600401615a6d565b600060405180830381600087803b158015614a9457600080fd5b505af1158015614aa8573d6000803e3d6000fd5b505050505b50508080614aba90615acb565b915050614900565b600082815260a56020908152604080832054808452608f90925282209091614ae984614ea7565b94509050614af681615055565b825461ff00191661010060ff928316021780845562010000900416151560011415614be2576087600081548110614b2f57614b2f615a57565b6000918252602090912001548254608780549091610100900460ff16908110614b5a57614b5a615a57565b9060005260206000200154614b6f9190615b51565b608a6000828254614b809190615a20565b90915550508154608b90610100900460ff1660048110614ba257614ba2615a57565b01546004838101919091558254608b9161010090910460ff16908110614bca57614bca615a57565b01805460018101825560009182526020909120018390555b815460405161010090910460ff169084907fe15c536009c86cf1fa16027c6ee4538c2bcce2bdcd80dd17fec4ea96182ef04c90600090a35050505050565b614c2a30826142f3565b608a54156130f557608a54614c3f9082615b7e565b60896000828254614c509190615a20565b909155505050565b6000818152608f602052604090208054608780549091610100900460ff16908110614c8557614c85615a57565b9060005260206000200154608a6000828254614ca19190615b51565b90915550508054610100900460ff1615614dc2578054600090608b90610100900460ff1660048110614cd557614cd5615a57565b8354910190600190608b90610100900460ff1660048110614cf857614cf8615a57565b0154614d049190615b51565b81548110614d1457614d14615a57565b60009182526020909120015482549091508190608b90610100900460ff1660048110614d4257614d42615a57565b01836004015481548110614d5857614d58615a57565b6000918252602090912001558154608b90610100900460ff1660048110614d8157614d81615a57565b01805480614d9157614d91615bff565b600082815260208082208301600019908101839055909201909255600480850154938352608f909152604090912001555b600060049091015550565b607e8054600091819083614de083615acb565b9190505550607860795481548110614dfa57614dfa615a57565b9060005260206000200154607e5410614e235760798054906000614e1d83615acb565b91905055505b6065546040516340c10f1960e01b81526001600160a01b03909116906340c10f1990614e559086908590600401615b38565b600060405180830381600087803b158015614e6f57600080fd5b505af1158015614e83573d6000803e3d6000fd5b5050506000828152608f60205260409020805461ffff191660011790555092915050565b60008062100000831015614edd576040805160208101859052016040516020818303038152906040528051906020012060001c92505b50506103ff811691600a9190911c90565b60008060015b60038111614f5857608b8160048110614f0f57614f0f615a57565b01546088805483908110614f2557614f25615a57565b9060005260206000200154614f3a9190615a38565b614f449083615a20565b915080614f5081615acb565b915050614ef4565b50919050565b600080614f6d848460196150b3565b935090506000614f7c82615111565b6065546000828152608f6020526040908190205490516323b872dd60e01b81529293506001600160a01b03918216926323b872dd92614fcd9230926301000000909104909116908b90600401615a6d565b600060405180830381600087803b158015614fe757600080fd5b505af1158015614ffb573d6000803e3d6000fd5b5050506000828152608f602052604080822054905184935063010000009091046001600160a01b03169189917f9055cdd665fdee53683ce213caee079a0b8a929160ad57c0b83ca49f032dfafc9190a45091949350505050565b6000805b60038160ff1610156150aa5760868160ff168154811061507b5761507b615a57565b906000526020600020015483101561509857612776816001615b92565b806150a281615bb7565b915050615059565b50600092915050565b6000806001831b808510156150ea576040805160208101879052016040516020818303038152906040528051906020012060001c94505b6000866150f8600184615b51565b87166151049190615c15565b979590941c955050505050565b60008060015b60038111615205576000608b826004811061513457615134615a57565b0154608880548490811061514a5761514a615a57565b906000526020600020015461515f9190615a38565b905061516b8184615a20565b8510156151e55760006088838154811061518757615187615a57565b9060005260206000200154848761519e9190615b51565b6151a89190615b7e565b9050608b83600481106151bd576151bd615a57565b0181815481106151cf576151cf615a57565b9060005260206000200154945050505050919050565b6151ef8184615a20565b92505080806151fd90615acb565b915050615117565b5060009392505050565b82805482825590600052602060002090810192821561524a579160200282015b8281111561524a57825182559160200191906001019061522f565b50615256929150615295565b5090565b82805482825590600052602060002090810192821561524a579160200282015b8281111561524a57823582559160200191906001019061527a565b5b808211156152565760008155600101615296565b6000602082840312156152bc57600080fd5b5035919050565b80151581146130f557600080fd5b600080604083850312156152e457600080fd5b8235915060208301356152f6816152c3565b809150509250929050565b60008083601f84011261531357600080fd5b5081356001600160401b0381111561532a57600080fd5b6020830191508360208260051b850101111561534557600080fd5b9250929050565b6000806020838503121561535f57600080fd5b82356001600160401b0381111561537557600080fd5b61538185828601615301565b90969095509350505050565b6001600160a01b03811681146130f557600080fd5b6000602082840312156153b457600080fd5b81356127768161538d565b600080604083850312156153d257600080fd5b50508035926020909101359150565b6000806000606084860312156153f657600080fd5b83356154018161538d565b925060208401356154118161538d565b929592945050506040919091013590565b634e487b7160e01b600052604160045260246000fd5b60405160e081016001600160401b038111828210171561545a5761545a615422565b60405290565b600082601f83011261547157600080fd5b813560206001600160401b038083111561548d5761548d615422565b8260051b604051601f19603f830116810181811084821117156154b2576154b2615422565b6040529384528581018301938381019250878511156154d057600080fd5b83870191505b848210156154ef578135835291830191908301906154d6565b979650505050505050565b60006020828403121561550c57600080fd5b81356001600160401b038082111561552357600080fd5b9083019060e0828603121561553757600080fd5b61553f615438565b823581526020830135602082015260408301358281111561555f57600080fd5b61556b87828601615460565b60408301525060608301358281111561558357600080fd5b61558f87828601615460565b6060830152506080830135608082015260a0830135828111156155b157600080fd5b6155bd87828601615460565b60a08301525060c083013560c082015280935050505092915050565b600060c082840312156155eb57600080fd5b60405160c081018181106001600160401b038211171561560d5761560d615422565b8060405250823581526020830135602082015260408301356040820152606083013560608201526080830135608082015260a083013560a08201528091505092915050565b6000806000806060858703121561566857600080fd5b843593506020850135925060408501356001600160401b0381111561568c57600080fd5b61569887828801615301565b95989497509550505050565b634e487b7160e01b600052602160045260246000fd5b610100810160028a106156cf576156cf6156a4565b98815260ff97909716602088015294151560408701526001600160a01b03939093166060860152608085019190915260a084015260c083015260e09091015290565b6000806040838503121561572457600080fd5b823561572f8161538d565b946020939093013593505050565b6000806000806000806060878903121561575657600080fd5b86356001600160401b038082111561576d57600080fd5b6157798a838b01615301565b9098509650602089013591508082111561579257600080fd5b61579e8a838b01615301565b909650945060408901359150808211156157b757600080fd5b506157c489828a01615301565b979a9699509497509295939492505050565b6020808252825182820181905260009190848201906040850190845b8181101561580e578351835292840192918401916001016157f2565b50909695505050505050565b600081518084526020808501945080840160005b8381101561584a5781518752958201959082019060010161582e565b509495945050505050565b6020815281516020820152602082015160408201526040820151606082015260608201516080820152608082015160a0820152600060a08301516101008060c08501526158a661012085018361581a565b915060c085015160e085015260e0850151601f1985840301828601526158cc838261581a565b9695505050505050565b60608101600385106158ea576158ea6156a4565b9381526001600160a01b03929092166020830152151560409091015290565b6000806000806040858703121561591f57600080fd5b84356001600160401b038082111561593657600080fd5b61594288838901615301565b9096509450602087013591508082111561595b57600080fd5b5061569887828801615301565b6000806000806000806000806000806101408b8d03121561598857600080fd5b505088359a60208a01359a5060408a013599606081013599506080810135985060a0810135975060c0810135965060e081013595506101008101359450610120013592509050565b6000602082840312156159e257600080fd5b8135612776816152c3565b60208082526003908201526245303160e81b604082015260600190565b634e487b7160e01b600052601160045260246000fd5b60008219821115615a3357615a33615a0a565b500190565b6000816000190483118215151615615a5257615a52615a0a565b500290565b634e487b7160e01b600052603260045260246000fd5b6001600160a01b039384168152919092166020820152604081019190915260600190565b600060208284031215615aa357600080fd5b8151612776816152c3565b600060208284031215615ac057600080fd5b81516127768161538d565b6000600019821415615adf57615adf615a0a565b5060010190565b60208082526003908201526204536360ec1b604082015260600190565b6020808252818101527f4f776e61626c653a2063616c6c6572206973206e6f7420746865206f776e6572604082015260600190565b6001600160a01b03929092168252602082015260400190565b600082821015615b6357615b63615a0a565b500390565b634e487b7160e01b600052601260045260246000fd5b600082615b8d57615b8d615b68565b500490565b600060ff821660ff84168060ff03821115615baf57615baf615a0a565b019392505050565b600060ff821660ff811415615bce57615bce615a0a565b60010192915050565b600063ffffffff808316818516808303821115615bf657615bf6615a0a565b01949350505050565b634e487b7160e01b600052603160045260246000fd5b600082615c2457615c24615b68565b50069056fe40e6a337f1a78915df745fd02b2ca082e64e8a780a99b8fbb355f64409b399cca2646970667358221220aafb803f19036ef54aa7a74ccb1eca52736cd20add33db348e046ebc8289058164736f6c63430008090033",
    "linkReferences": {},
    "deployedLinkReferences": {}
}