{
    "_format": "hh-sol-artifact-1",
    "contractName": "MekaApesGame_2",
    "sourceName": "contracts/MekaApesGame_2.sol",
    "abi": [
        {
            "anonymous": false,
            "inputs": [
                {
                    "indexed": true,
                    "internalType": "uint256",
                    "name": "crewId",
                    "type": "uint256"
                },
                {
                    "indexed": true,
                    "internalType": "uint256",
                    "name": "tokenIds",
                    "type": "uint256"
                }
            ],
            "name": "AddToCrew",
            "type": "event"
        },
        {
            "anonymous": false,
            "inputs": [
                {
                    "indexed": true,
                    "internalType": "address",
                    "name": "user",
                    "type": "address"
                },
                {
                    "indexed": true,
                    "internalType": "uint256",
                    "name": "burnOogaId",
                    "type": "uint256"
                },
                {
                    "indexed": false,
                    "internalType": "uint256",
                    "name": "addedCredits",
                    "type": "uint256"
                }
            ],
            "name": "AddUnstakeCredits",
            "type": "event"
        },
        {
            "anonymous": false,
            "inputs": [
                {
                    "indexed": true,
                    "internalType": "uint256",
                    "name": "claimId",
                    "type": "uint256"
                },
                {
                    "indexed": true,
                    "internalType": "uint256",
                    "name": "tokenId",
                    "type": "uint256"
                },
                {
                    "indexed": false,
                    "internalType": "uint256",
                    "name": "amount",
                    "type": "uint256"
                }
            ],
            "name": "AttackReward",
            "type": "event"
        },
        {
            "anonymous": false,
            "inputs": [
                {
                    "indexed": true,
                    "internalType": "address",
                    "name": "account",
                    "type": "address"
                },
                {
                    "indexed": true,
                    "internalType": "uint256",
                    "name": "oogaId",
                    "type": "uint256"
                },
                {
                    "indexed": true,
                    "internalType": "uint256",
                    "name": "newTokenId",
                    "type": "uint256"
                }
            ],
            "name": "BabyOogaEvolve",
            "type": "event"
        },
        {
            "anonymous": false,
            "inputs": [
                {
                    "indexed": true,
                    "internalType": "uint256",
                    "name": "tokenId",
                    "type": "uint256"
                },
                {
                    "indexed": true,
                    "internalType": "address",
                    "name": "account",
                    "type": "address"
                }
            ],
            "name": "ChangeStaker",
            "type": "event"
        },
        {
            "anonymous": false,
            "inputs": [
                {
                    "indexed": true,
                    "internalType": "address",
                    "name": "account",
                    "type": "address"
                },
                {
                    "indexed": true,
                    "internalType": "uint256",
                    "name": "crewId",
                    "type": "uint256"
                },
                {
                    "indexed": false,
                    "internalType": "uint256",
                    "name": "amount",
                    "type": "uint256"
                }
            ],
            "name": "ClaimCrewReward",
            "type": "event"
        },
        {
            "anonymous": false,
            "inputs": [
                {
                    "indexed": true,
                    "internalType": "uint256",
                    "name": "claimId",
                    "type": "uint256"
                },
                {
                    "indexed": true,
                    "internalType": "address",
                    "name": "account",
                    "type": "address"
                },
                {
                    "indexed": true,
                    "internalType": "uint256",
                    "name": "tokenId",
                    "type": "uint256"
                },
                {
                    "indexed": false,
                    "internalType": "uint256",
                    "name": "amount",
                    "type": "uint256"
                }
            ],
            "name": "ClaimReward",
            "type": "event"
        },
        {
            "anonymous": false,
            "inputs": [
                {
                    "indexed": true,
                    "internalType": "address",
                    "name": "user",
                    "type": "address"
                },
                {
                    "indexed": false,
                    "internalType": "uint256",
                    "name": "reward",
                    "type": "uint256"
                }
            ],
            "name": "LeaderbordRewardClaim",
            "type": "event"
        },
        {
            "anonymous": false,
            "inputs": [
                {
                    "indexed": true,
                    "internalType": "address",
                    "name": "account",
                    "type": "address"
                },
                {
                    "indexed": true,
                    "internalType": "uint256",
                    "name": "oogaId",
                    "type": "uint256"
                },
                {
                    "indexed": true,
                    "internalType": "uint256",
                    "name": "newLevel",
                    "type": "uint256"
                }
            ],
            "name": "LevelUpRoboOoga",
            "type": "event"
        },
        {
            "anonymous": false,
            "inputs": [
                {
                    "indexed": true,
                    "internalType": "address",
                    "name": "account",
                    "type": "address"
                },
                {
                    "indexed": true,
                    "internalType": "uint256",
                    "name": "crewId",
                    "type": "uint256"
                }
            ],
            "name": "MakeCrew",
            "type": "event"
        },
        {
            "anonymous": false,
            "inputs": [
                {
                    "indexed": true,
                    "internalType": "uint256",
                    "name": "tokenId",
                    "type": "uint256"
                },
                {
                    "indexed": true,
                    "internalType": "uint256",
                    "name": "megaLevel",
                    "type": "uint256"
                }
            ],
            "name": "MegaMerged",
            "type": "event"
        },
        {
            "anonymous": false,
            "inputs": [
                {
                    "indexed": true,
                    "internalType": "uint256",
                    "name": "tokenId",
                    "type": "uint256"
                }
            ],
            "name": "MekaConvert",
            "type": "event"
        },
        {
            "anonymous": false,
            "inputs": [
                {
                    "indexed": true,
                    "internalType": "address",
                    "name": "account",
                    "type": "address"
                },
                {
                    "indexed": true,
                    "internalType": "uint256",
                    "name": "oogaIdSave",
                    "type": "uint256"
                },
                {
                    "indexed": true,
                    "internalType": "uint256",
                    "name": "oogaIdBurn",
                    "type": "uint256"
                }
            ],
            "name": "MergeMekaApes",
            "type": "event"
        },
        {
            "anonymous": false,
            "inputs": [
                {
                    "indexed": true,
                    "internalType": "address",
                    "name": "account",
                    "type": "address"
                },
                {
                    "indexed": true,
                    "internalType": "uint256",
                    "name": "startFromTokenId",
                    "type": "uint256"
                },
                {
                    "indexed": true,
                    "internalType": "uint256",
                    "name": "amount",
                    "type": "uint256"
                }
            ],
            "name": "MintMultipleRobo",
            "type": "event"
        },
        {
            "anonymous": false,
            "inputs": [
                {
                    "indexed": true,
                    "internalType": "uint256",
                    "name": "oogaId",
                    "type": "uint256"
                },
                {
                    "indexed": true,
                    "internalType": "address",
                    "name": "tributeAccount",
                    "type": "address"
                },
                {
                    "indexed": true,
                    "internalType": "uint256",
                    "name": "tributeOogaId",
                    "type": "uint256"
                }
            ],
            "name": "OogaAttacked",
            "type": "event"
        },
        {
            "anonymous": false,
            "inputs": [
                {
                    "indexed": true,
                    "internalType": "address",
                    "name": "previousOwner",
                    "type": "address"
                },
                {
                    "indexed": true,
                    "internalType": "address",
                    "name": "newOwner",
                    "type": "address"
                }
            ],
            "name": "OwnershipTransferred",
            "type": "event"
        },
        {
            "anonymous": false,
            "inputs": [
                {
                    "indexed": true,
                    "internalType": "uint256",
                    "name": "requestId",
                    "type": "uint256"
                },
                {
                    "indexed": false,
                    "internalType": "uint256",
                    "name": "entropy",
                    "type": "uint256"
                }
            ],
            "name": "ReceiveRandoms",
            "type": "event"
        },
        {
            "anonymous": false,
            "inputs": [
                {
                    "indexed": true,
                    "internalType": "uint256",
                    "name": "crewId",
                    "type": "uint256"
                }
            ],
            "name": "RemoveCrew",
            "type": "event"
        },
        {
            "anonymous": false,
            "inputs": [
                {
                    "indexed": true,
                    "internalType": "uint256",
                    "name": "crewId",
                    "type": "uint256"
                },
                {
                    "indexed": true,
                    "internalType": "uint256",
                    "name": "tokenIds",
                    "type": "uint256"
                }
            ],
            "name": "RemoveFromCrew",
            "type": "event"
        },
        {
            "anonymous": false,
            "inputs": [
                {
                    "indexed": true,
                    "internalType": "uint256",
                    "name": "requestId",
                    "type": "uint256"
                },
                {
                    "indexed": false,
                    "internalType": "uint256",
                    "name": "requestSeed",
                    "type": "uint256"
                }
            ],
            "name": "RequestRandoms",
            "type": "event"
        },
        {
            "anonymous": false,
            "inputs": [
                {
                    "indexed": true,
                    "internalType": "address",
                    "name": "account",
                    "type": "address"
                },
                {
                    "indexed": true,
                    "internalType": "uint256",
                    "name": "tokenId",
                    "type": "uint256"
                }
            ],
            "name": "RoboMint",
            "type": "event"
        },
        {
            "anonymous": false,
            "inputs": [
                {
                    "indexed": true,
                    "internalType": "uint256",
                    "name": "oogaId",
                    "type": "uint256"
                },
                {
                    "indexed": true,
                    "internalType": "address",
                    "name": "account",
                    "type": "address"
                }
            ],
            "name": "StakeOoga",
            "type": "event"
        },
        {
            "anonymous": false,
            "inputs": [
                {
                    "indexed": true,
                    "internalType": "uint256",
                    "name": "claimId",
                    "type": "uint256"
                },
                {
                    "indexed": false,
                    "internalType": "uint256",
                    "name": "totalTax",
                    "type": "uint256"
                }
            ],
            "name": "TaxReward",
            "type": "event"
        },
        {
            "anonymous": false,
            "inputs": [
                {
                    "indexed": true,
                    "internalType": "uint256",
                    "name": "oogaId",
                    "type": "uint256"
                },
                {
                    "indexed": true,
                    "internalType": "address",
                    "name": "account",
                    "type": "address"
                }
            ],
            "name": "UnstakeOoga",
            "type": "event"
        },
        {
            "inputs": [],
            "name": "ATTACK_CHANCE_DENOM",
            "outputs": [
                {
                    "internalType": "uint256",
                    "name": "",
                    "type": "uint256"
                }
            ],
            "stateMutability": "view",
            "type": "function"
        },
        {
            "inputs": [],
            "name": "addedOgForRewardsAtEnd",
            "outputs": [
                {
                    "internalType": "uint256",
                    "name": "",
                    "type": "uint256"
                }
            ],
            "stateMutability": "view",
            "type": "function"
        },
        {
            "inputs": [],
            "name": "allMintedTimestamp",
            "outputs": [
                {
                    "internalType": "uint256",
                    "name": "",
                    "type": "uint256"
                }
            ],
            "stateMutability": "view",
            "type": "function"
        },
        {
            "inputs": [],
            "name": "allTokensMinted",
            "outputs": [
                {
                    "internalType": "bool",
                    "name": "",
                    "type": "bool"
                }
            ],
            "stateMutability": "view",
            "type": "function"
        },
        {
            "inputs": [],
            "name": "baseFeeRefreshTime",
            "outputs": [
                {
                    "internalType": "uint256",
                    "name": "",
                    "type": "uint256"
                }
            ],
            "stateMutability": "view",
            "type": "function"
        },
        {
            "inputs": [],
            "name": "baseFeeUpdatedAt",
            "outputs": [
                {
                    "internalType": "uint256",
                    "name": "",
                    "type": "uint256"
                }
            ],
            "stateMutability": "view",
            "type": "function"
        },
        {
            "inputs": [
                {
                    "internalType": "uint256",
                    "name": "crewId",
                    "type": "uint256"
                },
                {
                    "internalType": "uint256[]",
                    "name": "addTokenIds",
                    "type": "uint256[]"
                },
                {
                    "internalType": "uint256[]",
                    "name": "removeTokenIds",
                    "type": "uint256[]"
                }
            ],
            "name": "changeCrew",
            "outputs": [],
            "stateMutability": "nonpayable",
            "type": "function"
        },
        {
            "inputs": [
                {
                    "internalType": "address",
                    "name": "newRecoveryWallet_",
                    "type": "address"
                }
            ],
            "name": "changeRecoverSigWallet",
            "outputs": [],
            "stateMutability": "nonpayable",
            "type": "function"
        },
        {
            "inputs": [
                {
                    "internalType": "uint256",
                    "name": "crewId",
                    "type": "uint256"
                }
            ],
            "name": "claimAvailableAmountCrew",
            "outputs": [
                {
                    "internalType": "uint256",
                    "name": "",
                    "type": "uint256"
                }
            ],
            "stateMutability": "view",
            "type": "function"
        },
        {
            "inputs": [
                {
                    "internalType": "uint256[]",
                    "name": "crewIds",
                    "type": "uint256[]"
                }
            ],
            "name": "claimAvailableAmountMultipleCrews",
            "outputs": [
                {
                    "internalType": "uint256[]",
                    "name": "result",
                    "type": "uint256[]"
                }
            ],
            "stateMutability": "view",
            "type": "function"
        },
        {
            "inputs": [
                {
                    "internalType": "uint256[]",
                    "name": "crewIds",
                    "type": "uint256[]"
                }
            ],
            "name": "claimCrewReward",
            "outputs": [],
            "stateMutability": "nonpayable",
            "type": "function"
        },
        {
            "inputs": [
                {
                    "components": [
                        {
                            "internalType": "uint256",
                            "name": "reward",
                            "type": "uint256"
                        },
                        {
                            "internalType": "uint8",
                            "name": "_v",
                            "type": "uint8"
                        },
                        {
                            "internalType": "bytes32",
                            "name": "_r",
                            "type": "bytes32"
                        },
                        {
                            "internalType": "bytes32",
                            "name": "_s",
                            "type": "bytes32"
                        }
                    ],
                    "internalType": "struct LeaderboardRewardSignature",
                    "name": "rewardSig",
                    "type": "tuple"
                }
            ],
            "name": "claimLeaderbordReward",
            "outputs": [],
            "stateMutability": "nonpayable",
            "type": "function"
        },
        {
            "inputs": [
                {
                    "internalType": "uint256",
                    "name": "",
                    "type": "uint256"
                }
            ],
            "name": "claimRequests",
            "outputs": [
                {
                    "internalType": "uint256",
                    "name": "totalMekaReward",
                    "type": "uint256"
                }
            ],
            "stateMutability": "view",
            "type": "function"
        },
        {
            "inputs": [],
            "name": "claimTax",
            "outputs": [
                {
                    "internalType": "uint256",
                    "name": "",
                    "type": "uint256"
                }
            ],
            "stateMutability": "view",
            "type": "function"
        },
        {
            "inputs": [
                {
                    "internalType": "uint256[]",
                    "name": "tokenIds",
                    "type": "uint256[]"
                }
            ],
            "name": "createCrew",
            "outputs": [],
            "stateMutability": "nonpayable",
            "type": "function"
        },
        {
            "inputs": [],
            "name": "crewClaimPercent",
            "outputs": [
                {
                    "internalType": "uint256",
                    "name": "",
                    "type": "uint256"
                }
            ],
            "stateMutability": "view",
            "type": "function"
        },
        {
            "inputs": [
                {
                    "internalType": "uint256",
                    "name": "",
                    "type": "uint256"
                }
            ],
            "name": "crews",
            "outputs": [
                {
                    "internalType": "address",
                    "name": "owner",
                    "type": "address"
                },
                {
                    "internalType": "uint256",
                    "name": "lastClaimTimestamp",
                    "type": "uint256"
                },
                {
                    "internalType": "uint256",
                    "name": "totalRewardPerSec",
                    "type": "uint256"
                },
                {
                    "internalType": "uint256",
                    "name": "savedReward",
                    "type": "uint256"
                },
                {
                    "internalType": "uint256",
                    "name": "oogaCount",
                    "type": "uint256"
                }
            ],
            "stateMutability": "view",
            "type": "function"
        },
        {
            "inputs": [],
            "name": "currentBaseFee",
            "outputs": [
                {
                    "internalType": "uint256",
                    "name": "",
                    "type": "uint256"
                }
            ],
            "stateMutability": "view",
            "type": "function"
        },
        {
            "inputs": [],
            "name": "currentOgPriceStep",
            "outputs": [
                {
                    "internalType": "uint256",
                    "name": "",
                    "type": "uint256"
                }
            ],
            "stateMutability": "view",
            "type": "function"
        },
        {
            "inputs": [],
            "name": "dmtMintAttackChance",
            "outputs": [
                {
                    "internalType": "uint256",
                    "name": "",
                    "type": "uint256"
                }
            ],
            "stateMutability": "view",
            "type": "function"
        },
        {
            "inputs": [],
            "name": "dmtToken",
            "outputs": [
                {
                    "internalType": "contract IDMT_ERC20",
                    "name": "",
                    "type": "address"
                }
            ],
            "stateMutability": "view",
            "type": "function"
        },
        {
            "inputs": [],
            "name": "erc721Contract",
            "outputs": [
                {
                    "internalType": "contract MekaApesERC721",
                    "name": "",
                    "type": "address"
                }
            ],
            "stateMutability": "view",
            "type": "function"
        },
        {
            "inputs": [],
            "name": "ethMintAttackChance",
            "outputs": [
                {
                    "internalType": "uint256",
                    "name": "",
                    "type": "uint256"
                }
            ],
            "stateMutability": "view",
            "type": "function"
        },
        {
            "inputs": [],
            "name": "gameActive",
            "outputs": [
                {
                    "internalType": "bool",
                    "name": "",
                    "type": "bool"
                }
            ],
            "stateMutability": "view",
            "type": "function"
        },
        {
            "inputs": [],
            "name": "gameContract2",
            "outputs": [
                {
                    "internalType": "address",
                    "name": "",
                    "type": "address"
                }
            ],
            "stateMutability": "view",
            "type": "function"
        },
        {
            "inputs": [
                {
                    "internalType": "uint256",
                    "name": "",
                    "type": "uint256"
                }
            ],
            "name": "inCrew",
            "outputs": [
                {
                    "internalType": "uint256",
                    "name": "",
                    "type": "uint256"
                }
            ],
            "stateMutability": "view",
            "type": "function"
        },
        {
            "inputs": [],
            "name": "initV2",
            "outputs": [
                {
                    "internalType": "bool",
                    "name": "",
                    "type": "bool"
                }
            ],
            "stateMutability": "view",
            "type": "function"
        },
        {
            "inputs": [],
            "name": "initV3",
            "outputs": [
                {
                    "internalType": "bool",
                    "name": "",
                    "type": "bool"
                }
            ],
            "stateMutability": "view",
            "type": "function"
        },
        {
            "inputs": [],
            "name": "initV4",
            "outputs": [
                {
                    "internalType": "bool",
                    "name": "",
                    "type": "bool"
                }
            ],
            "stateMutability": "view",
            "type": "function"
        },
        {
            "inputs": [],
            "name": "initV5",
            "outputs": [
                {
                    "internalType": "bool",
                    "name": "",
                    "type": "bool"
                }
            ],
            "stateMutability": "view",
            "type": "function"
        },
        {
            "inputs": [
                {
                    "internalType": "address",
                    "name": "",
                    "type": "address"
                }
            ],
            "name": "leaderboardRewardClaimed",
            "outputs": [
                {
                    "internalType": "uint256",
                    "name": "",
                    "type": "uint256"
                }
            ],
            "stateMutability": "view",
            "type": "function"
        },
        {
            "inputs": [
                {
                    "internalType": "uint256",
                    "name": "",
                    "type": "uint256"
                }
            ],
            "name": "maxCrewForMekaLevel",
            "outputs": [
                {
                    "internalType": "uint256",
                    "name": "",
                    "type": "uint256"
                }
            ],
            "stateMutability": "view",
            "type": "function"
        },
        {
            "inputs": [],
            "name": "maxMintWithDMT",
            "outputs": [
                {
                    "internalType": "uint256",
                    "name": "",
                    "type": "uint256"
                }
            ],
            "stateMutability": "view",
            "type": "function"
        },
        {
            "inputs": [],
            "name": "maxMintedRewardTokens",
            "outputs": [
                {
                    "internalType": "uint256",
                    "name": "",
                    "type": "uint256"
                }
            ],
            "stateMutability": "view",
            "type": "function"
        },
        {
            "inputs": [],
            "name": "maxOgSupply",
            "outputs": [
                {
                    "internalType": "uint256",
                    "name": "",
                    "type": "uint256"
                }
            ],
            "stateMutability": "view",
            "type": "function"
        },
        {
            "inputs": [],
            "name": "maxTokenSupply",
            "outputs": [
                {
                    "internalType": "uint256",
                    "name": "",
                    "type": "uint256"
                }
            ],
            "stateMutability": "view",
            "type": "function"
        },
        {
            "inputs": [
                {
                    "internalType": "uint256",
                    "name": "",
                    "type": "uint256"
                }
            ],
            "name": "megaLevelProbabilities",
            "outputs": [
                {
                    "internalType": "uint256",
                    "name": "",
                    "type": "uint256"
                }
            ],
            "stateMutability": "view",
            "type": "function"
        },
        {
            "inputs": [
                {
                    "internalType": "uint256",
                    "name": "",
                    "type": "uint256"
                },
                {
                    "internalType": "uint256",
                    "name": "",
                    "type": "uint256"
                }
            ],
            "name": "megaStaked",
            "outputs": [
                {
                    "internalType": "uint256",
                    "name": "",
                    "type": "uint256"
                }
            ],
            "stateMutability": "view",
            "type": "function"
        },
        {
            "inputs": [
                {
                    "internalType": "uint256",
                    "name": "",
                    "type": "uint256"
                }
            ],
            "name": "megaTributePoints",
            "outputs": [
                {
                    "internalType": "uint256",
                    "name": "",
                    "type": "uint256"
                }
            ],
            "stateMutability": "view",
            "type": "function"
        },
        {
            "inputs": [
                {
                    "internalType": "uint256",
                    "name": "",
                    "type": "uint256"
                }
            ],
            "name": "mekaCrewRewardMultiplier",
            "outputs": [
                {
                    "internalType": "uint256",
                    "name": "",
                    "type": "uint256"
                }
            ],
            "stateMutability": "view",
            "type": "function"
        },
        {
            "inputs": [
                {
                    "internalType": "uint256",
                    "name": "",
                    "type": "uint256"
                }
            ],
            "name": "mekaLevelSharePoints",
            "outputs": [
                {
                    "internalType": "uint256",
                    "name": "",
                    "type": "uint256"
                }
            ],
            "stateMutability": "view",
            "type": "function"
        },
        {
            "inputs": [],
            "name": "mekaTotalPointsStaked",
            "outputs": [
                {
                    "internalType": "uint256",
                    "name": "",
                    "type": "uint256"
                }
            ],
            "stateMutability": "view",
            "type": "function"
        },
        {
            "inputs": [],
            "name": "mekaTotalRewardPerPoint",
            "outputs": [
                {
                    "internalType": "uint256",
                    "name": "",
                    "type": "uint256"
                }
            ],
            "stateMutability": "view",
            "type": "function"
        },
        {
            "inputs": [
                {
                    "internalType": "uint256",
                    "name": "",
                    "type": "uint256"
                }
            ],
            "name": "mergeRequests",
            "outputs": [
                {
                    "internalType": "uint256",
                    "name": "",
                    "type": "uint256"
                }
            ],
            "stateMutability": "view",
            "type": "function"
        },
        {
            "inputs": [],
            "name": "midStageOverTimestamp",
            "outputs": [
                {
                    "internalType": "uint256",
                    "name": "",
                    "type": "uint256"
                }
            ],
            "stateMutability": "view",
            "type": "function"
        },
        {
            "inputs": [
                {
                    "internalType": "uint256",
                    "name": "",
                    "type": "uint256"
                }
            ],
            "name": "mintOGpriceSteps",
            "outputs": [
                {
                    "internalType": "uint256",
                    "name": "",
                    "type": "uint256"
                }
            ],
            "stateMutability": "view",
            "type": "function"
        },
        {
            "inputs": [
                {
                    "internalType": "uint256",
                    "name": "",
                    "type": "uint256"
                }
            ],
            "name": "mintRequests",
            "outputs": [
                {
                    "internalType": "uint32",
                    "name": "startFromId",
                    "type": "uint32"
                },
                {
                    "internalType": "uint8",
                    "name": "amount",
                    "type": "uint8"
                },
                {
                    "internalType": "uint8",
                    "name": "attackChance",
                    "type": "uint8"
                },
                {
                    "internalType": "bool",
                    "name": "toStake",
                    "type": "bool"
                }
            ],
            "stateMutability": "view",
            "type": "function"
        },
        {
            "inputs": [],
            "name": "mintSale",
            "outputs": [
                {
                    "internalType": "bool",
                    "name": "",
                    "type": "bool"
                }
            ],
            "stateMutability": "view",
            "type": "function"
        },
        {
            "inputs": [],
            "name": "mintSaleAmount",
            "outputs": [
                {
                    "internalType": "uint256",
                    "name": "",
                    "type": "uint256"
                }
            ],
            "stateMutability": "view",
            "type": "function"
        },
        {
            "inputs": [],
            "name": "mintSigWallet",
            "outputs": [
                {
                    "internalType": "address",
                    "name": "",
                    "type": "address"
                }
            ],
            "stateMutability": "view",
            "type": "function"
        },
        {
            "inputs": [],
            "name": "nextClaimWithoutRandomId",
            "outputs": [
                {
                    "internalType": "uint256",
                    "name": "",
                    "type": "uint256"
                }
            ],
            "stateMutability": "view",
            "type": "function"
        },
        {
            "inputs": [],
            "name": "nextCrewId",
            "outputs": [
                {
                    "internalType": "uint256",
                    "name": "",
                    "type": "uint256"
                }
            ],
            "stateMutability": "view",
            "type": "function"
        },
        {
            "inputs": [],
            "name": "nextRandomRequestId",
            "outputs": [
                {
                    "internalType": "uint256",
                    "name": "",
                    "type": "uint256"
                }
            ],
            "stateMutability": "view",
            "type": "function"
        },
        {
            "inputs": [],
            "name": "nextTokenId",
            "outputs": [
                {
                    "internalType": "uint256",
                    "name": "",
                    "type": "uint256"
                }
            ],
            "stateMutability": "view",
            "type": "function"
        },
        {
            "inputs": [
                {
                    "internalType": "address",
                    "name": "",
                    "type": "address"
                }
            ],
            "name": "numberOfMintedOogas",
            "outputs": [
                {
                    "internalType": "uint256",
                    "name": "",
                    "type": "uint256"
                }
            ],
            "stateMutability": "view",
            "type": "function"
        },
        {
            "inputs": [],
            "name": "ogMintAttackChance",
            "outputs": [
                {
                    "internalType": "uint256",
                    "name": "",
                    "type": "uint256"
                }
            ],
            "stateMutability": "view",
            "type": "function"
        },
        {
            "inputs": [],
            "name": "ogMinted",
            "outputs": [
                {
                    "internalType": "uint256",
                    "name": "",
                    "type": "uint256"
                }
            ],
            "stateMutability": "view",
            "type": "function"
        },
        {
            "inputs": [],
            "name": "ogRewardMinted",
            "outputs": [
                {
                    "internalType": "bool",
                    "name": "",
                    "type": "bool"
                }
            ],
            "stateMutability": "view",
            "type": "function"
        },
        {
            "inputs": [],
            "name": "ogToken",
            "outputs": [
                {
                    "internalType": "contract OogearERC20",
                    "name": "",
                    "type": "address"
                }
            ],
            "stateMutability": "view",
            "type": "function"
        },
        {
            "inputs": [
                {
                    "internalType": "uint256",
                    "name": "",
                    "type": "uint256"
                }
            ],
            "name": "oogaAttributes",
            "outputs": [
                {
                    "internalType": "enum OogaType",
                    "name": "oogaType",
                    "type": "uint8"
                },
                {
                    "internalType": "uint8",
                    "name": "level",
                    "type": "uint8"
                },
                {
                    "internalType": "bool",
                    "name": "staked",
                    "type": "bool"
                },
                {
                    "internalType": "address",
                    "name": "stakedOwner",
                    "type": "address"
                },
                {
                    "internalType": "uint256",
                    "name": "lastClaimTimestamp",
                    "type": "uint256"
                },
                {
                    "internalType": "uint256",
                    "name": "savedReward",
                    "type": "uint256"
                },
                {
                    "internalType": "uint256",
                    "name": "lastRewardPerPoint",
                    "type": "uint256"
                },
                {
                    "internalType": "uint256",
                    "name": "stakedMegaIndex",
                    "type": "uint256"
                }
            ],
            "stateMutability": "view",
            "type": "function"
        },
        {
            "inputs": [
                {
                    "internalType": "uint256",
                    "name": "",
                    "type": "uint256"
                }
            ],
            "name": "oogaEvolved",
            "outputs": [
                {
                    "internalType": "bool",
                    "name": "",
                    "type": "bool"
                }
            ],
            "stateMutability": "view",
            "type": "function"
        },
        {
            "inputs": [],
            "name": "oogaVerse",
            "outputs": [
                {
                    "internalType": "contract IERC721",
                    "name": "",
                    "type": "address"
                }
            ],
            "stateMutability": "view",
            "type": "function"
        },
        {
            "inputs": [],
            "name": "owner",
            "outputs": [
                {
                    "internalType": "address",
                    "name": "",
                    "type": "address"
                }
            ],
            "stateMutability": "view",
            "type": "function"
        },
        {
            "inputs": [],
            "name": "previousBaseFee",
            "outputs": [
                {
                    "internalType": "uint256",
                    "name": "",
                    "type": "uint256"
                }
            ],
            "stateMutability": "view",
            "type": "function"
        },
        {
            "inputs": [],
            "name": "prices",
            "outputs": [
                {
                    "internalType": "uint256",
                    "name": "mintPrice",
                    "type": "uint256"
                },
                {
                    "internalType": "uint256",
                    "name": "mintStakePrice",
                    "type": "uint256"
                },
                {
                    "internalType": "uint256",
                    "name": "mintDMTstakePrice",
                    "type": "uint256"
                },
                {
                    "internalType": "uint256",
                    "name": "mekaMergePrice",
                    "type": "uint256"
                }
            ],
            "stateMutability": "view",
            "type": "function"
        },
        {
            "inputs": [],
            "name": "publicMintAllowance",
            "outputs": [
                {
                    "internalType": "uint256",
                    "name": "",
                    "type": "uint256"
                }
            ],
            "stateMutability": "view",
            "type": "function"
        },
        {
            "inputs": [],
            "name": "publicMintStarted",
            "outputs": [
                {
                    "internalType": "bool",
                    "name": "",
                    "type": "bool"
                }
            ],
            "stateMutability": "view",
            "type": "function"
        },
        {
            "inputs": [],
            "name": "randomMekaProbability",
            "outputs": [
                {
                    "internalType": "uint256",
                    "name": "",
                    "type": "uint256"
                }
            ],
            "stateMutability": "view",
            "type": "function"
        },
        {
            "inputs": [],
            "name": "randomProvider",
            "outputs": [
                {
                    "internalType": "address",
                    "name": "",
                    "type": "address"
                }
            ],
            "stateMutability": "view",
            "type": "function"
        },
        {
            "inputs": [
                {
                    "internalType": "uint256",
                    "name": "",
                    "type": "uint256"
                }
            ],
            "name": "randomRequests",
            "outputs": [
                {
                    "internalType": "enum RandomRequestType",
                    "name": "requestType",
                    "type": "uint8"
                },
                {
                    "internalType": "address",
                    "name": "user",
                    "type": "address"
                },
                {
                    "internalType": "bool",
                    "name": "active",
                    "type": "bool"
                }
            ],
            "stateMutability": "view",
            "type": "function"
        },
        {
            "inputs": [],
            "name": "randomsGas",
            "outputs": [
                {
                    "internalType": "uint256",
                    "name": "mintBase",
                    "type": "uint256"
                },
                {
                    "internalType": "uint256",
                    "name": "mintPerToken",
                    "type": "uint256"
                },
                {
                    "internalType": "uint256",
                    "name": "mintPerTokenStaked",
                    "type": "uint256"
                },
                {
                    "internalType": "uint256",
                    "name": "unstakeBase",
                    "type": "uint256"
                },
                {
                    "internalType": "uint256",
                    "name": "unstakePerToken",
                    "type": "uint256"
                },
                {
                    "internalType": "uint256",
                    "name": "mergeBase",
                    "type": "uint256"
                }
            ],
            "stateMutability": "view",
            "type": "function"
        },
        {
            "inputs": [
                {
                    "components": [
                        {
                            "internalType": "uint256",
                            "name": "reward",
                            "type": "uint256"
                        },
                        {
                            "internalType": "uint8",
                            "name": "_v",
                            "type": "uint8"
                        },
                        {
                            "internalType": "bytes32",
                            "name": "_r",
                            "type": "bytes32"
                        },
                        {
                            "internalType": "bytes32",
                            "name": "_s",
                            "type": "bytes32"
                        }
                    ],
                    "internalType": "struct LeaderboardRewardSignature",
                    "name": "rewardSig",
                    "type": "tuple"
                }
            ],
            "name": "recoverLostOG",
            "outputs": [],
            "stateMutability": "nonpayable",
            "type": "function"
        },
        {
            "inputs": [
                {
                    "internalType": "uint256[]",
                    "name": "tokenIds",
                    "type": "uint256[]"
                },
                {
                    "internalType": "address",
                    "name": "oldOwner",
                    "type": "address"
                },
                {
                    "internalType": "address",
                    "name": "newOwner",
                    "type": "address"
                }
            ],
            "name": "recoverLostTokens",
            "outputs": [],
            "stateMutability": "nonpayable",
            "type": "function"
        },
        {
            "inputs": [
                {
                    "internalType": "address",
                    "name": "",
                    "type": "address"
                }
            ],
            "name": "recoverOGClaimed",
            "outputs": [
                {
                    "internalType": "uint256",
                    "name": "",
                    "type": "uint256"
                }
            ],
            "stateMutability": "view",
            "type": "function"
        },
        {
            "inputs": [],
            "name": "recoverSigWallet",
            "outputs": [
                {
                    "internalType": "address",
                    "name": "",
                    "type": "address"
                }
            ],
            "stateMutability": "view",
            "type": "function"
        },
        {
            "inputs": [
                {
                    "internalType": "uint256[]",
                    "name": "crewIds",
                    "type": "uint256[]"
                }
            ],
            "name": "removeCrew",
            "outputs": [],
            "stateMutability": "nonpayable",
            "type": "function"
        },
        {
            "inputs": [],
            "name": "renounceOwnership",
            "outputs": [],
            "stateMutability": "nonpayable",
            "type": "function"
        },
        {
            "inputs": [
                {
                    "internalType": "uint256",
                    "name": "",
                    "type": "uint256"
                }
            ],
            "name": "roboLevelupPriceOG",
            "outputs": [
                {
                    "internalType": "uint256",
                    "name": "",
                    "type": "uint256"
                }
            ],
            "stateMutability": "view",
            "type": "function"
        },
        {
            "inputs": [
                {
                    "internalType": "uint256",
                    "name": "",
                    "type": "uint256"
                }
            ],
            "name": "roboOogaMinimalRewardToUnstake",
            "outputs": [
                {
                    "internalType": "uint256",
                    "name": "",
                    "type": "uint256"
                }
            ],
            "stateMutability": "view",
            "type": "function"
        },
        {
            "inputs": [
                {
                    "internalType": "uint256",
                    "name": "",
                    "type": "uint256"
                }
            ],
            "name": "roboOogaRewardAttackProbabilities",
            "outputs": [
                {
                    "internalType": "uint256",
                    "name": "",
                    "type": "uint256"
                }
            ],
            "stateMutability": "view",
            "type": "function"
        },
        {
            "inputs": [],
            "name": "roboOogaRewardEnd",
            "outputs": [
                {
                    "internalType": "uint256",
                    "name": "",
                    "type": "uint256"
                }
            ],
            "stateMutability": "view",
            "type": "function"
        },
        {
            "inputs": [],
            "name": "roboOogaRewardIncreaseDuration",
            "outputs": [
                {
                    "internalType": "uint256",
                    "name": "",
                    "type": "uint256"
                }
            ],
            "stateMutability": "view",
            "type": "function"
        },
        {
            "inputs": [
                {
                    "internalType": "uint256",
                    "name": "",
                    "type": "uint256"
                }
            ],
            "name": "roboOogaRewardPerSec",
            "outputs": [
                {
                    "internalType": "uint256",
                    "name": "",
                    "type": "uint256"
                }
            ],
            "stateMutability": "view",
            "type": "function"
        },
        {
            "inputs": [
                {
                    "internalType": "uint256",
                    "name": "",
                    "type": "uint256"
                }
            ],
            "name": "roboOogaRewardPerSecInCrew",
            "outputs": [
                {
                    "internalType": "uint256",
                    "name": "",
                    "type": "uint256"
                }
            ],
            "stateMutability": "view",
            "type": "function"
        },
        {
            "inputs": [
                {
                    "internalType": "uint256",
                    "name": "",
                    "type": "uint256"
                }
            ],
            "name": "roboOogaRewardPerSec_midStage",
            "outputs": [
                {
                    "internalType": "uint256",
                    "name": "",
                    "type": "uint256"
                }
            ],
            "stateMutability": "view",
            "type": "function"
        },
        {
            "inputs": [],
            "name": "roboOogaRewardStart",
            "outputs": [
                {
                    "internalType": "uint256",
                    "name": "",
                    "type": "uint256"
                }
            ],
            "stateMutability": "view",
            "type": "function"
        },
        {
            "inputs": [],
            "name": "tokensMintedWithDMT",
            "outputs": [
                {
                    "internalType": "uint256",
                    "name": "",
                    "type": "uint256"
                }
            ],
            "stateMutability": "view",
            "type": "function"
        },
        {
            "inputs": [],
            "name": "totalMintETH",
            "outputs": [
                {
                    "internalType": "uint256",
                    "name": "",
                    "type": "uint256"
                }
            ],
            "stateMutability": "view",
            "type": "function"
        },
        {
            "inputs": [],
            "name": "totalMintedRewardTokens",
            "outputs": [
                {
                    "internalType": "uint256",
                    "name": "",
                    "type": "uint256"
                }
            ],
            "stateMutability": "view",
            "type": "function"
        },
        {
            "inputs": [],
            "name": "totalRandomTxFee",
            "outputs": [
                {
                    "internalType": "uint256",
                    "name": "",
                    "type": "uint256"
                }
            ],
            "stateMutability": "view",
            "type": "function"
        },
        {
            "inputs": [],
            "name": "totalRandomTxFeeWithdrawn",
            "outputs": [
                {
                    "internalType": "uint256",
                    "name": "",
                    "type": "uint256"
                }
            ],
            "stateMutability": "view",
            "type": "function"
        },
        {
            "inputs": [
                {
                    "internalType": "address",
                    "name": "newOwner",
                    "type": "address"
                }
            ],
            "name": "transferOwnership",
            "outputs": [],
            "stateMutability": "nonpayable",
            "type": "function"
        },
        {
            "inputs": [
                {
                    "internalType": "address",
                    "name": "",
                    "type": "address"
                }
            ],
            "name": "unstakeCredits",
            "outputs": [
                {
                    "internalType": "uint256",
                    "name": "",
                    "type": "uint256"
                }
            ],
            "stateMutability": "view",
            "type": "function"
        },
        {
            "inputs": [
                {
                    "internalType": "uint256",
                    "name": "",
                    "type": "uint256"
                }
            ],
            "name": "unstakeCreditsForRoboLevel",
            "outputs": [
                {
                    "internalType": "uint256",
                    "name": "",
                    "type": "uint256"
                }
            ],
            "stateMutability": "view",
            "type": "function"
        },
        {
            "inputs": [],
            "name": "unstakeCreditsStart",
            "outputs": [
                {
                    "internalType": "uint256",
                    "name": "",
                    "type": "uint256"
                }
            ],
            "stateMutability": "view",
            "type": "function"
        },
        {
            "inputs": [
                {
                    "internalType": "address",
                    "name": "",
                    "type": "address"
                }
            ],
            "name": "usedUnstakeCredits",
            "outputs": [
                {
                    "internalType": "uint256",
                    "name": "",
                    "type": "uint256"
                }
            ],
            "stateMutability": "view",
            "type": "function"
        },
        {
            "inputs": [
                {
                    "internalType": "contract IERC20",
                    "name": "token",
                    "type": "address"
                },
                {
                    "internalType": "address",
                    "name": "toAddress",
                    "type": "address"
                },
                {
                    "internalType": "uint256",
                    "name": "amount",
                    "type": "uint256"
                }
            ],
            "name": "withdrawERC20",
            "outputs": [],
            "stateMutability": "nonpayable",
            "type": "function"
        },
        {
            "inputs": [
                {
                    "internalType": "contract IERC721",
                    "name": "token",
                    "type": "address"
                },
                {
                    "internalType": "address",
                    "name": "toAddress",
                    "type": "address"
                },
                {
                    "internalType": "uint256",
                    "name": "tokenId",
                    "type": "uint256"
                }
            ],
            "name": "withdrawERC721",
            "outputs": [],
            "stateMutability": "nonpayable",
            "type": "function"
        },
        {
            "inputs": [
                {
                    "internalType": "address",
                    "name": "",
                    "type": "address"
                }
            ],
            "name": "withdrawerLastTotalMintETH",
            "outputs": [
                {
                    "internalType": "uint256",
                    "name": "",
                    "type": "uint256"
                }
            ],
            "stateMutability": "view",
            "type": "function"
        },
        {
            "inputs": [
                {
                    "internalType": "address",
                    "name": "",
                    "type": "address"
                }
            ],
            "name": "withdrawerPercent",
            "outputs": [
                {
                    "internalType": "uint256",
                    "name": "",
                    "type": "uint256"
                }
            ],
            "stateMutability": "view",
            "type": "function"
        }
    ],
    "bytecode": "0x608060405234801561001057600080fd5b50612f68806100206000396000f3fe608060405234801561001057600080fd5b506004361061055c5760003560e01c80638dc43368116102c5578063c54b73581161017d578063e6b4d60b116100e4578063ec7373ce1161009d578063ec7373ce14610d4c578063f020044f14610d6c578063f22395c814610d7e578063f2fde38b14610d87578063f3db119114610d9a578063febeb13214610da3578063ff75eece14610dac57600080fd5b8063e6b4d60b14610c98578063e6d3565514610ca1578063e6f0ba6114610caa578063e826cdf114610cbd578063e9a16bdb14610d36578063ec01952b14610d4357600080fd5b8063d385014d11610136578063d385014d14610c20578063d6ebe4fe14610c40578063d7c97fb414610c49578063d835de0614610c5c578063dd2f6d4b14610c65578063e47a58d914610c8557600080fd5b8063c54b735814610b5a578063ca067ad014610b63578063ca24964b14610bb0578063ca97f52014610bbd578063cecb2db714610bca578063d3419bf314610bea57600080fd5b8063a0e69fe61161022c578063adb98751116101e5578063adb9875114610ae0578063b56c610514610b00578063b69b2a6514610b09578063bb905c7514610b1c578063c06fda8e14610b25578063c37a576114610b2e578063c44ca13314610b5157600080fd5b8063a0e69fe614610a4b578063a4da467e14610a5d578063a4e9f29714610a70578063a549d50b14610abb578063a5b63cc914610ace578063acac98dd14610ad757600080fd5b806395044c921161027e57806395044c92146109ee578063961b294a14610a015780639624b2f914610a135780639978924114610a1c5780639e15827614610a2f5780639efbdcd014610a3857600080fd5b80638dc43368146109835780638ec14dfc146109965780638f46500e1461099f578063909e376d146109b2578063922c317a146109c557806392bbfd51146109ce57600080fd5b80634e47a79a116104185780636c4a8c171161037f5780637d151323116103385780637d151323146109315780637d5ee8e61461093a57806382ce18c614610943578063833c7fc014610956578063834e91cf1461095f578063878e9de6146109685780638da5cb5b1461097b57600080fd5b80636c4a8c17146108ba578063715018a6146108da578063729a90c8146108e257806375794a3c146108f557806376bcff4e146108fe5780637bf1b5621461091e57600080fd5b806362e6ba59116103d157806362e6ba59146107ef578063662162d51461080257806366ed6fbe1461080b5780636a8515861461081e5780636bb68664146108315780636bff95061461084457600080fd5b80634e47a79a146107a55780635072c1ee146107ae57806350f7c204146107c157806351e9a59a146107ca5780635ca2034a146107dd5780635e71cc7c146107e657600080fd5b80633186d3c9116104c75780634025feb2116104805780634025feb2146106c7578063424e6575146106dc57806344004cc114610756578063448883d714610769578063448b775314610772578063482a52781461077f578063489da8ff1461079257600080fd5b80633186d3c91461064e5780633764d26f1461066e57806338e692af146106775780633a6a6ca3146106805780633bf27cf1146106935780633e2aec28146106be57600080fd5b806311b1c1011161051957806311b1c101146105d257806319de5221146105f2578063243a7b941461060557806325782210146106255780632626b8291461062e5780632e9554d31461064157600080fd5b806301719327146105615780630181de421461057d578063035240051461058657806308a1c391146105a35780630ee9a59b146105b6578063118b8daf146105c9575b600080fd5b61056a60845481565b6040519081526020015b60405180910390f35b61056a608a5481565b6092546105939060ff1681565b6040519015158152602001610574565b61056a6105b1366004612a85565b610dbf565b61056a6105c4366004612a85565b610de0565b61056a60b75481565b61056a6105e0366004612ab3565b60be6020526000908152604090205481565b61056a610600366004612ad0565b610df0565b61056a610613366004612ab3565b60c36020526000908152604090205481565b61056a60805481565b61056a61063c366004612a85565b610e24565b60af546105939060ff1681565b61056a61065c366004612a85565b60b26020526000908152604090205481565b61056a60bd5481565b61056a60895481565b61056a61068e366004612a85565b610e34565b6067546106a6906001600160a01b031681565b6040516001600160a01b039091168152602001610574565b61056a60c25481565b6106da6106d5366004612af2565b610e44565b005b6107266106ea366004612a85565b60a36020526000908152604090205463ffffffff81169060ff6401000000008204811691650100000000008104821691600160301b9091041684565b6040805163ffffffff95909516855260ff9384166020860152919092169083015215156060820152608001610574565b6106da610764366004612af2565b610eea565b61056a607d5481565b60b8546105939060ff1681565b61056a61078d366004612a85565b610f9f565b61056a6107a0366004612a85565b610faf565b61056a60b05481565b6106da6107bc366004612b7f565b610fbf565b61056a60995481565b61056a6107d8366004612a85565b611029565b61056a60915481565b61056a60945481565b60c4546106a6906001600160a01b031681565b61056a609b5481565b61056a610819366004612a85565b611039565b6106da61082c366004612ab3565b611049565b6106da61083f366004612b7f565b61109a565b6108a6610852366004612a85565b608f602052600090815260409020805460018201546002830154600384015460049094015460ff8085169561010086048216956201000081049092169463010000009092046001600160a01b031693919288565b604051610574989796959493929190612bd7565b61056a6108c8366004612a85565b60a56020526000908152604090205481565b6106da6110ff565b61056a6108f0366004612a85565b61113a565b61056a607e5481565b61056a61090c366004612ab3565b60bb6020526000908152604090205481565b61056a61092c366004612a85565b61114a565b61056a60985481565b61056a60975481565b60bf546106a6906001600160a01b031681565b61056a609c5481565b61056a60965481565b6106da610976366004612c2e565b61115a565b6106a66112b1565b6106da610991366004612ca8565b6112c0565b61056a60a95481565b606a546106a6906001600160a01b031681565b6068546106a6906001600160a01b031681565b61056a60c15481565b61056a6109dc366004612ab3565b60a06020526000908152604090205481565b61056a6109fc366004612a85565b611413565b60ab5461059390610100900460ff1681565b61056a60c05481565b61056a610a2a366004612a85565b6114dc565b61056a60855481565b61056a610a46366004612a85565b6114ec565b60ad5461059390610100900460ff1681565b6106da610a6b366004612b7f565b6114fc565b607254607354607454607554607654607754610a8e95949392919086565b604080519687526020870195909552938501929092526060840152608083015260a082015260c001610574565b6106da610ac9366004612ca8565b611896565b61056a609e5481565b61056a60b95481565b61056a610aee366004612ab3565b60ba6020526000908152604090205481565b61056a60825481565b6066546106a6906001600160a01b031681565b61056a60ac5481565b61056a60835481565b610593610b3c366004612a85565b60906020526000908152604090205460ff1681565b61056a60aa5481565b61056a60a65481565b610ba1610b71366004612a85565b60a26020526000908152604090205460ff808216916001600160a01b0361010082041691600160a81b9091041683565b60405161057493929190612cc0565b60ad546105939060ff1681565b60ab546105939060ff1681565b610bdd610bd8366004612b7f565b6119e4565b6040516105749190612cf3565b606b54606c54606f54607154610c009392919084565b604080519485526020850193909352918301526060820152608001610574565b61056a610c2e366004612a85565b60a46020526000908152604090205481565b61056a609a5481565b6065546106a6906001600160a01b031681565b61056a60795481565b61056a610c73366004612ab3565b60936020526000908152604090205481565b6106da610c93366004612d37565b611a8d565b61056a60815481565b61056a60a85481565b6069546106a6906001600160a01b031681565b610d04610ccb366004612a85565b60b160205260009081526040902080546002820154600383015460048401546005909401546001600160a01b0390931693919290919085565b604080516001600160a01b0390961686526020860194909452928401919091526060830152608082015260a001610574565b6095546105939060ff1681565b61056a60a15481565b61056a610d5a366004612ab3565b609f6020526000908152604090205481565b60955461059390610100900460ff1681565b61056a609d5481565b6106da610d95366004612ab3565b611c69565b61056a60a75481565b61056a607f5481565b61056a610dba366004612a85565b611d09565b607c8181548110610dcf57600080fd5b600091825260209091200154905081565b60868181548110610dcf57600080fd5b608b8260048110610e0057600080fd5b018181548110610e0f57600080fd5b90600052602060002001600091509150505481565b60b68181548110610dcf57600080fd5b60788181548110610dcf57600080fd5b33610e4d6112b1565b6001600160a01b031614610e7c5760405162461bcd60e51b8152600401610e7390612d9f565b60405180910390fd5b6040516323b872dd60e01b81523060048201526001600160a01b038381166024830152604482018390528416906323b872dd906064015b600060405180830381600087803b158015610ecd57600080fd5b505af1158015610ee1573d6000803e3d6000fd5b50505050505050565b33610ef36112b1565b6001600160a01b031614610f195760405162461bcd60e51b8152600401610e7390612d9f565b60405163a9059cbb60e01b81526001600160a01b0384169063a9059cbb90610f479085908590600401612dd4565b602060405180830381600087803b158015610f6157600080fd5b505af1158015610f75573d6000803e3d6000fd5b505050506040513d601f19601f82011682018060405250810190610f999190612ded565b50505050565b60ae8181548110610dcf57600080fd5b607b8181548110610dcf57600080fd5b609554610100900460ff16610fe65760405162461bcd60e51b8152600401610e7390612e0f565b60005b818110156110245761101283838381811061100657611006612e2c565b90506020020135611d19565b8061101c81612e58565b915050610fe9565b505050565b60b48181548110610dcf57600080fd5b60b38181548110610dcf57600080fd5b336110526112b1565b6001600160a01b0316146110785760405162461bcd60e51b8152600401610e7390612d9f565b60c480546001600160a01b0319166001600160a01b0392909216919091179055565b609554610100900460ff166110c15760405162461bcd60e51b8152600401610e7390612e0f565b60005b81811015611024576110ed8383838181106110e1576110e1612e2c565b90506020020135611dc9565b806110f781612e58565b9150506110c4565b336111086112b1565b6001600160a01b03161461112e5760405162461bcd60e51b8152600401610e7390612d9f565b6111386000611f3a565b565b60878181548110610dcf57600080fd5b60888181548110610dcf57600080fd5b609554610100900460ff166111815760405162461bcd60e51b8152600401610e7390612e0f565b600085815260b16020526040902080546001600160a01b031633146111d15760405162461bcd60e51b8152600401610e73906020808252600490820152634531313160e01b604082015260600190565b6111da86611f8c565b600060b5608f6000846001016000815481106111f8576111f8612e2c565b9060005260206000200154815260200190815260200160002060000160019054906101000a900460ff1660ff168154811061123557611235612e2c565b600091825260209091200154600583015490915081908490611258908890612e73565b6112629190612e8b565b11156112995760405162461bcd60e51b8152600401610e73906020808252600490820152632298989960e11b604082015260600190565b6112a68787876000611fb5565b610ee1878585612262565b6033546001600160a01b031690565b609554610100900460ff166112e75760405162461bcd60e51b8152600401610e7390612e0f565b60405161133b906112ff903390843590602001612dd4565b60408051601f1981840301815291815261131e90840160208501612ea2565b60c4546040850135906060860135906001600160a01b0316612387565b6113705760405162461bcd60e51b8152600401610e73906020808252600490820152634532383160e01b604082015260600190565b33600090815260c36020526040902054156113b65760405162461bcd60e51b8152600401610e739060208082526004908201526322991c1960e11b604082015260600190565b33600081815260c3602052604090208235908190556113d59190612466565b60405181358152600090339082907f40e6a337f1a78915df745fd02b2ca082e64e8a780a99b8fbb355f64409b399cc9060200160405180910390a450565b600081815260b1602052604081206001810180548391608f91839190829061143d5761143d612e2c565b9060005260206000200154815260200190815260200160002090506000606460b68360000160019054906101000a900460ff1660ff168154811061148357611483612e2c565b9060005260206000200154846003015461149d9190612ec5565b6114a79190612ee4565b9050808360020154426114ba9190612e8b565b6114c49190612ec5565b83600401546114d39190612e73565b95945050505050565b60b58181548110610dcf57600080fd5b60bc8181548110610dcf57600080fd5b609554610100900460ff166115235760405162461bcd60e51b8152600401610e7390612e0f565b808061155a5760405162461bcd60e51b8152600401610e73906020808252600490820152630453132360e41b604082015260600190565b60b08054908190600061156c83612e58565b9091555050604051819033907fa6df9b8f40e16bf37c6f7f7dca55aaf3900a42a82bf36a2be3a2af68d5953f0e90600090a3600081815260b16020526040812080546001600160a01b0319163317815590608f81878782816115d0576115d0612e2c565b90506020020135815260200190815260200160002090506001808111156115f9576115f9612bc1565b815460ff16600181111561160f5761160f612bc1565b146116455760405162461bcd60e51b8152600401610e73906020808252600490820152634531323160e01b604082015260600190565b805462010000900460ff161515600114801561167157508054630100000090046001600160a01b031633145b6116a65760405162461bcd60e51b8152600401610e73906020808252600490820152634531323560e01b604082015260600190565b60b26000878760008181106116bd576116bd612e2c565b9050602002013581526020019081526020016000205460001461170b5760405162461bcd60e51b8152600401610e73906020808252600490820152634531323360e01b604082015260600190565b805460b580549091610100900460ff1690811061172a5761172a612e2c565b90600052602060002001546001856117429190612e8b565b11156117795760405162461bcd60e51b8152600401610e73906020808252600490820152632298991960e11b604082015260600190565b816001018686600081811061179057611790612e2c565b8354600181018555600094855260208086209202939093013592019190915550839060b290888882816117c5576117c5612e2c565b90506020020135815260200190815260200160002081905550858560008181106117f1576117f1612e2c565b90506020020135837f8f128424f32a4d6764618308b84307db75f4151f3580608175283d54326fe5a560405160405180910390a360006118498787600081811061183d5761183d612e2c565b90506020020135612498565b60895460038401559050611873878760008161186757611867612e2c565b90506020020135612773565b6118808488886001611fb5565b4260028401556004909201919091555050505050565b609554610100900460ff166118bd5760405162461bcd60e51b8152600401610e7390612e0f565b604051611911906118d5903390843590602001612dd4565b60408051601f198184030181529181526118f490840160208501612ea2565b6069546040850135906060860135906001600160a01b0316612387565b6119465760405162461bcd60e51b8152600401610e73906020808252600490820152634531383160e01b604082015260600190565b33600090815260be60205260409020541561198c5760405162461bcd60e51b8152600401610e739060208082526004908201526322989c1960e11b604082015260600190565b33600081815260be602052604090208235908190556119ab9190612466565b6040518135815233907f7ff7ebd87b7b8106143dae0edea4527426a4fe3c6212527521853e81340e3cc99060200160405180910390a250565b60608167ffffffffffffffff8111156119ff576119ff612f06565b604051908082528060200260200182016040528015611a28578160200160208202803683370190505b50905060005b82811015611a8657611a57848483818110611a4b57611a4b612e2c565b90506020020135611413565b828281518110611a6957611a69612e2c565b602090810291909101015280611a7e81612e58565b915050611a2e565b5092915050565b33611a966112b1565b6001600160a01b031614611abc5760405162461bcd60e51b8152600401610e7390612d9f565b60005b83811015611c62576000608f6000878785818110611adf57611adf612e2c565b90506020020135815260200190815260200160002090508060000160029054906101000a900460ff16151560011515148015611b2e575080546001600160a01b03858116630100000090920416145b611b635760405162461bcd60e51b8152600401610e73906020808252600490820152630453531360e41b604082015260600190565b60b26000878785818110611b7957611b79612e2c565b90506020020135815260200190815260200160002054600014611be357611be360b26000888886818110611baf57611baf612e2c565b90506020020135815260200190815260200160002054878785818110611bd757611bd7612e2c565b905060200201356128e8565b80546301000000600160b81b03191663010000006001600160a01b038516908102919091178255868684818110611c1c57611c1c612e2c565b905060200201357f55424963b3051f3e409ce690d992b8f49f563bc54536e3cced0f9ed16089419160405160405180910390a35080611c5a81612e58565b915050611abf565b5050505050565b33611c726112b1565b6001600160a01b031614611c985760405162461bcd60e51b8152600401610e7390612d9f565b6001600160a01b038116611cfd5760405162461bcd60e51b815260206004820152602660248201527f4f776e61626c653a206e6577206f776e657220697320746865207a65726f206160448201526564647265737360d01b6064820152608401610e73565b611d0681611f3a565b50565b607a8181548110610dcf57600080fd5b600081815260b16020526040902080546001600160a01b03163314611d695760405162461bcd60e51b8152600401610e73906020808252600490820152634531333160e01b604082015260600190565b6000611d7483611413565b426002840155600060048401559050611d8d3382612466565b604051818152839033907fb411b44bd5c76eb08732ef9d1c023d5ef94e6c9b292801e07bcae2af5e4a860b9060200160405180910390a3505050565b600081815260b16020526040902080546001600160a01b03163314611e195760405162461bcd60e51b8152600401610e73906020808252600490820152632298999960e11b604082015260600190565b611e2282611d19565b60015b6001820154811015611ea6578260b26000846001018481548110611e4b57611e4b612e2c565b90600052602060002001548152602001908152602001600020541415611e9457611e9483836001018381548110611e8457611e84612e2c565b90600052602060002001546128e8565b80611e9e81612e58565b915050611e25565b50611ed081600101600081548110611ec057611ec0612e2c565b90600052602060002001546129bf565b600060b2600083600101600081548110611eec57611eec612e2c565b9060005260206000200154815260200190815260200160002081905550817f09698112a550dd9c01c2bd871ca714f89914920cedcfeb00905d4de747159a3360405160405180910390a25050565b603380546001600160a01b038381166001600160a01b0319831681179093556040519116919082907f8be0079c531659141344cd1fd0a4f28419497f9722a3daafe3b4186f6b6457e090600090a35050565b611f9581611413565b600091825260b16020526040909120600481019190915542600290910155565b600084815260b160205260409020815b8381101561225a576000608f6000878785818110611fe557611fe5612e2c565b90506020020135815260200190815260200160002090508060000160029054906101000a900460ff1615156001151514801561203157508054630100000090046001600160a01b031633145b6120665760405162461bcd60e51b8152600401610e73906020808252600490820152634531333560e01b604082015260600190565b6000815460ff16600181111561207e5761207e612bc1565b146120b45760405162461bcd60e51b8152600401610e73906020808252600490820152634531333360e01b604082015260600190565b60b260008787858181106120ca576120ca612e2c565b905060200201358152602001908152602001600020546000146121185760405162461bcd60e51b8152600401610e7390602080825260049082015263114c4ccd60e21b604082015260600190565b61212d86868481811061183d5761183d612e2c565b600282015542600180830191909155830186868481811061215057612150612e2c565b83546001810185556000948552602094859020919094029290920135919092015550805460b480549091610100900460ff1690811061219157612191612e2c565b90600052602060002001548360030160008282546121af9190612e73565b9250508190555060018360050160008282546121cb9190612e73565b9091555087905060b260008888868181106121e8576121e8612e2c565b9050602002013581526020019081526020016000208190555085858381811061221357612213612e2c565b90506020020135877f8f128424f32a4d6764618308b84307db75f4151f3580608175283d54326fe5a560405160405180910390a3508061225281612e58565b915050611fc5565b505050505050565b60005b81811015610f99576000608f600085858581811061228557612285612e2c565b9050602002013581526020019081526020016000209050600060018111156122af576122af612bc1565b815460ff1660018111156122c5576122c5612bc1565b146122fb5760405162461bcd60e51b8152600401610e73906020808252600490820152634531343360e01b604082015260600190565b8460b2600086868681811061231257612312612e2c565b905060200201358152602001908152602001600020541461235e5760405162461bcd60e51b8152600401610e7390602080825260049082015263114c4d0d60e21b604082015260600190565b61237485858585818110611bd757611bd7612e2c565b508061237f81612e58565b915050612265565b600080868051906020012090506000816040516020016123d391907f19457468657265756d205369676e6564204d6573736167653a0a3332000000008152601c810191909152603c0190565b60408051601f198184030181528282528051602091820120600080855291840180845281905260ff8b169284019290925260608301899052608083018890529092509060019060a0016020604051602081039080840390855afa15801561243e573d6000803e3d6000fd5b5050604051601f1901516001600160a01b039081169087161494505050505095945050505050565b6066546040516340c10f1960e01b815282916001600160a01b0316906340c10f1990610eb39086908590600401612dd4565b6000818152608f602052604080822081516101008101909252805483929190829060ff1660018111156124cd576124cd612bc1565b60018111156124de576124de612bc1565b8152815460ff61010082048116602084015262010000820416151560408301526001600160a01b03630100000090910416606082015260018201546080820152600282015460a0820152600382015460c082015260049091015460e090910152905060008151600181111561255557612555612bc1565b141561272b5760a08101516000848152608f602052604090206001015460ac548110156125cb57607a836020015160ff168154811061259657612596612e2c565b90600052602060002001548160ac546125af9190612e8b565b6125b99190612ec5565b6125c39083612e73565b915060ac5490505b60c0548110156126245760ae836020015160ff16815481106125ef576125ef612e2c565b90600052602060002001548160c0546126089190612e8b565b6126129190612ec5565b61261c9083612e73565b915060c05490505b60006126308242612e8b565b9050600060c25460bd5460c1546126479190612e8b565b6126519190612ee4565b905060c2548211156126d85760028160c25460c2546126709190612ec5565b61267a9190612ec5565b6126849190612ee4565b61268e9085612e73565b935060bd5460c2546126a09190612ec5565b6126aa9085612e73565b935060c15460c254836126bd9190612e8b565b6126c79190612ec5565b6126d19085612e73565b9350612720565b6002816126e58480612ec5565b6126ef9190612ec5565b6126f99190612ee4565b6127039085612e73565b935060bd54826127139190612ec5565b61271d9085612e73565b93505b509195945050505050565b6087816020015160ff168154811061274557612745612e2c565b90600052602060002001548160c001516089546127629190612e8b565b61276c9190612ec5565b9392505050565b6000818152608f602052604090208054608780549091610100900460ff169081106127a0576127a0612e2c565b9060005260206000200154608a60008282546127bc9190612e8b565b90915550508054610100900460ff16156128dd578054600090608b90610100900460ff16600481106127f0576127f0612e2c565b8354910190600190608b90610100900460ff166004811061281357612813612e2c565b015461281f9190612e8b565b8154811061282f5761282f612e2c565b60009182526020909120015482549091508190608b90610100900460ff166004811061285d5761285d612e2c565b0183600401548154811061287357612873612e2c565b6000918252602090912001558154608b90610100900460ff166004811061289c5761289c612e2c565b018054806128ac576128ac612f1c565b600082815260208082208301600019908101839055909201909255600480850154938352608f909152604090912001555b600060049091015550565b6000818152608f602052604090205460b480549091610100900460ff1690811061291457612914612e2c565b906000526020600020015460b1600084815260200190815260200160002060030160008282546129449190612e8b565b9091555050600081815260b260209081526040808320839055608f82528083204260019182015585845260b19092528220600501805491929091612989908490612e8b565b9091555050604051819083907fbf29afa7b80118742f9b6f15e4a2f6ae38b0dc246732b5b2bdde209326c7dfca90600090a35050565b6000818152608f602052604090208054608780549091610100900460ff169081106129ec576129ec612e2c565b9060005260206000200154608a6000828254612a089190612e73565b909155505060895460038201558054610100900460ff1615612a81578054608b90610100900460ff1660048110612a4157612a41612e2c565b01546004828101919091558154608b9161010090910460ff16908110612a6957612a69612e2c565b01805460018101825560009182526020909120018290555b5050565b600060208284031215612a9757600080fd5b5035919050565b6001600160a01b0381168114611d0657600080fd5b600060208284031215612ac557600080fd5b813561276c81612a9e565b60008060408385031215612ae357600080fd5b50508035926020909101359150565b600080600060608486031215612b0757600080fd5b8335612b1281612a9e565b92506020840135612b2281612a9e565b929592945050506040919091013590565b60008083601f840112612b4557600080fd5b50813567ffffffffffffffff811115612b5d57600080fd5b6020830191508360208260051b8501011115612b7857600080fd5b9250929050565b60008060208385031215612b9257600080fd5b823567ffffffffffffffff811115612ba957600080fd5b612bb585828601612b33565b90969095509350505050565b634e487b7160e01b600052602160045260246000fd5b610100810160028a10612bec57612bec612bc1565b98815260ff97909716602088015294151560408701526001600160a01b03939093166060860152608085019190915260a084015260c083015260e09091015290565b600080600080600060608688031215612c4657600080fd5b85359450602086013567ffffffffffffffff80821115612c6557600080fd5b612c7189838a01612b33565b90965094506040880135915080821115612c8a57600080fd5b50612c9788828901612b33565b969995985093965092949392505050565b600060808284031215612cba57600080fd5b50919050565b6060810160038510612cd457612cd4612bc1565b9381526001600160a01b03929092166020830152151560409091015290565b6020808252825182820181905260009190848201906040850190845b81811015612d2b57835183529284019291840191600101612d0f565b50909695505050505050565b60008060008060608587031215612d4d57600080fd5b843567ffffffffffffffff811115612d6457600080fd5b612d7087828801612b33565b9095509350506020850135612d8481612a9e565b91506040850135612d9481612a9e565b939692955090935050565b6020808252818101527f4f776e61626c653a2063616c6c6572206973206e6f7420746865206f776e6572604082015260600190565b6001600160a01b03929092168252602082015260400190565b600060208284031215612dff57600080fd5b8151801515811461276c57600080fd5b60208082526003908201526245303160e81b604082015260600190565b634e487b7160e01b600052603260045260246000fd5b634e487b7160e01b600052601160045260246000fd5b6000600019821415612e6c57612e6c612e42565b5060010190565b60008219821115612e8657612e86612e42565b500190565b600082821015612e9d57612e9d612e42565b500390565b600060208284031215612eb457600080fd5b813560ff8116811461276c57600080fd5b6000816000190483118215151615612edf57612edf612e42565b500290565b600082612f0157634e487b7160e01b600052601260045260246000fd5b500490565b634e487b7160e01b600052604160045260246000fd5b634e487b7160e01b600052603160045260246000fdfea264697066735822122015c84d940d930934b5c1aa9d054ed300ce82c61c32eebed5f9d48e264084738464736f6c63430008090033",
    "linkReferences": {},
    "deployedLinkReferences": {}
}