{
    "_format": "hh-sol-artifact-1",
    "contractName": "MekaApesGame",
    "sourceName": "contracts/MekaApesGame.sol",
    "abi": [
        {
            "anonymous": false,
            "inputs": [
                {
                    "indexed": true,
                    "internalType": "uint256",
                    "name": "crewId",
                    "type": "uint256"
                },
                {
                    "indexed": true,
                    "internalType": "uint256",
                    "name": "tokenIds",
                    "type": "uint256"
                }
            ],
            "name": "AddToCrew",
            "type": "event"
        },
        {
            "anonymous": false,
            "inputs": [
                {
                    "indexed": true,
                    "internalType": "address",
                    "name": "user",
                    "type": "address"
                },
                {
                    "indexed": true,
                    "internalType": "uint256",
                    "name": "burnOogaId",
                    "type": "uint256"
                },
                {
                    "indexed": false,
                    "internalType": "uint256",
                    "name": "addedCredits",
                    "type": "uint256"
                }
            ],
            "name": "AddUnstakeCredits",
            "type": "event"
        },
        {
            "anonymous": false,
            "inputs": [
                {
                    "indexed": true,
                    "internalType": "uint256",
                    "name": "claimId",
                    "type": "uint256"
                },
                {
                    "indexed": true,
                    "internalType": "uint256",
                    "name": "tokenId",
                    "type": "uint256"
                },
                {
                    "indexed": false,
                    "internalType": "uint256",
                    "name": "amount",
                    "type": "uint256"
                }
            ],
            "name": "AttackReward",
            "type": "event"
        },
        {
            "anonymous": false,
            "inputs": [
                {
                    "indexed": true,
                    "internalType": "address",
                    "name": "account",
                    "type": "address"
                },
                {
                    "indexed": true,
                    "internalType": "uint256",
                    "name": "oogaId",
                    "type": "uint256"
                },
                {
                    "indexed": true,
                    "internalType": "uint256",
                    "name": "newTokenId",
                    "type": "uint256"
                }
            ],
            "name": "BabyOogaEvolve",
            "type": "event"
        },
        {
            "anonymous": false,
            "inputs": [
                {
                    "indexed": true,
                    "internalType": "address",
                    "name": "account",
                    "type": "address"
                },
                {
                    "indexed": true,
                    "internalType": "uint256",
                    "name": "crewId",
                    "type": "uint256"
                },
                {
                    "indexed": false,
                    "internalType": "uint256",
                    "name": "amount",
                    "type": "uint256"
                }
            ],
            "name": "ClaimCrewReward",
            "type": "event"
        },
        {
            "anonymous": false,
            "inputs": [
                {
                    "indexed": true,
                    "internalType": "uint256",
                    "name": "claimId",
                    "type": "uint256"
                },
                {
                    "indexed": true,
                    "internalType": "address",
                    "name": "account",
                    "type": "address"
                },
                {
                    "indexed": true,
                    "internalType": "uint256",
                    "name": "tokenId",
                    "type": "uint256"
                },
                {
                    "indexed": false,
                    "internalType": "uint256",
                    "name": "amount",
                    "type": "uint256"
                }
            ],
            "name": "ClaimReward",
            "type": "event"
        },
        {
            "anonymous": false,
            "inputs": [
                {
                    "indexed": true,
                    "internalType": "address",
                    "name": "user",
                    "type": "address"
                },
                {
                    "indexed": false,
                    "internalType": "uint256",
                    "name": "reward",
                    "type": "uint256"
                }
            ],
            "name": "LeaderbordRewardClaim",
            "type": "event"
        },
        {
            "anonymous": false,
            "inputs": [
                {
                    "indexed": true,
                    "internalType": "address",
                    "name": "account",
                    "type": "address"
                },
                {
                    "indexed": true,
                    "internalType": "uint256",
                    "name": "oogaId",
                    "type": "uint256"
                },
                {
                    "indexed": false,
                    "internalType": "uint256",
                    "name": "newLevel",
                    "type": "uint256"
                }
            ],
            "name": "LevelUpRoboOoga",
            "type": "event"
        },
        {
            "anonymous": false,
            "inputs": [
                {
                    "indexed": true,
                    "internalType": "address",
                    "name": "account",
                    "type": "address"
                },
                {
                    "indexed": true,
                    "internalType": "uint256",
                    "name": "crewId",
                    "type": "uint256"
                }
            ],
            "name": "MakeCrew",
            "type": "event"
        },
        {
            "anonymous": false,
            "inputs": [
                {
                    "indexed": true,
                    "internalType": "uint256",
                    "name": "tokenId",
                    "type": "uint256"
                },
                {
                    "indexed": false,
                    "internalType": "uint256",
                    "name": "megaLevel",
                    "type": "uint256"
                }
            ],
            "name": "MegaMerged",
            "type": "event"
        },
        {
            "anonymous": false,
            "inputs": [
                {
                    "indexed": true,
                    "internalType": "uint256",
                    "name": "tokenId",
                    "type": "uint256"
                }
            ],
            "name": "MekaConvert",
            "type": "event"
        },
        {
            "anonymous": false,
            "inputs": [
                {
                    "indexed": true,
                    "internalType": "address",
                    "name": "account",
                    "type": "address"
                },
                {
                    "indexed": false,
                    "internalType": "uint256",
                    "name": "oogaIdSave",
                    "type": "uint256"
                },
                {
                    "indexed": true,
                    "internalType": "uint256",
                    "name": "oogaIdBurn",
                    "type": "uint256"
                }
            ],
            "name": "MergeMekaApes",
            "type": "event"
        },
        {
            "anonymous": false,
            "inputs": [
                {
                    "indexed": true,
                    "internalType": "address",
                    "name": "account",
                    "type": "address"
                },
                {
                    "indexed": false,
                    "internalType": "uint256",
                    "name": "startFromTokenId",
                    "type": "uint256"
                },
                {
                    "indexed": false,
                    "internalType": "uint256",
                    "name": "amount",
                    "type": "uint256"
                }
            ],
            "name": "MintMultipleRobo",
            "type": "event"
        },
        {
            "anonymous": false,
            "inputs": [
                {
                    "indexed": true,
                    "internalType": "uint256",
                    "name": "oogaId",
                    "type": "uint256"
                },
                {
                    "indexed": true,
                    "internalType": "address",
                    "name": "tributeAccount",
                    "type": "address"
                },
                {
                    "indexed": false,
                    "internalType": "uint256",
                    "name": "tributeOogaId",
                    "type": "uint256"
                }
            ],
            "name": "OogaAttacked",
            "type": "event"
        },
        {
            "anonymous": false,
            "inputs": [
                {
                    "indexed": true,
                    "internalType": "address",
                    "name": "previousOwner",
                    "type": "address"
                },
                {
                    "indexed": true,
                    "internalType": "address",
                    "name": "newOwner",
                    "type": "address"
                }
            ],
            "name": "OwnershipTransferred",
            "type": "event"
        },
        {
            "anonymous": false,
            "inputs": [
                {
                    "indexed": true,
                    "internalType": "uint256",
                    "name": "requestId",
                    "type": "uint256"
                },
                {
                    "indexed": false,
                    "internalType": "uint256",
                    "name": "entropy",
                    "type": "uint256"
                }
            ],
            "name": "ReceiveRandoms",
            "type": "event"
        },
        {
            "anonymous": false,
            "inputs": [
                {
                    "indexed": true,
                    "internalType": "uint256",
                    "name": "crewId",
                    "type": "uint256"
                }
            ],
            "name": "RemoveCrew",
            "type": "event"
        },
        {
            "anonymous": false,
            "inputs": [
                {
                    "indexed": true,
                    "internalType": "uint256",
                    "name": "crewId",
                    "type": "uint256"
                },
                {
                    "indexed": true,
                    "internalType": "uint256",
                    "name": "tokenIds",
                    "type": "uint256"
                }
            ],
            "name": "RemoveFromCrew",
            "type": "event"
        },
        {
            "anonymous": false,
            "inputs": [
                {
                    "indexed": true,
                    "internalType": "uint256",
                    "name": "requestId",
                    "type": "uint256"
                },
                {
                    "indexed": false,
                    "internalType": "uint256",
                    "name": "requestSeed",
                    "type": "uint256"
                }
            ],
            "name": "RequestRandoms",
            "type": "event"
        },
        {
            "anonymous": false,
            "inputs": [
                {
                    "indexed": true,
                    "internalType": "address",
                    "name": "account",
                    "type": "address"
                },
                {
                    "indexed": true,
                    "internalType": "uint256",
                    "name": "tokenId",
                    "type": "uint256"
                }
            ],
            "name": "RoboMint",
            "type": "event"
        },
        {
            "anonymous": false,
            "inputs": [
                {
                    "indexed": true,
                    "internalType": "uint256",
                    "name": "oogaId",
                    "type": "uint256"
                },
                {
                    "indexed": true,
                    "internalType": "address",
                    "name": "account",
                    "type": "address"
                }
            ],
            "name": "StakeOoga",
            "type": "event"
        },
        {
            "anonymous": false,
            "inputs": [
                {
                    "indexed": true,
                    "internalType": "uint256",
                    "name": "claimId",
                    "type": "uint256"
                },
                {
                    "indexed": false,
                    "internalType": "uint256",
                    "name": "totalTax",
                    "type": "uint256"
                }
            ],
            "name": "TaxReward",
            "type": "event"
        },
        {
            "anonymous": false,
            "inputs": [
                {
                    "indexed": true,
                    "internalType": "uint256",
                    "name": "oogaId",
                    "type": "uint256"
                },
                {
                    "indexed": true,
                    "internalType": "address",
                    "name": "account",
                    "type": "address"
                }
            ],
            "name": "UnstakeOoga",
            "type": "event"
        },
        {
            "inputs": [],
            "name": "ATTACK_CHANCE_DENOM",
            "outputs": [
                {
                    "internalType": "uint256",
                    "name": "",
                    "type": "uint256"
                }
            ],
            "stateMutability": "view",
            "type": "function"
        },
        {
            "inputs": [],
            "name": "CLAIM_TAX_DENOM",
            "outputs": [
                {
                    "internalType": "uint256",
                    "name": "",
                    "type": "uint256"
                }
            ],
            "stateMutability": "view",
            "type": "function"
        },
        {
            "inputs": [],
            "name": "addedOgForRewardsAtEnd",
            "outputs": [
                {
                    "internalType": "uint256",
                    "name": "",
                    "type": "uint256"
                }
            ],
            "stateMutability": "view",
            "type": "function"
        },
        {
            "inputs": [],
            "name": "allMintedTimestamp",
            "outputs": [
                {
                    "internalType": "uint256",
                    "name": "",
                    "type": "uint256"
                }
            ],
            "stateMutability": "view",
            "type": "function"
        },
        {
            "inputs": [],
            "name": "allTokensMinted",
            "outputs": [
                {
                    "internalType": "bool",
                    "name": "",
                    "type": "bool"
                }
            ],
            "stateMutability": "view",
            "type": "function"
        },
        {
            "inputs": [],
            "name": "baseFeeRefreshTime",
            "outputs": [
                {
                    "internalType": "uint256",
                    "name": "",
                    "type": "uint256"
                }
            ],
            "stateMutability": "view",
            "type": "function"
        },
        {
            "inputs": [],
            "name": "baseFeeUpdatedAt",
            "outputs": [
                {
                    "internalType": "uint256",
                    "name": "",
                    "type": "uint256"
                }
            ],
            "stateMutability": "view",
            "type": "function"
        },
        {
            "inputs": [
                {
                    "internalType": "uint256[]",
                    "name": "tokenIds",
                    "type": "uint256[]"
                }
            ],
            "name": "burnOogaForUnstakeCredits",
            "outputs": [],
            "stateMutability": "nonpayable",
            "type": "function"
        },
        {
            "inputs": [
                {
                    "internalType": "uint256",
                    "name": "crewId",
                    "type": "uint256"
                },
                {
                    "internalType": "uint256[]",
                    "name": "addTokenIds",
                    "type": "uint256[]"
                },
                {
                    "internalType": "uint256[]",
                    "name": "removeTokenIds",
                    "type": "uint256[]"
                }
            ],
            "name": "changeCrew",
            "outputs": [],
            "stateMutability": "nonpayable",
            "type": "function"
        },
        {
            "inputs": [
                {
                    "internalType": "bool",
                    "name": "gameActive_",
                    "type": "bool"
                }
            ],
            "name": "changeGameActive",
            "outputs": [],
            "stateMutability": "nonpayable",
            "type": "function"
        },
        {
            "inputs": [
                {
                    "internalType": "contract MekaApesGameHelper",
                    "name": "helperContract_",
                    "type": "address"
                }
            ],
            "name": "changeHelperContract",
            "outputs": [],
            "stateMutability": "nonpayable",
            "type": "function"
        },
        {
            "inputs": [
                {
                    "components": [
                        {
                            "internalType": "uint256",
                            "name": "mintPrice",
                            "type": "uint256"
                        },
                        {
                            "internalType": "uint256",
                            "name": "mintStakePrice",
                            "type": "uint256"
                        },
                        {
                            "internalType": "uint256[]",
                            "name": "mintOGprice",
                            "type": "uint256[]"
                        },
                        {
                            "internalType": "uint256[]",
                            "name": "mintOGstakePrice",
                            "type": "uint256[]"
                        },
                        {
                            "internalType": "uint256",
                            "name": "mintDMTstakePrice",
                            "type": "uint256"
                        },
                        {
                            "internalType": "uint256[]",
                            "name": "roboLevelupPrice",
                            "type": "uint256[]"
                        },
                        {
                            "internalType": "uint256",
                            "name": "mekaMergePrice",
                            "type": "uint256"
                        }
                    ],
                    "internalType": "struct Prices",
                    "name": "prices_",
                    "type": "tuple"
                }
            ],
            "name": "changePrices",
            "outputs": [],
            "stateMutability": "nonpayable",
            "type": "function"
        },
        {
            "inputs": [
                {
                    "internalType": "uint256",
                    "name": "tokenId",
                    "type": "uint256"
                }
            ],
            "name": "claimAvailableAmount",
            "outputs": [
                {
                    "internalType": "uint256",
                    "name": "",
                    "type": "uint256"
                }
            ],
            "stateMutability": "view",
            "type": "function"
        },
        {
            "inputs": [
                {
                    "internalType": "uint256",
                    "name": "crewId",
                    "type": "uint256"
                }
            ],
            "name": "claimAvailableAmountCrew",
            "outputs": [
                {
                    "internalType": "uint256",
                    "name": "",
                    "type": "uint256"
                }
            ],
            "stateMutability": "view",
            "type": "function"
        },
        {
            "inputs": [
                {
                    "internalType": "uint256[]",
                    "name": "crewIds",
                    "type": "uint256[]"
                }
            ],
            "name": "claimAvailableAmountMultipleCrews",
            "outputs": [
                {
                    "internalType": "uint256[]",
                    "name": "result",
                    "type": "uint256[]"
                }
            ],
            "stateMutability": "view",
            "type": "function"
        },
        {
            "inputs": [
                {
                    "internalType": "uint256[]",
                    "name": "tokenIds",
                    "type": "uint256[]"
                }
            ],
            "name": "claimAvailableAmountMultipleTokens",
            "outputs": [
                {
                    "internalType": "uint256[]",
                    "name": "result",
                    "type": "uint256[]"
                }
            ],
            "stateMutability": "view",
            "type": "function"
        },
        {
            "inputs": [
                {
                    "internalType": "uint256[]",
                    "name": "crewIds",
                    "type": "uint256[]"
                }
            ],
            "name": "claimCrewReward",
            "outputs": [],
            "stateMutability": "nonpayable",
            "type": "function"
        },
        {
            "inputs": [
                {
                    "components": [
                        {
                            "internalType": "uint256",
                            "name": "reward",
                            "type": "uint256"
                        },
                        {
                            "internalType": "uint8",
                            "name": "_v",
                            "type": "uint8"
                        },
                        {
                            "internalType": "bytes32",
                            "name": "_r",
                            "type": "bytes32"
                        },
                        {
                            "internalType": "bytes32",
                            "name": "_s",
                            "type": "bytes32"
                        }
                    ],
                    "internalType": "struct LeaderboardRewardSignature",
                    "name": "rewardSig",
                    "type": "tuple"
                }
            ],
            "name": "claimLeaderbordReward",
            "outputs": [],
            "stateMutability": "nonpayable",
            "type": "function"
        },
        {
            "inputs": [
                {
                    "internalType": "uint256",
                    "name": "",
                    "type": "uint256"
                }
            ],
            "name": "claimRequests",
            "outputs": [
                {
                    "internalType": "uint256",
                    "name": "totalMekaReward",
                    "type": "uint256"
                }
            ],
            "stateMutability": "view",
            "type": "function"
        },
        {
            "inputs": [
                {
                    "internalType": "uint256[]",
                    "name": "tokenIds",
                    "type": "uint256[]"
                }
            ],
            "name": "claimReward",
            "outputs": [],
            "stateMutability": "nonpayable",
            "type": "function"
        },
        {
            "inputs": [],
            "name": "claimTax",
            "outputs": [
                {
                    "internalType": "uint256",
                    "name": "",
                    "type": "uint256"
                }
            ],
            "stateMutability": "view",
            "type": "function"
        },
        {
            "inputs": [
                {
                    "internalType": "uint256[]",
                    "name": "tokenIds",
                    "type": "uint256[]"
                }
            ],
            "name": "createCrew",
            "outputs": [],
            "stateMutability": "nonpayable",
            "type": "function"
        },
        {
            "inputs": [],
            "name": "crewClaimPercent",
            "outputs": [
                {
                    "internalType": "uint256",
                    "name": "",
                    "type": "uint256"
                }
            ],
            "stateMutability": "view",
            "type": "function"
        },
        {
            "inputs": [
                {
                    "internalType": "uint256",
                    "name": "",
                    "type": "uint256"
                }
            ],
            "name": "crews",
            "outputs": [
                {
                    "internalType": "address",
                    "name": "owner",
                    "type": "address"
                },
                {
                    "internalType": "uint256",
                    "name": "lastClaimTimestamp",
                    "type": "uint256"
                },
                {
                    "internalType": "uint256",
                    "name": "totalRewardPerSec",
                    "type": "uint256"
                },
                {
                    "internalType": "uint256",
                    "name": "savedReward",
                    "type": "uint256"
                }
            ],
            "stateMutability": "view",
            "type": "function"
        },
        {
            "inputs": [],
            "name": "currentBaseFee",
            "outputs": [
                {
                    "internalType": "uint256",
                    "name": "",
                    "type": "uint256"
                }
            ],
            "stateMutability": "view",
            "type": "function"
        },
        {
            "inputs": [],
            "name": "currentOgPriceStep",
            "outputs": [
                {
                    "internalType": "uint256",
                    "name": "",
                    "type": "uint256"
                }
            ],
            "stateMutability": "view",
            "type": "function"
        },
        {
            "inputs": [],
            "name": "dmtMintAttackChance",
            "outputs": [
                {
                    "internalType": "uint256",
                    "name": "",
                    "type": "uint256"
                }
            ],
            "stateMutability": "view",
            "type": "function"
        },
        {
            "inputs": [],
            "name": "dmtToken",
            "outputs": [
                {
                    "internalType": "contract IDMT_ERC20",
                    "name": "",
                    "type": "address"
                }
            ],
            "stateMutability": "view",
            "type": "function"
        },
        {
            "inputs": [],
            "name": "erc721Contract",
            "outputs": [
                {
                    "internalType": "contract MekaApesERC721",
                    "name": "",
                    "type": "address"
                }
            ],
            "stateMutability": "view",
            "type": "function"
        },
        {
            "inputs": [],
            "name": "ethMintAttackChance",
            "outputs": [
                {
                    "internalType": "uint256",
                    "name": "",
                    "type": "uint256"
                }
            ],
            "stateMutability": "view",
            "type": "function"
        },
        {
            "inputs": [
                {
                    "internalType": "uint256[]",
                    "name": "tokenIds",
                    "type": "uint256[]"
                }
            ],
            "name": "evolveBabyOogas",
            "outputs": [],
            "stateMutability": "nonpayable",
            "type": "function"
        },
        {
            "inputs": [],
            "name": "gameActive",
            "outputs": [
                {
                    "internalType": "bool",
                    "name": "",
                    "type": "bool"
                }
            ],
            "stateMutability": "view",
            "type": "function"
        },
        {
            "inputs": [],
            "name": "getPrices",
            "outputs": [
                {
                    "components": [
                        {
                            "internalType": "uint256",
                            "name": "mintPrice",
                            "type": "uint256"
                        },
                        {
                            "internalType": "uint256",
                            "name": "mintStakePrice",
                            "type": "uint256"
                        },
                        {
                            "internalType": "uint256",
                            "name": "mintOGprice",
                            "type": "uint256"
                        },
                        {
                            "internalType": "uint256",
                            "name": "mintOGstakePrice",
                            "type": "uint256"
                        },
                        {
                            "internalType": "uint256",
                            "name": "mintDMTstakePrice",
                            "type": "uint256"
                        },
                        {
                            "internalType": "uint256[]",
                            "name": "roboLevelupPrice",
                            "type": "uint256[]"
                        },
                        {
                            "internalType": "uint256",
                            "name": "mekaMergePrice",
                            "type": "uint256"
                        },
                        {
                            "internalType": "uint256[]",
                            "name": "roboLevelupPriceOG",
                            "type": "uint256[]"
                        }
                    ],
                    "internalType": "struct PricesGetter",
                    "name": "",
                    "type": "tuple"
                }
            ],
            "stateMutability": "view",
            "type": "function"
        },
        {
            "inputs": [
                {
                    "internalType": "address",
                    "name": "user",
                    "type": "address"
                }
            ],
            "name": "getUnstakeCreditsForAddress",
            "outputs": [
                {
                    "internalType": "uint256",
                    "name": "",
                    "type": "uint256"
                }
            ],
            "stateMutability": "view",
            "type": "function"
        },
        {
            "inputs": [
                {
                    "internalType": "uint256",
                    "name": "",
                    "type": "uint256"
                }
            ],
            "name": "inCrew",
            "outputs": [
                {
                    "internalType": "uint256",
                    "name": "",
                    "type": "uint256"
                }
            ],
            "stateMutability": "view",
            "type": "function"
        },
        {
            "inputs": [],
            "name": "initV2",
            "outputs": [
                {
                    "internalType": "bool",
                    "name": "",
                    "type": "bool"
                }
            ],
            "stateMutability": "view",
            "type": "function"
        },
        {
            "inputs": [],
            "name": "initV3",
            "outputs": [
                {
                    "internalType": "bool",
                    "name": "",
                    "type": "bool"
                }
            ],
            "stateMutability": "view",
            "type": "function"
        },
        {
            "inputs": [],
            "name": "initV4",
            "outputs": [
                {
                    "internalType": "bool",
                    "name": "",
                    "type": "bool"
                }
            ],
            "stateMutability": "view",
            "type": "function"
        },
        {
            "inputs": [],
            "name": "initV5",
            "outputs": [
                {
                    "internalType": "bool",
                    "name": "",
                    "type": "bool"
                }
            ],
            "stateMutability": "view",
            "type": "function"
        },
        {
            "inputs": [
                {
                    "internalType": "uint256",
                    "name": "oogaId",
                    "type": "uint256"
                }
            ],
            "name": "isBabyOogaEvolved",
            "outputs": [
                {
                    "internalType": "bool",
                    "name": "",
                    "type": "bool"
                }
            ],
            "stateMutability": "view",
            "type": "function"
        },
        {
            "inputs": [
                {
                    "internalType": "address",
                    "name": "",
                    "type": "address"
                }
            ],
            "name": "leaderboardRewardClaimed",
            "outputs": [
                {
                    "internalType": "uint256",
                    "name": "",
                    "type": "uint256"
                }
            ],
            "stateMutability": "view",
            "type": "function"
        },
        {
            "inputs": [
                {
                    "internalType": "uint256",
                    "name": "tokenId",
                    "type": "uint256"
                },
                {
                    "internalType": "uint256",
                    "name": "numberOfLevels",
                    "type": "uint256"
                }
            ],
            "name": "levelUpRoboOoga",
            "outputs": [],
            "stateMutability": "nonpayable",
            "type": "function"
        },
        {
            "inputs": [
                {
                    "internalType": "uint256",
                    "name": "tokenId",
                    "type": "uint256"
                },
                {
                    "internalType": "uint256",
                    "name": "numberOfLevels",
                    "type": "uint256"
                },
                {
                    "internalType": "uint256[]",
                    "name": "burnTokenIds",
                    "type": "uint256[]"
                }
            ],
            "name": "levelUpRoboOogaWithOG",
            "outputs": [],
            "stateMutability": "nonpayable",
            "type": "function"
        },
        {
            "inputs": [
                {
                    "internalType": "uint256",
                    "name": "",
                    "type": "uint256"
                }
            ],
            "name": "maxCrewForMekaLevel",
            "outputs": [
                {
                    "internalType": "uint256",
                    "name": "",
                    "type": "uint256"
                }
            ],
            "stateMutability": "view",
            "type": "function"
        },
        {
            "inputs": [],
            "name": "maxMintWithDMT",
            "outputs": [
                {
                    "internalType": "uint256",
                    "name": "",
                    "type": "uint256"
                }
            ],
            "stateMutability": "view",
            "type": "function"
        },
        {
            "inputs": [],
            "name": "maxMintedRewardTokens",
            "outputs": [
                {
                    "internalType": "uint256",
                    "name": "",
                    "type": "uint256"
                }
            ],
            "stateMutability": "view",
            "type": "function"
        },
        {
            "inputs": [],
            "name": "maxOgSupply",
            "outputs": [
                {
                    "internalType": "uint256",
                    "name": "",
                    "type": "uint256"
                }
            ],
            "stateMutability": "view",
            "type": "function"
        },
        {
            "inputs": [],
            "name": "maxTokenSupply",
            "outputs": [
                {
                    "internalType": "uint256",
                    "name": "",
                    "type": "uint256"
                }
            ],
            "stateMutability": "view",
            "type": "function"
        },
        {
            "inputs": [
                {
                    "internalType": "uint256",
                    "name": "",
                    "type": "uint256"
                }
            ],
            "name": "megaLevelProbabilities",
            "outputs": [
                {
                    "internalType": "uint256",
                    "name": "",
                    "type": "uint256"
                }
            ],
            "stateMutability": "view",
            "type": "function"
        },
        {
            "inputs": [
                {
                    "internalType": "uint256",
                    "name": "",
                    "type": "uint256"
                },
                {
                    "internalType": "uint256",
                    "name": "",
                    "type": "uint256"
                }
            ],
            "name": "megaStaked",
            "outputs": [
                {
                    "internalType": "uint256",
                    "name": "",
                    "type": "uint256"
                }
            ],
            "stateMutability": "view",
            "type": "function"
        },
        {
            "inputs": [
                {
                    "internalType": "uint256",
                    "name": "",
                    "type": "uint256"
                }
            ],
            "name": "megaTributePoints",
            "outputs": [
                {
                    "internalType": "uint256",
                    "name": "",
                    "type": "uint256"
                }
            ],
            "stateMutability": "view",
            "type": "function"
        },
        {
            "inputs": [
                {
                    "internalType": "uint256",
                    "name": "",
                    "type": "uint256"
                }
            ],
            "name": "mekaCrewRewardMultiplier",
            "outputs": [
                {
                    "internalType": "uint256",
                    "name": "",
                    "type": "uint256"
                }
            ],
            "stateMutability": "view",
            "type": "function"
        },
        {
            "inputs": [
                {
                    "internalType": "uint256",
                    "name": "",
                    "type": "uint256"
                }
            ],
            "name": "mekaLevelSharePoints",
            "outputs": [
                {
                    "internalType": "uint256",
                    "name": "",
                    "type": "uint256"
                }
            ],
            "stateMutability": "view",
            "type": "function"
        },
        {
            "inputs": [],
            "name": "mekaTotalPointsStaked",
            "outputs": [
                {
                    "internalType": "uint256",
                    "name": "",
                    "type": "uint256"
                }
            ],
            "stateMutability": "view",
            "type": "function"
        },
        {
            "inputs": [],
            "name": "mekaTotalRewardPerPoint",
            "outputs": [
                {
                    "internalType": "uint256",
                    "name": "",
                    "type": "uint256"
                }
            ],
            "stateMutability": "view",
            "type": "function"
        },
        {
            "inputs": [
                {
                    "internalType": "uint256",
                    "name": "tokenIdSave",
                    "type": "uint256"
                },
                {
                    "internalType": "uint256",
                    "name": "tokenIdBurn",
                    "type": "uint256"
                }
            ],
            "name": "mergeMekaApes",
            "outputs": [],
            "stateMutability": "payable",
            "type": "function"
        },
        {
            "inputs": [],
            "name": "mergeRandomGas",
            "outputs": [
                {
                    "internalType": "uint256",
                    "name": "",
                    "type": "uint256"
                }
            ],
            "stateMutability": "view",
            "type": "function"
        },
        {
            "inputs": [
                {
                    "internalType": "uint256",
                    "name": "",
                    "type": "uint256"
                }
            ],
            "name": "mergeRequests",
            "outputs": [
                {
                    "internalType": "uint256",
                    "name": "",
                    "type": "uint256"
                }
            ],
            "stateMutability": "view",
            "type": "function"
        },
        {
            "inputs": [
                {
                    "internalType": "uint256",
                    "name": "",
                    "type": "uint256"
                }
            ],
            "name": "mintOGpriceSteps",
            "outputs": [
                {
                    "internalType": "uint256",
                    "name": "",
                    "type": "uint256"
                }
            ],
            "stateMutability": "view",
            "type": "function"
        },
        {
            "inputs": [
                {
                    "internalType": "uint256",
                    "name": "amount",
                    "type": "uint256"
                },
                {
                    "internalType": "bool",
                    "name": "staking",
                    "type": "bool"
                }
            ],
            "name": "mintRandomGas",
            "outputs": [
                {
                    "internalType": "uint256",
                    "name": "",
                    "type": "uint256"
                }
            ],
            "stateMutability": "view",
            "type": "function"
        },
        {
            "inputs": [
                {
                    "internalType": "uint256",
                    "name": "",
                    "type": "uint256"
                }
            ],
            "name": "mintRequests",
            "outputs": [
                {
                    "internalType": "uint32",
                    "name": "startFromId",
                    "type": "uint32"
                },
                {
                    "internalType": "uint8",
                    "name": "amount",
                    "type": "uint8"
                },
                {
                    "internalType": "uint8",
                    "name": "attackChance",
                    "type": "uint8"
                },
                {
                    "internalType": "bool",
                    "name": "toStake",
                    "type": "bool"
                }
            ],
            "stateMutability": "view",
            "type": "function"
        },
        {
            "inputs": [],
            "name": "mintSale",
            "outputs": [
                {
                    "internalType": "bool",
                    "name": "",
                    "type": "bool"
                }
            ],
            "stateMutability": "view",
            "type": "function"
        },
        {
            "inputs": [],
            "name": "mintSaleAmount",
            "outputs": [
                {
                    "internalType": "uint256",
                    "name": "",
                    "type": "uint256"
                }
            ],
            "stateMutability": "view",
            "type": "function"
        },
        {
            "inputs": [],
            "name": "mintSigWallet",
            "outputs": [
                {
                    "internalType": "address",
                    "name": "",
                    "type": "address"
                }
            ],
            "stateMutability": "view",
            "type": "function"
        },
        {
            "inputs": [
                {
                    "internalType": "uint256",
                    "name": "amount",
                    "type": "uint256"
                },
                {
                    "internalType": "bool",
                    "name": "toStake",
                    "type": "bool"
                }
            ],
            "name": "mintWithOG",
            "outputs": [],
            "stateMutability": "payable",
            "type": "function"
        },
        {
            "inputs": [],
            "name": "nextClaimWithoutRandomId",
            "outputs": [
                {
                    "internalType": "uint256",
                    "name": "",
                    "type": "uint256"
                }
            ],
            "stateMutability": "view",
            "type": "function"
        },
        {
            "inputs": [],
            "name": "nextCrewId",
            "outputs": [
                {
                    "internalType": "uint256",
                    "name": "",
                    "type": "uint256"
                }
            ],
            "stateMutability": "view",
            "type": "function"
        },
        {
            "inputs": [],
            "name": "nextRandomRequestId",
            "outputs": [
                {
                    "internalType": "uint256",
                    "name": "",
                    "type": "uint256"
                }
            ],
            "stateMutability": "view",
            "type": "function"
        },
        {
            "inputs": [],
            "name": "nextTokenId",
            "outputs": [
                {
                    "internalType": "uint256",
                    "name": "",
                    "type": "uint256"
                }
            ],
            "stateMutability": "view",
            "type": "function"
        },
        {
            "inputs": [
                {
                    "internalType": "address",
                    "name": "",
                    "type": "address"
                }
            ],
            "name": "numberOfMintedOogas",
            "outputs": [
                {
                    "internalType": "uint256",
                    "name": "",
                    "type": "uint256"
                }
            ],
            "stateMutability": "view",
            "type": "function"
        },
        {
            "inputs": [],
            "name": "ogMintAttackChance",
            "outputs": [
                {
                    "internalType": "uint256",
                    "name": "",
                    "type": "uint256"
                }
            ],
            "stateMutability": "view",
            "type": "function"
        },
        {
            "inputs": [],
            "name": "ogMinted",
            "outputs": [
                {
                    "internalType": "uint256",
                    "name": "",
                    "type": "uint256"
                }
            ],
            "stateMutability": "view",
            "type": "function"
        },
        {
            "inputs": [],
            "name": "ogRewardMinted",
            "outputs": [
                {
                    "internalType": "bool",
                    "name": "",
                    "type": "bool"
                }
            ],
            "stateMutability": "view",
            "type": "function"
        },
        {
            "inputs": [],
            "name": "ogToken",
            "outputs": [
                {
                    "internalType": "contract OogearERC20",
                    "name": "",
                    "type": "address"
                }
            ],
            "stateMutability": "view",
            "type": "function"
        },
        {
            "inputs": [
                {
                    "internalType": "uint256",
                    "name": "",
                    "type": "uint256"
                }
            ],
            "name": "oogaAttributes",
            "outputs": [
                {
                    "internalType": "enum OogaType",
                    "name": "oogaType",
                    "type": "uint8"
                },
                {
                    "internalType": "uint8",
                    "name": "level",
                    "type": "uint8"
                },
                {
                    "internalType": "bool",
                    "name": "staked",
                    "type": "bool"
                },
                {
                    "internalType": "address",
                    "name": "stakedOwner",
                    "type": "address"
                },
                {
                    "internalType": "uint256",
                    "name": "lastClaimTimestamp",
                    "type": "uint256"
                },
                {
                    "internalType": "uint256",
                    "name": "savedReward",
                    "type": "uint256"
                },
                {
                    "internalType": "uint256",
                    "name": "lastRewardPerPoint",
                    "type": "uint256"
                },
                {
                    "internalType": "uint256",
                    "name": "stakedMegaIndex",
                    "type": "uint256"
                }
            ],
            "stateMutability": "view",
            "type": "function"
        },
        {
            "inputs": [
                {
                    "internalType": "uint256",
                    "name": "",
                    "type": "uint256"
                }
            ],
            "name": "oogaEvolved",
            "outputs": [
                {
                    "internalType": "bool",
                    "name": "",
                    "type": "bool"
                }
            ],
            "stateMutability": "view",
            "type": "function"
        },
        {
            "inputs": [],
            "name": "oogaVerse",
            "outputs": [
                {
                    "internalType": "contract IERC721",
                    "name": "",
                    "type": "address"
                }
            ],
            "stateMutability": "view",
            "type": "function"
        },
        {
            "inputs": [],
            "name": "owner",
            "outputs": [
                {
                    "internalType": "address",
                    "name": "",
                    "type": "address"
                }
            ],
            "stateMutability": "view",
            "type": "function"
        },
        {
            "inputs": [],
            "name": "previousBaseFee",
            "outputs": [
                {
                    "internalType": "uint256",
                    "name": "",
                    "type": "uint256"
                }
            ],
            "stateMutability": "view",
            "type": "function"
        },
        {
            "inputs": [],
            "name": "prices",
            "outputs": [
                {
                    "internalType": "uint256",
                    "name": "mintPrice",
                    "type": "uint256"
                },
                {
                    "internalType": "uint256",
                    "name": "mintStakePrice",
                    "type": "uint256"
                },
                {
                    "internalType": "uint256",
                    "name": "mintDMTstakePrice",
                    "type": "uint256"
                },
                {
                    "internalType": "uint256",
                    "name": "mekaMergePrice",
                    "type": "uint256"
                }
            ],
            "stateMutability": "view",
            "type": "function"
        },
        {
            "inputs": [],
            "name": "publicMintAllowance",
            "outputs": [
                {
                    "internalType": "uint256",
                    "name": "",
                    "type": "uint256"
                }
            ],
            "stateMutability": "view",
            "type": "function"
        },
        {
            "inputs": [],
            "name": "publicMintStarted",
            "outputs": [
                {
                    "internalType": "bool",
                    "name": "",
                    "type": "bool"
                }
            ],
            "stateMutability": "view",
            "type": "function"
        },
        {
            "inputs": [],
            "name": "randomMekaProbability",
            "outputs": [
                {
                    "internalType": "uint256",
                    "name": "",
                    "type": "uint256"
                }
            ],
            "stateMutability": "view",
            "type": "function"
        },
        {
            "inputs": [],
            "name": "randomProvider",
            "outputs": [
                {
                    "internalType": "address",
                    "name": "",
                    "type": "address"
                }
            ],
            "stateMutability": "view",
            "type": "function"
        },
        {
            "inputs": [
                {
                    "internalType": "uint256",
                    "name": "",
                    "type": "uint256"
                }
            ],
            "name": "randomRequests",
            "outputs": [
                {
                    "internalType": "enum RandomRequestType",
                    "name": "requestType",
                    "type": "uint8"
                },
                {
                    "internalType": "address",
                    "name": "user",
                    "type": "address"
                },
                {
                    "internalType": "bool",
                    "name": "active",
                    "type": "bool"
                }
            ],
            "stateMutability": "view",
            "type": "function"
        },
        {
            "inputs": [],
            "name": "randomsGas",
            "outputs": [
                {
                    "internalType": "uint256",
                    "name": "mintBase",
                    "type": "uint256"
                },
                {
                    "internalType": "uint256",
                    "name": "mintPerToken",
                    "type": "uint256"
                },
                {
                    "internalType": "uint256",
                    "name": "mintPerTokenStaked",
                    "type": "uint256"
                },
                {
                    "internalType": "uint256",
                    "name": "unstakeBase",
                    "type": "uint256"
                },
                {
                    "internalType": "uint256",
                    "name": "unstakePerToken",
                    "type": "uint256"
                },
                {
                    "internalType": "uint256",
                    "name": "mergeBase",
                    "type": "uint256"
                }
            ],
            "stateMutability": "view",
            "type": "function"
        },
        {
            "inputs": [
                {
                    "internalType": "uint256[]",
                    "name": "requestIds",
                    "type": "uint256[]"
                },
                {
                    "internalType": "uint256[]",
                    "name": "entropies",
                    "type": "uint256[]"
                }
            ],
            "name": "receiveMultipleRandoms",
            "outputs": [],
            "stateMutability": "nonpayable",
            "type": "function"
        },
        {
            "inputs": [
                {
                    "internalType": "uint256",
                    "name": "requestId",
                    "type": "uint256"
                },
                {
                    "internalType": "uint256",
                    "name": "entropy",
                    "type": "uint256"
                }
            ],
            "name": "receiveRandoms",
            "outputs": [],
            "stateMutability": "nonpayable",
            "type": "function"
        },
        {
            "inputs": [
                {
                    "internalType": "uint256[]",
                    "name": "crewIds",
                    "type": "uint256[]"
                }
            ],
            "name": "removeCrew",
            "outputs": [],
            "stateMutability": "nonpayable",
            "type": "function"
        },
        {
            "inputs": [],
            "name": "renounceOwnership",
            "outputs": [],
            "stateMutability": "nonpayable",
            "type": "function"
        },
        {
            "inputs": [
                {
                    "internalType": "uint256",
                    "name": "",
                    "type": "uint256"
                }
            ],
            "name": "roboLevelupPriceOG",
            "outputs": [
                {
                    "internalType": "uint256",
                    "name": "",
                    "type": "uint256"
                }
            ],
            "stateMutability": "view",
            "type": "function"
        },
        {
            "inputs": [
                {
                    "internalType": "uint256",
                    "name": "",
                    "type": "uint256"
                }
            ],
            "name": "roboOogaMinimalRewardToUnstake",
            "outputs": [
                {
                    "internalType": "uint256",
                    "name": "",
                    "type": "uint256"
                }
            ],
            "stateMutability": "view",
            "type": "function"
        },
        {
            "inputs": [
                {
                    "internalType": "uint256",
                    "name": "",
                    "type": "uint256"
                }
            ],
            "name": "roboOogaRewardAttackProbabilities",
            "outputs": [
                {
                    "internalType": "uint256",
                    "name": "",
                    "type": "uint256"
                }
            ],
            "stateMutability": "view",
            "type": "function"
        },
        {
            "inputs": [
                {
                    "internalType": "uint256",
                    "name": "",
                    "type": "uint256"
                }
            ],
            "name": "roboOogaRewardPerSec",
            "outputs": [
                {
                    "internalType": "uint256",
                    "name": "",
                    "type": "uint256"
                }
            ],
            "stateMutability": "view",
            "type": "function"
        },
        {
            "inputs": [
                {
                    "internalType": "uint256",
                    "name": "",
                    "type": "uint256"
                }
            ],
            "name": "roboOogaRewardPerSecInCrew",
            "outputs": [
                {
                    "internalType": "uint256",
                    "name": "",
                    "type": "uint256"
                }
            ],
            "stateMutability": "view",
            "type": "function"
        },
        {
            "inputs": [
                {
                    "internalType": "uint256",
                    "name": "",
                    "type": "uint256"
                }
            ],
            "name": "roboOogaRewardPerSec_midStage",
            "outputs": [
                {
                    "internalType": "uint256",
                    "name": "",
                    "type": "uint256"
                }
            ],
            "stateMutability": "view",
            "type": "function"
        },
        {
            "inputs": [],
            "name": "roboOogaRewardStart",
            "outputs": [
                {
                    "internalType": "uint256",
                    "name": "",
                    "type": "uint256"
                }
            ],
            "stateMutability": "view",
            "type": "function"
        },
        {
            "inputs": [
                {
                    "internalType": "uint256[]",
                    "name": "tokenIds",
                    "type": "uint256[]"
                }
            ],
            "name": "stake",
            "outputs": [],
            "stateMutability": "nonpayable",
            "type": "function"
        },
        {
            "inputs": [],
            "name": "tokensMintedWithDMT",
            "outputs": [
                {
                    "internalType": "uint256",
                    "name": "",
                    "type": "uint256"
                }
            ],
            "stateMutability": "view",
            "type": "function"
        },
        {
            "inputs": [],
            "name": "totalMintETH",
            "outputs": [
                {
                    "internalType": "uint256",
                    "name": "",
                    "type": "uint256"
                }
            ],
            "stateMutability": "view",
            "type": "function"
        },
        {
            "inputs": [],
            "name": "totalMintedRewardTokens",
            "outputs": [
                {
                    "internalType": "uint256",
                    "name": "",
                    "type": "uint256"
                }
            ],
            "stateMutability": "view",
            "type": "function"
        },
        {
            "inputs": [],
            "name": "totalMintedTokens",
            "outputs": [
                {
                    "internalType": "uint256",
                    "name": "",
                    "type": "uint256"
                }
            ],
            "stateMutability": "view",
            "type": "function"
        },
        {
            "inputs": [],
            "name": "totalRandomTxFee",
            "outputs": [
                {
                    "internalType": "uint256",
                    "name": "",
                    "type": "uint256"
                }
            ],
            "stateMutability": "view",
            "type": "function"
        },
        {
            "inputs": [],
            "name": "totalRandomTxFeeWithdrawn",
            "outputs": [
                {
                    "internalType": "uint256",
                    "name": "",
                    "type": "uint256"
                }
            ],
            "stateMutability": "view",
            "type": "function"
        },
        {
            "inputs": [
                {
                    "internalType": "address",
                    "name": "newOwner",
                    "type": "address"
                }
            ],
            "name": "transferOwnership",
            "outputs": [],
            "stateMutability": "nonpayable",
            "type": "function"
        },
        {
            "inputs": [
                {
                    "internalType": "uint256[]",
                    "name": "tokenIds",
                    "type": "uint256[]"
                }
            ],
            "name": "unstake",
            "outputs": [],
            "stateMutability": "nonpayable",
            "type": "function"
        },
        {
            "inputs": [
                {
                    "internalType": "address",
                    "name": "",
                    "type": "address"
                }
            ],
            "name": "unstakeCredits",
            "outputs": [
                {
                    "internalType": "uint256",
                    "name": "",
                    "type": "uint256"
                }
            ],
            "stateMutability": "view",
            "type": "function"
        },
        {
            "inputs": [
                {
                    "internalType": "uint256",
                    "name": "",
                    "type": "uint256"
                }
            ],
            "name": "unstakeCreditsForRoboLevel",
            "outputs": [
                {
                    "internalType": "uint256",
                    "name": "",
                    "type": "uint256"
                }
            ],
            "stateMutability": "view",
            "type": "function"
        },
        {
            "inputs": [],
            "name": "unstakeCreditsStart",
            "outputs": [
                {
                    "internalType": "uint256",
                    "name": "",
                    "type": "uint256"
                }
            ],
            "stateMutability": "view",
            "type": "function"
        },
        {
            "inputs": [
                {
                    "internalType": "address",
                    "name": "",
                    "type": "address"
                }
            ],
            "name": "usedUnstakeCredits",
            "outputs": [
                {
                    "internalType": "uint256",
                    "name": "",
                    "type": "uint256"
                }
            ],
            "stateMutability": "view",
            "type": "function"
        },
        {
            "inputs": [
                {
                    "internalType": "address",
                    "name": "",
                    "type": "address"
                }
            ],
            "name": "withdrawerLastTotalMintETH",
            "outputs": [
                {
                    "internalType": "uint256",
                    "name": "",
                    "type": "uint256"
                }
            ],
            "stateMutability": "view",
            "type": "function"
        },
        {
            "inputs": [
                {
                    "internalType": "address",
                    "name": "",
                    "type": "address"
                }
            ],
            "name": "withdrawerPercent",
            "outputs": [
                {
                    "internalType": "uint256",
                    "name": "",
                    "type": "uint256"
                }
            ],
            "stateMutability": "view",
            "type": "function"
        }
    ],
    "bytecode": "0x608060405234801561001057600080fd5b50615f2980620000216000396000f3fe6080604052600436106105135760003560e01c806392bbfd511161029a578063ca24964b11610161578063ca24964b1461103b578063ca97f52014611055578063cecb2db71461106f578063d3419bf31461108f578063d385014d146110d2578063d6ebe4fe146110ff578063d7c97fb414611115578063d835de0614611135578063dd2c09481461114b578063dd2f6d4b14611160578063e0fcd6661461118d578063e449f341146111ad578063e6b4d60b146111cd578063e6d35655146111e3578063e6f0ba61146111f9578063e826cdf114611219578063e9a16bdb1461128f578063ec01952b146112a9578063ec7373ce146112bf578063ecb24fb5146112ec578063ed394079146112ff578063eee21c2d1461131f578063f020044f1461133f578063f22395c81461135e578063f2fde38b14611374578063f3db119114611394578063febeb132146113aa578063ff75eece146113c057600080fd5b806392bbfd5114610c6257806395044c9214610c8f578063961b294a14610caf57806397881c2f14610cce5780639978924114610cfb5780639e15827614610d1b5780639efbdcd014610d31578063a0e69fe614610d51578063a4da467e14610d70578063a4e9f29714610d90578063a549d50b14610de8578063a5b63cc914610e08578063acac98dd14610e1e578063adb9875114610e34578063b433615a14610e61578063b56c610514610e81578063b5e6230114610e97578063b69b2a6514610eb7578063bb905c7514610ed7578063bd9a548b14610eed578063c06fda8e14610f0f578063c24b719714610f25578063c25190d414610f45578063c37a576114610f65578063c44ca13314610f95578063c54b735814610fab578063c94c7ff414610fc1578063ca067ad014610fe157600080fd5b80635072c1ee116103de5780635072c1ee146108da57806350f7c204146108fa57806351e9a59a1461091057806352695aa0146109305780635ca2034a146109505780635ca58adf146109665780635e71cc7c14610986578063662162d51461099c57806366ed6fbe146109b25780636bb68664146109d25780636bff9506146109f25780636c4a8c1714610a75578063715018a614610aa2578063729a90c814610ab757806375794a3c14610ad757806376bcff4e14610aed5780637bf1b56214610b1a5780637d15132314610b3a5780637d5ee8e614610b505780637e5ae4b714610b66578063833c7fc014610b96578063834e91cf14610bac578063878e9de614610bc25780638da5cb5b14610be25780638e32e31614610bf75780638ec14dfc14610c0c5780638f46500e14610c22578063909e376d14610c4257600080fd5b806301719327146105185780630181de4214610541578063035240051461055757806308a1c391146105815780630a1b494d146105a15780630ee9a59b146105b65780630fbf0a93146105d65780631064a383146105f6578063113bf88714610616578063118b8daf1461062c57806311b1c1011461064257806319de52211461066f5780631b9401cd1461068f57806325782210146106af5780632626b829146106c55780632e9554d3146106e55780633186d3c9146106ff5780633764d26f1461072c57806338e692af146107425780633a6a6ca3146107585780633bf27cf114610778578063424e6575146107b0578063448883d714610834578063448b77531461084a57806346dd847314610864578063482a527814610884578063489da8ff146108a45780634e47a79a146108c4575b600080fd5b34801561052457600080fd5b5061052e60855481565b6040519081526020015b60405180910390f35b34801561054d57600080fd5b5061052e608b5481565b34801561056357600080fd5b506093546105719060ff1681565b6040519015158152602001610538565b34801561058d57600080fd5b5061052e61059c366004615606565b6113e0565b6105b46105af36600461562d565b611401565b005b3480156105c257600080fd5b5061052e6105d1366004615606565b6115f2565b3480156105e257600080fd5b506105b46105f13660046156a8565b611602565b34801561060257600080fd5b506105b46106113660046156a8565b611745565b34801561062257600080fd5b5061052e607e5481565b34801561063857600080fd5b5061052e60b85481565b34801561064e57600080fd5b5061052e61065d3660046156fe565b60bf6020526000908152604090205481565b34801561067b57600080fd5b5061052e61068a36600461571b565b611a2f565b34801561069b57600080fd5b506105b46106aa36600461571b565b611a63565b3480156106bb57600080fd5b5061052e60815481565b3480156106d157600080fd5b5061052e6106e0366004615606565b611a9b565b3480156106f157600080fd5b5060b0546105719060ff1681565b34801561070b57600080fd5b5061052e61071a366004615606565b60b36020526000908152604090205481565b34801561073857600080fd5b5061052e60be5481565b34801561074e57600080fd5b5061052e608a5481565b34801561076457600080fd5b5061052e610773366004615606565b611aab565b34801561078457600080fd5b50606754610798906001600160a01b031681565b6040516001600160a01b039091168152602001610538565b3480156107bc57600080fd5b506108046107cb366004615606565b60a46020526000908152604090205463ffffffff81169060ff600160201b8204811691600160281b8104821691600160301b9091041684565b6040805163ffffffff95909516855260ff9384166020860152919092169083015215156060820152608001610538565b34801561084057600080fd5b5061052e607d5481565b34801561085657600080fd5b5060b9546105719060ff1681565b34801561087057600080fd5b506105b461087f366004615815565b611abb565b34801561089057600080fd5b5061052e61089f366004615606565b611b66565b3480156108b057600080fd5b5061052e6108bf366004615606565b611b76565b3480156108d057600080fd5b5061052e60b15481565b3480156108e657600080fd5b506105b46108f53660046156a8565b611b86565b34801561090657600080fd5b5061052e609a5481565b34801561091c57600080fd5b5061052e61092b366004615606565b611bc4565b34801561093c57600080fd5b506105b461094b36600461571b565b611bd4565b34801561095c57600080fd5b5061052e60925481565b34801561097257600080fd5b506105b46109813660046158f4565b611bfa565b34801561099257600080fd5b5061052e60955481565b3480156109a857600080fd5b5061052e609c5481565b3480156109be57600080fd5b5061052e6109cd366004615606565b611c78565b3480156109de57600080fd5b506105b46109ed3660046156a8565b611c88565b3480156109fe57600080fd5b50610a61610a0d366004615606565b6090602052600090815260409020805460018201546002830154600384015460049094015460ff8085169561010086048216956201000081049092169463010000009092046001600160a01b031693919288565b60405161053898979695949392919061595c565b348015610a8157600080fd5b5061052e610a90366004615606565b60a66020526000908152604090205481565b348015610aae57600080fd5b506105b4611cc6565b348015610ac357600080fd5b5061052e610ad2366004615606565b611d01565b348015610ae357600080fd5b5061052e607f5481565b348015610af957600080fd5b5061052e610b083660046156fe565b60bc6020526000908152604090205481565b348015610b2657600080fd5b5061052e610b35366004615606565b611d11565b348015610b4657600080fd5b5061052e60995481565b348015610b5c57600080fd5b5061052e60985481565b348015610b7257600080fd5b50610571610b81366004615606565b60009081526091602052604090205460ff1690565b348015610ba257600080fd5b5061052e609d5481565b348015610bb857600080fd5b5061052e60975481565b348015610bce57600080fd5b506105b4610bdd3660046159b3565b611d21565b348015610bee57600080fd5b50610798611da5565b348015610c0357600080fd5b5061052e611db4565b348015610c1857600080fd5b5061052e60aa5481565b348015610c2e57600080fd5b50606a54610798906001600160a01b031681565b348015610c4e57600080fd5b50606854610798906001600160a01b031681565b348015610c6e57600080fd5b5061052e610c7d3660046156fe565b60a16020526000908152604090205481565b348015610c9b57600080fd5b5061052e610caa366004615606565b611dca565b348015610cbb57600080fd5b5060ac5461057190610100900460ff1681565b348015610cda57600080fd5b50610cee610ce93660046156a8565b611e93565b6040516105389190615a2c565b348015610d0757600080fd5b5061052e610d16366004615606565b611f3b565b348015610d2757600080fd5b5061052e60865481565b348015610d3d57600080fd5b5061052e610d4c366004615606565b611f4b565b348015610d5d57600080fd5b5060ae5461057190610100900460ff1681565b348015610d7c57600080fd5b506105b4610d8b3660046156a8565b611f5b565b348015610d9c57600080fd5b50607254607354607454607554607654607754610dbb95949392919086565b604080519687526020870195909552938501929092526060840152608083015260a082015260c001610538565b348015610df457600080fd5b506105b4610e03366004615a70565b6121b9565b348015610e1457600080fd5b5061052e609f5481565b348015610e2a57600080fd5b5061052e60ba5481565b348015610e4057600080fd5b5061052e610e4f3660046156fe565b60bb6020526000908152604090205481565b348015610e6d57600080fd5b506105b4610e7c3660046156fe565b612361565b348015610e8d57600080fd5b5061052e60835481565b348015610ea357600080fd5b5061052e610eb2366004615606565b6123b2565b348015610ec357600080fd5b50606654610798906001600160a01b031681565b348015610ee357600080fd5b5061052e60ad5481565b348015610ef957600080fd5b50610f026125c0565b6040516105389190615abd565b348015610f1b57600080fd5b5061052e60845481565b348015610f3157600080fd5b5061052e610f4036600461562d565b612735565b348015610f5157600080fd5b5061052e610f603660046156fe565b61274e565b348015610f7157600080fd5b50610571610f80366004615606565b60916020526000908152604090205460ff1681565b348015610fa157600080fd5b5061052e60ab5481565b348015610fb757600080fd5b5061052e60a75481565b348015610fcd57600080fd5b506105b4610fdc3660046156a8565b61278f565b348015610fed57600080fd5b5061102c610ffc366004615606565b60a36020526000908152604090205460ff808216916001600160a01b0361010082041691600160a81b9091041683565b60405161053893929190615b3e565b34801561104757600080fd5b5060ae546105719060ff1681565b34801561106157600080fd5b5060ac546105719060ff1681565b34801561107b57600080fd5b50610cee61108a3660046156a8565b6127c2565b34801561109b57600080fd5b50606b54606c54606f546071546110b29392919084565b604080519485526020850193909352918301526060820152608001610538565b3480156110de57600080fd5b5061052e6110ed366004615606565b60a56020526000908152604090205481565b34801561110b57600080fd5b5061052e609b5481565b34801561112157600080fd5b50606554610798906001600160a01b031681565b34801561114157600080fd5b5061052e60795481565b34801561115757600080fd5b5061052e612863565b34801561116c57600080fd5b5061052e61117b3660046156fe565b60946020526000908152604090205481565b34801561119957600080fd5b506105b46111a8366004615b71565b61287b565b3480156111b957600080fd5b506105b46111c83660046156a8565b6128fd565b3480156111d957600080fd5b5061052e60825481565b3480156111ef57600080fd5b5061052e60a95481565b34801561120557600080fd5b50606954610798906001600160a01b031681565b34801561122557600080fd5b50611265611234366004615606565b60b26020526000908152604090208054600282015460038301546004909301546001600160a01b0390921692909184565b604080516001600160a01b0390951685526020850193909352918301526060820152608001610538565b34801561129b57600080fd5b506096546105719060ff1681565b3480156112b557600080fd5b5061052e60a25481565b3480156112cb57600080fd5b5061052e6112da3660046156fe565b60a06020526000908152604090205481565b6105b46112fa36600461571b565b612971565b34801561130b57600080fd5b506105b461131a3660046156a8565b612f1d565b34801561132b57600080fd5b506105b461133a366004615bd0565b612f91565b34801561134b57600080fd5b5060965461057190610100900460ff1681565b34801561136a57600080fd5b5061052e609e5481565b34801561138057600080fd5b506105b461138f3660046156fe565b612fda565b3480156113a057600080fd5b5061052e60a85481565b3480156113b657600080fd5b5061052e60805481565b3480156113cc57600080fd5b5061052e6113db366004615606565b61307a565b607c81815481106113f057600080fd5b600091825260209091200154905081565b60965460ff1615801561141b5750609654610100900460ff165b6114405760405162461bcd60e51b815260040161143790615bed565b60405180910390fd5b609a548261144c611db4565b6114569190615c20565b111561148a5760405162461bcd60e51b815260206004820152600360248201526245333160e81b6044820152606401611437565b600061149461308a565b9050806114a184846130cc565b6114ab9190615c38565b3410156114e05760405162461bcd60e51b815260206004820152600360248201526245333360e81b6044820152606401611437565b34609d60008282546114f29190615c20565b9091555060009050821561152a57606b6003016079548154811061151857611518615c57565b90600052602060002001549050611550565b606b6002016079548154811061154257611542615c57565b906000526020600020015490505b6066546001600160a01b03166323b872dd333061156d8886615c38565b6040518463ffffffff1660e01b815260040161158b93929190615c6d565b602060405180830381600087803b1580156115a557600080fd5b505af11580156115b9573d6000803e3d6000fd5b505050506040513d601f19601f820116820180604052508101906115dd9190615c91565b506115ec338585608454613116565b50505050565b608781815481106113f057600080fd5b609654610100900460ff166116295760405162461bcd60e51b815260040161143790615bed565b60005b818110156117405760655433906001600160a01b0316636352211e85858581811061165957611659615c57565b905060200201356040518263ffffffff1660e01b815260040161167e91815260200190565b60206040518083038186803b15801561169657600080fd5b505afa1580156116aa573d6000803e3d6000fd5b505050506040513d601f19601f820116820180604052508101906116ce9190615cae565b6001600160a01b03161461170a5760405162461bcd60e51b815260206004820152600360248201526245343160e81b6044820152606401611437565b61172e83838381811061171f5761171f615c57565b90506020020135336000613288565b8061173881615ccb565b91505061162c565b505050565b60005b818110156117405760006090600085858581811061176857611768615c57565b6020908102929092013583525081019190915260400160002060655490915033906001600160a01b0316636352211e8686868181106117a9576117a9615c57565b905060200201356040518263ffffffff1660e01b81526004016117ce91815260200190565b60206040518083038186803b1580156117e657600080fd5b505afa1580156117fa573d6000803e3d6000fd5b505050506040513d601f19601f8201168201806040525081019061181e9190615cae565b6001600160a01b0316148061184357508054630100000090046001600160a01b031633145b6118785760405162461bcd60e51b81526004016114379060208082526004908201526322989b9960e11b604082015260600190565b6000815460ff16600181111561189057611890615946565b146118c65760405162461bcd60e51b8152600401611437906020808252600490820152634531373360e01b604082015260600190565b805460bd80549091610100900460ff169081106118e5576118e5615c57565b600091825260208083209091015433835260bb90915260408220805491929091611910908490615c20565b90915550506065546001600160a01b03166342966c6885858581811061193857611938615c57565b905060200201356040518263ffffffff1660e01b815260040161195d91815260200190565b600060405180830381600087803b15801561197757600080fd5b505af115801561198b573d6000803e3d6000fd5b505050508383838181106119a1576119a1615c57565b90506020020135336001600160a01b03167fa6c4da636b3fb91fe9a6878135ec951f240c6b175b0636d3ed22ec30a6c34df260bd8460000160019054906101000a900460ff1660ff16815481106119fa576119fa615c57565b9060005260206000200154604051611a1491815260200190565b60405180910390a35080611a2781615ccb565b915050611748565b608c8260048110611a3f57600080fd5b018181548110611a4e57600080fd5b90600052602060002001600091509150505481565b606a546001600160a01b03163314611a8d5760405162461bcd60e51b815260040161143790615ce6565b611a978282613447565b5050565b60b781815481106113f057600080fd5b607881815481106113f057600080fd5b33611ac4611da5565b6001600160a01b031614611aea5760405162461bcd60e51b815260040161143790615d03565b8051606b908155602080830151606c5560408301518051849392611b1392606d929101906155a6565b5060608201518051611b2f9160038401916020909101906155a6565b506080820151600482015560a08201518051611b559160058401916020909101906155a6565b5060c0820151816006015590505050565b60af81815481106113f057600080fd5b607b81815481106113f057600080fd5b60005b8181101561174057611bb2838383818110611ba657611ba6615c57565b90506020020135613547565b80611bbc81615ccb565b915050611b89565b60b581815481106113f057600080fd5b60005b8181101561174057611be883613613565b80611bf281615ccb565b915050611bd7565b808314611c325760405162461bcd60e51b8152600401611437906020808252600490820152634531353160e01b604082015260600190565b60005b83811015611c7157611c5f85848484818110611c5357611c53615c57565b905060200201356138be565b80611c6981615ccb565b915050611c35565b5050505050565b60b481815481106113f057600080fd5b60005b8181101561174057611cb4838383818110611ca857611ca8615c57565b90506020020135613d0b565b80611cbe81615ccb565b915050611c8b565b33611ccf611da5565b6001600160a01b031614611cf55760405162461bcd60e51b815260040161143790615d03565b611cff6000613e28565b565b608881815481106113f057600080fd5b608981815481106113f057600080fd5b600085815260b26020526040902080546001600160a01b03163314611d715760405162461bcd60e51b8152600401611437906020808252600490820152634531313160e01b604082015260600190565b611d7a86611dca565b6004820155426002820155611d928686866000613e7a565b611d9d868484614088565b505050505050565b6033546001600160a01b031690565b60006001607f54611dc59190615d38565b905090565b600081815260b26020526040812060018101805483916090918391908290611df457611df4615c57565b9060005260206000200154815260200190815260200160002090506000606460b78360000160019054906101000a900460ff1660ff1681548110611e3a57611e3a615c57565b90600052602060002001548460030154611e549190615c38565b611e5e9190615d4f565b905080836002015442611e719190615d38565b611e7b9190615c38565b8360040154611e8a9190615c20565b95945050505050565b6060816001600160401b03811115611ead57611ead61573d565b604051908082528060200260200182016040528015611ed6578160200160208202803683370190505b50905060005b82811015611f3457611f05848483818110611ef957611ef9615c57565b905060200201356123b2565b828281518110611f1757611f17615c57565b602090810291909101015280611f2c81615ccb565b915050611edc565b5092915050565b60b681815481106113f057600080fd5b60bd81815481106113f057600080fd5b8080611f925760405162461bcd60e51b8152600401611437906020808252600490820152630453132360e41b604082015260600190565b60b180549081906000611fa483615ccb565b9091555050604051819033907fa6df9b8f40e16bf37c6f7f7dca55aaf3900a42a82bf36a2be3a2af68d5953f0e90600090a3600081815260b26020526040812080546001600160a01b03191633178155906090818787828161200857612008615c57565b905060200201358152602001908152602001600020905060018081111561203157612031615946565b815460ff16600181111561204757612047615946565b1461207d5760405162461bcd60e51b8152600401611437906020808252600490820152634531323160e01b604082015260600190565b805460b680549091610100900460ff1690811061209c5761209c615c57565b90600052602060002001546001856120b49190615d38565b11156120eb5760405162461bcd60e51b8152600401611437906020808252600490820152632298991960e11b604082015260600190565b816001018686600081811061210257612102615c57565b8354600181018555600094855260208086209202939093013592019190915550839060b3908888828161213757612137615c57565b905060200201358152602001908152602001600020819055508585600081811061216357612163615c57565b90506020020135837f8f128424f32a4d6764618308b84307db75f4151f3580608175283d54326fe5a560405160405180910390a36121a48387876001613e7a565b50426002820155600060049091015550505050565b60c0546040516001600160a01b039091169063bfa73191906121e2903390853590602001615d71565b60408051601f1981840301815291815261220190850160208601615d8a565b606954604080516001600160e01b031960e087901b16815261223e94939291880135916060890135916001600160a01b0390911690600401615dad565b60206040518083038186803b15801561225657600080fd5b505afa15801561226a573d6000803e3d6000fd5b505050506040513d601f19601f8201168201806040525081019061228e9190615c91565b6122c35760405162461bcd60e51b8152600401611437906020808252600490820152634531383160e01b604082015260600190565b33600090815260bf6020526040902054156123095760405162461bcd60e51b81526004016114379060208082526004908201526322989c1960e11b604082015260600190565b33600081815260bf60205260409020823590819055612328919061425d565b6040518135815233907f7ff7ebd87b7b8106143dae0edea4527426a4fe3c6212527521853e81340e3cc99060200160405180910390a250565b3361236a611da5565b6001600160a01b0316146123905760405162461bcd60e51b815260040161143790615d03565b60c080546001600160a01b0319166001600160a01b0392909216919091179055565b60008181526090602052604080822081516101008101909252805483929190829060ff1660018111156123e7576123e7615946565b60018111156123f8576123f8615946565b8152815460ff61010082048116602084015262010000820416151560408301526001600160a01b03630100000090910416606082015260018201546080820152600282015460a0820152600382015460c082015260049091015460e090910152905060008151600181111561246f5761246f615946565b141561257f5760a081015160ad54600085815260906020526040902060010154101561254257607a826020015160ff16815481106124af576124af615c57565b9060005260206000200154609060008681526020019081526020016000206001015460ad546124de9190615d38565b6124e89190615c38565b6124f29082615c20565b905060af826020015160ff168154811061250e5761250e615c57565b906000526020600020015460ad54426125279190615d38565b6125319190615c38565b61253b9082615c20565b9050612578565b60be546000858152609060205260409020600101546125619042615d38565b61256b9190615c38565b6125759082615c20565b90505b9392505050565b6088816020015160ff168154811061259957612599615c57565b90600052602060002001548160c00151608a546125b69190615d38565b6125789190615c38565b61260860405180610100016040528060008152602001600081526020016000815260200160008152602001600081526020016060815260200160008152602001606081525090565b604051806101000160405280606b600001548152602001606b600101548152602001606b6002016079548154811061264257612642615c57565b90600052602060002001548152602001606b6003016079548154811061266a5761266a615c57565b600091825260209182902001548252606f54828201526070805460408051828502810185018252828152940193928301828280156126c757602002820191906000526020600020905b8154815260200190600101908083116126b3575b50505050508152602001606b60060154815260200160b480548060200260200160405190810160405280929190818152602001828054801561272857602002820191906000526020600020905b815481526020019060010190808311612714575b5050505050815250905090565b600061274183836130cc565b60a9546125789190615c38565b6001600160a01b038116600090815260bc602090815260408083205460bb90925282205460ba5461277f9190615c20565b6127899190615d38565b92915050565b609654610100900460ff166127b65760405162461bcd60e51b815260040161143790615bed565b611740828260006142bd565b6060816001600160401b038111156127dc576127dc61573d565b604051908082528060200260200182016040528015612805578160200160208202803683370190505b50905060005b82811015611f345761283484848381811061282857612828615c57565b90506020020135611dca565b82828151811061284657612846615c57565b60209081029190910101528061285b81615ccb565b91505061280b565b600061286e60775490565b60a954611dc59190615c38565b606a546001600160a01b031633146128a55760405162461bcd60e51b815260040161143790615ce6565b8260005b81811015611d9d576128eb8686838181106128c6576128c6615c57565b905060200201358585848181106128df576128df615c57565b90506020020135613447565b806128f581615ccb565b9150506128a9565b609654610100900460ff166129245760405162461bcd60e51b815260040161143790615bed565b61292d3361274e565b8111156129655760405162461bcd60e51b8152600401611437906020808252600490820152634531363160e01b604082015260600190565b611740828260016142bd565b60965460ff1615801561298b5750609654610100900460ff165b6129a75760405162461bcd60e51b815260040161143790615bed565b808214156129dd5760405162461bcd60e51b815260206004820152600360248201526245383160e81b6044820152606401611437565b60006129e761308a565b9050806129f360775490565b6129fd9190615c38565b341015612a325760405162461bcd60e51b815260206004820152600360248201526222999b60e91b6044820152606401611437565b34609d6000828254612a449190615c20565b90915550506000838152609060205260408082208483529181902060655491516331a9108f60e11b815260048101879052909133916001600160a01b0390911690636352211e9060240160206040518083038186803b158015612aa657600080fd5b505afa158015612aba573d6000803e3d6000fd5b505050506040513d601f19601f82011682018060405250810190612ade9190615cae565b6001600160a01b03161480612b155750815462010000900460ff168015612b1557508154630100000090046001600160a01b031633145b612b475760405162461bcd60e51b8152602060048201526003602482015262114e0d60ea1b6044820152606401611437565b6065546040516331a9108f60e11b81526004810186905233916001600160a01b031690636352211e9060240160206040518083038186803b158015612b8b57600080fd5b505afa158015612b9f573d6000803e3d6000fd5b505050506040513d601f19601f82011682018060405250810190612bc39190615cae565b6001600160a01b03161480612bfa5750805462010000900460ff168015612bfa57508054630100000090046001600160a01b031633145b612c2c5760405162461bcd60e51b815260206004820152600360248201526245383560e81b6044820152606401611437565b6001825460ff166001811115612c4457612c44615946565b148015612c6657506001815460ff166001811115612c6457612c64615946565b145b612c985760405162461bcd60e51b8152602060048201526003602482015262229c1960e91b6044820152606401611437565b8154610100900460ff16158015612cb657508054610100900460ff16155b612ce85760405162461bcd60e51b815260206004820152600360248201526245383360e81b6044820152606401611437565b815460009062010000900460ff16151560011415612d4d576000612d0b876123b2565b9050612d178183615c20565b608a54600386015560a2546040518381529193508891339190600080516020615ed48339815191529060200160405180910390a4505b815462010000900460ff16151560011415612db8576000612d6d866123b2565b9050612d798183615c20565b608a54600385015560a2546040518381529193508791339190600080516020615ed48339815191529060200160405180910390a4612db68661461d565b505b607154811015612e5f576066546071546001600160a01b03909116906323b872dd9033903090612de9908690615d38565b6040518463ffffffff1660e01b8152600401612e0793929190615c6d565b602060405180830381600087803b158015612e2157600080fd5b505af1158015612e35573d6000803e3d6000fd5b505050506040513d601f19601f82011682018060405250810190612e599190615c91565b50612e77565b607154612e77903390612e729084615d38565b61425d565b612e80866148a4565b606554604051630852cd8d60e31b8152600481018790526001600160a01b03909116906342966c6890602401600060405180830381600087803b158015612ec657600080fd5b505af1158015612eda573d6000803e3d6000fd5b50506040518881528792503391507f7fbc09d28fa0377bea9dd7bc3289ca8cf2ed47c19c59b30347c08925c18e82d79060200160405180910390a3505050505050565b60965460ff16158015612f375750609654610100900460ff165b612f535760405162461bcd60e51b815260040161143790615bed565b60005b8181101561174057612f7f838383818110612f7357612f73615c57565b90506020020135614955565b80612f8981615ccb565b915050612f56565b33612f9a611da5565b6001600160a01b031614612fc05760405162461bcd60e51b815260040161143790615d03565b609680549115156101000261ff0019909216919091179055565b33612fe3611da5565b6001600160a01b0316146130095760405162461bcd60e51b815260040161143790615d03565b6001600160a01b03811661306e5760405162461bcd60e51b815260206004820152602660248201527f4f776e61626c653a206e6577206f776e657220697320746865207a65726f206160448201526564647265737360d01b6064820152608401611437565b61307781613e28565b50565b607a81815481106113f057600080fd5b600060aa5460ab544261309d9190615d38565b11156130b25760a9805460a8554890554260ab555b60a95460a85410156130c5575060a85490565b5060a95490565b6000816130da5760006130f2565b6074546130e8600185615d38565b6130f29190615c38565b6073546130ff9085615c38565b60725461310c9190615c20565b6125789190615c20565b6000811561313057613129846002615c38565b9050613133565b50825b600061313d614ae3565b6040805160608101825260008082526001600160a01b038a16602080840191909152600183850181905285835260a39091529290208151815494955091939092839160ff19169083600281111561319657613196615946565b021790555060208281015182546040948501511515600160a81b0260ff60a81b196001600160a01b039093166101000292909216610100600160b01b031990911617179091558151608081018352607f5463ffffffff908116825260ff8981168385019081528882168487019081528a151560608601908152600089815260a490975296909520935184549151955196511515600160301b0260ff60301b19978416600160281b029790971661ffff60281b1996909316600160201b0264ffffffffff1990921693169290921791909117929092169190911791909117905561327f3086614b47565b50505050505050565b600083815260906020526040902081613302576065546040516323b872dd60e01b81526001600160a01b03909116906323b872dd906132cf90869030908990600401615c6d565b600060405180830381600087803b1580156132e957600080fd5b505af11580156132fd573d6000803e3d6000fd5b505050505b80546001600160a01b03841663010000000262010000600160b81b031990911617620100001781554260018281019190915560006002830155815460ff16600181111561335157613351615946565b141561340b578054608880549091610100900460ff1690811061337657613376615c57565b9060005260206000200154608b60008282546133929190615c20565b9091555050608a5460038201558054610100900460ff161561340b578054608c90610100900460ff16600481106133cb576133cb615c57565b01546004828101919091558154608c9161010090910460ff169081106133f3576133f3615c57565b01805460018101825560009182526020909120018490555b6040516001600160a01b0384169085907f5b53344e2b3d15f33a2ab59e3c199c7bbcb08f5ce03bf0a25c14f978647299a790600090a350505050565b817fa1400508f229eaea44d95e98b6da371661f6e873726585abd7efdbdc607169768260405161347991815260200190565b60405180910390a2600082815260a3602052604090208054600160a81b900460ff166134a457505050565b805460ff60a81b191681556000815460ff1660028111156134c7576134c7615946565b14156134e85780546117409061010090046001600160a01b03168484614caf565b6002815460ff16600281111561350057613500615946565b1415613510576117408383614f6d565b6001815460ff16600281111561352857613528615946565b14156117405780546117409061010090046001600160a01b0316848483565b600081815260b26020526040902080546001600160a01b031633146135975760405162461bcd60e51b8152600401611437906020808252600490820152634531333160e01b604082015260600190565b60006135a283611dca565b9050606460b854826135b49190615c38565b6135be9190615d4f565b4260028401556000600484015590506135d7338261425d565b604051818152839033907fb411b44bd5c76eb08732ef9d1c023d5ef94e6c9b292801e07bcae2af5e4a860b9060200160405180910390a3505050565b60965460ff1615801561362d5750609654610100900460ff165b6136495760405162461bcd60e51b815260040161143790615bed565b6000818152609060205260409081902060655491516331a9108f60e11b815260048101849052909133916001600160a01b0390911690636352211e9060240160206040518083038186803b1580156136a057600080fd5b505afa1580156136b4573d6000803e3d6000fd5b505050506040513d601f19601f820116820180604052508101906136d89190615cae565b6001600160a01b031614806136fd57508054630100000090046001600160a01b031633145b61372f5760405162461bcd60e51b8152602060048201526003602482015262229b9960e91b6044820152606401611437565b6000815460ff16600181111561374757613747615946565b14801561375e57508054600661010090910460ff16105b6137905760405162461bcd60e51b815260206004820152600360248201526245373160e81b6044820152606401611437565b805462010000900460ff16156137b5576137a9826123b2565b60028201554260018201555b6067548154607080546001600160a01b03909316926323b872dd92339230929091610100900460ff169081106137ed576137ed615c57565b90600052602060002001546040518463ffffffff1660e01b815260040161381693929190615c6d565b600060405180830381600087803b15801561383057600080fd5b505af1158015613844573d6000803e3d6000fd5b50508254610100900460ff169150829050600161386083615e2c565b825460ff91821661010093840a90810290830219909116179092558354604051919004909116815283915033907f2ef0b9f6641bfe4ae9f94f2b9b20ece8b29e13b163e6425c14ff8f520e79412e9060200160405180910390a35050565b609654610100900460ff166138e55760405162461bcd60e51b815260040161143790615bed565b6000828152609060205260408082208383529181902060655491516331a9108f60e11b815260048101869052909133916001600160a01b0390911690636352211e9060240160206040518083038186803b15801561394257600080fd5b505afa158015613956573d6000803e3d6000fd5b505050506040513d601f19601f8201168201806040525081019061397a9190615cae565b6001600160a01b0316148061399f57508154630100000090046001600160a01b031633145b6139d45760405162461bcd60e51b8152600401611437906020808252600490820152634537323160e01b604082015260600190565b6065546040516331a9108f60e11b81526004810185905233916001600160a01b031690636352211e9060240160206040518083038186803b158015613a1857600080fd5b505afa158015613a2c573d6000803e3d6000fd5b505050506040513d601f19601f82011682018060405250810190613a509190615cae565b6001600160a01b03161480613a7557508054630100000090046001600160a01b031633145b613aaa5760405162461bcd60e51b815260040161143790602080825260049082015263229b991960e11b604082015260600190565b6000825460ff166001811115613ac257613ac2615946565b148015613ad957508154600661010090910460ff16105b613b0e5760405162461bcd60e51b8152600401611437906020808252600490820152634537313160e01b604082015260600190565b6000815460ff166001811115613b2657613b26615946565b14613b5c5760405162461bcd60e51b815260040161143790602080825260049082015263229b989960e11b604082015260600190565b606654825460b480546001600160a01b03909316926323b872dd92339230929091610100900460ff16908110613b9457613b94615c57565b90600052602060002001546040518463ffffffff1660e01b8152600401613bbd93929190615c6d565b602060405180830381600087803b158015613bd757600080fd5b505af1158015613beb573d6000803e3d6000fd5b505050506040513d601f19601f82011682018060405250810190613c0f9190615c91565b50606554604051630852cd8d60e31b8152600481018590526001600160a01b03909116906342966c6890602401600060405180830381600087803b158015613c5657600080fd5b505af1158015613c6a573d6000803e3d6000fd5b5050835462010000900460ff16159150613c95905057613c89846123b2565b60028301554260018301555b8154610100900460ff16826001613cab83615e2c565b825460ff91821661010093840a90810290830219909116179092558454604051919004909116815285915033907f2ef0b9f6641bfe4ae9f94f2b9b20ece8b29e13b163e6425c14ff8f520e79412e9060200160405180910390a350505050565b600081815260b26020526040902080546001600160a01b03163314613d5b5760405162461bcd60e51b8152600401611437906020808252600490820152632298999960e11b604082015260600190565b613d6482613547565b60005b6001820154811015613df8578260b36000846001018481548110613d8d57613d8d615c57565b90600052602060002001548152602001908152602001600020541415613de657600060b36000846001018481548110613dc857613dc8615c57565b90600052602060002001548152602001908152602001600020819055505b80613df081615ccb565b915050613d67565b5060405182907f09698112a550dd9c01c2bd871ca714f89914920cedcfeb00905d4de747159a3390600090a25050565b603380546001600160a01b038381166001600160a01b0319831681179093556040519116919082907f8be0079c531659141344cd1fd0a4f28419497f9722a3daafe3b4186f6b6457e090600090a35050565b600084815260b260205260409020815b83811015611d9d57600060906000878785818110613eaa57613eaa615c57565b905060200201358152602001908152602001600020905060006001811115613ed457613ed4615946565b815460ff166001811115613eea57613eea615946565b14613f205760405162461bcd60e51b8152600401611437906020808252600490820152634531333360e01b604082015260600190565b60b36000878785818110613f3657613f36615c57565b90506020020135815260200190815260200160002054600014613f845760405162461bcd60e51b815260040161143790602080825260049082015263114c4ccd60e21b604082015260600190565b82600101868684818110613f9a57613f9a615c57565b83546001810185556000948552602094859020919094029290920135919092015550805460b580549091610100900460ff16908110613fdb57613fdb615c57565b9060005260206000200154836003016000828254613ff99190615c20565b9091555087905060b3600088888681811061401657614016615c57565b9050602002013581526020019081526020016000208190555085858381811061404157614041615c57565b90506020020135877f8f128424f32a4d6764618308b84307db75f4151f3580608175283d54326fe5a560405160405180910390a3508061408081615ccb565b915050613e8a565b600083815260b260205260408120905b82811015611c71576000609060008686858181106140b8576140b8615c57565b9050602002013581526020019081526020016000209050600060018111156140e2576140e2615946565b815460ff1660018111156140f8576140f8615946565b1461412e5760405162461bcd60e51b8152600401611437906020808252600490820152634531343360e01b604082015260600190565b8560b3600087878681811061414557614145615c57565b90506020020135815260200190815260200160002054146141915760405162461bcd60e51b815260040161143790602080825260049082015263114c4d0d60e21b604082015260600190565b805460b580549091610100900460ff169081106141b0576141b0615c57565b90600052602060002001548360030160008282546141ce9190615d38565b909155506000905060b3818787868181106141eb576141eb615c57565b9050602002013581526020019081526020016000208190555084848381811061421657614216615c57565b90506020020135867fbf29afa7b80118742f9b6f15e4a2f6ae38b0dc246732b5b2bdde209326c7dfca60405160405180910390a3508061425581615ccb565b915050614098565b6066546040516340c10f1960e01b815282916001600160a01b0316906340c10f199061428f9086908590600401615d71565b600060405180830381600087803b1580156142a957600080fd5b505af115801561327f573d6000803e3d6000fd5b60008080808085156142d2575060a2546142d7565b5060a7545b600081815260a560205260408120905b888110156145b4576000609060008c8c8581811061430757614307615c57565b90506020020135815260200190815260200160002090508060000160029054906101000a900460ff1615156001151514801561435357508054630100000090046001600160a01b031633145b6143855760405162461bcd60e51b815260206004820152600360248201526245393160e81b6044820152606401611437565b600061439c8c8c85818110611ef957611ef9615c57565b90506000825460ff1660018111156143b6576143b6615946565b14156145125760006064607d54836143ce9190615c38565b6143d89190615d4f565b90506143e48183615d38565b6143ee908a615c20565b98506143fa8188615c20565b42600185015596508a156144c4578254607b80549091610100900460ff1690811061442757614427615c57565b90600052602060002001548210156144675760405162461bcd60e51b8152602060048201526003602482015262229c9960e91b6044820152606401611437565b846001018d8d8681811061447d5761447d615c57565b83546001810185556000948552602094859020919094029290920135919092015550600285016144ad8284615d38565b815460018101835560009283526020909220909101555b8c8c858181106144d6576144d6615c57565b602002919091013590503387600080516020615ed48339815191526144fb8587615d38565b60405190815260200160405180910390a450614572565b61451c8188615c20565b608a54600384015596508b8b8481811061453857614538615c57565b90506020020135336001600160a01b031686600080516020615ed48339815191528460405161456991815260200190565b60405180910390a45b8915614599576145998c8c8581811061458d5761458d615c57565b9050602002013561461d565b506000600290910155806145ac81615ccb565b9150506142e7565b506145c333612e728787615c20565b821561460d576145d283615147565b817fa82e56087acdb4c45b596e06c5ef2d1e974654985bfd4300ebad87555eec136e8460405161460491815260200190565b60405180910390a25b6001015498975050505050505050565b6000818152609060205260409020805462010000600160b81b031981168255630100000090046001600160a01b03166001825460ff16600181111561466457614664615946565b14156147cb578154608880549091610100900460ff1690811061468957614689615c57565b9060005260206000200154608b60008282546146a59190615d38565b90915550508154610100900460ff16156147c6578154600090608c90610100900460ff16600481106146d9576146d9615c57565b8454910190600190608c90610100900460ff16600481106146fc576146fc615c57565b01546147089190615d38565b8154811061471857614718615c57565b60009182526020909120015483549091508190608c90610100900460ff166004811061474657614746615c57565b0184600401548154811061475c5761475c615c57565b6000918252602090912001558254608c90610100900460ff166004811061478557614785615c57565b0180548061479557614795615e4c565b6000828152602080822083016000199081018390559092019092556004808601549383526090909152604090912001555b6147fa565b6001600160a01b038116600090815260bc602052604081208054600192906147f4908490615c20565b90915550505b60006004808401919091556065546040516323b872dd60e01b81526001600160a01b03909116916323b872dd916148379130918691899101615c6d565b600060405180830381600087803b15801561485157600080fd5b505af1158015614865573d6000803e3d6000fd5b50506040516001600160a01b03841692508591507f3a01954f64bfeed1c903bc3920f7a5639288ea25efc7a539195648519e4184a390600090a3505050565b60006148ae614ae3565b604080516060810182526002808252336020808401919091526001838501819052600086815260a39092529390208251815495965092949093849260ff1990921691849081111561490157614901615946565b021790555060208281015182546040948501511515600160a81b0260ff60a81b196001600160a01b039093166101000292909216610100600160b01b03199091161717909155600092835260a69052902055565b621e8c5181101561498e5760405162461bcd60e51b815260206004820152600360248201526245313160e81b6044820152606401611437565b60008181526091602052604090205460ff16156149d35760405162461bcd60e51b815260206004820152600360248201526222989960e91b6044820152606401611437565b6068546040516331a9108f60e11b81526004810183905233916001600160a01b031690636352211e9060240160206040518083038186803b158015614a1757600080fd5b505afa158015614a2b573d6000803e3d6000fd5b505050506040513d601f19601f82011682018060405250810190614a4f9190615cae565b6001600160a01b031614614a8b5760405162461bcd60e51b815260206004820152600360248201526245313360e81b6044820152606401611437565b6000818152609160205260408120805460ff19166001179055614aad3361517f565b6040519091508190839033907f584ea1a98d504e99c0dd0ca5ace55f5458d725e7e20a1ebb2e5e5af38434397190600090a45050565b600060a2547f315444e506fb06e32d43fe2cf48f37218994285028f458255be4a56810b66b8d60a254604051614b1b91815260200190565b60405180910390a260a28054906000614b3383615ccb565b9190505550600160a254611dc59190615d38565b607f8054600091839083614b5b8385615c20565b92505081905550607860795481548110614b7757614b77615c57565b9060005260206000200154607f5410614ba05760798054906000614b9a83615ccb565b91905055505b6065546040516322ce52b560e21b81526001600160a01b038681166004830152602482018490526044820186905290911690638b394ad490606401600060405180830381600087803b158015614bf557600080fd5b505af1158015614c09573d6000803e3d6000fd5b5050505060005b83811015614c6357600160906000614c288486615c20565b81526020810191909152604001600020805460ff929092166101000261ff001990921691909117905580614c5b81615ccb565b915050614c10565b5060408051828152602081018590526001600160a01b038616917f8b7c923d3e09b520f101439fe55b1b1ea3b1fcdfcb88afe6aed96873d341e1aa910160405180910390a29392505050565b600082815260a460205260408120805463ffffffff165b8154614ce29060ff600160201b8204169063ffffffff16615e62565b63ffffffff16811015611d9d576000818152609060205260409081902060c054915163cad8a7cd60e01b81526004810187905290916001600160a01b03169063cad8a7cd90602401604080518083038186803b158015614d4157600080fd5b505afa158015614d55573d6000803e3d6000fd5b505050506040513d601f19601f82011682018060405250810190614d799190615e8a565b608654909650909450841015614dc557805461ffff1916600117815560405182907fe745cd12d6f4eb3c23b4aeb859314255073bdc0805d89f7622090698abf484b290600090a2614dfc565b60405182906001600160a01b038916907f17168db4d4772024cf56ab2222c1d7888481238be6bc32c3d7a8726a9483bab290600090a35b8254600090600160281b900460ff1615614eca5760c05460405163cad8a7cd60e01b8152600481018890526001600160a01b039091169063cad8a7cd90602401604080518083038186803b158015614e5357600080fd5b505afa158015614e67573d6000803e3d6000fd5b505050506040513d601f19601f82011682018060405250810190614e8b9190615e8a565b8554909750909550600160281b900460ff16851015614eca576000614eae615259565b90508015614ec857614ec18482896152c9565b9650600191505b505b80614f58578354600160301b900460ff1615614ef157614eec83896001613288565b614f58565b6065546040516323b872dd60e01b81526001600160a01b03909116906323b872dd90614f259030908c908890600401615c6d565b600060405180830381600087803b158015614f3f57600080fd5b505af1158015614f53573d6000803e3d6000fd5b505050505b50508080614f6590615ccb565b915050614cc6565b600082815260a66020908152604080832054808452609090925280832060c054915163cad8a7cd60e01b8152600481018690529293909290916001600160a01b03169063cad8a7cd90602401604080518083038186803b158015614fd057600080fd5b505afa158015614fe4573d6000803e3d6000fd5b505050506040513d601f19601f820116820180604052508101906150089190615e8a565b945090506150158161544a565b825461ff00191661010060ff92831602178084556201000090041615156001141561510157608860008154811061504e5761504e615c57565b6000918252602090912001548254608880549091610100900460ff1690811061507957615079615c57565b906000526020600020015461508e9190615d38565b608b600082825461509f9190615c20565b90915550508154608c90610100900460ff16600481106150c1576150c1615c57565b01546004838101919091558254608c9161010090910460ff169081106150e9576150e9615c57565b01805460018101825560009182526020909120018390555b815460405161010090910460ff16815283907fe15c536009c86cf1fa16027c6ee4538c2bcce2bdcd80dd17fec4ea96182ef04c9060200160405180910390a25050505050565b615151308261425d565b608b541561307757608b546151669082615d4f565b608a60008282546151779190615c20565b909155505050565b607f805460009181908361519283615ccb565b91905055506078607954815481106151ac576151ac615c57565b9060005260206000200154607f54106151d557607980549060006151cf83615ccb565b91905055505b6065546040516340c10f1960e01b81526001600160a01b03909116906340c10f19906152079086908590600401615d71565b600060405180830381600087803b15801561522157600080fd5b505af1158015615235573d6000803e3d6000fd5b5050506000828152609060205260409020805461ffff191660011790555092915050565b60008060015b600381116152c357608c816004811061527a5761527a615c57565b0154608980548390811061529057615290615c57565b90600052602060002001546152a59190615c38565b6152af9083615c20565b9150806152bb81615ccb565b91505061525f565b50919050565b60c05460405163f28c56b960e01b815260048101849052602481018390526019604482015260009182916001600160a01b039091169063f28c56b990606401604080518083038186803b15801561531f57600080fd5b505afa158015615333573d6000803e3d6000fd5b505050506040513d601f19601f820116820180604052508101906153579190615e8a565b935090506000615366826154a8565b606554600082815260906020526040908190205490516323b872dd60e01b81529293506001600160a01b03918216926323b872dd926153b79230926301000000909104909116908b90600401615c6d565b600060405180830381600087803b1580156153d157600080fd5b505af11580156153e5573d6000803e3d6000fd5b50505060008281526090602090815260409182902054915184815263010000009092046001600160a01b0316925088917f9055cdd665fdee53683ce213caee079a0b8a929160ad57c0b83ca49f032dfafc910160405180910390a35091949350505050565b6000805b60038160ff16101561549f5760878160ff168154811061547057615470615c57565b906000526020600020015483101561548d57612578816001615eae565b8061549781615e2c565b91505061544e565b50600092915050565b60008060015b6003811161559c576000608c82600481106154cb576154cb615c57565b015460898054849081106154e1576154e1615c57565b90600052602060002001546154f69190615c38565b90506155028184615c20565b85101561557c5760006089838154811061551e5761551e615c57565b906000526020600020015484876155359190615d38565b61553f9190615d4f565b9050608c836004811061555457615554615c57565b01818154811061556657615566615c57565b9060005260206000200154945050505050919050565b6155868184615c20565b925050808061559490615ccb565b9150506154ae565b5060009392505050565b8280548282559060005260206000209081019282156155e1579160200282015b828111156155e15782518255916020019190600101906155c6565b506155ed9291506155f1565b5090565b5b808211156155ed57600081556001016155f2565b60006020828403121561561857600080fd5b5035919050565b801515811461307757600080fd5b6000806040838503121561564057600080fd5b8235915060208301356156528161561f565b809150509250929050565b60008083601f84011261566f57600080fd5b5081356001600160401b0381111561568657600080fd5b6020830191508360208260051b85010111156156a157600080fd5b9250929050565b600080602083850312156156bb57600080fd5b82356001600160401b038111156156d157600080fd5b6156dd8582860161565d565b90969095509350505050565b6001600160a01b038116811461307757600080fd5b60006020828403121561571057600080fd5b8135612578816156e9565b6000806040838503121561572e57600080fd5b50508035926020909101359150565b634e487b7160e01b600052604160045260246000fd5b60405160e081016001600160401b03811182821017156157755761577561573d565b60405290565b600082601f83011261578c57600080fd5b813560206001600160401b03808311156157a8576157a861573d565b8260051b604051601f19603f830116810181811084821117156157cd576157cd61573d565b6040529384528581018301938381019250878511156157eb57600080fd5b83870191505b8482101561580a578135835291830191908301906157f1565b979650505050505050565b60006020828403121561582757600080fd5b81356001600160401b038082111561583e57600080fd5b9083019060e0828603121561585257600080fd5b61585a615753565b823581526020830135602082015260408301358281111561587a57600080fd5b6158868782860161577b565b60408301525060608301358281111561589e57600080fd5b6158aa8782860161577b565b6060830152506080830135608082015260a0830135828111156158cc57600080fd5b6158d88782860161577b565b60a08301525060c083013560c082015280935050505092915050565b6000806000806060858703121561590a57600080fd5b843593506020850135925060408501356001600160401b0381111561592e57600080fd5b61593a8782880161565d565b95989497509550505050565b634e487b7160e01b600052602160045260246000fd5b610100810160028a1061597157615971615946565b98815260ff97909716602088015294151560408701526001600160a01b03939093166060860152608085019190915260a084015260c083015260e09091015290565b6000806000806000606086880312156159cb57600080fd5b8535945060208601356001600160401b03808211156159e957600080fd5b6159f589838a0161565d565b90965094506040880135915080821115615a0e57600080fd5b50615a1b8882890161565d565b969995985093965092949392505050565b6020808252825182820181905260009190848201906040850190845b81811015615a6457835183529284019291840191600101615a48565b50909695505050505050565b6000608082840312156152c357600080fd5b600081518084526020808501945080840160005b83811015615ab257815187529582019590820190600101615a96565b509495945050505050565b6020815281516020820152602082015160408201526040820151606082015260608201516080820152608082015160a0820152600060a08301516101008060c0850152615b0e610120850183615a82565b915060c085015160e085015260e0850151601f198584030182860152615b348382615a82565b9695505050505050565b6060810160038510615b5257615b52615946565b9381526001600160a01b03929092166020830152151560409091015290565b60008060008060408587031215615b8757600080fd5b84356001600160401b0380821115615b9e57600080fd5b615baa8883890161565d565b90965094506020870135915080821115615bc357600080fd5b5061593a8782880161565d565b600060208284031215615be257600080fd5b81356125788161561f565b60208082526003908201526245303160e81b604082015260600190565b634e487b7160e01b600052601160045260246000fd5b60008219821115615c3357615c33615c0a565b500190565b6000816000190483118215151615615c5257615c52615c0a565b500290565b634e487b7160e01b600052603260045260246000fd5b6001600160a01b039384168152919092166020820152604081019190915260600190565b600060208284031215615ca357600080fd5b81516125788161561f565b600060208284031215615cc057600080fd5b8151612578816156e9565b6000600019821415615cdf57615cdf615c0a565b5060010190565b60208082526003908201526204536360ec1b604082015260600190565b6020808252818101527f4f776e61626c653a2063616c6c6572206973206e6f7420746865206f776e6572604082015260600190565b600082821015615d4a57615d4a615c0a565b500390565b600082615d6c57634e487b7160e01b600052601260045260246000fd5b500490565b6001600160a01b03929092168252602082015260400190565b600060208284031215615d9c57600080fd5b813560ff8116811461257857600080fd5b60a08152600086518060a084015260005b81811015615ddb576020818a0181015160c0868401015201615dbe565b81811115615ded57600060c083860101525b50601f01601f1916820160c0019050615e0b602083018760ff169052565b846040830152836060830152615b3460808301846001600160a01b03169052565b600060ff821660ff811415615e4357615e43615c0a565b60010192915050565b634e487b7160e01b600052603160045260246000fd5b600063ffffffff808316818516808303821115615e8157615e81615c0a565b01949350505050565b60008060408385031215615e9d57600080fd5b505080516020909101519092909150565b600060ff821660ff84168060ff03821115615ecb57615ecb615c0a565b01939250505056fe40e6a337f1a78915df745fd02b2ca082e64e8a780a99b8fbb355f64409b399cca2646970667358221220b861cf7a890646fe8ceb00d21662ba070fa5d974600636b37431e6e5f91e040864736f6c63430008090033",
    "linkReferences": {},
    "deployedLinkReferences": {}
}