{
    "_format": "hh-sol-artifact-1",
    "contractName": "MekaApesGame",
    "sourceName": "contracts/MekaApesGame.sol",
    "abi": [
        {
            "anonymous": false,
            "inputs": [
                {
                    "indexed": true,
                    "internalType": "uint256",
                    "name": "claimId",
                    "type": "uint256"
                },
                {
                    "indexed": true,
                    "internalType": "uint256",
                    "name": "tokenId",
                    "type": "uint256"
                },
                {
                    "indexed": false,
                    "internalType": "uint256",
                    "name": "amount",
                    "type": "uint256"
                }
            ],
            "name": "AttackReward",
            "type": "event"
        },
        {
            "anonymous": false,
            "inputs": [
                {
                    "indexed": true,
                    "internalType": "address",
                    "name": "account",
                    "type": "address"
                },
                {
                    "indexed": true,
                    "internalType": "uint256",
                    "name": "oogaId",
                    "type": "uint256"
                },
                {
                    "indexed": true,
                    "internalType": "uint256",
                    "name": "newTokenId",
                    "type": "uint256"
                }
            ],
            "name": "BabyOogaEvolve",
            "type": "event"
        },
        {
            "anonymous": false,
            "inputs": [
                {
                    "indexed": true,
                    "internalType": "uint256",
                    "name": "claimId",
                    "type": "uint256"
                },
                {
                    "indexed": true,
                    "internalType": "address",
                    "name": "account",
                    "type": "address"
                },
                {
                    "indexed": true,
                    "internalType": "uint256",
                    "name": "tokenId",
                    "type": "uint256"
                },
                {
                    "indexed": false,
                    "internalType": "uint256",
                    "name": "amount",
                    "type": "uint256"
                }
            ],
            "name": "ClaimReward",
            "type": "event"
        },
        {
            "anonymous": false,
            "inputs": [
                {
                    "indexed": true,
                    "internalType": "address",
                    "name": "account",
                    "type": "address"
                },
                {
                    "indexed": true,
                    "internalType": "uint256",
                    "name": "oogaId",
                    "type": "uint256"
                },
                {
                    "indexed": false,
                    "internalType": "uint256",
                    "name": "newLevel",
                    "type": "uint256"
                }
            ],
            "name": "LevelUpRoboOoga",
            "type": "event"
        },
        {
            "anonymous": false,
            "inputs": [
                {
                    "indexed": true,
                    "internalType": "uint256",
                    "name": "tokenId",
                    "type": "uint256"
                },
                {
                    "indexed": false,
                    "internalType": "uint256",
                    "name": "megaLevel",
                    "type": "uint256"
                }
            ],
            "name": "MegaMerged",
            "type": "event"
        },
        {
            "anonymous": false,
            "inputs": [
                {
                    "indexed": true,
                    "internalType": "uint256",
                    "name": "tokenId",
                    "type": "uint256"
                }
            ],
            "name": "MekaConvert",
            "type": "event"
        },
        {
            "anonymous": false,
            "inputs": [
                {
                    "indexed": true,
                    "internalType": "address",
                    "name": "account",
                    "type": "address"
                },
                {
                    "indexed": false,
                    "internalType": "uint256",
                    "name": "oogaIdSave",
                    "type": "uint256"
                },
                {
                    "indexed": true,
                    "internalType": "uint256",
                    "name": "oogaIdBurn",
                    "type": "uint256"
                }
            ],
            "name": "MergeMekaApes",
            "type": "event"
        },
        {
            "anonymous": false,
            "inputs": [
                {
                    "indexed": true,
                    "internalType": "address",
                    "name": "account",
                    "type": "address"
                },
                {
                    "indexed": false,
                    "internalType": "uint256",
                    "name": "startFromTokenId",
                    "type": "uint256"
                },
                {
                    "indexed": false,
                    "internalType": "uint256",
                    "name": "amount",
                    "type": "uint256"
                }
            ],
            "name": "MintMultipleRobo",
            "type": "event"
        },
        {
            "anonymous": false,
            "inputs": [
                {
                    "indexed": true,
                    "internalType": "uint256",
                    "name": "oogaId",
                    "type": "uint256"
                },
                {
                    "indexed": true,
                    "internalType": "address",
                    "name": "tributeAccount",
                    "type": "address"
                },
                {
                    "indexed": false,
                    "internalType": "uint256",
                    "name": "tributeOogaId",
                    "type": "uint256"
                }
            ],
            "name": "OogaAttacked",
            "type": "event"
        },
        {
            "anonymous": false,
            "inputs": [
                {
                    "indexed": true,
                    "internalType": "address",
                    "name": "previousOwner",
                    "type": "address"
                },
                {
                    "indexed": true,
                    "internalType": "address",
                    "name": "newOwner",
                    "type": "address"
                }
            ],
            "name": "OwnershipTransferred",
            "type": "event"
        },
        {
            "anonymous": false,
            "inputs": [
                {
                    "indexed": true,
                    "internalType": "uint256",
                    "name": "requestId",
                    "type": "uint256"
                },
                {
                    "indexed": false,
                    "internalType": "uint256",
                    "name": "entropy",
                    "type": "uint256"
                }
            ],
            "name": "ReceiveRandoms",
            "type": "event"
        },
        {
            "anonymous": false,
            "inputs": [
                {
                    "indexed": true,
                    "internalType": "uint256",
                    "name": "requestId",
                    "type": "uint256"
                },
                {
                    "indexed": false,
                    "internalType": "uint256",
                    "name": "requestSeed",
                    "type": "uint256"
                }
            ],
            "name": "RequestRandoms",
            "type": "event"
        },
        {
            "anonymous": false,
            "inputs": [
                {
                    "indexed": true,
                    "internalType": "uint256",
                    "name": "oogaId",
                    "type": "uint256"
                },
                {
                    "indexed": true,
                    "internalType": "address",
                    "name": "account",
                    "type": "address"
                }
            ],
            "name": "StakeOoga",
            "type": "event"
        },
        {
            "anonymous": false,
            "inputs": [
                {
                    "indexed": true,
                    "internalType": "uint256",
                    "name": "claimId",
                    "type": "uint256"
                },
                {
                    "indexed": false,
                    "internalType": "uint256",
                    "name": "totalTax",
                    "type": "uint256"
                }
            ],
            "name": "TaxReward",
            "type": "event"
        },
        {
            "anonymous": false,
            "inputs": [
                {
                    "indexed": true,
                    "internalType": "uint256",
                    "name": "oogaId",
                    "type": "uint256"
                },
                {
                    "indexed": true,
                    "internalType": "address",
                    "name": "account",
                    "type": "address"
                }
            ],
            "name": "UnstakeOoga",
            "type": "event"
        },
        {
            "inputs": [],
            "name": "ATTACK_CHANCE_DENOM",
            "outputs": [
                {
                    "internalType": "uint256",
                    "name": "",
                    "type": "uint256"
                }
            ],
            "stateMutability": "view",
            "type": "function"
        },
        {
            "inputs": [],
            "name": "CLAIM_TAX_DENOM",
            "outputs": [
                {
                    "internalType": "uint256",
                    "name": "",
                    "type": "uint256"
                }
            ],
            "stateMutability": "view",
            "type": "function"
        },
        {
            "inputs": [
                {
                    "internalType": "uint256",
                    "name": "ethAttackChance",
                    "type": "uint256"
                },
                {
                    "internalType": "uint256",
                    "name": "dmtAttackChance",
                    "type": "uint256"
                },
                {
                    "internalType": "uint256",
                    "name": "ogAttackChance",
                    "type": "uint256"
                }
            ],
            "name": "_changeAttackChances",
            "outputs": [],
            "stateMutability": "nonpayable",
            "type": "function"
        },
        {
            "inputs": [
                {
                    "internalType": "uint256",
                    "name": "currentOgPriceStep_",
                    "type": "uint256"
                }
            ],
            "name": "_changeCurrentOgStep",
            "outputs": [],
            "stateMutability": "nonpayable",
            "type": "function"
        },
        {
            "inputs": [
                {
                    "internalType": "bool",
                    "name": "gameActive_",
                    "type": "bool"
                }
            ],
            "name": "_changeGameActive",
            "outputs": [],
            "stateMutability": "nonpayable",
            "type": "function"
        },
        {
            "inputs": [
                {
                    "internalType": "uint256[]",
                    "name": "mintOGpriceSteps_",
                    "type": "uint256[]"
                }
            ],
            "name": "_changeMintOGPriceSteps",
            "outputs": [],
            "stateMutability": "nonpayable",
            "type": "function"
        },
        {
            "inputs": [
                {
                    "internalType": "bool",
                    "name": "mintSale_",
                    "type": "bool"
                }
            ],
            "name": "_changeMintSale",
            "outputs": [],
            "stateMutability": "nonpayable",
            "type": "function"
        },
        {
            "inputs": [
                {
                    "internalType": "uint256",
                    "name": "mintSaleAmount_",
                    "type": "uint256"
                }
            ],
            "name": "_changeMintSaleAmount",
            "outputs": [],
            "stateMutability": "nonpayable",
            "type": "function"
        },
        {
            "inputs": [
                {
                    "internalType": "uint256",
                    "name": "tokenId",
                    "type": "uint256"
                },
                {
                    "internalType": "uint8",
                    "name": "level",
                    "type": "uint8"
                }
            ],
            "name": "_changeOogaLevel",
            "outputs": [],
            "stateMutability": "nonpayable",
            "type": "function"
        },
        {
            "inputs": [
                {
                    "internalType": "bool",
                    "name": "publicMintStarted_",
                    "type": "bool"
                }
            ],
            "name": "_changePublicMintStarted",
            "outputs": [],
            "stateMutability": "nonpayable",
            "type": "function"
        },
        {
            "inputs": [
                {
                    "internalType": "address",
                    "name": "toAddress",
                    "type": "address"
                },
                {
                    "internalType": "uint256",
                    "name": "amount",
                    "type": "uint256"
                }
            ],
            "name": "_freeBurnOG",
            "outputs": [],
            "stateMutability": "nonpayable",
            "type": "function"
        },
        {
            "inputs": [
                {
                    "internalType": "address",
                    "name": "toAddress",
                    "type": "address"
                }
            ],
            "name": "_freeMintMeka",
            "outputs": [],
            "stateMutability": "nonpayable",
            "type": "function"
        },
        {
            "inputs": [
                {
                    "internalType": "address",
                    "name": "toAddress",
                    "type": "address"
                },
                {
                    "internalType": "uint256",
                    "name": "amount",
                    "type": "uint256"
                }
            ],
            "name": "_freeMintMultipleMeka",
            "outputs": [],
            "stateMutability": "nonpayable",
            "type": "function"
        },
        {
            "inputs": [
                {
                    "internalType": "address",
                    "name": "toAddress",
                    "type": "address"
                },
                {
                    "internalType": "uint256",
                    "name": "amount",
                    "type": "uint256"
                }
            ],
            "name": "_freeMintOG",
            "outputs": [],
            "stateMutability": "nonpayable",
            "type": "function"
        },
        {
            "inputs": [
                {
                    "internalType": "address",
                    "name": "toAddress",
                    "type": "address"
                },
                {
                    "internalType": "uint256",
                    "name": "amount",
                    "type": "uint256"
                }
            ],
            "name": "_freeMintRobo",
            "outputs": [],
            "stateMutability": "nonpayable",
            "type": "function"
        },
        {
            "inputs": [
                {
                    "components": [
                        {
                            "internalType": "uint256",
                            "name": "mintAllowance",
                            "type": "uint256"
                        },
                        {
                            "internalType": "uint8",
                            "name": "_v",
                            "type": "uint8"
                        },
                        {
                            "internalType": "bytes32",
                            "name": "_r",
                            "type": "bytes32"
                        },
                        {
                            "internalType": "bytes32",
                            "name": "_s",
                            "type": "bytes32"
                        }
                    ],
                    "internalType": "struct MintSignature",
                    "name": "sig",
                    "type": "tuple"
                },
                {
                    "internalType": "address",
                    "name": "acc",
                    "type": "address"
                }
            ],
            "name": "_verifyMintSig",
            "outputs": [
                {
                    "internalType": "bool",
                    "name": "",
                    "type": "bool"
                }
            ],
            "stateMutability": "view",
            "type": "function"
        },
        {
            "inputs": [],
            "name": "addedOgForRewardsAtEnd",
            "outputs": [
                {
                    "internalType": "uint256",
                    "name": "",
                    "type": "uint256"
                }
            ],
            "stateMutability": "view",
            "type": "function"
        },
        {
            "inputs": [
                {
                    "internalType": "address",
                    "name": "account",
                    "type": "address"
                },
                {
                    "internalType": "uint256",
                    "name": "mintAllowance",
                    "type": "uint256"
                }
            ],
            "name": "allowedToMint",
            "outputs": [
                {
                    "internalType": "uint256",
                    "name": "",
                    "type": "uint256"
                }
            ],
            "stateMutability": "view",
            "type": "function"
        },
        {
            "inputs": [
                {
                    "internalType": "bool",
                    "name": "gameActive_",
                    "type": "bool"
                }
            ],
            "name": "changeGameActive",
            "outputs": [],
            "stateMutability": "nonpayable",
            "type": "function"
        },
        {
            "inputs": [
                {
                    "internalType": "bool",
                    "name": "mintSale_",
                    "type": "bool"
                }
            ],
            "name": "changeMintSale",
            "outputs": [],
            "stateMutability": "nonpayable",
            "type": "function"
        },
        {
            "inputs": [
                {
                    "components": [
                        {
                            "internalType": "uint256",
                            "name": "mintPrice",
                            "type": "uint256"
                        },
                        {
                            "internalType": "uint256",
                            "name": "mintStakePrice",
                            "type": "uint256"
                        },
                        {
                            "internalType": "uint256[]",
                            "name": "mintOGprice",
                            "type": "uint256[]"
                        },
                        {
                            "internalType": "uint256[]",
                            "name": "mintOGstakePrice",
                            "type": "uint256[]"
                        },
                        {
                            "internalType": "uint256",
                            "name": "mintDMTstakePrice",
                            "type": "uint256"
                        },
                        {
                            "internalType": "uint256[]",
                            "name": "roboLevelupPrice",
                            "type": "uint256[]"
                        },
                        {
                            "internalType": "uint256",
                            "name": "mekaMergePrice",
                            "type": "uint256"
                        }
                    ],
                    "internalType": "struct Prices",
                    "name": "prices_",
                    "type": "tuple"
                }
            ],
            "name": "changePrices",
            "outputs": [],
            "stateMutability": "nonpayable",
            "type": "function"
        },
        {
            "inputs": [
                {
                    "internalType": "bool",
                    "name": "publicMintStarted_",
                    "type": "bool"
                }
            ],
            "name": "changePublicMintStarted",
            "outputs": [],
            "stateMutability": "nonpayable",
            "type": "function"
        },
        {
            "inputs": [
                {
                    "internalType": "uint256",
                    "name": "tokenId",
                    "type": "uint256"
                }
            ],
            "name": "claimAvailableAmount",
            "outputs": [
                {
                    "internalType": "uint256",
                    "name": "",
                    "type": "uint256"
                }
            ],
            "stateMutability": "view",
            "type": "function"
        },
        {
            "inputs": [
                {
                    "internalType": "uint256[]",
                    "name": "tokenIds",
                    "type": "uint256[]"
                }
            ],
            "name": "claimAvailableAmountMultipleTokens",
            "outputs": [
                {
                    "internalType": "uint256[]",
                    "name": "result",
                    "type": "uint256[]"
                }
            ],
            "stateMutability": "view",
            "type": "function"
        },
        {
            "inputs": [
                {
                    "internalType": "uint256",
                    "name": "",
                    "type": "uint256"
                }
            ],
            "name": "claimRequests",
            "outputs": [
                {
                    "internalType": "uint256",
                    "name": "totalMekaReward",
                    "type": "uint256"
                }
            ],
            "stateMutability": "view",
            "type": "function"
        },
        {
            "inputs": [
                {
                    "internalType": "uint256[]",
                    "name": "tokenIds",
                    "type": "uint256[]"
                }
            ],
            "name": "claimReward",
            "outputs": [],
            "stateMutability": "nonpayable",
            "type": "function"
        },
        {
            "inputs": [],
            "name": "claimTax",
            "outputs": [
                {
                    "internalType": "uint256",
                    "name": "",
                    "type": "uint256"
                }
            ],
            "stateMutability": "view",
            "type": "function"
        },
        {
            "inputs": [],
            "name": "currentOgPriceStep",
            "outputs": [
                {
                    "internalType": "uint256",
                    "name": "",
                    "type": "uint256"
                }
            ],
            "stateMutability": "view",
            "type": "function"
        },
        {
            "inputs": [],
            "name": "dmtMintAttackChance",
            "outputs": [
                {
                    "internalType": "uint256",
                    "name": "",
                    "type": "uint256"
                }
            ],
            "stateMutability": "view",
            "type": "function"
        },
        {
            "inputs": [],
            "name": "dmtToken",
            "outputs": [
                {
                    "internalType": "contract IDMT_ERC20",
                    "name": "",
                    "type": "address"
                }
            ],
            "stateMutability": "view",
            "type": "function"
        },
        {
            "inputs": [],
            "name": "erc721Contract",
            "outputs": [
                {
                    "internalType": "contract MekaApesERC721",
                    "name": "",
                    "type": "address"
                }
            ],
            "stateMutability": "view",
            "type": "function"
        },
        {
            "inputs": [],
            "name": "ethMintAttackChance",
            "outputs": [
                {
                    "internalType": "uint256",
                    "name": "",
                    "type": "uint256"
                }
            ],
            "stateMutability": "view",
            "type": "function"
        },
        {
            "inputs": [
                {
                    "internalType": "uint256[]",
                    "name": "tokenIds",
                    "type": "uint256[]"
                }
            ],
            "name": "evolveBabyOogas",
            "outputs": [],
            "stateMutability": "nonpayable",
            "type": "function"
        },
        {
            "inputs": [],
            "name": "gameActive",
            "outputs": [
                {
                    "internalType": "bool",
                    "name": "",
                    "type": "bool"
                }
            ],
            "stateMutability": "view",
            "type": "function"
        },
        {
            "inputs": [],
            "name": "getPrices",
            "outputs": [
                {
                    "components": [
                        {
                            "internalType": "uint256",
                            "name": "mintPrice",
                            "type": "uint256"
                        },
                        {
                            "internalType": "uint256",
                            "name": "mintStakePrice",
                            "type": "uint256"
                        },
                        {
                            "internalType": "uint256",
                            "name": "mintOGprice",
                            "type": "uint256"
                        },
                        {
                            "internalType": "uint256",
                            "name": "mintOGstakePrice",
                            "type": "uint256"
                        },
                        {
                            "internalType": "uint256",
                            "name": "mintDMTstakePrice",
                            "type": "uint256"
                        },
                        {
                            "internalType": "uint256[]",
                            "name": "roboLevelupPrice",
                            "type": "uint256[]"
                        },
                        {
                            "internalType": "uint256",
                            "name": "mekaMergePrice",
                            "type": "uint256"
                        }
                    ],
                    "internalType": "struct PricesGetter",
                    "name": "",
                    "type": "tuple"
                }
            ],
            "stateMutability": "view",
            "type": "function"
        },
        {
            "inputs": [
                {
                    "components": [
                        {
                            "internalType": "contract MekaApesERC721",
                            "name": "erc721Contract_",
                            "type": "address"
                        },
                        {
                            "internalType": "contract OogearERC20",
                            "name": "ogToken_",
                            "type": "address"
                        },
                        {
                            "internalType": "contract IDMT_ERC20",
                            "name": "dmtToken_",
                            "type": "address"
                        },
                        {
                            "internalType": "contract IERC721",
                            "name": "oogaVerse_",
                            "type": "address"
                        },
                        {
                            "internalType": "address",
                            "name": "mintSigWallet_",
                            "type": "address"
                        },
                        {
                            "internalType": "address",
                            "name": "randomProvider_",
                            "type": "address"
                        },
                        {
                            "components": [
                                {
                                    "internalType": "uint256",
                                    "name": "mintPrice",
                                    "type": "uint256"
                                },
                                {
                                    "internalType": "uint256",
                                    "name": "mintStakePrice",
                                    "type": "uint256"
                                },
                                {
                                    "internalType": "uint256[]",
                                    "name": "mintOGprice",
                                    "type": "uint256[]"
                                },
                                {
                                    "internalType": "uint256[]",
                                    "name": "mintOGstakePrice",
                                    "type": "uint256[]"
                                },
                                {
                                    "internalType": "uint256",
                                    "name": "mintDMTstakePrice",
                                    "type": "uint256"
                                },
                                {
                                    "internalType": "uint256[]",
                                    "name": "roboLevelupPrice",
                                    "type": "uint256[]"
                                },
                                {
                                    "internalType": "uint256",
                                    "name": "mekaMergePrice",
                                    "type": "uint256"
                                }
                            ],
                            "internalType": "struct Prices",
                            "name": "prices_",
                            "type": "tuple"
                        },
                        {
                            "components": [
                                {
                                    "internalType": "uint256",
                                    "name": "mintBase",
                                    "type": "uint256"
                                },
                                {
                                    "internalType": "uint256",
                                    "name": "mintPerToken",
                                    "type": "uint256"
                                },
                                {
                                    "internalType": "uint256",
                                    "name": "mintPerTokenStaked",
                                    "type": "uint256"
                                },
                                {
                                    "internalType": "uint256",
                                    "name": "unstakeBase",
                                    "type": "uint256"
                                },
                                {
                                    "internalType": "uint256",
                                    "name": "unstakePerToken",
                                    "type": "uint256"
                                },
                                {
                                    "internalType": "uint256",
                                    "name": "mergeBase",
                                    "type": "uint256"
                                }
                            ],
                            "internalType": "struct RandomsGas",
                            "name": "randomsGas_",
                            "type": "tuple"
                        },
                        {
                            "internalType": "uint256[]",
                            "name": "mintOGpriceSteps_",
                            "type": "uint256[]"
                        },
                        {
                            "internalType": "uint256[]",
                            "name": "roboOogaRewardPerSec_",
                            "type": "uint256[]"
                        },
                        {
                            "internalType": "uint256[]",
                            "name": "roboOogaMinimalRewardToUnstake_",
                            "type": "uint256[]"
                        },
                        {
                            "internalType": "uint256[]",
                            "name": "roboOogaRewardAttackProbabilities_",
                            "type": "uint256[]"
                        },
                        {
                            "internalType": "uint256[]",
                            "name": "megaLevelProbabilities_",
                            "type": "uint256[]"
                        },
                        {
                            "internalType": "uint256[]",
                            "name": "mekaLevelSharePoints_",
                            "type": "uint256[]"
                        },
                        {
                            "internalType": "uint256[]",
                            "name": "megaTributePoints_",
                            "type": "uint256[]"
                        },
                        {
                            "internalType": "uint256",
                            "name": "claimTax_",
                            "type": "uint256"
                        },
                        {
                            "internalType": "uint256",
                            "name": "maxMintWithDMT_",
                            "type": "uint256"
                        },
                        {
                            "internalType": "uint256",
                            "name": "mintSaleAmount_",
                            "type": "uint256"
                        },
                        {
                            "internalType": "uint256",
                            "name": "maxTokenSupply_",
                            "type": "uint256"
                        },
                        {
                            "internalType": "uint256",
                            "name": "maxOgSupply_",
                            "type": "uint256"
                        },
                        {
                            "internalType": "uint256",
                            "name": "addedOgForRewardsAtEnd_",
                            "type": "uint256"
                        },
                        {
                            "internalType": "uint256",
                            "name": "ethMintAttackChance_",
                            "type": "uint256"
                        },
                        {
                            "internalType": "uint256",
                            "name": "dmtMintAttackChance_",
                            "type": "uint256"
                        },
                        {
                            "internalType": "uint256",
                            "name": "ogMintAttackChance_",
                            "type": "uint256"
                        },
                        {
                            "internalType": "uint256",
                            "name": "randomMekaProbability_",
                            "type": "uint256"
                        },
                        {
                            "internalType": "uint256",
                            "name": "publicMintAllowance_",
                            "type": "uint256"
                        },
                        {
                            "internalType": "uint256",
                            "name": "maxMintedRewardTokens_",
                            "type": "uint256"
                        },
                        {
                            "internalType": "address[]",
                            "name": "mintETHWithdrawers_",
                            "type": "address[]"
                        },
                        {
                            "internalType": "uint256[]",
                            "name": "mintETHWithdrawersPercents_",
                            "type": "uint256[]"
                        }
                    ],
                    "internalType": "struct InitParams",
                    "name": "initParams",
                    "type": "tuple"
                }
            ],
            "name": "initialize",
            "outputs": [],
            "stateMutability": "nonpayable",
            "type": "function"
        },
        {
            "inputs": [
                {
                    "internalType": "uint256",
                    "name": "oogaId",
                    "type": "uint256"
                }
            ],
            "name": "isBabyOogaEvolved",
            "outputs": [
                {
                    "internalType": "bool",
                    "name": "",
                    "type": "bool"
                }
            ],
            "stateMutability": "view",
            "type": "function"
        },
        {
            "inputs": [
                {
                    "internalType": "uint256",
                    "name": "tokenId",
                    "type": "uint256"
                }
            ],
            "name": "levelUpRoboOooga",
            "outputs": [],
            "stateMutability": "nonpayable",
            "type": "function"
        },
        {
            "inputs": [],
            "name": "maxMintWithDMT",
            "outputs": [
                {
                    "internalType": "uint256",
                    "name": "",
                    "type": "uint256"
                }
            ],
            "stateMutability": "view",
            "type": "function"
        },
        {
            "inputs": [],
            "name": "maxMintedRewardTokens",
            "outputs": [
                {
                    "internalType": "uint256",
                    "name": "",
                    "type": "uint256"
                }
            ],
            "stateMutability": "view",
            "type": "function"
        },
        {
            "inputs": [],
            "name": "maxOgSupply",
            "outputs": [
                {
                    "internalType": "uint256",
                    "name": "",
                    "type": "uint256"
                }
            ],
            "stateMutability": "view",
            "type": "function"
        },
        {
            "inputs": [],
            "name": "maxTokenSupply",
            "outputs": [
                {
                    "internalType": "uint256",
                    "name": "",
                    "type": "uint256"
                }
            ],
            "stateMutability": "view",
            "type": "function"
        },
        {
            "inputs": [
                {
                    "internalType": "uint256",
                    "name": "",
                    "type": "uint256"
                }
            ],
            "name": "megaLevelProbabilities",
            "outputs": [
                {
                    "internalType": "uint256",
                    "name": "",
                    "type": "uint256"
                }
            ],
            "stateMutability": "view",
            "type": "function"
        },
        {
            "inputs": [
                {
                    "internalType": "uint256",
                    "name": "",
                    "type": "uint256"
                },
                {
                    "internalType": "uint256",
                    "name": "",
                    "type": "uint256"
                }
            ],
            "name": "megaStaked",
            "outputs": [
                {
                    "internalType": "uint256",
                    "name": "",
                    "type": "uint256"
                }
            ],
            "stateMutability": "view",
            "type": "function"
        },
        {
            "inputs": [
                {
                    "internalType": "uint256",
                    "name": "",
                    "type": "uint256"
                }
            ],
            "name": "megaTributePoints",
            "outputs": [
                {
                    "internalType": "uint256",
                    "name": "",
                    "type": "uint256"
                }
            ],
            "stateMutability": "view",
            "type": "function"
        },
        {
            "inputs": [
                {
                    "internalType": "uint256",
                    "name": "",
                    "type": "uint256"
                }
            ],
            "name": "mekaLevelSharePoints",
            "outputs": [
                {
                    "internalType": "uint256",
                    "name": "",
                    "type": "uint256"
                }
            ],
            "stateMutability": "view",
            "type": "function"
        },
        {
            "inputs": [],
            "name": "mekaTotalPointsStaked",
            "outputs": [
                {
                    "internalType": "uint256",
                    "name": "",
                    "type": "uint256"
                }
            ],
            "stateMutability": "view",
            "type": "function"
        },
        {
            "inputs": [],
            "name": "mekaTotalRewardPerPoint",
            "outputs": [
                {
                    "internalType": "uint256",
                    "name": "",
                    "type": "uint256"
                }
            ],
            "stateMutability": "view",
            "type": "function"
        },
        {
            "inputs": [
                {
                    "internalType": "uint256",
                    "name": "tokenIdSave",
                    "type": "uint256"
                },
                {
                    "internalType": "uint256",
                    "name": "tokenIdBurn",
                    "type": "uint256"
                }
            ],
            "name": "mergeMekaApes",
            "outputs": [],
            "stateMutability": "payable",
            "type": "function"
        },
        {
            "inputs": [],
            "name": "mergeRandomGas",
            "outputs": [
                {
                    "internalType": "uint256",
                    "name": "",
                    "type": "uint256"
                }
            ],
            "stateMutability": "view",
            "type": "function"
        },
        {
            "inputs": [
                {
                    "internalType": "uint256",
                    "name": "",
                    "type": "uint256"
                }
            ],
            "name": "mergeRequests",
            "outputs": [
                {
                    "internalType": "uint256",
                    "name": "",
                    "type": "uint256"
                }
            ],
            "stateMutability": "view",
            "type": "function"
        },
        {
            "inputs": [
                {
                    "internalType": "uint256",
                    "name": "amount",
                    "type": "uint256"
                },
                {
                    "internalType": "bool",
                    "name": "toStake",
                    "type": "bool"
                },
                {
                    "components": [
                        {
                            "internalType": "uint256",
                            "name": "mintAllowance",
                            "type": "uint256"
                        },
                        {
                            "internalType": "uint8",
                            "name": "_v",
                            "type": "uint8"
                        },
                        {
                            "internalType": "bytes32",
                            "name": "_r",
                            "type": "bytes32"
                        },
                        {
                            "internalType": "bytes32",
                            "name": "_s",
                            "type": "bytes32"
                        }
                    ],
                    "internalType": "struct MintSignature",
                    "name": "sig",
                    "type": "tuple"
                }
            ],
            "name": "mint",
            "outputs": [],
            "stateMutability": "payable",
            "type": "function"
        },
        {
            "inputs": [
                {
                    "internalType": "uint256",
                    "name": "",
                    "type": "uint256"
                }
            ],
            "name": "mintOGpriceSteps",
            "outputs": [
                {
                    "internalType": "uint256",
                    "name": "",
                    "type": "uint256"
                }
            ],
            "stateMutability": "view",
            "type": "function"
        },
        {
            "inputs": [
                {
                    "internalType": "uint256",
                    "name": "amount",
                    "type": "uint256"
                },
                {
                    "internalType": "bool",
                    "name": "staking",
                    "type": "bool"
                }
            ],
            "name": "mintRandomGas",
            "outputs": [
                {
                    "internalType": "uint256",
                    "name": "",
                    "type": "uint256"
                }
            ],
            "stateMutability": "view",
            "type": "function"
        },
        {
            "inputs": [
                {
                    "internalType": "uint256",
                    "name": "",
                    "type": "uint256"
                }
            ],
            "name": "mintRequests",
            "outputs": [
                {
                    "internalType": "uint32",
                    "name": "startFromId",
                    "type": "uint32"
                },
                {
                    "internalType": "uint8",
                    "name": "amount",
                    "type": "uint8"
                },
                {
                    "internalType": "uint8",
                    "name": "attackChance",
                    "type": "uint8"
                },
                {
                    "internalType": "bool",
                    "name": "toStake",
                    "type": "bool"
                }
            ],
            "stateMutability": "view",
            "type": "function"
        },
        {
            "inputs": [
                {
                    "internalType": "address",
                    "name": "toAddress",
                    "type": "address"
                },
                {
                    "internalType": "uint256",
                    "name": "amount",
                    "type": "uint256"
                }
            ],
            "name": "mintRewardTokens",
            "outputs": [],
            "stateMutability": "payable",
            "type": "function"
        },
        {
            "inputs": [],
            "name": "mintSale",
            "outputs": [
                {
                    "internalType": "bool",
                    "name": "",
                    "type": "bool"
                }
            ],
            "stateMutability": "view",
            "type": "function"
        },
        {
            "inputs": [],
            "name": "mintSaleAmount",
            "outputs": [
                {
                    "internalType": "uint256",
                    "name": "",
                    "type": "uint256"
                }
            ],
            "stateMutability": "view",
            "type": "function"
        },
        {
            "inputs": [],
            "name": "mintSigWallet",
            "outputs": [
                {
                    "internalType": "address",
                    "name": "",
                    "type": "address"
                }
            ],
            "stateMutability": "view",
            "type": "function"
        },
        {
            "inputs": [
                {
                    "internalType": "uint256",
                    "name": "amount",
                    "type": "uint256"
                }
            ],
            "name": "mintWithDMT",
            "outputs": [],
            "stateMutability": "payable",
            "type": "function"
        },
        {
            "inputs": [
                {
                    "internalType": "uint256",
                    "name": "amount",
                    "type": "uint256"
                },
                {
                    "internalType": "bool",
                    "name": "toStake",
                    "type": "bool"
                }
            ],
            "name": "mintWithOG",
            "outputs": [],
            "stateMutability": "payable",
            "type": "function"
        },
        {
            "inputs": [],
            "name": "nextClaimWithoutRandomId",
            "outputs": [
                {
                    "internalType": "uint256",
                    "name": "",
                    "type": "uint256"
                }
            ],
            "stateMutability": "view",
            "type": "function"
        },
        {
            "inputs": [],
            "name": "nextRandomRequestId",
            "outputs": [
                {
                    "internalType": "uint256",
                    "name": "",
                    "type": "uint256"
                }
            ],
            "stateMutability": "view",
            "type": "function"
        },
        {
            "inputs": [],
            "name": "nextTokenId",
            "outputs": [
                {
                    "internalType": "uint256",
                    "name": "",
                    "type": "uint256"
                }
            ],
            "stateMutability": "view",
            "type": "function"
        },
        {
            "inputs": [
                {
                    "internalType": "address",
                    "name": "",
                    "type": "address"
                }
            ],
            "name": "numberOfMintedOogas",
            "outputs": [
                {
                    "internalType": "uint256",
                    "name": "",
                    "type": "uint256"
                }
            ],
            "stateMutability": "view",
            "type": "function"
        },
        {
            "inputs": [],
            "name": "ogMintAttackChance",
            "outputs": [
                {
                    "internalType": "uint256",
                    "name": "",
                    "type": "uint256"
                }
            ],
            "stateMutability": "view",
            "type": "function"
        },
        {
            "inputs": [],
            "name": "ogMinted",
            "outputs": [
                {
                    "internalType": "uint256",
                    "name": "",
                    "type": "uint256"
                }
            ],
            "stateMutability": "view",
            "type": "function"
        },
        {
            "inputs": [],
            "name": "ogToken",
            "outputs": [
                {
                    "internalType": "contract OogearERC20",
                    "name": "",
                    "type": "address"
                }
            ],
            "stateMutability": "view",
            "type": "function"
        },
        {
            "inputs": [
                {
                    "internalType": "uint256",
                    "name": "",
                    "type": "uint256"
                }
            ],
            "name": "oogaAttributes",
            "outputs": [
                {
                    "internalType": "enum OogaType",
                    "name": "oogaType",
                    "type": "uint8"
                },
                {
                    "internalType": "uint8",
                    "name": "level",
                    "type": "uint8"
                },
                {
                    "internalType": "bool",
                    "name": "staked",
                    "type": "bool"
                },
                {
                    "internalType": "address",
                    "name": "stakedOwner",
                    "type": "address"
                },
                {
                    "internalType": "uint256",
                    "name": "lastClaimTimestamp",
                    "type": "uint256"
                },
                {
                    "internalType": "uint256",
                    "name": "savedReward",
                    "type": "uint256"
                },
                {
                    "internalType": "uint256",
                    "name": "lastRewardPerPoint",
                    "type": "uint256"
                },
                {
                    "internalType": "uint256",
                    "name": "stakedMegaIndex",
                    "type": "uint256"
                }
            ],
            "stateMutability": "view",
            "type": "function"
        },
        {
            "inputs": [
                {
                    "internalType": "uint256",
                    "name": "",
                    "type": "uint256"
                }
            ],
            "name": "oogaEvolved",
            "outputs": [
                {
                    "internalType": "bool",
                    "name": "",
                    "type": "bool"
                }
            ],
            "stateMutability": "view",
            "type": "function"
        },
        {
            "inputs": [],
            "name": "oogaVerse",
            "outputs": [
                {
                    "internalType": "contract IERC721",
                    "name": "",
                    "type": "address"
                }
            ],
            "stateMutability": "view",
            "type": "function"
        },
        {
            "inputs": [],
            "name": "owner",
            "outputs": [
                {
                    "internalType": "address",
                    "name": "",
                    "type": "address"
                }
            ],
            "stateMutability": "view",
            "type": "function"
        },
        {
            "inputs": [],
            "name": "prices",
            "outputs": [
                {
                    "internalType": "uint256",
                    "name": "mintPrice",
                    "type": "uint256"
                },
                {
                    "internalType": "uint256",
                    "name": "mintStakePrice",
                    "type": "uint256"
                },
                {
                    "internalType": "uint256",
                    "name": "mintDMTstakePrice",
                    "type": "uint256"
                },
                {
                    "internalType": "uint256",
                    "name": "mekaMergePrice",
                    "type": "uint256"
                }
            ],
            "stateMutability": "view",
            "type": "function"
        },
        {
            "inputs": [],
            "name": "publicMintAllowance",
            "outputs": [
                {
                    "internalType": "uint256",
                    "name": "",
                    "type": "uint256"
                }
            ],
            "stateMutability": "view",
            "type": "function"
        },
        {
            "inputs": [],
            "name": "publicMintStarted",
            "outputs": [
                {
                    "internalType": "bool",
                    "name": "",
                    "type": "bool"
                }
            ],
            "stateMutability": "view",
            "type": "function"
        },
        {
            "inputs": [],
            "name": "randomMekaProbability",
            "outputs": [
                {
                    "internalType": "uint256",
                    "name": "",
                    "type": "uint256"
                }
            ],
            "stateMutability": "view",
            "type": "function"
        },
        {
            "inputs": [],
            "name": "randomProvider",
            "outputs": [
                {
                    "internalType": "address",
                    "name": "",
                    "type": "address"
                }
            ],
            "stateMutability": "view",
            "type": "function"
        },
        {
            "inputs": [
                {
                    "internalType": "uint256",
                    "name": "",
                    "type": "uint256"
                }
            ],
            "name": "randomRequests",
            "outputs": [
                {
                    "internalType": "enum RandomRequestType",
                    "name": "requestType",
                    "type": "uint8"
                },
                {
                    "internalType": "address",
                    "name": "user",
                    "type": "address"
                },
                {
                    "internalType": "bool",
                    "name": "active",
                    "type": "bool"
                }
            ],
            "stateMutability": "view",
            "type": "function"
        },
        {
            "inputs": [],
            "name": "randomsGas",
            "outputs": [
                {
                    "internalType": "uint256",
                    "name": "mintBase",
                    "type": "uint256"
                },
                {
                    "internalType": "uint256",
                    "name": "mintPerToken",
                    "type": "uint256"
                },
                {
                    "internalType": "uint256",
                    "name": "mintPerTokenStaked",
                    "type": "uint256"
                },
                {
                    "internalType": "uint256",
                    "name": "unstakeBase",
                    "type": "uint256"
                },
                {
                    "internalType": "uint256",
                    "name": "unstakePerToken",
                    "type": "uint256"
                },
                {
                    "internalType": "uint256",
                    "name": "mergeBase",
                    "type": "uint256"
                }
            ],
            "stateMutability": "view",
            "type": "function"
        },
        {
            "inputs": [
                {
                    "internalType": "uint256[]",
                    "name": "requestIds",
                    "type": "uint256[]"
                },
                {
                    "internalType": "uint256[]",
                    "name": "entropies",
                    "type": "uint256[]"
                }
            ],
            "name": "receiveMultipleRandoms",
            "outputs": [],
            "stateMutability": "nonpayable",
            "type": "function"
        },
        {
            "inputs": [
                {
                    "internalType": "uint256",
                    "name": "requestId",
                    "type": "uint256"
                },
                {
                    "internalType": "uint256",
                    "name": "entropy",
                    "type": "uint256"
                }
            ],
            "name": "receiveRandoms",
            "outputs": [],
            "stateMutability": "nonpayable",
            "type": "function"
        },
        {
            "inputs": [],
            "name": "renounceOwnership",
            "outputs": [],
            "stateMutability": "nonpayable",
            "type": "function"
        },
        {
            "inputs": [
                {
                    "internalType": "uint256",
                    "name": "",
                    "type": "uint256"
                }
            ],
            "name": "roboOogaMinimalRewardToUnstake",
            "outputs": [
                {
                    "internalType": "uint256",
                    "name": "",
                    "type": "uint256"
                }
            ],
            "stateMutability": "view",
            "type": "function"
        },
        {
            "inputs": [
                {
                    "internalType": "uint256",
                    "name": "",
                    "type": "uint256"
                }
            ],
            "name": "roboOogaRewardAttackProbabilities",
            "outputs": [
                {
                    "internalType": "uint256",
                    "name": "",
                    "type": "uint256"
                }
            ],
            "stateMutability": "view",
            "type": "function"
        },
        {
            "inputs": [
                {
                    "internalType": "uint256",
                    "name": "",
                    "type": "uint256"
                }
            ],
            "name": "roboOogaRewardPerSec",
            "outputs": [
                {
                    "internalType": "uint256",
                    "name": "",
                    "type": "uint256"
                }
            ],
            "stateMutability": "view",
            "type": "function"
        },
        {
            "inputs": [
                {
                    "internalType": "uint256[]",
                    "name": "tokenIds",
                    "type": "uint256[]"
                }
            ],
            "name": "stake",
            "outputs": [],
            "stateMutability": "nonpayable",
            "type": "function"
        },
        {
            "inputs": [],
            "name": "tokensMintedWithDMT",
            "outputs": [
                {
                    "internalType": "uint256",
                    "name": "",
                    "type": "uint256"
                }
            ],
            "stateMutability": "view",
            "type": "function"
        },
        {
            "inputs": [],
            "name": "totalMintETH",
            "outputs": [
                {
                    "internalType": "uint256",
                    "name": "",
                    "type": "uint256"
                }
            ],
            "stateMutability": "view",
            "type": "function"
        },
        {
            "inputs": [],
            "name": "totalMintedRewardTokens",
            "outputs": [
                {
                    "internalType": "uint256",
                    "name": "",
                    "type": "uint256"
                }
            ],
            "stateMutability": "view",
            "type": "function"
        },
        {
            "inputs": [],
            "name": "totalMintedTokens",
            "outputs": [
                {
                    "internalType": "uint256",
                    "name": "",
                    "type": "uint256"
                }
            ],
            "stateMutability": "view",
            "type": "function"
        },
        {
            "inputs": [],
            "name": "totalRandomTxFee",
            "outputs": [
                {
                    "internalType": "uint256",
                    "name": "",
                    "type": "uint256"
                }
            ],
            "stateMutability": "view",
            "type": "function"
        },
        {
            "inputs": [],
            "name": "totalRandomTxFeeWithdrawn",
            "outputs": [
                {
                    "internalType": "uint256",
                    "name": "",
                    "type": "uint256"
                }
            ],
            "stateMutability": "view",
            "type": "function"
        },
        {
            "inputs": [
                {
                    "internalType": "address",
                    "name": "newOwner",
                    "type": "address"
                }
            ],
            "name": "transferOwnership",
            "outputs": [],
            "stateMutability": "nonpayable",
            "type": "function"
        },
        {
            "inputs": [
                {
                    "internalType": "uint256[]",
                    "name": "tokenIds",
                    "type": "uint256[]"
                }
            ],
            "name": "unstake",
            "outputs": [],
            "stateMutability": "payable",
            "type": "function"
        },
        {
            "inputs": [
                {
                    "internalType": "uint256",
                    "name": "roboAmount",
                    "type": "uint256"
                }
            ],
            "name": "unstakeRandomGas",
            "outputs": [
                {
                    "internalType": "uint256",
                    "name": "",
                    "type": "uint256"
                }
            ],
            "stateMutability": "view",
            "type": "function"
        },
        {
            "inputs": [
                {
                    "internalType": "contract IERC20",
                    "name": "token",
                    "type": "address"
                },
                {
                    "internalType": "address",
                    "name": "toAddress",
                    "type": "address"
                },
                {
                    "internalType": "uint256",
                    "name": "amount",
                    "type": "uint256"
                }
            ],
            "name": "withdrawERC20",
            "outputs": [],
            "stateMutability": "nonpayable",
            "type": "function"
        },
        {
            "inputs": [
                {
                    "internalType": "contract IERC721",
                    "name": "token",
                    "type": "address"
                },
                {
                    "internalType": "address",
                    "name": "toAddress",
                    "type": "address"
                },
                {
                    "internalType": "uint256",
                    "name": "tokenId",
                    "type": "uint256"
                }
            ],
            "name": "withdrawERC721",
            "outputs": [],
            "stateMutability": "nonpayable",
            "type": "function"
        },
        {
            "inputs": [
                {
                    "internalType": "uint256",
                    "name": "amount",
                    "type": "uint256"
                }
            ],
            "name": "withdrawMintETH",
            "outputs": [],
            "stateMutability": "nonpayable",
            "type": "function"
        },
        {
            "inputs": [
                {
                    "internalType": "uint256",
                    "name": "amount",
                    "type": "uint256"
                }
            ],
            "name": "withdrawRandomTxFee",
            "outputs": [],
            "stateMutability": "nonpayable",
            "type": "function"
        },
        {
            "inputs": [
                {
                    "internalType": "address",
                    "name": "",
                    "type": "address"
                }
            ],
            "name": "withdrawerLastTotalMintETH",
            "outputs": [
                {
                    "internalType": "uint256",
                    "name": "",
                    "type": "uint256"
                }
            ],
            "stateMutability": "view",
            "type": "function"
        },
        {
            "inputs": [
                {
                    "internalType": "address",
                    "name": "",
                    "type": "address"
                }
            ],
            "name": "withdrawerPercent",
            "outputs": [
                {
                    "internalType": "uint256",
                    "name": "",
                    "type": "uint256"
                }
            ],
            "stateMutability": "view",
            "type": "function"
        }
    ],
    "bytecode": "0x608060405234801561001057600080fd5b50615d7b80620000216000396000f3fe6080604052600436106105aa5760003560e01c80638d6a6d87116102f3578063d385014d1161019b578063e6f0ba61116100e7578063eee21c2d116100a0578063f2fde38b1161007a578063f2fde38b146112bf578063f38972ed146112df578063febeb132146112ff578063ff75eece1461131557600080fd5b8063eee21c2d1461126a578063f020044f1461128a578063f22395c8146112a957600080fd5b8063e6f0ba61146111ba578063e9a16bdb146111da578063ec01952b146111f4578063ec7373ce1461120a578063ecb24fb514611237578063ed3940791461124a57600080fd5b8063dd2c094811610154578063e2fa88061161012e578063e2fa880614611151578063e449f34114611171578063e65f881614611184578063e6b4d60b146111a457600080fd5b8063dd2c0948146110ef578063dd2f6d4b14611104578063e0fcd6661461113157600080fd5b8063d385014d14610ffd578063d6ebe4fe1461102a578063d7c97fb414611040578063d835de0614611060578063d96ef75914611076578063db382064146110ba57600080fd5b8063a5b63cc91161025a578063c24b719711610213578063c94c7ff4116101ed578063c94c7ff414610f20578063ca067ad014610f40578063cabf161414610f9a578063d3419bf314610fba57600080fd5b8063c24b719714610eba578063c37a576114610eda578063c54b735814610f0a57600080fd5b8063a5b63cc914610e16578063b56c610514610e2c578063b5e6230114610e42578063b69b2a6514610e62578063bd9a548b14610e82578063c06fda8e14610ea457600080fd5b806393b2662a116102ac57806393b2662a14610d2857806397881c2f14610d4857806398654df414610d755780639e15827614610d95578063a4acf05114610dab578063a4e9f29714610dbe57600080fd5b80638d6a6d8714610c5f5780638da5cb5b14610c885780638e32e31614610ca65780638f46500e14610cbb578063909e376d14610cdb57806392bbfd5114610cfb57600080fd5b806350e3ec881161045657806370a96f33116103bd5780637d15132311610376578063833c7fc011610350578063833c7fc014610bf3578063834e91cf14610c0957806386e7f03014610c1f5780638caee82314610c3f57600080fd5b80637d15132314610b975780637d5ee8e614610bad5780637e5ae4b714610bc357600080fd5b806370a96f3314610ade578063715018a614610b0c578063729a90c814610b2157806375794a3c14610b415780637955dfd214610b575780637bf1b56214610b7757600080fd5b8063662162d51161040f578063662162d5146109b75780636853709a146109cd5780636bff9506146109fb5780636c4a8c1714610a7e5780636eee2dad14610aab5780636fddcb4614610abe57600080fd5b806350e3ec881461092257806350f7c204146109425780635123455f1461095857806355e318b41461096b5780635ca2034a1461098b5780635e71cc7c146109a157600080fd5b80631b9401cd116105155780634025feb2116104ce578063448883d7116104a8578063448883d7146108ac57806346dd8473146108c2578063489da8ff146108e25780634fc7c9721461090257600080fd5b80634025feb2146107e7578063424e65751461080757806344004cc11461088c57600080fd5b80631b9401cd14610723578063213edf3614610743578063257822101461076357806338e692af146107795780633a6a6ca31461078f5780633bf27cf1146107af57600080fd5b80630ee9a59b116105675780630ee9a59b1461066d5780630fbf0a931461068d578063113bf887146106ad57806312f30bde146106c357806319de5221146106e35780631a4803711461070357600080fd5b806301719327146105af5780630181de42146105d857806303524005146105ee57806308a1c391146106185780630a1b494d146106385780630c1747931461064d575b600080fd5b3480156105bb57600080fd5b506105c560855481565b6040519081526020015b60405180910390f35b3480156105e457600080fd5b506105c5608b5481565b3480156105fa57600080fd5b506093546106089060ff1681565b60405190151581526020016105cf565b34801561062457600080fd5b506105c5610633366004615190565b611335565b61064b6106463660046151b7565b611356565b005b34801561065957600080fd5b5061064b6106683660046151e7565b61153a565b34801561067957600080fd5b506105c5610688366004615190565b611564565b34801561069957600080fd5b5061064b6106a8366004615250565b611574565b3480156106b957600080fd5b506105c5607e5481565b3480156106cf57600080fd5b5061064b6106de3660046151e7565b6116b2565b3480156106ef57600080fd5b506105c56106fe366004615292565b6116dc565b34801561070f57600080fd5b5061064b61071e3660046152c9565b611710565b34801561072f57600080fd5b5061064b61073e366004615292565b61177b565b34801561074f57600080fd5b5061064b61075e366004615190565b6117c9565b34801561076f57600080fd5b506105c560815481565b34801561078557600080fd5b506105c5608a5481565b34801561079b57600080fd5b506105c56107aa366004615190565b611a87565b3480156107bb57600080fd5b506067546107cf906001600160a01b031681565b6040516001600160a01b0390911681526020016105cf565b3480156107f357600080fd5b5061064b6108023660046152f5565b611a97565b34801561081357600080fd5b5061085c610822366004615190565b60a46020526000908152604090205463ffffffff81169060ff6401000000008204811691600160281b8104821691600160301b9091041684565b6040805163ffffffff95909516855260ff93841660208601529190921690830152151560608201526080016105cf565b34801561089857600080fd5b5061064b6108a73660046152f5565b611b28565b3480156108b857600080fd5b506105c5607d5481565b3480156108ce57600080fd5b5061064b6108dd366004615410565b611bda565b3480156108ee57600080fd5b506105c56108fd366004615190565b611c80565b34801561090e57600080fd5b5061064b61091d366004615190565b611c90565b34801561092e57600080fd5b5061060861093d366004615571565b611d66565b34801561094e57600080fd5b506105c5609a5481565b61064b61096636600461559e565b611e7c565b34801561097757600080fd5b5061064b6109863660046155dd565b612089565b34801561099757600080fd5b506105c560925481565b3480156109ad57600080fd5b506105c560955481565b3480156109c357600080fd5b506105c5609c5481565b3480156109d957600080fd5b5061064b6109e83660046151e7565b6093805460ff1916911515919091179055565b348015610a0757600080fd5b50610a6a610a16366004615190565b6090602052600090815260409020805460018201546002830154600384015460049094015460ff8085169561010086048216956201000081049092169463010000009092046001600160a01b031693919288565b6040516105cf989796959493929190615630565b348015610a8a57600080fd5b506105c5610a99366004615190565b60a66020526000908152604090205481565b61064b610ab93660046152c9565b61209c565b348015610aca57600080fd5b5061064b610ad9366004615687565b61217f565b348015610aea57600080fd5b5061064b610af93660046151e7565b6096805460ff1916911515919091179055565b348015610b1857600080fd5b5061064b612188565b348015610b2d57600080fd5b506105c5610b3c366004615190565b6121be565b348015610b4d57600080fd5b506105c5607f5481565b348015610b6357600080fd5b5061064b610b723660046156a4565b6121ce565b348015610b8357600080fd5b506105c5610b92366004615190565b612623565b348015610ba357600080fd5b506105c560995481565b348015610bb957600080fd5b506105c560985481565b348015610bcf57600080fd5b50610608610bde366004615190565b60009081526091602052604090205460ff1690565b348015610bff57600080fd5b506105c5609d5481565b348015610c1557600080fd5b506105c560975481565b348015610c2b57600080fd5b5061064b610c3a366004615190565b609555565b348015610c4b57600080fd5b5061064b610c5a366004615190565b607955565b348015610c6b57600080fd5b5061064b610c7a3660046156e0565b608292909255608355608455565b348015610c9457600080fd5b506033546001600160a01b03166107cf565b348015610cb257600080fd5b506105c5612633565b348015610cc757600080fd5b50606a546107cf906001600160a01b031681565b348015610ce757600080fd5b506068546107cf906001600160a01b031681565b348015610d0757600080fd5b506105c5610d16366004615687565b60a16020526000908152604090205481565b348015610d3457600080fd5b506105c5610d43366004615190565b612649565b348015610d5457600080fd5b50610d68610d63366004615250565b61266c565b6040516105cf919061570c565b348015610d8157600080fd5b5061064b610d903660046152c9565b612715565b348015610da157600080fd5b506105c560865481565b61064b610db9366004615190565b61273c565b348015610dca57600080fd5b50607254607354607454607554607654607754610de995949392919086565b604080519687526020870195909552938501929092526060840152608083015260a082015260c0016105cf565b348015610e2257600080fd5b506105c5609f5481565b348015610e3857600080fd5b506105c560835481565b348015610e4e57600080fd5b506105c5610e5d366004615190565b612903565b348015610e6e57600080fd5b506066546107cf906001600160a01b031681565b348015610e8e57600080fd5b50610e97612a6e565b6040516105cf9190615750565b348015610eb057600080fd5b506105c560845481565b348015610ec657600080fd5b506105c5610ed53660046151b7565b612b82565b348015610ee657600080fd5b50610608610ef5366004615190565b60916020526000908152604090205460ff1681565b348015610f1657600080fd5b506105c560a75481565b348015610f2c57600080fd5b5061064b610f3b366004615250565b612bcc565b348015610f4c57600080fd5b50610f8b610f5b366004615190565b60a36020526000908152604090205460ff808216916001600160a01b0361010082041691600160a81b9091041683565b6040516105cf939291906157e4565b348015610fa657600080fd5b506105c5610fb53660046152c9565b612bff565b348015610fc657600080fd5b50606b54606c54606f54607154610fdd9392919084565b6040805194855260208501939093529183015260608201526080016105cf565b34801561100957600080fd5b506105c5611018366004615190565b60a56020526000908152604090205481565b34801561103657600080fd5b506105c5609b5481565b34801561104c57600080fd5b506065546107cf906001600160a01b031681565b34801561106c57600080fd5b506105c560795481565b34801561108257600080fd5b5061064b611091366004615817565b600091825260906020526040909120805460ff9092166101000261ff0019909216919091179055565b3480156110c657600080fd5b5061064b6110d53660046151e7565b609680549115156101000261ff0019909216919091179055565b3480156110fb57600080fd5b506077546105c5565b34801561111057600080fd5b506105c561111f366004615687565b60946020526000908152604090205481565b34801561113d57600080fd5b5061064b61114c366004615843565b612c41565b34801561115d57600080fd5b5061064b61116c3660046152c9565b612d4f565b61064b61117f366004615250565b612d59565b34801561119057600080fd5b5061064b61119f366004615190565b612df5565b3480156111b057600080fd5b506105c560825481565b3480156111c657600080fd5b506069546107cf906001600160a01b031681565b3480156111e657600080fd5b506096546106089060ff1681565b34801561120057600080fd5b506105c560a25481565b34801561121657600080fd5b506105c5611225366004615687565b60a06020526000908152604090205481565b61064b611245366004615292565b612ec6565b34801561125657600080fd5b5061064b611265366004615250565b61345f565b34801561127657600080fd5b5061064b6112853660046151e7565b6134d3565b34801561129657600080fd5b5060965461060890610100900460ff1681565b3480156112b557600080fd5b506105c5609e5481565b3480156112cb57600080fd5b5061064b6112da366004615687565b6134fd565b3480156112eb57600080fd5b5061064b6112fa3660046152c9565b613598565b34801561130b57600080fd5b506105c560805481565b34801561132157600080fd5b506105c5611330366004615190565b6135d1565b607c818154811061134557600080fd5b600091825260209091200154905081565b60965460ff161580156113705750609654610100900460ff165b6113955760405162461bcd60e51b815260040161138c906158af565b60405180910390fd5b609a54826113a1612633565b6113ab91906158e2565b11156113df5760405162461bcd60e51b815260206004820152600360248201526245333160e81b604482015260640161138c565b486113ea8383612b82565b6113f491906158fa565b3410156114295760405162461bcd60e51b815260206004820152600360248201526245333360e81b604482015260640161138c565b34609d600082825461143b91906158e2565b9091555060009050811561147357606b6003016079548154811061146157611461615919565b90600052602060002001549050611499565b606b6002016079548154811061148b5761148b615919565b906000526020600020015490505b6066546001600160a01b03166323b872dd33306114b687866158fa565b6040518463ffffffff1660e01b81526004016114d49392919061592f565b602060405180830381600087803b1580156114ee57600080fd5b505af1158015611502573d6000803e3d6000fd5b505050506040513d601f19601f820116820180604052508101906115269190615953565b506115353384846084546135e1565b505050565b6033546001600160a01b03163314610af95760405162461bcd60e51b815260040161138c90615970565b6087818154811061134557600080fd5b609654610100900460ff1661159b5760405162461bcd60e51b815260040161138c906158af565b60005b818110156115355760655433906001600160a01b0316636352211e8585858181106115cb576115cb615919565b905060200201356040518263ffffffff1660e01b81526004016115f091815260200190565b60206040518083038186803b15801561160857600080fd5b505afa15801561161c573d6000803e3d6000fd5b505050506040513d601f19601f8201168201806040525081019061164091906159a5565b6001600160a01b03161461167c5760405162461bcd60e51b815260206004820152600360248201526245343160e81b604482015260640161138c565b6116a083838381811061169157611691615919565b90506020020135336000613750565b806116aa816159c2565b91505061159e565b6033546001600160a01b031633146109e85760405162461bcd60e51b815260040161138c90615970565b608c82600481106116ec57600080fd5b0181815481106116fb57600080fd5b90600052602060002001600091509150505481565b6066546040516340c10f1960e01b81526001600160a01b03848116600483015260248201849052909116906340c10f19906044015b600060405180830381600087803b15801561175f57600080fd5b505af1158015611773573d6000803e3d6000fd5b505050505050565b606a546001600160a01b031633146117bb5760405162461bcd60e51b815260206004820152600360248201526204536360ec1b604482015260640161138c565b6117c5828261390f565b5050565b60965460ff161580156117e35750609654610100900460ff165b6117ff5760405162461bcd60e51b815260040161138c906158af565b6000818152609060205260409081902060655491516331a9108f60e11b815260048101849052909133916001600160a01b0390911690636352211e9060240160206040518083038186803b15801561185657600080fd5b505afa15801561186a573d6000803e3d6000fd5b505050506040513d601f19601f8201168201806040525081019061188e91906159a5565b6001600160a01b031614806118b357508054630100000090046001600160a01b031633145b6118e55760405162461bcd60e51b8152602060048201526003602482015262229b9960e91b604482015260640161138c565b6000815460ff1660018111156118fd576118fd61561a565b14801561191457508054600461010090910460ff16105b6119465760405162461bcd60e51b815260206004820152600360248201526245373160e81b604482015260640161138c565b805462010000900460ff161561197e5761195f82612903565b81600201600082825461197291906158e2565b90915550504260018201555b6067548154607080546001600160a01b03909316926323b872dd92339230929091610100900460ff169081106119b6576119b6615919565b90600052602060002001546040518463ffffffff1660e01b81526004016119df9392919061592f565b600060405180830381600087803b1580156119f957600080fd5b505af1158015611a0d573d6000803e3d6000fd5b50508254610100900460ff1691508290506001611a29836159dd565b825460ff91821661010093840a90810290830219909116179092558354604051919004909116815283915033907f2ef0b9f6641bfe4ae9f94f2b9b20ece8b29e13b163e6425c14ff8f520e79412e9060200160405180910390a35050565b6078818154811061134557600080fd5b6033546001600160a01b03163314611ac15760405162461bcd60e51b815260040161138c90615970565b6040516323b872dd60e01b81526001600160a01b038416906323b872dd90611af19030908690869060040161592f565b600060405180830381600087803b158015611b0b57600080fd5b505af1158015611b1f573d6000803e3d6000fd5b50505050505050565b6033546001600160a01b03163314611b525760405162461bcd60e51b815260040161138c90615970565b60405163a9059cbb60e01b81526001600160a01b0383811660048301526024820183905284169063a9059cbb90604401602060405180830381600087803b158015611b9c57600080fd5b505af1158015611bb0573d6000803e3d6000fd5b505050506040513d601f19601f82011682018060405250810190611bd49190615953565b50505050565b6033546001600160a01b03163314611c045760405162461bcd60e51b815260040161138c90615970565b8051606b908155602080830151606c5560408301518051849392611c2d92606d929101906150f5565b5060608201518051611c499160038401916020909101906150f5565b506080820151600482015560a08201518051611c6f9160058401916020909101906150f5565b5060c0820151816006015590505050565b607b818154811061134557600080fd5b606a546001600160a01b03163314611cd05760405162461bcd60e51b815260206004820152600360248201526245393960e81b604482015260640161138c565b80609e54609d54611ce191906159fd565b1115611d155760405162461bcd60e51b815260206004820152600360248201526208a72760eb1b604482015260640161138c565b80609e6000828254611d2791906158e2565b9091555050606a546040516001600160a01b039091169082156108fc029083906000818181858888f193505050501580156117c5573d6000803e3d6000fd5b8151604080516001600160a01b0384166020808301919091528183019390935281518082038301815260608201909252815191909201207f19457468657265756d205369676e6564204d6573736167653a0a3332000000006080830152609c8201819052600091829060bc01604051602081830303815290604052805190602001209050600060018287602001518860400151896060015160405160008152602001604052604051611e34949392919093845260ff9290921660208401526040830152606082015260800190565b6020604051602081039080840390855afa158015611e56573d6000803e3d6000fd5b5050604051601f1901516069546001600160a01b03908116911614979650505050505050565b60965460ff16611eb45760405162461bcd60e51b815260206004820152600360248201526204530360ec1b604482015260640161138c565b60955483611ec0612633565b611eca91906158e2565b1115611ef257611ed8612633565b609554611ee591906159fd565b6096805460ff1916905592505b805115611f3557611f038133611d66565b611f355760405162461bcd60e51b815260206004820152600360248201526204532360ec1b604482015260640161138c565b60935460009060ff16611f49576000611f4d565b6092545b8251611f5991906158e2565b336000908152609460205260409020549091508190611f799086906158e2565b1115611fad5760405162461bcd60e51b815260206004820152600360248201526245323160e81b604482015260640161138c565b3360009081526094602052604081208054869290611fcc9084906158e2565b90915550600090508315611fe35750606c54611fe8565b50606b545b611ff281866158fa565b3410156120275760405162461bcd60e51b815260206004820152600360248201526222991960e91b604482015260640161138c565b6000486120348787612b82565b61203e91906158fa565b905061204a81346159fd565b609f600082825461205b91906158e2565b9250508190555080609d600082825461207491906158e2565b925050819055506117733387876082546135e1565b80516117c59060789060208401906150f5565b6033546001600160a01b031633146120c65760405162461bcd60e51b815260040161138c90615970565b609c54609b546120d690836158e2565b111561210a5760405162461bcd60e51b815260206004820152600360248201526245393760e81b604482015260640161138c565b600048612118836000612b82565b61212291906158fa565b90508034101561215a5760405162461bcd60e51b8152602060048201526003602482015262229c9b60e91b604482015260640161138c565b34609d600082825461216c91906158e2565b90915550611535905083836000806135e1565b6117c581613a11565b6033546001600160a01b031633146121b25760405162461bcd60e51b815260040161138c90615970565b6121bc6000613aed565b565b6088818154811061134557600080fd5b600054610100900460ff166121e95760005460ff16156121ed565b303b155b6122505760405162461bcd60e51b815260206004820152602e60248201527f496e697469616c697a61626c653a20636f6e747261637420697320616c72656160448201526d191e481a5b9a5d1a585b1a5e995960921b606482015260840161138c565b600054610100900460ff16158015612272576000805461ffff19166101011790555b61227a613b3f565b6122876020830183615687565b606580546001600160a01b0319166001600160a01b03929092169190911790556122b76040830160208401615687565b606680546001600160a01b0319166001600160a01b03929092169190911790556122e76060830160408401615687565b606780546001600160a01b0319166001600160a01b03929092169190911790556123176080830160608401615687565b606880546001600160a01b0319166001600160a01b039290921691909117905561234760a0830160808401615687565b606980546001600160a01b0319166001600160a01b039290921691909117905561237760c0830160a08401615687565b606a80546001600160a01b0319166001600160a01b0392909216919091179055600160a28190556305f5e10060a755607f55600060808190556102a08301356081556102c08301356095556102e0830135609a5560978190556103008301356098556103208301356099556103408301356082556103608301356083556103808301356084556103a08301356086556096805461ffff19166101011790556103c08301356092556093805460ff19169055609b8190556103e0830135609c55608a819055608b5561244c610220830183615a14565b61245891608791615140565b50612467610240830183615a14565b61247391608891615140565b50612482610260830183615a14565b61248e91608991615140565b5061249c60c0830183615a5e565b606b6124a88282615af4565b505060e08201356072556101008201356073556101208201356074556101408201356075556101608201356076556101808201356077556000609d819055609e556124f76101a0830183615a14565b61250391607891615140565b5060016079556125176101c0830183615a14565b61252391607a91615140565b506125326101e0830183615a14565b61253e91607b91615140565b5061254d610200830183615a14565b61255991607c91615140565b50610280820135607d556064607e5560005b612579610400840184615a14565b905081101561260d57612590610420840184615a14565b828181106125a0576125a0615919565b9050602002013560a06000858061040001906125bc9190615a14565b858181106125cc576125cc615919565b90506020020160208101906125e19190615687565b6001600160a01b0316815260208101919091526040016000205580612605816159c2565b91505061256b565b5080156117c5576000805461ff00191690555050565b6089818154811061134557600080fd5b60006001607f5461264491906159fd565b905090565b60765460009061265990836158fa565b60755461266691906158e2565b92915050565b60608167ffffffffffffffff81111561268757612687615336565b6040519080825280602002602001820160405280156126b0578160200160208202803683370190505b50905060005b8281101561270e576126df8484838181106126d3576126d3615919565b90506020020135612903565b8282815181106126f1576126f1615919565b602090810291909101015280612706816159c2565b9150506126b6565b5092915050565b60005b818110156115355761272983613a11565b5080612734816159c2565b915050612718565b60965460ff161580156127565750609654610100900460ff165b6127725760405162461bcd60e51b815260040161138c906158af565b609a548161277e612633565b61278891906158e2565b11156127bc5760405162461bcd60e51b815260206004820152600360248201526222999960e91b604482015260640161138c565b608154816080546127cd91906158e2565b11156128015760405162461bcd60e51b815260206004820152600360248201526245353160e81b604482015260640161138c565b4861280d826001612b82565b61281791906158fa565b34101561284c5760405162461bcd60e51b8152602060048201526003602482015262114ccd60ea1b604482015260640161138c565b34609d600082825461285e91906158e2565b9091555050606754606f546001600160a01b03909116906323b872dd903390309061288a9086906158fa565b6040518463ffffffff1660e01b81526004016128a89392919061592f565b600060405180830381600087803b1580156128c257600080fd5b505af11580156128d6573d6000803e3d6000fd5b505050506128e9338260016083546135e1565b80608060008282546128fb91906158e2565b909155505050565b60008181526090602052604080822081516101008101909252805483929190829060ff1660018111156129385761293861561a565b60018111156129495761294961561a565b8152815460ff61010082048116602084015262010000820416151560408301526001600160a01b03630100000090910416606082015260018201546080820152600282015460a0820152600382015460c082015260049091015460e09091015290506000815160018111156129c0576129c061561a565b1415612a2d57607a816020015160ff16815481106129e0576129e0615919565b9060005260206000200154609060008581526020019081526020016000206001015442612a0d91906159fd565b612a1791906158fa565b8160a00151612a2691906158e2565b9392505050565b6088816020015160ff1681548110612a4757612a47615919565b90600052602060002001548160c00151608a54612a6491906159fd565b612a2691906158fa565b612aae6040518060e00160405280600081526020016000815260200160008152602001600081526020016000815260200160608152602001600081525090565b6040518060e00160405280606b600001548152602001606b600101548152602001606b60020160795481548110612ae757612ae7615919565b90600052602060002001548152602001606b60030160795481548110612b0f57612b0f615919565b600091825260209182902001548252606f5482820152607080546040805182850281018501825282815294019392830182828015612b6c57602002820191906000526020600020905b815481526020019060010190808311612b58575b5050509183525050607154602090910152919050565b600081612b90576000612ba8565b607454612b9e6001856159fd565b612ba891906158fa565b607354612bb590856158fa565b607254612bc291906158e2565b612a2691906158e2565b609654610100900460ff16612bf35760405162461bcd60e51b815260040161138c906158af565b61153582826000613b76565b6001600160a01b03821660009081526094602052604081205460935460ff16612c29576000612c2d565b6092545b612c3790846158e2565b612a2691906159fd565b606a546001600160a01b03163314612c815760405162461bcd60e51b815260206004820152600360248201526204536360ec1b604482015260640161138c565b8260005b81811015612cd957612cc7868683818110612ca257612ca2615919565b90506020020135858584818110612cbb57612cbb615919565b9050602002013561390f565b80612cd1816159c2565b915050612c85565b506000609e54609d54612cec91906159fd565b9050670429d069189e00008111156117735780609e6000828254612d1091906158e2565b9091555050606a546040516001600160a01b039091169082156108fc029083906000818181858888f19350505050158015611b1f573d6000803e3d6000fd5b6115358282613f98565b609654610100900460ff16612d805760405162461bcd60e51b815260040161138c906158af565b6000612d8e83836001613b76565b905048612d9a82612649565b612da491906158fa565b341015612dd95760405162461bcd60e51b815260206004820152600360248201526245333560e81b604482015260640161138c565b34609d6000828254612deb91906158e2565b9091555050505050565b33600090815260a06020526040902054612e375760405162461bcd60e51b8152602060048201526003602482015262114e4d60ea1b604482015260640161138c565b33600090815260a0602090815260408083205460a1909252822054609f546127109291612e63916159fd565b612e6d91906158fa565b612e779190615bf2565b905080821115612e85578091505b609f5433600081815260a16020526040808220939093559151909184156108fc02918591818181858888f19350505050158015611535573d6000803e3d6000fd5b60965460ff16158015612ee05750609654610100900460ff165b612efc5760405162461bcd60e51b815260040161138c906158af565b80821415612f325760405162461bcd60e51b815260206004820152600360248201526245383160e81b604482015260640161138c565b607754612f409048906158fa565b341015612f755760405162461bcd60e51b815260206004820152600360248201526222999b60e91b604482015260640161138c565b34609d6000828254612f8791906158e2565b90915550506000828152609060205260408082208383529181902060655491516331a9108f60e11b815260048101869052909133916001600160a01b0390911690636352211e9060240160206040518083038186803b158015612fe957600080fd5b505afa158015612ffd573d6000803e3d6000fd5b505050506040513d601f19601f8201168201806040525081019061302191906159a5565b6001600160a01b031614806130585750815462010000900460ff16801561305857508154630100000090046001600160a01b031633145b61308a5760405162461bcd60e51b8152602060048201526003602482015262114e0d60ea1b604482015260640161138c565b6065546040516331a9108f60e11b81526004810185905233916001600160a01b031690636352211e9060240160206040518083038186803b1580156130ce57600080fd5b505afa1580156130e2573d6000803e3d6000fd5b505050506040513d601f19601f8201168201806040525081019061310691906159a5565b6001600160a01b0316148061313d5750805462010000900460ff16801561313d57508054630100000090046001600160a01b031633145b61316f5760405162461bcd60e51b815260206004820152600360248201526245383560e81b604482015260640161138c565b6001825460ff1660018111156131875761318761561a565b1480156131a957506001815460ff1660018111156131a7576131a761561a565b145b6131db5760405162461bcd60e51b8152602060048201526003602482015262229c1960e91b604482015260640161138c565b8154610100900460ff161580156131f957508054610100900460ff16155b61322b5760405162461bcd60e51b815260206004820152600360248201526245383360e81b604482015260640161138c565b815460009062010000900460ff1615156001141561329057600061324e86612903565b905061325a81836158e2565b608a54600386015560a2546040518381529193508791339190600080516020615d268339815191529060200160405180910390a4505b815462010000900460ff161515600114156132fb5760006132b085612903565b90506132bc81836158e2565b608a54600385015560a2546040518381529193508691339190600080516020615d268339815191529060200160405180910390a46132f985614100565b505b6071548110156133a2576066546071546001600160a01b03909116906323b872dd903390309061332c9086906159fd565b6040518463ffffffff1660e01b815260040161334a9392919061592f565b602060405180830381600087803b15801561336457600080fd5b505af1158015613378573d6000803e3d6000fd5b505050506040513d601f19601f8201168201806040525081019061339c9190615953565b506133ba565b6071546133ba9033906133b590846159fd565b614353565b6133c385614432565b606554604051630852cd8d60e31b8152600481018690526001600160a01b03909116906342966c6890602401600060405180830381600087803b15801561340957600080fd5b505af115801561341d573d6000803e3d6000fd5b50506040518781528692503391507f7fbc09d28fa0377bea9dd7bc3289ca8cf2ed47c19c59b30347c08925c18e82d79060200160405180910390a35050505050565b60965460ff161580156134795750609654610100900460ff165b6134955760405162461bcd60e51b815260040161138c906158af565b60005b81811015611535576134c18383838181106134b5576134b5615919565b905060200201356144e3565b806134cb816159c2565b915050613498565b6033546001600160a01b031633146110d55760405162461bcd60e51b815260040161138c90615970565b6033546001600160a01b031633146135275760405162461bcd60e51b815260040161138c90615970565b6001600160a01b03811661358c5760405162461bcd60e51b815260206004820152602660248201527f4f776e61626c653a206e6577206f776e657220697320746865207a65726f206160448201526564647265737360d01b606482015260840161138c565b61359581613aed565b50565b606654604051632770a7eb60e21b81526001600160a01b0384811660048301526024820184905290911690639dc29fac90604401611745565b607a818154811061134557600080fd5b600081156135fb576135f48460026158fa565b90506135fe565b50825b6000613608614671565b6040805160608101825260008082526001600160a01b038a16602080840191909152600183850181905285835260a39091529290208151815494955091939092839160ff1916908360028111156136615761366161561a565b021790555060208281015182546040948501511515600160a81b0260ff60a81b196001600160a01b039093166101000292909216610100600160b01b031990911617179091558151608081018352607f5463ffffffff908116825260ff8981168385019081528882168487019081528a151560608601908152600089815260a490975296909520935184549151955196511515600160301b0266ff00000000000019978416600160281b029790971666ffff000000000019969093166401000000000264ffffffffff19909216931692909217919091179290921691909117919091179055611b1f3086613f98565b6000838152609060205260409020816137ca576065546040516323b872dd60e01b81526001600160a01b03909116906323b872dd906137979086903090899060040161592f565b600060405180830381600087803b1580156137b157600080fd5b505af11580156137c5573d6000803e3d6000fd5b505050505b80546001600160a01b03841663010000000262010000600160b81b031990911617620100001781554260018281019190915560006002830155815460ff1660018111156138195761381961561a565b14156138d3578054608880549091610100900460ff1690811061383e5761383e615919565b9060005260206000200154608b600082825461385a91906158e2565b9091555050608a5460038201558054610100900460ff16156138d3578054608c90610100900460ff166004811061389357613893615919565b01546004828101919091558154608c9161010090910460ff169081106138bb576138bb615919565b01805460018101825560009182526020909120018490555b6040516001600160a01b0384169085907f5b53344e2b3d15f33a2ab59e3c199c7bbcb08f5ce03bf0a25c14f978647299a790600090a350505050565b817fa1400508f229eaea44d95e98b6da371661f6e873726585abd7efdbdc607169768260405161394191815260200190565b60405180910390a2600082815260a3602052604090208054600160a81b900460ff1661396c57505050565b805460ff60a81b191681556000815460ff16600281111561398f5761398f61561a565b14156139b05780546115359061010090046001600160a01b031684846146d5565b6002815460ff1660028111156139c8576139c861561a565b14156139d8576115358383614874565b6001815460ff1660028111156139f0576139f061561a565b14156115355780546115359061010090046001600160a01b031684846149da565b607f8054600091819083613a24836159c2565b9190505550607860795481548110613a3e57613a3e615919565b9060005260206000200154607f5410613a675760798054906000613a61836159c2565b91905055505b6065546040516340c10f1960e01b81526001600160a01b03858116600483015260248201849052909116906340c10f1990604401600060405180830381600087803b158015613ab557600080fd5b505af1158015613ac9573d6000803e3d6000fd5b5050506000828152609060205260409020805461ffff191660011790555092915050565b603380546001600160a01b038381166001600160a01b0319831681179093556040519116919082907f8be0079c531659141344cd1fd0a4f28419497f9722a3daafe3b4186f6b6457e090600090a35050565b600054610100900460ff16613b665760405162461bcd60e51b815260040161138c90615c06565b613b6e614c61565b6121bc614c88565b6000808080808515613b8b575060a254613b90565b5060a7545b600081815260a560205260408120905b88811015613e73576000609060008c8c85818110613bc057613bc0615919565b90506020020135815260200190815260200160002090508060000160029054906101000a900460ff16151560011515148015613c0c57508054630100000090046001600160a01b031633145b613c3e5760405162461bcd60e51b815260206004820152600360248201526245393160e81b604482015260640161138c565b6000613c558c8c858181106126d3576126d3615919565b90506000825460ff166001811115613c6f57613c6f61561a565b1415613dd1576000607e54607d5483613c8891906158fa565b613c929190615bf2565b9050613c9e81836159fd565b613ca8908a6158e2565b9850613cb481886158e2565b42600185015596508a15613d82578254607b80549091610100900460ff16908110613ce157613ce1615919565b9060005260206000200154821015613d215760405162461bcd60e51b8152602060048201526003602482015262229c9960e91b604482015260640161138c565b846001018d8d86818110613d3757613d37615919565b8354600181018555600094855260209485902091909402929092013591909201555060028501613d6782846159fd565b81546001810183556000928352602090922090910155613dcb565b8c8c85818110613d9457613d94615919565b602002919091013590503387600080516020615d26833981519152613db985876159fd565b60405190815260200160405180910390a45b50613e31565b613ddb81886158e2565b608a54600384015596508b8b84818110613df757613df7615919565b90506020020135336001600160a01b031686600080516020615d2683398151915284604051613e2891815260200190565b60405180910390a45b8915613e5857613e588c8c85818110613e4c57613e4c615919565b90506020020135614100565b50600060029091015580613e6b816159c2565b915050613ba0565b50868015613e845750600181015415155b15613f37578381556000613e96614671565b60408051606081018252600180825233602080840191909152828401829052600085815260a3909152929092208151815494955091939092839160ff191690836002811115613ee757613ee761561a565b0217905550602082015181546040909301511515600160a81b0260ff60a81b196001600160a01b039092166101000291909116610100600160b01b03199093169290921791909117905550613f45565b613f45336133b587876158e2565b613f4e83614cb8565b817fa82e56087acdb4c45b596e06c5ef2d1e974654985bfd4300ebad87555eec136e84604051613f8091815260200190565b60405180910390a26001015498975050505050505050565b607f8054600091839083613fac83856158e2565b92505081905550607860795481548110613fc857613fc8615919565b9060005260206000200154607f5410613ff15760798054906000613feb836159c2565b91905055505b6065546040516322ce52b560e21b81526001600160a01b038681166004830152602482018490526044820186905290911690638b394ad490606401600060405180830381600087803b15801561404657600080fd5b505af115801561405a573d6000803e3d6000fd5b5050505060005b838110156140b45760016090600061407984866158e2565b81526020810191909152604001600020805460ff929092166101000261ff0019909216919091179055806140ac816159c2565b915050614061565b5060408051828152602081018590526001600160a01b038616917f8b7c923d3e09b520f101439fe55b1b1ea3b1fcdfcb88afe6aed96873d341e1aa910160405180910390a29392505050565b6000818152609060205260409020805462010000600160b81b031981168255630100000090046001600160a01b03166001825460ff1660018111156141475761414761561a565b14156142a9578154608880549091610100900460ff1690811061416c5761416c615919565b9060005260206000200154608b600082825461418891906159fd565b90915550508154610100900460ff16156142a9578154600090608c90610100900460ff16600481106141bc576141bc615919565b8454910190600190608c90610100900460ff16600481106141df576141df615919565b01546141eb91906159fd565b815481106141fb576141fb615919565b60009182526020909120015483549091508190608c90610100900460ff166004811061422957614229615919565b0184600401548154811061423f5761423f615919565b6000918252602090912001558254608c90610100900460ff166004811061426857614268615919565b0180548061427857614278615c51565b6000828152602080822083016000199081018390559092019092556004808601549383526090909152604090912001555b60006004808401919091556065546040516323b872dd60e01b81526001600160a01b03909116916323b872dd916142e6913091869189910161592f565b600060405180830381600087803b15801561430057600080fd5b505af1158015614314573d6000803e3d6000fd5b50506040516001600160a01b03841692508591507f3a01954f64bfeed1c903bc3920f7a5639288ea25efc7a539195648519e4184a390600090a3505050565b6098546097548291906143679083906158e2565b11156143f95760975460985461437d91906159fd565b6096805461ff00191690556066546040516340c10f1960e01b81523060048201526b01dfc3c700884a60c400000060248201529192506001600160a01b0316906340c10f1990604401600060405180830381600087803b1580156143e057600080fd5b505af11580156143f4573d6000803e3d6000fd5b505050505b6066546040516340c10f1960e01b81526001600160a01b03858116600483015260248201849052909116906340c10f1990604401611af1565b600061443c614671565b604080516060810182526002808252336020808401919091526001838501819052600086815260a39092529390208251815495965092949093849260ff1990921691849081111561448f5761448f61561a565b021790555060208281015182546040948501511515600160a81b0260ff60a81b196001600160a01b039093166101000292909216610100600160b01b03199091161717909155600092835260a69052902055565b621e8c5181101561451c5760405162461bcd60e51b815260206004820152600360248201526245313160e81b604482015260640161138c565b60008181526091602052604090205460ff16156145615760405162461bcd60e51b815260206004820152600360248201526222989960e91b604482015260640161138c565b6068546040516331a9108f60e11b81526004810183905233916001600160a01b031690636352211e9060240160206040518083038186803b1580156145a557600080fd5b505afa1580156145b9573d6000803e3d6000fd5b505050506040513d601f19601f820116820180604052508101906145dd91906159a5565b6001600160a01b0316146146195760405162461bcd60e51b815260206004820152600360248201526245313360e81b604482015260640161138c565b6000818152609160205260408120805460ff1916600117905561463b33613a11565b6040519091508190839033907f584ea1a98d504e99c0dd0ca5ace55f5458d725e7e20a1ebb2e5e5af38434397190600090a45050565b600060a2547f315444e506fb06e32d43fe2cf48f37218994285028f458255be4a56810b66b8d60a2546040516146a991815260200190565b60405180910390a260a280549060006146c1836159c2565b9190505550600160a25461264491906159fd565b600082815260a460205260408120805463ffffffff165b81546147099060ff6401000000008204169063ffffffff16615c67565b63ffffffff1681101561177357600081815260906020526040902061472d85614ce8565b60865490965090945084101561477557805461ffff1916600117815560405182907fe745cd12d6f4eb3c23b4aeb859314255073bdc0805d89f7622090698abf484b290600090a25b8254600090600160281b900460ff16156147d15761479286614ce8565b8554909750909550600160281b900460ff168510156147d15760006147b5614d2f565b905080156147cf576147c8848289614d9f565b9650600191505b505b8061485f578354600160301b900460ff16156147f8576147f383896001613750565b61485f565b6065546040516323b872dd60e01b81526001600160a01b03909116906323b872dd9061482c9030908c90889060040161592f565b600060405180830381600087803b15801561484657600080fd5b505af115801561485a573d6000803e3d6000fd5b505050505b5050808061486c906159c2565b9150506146ec565b600082815260a6602090815260408083205480845260909092528220909161489b84614ce8565b945090506148a881614ed5565b825461ff00191661010060ff9283160217808455620100009004161515600114156149945760886000815481106148e1576148e1615919565b6000918252602090912001548254608880549091610100900460ff1690811061490c5761490c615919565b906000526020600020015461492191906159fd565b608b600082825461493291906158e2565b90915550508154608c90610100900460ff166004811061495457614954615919565b01546004838101919091558254608c9161010090910460ff1690811061497c5761497c615919565b01805460018101825560009182526020909120018390555b815460405161010090910460ff16815283907fe15c536009c86cf1fa16027c6ee4538c2bcce2bdcd80dd17fec4ea96182ef04c9060200160405180910390a25050505050565b600082815260a560205260408120600181015490919081908190815b81811015614c3b57614a0787614ce8565b8098508194505050607c60906000886001018481548110614a2a57614a2a615919565b9060005260206000200154815260200190815260200160002060000160019054906101000a900460ff1660ff1681548110614a6757614a67615919565b9060005260206000200154831015614b2457856002018181548110614a8e57614a8e615919565b906000526020600020015484614aa491906158e2565b9350856001018181548110614abb57614abb615919565b9060005260206000200154887f1162a37c4c79ccae63cfe9f80b5c888f58f52918fbdee026c67d0865e095b2c4886002018481548110614afd57614afd615919565b9060005260206000200154604051614b1791815260200190565b60405180910390a3614bc3565b856002018181548110614b3957614b39615919565b906000526020600020015485614b4f91906158e2565b9450856001018181548110614b6657614b66615919565b9060005260206000200154896001600160a01b031689600080516020615d26833981519152896002018581548110614ba057614ba0615919565b9060005260206000200154604051614bba91815260200190565b60405180910390a45b600088815260a560205260408120600101805483908110614be657614be6615919565b9060005260206000200181905550600060a560008a81526020019081526020016000206002018281548110614c1d57614c1d615919565b60009182526020909120015580614c33816159c2565b9150506149f6565b50614c4583614cb8565b8454614c579089906133b590876158e2565b5050505050505050565b600054610100900460ff166121bc5760405162461bcd60e51b815260040161138c90615c06565b600054610100900460ff16614caf5760405162461bcd60e51b815260040161138c90615c06565b6121bc33613aed565b614cc23082614353565b608b541561359557608b54614cd79082615bf2565b608a60008282546128fb91906158e2565b60008062100000831015614d1e576040805160208101859052016040516020818303038152906040528051906020012060001c92505b50506103ff811691600a9190911c90565b60008060015b60038111614d9957608c8160048110614d5057614d50615919565b01546089805483908110614d6657614d66615919565b9060005260206000200154614d7b91906158fa565b614d8590836158e2565b915080614d91816159c2565b915050614d35565b50919050565b6000614dd4604051806040016040528060118152602001706f6f67612025732061747461636b65642160781b81525085614f33565b6000614de284846019614f78565b935090506000614df182614fd6565b606554600082815260906020526040908190205490516323b872dd60e01b81529293506001600160a01b03918216926323b872dd92614e429230926301000000909104909116908b9060040161592f565b600060405180830381600087803b158015614e5c57600080fd5b505af1158015614e70573d6000803e3d6000fd5b50505060008281526090602090815260409182902054915184815263010000009092046001600160a01b0316925088917f9055cdd665fdee53683ce213caee079a0b8a929160ad57c0b83ca49f032dfafc910160405180910390a35091949350505050565b6000805b60038160ff161015614f2a5760878160ff1681548110614efb57614efb615919565b9060005260206000200154831015614f1857612a26816001615c8f565b80614f22816159dd565b915050614ed9565b50600092915050565b6117c58282604051602401614f49929190615cb4565b60408051601f198184030181529190526020810180516001600160e01b03166309710a9d60e41b1790526150d4565b6000806001831b80851015614faf576040805160208101879052016040516020818303038152906040528051906020012060001c94505b600086614fbd6001846159fd565b8716614fc99190615d11565b979590941c955050505050565b60008060015b600381116150ca576000608c8260048110614ff957614ff9615919565b0154608980548490811061500f5761500f615919565b906000526020600020015461502491906158fa565b905061503081846158e2565b8510156150aa5760006089838154811061504c5761504c615919565b9060005260206000200154848761506391906159fd565b61506d9190615bf2565b9050608c836004811061508257615082615919565b01818154811061509457615094615919565b9060005260206000200154945050505050919050565b6150b481846158e2565b92505080806150c2906159c2565b915050614fdc565b5060009392505050565b80516a636f6e736f6c652e6c6f67602083016000808483855afa5050505050565b828054828255906000526020600020908101928215615130579160200282015b82811115615130578251825591602001919060010190615115565b5061513c92915061517b565b5090565b828054828255906000526020600020908101928215615130579160200282015b82811115615130578235825591602001919060010190615160565b5b8082111561513c576000815560010161517c565b6000602082840312156151a257600080fd5b5035919050565b801515811461359557600080fd5b600080604083850312156151ca57600080fd5b8235915060208301356151dc816151a9565b809150509250929050565b6000602082840312156151f957600080fd5b8135612a26816151a9565b60008083601f84011261521657600080fd5b50813567ffffffffffffffff81111561522e57600080fd5b6020830191508360208260051b850101111561524957600080fd5b9250929050565b6000806020838503121561526357600080fd5b823567ffffffffffffffff81111561527a57600080fd5b61528685828601615204565b90969095509350505050565b600080604083850312156152a557600080fd5b50508035926020909101359150565b6001600160a01b038116811461359557600080fd5b600080604083850312156152dc57600080fd5b82356152e7816152b4565b946020939093013593505050565b60008060006060848603121561530a57600080fd5b8335615315816152b4565b92506020840135615325816152b4565b929592945050506040919091013590565b634e487b7160e01b600052604160045260246000fd5b60405160e0810167ffffffffffffffff8111828210171561536f5761536f615336565b60405290565b600082601f83011261538657600080fd5b8135602067ffffffffffffffff808311156153a3576153a3615336565b8260051b604051601f19603f830116810181811084821117156153c8576153c8615336565b6040529384528581018301938381019250878511156153e657600080fd5b83870191505b84821015615405578135835291830191908301906153ec565b979650505050505050565b60006020828403121561542257600080fd5b813567ffffffffffffffff8082111561543a57600080fd5b9083019060e0828603121561544e57600080fd5b61545661534c565b823581526020830135602082015260408301358281111561547657600080fd5b61548287828601615375565b60408301525060608301358281111561549a57600080fd5b6154a687828601615375565b6060830152506080830135608082015260a0830135828111156154c857600080fd5b6154d487828601615375565b60a08301525060c083013560c082015280935050505092915050565b803560ff8116811461550157600080fd5b919050565b60006080828403121561551857600080fd5b6040516080810181811067ffffffffffffffff8211171561553b5761553b615336565b60405282358152905080615551602084016154f0565b602082015260408301356040820152606083013560608201525092915050565b60008060a0838503121561558457600080fd5b61558e8484615506565b915060808301356151dc816152b4565b600080600060c084860312156155b357600080fd5b8335925060208401356155c5816151a9565b91506155d48560408601615506565b90509250925092565b6000602082840312156155ef57600080fd5b813567ffffffffffffffff81111561560657600080fd5b61561284828501615375565b949350505050565b634e487b7160e01b600052602160045260246000fd5b610100810160028a106156455761564561561a565b98815260ff97909716602088015294151560408701526001600160a01b03939093166060860152608085019190915260a084015260c083015260e09091015290565b60006020828403121561569957600080fd5b8135612a26816152b4565b6000602082840312156156b657600080fd5b813567ffffffffffffffff8111156156cd57600080fd5b82016104408185031215612a2657600080fd5b6000806000606084860312156156f557600080fd5b505081359360208301359350604090920135919050565b6020808252825182820181905260009190848201906040850190845b8181101561574457835183529284019291840191600101615728565b50909695505050505050565b6000602080835261010083018451828501528185015160408501526040850151606085015260608501516080850152608085015160a085015260a085015160e060c0860152818151808452610120870191508483019350600092505b808310156157cc57835182529284019260019290920191908401906157ac565b5060c087015160e08701528094505050505092915050565b60608101600385106157f8576157f861561a565b9381526001600160a01b03929092166020830152151560409091015290565b6000806040838503121561582a57600080fd5b8235915061583a602084016154f0565b90509250929050565b6000806000806040858703121561585957600080fd5b843567ffffffffffffffff8082111561587157600080fd5b61587d88838901615204565b9096509450602087013591508082111561589657600080fd5b506158a387828801615204565b95989497509550505050565b60208082526003908201526245303160e81b604082015260600190565b634e487b7160e01b600052601160045260246000fd5b600082198211156158f5576158f56158cc565b500190565b6000816000190483118215151615615914576159146158cc565b500290565b634e487b7160e01b600052603260045260246000fd5b6001600160a01b039384168152919092166020820152604081019190915260600190565b60006020828403121561596557600080fd5b8151612a26816151a9565b6020808252818101527f4f776e61626c653a2063616c6c6572206973206e6f7420746865206f776e6572604082015260600190565b6000602082840312156159b757600080fd5b8151612a26816152b4565b60006000198214156159d6576159d66158cc565b5060010190565b600060ff821660ff8114156159f4576159f46158cc565b60010192915050565b600082821015615a0f57615a0f6158cc565b500390565b6000808335601e19843603018112615a2b57600080fd5b83018035915067ffffffffffffffff821115615a4657600080fd5b6020019150600581901b360382131561524957600080fd5b6000823560de19833603018112615a7457600080fd5b9190910192915050565b600160401b831115615a9257615a92615336565b805483825580841015615ac9576000828152602081208581019083015b80821015615ac557828255600182019150615aaf565b5050505b5060008181526020812083915b85811015611773578235825560209092019160019182019101615ad6565b8135815560016020808401358284015560028301615b156040860186615a14565b600160401b811115615b2957615b29615336565b825481845580821015615b5d5760008481528581208381019083015b80821015615b595782825590880190615b45565b5050505b50600092835260208320925b81811015615b84578235845592850192918401918501615b69565b505050505050615b976060830183615a14565b615ba5818360038601615a7e565b505060808201356004820155615bbe60a0830183615a14565b615bcc818360058601615a7e565b505060c082013560068201555050565b634e487b7160e01b600052601260045260246000fd5b600082615c0157615c01615bdc565b500490565b6020808252602b908201527f496e697469616c697a61626c653a20636f6e7472616374206973206e6f74206960408201526a6e697469616c697a696e6760a81b606082015260800190565b634e487b7160e01b600052603160045260246000fd5b600063ffffffff808316818516808303821115615c8657615c866158cc565b01949350505050565b600060ff821660ff84168060ff03821115615cac57615cac6158cc565b019392505050565b604081526000835180604084015260005b81811015615ce25760208187018101516060868401015201615cc5565b81811115615cf4576000606083860101525b50602083019390935250601f91909101601f191601606001919050565b600082615d2057615d20615bdc565b50069056fe40e6a337f1a78915df745fd02b2ca082e64e8a780a99b8fbb355f64409b399cca2646970667358221220f0fcfba135fbc1655d88de9b1136c46235ee6b39081be2316b0b2ff2268f8e2b64736f6c63430008090033",
    "linkReferences": {},
    "deployedLinkReferences": {}
}