{
    "_format": "hh-sol-artifact-1",
    "contractName": "MekaApesGame",
    "sourceName": "contracts/MekaApesGame.sol",
    "abi": [
        {
            "anonymous": false,
            "inputs": [
                {
                    "indexed": true,
                    "internalType": "uint256",
                    "name": "claimId",
                    "type": "uint256"
                },
                {
                    "indexed": true,
                    "internalType": "uint256",
                    "name": "tokenId",
                    "type": "uint256"
                },
                {
                    "indexed": false,
                    "internalType": "uint256",
                    "name": "amount",
                    "type": "uint256"
                }
            ],
            "name": "AttackReward",
            "type": "event"
        },
        {
            "anonymous": false,
            "inputs": [
                {
                    "indexed": true,
                    "internalType": "address",
                    "name": "account",
                    "type": "address"
                },
                {
                    "indexed": true,
                    "internalType": "uint256",
                    "name": "oogaId",
                    "type": "uint256"
                },
                {
                    "indexed": true,
                    "internalType": "uint256",
                    "name": "newTokenId",
                    "type": "uint256"
                }
            ],
            "name": "BabyOogaEvolve",
            "type": "event"
        },
        {
            "anonymous": false,
            "inputs": [
                {
                    "indexed": true,
                    "internalType": "uint256",
                    "name": "claimId",
                    "type": "uint256"
                },
                {
                    "indexed": true,
                    "internalType": "address",
                    "name": "account",
                    "type": "address"
                },
                {
                    "indexed": true,
                    "internalType": "uint256",
                    "name": "tokenId",
                    "type": "uint256"
                },
                {
                    "indexed": false,
                    "internalType": "uint256",
                    "name": "amount",
                    "type": "uint256"
                }
            ],
            "name": "ClaimReward",
            "type": "event"
        },
        {
            "anonymous": false,
            "inputs": [
                {
                    "indexed": true,
                    "internalType": "address",
                    "name": "account",
                    "type": "address"
                },
                {
                    "indexed": true,
                    "internalType": "uint256",
                    "name": "oogaId",
                    "type": "uint256"
                },
                {
                    "indexed": false,
                    "internalType": "uint256",
                    "name": "newLevel",
                    "type": "uint256"
                }
            ],
            "name": "LevelUpRoboOoga",
            "type": "event"
        },
        {
            "anonymous": false,
            "inputs": [
                {
                    "indexed": true,
                    "internalType": "uint256",
                    "name": "tokenId",
                    "type": "uint256"
                },
                {
                    "indexed": false,
                    "internalType": "uint256",
                    "name": "megaLevel",
                    "type": "uint256"
                }
            ],
            "name": "MegaMerged",
            "type": "event"
        },
        {
            "anonymous": false,
            "inputs": [
                {
                    "indexed": true,
                    "internalType": "uint256",
                    "name": "tokenId",
                    "type": "uint256"
                }
            ],
            "name": "MekaConvert",
            "type": "event"
        },
        {
            "anonymous": false,
            "inputs": [
                {
                    "indexed": true,
                    "internalType": "address",
                    "name": "account",
                    "type": "address"
                },
                {
                    "indexed": false,
                    "internalType": "uint256",
                    "name": "oogaIdSave",
                    "type": "uint256"
                },
                {
                    "indexed": true,
                    "internalType": "uint256",
                    "name": "oogaIdBurn",
                    "type": "uint256"
                }
            ],
            "name": "MergeMekaApes",
            "type": "event"
        },
        {
            "anonymous": false,
            "inputs": [
                {
                    "indexed": true,
                    "internalType": "address",
                    "name": "account",
                    "type": "address"
                },
                {
                    "indexed": false,
                    "internalType": "uint256",
                    "name": "startFromTokenId",
                    "type": "uint256"
                },
                {
                    "indexed": false,
                    "internalType": "uint256",
                    "name": "amount",
                    "type": "uint256"
                }
            ],
            "name": "MintMultipleRobo",
            "type": "event"
        },
        {
            "anonymous": false,
            "inputs": [
                {
                    "indexed": true,
                    "internalType": "uint256",
                    "name": "oogaId",
                    "type": "uint256"
                },
                {
                    "indexed": true,
                    "internalType": "address",
                    "name": "tributeAccount",
                    "type": "address"
                },
                {
                    "indexed": false,
                    "internalType": "uint256",
                    "name": "tributeOogaId",
                    "type": "uint256"
                }
            ],
            "name": "OogaAttacked",
            "type": "event"
        },
        {
            "anonymous": false,
            "inputs": [
                {
                    "indexed": true,
                    "internalType": "address",
                    "name": "previousOwner",
                    "type": "address"
                },
                {
                    "indexed": true,
                    "internalType": "address",
                    "name": "newOwner",
                    "type": "address"
                }
            ],
            "name": "OwnershipTransferred",
            "type": "event"
        },
        {
            "anonymous": false,
            "inputs": [
                {
                    "indexed": true,
                    "internalType": "uint256",
                    "name": "requestId",
                    "type": "uint256"
                },
                {
                    "indexed": false,
                    "internalType": "uint256",
                    "name": "entropy",
                    "type": "uint256"
                }
            ],
            "name": "ReceiveRandoms",
            "type": "event"
        },
        {
            "anonymous": false,
            "inputs": [
                {
                    "indexed": true,
                    "internalType": "uint256",
                    "name": "requestId",
                    "type": "uint256"
                },
                {
                    "indexed": false,
                    "internalType": "uint256",
                    "name": "requestSeed",
                    "type": "uint256"
                }
            ],
            "name": "RequestRandoms",
            "type": "event"
        },
        {
            "anonymous": false,
            "inputs": [
                {
                    "indexed": true,
                    "internalType": "uint256",
                    "name": "oogaId",
                    "type": "uint256"
                },
                {
                    "indexed": true,
                    "internalType": "address",
                    "name": "account",
                    "type": "address"
                }
            ],
            "name": "StakeOoga",
            "type": "event"
        },
        {
            "anonymous": false,
            "inputs": [
                {
                    "indexed": true,
                    "internalType": "uint256",
                    "name": "claimId",
                    "type": "uint256"
                },
                {
                    "indexed": false,
                    "internalType": "uint256",
                    "name": "totalTax",
                    "type": "uint256"
                }
            ],
            "name": "TaxReward",
            "type": "event"
        },
        {
            "anonymous": false,
            "inputs": [
                {
                    "indexed": true,
                    "internalType": "uint256",
                    "name": "oogaId",
                    "type": "uint256"
                },
                {
                    "indexed": true,
                    "internalType": "address",
                    "name": "account",
                    "type": "address"
                }
            ],
            "name": "UnstakeOoga",
            "type": "event"
        },
        {
            "inputs": [],
            "name": "ATTACK_CHANCE_DENOM",
            "outputs": [
                {
                    "internalType": "uint256",
                    "name": "",
                    "type": "uint256"
                }
            ],
            "stateMutability": "view",
            "type": "function"
        },
        {
            "inputs": [],
            "name": "CLAIM_TAX_DENOM",
            "outputs": [
                {
                    "internalType": "uint256",
                    "name": "",
                    "type": "uint256"
                }
            ],
            "stateMutability": "view",
            "type": "function"
        },
        {
            "inputs": [
                {
                    "internalType": "uint256",
                    "name": "ethAttackChance",
                    "type": "uint256"
                },
                {
                    "internalType": "uint256",
                    "name": "dmtAttackChance",
                    "type": "uint256"
                },
                {
                    "internalType": "uint256",
                    "name": "ogAttackChance",
                    "type": "uint256"
                }
            ],
            "name": "_changeAttackChances",
            "outputs": [],
            "stateMutability": "nonpayable",
            "type": "function"
        },
        {
            "inputs": [
                {
                    "internalType": "uint256",
                    "name": "currentOgPriceStep_",
                    "type": "uint256"
                }
            ],
            "name": "_changeCurrentOgStep",
            "outputs": [],
            "stateMutability": "nonpayable",
            "type": "function"
        },
        {
            "inputs": [
                {
                    "internalType": "bool",
                    "name": "gameActive_",
                    "type": "bool"
                }
            ],
            "name": "_changeGameActive",
            "outputs": [],
            "stateMutability": "nonpayable",
            "type": "function"
        },
        {
            "inputs": [
                {
                    "internalType": "uint256[]",
                    "name": "mintOGpriceSteps_",
                    "type": "uint256[]"
                }
            ],
            "name": "_changeMintOGPriceSteps",
            "outputs": [],
            "stateMutability": "nonpayable",
            "type": "function"
        },
        {
            "inputs": [
                {
                    "internalType": "bool",
                    "name": "mintSale_",
                    "type": "bool"
                }
            ],
            "name": "_changeMintSale",
            "outputs": [],
            "stateMutability": "nonpayable",
            "type": "function"
        },
        {
            "inputs": [
                {
                    "internalType": "uint256",
                    "name": "mintSaleAmount_",
                    "type": "uint256"
                }
            ],
            "name": "_changeMintSaleAmount",
            "outputs": [],
            "stateMutability": "nonpayable",
            "type": "function"
        },
        {
            "inputs": [
                {
                    "internalType": "uint256",
                    "name": "tokenId",
                    "type": "uint256"
                },
                {
                    "internalType": "uint8",
                    "name": "level",
                    "type": "uint8"
                }
            ],
            "name": "_changeOogaLevel",
            "outputs": [],
            "stateMutability": "nonpayable",
            "type": "function"
        },
        {
            "inputs": [
                {
                    "internalType": "bool",
                    "name": "publicMintStarted_",
                    "type": "bool"
                }
            ],
            "name": "_changePublicMintStarted",
            "outputs": [],
            "stateMutability": "nonpayable",
            "type": "function"
        },
        {
            "inputs": [
                {
                    "internalType": "address",
                    "name": "toAddress",
                    "type": "address"
                },
                {
                    "internalType": "uint256",
                    "name": "amount",
                    "type": "uint256"
                }
            ],
            "name": "_freeBurnOG",
            "outputs": [],
            "stateMutability": "nonpayable",
            "type": "function"
        },
        {
            "inputs": [
                {
                    "internalType": "address",
                    "name": "toAddress",
                    "type": "address"
                }
            ],
            "name": "_freeMintMeka",
            "outputs": [],
            "stateMutability": "nonpayable",
            "type": "function"
        },
        {
            "inputs": [
                {
                    "internalType": "address",
                    "name": "toAddress",
                    "type": "address"
                },
                {
                    "internalType": "uint256",
                    "name": "amount",
                    "type": "uint256"
                }
            ],
            "name": "_freeMintMultipleMeka",
            "outputs": [],
            "stateMutability": "nonpayable",
            "type": "function"
        },
        {
            "inputs": [
                {
                    "internalType": "address",
                    "name": "toAddress",
                    "type": "address"
                },
                {
                    "internalType": "uint256",
                    "name": "amount",
                    "type": "uint256"
                }
            ],
            "name": "_freeMintOG",
            "outputs": [],
            "stateMutability": "nonpayable",
            "type": "function"
        },
        {
            "inputs": [
                {
                    "internalType": "address",
                    "name": "toAddress",
                    "type": "address"
                },
                {
                    "internalType": "uint256",
                    "name": "amount",
                    "type": "uint256"
                }
            ],
            "name": "_freeMintRobo",
            "outputs": [],
            "stateMutability": "nonpayable",
            "type": "function"
        },
        {
            "inputs": [
                {
                    "components": [
                        {
                            "internalType": "uint256",
                            "name": "mintAllowance",
                            "type": "uint256"
                        },
                        {
                            "internalType": "uint8",
                            "name": "_v",
                            "type": "uint8"
                        },
                        {
                            "internalType": "bytes32",
                            "name": "_r",
                            "type": "bytes32"
                        },
                        {
                            "internalType": "bytes32",
                            "name": "_s",
                            "type": "bytes32"
                        }
                    ],
                    "internalType": "struct MintSignature",
                    "name": "sig",
                    "type": "tuple"
                },
                {
                    "internalType": "address",
                    "name": "acc",
                    "type": "address"
                }
            ],
            "name": "_verifyMintSig",
            "outputs": [
                {
                    "internalType": "bool",
                    "name": "",
                    "type": "bool"
                }
            ],
            "stateMutability": "view",
            "type": "function"
        },
        {
            "inputs": [
                {
                    "internalType": "address",
                    "name": "account",
                    "type": "address"
                },
                {
                    "internalType": "uint256",
                    "name": "mintAllowance",
                    "type": "uint256"
                }
            ],
            "name": "allowedToMint",
            "outputs": [
                {
                    "internalType": "uint256",
                    "name": "",
                    "type": "uint256"
                }
            ],
            "stateMutability": "view",
            "type": "function"
        },
        {
            "inputs": [
                {
                    "internalType": "bool",
                    "name": "gameActive_",
                    "type": "bool"
                }
            ],
            "name": "changeGameActive",
            "outputs": [],
            "stateMutability": "nonpayable",
            "type": "function"
        },
        {
            "inputs": [
                {
                    "internalType": "bool",
                    "name": "mintSale_",
                    "type": "bool"
                }
            ],
            "name": "changeMintSale",
            "outputs": [],
            "stateMutability": "nonpayable",
            "type": "function"
        },
        {
            "inputs": [
                {
                    "components": [
                        {
                            "internalType": "uint256",
                            "name": "mintPrice",
                            "type": "uint256"
                        },
                        {
                            "internalType": "uint256",
                            "name": "mintStakePrice",
                            "type": "uint256"
                        },
                        {
                            "internalType": "uint256[]",
                            "name": "mintOGprice",
                            "type": "uint256[]"
                        },
                        {
                            "internalType": "uint256[]",
                            "name": "mintOGstakePrice",
                            "type": "uint256[]"
                        },
                        {
                            "internalType": "uint256",
                            "name": "mintDMTstakePrice",
                            "type": "uint256"
                        },
                        {
                            "internalType": "uint256[]",
                            "name": "roboLevelupPrice",
                            "type": "uint256[]"
                        },
                        {
                            "internalType": "uint256",
                            "name": "mekaMergePrice",
                            "type": "uint256"
                        }
                    ],
                    "internalType": "struct Prices",
                    "name": "prices_",
                    "type": "tuple"
                }
            ],
            "name": "changePrices",
            "outputs": [],
            "stateMutability": "nonpayable",
            "type": "function"
        },
        {
            "inputs": [
                {
                    "internalType": "bool",
                    "name": "publicMintStarted_",
                    "type": "bool"
                }
            ],
            "name": "changePublicMintStarted",
            "outputs": [],
            "stateMutability": "nonpayable",
            "type": "function"
        },
        {
            "inputs": [
                {
                    "internalType": "uint256",
                    "name": "tokenId",
                    "type": "uint256"
                }
            ],
            "name": "claimAvailableAmount",
            "outputs": [
                {
                    "internalType": "uint256",
                    "name": "",
                    "type": "uint256"
                }
            ],
            "stateMutability": "view",
            "type": "function"
        },
        {
            "inputs": [
                {
                    "internalType": "uint256[]",
                    "name": "tokenIds",
                    "type": "uint256[]"
                }
            ],
            "name": "claimAvailableAmountMultipleTokens",
            "outputs": [
                {
                    "internalType": "uint256[]",
                    "name": "result",
                    "type": "uint256[]"
                }
            ],
            "stateMutability": "view",
            "type": "function"
        },
        {
            "inputs": [
                {
                    "internalType": "uint256",
                    "name": "",
                    "type": "uint256"
                }
            ],
            "name": "claimRequests",
            "outputs": [
                {
                    "internalType": "uint256",
                    "name": "totalMekaReward",
                    "type": "uint256"
                }
            ],
            "stateMutability": "view",
            "type": "function"
        },
        {
            "inputs": [
                {
                    "internalType": "uint256[]",
                    "name": "tokenIds",
                    "type": "uint256[]"
                }
            ],
            "name": "claimReward",
            "outputs": [],
            "stateMutability": "nonpayable",
            "type": "function"
        },
        {
            "inputs": [],
            "name": "claimTax",
            "outputs": [
                {
                    "internalType": "uint256",
                    "name": "",
                    "type": "uint256"
                }
            ],
            "stateMutability": "view",
            "type": "function"
        },
        {
            "inputs": [],
            "name": "currentOgPriceStep",
            "outputs": [
                {
                    "internalType": "uint256",
                    "name": "",
                    "type": "uint256"
                }
            ],
            "stateMutability": "view",
            "type": "function"
        },
        {
            "inputs": [],
            "name": "dmtMintAttackChance",
            "outputs": [
                {
                    "internalType": "uint256",
                    "name": "",
                    "type": "uint256"
                }
            ],
            "stateMutability": "view",
            "type": "function"
        },
        {
            "inputs": [],
            "name": "dmtToken",
            "outputs": [
                {
                    "internalType": "contract IDMT_ERC20",
                    "name": "",
                    "type": "address"
                }
            ],
            "stateMutability": "view",
            "type": "function"
        },
        {
            "inputs": [],
            "name": "erc721Contract",
            "outputs": [
                {
                    "internalType": "contract MekaApesERC721",
                    "name": "",
                    "type": "address"
                }
            ],
            "stateMutability": "view",
            "type": "function"
        },
        {
            "inputs": [],
            "name": "ethMintAttackChance",
            "outputs": [
                {
                    "internalType": "uint256",
                    "name": "",
                    "type": "uint256"
                }
            ],
            "stateMutability": "view",
            "type": "function"
        },
        {
            "inputs": [
                {
                    "internalType": "uint256[]",
                    "name": "tokenIds",
                    "type": "uint256[]"
                }
            ],
            "name": "evolveBabyOogas",
            "outputs": [],
            "stateMutability": "nonpayable",
            "type": "function"
        },
        {
            "inputs": [],
            "name": "gameActive",
            "outputs": [
                {
                    "internalType": "bool",
                    "name": "",
                    "type": "bool"
                }
            ],
            "stateMutability": "view",
            "type": "function"
        },
        {
            "inputs": [],
            "name": "getPrices",
            "outputs": [
                {
                    "components": [
                        {
                            "internalType": "uint256",
                            "name": "mintPrice",
                            "type": "uint256"
                        },
                        {
                            "internalType": "uint256",
                            "name": "mintStakePrice",
                            "type": "uint256"
                        },
                        {
                            "internalType": "uint256",
                            "name": "mintOGprice",
                            "type": "uint256"
                        },
                        {
                            "internalType": "uint256",
                            "name": "mintOGstakePrice",
                            "type": "uint256"
                        },
                        {
                            "internalType": "uint256",
                            "name": "mintDMTstakePrice",
                            "type": "uint256"
                        },
                        {
                            "internalType": "uint256[]",
                            "name": "roboLevelupPrice",
                            "type": "uint256[]"
                        },
                        {
                            "internalType": "uint256",
                            "name": "mekaMergePrice",
                            "type": "uint256"
                        }
                    ],
                    "internalType": "struct PricesGetter",
                    "name": "",
                    "type": "tuple"
                }
            ],
            "stateMutability": "view",
            "type": "function"
        },
        {
            "inputs": [
                {
                    "components": [
                        {
                            "internalType": "contract MekaApesERC721",
                            "name": "erc721Contract_",
                            "type": "address"
                        },
                        {
                            "internalType": "contract OogearERC20",
                            "name": "ogToken_",
                            "type": "address"
                        },
                        {
                            "internalType": "contract IDMT_ERC20",
                            "name": "dmtToken_",
                            "type": "address"
                        },
                        {
                            "internalType": "contract IERC721",
                            "name": "oogaVerse_",
                            "type": "address"
                        },
                        {
                            "internalType": "address",
                            "name": "mintSigWallet_",
                            "type": "address"
                        },
                        {
                            "internalType": "address",
                            "name": "randomProvider_",
                            "type": "address"
                        },
                        {
                            "components": [
                                {
                                    "internalType": "uint256",
                                    "name": "mintPrice",
                                    "type": "uint256"
                                },
                                {
                                    "internalType": "uint256",
                                    "name": "mintStakePrice",
                                    "type": "uint256"
                                },
                                {
                                    "internalType": "uint256[]",
                                    "name": "mintOGprice",
                                    "type": "uint256[]"
                                },
                                {
                                    "internalType": "uint256[]",
                                    "name": "mintOGstakePrice",
                                    "type": "uint256[]"
                                },
                                {
                                    "internalType": "uint256",
                                    "name": "mintDMTstakePrice",
                                    "type": "uint256"
                                },
                                {
                                    "internalType": "uint256[]",
                                    "name": "roboLevelupPrice",
                                    "type": "uint256[]"
                                },
                                {
                                    "internalType": "uint256",
                                    "name": "mekaMergePrice",
                                    "type": "uint256"
                                }
                            ],
                            "internalType": "struct Prices",
                            "name": "prices_",
                            "type": "tuple"
                        },
                        {
                            "components": [
                                {
                                    "internalType": "uint256",
                                    "name": "mintBase",
                                    "type": "uint256"
                                },
                                {
                                    "internalType": "uint256",
                                    "name": "mintPerToken",
                                    "type": "uint256"
                                },
                                {
                                    "internalType": "uint256",
                                    "name": "mintPerTokenStaked",
                                    "type": "uint256"
                                },
                                {
                                    "internalType": "uint256",
                                    "name": "unstakeBase",
                                    "type": "uint256"
                                },
                                {
                                    "internalType": "uint256",
                                    "name": "unstakePerToken",
                                    "type": "uint256"
                                },
                                {
                                    "internalType": "uint256",
                                    "name": "mergeBase",
                                    "type": "uint256"
                                }
                            ],
                            "internalType": "struct RandomsGas",
                            "name": "randomsGas_",
                            "type": "tuple"
                        },
                        {
                            "internalType": "uint256[]",
                            "name": "mintOGpriceSteps_",
                            "type": "uint256[]"
                        },
                        {
                            "internalType": "uint256[]",
                            "name": "roboOogaRewardPerSec_",
                            "type": "uint256[]"
                        },
                        {
                            "internalType": "uint256[]",
                            "name": "roboOogaMinimalRewardToUnstake_",
                            "type": "uint256[]"
                        },
                        {
                            "internalType": "uint256[]",
                            "name": "roboOogaRewardAttackProbabilities_",
                            "type": "uint256[]"
                        },
                        {
                            "internalType": "uint256[]",
                            "name": "megaLevelProbabilities_",
                            "type": "uint256[]"
                        },
                        {
                            "internalType": "uint256[]",
                            "name": "mekaLevelSharePoints_",
                            "type": "uint256[]"
                        },
                        {
                            "internalType": "uint256[]",
                            "name": "megaTributePoints_",
                            "type": "uint256[]"
                        },
                        {
                            "internalType": "uint256",
                            "name": "claimTax_",
                            "type": "uint256"
                        }
                    ],
                    "internalType": "struct InitParams",
                    "name": "initParams",
                    "type": "tuple"
                }
            ],
            "name": "initialize",
            "outputs": [],
            "stateMutability": "nonpayable",
            "type": "function"
        },
        {
            "inputs": [
                {
                    "internalType": "uint256",
                    "name": "oogaId",
                    "type": "uint256"
                }
            ],
            "name": "isBabyOogaEvolved",
            "outputs": [
                {
                    "internalType": "bool",
                    "name": "",
                    "type": "bool"
                }
            ],
            "stateMutability": "view",
            "type": "function"
        },
        {
            "inputs": [
                {
                    "internalType": "uint256",
                    "name": "tokenId",
                    "type": "uint256"
                }
            ],
            "name": "levelUpRoboOooga",
            "outputs": [],
            "stateMutability": "nonpayable",
            "type": "function"
        },
        {
            "inputs": [],
            "name": "maxMintWithDMT",
            "outputs": [
                {
                    "internalType": "uint256",
                    "name": "",
                    "type": "uint256"
                }
            ],
            "stateMutability": "view",
            "type": "function"
        },
        {
            "inputs": [],
            "name": "maxMintedRewardTokens",
            "outputs": [
                {
                    "internalType": "uint256",
                    "name": "",
                    "type": "uint256"
                }
            ],
            "stateMutability": "view",
            "type": "function"
        },
        {
            "inputs": [],
            "name": "maxOgSupply",
            "outputs": [
                {
                    "internalType": "uint256",
                    "name": "",
                    "type": "uint256"
                }
            ],
            "stateMutability": "view",
            "type": "function"
        },
        {
            "inputs": [],
            "name": "maxTokenSupply",
            "outputs": [
                {
                    "internalType": "uint256",
                    "name": "",
                    "type": "uint256"
                }
            ],
            "stateMutability": "view",
            "type": "function"
        },
        {
            "inputs": [
                {
                    "internalType": "uint256",
                    "name": "",
                    "type": "uint256"
                }
            ],
            "name": "megaLevelProbabilities",
            "outputs": [
                {
                    "internalType": "uint256",
                    "name": "",
                    "type": "uint256"
                }
            ],
            "stateMutability": "view",
            "type": "function"
        },
        {
            "inputs": [
                {
                    "internalType": "uint256",
                    "name": "",
                    "type": "uint256"
                },
                {
                    "internalType": "uint256",
                    "name": "",
                    "type": "uint256"
                }
            ],
            "name": "megaStaked",
            "outputs": [
                {
                    "internalType": "uint256",
                    "name": "",
                    "type": "uint256"
                }
            ],
            "stateMutability": "view",
            "type": "function"
        },
        {
            "inputs": [
                {
                    "internalType": "uint256",
                    "name": "",
                    "type": "uint256"
                }
            ],
            "name": "megaTributePoints",
            "outputs": [
                {
                    "internalType": "uint256",
                    "name": "",
                    "type": "uint256"
                }
            ],
            "stateMutability": "view",
            "type": "function"
        },
        {
            "inputs": [
                {
                    "internalType": "uint256",
                    "name": "",
                    "type": "uint256"
                }
            ],
            "name": "mekaLevelSharePoints",
            "outputs": [
                {
                    "internalType": "uint256",
                    "name": "",
                    "type": "uint256"
                }
            ],
            "stateMutability": "view",
            "type": "function"
        },
        {
            "inputs": [],
            "name": "mekaTotalPointsStaked",
            "outputs": [
                {
                    "internalType": "uint256",
                    "name": "",
                    "type": "uint256"
                }
            ],
            "stateMutability": "view",
            "type": "function"
        },
        {
            "inputs": [],
            "name": "mekaTotalRewardPerPoint",
            "outputs": [
                {
                    "internalType": "uint256",
                    "name": "",
                    "type": "uint256"
                }
            ],
            "stateMutability": "view",
            "type": "function"
        },
        {
            "inputs": [
                {
                    "internalType": "uint256",
                    "name": "tokenIdSave",
                    "type": "uint256"
                },
                {
                    "internalType": "uint256",
                    "name": "tokenIdBurn",
                    "type": "uint256"
                }
            ],
            "name": "mergeMekaApes",
            "outputs": [],
            "stateMutability": "payable",
            "type": "function"
        },
        {
            "inputs": [],
            "name": "mergeRandomGas",
            "outputs": [
                {
                    "internalType": "uint256",
                    "name": "",
                    "type": "uint256"
                }
            ],
            "stateMutability": "view",
            "type": "function"
        },
        {
            "inputs": [
                {
                    "internalType": "uint256",
                    "name": "",
                    "type": "uint256"
                }
            ],
            "name": "mergeRequests",
            "outputs": [
                {
                    "internalType": "uint256",
                    "name": "",
                    "type": "uint256"
                }
            ],
            "stateMutability": "view",
            "type": "function"
        },
        {
            "inputs": [
                {
                    "internalType": "uint256",
                    "name": "amount",
                    "type": "uint256"
                },
                {
                    "internalType": "bool",
                    "name": "toStake",
                    "type": "bool"
                },
                {
                    "components": [
                        {
                            "internalType": "uint256",
                            "name": "mintAllowance",
                            "type": "uint256"
                        },
                        {
                            "internalType": "uint8",
                            "name": "_v",
                            "type": "uint8"
                        },
                        {
                            "internalType": "bytes32",
                            "name": "_r",
                            "type": "bytes32"
                        },
                        {
                            "internalType": "bytes32",
                            "name": "_s",
                            "type": "bytes32"
                        }
                    ],
                    "internalType": "struct MintSignature",
                    "name": "sig",
                    "type": "tuple"
                }
            ],
            "name": "mint",
            "outputs": [],
            "stateMutability": "payable",
            "type": "function"
        },
        {
            "inputs": [
                {
                    "internalType": "uint256",
                    "name": "",
                    "type": "uint256"
                }
            ],
            "name": "mintOGpriceSteps",
            "outputs": [
                {
                    "internalType": "uint256",
                    "name": "",
                    "type": "uint256"
                }
            ],
            "stateMutability": "view",
            "type": "function"
        },
        {
            "inputs": [
                {
                    "internalType": "uint256",
                    "name": "amount",
                    "type": "uint256"
                },
                {
                    "internalType": "bool",
                    "name": "staking",
                    "type": "bool"
                }
            ],
            "name": "mintRandomGas",
            "outputs": [
                {
                    "internalType": "uint256",
                    "name": "",
                    "type": "uint256"
                }
            ],
            "stateMutability": "view",
            "type": "function"
        },
        {
            "inputs": [
                {
                    "internalType": "uint256",
                    "name": "",
                    "type": "uint256"
                }
            ],
            "name": "mintRequests",
            "outputs": [
                {
                    "internalType": "uint32",
                    "name": "startFromId",
                    "type": "uint32"
                },
                {
                    "internalType": "uint8",
                    "name": "amount",
                    "type": "uint8"
                },
                {
                    "internalType": "uint8",
                    "name": "attackChance",
                    "type": "uint8"
                },
                {
                    "internalType": "bool",
                    "name": "toStake",
                    "type": "bool"
                }
            ],
            "stateMutability": "view",
            "type": "function"
        },
        {
            "inputs": [
                {
                    "internalType": "address",
                    "name": "toAddress",
                    "type": "address"
                },
                {
                    "internalType": "uint256",
                    "name": "amount",
                    "type": "uint256"
                }
            ],
            "name": "mintRewardTokens",
            "outputs": [],
            "stateMutability": "payable",
            "type": "function"
        },
        {
            "inputs": [],
            "name": "mintSale",
            "outputs": [
                {
                    "internalType": "bool",
                    "name": "",
                    "type": "bool"
                }
            ],
            "stateMutability": "view",
            "type": "function"
        },
        {
            "inputs": [],
            "name": "mintSaleAmount",
            "outputs": [
                {
                    "internalType": "uint256",
                    "name": "",
                    "type": "uint256"
                }
            ],
            "stateMutability": "view",
            "type": "function"
        },
        {
            "inputs": [],
            "name": "mintSigWallet",
            "outputs": [
                {
                    "internalType": "address",
                    "name": "",
                    "type": "address"
                }
            ],
            "stateMutability": "view",
            "type": "function"
        },
        {
            "inputs": [
                {
                    "internalType": "uint256",
                    "name": "amount",
                    "type": "uint256"
                }
            ],
            "name": "mintWithDMT",
            "outputs": [],
            "stateMutability": "payable",
            "type": "function"
        },
        {
            "inputs": [
                {
                    "internalType": "uint256",
                    "name": "amount",
                    "type": "uint256"
                },
                {
                    "internalType": "bool",
                    "name": "toStake",
                    "type": "bool"
                }
            ],
            "name": "mintWithOG",
            "outputs": [],
            "stateMutability": "payable",
            "type": "function"
        },
        {
            "inputs": [],
            "name": "nextClaimWithoutRandomId",
            "outputs": [
                {
                    "internalType": "uint256",
                    "name": "",
                    "type": "uint256"
                }
            ],
            "stateMutability": "view",
            "type": "function"
        },
        {
            "inputs": [],
            "name": "nextRandomRequestId",
            "outputs": [
                {
                    "internalType": "uint256",
                    "name": "",
                    "type": "uint256"
                }
            ],
            "stateMutability": "view",
            "type": "function"
        },
        {
            "inputs": [],
            "name": "nextTokenId",
            "outputs": [
                {
                    "internalType": "uint256",
                    "name": "",
                    "type": "uint256"
                }
            ],
            "stateMutability": "view",
            "type": "function"
        },
        {
            "inputs": [
                {
                    "internalType": "address",
                    "name": "",
                    "type": "address"
                }
            ],
            "name": "numberOfMintedOogas",
            "outputs": [
                {
                    "internalType": "uint256",
                    "name": "",
                    "type": "uint256"
                }
            ],
            "stateMutability": "view",
            "type": "function"
        },
        {
            "inputs": [],
            "name": "ogMintAttackChance",
            "outputs": [
                {
                    "internalType": "uint256",
                    "name": "",
                    "type": "uint256"
                }
            ],
            "stateMutability": "view",
            "type": "function"
        },
        {
            "inputs": [],
            "name": "ogMinted",
            "outputs": [
                {
                    "internalType": "uint256",
                    "name": "",
                    "type": "uint256"
                }
            ],
            "stateMutability": "view",
            "type": "function"
        },
        {
            "inputs": [],
            "name": "ogToken",
            "outputs": [
                {
                    "internalType": "contract OogearERC20",
                    "name": "",
                    "type": "address"
                }
            ],
            "stateMutability": "view",
            "type": "function"
        },
        {
            "inputs": [
                {
                    "internalType": "uint256",
                    "name": "",
                    "type": "uint256"
                }
            ],
            "name": "oogaAttributes",
            "outputs": [
                {
                    "internalType": "enum OogaType",
                    "name": "oogaType",
                    "type": "uint8"
                },
                {
                    "internalType": "uint8",
                    "name": "level",
                    "type": "uint8"
                },
                {
                    "internalType": "bool",
                    "name": "staked",
                    "type": "bool"
                },
                {
                    "internalType": "address",
                    "name": "stakedOwner",
                    "type": "address"
                },
                {
                    "internalType": "uint256",
                    "name": "lastClaimTimestamp",
                    "type": "uint256"
                },
                {
                    "internalType": "uint256",
                    "name": "savedReward",
                    "type": "uint256"
                },
                {
                    "internalType": "uint256",
                    "name": "lastRewardPerPoint",
                    "type": "uint256"
                },
                {
                    "internalType": "uint256",
                    "name": "stakedMegaIndex",
                    "type": "uint256"
                }
            ],
            "stateMutability": "view",
            "type": "function"
        },
        {
            "inputs": [
                {
                    "internalType": "uint256",
                    "name": "",
                    "type": "uint256"
                }
            ],
            "name": "oogaEvolved",
            "outputs": [
                {
                    "internalType": "bool",
                    "name": "",
                    "type": "bool"
                }
            ],
            "stateMutability": "view",
            "type": "function"
        },
        {
            "inputs": [],
            "name": "oogaVerse",
            "outputs": [
                {
                    "internalType": "contract IERC721",
                    "name": "",
                    "type": "address"
                }
            ],
            "stateMutability": "view",
            "type": "function"
        },
        {
            "inputs": [],
            "name": "owner",
            "outputs": [
                {
                    "internalType": "address",
                    "name": "",
                    "type": "address"
                }
            ],
            "stateMutability": "view",
            "type": "function"
        },
        {
            "inputs": [],
            "name": "prices",
            "outputs": [
                {
                    "internalType": "uint256",
                    "name": "mintPrice",
                    "type": "uint256"
                },
                {
                    "internalType": "uint256",
                    "name": "mintStakePrice",
                    "type": "uint256"
                },
                {
                    "internalType": "uint256",
                    "name": "mintDMTstakePrice",
                    "type": "uint256"
                },
                {
                    "internalType": "uint256",
                    "name": "mekaMergePrice",
                    "type": "uint256"
                }
            ],
            "stateMutability": "view",
            "type": "function"
        },
        {
            "inputs": [],
            "name": "randomMekaProbability",
            "outputs": [
                {
                    "internalType": "uint256",
                    "name": "",
                    "type": "uint256"
                }
            ],
            "stateMutability": "view",
            "type": "function"
        },
        {
            "inputs": [],
            "name": "randomProvider",
            "outputs": [
                {
                    "internalType": "address",
                    "name": "",
                    "type": "address"
                }
            ],
            "stateMutability": "view",
            "type": "function"
        },
        {
            "inputs": [
                {
                    "internalType": "uint256",
                    "name": "",
                    "type": "uint256"
                }
            ],
            "name": "randomRequests",
            "outputs": [
                {
                    "internalType": "enum RandomRequestType",
                    "name": "requestType",
                    "type": "uint8"
                },
                {
                    "internalType": "address",
                    "name": "user",
                    "type": "address"
                },
                {
                    "internalType": "bool",
                    "name": "active",
                    "type": "bool"
                }
            ],
            "stateMutability": "view",
            "type": "function"
        },
        {
            "inputs": [],
            "name": "randomsGas",
            "outputs": [
                {
                    "internalType": "uint256",
                    "name": "mintBase",
                    "type": "uint256"
                },
                {
                    "internalType": "uint256",
                    "name": "mintPerToken",
                    "type": "uint256"
                },
                {
                    "internalType": "uint256",
                    "name": "mintPerTokenStaked",
                    "type": "uint256"
                },
                {
                    "internalType": "uint256",
                    "name": "unstakeBase",
                    "type": "uint256"
                },
                {
                    "internalType": "uint256",
                    "name": "unstakePerToken",
                    "type": "uint256"
                },
                {
                    "internalType": "uint256",
                    "name": "mergeBase",
                    "type": "uint256"
                }
            ],
            "stateMutability": "view",
            "type": "function"
        },
        {
            "inputs": [
                {
                    "internalType": "uint256[]",
                    "name": "requestIds",
                    "type": "uint256[]"
                },
                {
                    "internalType": "uint256[]",
                    "name": "entropies",
                    "type": "uint256[]"
                }
            ],
            "name": "receiveMultipleRandoms",
            "outputs": [],
            "stateMutability": "nonpayable",
            "type": "function"
        },
        {
            "inputs": [
                {
                    "internalType": "uint256",
                    "name": "requestId",
                    "type": "uint256"
                },
                {
                    "internalType": "uint256",
                    "name": "entropy",
                    "type": "uint256"
                }
            ],
            "name": "receiveRandoms",
            "outputs": [],
            "stateMutability": "nonpayable",
            "type": "function"
        },
        {
            "inputs": [],
            "name": "renounceOwnership",
            "outputs": [],
            "stateMutability": "nonpayable",
            "type": "function"
        },
        {
            "inputs": [
                {
                    "internalType": "uint256",
                    "name": "",
                    "type": "uint256"
                }
            ],
            "name": "roboOogaMinimalRewardToUnstake",
            "outputs": [
                {
                    "internalType": "uint256",
                    "name": "",
                    "type": "uint256"
                }
            ],
            "stateMutability": "view",
            "type": "function"
        },
        {
            "inputs": [
                {
                    "internalType": "uint256",
                    "name": "",
                    "type": "uint256"
                }
            ],
            "name": "roboOogaRewardAttackProbabilities",
            "outputs": [
                {
                    "internalType": "uint256",
                    "name": "",
                    "type": "uint256"
                }
            ],
            "stateMutability": "view",
            "type": "function"
        },
        {
            "inputs": [
                {
                    "internalType": "uint256",
                    "name": "",
                    "type": "uint256"
                }
            ],
            "name": "roboOogaRewardPerSec",
            "outputs": [
                {
                    "internalType": "uint256",
                    "name": "",
                    "type": "uint256"
                }
            ],
            "stateMutability": "view",
            "type": "function"
        },
        {
            "inputs": [
                {
                    "internalType": "uint256[]",
                    "name": "tokenIds",
                    "type": "uint256[]"
                }
            ],
            "name": "stake",
            "outputs": [],
            "stateMutability": "nonpayable",
            "type": "function"
        },
        {
            "inputs": [],
            "name": "tokensMintedWithDMT",
            "outputs": [
                {
                    "internalType": "uint256",
                    "name": "",
                    "type": "uint256"
                }
            ],
            "stateMutability": "view",
            "type": "function"
        },
        {
            "inputs": [],
            "name": "totalMintedRewardTokens",
            "outputs": [
                {
                    "internalType": "uint256",
                    "name": "",
                    "type": "uint256"
                }
            ],
            "stateMutability": "view",
            "type": "function"
        },
        {
            "inputs": [],
            "name": "totalMintedTokens",
            "outputs": [
                {
                    "internalType": "uint256",
                    "name": "",
                    "type": "uint256"
                }
            ],
            "stateMutability": "view",
            "type": "function"
        },
        {
            "inputs": [],
            "name": "totalRandomTxFee",
            "outputs": [
                {
                    "internalType": "uint256",
                    "name": "",
                    "type": "uint256"
                }
            ],
            "stateMutability": "view",
            "type": "function"
        },
        {
            "inputs": [],
            "name": "totalRandomTxFeeWithdrawn",
            "outputs": [
                {
                    "internalType": "uint256",
                    "name": "",
                    "type": "uint256"
                }
            ],
            "stateMutability": "view",
            "type": "function"
        },
        {
            "inputs": [
                {
                    "internalType": "address",
                    "name": "newOwner",
                    "type": "address"
                }
            ],
            "name": "transferOwnership",
            "outputs": [],
            "stateMutability": "nonpayable",
            "type": "function"
        },
        {
            "inputs": [
                {
                    "internalType": "uint256[]",
                    "name": "tokenIds",
                    "type": "uint256[]"
                }
            ],
            "name": "unstake",
            "outputs": [],
            "stateMutability": "payable",
            "type": "function"
        },
        {
            "inputs": [
                {
                    "internalType": "uint256",
                    "name": "roboAmount",
                    "type": "uint256"
                }
            ],
            "name": "unstakeRandomGas",
            "outputs": [
                {
                    "internalType": "uint256",
                    "name": "",
                    "type": "uint256"
                }
            ],
            "stateMutability": "view",
            "type": "function"
        },
        {
            "inputs": [
                {
                    "internalType": "uint256",
                    "name": "amount",
                    "type": "uint256"
                }
            ],
            "name": "withdrawRandomTxFee",
            "outputs": [],
            "stateMutability": "nonpayable",
            "type": "function"
        }
    ],
    "bytecode": "0x608060405234801561001057600080fd5b50615a6b80620000216000396000f3fe6080604052600436106105b75760003560e01c80638e32e316116102ec578063d6ebe4fe1161018a578063e6f0ba61116100ec578063f020044f11610095578063f38972ed1161006f578063f38972ed146111db578063febeb132146111fb578063ff75eece1461121157600080fd5b8063f020044f14611186578063f22395c8146111a5578063f2fde38b146111bb57600080fd5b8063ecb24fb5116100c6578063ecb24fb514611133578063ed39407914611146578063eee21c2d1461116657600080fd5b8063e6f0ba61146110e3578063e9a16bdb14611103578063ec01952b1461111d57600080fd5b8063dd2c09481161014e578063e2fa880611610128578063e2fa88061461109a578063e449f341146110ba578063e6b4d60b146110cd57600080fd5b8063dd2c094814611038578063dd2f6d4b1461104d578063e0fcd6661461107a57600080fd5b8063d6ebe4fe14610f73578063d7c97fb414610f89578063d835de0614610fa9578063d96ef75914610fbf578063db3820641461100357600080fd5b8063b69b2a651161024e578063c54b7358116101f7578063cabf1614116101d1578063cabf161414610ee3578063d3419bf314610f03578063d385014d14610f4657600080fd5b8063c54b735814610e53578063c94c7ff414610e69578063ca067ad014610e8957600080fd5b8063c06fda8e11610228578063c06fda8e14610ded578063c24b719714610e03578063c37a576114610e2357600080fd5b8063b69b2a6514610d8b578063bad7314814610dab578063bd9a548b14610dcb57600080fd5b806398654df4116102b0578063a4e9f2971161028a578063a4e9f29714610cfd578063b56c610514610d55578063b5e6230114610d6b57600080fd5b806398654df414610cb45780639e15827614610cd4578063a4acf05114610cea57600080fd5b80638e32e31614610c125780638f46500e14610c27578063909e376d14610c4757806393b2662a14610c6757806397881c2f14610c8757600080fd5b806350f7c20411610459578063715018a6116103bb578063833c7fc0116103645780638caee8231161033e5780638caee82314610bab5780638d6a6d8714610bcb5780638da5cb5b14610bf457600080fd5b8063833c7fc014610b5f578063834e91cf14610b7557806386e7f03014610b8b57600080fd5b80637bf1b562116103955780637bf1b56214610af95780637d5ee8e614610b195780637e5ae4b714610b2f57600080fd5b8063715018a614610aae578063729a90c814610ac357806375794a3c14610ae357600080fd5b80636853709a1161041d5780636eee2dad116103f75780636eee2dad14610a4d5780636fddcb4614610a6057806370a96f3314610a8057600080fd5b80636853709a1461096f5780636bff95061461099d5780636c4a8c1714610a2057600080fd5b806350f7c204146108fa5780635123455f1461091057806355e318b4146109235780635e71cc7c14610943578063662162d51461095957600080fd5b80631b9401cd1161051d578063424e6575116104c6578063489da8ff116104a0578063489da8ff1461088a5780634fc7c972146108aa57806350e3ec88146108ca57600080fd5b8063424e6575146107ca578063448883d71461085457806346dd84731461086a57600080fd5b806338e692af116104f757806338e692af1461075c5780633a6a6ca3146107725780633bf27cf11461079257600080fd5b80631b9401cd14610706578063213edf3614610726578063257822101461074657600080fd5b80630ee9a59b1161057f57806312f30bde1161055957806312f30bde146106a657806319de5221146106c65780631a480371146106e657600080fd5b80630ee9a59b146106505780630fbf0a9314610670578063113bf8871461069057600080fd5b806301719327146105bc5780630181de42146105e557806308a1c391146105fb5780630a1b494d1461061b5780630c17479314610630575b600080fd5b3480156105c857600080fd5b506105d260855481565b6040519081526020015b60405180910390f35b3480156105f157600080fd5b506105d2608b5481565b34801561060757600080fd5b506105d2610616366004614f2d565b611231565b61062e610629366004614f54565b611252565b005b34801561063c57600080fd5b5061062e61064b366004614f84565b61145f565b34801561065c57600080fd5b506105d261066b366004614f2d565b6114a7565b34801561067c57600080fd5b5061062e61068b366004614fed565b6114b7565b34801561069c57600080fd5b506105d2607e5481565b3480156106b257600080fd5b5061062e6106c1366004614f84565b61160b565b3480156106d257600080fd5b506105d26106e136600461502f565b611653565b3480156106f257600080fd5b5061062e610701366004615066565b611687565b34801561071257600080fd5b5061062e61072136600461502f565b6116f2565b34801561073257600080fd5b5061062e610741366004614f2d565b611740565b34801561075257600080fd5b506105d260815481565b34801561076857600080fd5b506105d2608a5481565b34801561077e57600080fd5b506105d261078d366004614f2d565b611a2c565b34801561079e57600080fd5b506067546107b2906001600160a01b031681565b6040516001600160a01b0390911681526020016105dc565b3480156107d657600080fd5b506108246107e5366004614f2d565b60a06020526000908152604090205463ffffffff81169060ff640100000000820481169165010000000000810482169166010000000000009091041684565b6040805163ffffffff95909516855260ff93841660208601529190921690830152151560608201526080016105dc565b34801561086057600080fd5b506105d2607d5481565b34801561087657600080fd5b5061062e61088536600461516c565b611a3c565b34801561089657600080fd5b506105d26108a5366004614f2d565b611b00565b3480156108b657600080fd5b5061062e6108c5366004614f2d565b611b10565b3480156108d657600080fd5b506108ea6108e53660046152cd565b611be6565b60405190151581526020016105dc565b34801561090657600080fd5b506105d260995481565b61062e61091e3660046152fa565b611cfc565b34801561092f57600080fd5b5061062e61093e366004615339565b611ee9565b34801561094f57600080fd5b506105d260955481565b34801561096557600080fd5b506105d2609b5481565b34801561097b57600080fd5b5061062e61098a366004614f84565b6093805460ff1916911515919091179055565b3480156109a957600080fd5b50610a0c6109b8366004614f2d565b6090602052600090815260409020805460018201546002830154600384015460049094015460ff8085169561010086048216956201000081049092169463010000009092046001600160a01b031693919288565b6040516105dc98979695949392919061538c565b348015610a2c57600080fd5b506105d2610a3b366004614f2d565b60a26020526000908152604090205481565b61062e610a5b366004615066565b611efc565b348015610a6c57600080fd5b5061062e610a7b3660046153e3565b611ffd565b348015610a8c57600080fd5b5061062e610a9b366004614f84565b6096805460ff1916911515919091179055565b348015610aba57600080fd5b5061062e612006565b348015610acf57600080fd5b506105d2610ade366004614f2d565b61205a565b348015610aef57600080fd5b506105d2607f5481565b348015610b0557600080fd5b506105d2610b14366004614f2d565b61206a565b348015610b2557600080fd5b506105d260985481565b348015610b3b57600080fd5b506108ea610b4a366004614f2d565b60009081526091602052604090205460ff1690565b348015610b6b57600080fd5b506105d2609c5481565b348015610b8157600080fd5b506105d260975481565b348015610b9757600080fd5b5061062e610ba6366004614f2d565b609555565b348015610bb757600080fd5b5061062e610bc6366004614f2d565b607955565b348015610bd757600080fd5b5061062e610be6366004615400565b608292909255608355608455565b348015610c0057600080fd5b506033546001600160a01b03166107b2565b348015610c1e57600080fd5b506105d261207a565b348015610c3357600080fd5b50606a546107b2906001600160a01b031681565b348015610c5357600080fd5b506068546107b2906001600160a01b031681565b348015610c7357600080fd5b506105d2610c82366004614f2d565b612090565b348015610c9357600080fd5b50610ca7610ca2366004614fed565b6120b3565b6040516105dc919061542c565b348015610cc057600080fd5b5061062e610ccf366004615066565b61215c565b348015610ce057600080fd5b506105d260865481565b61062e610cf8366004614f2d565b612183565b348015610d0957600080fd5b50607254607354607454607554607654607754610d2895949392919086565b604080519687526020870195909552938501929092526060840152608083015260a082015260c0016105dc565b348015610d6157600080fd5b506105d260835481565b348015610d7757600080fd5b506105d2610d86366004614f2d565b612377565b348015610d9757600080fd5b506066546107b2906001600160a01b031681565b348015610db757600080fd5b5061062e610dc6366004615470565b6124e2565b348015610dd757600080fd5b50610de061286b565b6040516105dc91906154ac565b348015610df957600080fd5b506105d260845481565b348015610e0f57600080fd5b506105d2610e1e366004614f54565b61297f565b348015610e2f57600080fd5b506108ea610e3e366004614f2d565b60916020526000908152604090205460ff1681565b348015610e5f57600080fd5b506105d260a35481565b348015610e7557600080fd5b5061062e610e84366004614fed565b6129c9565b348015610e9557600080fd5b50610ed4610ea4366004614f2d565b609f6020526000908152604090205460ff808216916001600160a01b0361010082041691600160a81b9091041683565b6040516105dc93929190615540565b348015610eef57600080fd5b506105d2610efe366004615066565b612a12565b348015610f0f57600080fd5b50606b54606c54606f54607154610f269392919084565b6040805194855260208501939093529183015260608201526080016105dc565b348015610f5257600080fd5b506105d2610f61366004614f2d565b60a16020526000908152604090205481565b348015610f7f57600080fd5b506105d2609a5481565b348015610f9557600080fd5b506065546107b2906001600160a01b031681565b348015610fb557600080fd5b506105d260795481565b348015610fcb57600080fd5b5061062e610fda366004615573565b600091825260906020526040909120805460ff9092166101000261ff0019909216919091179055565b34801561100f57600080fd5b5061062e61101e366004614f84565b609680549115156101000261ff0019909216919091179055565b34801561104457600080fd5b506077546105d2565b34801561105957600080fd5b506105d26110683660046153e3565b60946020526000908152604090205481565b34801561108657600080fd5b5061062e61109536600461559f565b612a54565b3480156110a657600080fd5b5061062e6110b5366004615066565b612b6b565b61062e6110c8366004614fed565b612b75565b3480156110d957600080fd5b506105d260825481565b3480156110ef57600080fd5b506069546107b2906001600160a01b031681565b34801561110f57600080fd5b506096546108ea9060ff1681565b34801561112957600080fd5b506105d2609e5481565b61062e61114136600461502f565b612c27565b34801561115257600080fd5b5061062e611161366004614fed565b61318e565b34801561117257600080fd5b5061062e611181366004614f84565b613218565b34801561119257600080fd5b506096546108ea90610100900460ff1681565b3480156111b157600080fd5b506105d2609d5481565b3480156111c757600080fd5b5061062e6111d63660046153e3565b613260565b3480156111e757600080fd5b5061062e6111f6366004615066565b613319565b34801561120757600080fd5b506105d260805481565b34801561121d57600080fd5b506105d261122c366004614f2d565b613352565b607c818154811061124157600080fd5b600091825260209091200154905081565b60965460ff1615801561126c5750609654610100900460ff165b6112a35760405162461bcd60e51b815260206004820152600360248201526245303160e81b60448201526064015b60405180910390fd5b609954826112af61207a565b6112b99190615621565b11156112ed5760405162461bcd60e51b815260206004820152600360248201526245333160e81b604482015260640161129a565b486112f8838361297f565b6113029190615639565b3410156113375760405162461bcd60e51b815260206004820152600360248201526245333360e81b604482015260640161129a565b34609c60008282546113499190615621565b9091555060009050811561138157606b6003016079548154811061136f5761136f615658565b906000526020600020015490506113a7565b606b6002016079548154811061139957611399615658565b906000526020600020015490505b6066546001600160a01b03166323b872dd33306113c48786615639565b6040516001600160e01b031960e086901b1681526001600160a01b0393841660048201529290911660248301526044820152606401602060405180830381600087803b15801561141357600080fd5b505af1158015611427573d6000803e3d6000fd5b505050506040513d601f19601f8201168201806040525081019061144b919061566e565b5061145a338484608454613362565b505050565b6033546001600160a01b03163314610a9b5760405162461bcd60e51b81526020600482018190526024820152600080516020615a16833981519152604482015260640161129a565b6087818154811061124157600080fd5b609654610100900460ff166114f45760405162461bcd60e51b815260206004820152600360248201526245303160e81b604482015260640161129a565b60005b8181101561145a5760655433906001600160a01b0316636352211e85858581811061152457611524615658565b905060200201356040518263ffffffff1660e01b815260040161154991815260200190565b60206040518083038186803b15801561156157600080fd5b505afa158015611575573d6000803e3d6000fd5b505050506040513d601f19601f82011682018060405250810190611599919061568b565b6001600160a01b0316146115d55760405162461bcd60e51b815260206004820152600360248201526245343160e81b604482015260640161129a565b6115f98383838181106115ea576115ea615658565b905060200201353360006134d6565b80611603816156a8565b9150506114f7565b6033546001600160a01b0316331461098a5760405162461bcd60e51b81526020600482018190526024820152600080516020615a16833981519152604482015260640161129a565b608c826004811061166357600080fd5b01818154811061167257600080fd5b90600052602060002001600091509150505481565b6066546040516340c10f1960e01b81526001600160a01b03848116600483015260248201849052909116906340c10f19906044015b600060405180830381600087803b1580156116d657600080fd5b505af11580156116ea573d6000803e3d6000fd5b505050505050565b606a546001600160a01b031633146117325760405162461bcd60e51b815260206004820152600360248201526204536360ec1b604482015260640161129a565b61173c828261369b565b5050565b60965460ff1615801561175a5750609654610100900460ff165b61178c5760405162461bcd60e51b815260206004820152600360248201526245303160e81b604482015260640161129a565b6000818152609060205260409081902060655491516331a9108f60e11b815260048101849052909133916001600160a01b0390911690636352211e9060240160206040518083038186803b1580156117e357600080fd5b505afa1580156117f7573d6000803e3d6000fd5b505050506040513d601f19601f8201168201806040525081019061181b919061568b565b6001600160a01b0316148061184057508054630100000090046001600160a01b031633145b6118725760405162461bcd60e51b8152602060048201526003602482015262229b9960e91b604482015260640161129a565b6000815460ff16600181111561188a5761188a615376565b1480156118a157508054600461010090910460ff16105b6118d35760405162461bcd60e51b815260206004820152600360248201526245373160e81b604482015260640161129a565b805462010000900460ff161561190b576118ec82612377565b8160020160008282546118ff9190615621565b90915550504260018201555b6067548154607080546001600160a01b03909316926323b872dd92339230929091610100900460ff1690811061194357611943615658565b6000918252602090912001546040516001600160e01b031960e086901b1681526001600160a01b0393841660048201529290911660248301526044820152606401600060405180830381600087803b15801561199e57600080fd5b505af11580156119b2573d6000803e3d6000fd5b50508254610100900460ff16915082905060016119ce836156c3565b825460ff91821661010093840a90810290830219909116179092558354604051919004909116815283915033907f2ef0b9f6641bfe4ae9f94f2b9b20ece8b29e13b163e6425c14ff8f520e79412e9060200160405180910390a35050565b6078818154811061124157600080fd5b6033546001600160a01b03163314611a845760405162461bcd60e51b81526020600482018190526024820152600080516020615a16833981519152604482015260640161129a565b8051606b908155602080830151606c5560408301518051849392611aad92606d92910190614e92565b5060608201518051611ac9916003840191602090910190614e92565b506080820151600482015560a08201518051611aef916005840191602090910190614e92565b5060c0820151816006015590505050565b607b818154811061124157600080fd5b606a546001600160a01b03163314611b505760405162461bcd60e51b815260206004820152600360248201526245393960e81b604482015260640161129a565b80609d54609c54611b6191906156e3565b1115611b955760405162461bcd60e51b815260206004820152600360248201526208a72760eb1b604482015260640161129a565b80609d6000828254611ba79190615621565b9091555050606a546040516001600160a01b039091169082156108fc029083906000818181858888f1935050505015801561173c573d6000803e3d6000fd5b8151604080516001600160a01b0384166020808301919091528183019390935281518082038301815260608201909252815191909201207f19457468657265756d205369676e6564204d6573736167653a0a3332000000006080830152609c8201819052600091829060bc01604051602081830303815290604052805190602001209050600060018287602001518860400151896060015160405160008152602001604052604051611cb4949392919093845260ff9290921660208401526040830152606082015260800190565b6020604051602081039080840390855afa158015611cd6573d6000803e3d6000fd5b5050604051601f1901516069546001600160a01b03908116911614979650505050505050565b60965460ff16611d345760405162461bcd60e51b815260206004820152600360248201526204530360ec1b604482015260640161129a565b60955483611d4061207a565b611d4a9190615621565b1115611d7257611d5861207a565b609554611d6591906156e3565b6096805460ff1916905592505b805115611db557611d838133611be6565b611db55760405162461bcd60e51b815260206004820152600360248201526204532360ec1b604482015260640161129a565b60935460009060ff16611dc9576000611dcd565b6092545b8251611dd99190615621565b336000908152609460205260409020549091508190611df9908690615621565b1115611e2d5760405162461bcd60e51b815260206004820152600360248201526245323160e81b604482015260640161129a565b3360009081526094602052604081208054869290611e4c908490615621565b90915550600090508315611e635750606c54611e68565b50606b545b611e728186615639565b341015611ea75760405162461bcd60e51b815260206004820152600360248201526222991960e91b604482015260640161129a565b48611eb2868661297f565b611ebc9190615639565b609c6000828254611ecd9190615621565b92505081905550611ee2338686608254613362565b5050505050565b805161173c906078906020840190614e92565b6033546001600160a01b03163314611f445760405162461bcd60e51b81526020600482018190526024820152600080516020615a16833981519152604482015260640161129a565b609b54609a54611f549083615621565b1115611f885760405162461bcd60e51b815260206004820152600360248201526245393760e81b604482015260640161129a565b600048611f9683600061297f565b611fa09190615639565b905080341015611fd85760405162461bcd60e51b8152602060048201526003602482015262229c9b60e91b604482015260640161129a565b80609c6000828254611fea9190615621565b9091555061145a90508383600080613362565b61173c8161379d565b6033546001600160a01b0316331461204e5760405162461bcd60e51b81526020600482018190526024820152600080516020615a16833981519152604482015260640161129a565b6120586000613879565b565b6088818154811061124157600080fd5b6089818154811061124157600080fd5b60006001607f5461208b91906156e3565b905090565b6076546000906120a09083615639565b6075546120ad9190615621565b92915050565b60608167ffffffffffffffff8111156120ce576120ce615092565b6040519080825280602002602001820160405280156120f7578160200160208202803683370190505b50905060005b828110156121555761212684848381811061211a5761211a615658565b90506020020135612377565b82828151811061213857612138615658565b60209081029190910101528061214d816156a8565b9150506120fd565b5092915050565b60005b8181101561145a576121708361379d565b508061217b816156a8565b91505061215f565b60965460ff1615801561219d5750609654610100900460ff165b6121cf5760405162461bcd60e51b815260206004820152600360248201526245303160e81b604482015260640161129a565b609954816121db61207a565b6121e59190615621565b11156122195760405162461bcd60e51b815260206004820152600360248201526222999960e91b604482015260640161129a565b6081548160805461222a9190615621565b111561225e5760405162461bcd60e51b815260206004820152600360248201526245353160e81b604482015260640161129a565b4861226a82600161297f565b6122749190615639565b3410156122a95760405162461bcd60e51b8152602060048201526003602482015262114ccd60ea1b604482015260640161129a565b34609c60008282546122bb9190615621565b9091555050606754606f546001600160a01b03909116906323b872dd90339030906122e7908690615639565b6040516001600160e01b031960e086901b1681526001600160a01b0393841660048201529290911660248301526044820152606401600060405180830381600087803b15801561233657600080fd5b505af115801561234a573d6000803e3d6000fd5b5050505061235d33826001608354613362565b806080600082825461236f9190615621565b909155505050565b60008181526090602052604080822081516101008101909252805483929190829060ff1660018111156123ac576123ac615376565b60018111156123bd576123bd615376565b8152815460ff61010082048116602084015262010000820416151560408301526001600160a01b03630100000090910416606082015260018201546080820152600282015460a0820152600382015460c082015260049091015460e090910152905060008151600181111561243457612434615376565b14156124a157607a816020015160ff168154811061245457612454615658565b906000526020600020015460906000858152602001908152602001600020600101544261248191906156e3565b61248b9190615639565b8160a0015161249a9190615621565b9392505050565b6088816020015160ff16815481106124bb576124bb615658565b90600052602060002001548160c00151608a546124d891906156e3565b61249a9190615639565b600054610100900460ff166124fd5760005460ff1615612501565b303b155b6125645760405162461bcd60e51b815260206004820152602e60248201527f496e697469616c697a61626c653a20636f6e747261637420697320616c72656160448201526d191e481a5b9a5d1a585b1a5e995960921b606482015260840161129a565b600054610100900460ff16158015612586576000805461ffff19166101011790555b61258e6138cb565b61259b60208301836153e3565b606580546001600160a01b0319166001600160a01b03929092169190911790556125cb60408301602084016153e3565b606680546001600160a01b0319166001600160a01b03929092169190911790556125fb60608301604084016153e3565b606780546001600160a01b0319166001600160a01b039290921691909117905561262b60808301606084016153e3565b606880546001600160a01b0319166001600160a01b039290921691909117905561265b60a08301608084016153e3565b606980546001600160a01b0319166001600160a01b039290921691909117905561268b60c0830160a084016153e3565b606a80546001600160a01b0319166001600160a01b03929092169190911790556001609e8190556305f5e10060a355607f5560006080819055612710608181905560955561d6d860995560978190556969e10de76676d080000060985560828190556034608355606760848190556086556096805461ffff191661010117905560036092556093805460ff19169055609a8190556032609b55608a819055608b5561273a6102208301836156fa565b61274691608791614edd565b506127556102408301836156fa565b61276191608891614edd565b506127706102608301836156fa565b61277c91608991614edd565b5061278a60c0830183615744565b606b61279682826157df565b505060e08201356072556101008201356073556101208201356074556101408201356075556101608201356076556101808201356077556000609c819055609d556127e56101a08301836156fa565b6127f191607891614edd565b5060016079556128056101c08301836156fa565b61281191607a91614edd565b506128206101e08301836156fa565b61282c91607b91614edd565b5061283b6102008301836156fa565b61284791607c91614edd565b50610280820135607d556064607e55801561173c576000805461ff00191690555050565b6128ab6040518060e00160405280600081526020016000815260200160008152602001600081526020016000815260200160608152602001600081525090565b6040518060e00160405280606b600001548152602001606b600101548152602001606b600201607954815481106128e4576128e4615658565b90600052602060002001548152602001606b6003016079548154811061290c5761290c615658565b600091825260209182902001548252606f548282015260708054604080518285028101850182528281529401939283018282801561296957602002820191906000526020600020905b815481526020019060010190808311612955575b5050509183525050607154602090910152919050565b60008161298d5760006129a5565b60745461299b6001856156e3565b6129a59190615639565b6073546129b29085615639565b6072546129bf9190615621565b61249a9190615621565b609654610100900460ff16612a065760405162461bcd60e51b815260206004820152600360248201526245303160e81b604482015260640161129a565b61145a82826000613902565b6001600160a01b03821660009081526094602052604081205460935460ff16612a3c576000612a40565b6092545b612a4a9084615621565b61249a91906156e3565b606a546001600160a01b03163314612a945760405162461bcd60e51b815260206004820152600360248201526204536360ec1b604482015260640161129a565b8260005b81811015612aec57612ada868683818110612ab557612ab5615658565b90506020020135858584818110612ace57612ace615658565b9050602002013561369b565b80612ae4816156a8565b915050612a98565b506000609d54609c54612aff91906156e3565b9050670429d069189e00008111156116ea5780609d6000828254612b239190615621565b9091555050606a546040516001600160a01b039091169082156108fc029083906000818181858888f19350505050158015612b62573d6000803e3d6000fd5b50505050505050565b61145a8282613d48565b609654610100900460ff16612bb25760405162461bcd60e51b815260206004820152600360248201526245303160e81b604482015260640161129a565b6000612bc083836001613902565b905048612bcc82612090565b612bd69190615639565b341015612c0b5760405162461bcd60e51b815260206004820152600360248201526245333560e81b604482015260640161129a565b34609c6000828254612c1d9190615621565b9091555050505050565b60965460ff16158015612c415750609654610100900460ff165b612c735760405162461bcd60e51b815260206004820152600360248201526245303160e81b604482015260640161129a565b80821415612ca95760405162461bcd60e51b815260206004820152600360248201526245383160e81b604482015260640161129a565b607754612cb7904890615639565b341015612cec5760405162461bcd60e51b815260206004820152600360248201526222999b60e91b604482015260640161129a565b34609c6000828254612cfe9190615621565b90915550506000828152609060205260408082208383529181902060655491516331a9108f60e11b815260048101869052909133916001600160a01b0390911690636352211e9060240160206040518083038186803b158015612d6057600080fd5b505afa158015612d74573d6000803e3d6000fd5b505050506040513d601f19601f82011682018060405250810190612d98919061568b565b6001600160a01b03161480612dcf5750815462010000900460ff168015612dcf57508154630100000090046001600160a01b031633145b612e015760405162461bcd60e51b8152602060048201526003602482015262114e0d60ea1b604482015260640161129a565b6065546040516331a9108f60e11b81526004810185905233916001600160a01b031690636352211e9060240160206040518083038186803b158015612e4557600080fd5b505afa158015612e59573d6000803e3d6000fd5b505050506040513d601f19601f82011682018060405250810190612e7d919061568b565b6001600160a01b03161480612eb45750805462010000900460ff168015612eb457508054630100000090046001600160a01b031633145b612ee65760405162461bcd60e51b815260206004820152600360248201526245383560e81b604482015260640161129a565b6001825460ff166001811115612efe57612efe615376565b148015612f2057506001815460ff166001811115612f1e57612f1e615376565b145b612f525760405162461bcd60e51b8152602060048201526003602482015262229c1960e91b604482015260640161129a565b8154610100900460ff16158015612f7057508054610100900460ff16155b612fa25760405162461bcd60e51b815260206004820152600360248201526245383360e81b604482015260640161129a565b815460009062010000900460ff16151560011415612fd857612fc385612377565b612fcd9082615621565b608a54600385015590505b815462010000900460ff1615156001141561301357612ff684612377565b6130009082615621565b608a546003840155905061301384613eb0565b6071548110156130d1576066546071546001600160a01b03909116906323b872dd90339030906130449086906156e3565b6040516001600160e01b031960e086901b1681526001600160a01b0393841660048201529290911660248301526044820152606401602060405180830381600087803b15801561309357600080fd5b505af11580156130a7573d6000803e3d6000fd5b505050506040513d601f19601f820116820180604052508101906130cb919061566e565b506130e9565b6071546130e99033906130e490846156e3565b61410b565b6130f28561419a565b606554604051630852cd8d60e31b8152600481018690526001600160a01b03909116906342966c6890602401600060405180830381600087803b15801561313857600080fd5b505af115801561314c573d6000803e3d6000fd5b50506040518781528692503391507f7fbc09d28fa0377bea9dd7bc3289ca8cf2ed47c19c59b30347c08925c18e82d79060200160405180910390a35050505050565b60965460ff161580156131a85750609654610100900460ff165b6131da5760405162461bcd60e51b815260206004820152600360248201526245303160e81b604482015260640161129a565b60005b8181101561145a576132068383838181106131fa576131fa615658565b9050602002013561424b565b80613210816156a8565b9150506131dd565b6033546001600160a01b0316331461101e5760405162461bcd60e51b81526020600482018190526024820152600080516020615a16833981519152604482015260640161129a565b6033546001600160a01b031633146132a85760405162461bcd60e51b81526020600482018190526024820152600080516020615a16833981519152604482015260640161129a565b6001600160a01b03811661330d5760405162461bcd60e51b815260206004820152602660248201527f4f776e61626c653a206e6577206f776e657220697320746865207a65726f206160448201526564647265737360d01b606482015260840161129a565b61331681613879565b50565b606654604051632770a7eb60e21b81526001600160a01b0384811660048301526024820184905290911690639dc29fac906044016116bc565b607a818154811061124157600080fd5b6000811561337c57613375846002615639565b905061337f565b50825b60006133896143d9565b6040805160608101825260008082526001600160a01b038a166020808401919091526001838501819052858352609f9091529290208151815494955091939092839160ff1916908360028111156133e2576133e2615376565b021790555060208281015182546040948501511515600160a81b0260ff60a81b196001600160a01b039093166101000292909216610100600160b01b031990911617179091558151608081018352607f5463ffffffff908116825260ff8981168385019081528882168487019081528a151560608601908152600089815260a09097529690952093518454915195519651151566010000000000000266ff0000000000001997841665010000000000029790971666ffff000000000019969093166401000000000264ffffffffff19909216931692909217919091179290921691909117919091179055612b623086613d48565b600083815260906020526040902081613556576065546040516323b872dd60e01b81526001600160a01b03858116600483015230602483015260448201879052909116906323b872dd90606401600060405180830381600087803b15801561353d57600080fd5b505af1158015613551573d6000803e3d6000fd5b505050505b80546001600160a01b03841663010000000262010000600160b81b031990911617620100001781554260018281019190915560006002830155815460ff1660018111156135a5576135a5615376565b141561365f578054608880549091610100900460ff169081106135ca576135ca615658565b9060005260206000200154608b60008282546135e69190615621565b9091555050608a5460038201558054610100900460ff161561365f578054608c90610100900460ff166004811061361f5761361f615658565b01546004828101919091558154608c9161010090910460ff1690811061364757613647615658565b01805460018101825560009182526020909120018490555b6040516001600160a01b0384169085907f5b53344e2b3d15f33a2ab59e3c199c7bbcb08f5ce03bf0a25c14f978647299a790600090a350505050565b817fa1400508f229eaea44d95e98b6da371661f6e873726585abd7efdbdc60716976826040516136cd91815260200190565b60405180910390a26000828152609f602052604090208054600160a81b900460ff166136f857505050565b805460ff60a81b191681556000815460ff16600281111561371b5761371b615376565b141561373c57805461145a9061010090046001600160a01b0316848461443d565b6002815460ff16600281111561375457613754615376565b14156137645761145a83836145e9565b6001815460ff16600281111561377c5761377c615376565b141561145a57805461145a9061010090046001600160a01b0316848461474f565b607f80546000918190836137b0836156a8565b91905055506078607954815481106137ca576137ca615658565b9060005260206000200154607f54106137f357607980549060006137ed836156a8565b91905055505b6065546040516340c10f1960e01b81526001600160a01b03858116600483015260248201849052909116906340c10f1990604401600060405180830381600087803b15801561384157600080fd5b505af1158015613855573d6000803e3d6000fd5b5050506000828152609060205260409020805461ffff191660011790555092915050565b603380546001600160a01b038381166001600160a01b0319831681179093556040519116919082907f8be0079c531659141344cd1fd0a4f28419497f9722a3daafe3b4186f6b6457e090600090a35050565b600054610100900460ff166138f25760405162461bcd60e51b815260040161129a906158cc565b6138fa6149e8565b612058614a0f565b60008080808085156139175750609e5461391c565b5060a3545b600081815260a160205260408120905b88811015613c23576000609060008c8c8581811061394c5761394c615658565b90506020020135815260200190815260200160002090508060000160029054906101000a900460ff1615156001151514801561399857508054630100000090046001600160a01b031633145b6139ca5760405162461bcd60e51b815260206004820152600360248201526245393160e81b604482015260640161129a565b60006139e18c8c8581811061211a5761211a615658565b90506000825460ff1660018111156139fb576139fb615376565b1415613b6f576000607e54607d5483613a149190615639565b613a1e919061592d565b9050613a2a81836156e3565b613a34908a615621565b9850613a408188615621565b42600185015596508a15613b0e578254607b80549091610100900460ff16908110613a6d57613a6d615658565b9060005260206000200154821015613aad5760405162461bcd60e51b8152602060048201526003602482015262229c9960e91b604482015260640161129a565b846001018d8d86818110613ac357613ac3615658565b8354600181018555600094855260209485902091909402929092013591909201555060028501613af382846156e3565b81546001810183556000928352602090922090910155613b69565b8c8c85818110613b2057613b20615658565b6020029190910135905033877f40e6a337f1a78915df745fd02b2ca082e64e8a780a99b8fbb355f64409b399cc613b5785876156e3565b60405190815260200160405180910390a45b50613be1565b613b798188615621565b608a54600384015596508b8b84818110613b9557613b95615658565b90506020020135336001600160a01b0316867f40e6a337f1a78915df745fd02b2ca082e64e8a780a99b8fbb355f64409b399cc84604051613bd891815260200190565b60405180910390a45b8915613c0857613c088c8c85818110613bfc57613bfc615658565b90506020020135613eb0565b50600060029091015580613c1b816156a8565b91505061392c565b50868015613c345750600181015415155b15613ce7578381556000613c466143d9565b604080516060810182526001808252336020808401919091528284018290526000858152609f909152929092208151815494955091939092839160ff191690836002811115613c9757613c97615376565b0217905550602082015181546040909301511515600160a81b0260ff60a81b196001600160a01b039092166101000291909116610100600160b01b03199093169290921791909117905550613cf5565b613cf5336130e48787615621565b613cfe83614a3f565b817fa82e56087acdb4c45b596e06c5ef2d1e974654985bfd4300ebad87555eec136e84604051613d3091815260200190565b60405180910390a26001015498975050505050505050565b607f8054600091839083613d5c8385615621565b92505081905550607860795481548110613d7857613d78615658565b9060005260206000200154607f5410613da15760798054906000613d9b836156a8565b91905055505b6065546040516322ce52b560e21b81526001600160a01b038681166004830152602482018490526044820186905290911690638b394ad490606401600060405180830381600087803b158015613df657600080fd5b505af1158015613e0a573d6000803e3d6000fd5b5050505060005b83811015613e6457600160906000613e298486615621565b81526020810191909152604001600020805460ff929092166101000261ff001990921691909117905580613e5c816156a8565b915050613e11565b5060408051828152602081018590526001600160a01b038616917f8b7c923d3e09b520f101439fe55b1b1ea3b1fcdfcb88afe6aed96873d341e1aa910160405180910390a29392505050565b6000818152609060205260409020805462010000600160b81b031981168255630100000090046001600160a01b03166001825460ff166001811115613ef757613ef7615376565b1415614059578154608880549091610100900460ff16908110613f1c57613f1c615658565b9060005260206000200154608b6000828254613f3891906156e3565b90915550508154610100900460ff1615614059578154600090608c90610100900460ff1660048110613f6c57613f6c615658565b8454910190600190608c90610100900460ff1660048110613f8f57613f8f615658565b0154613f9b91906156e3565b81548110613fab57613fab615658565b60009182526020909120015483549091508190608c90610100900460ff1660048110613fd957613fd9615658565b01846004015481548110613fef57613fef615658565b6000918252602090912001558254608c90610100900460ff166004811061401857614018615658565b0180548061402857614028615941565b6000828152602080822083016000199081018390559092019092556004808601549383526090909152604090912001555b60006004838101919091556065546040516323b872dd60e01b815230928101929092526001600160a01b0383811660248401526044830186905216906323b872dd90606401600060405180830381600087803b1580156140b857600080fd5b505af11580156140cc573d6000803e3d6000fd5b50506040516001600160a01b03841692508591507f3a01954f64bfeed1c903bc3920f7a5639288ea25efc7a539195648519e4184a390600090a3505050565b60985460975482919061411f908390615621565b11156141385760975460985461413591906156e3565b90505b6066546040516340c10f1960e01b81526001600160a01b03858116600483015260248201849052909116906340c10f1990604401600060405180830381600087803b15801561418657600080fd5b505af1158015612b62573d6000803e3d6000fd5b60006141a46143d9565b6040805160608101825260028082523360208084019190915260018385018190526000868152609f9092529390208251815495965092949093849260ff199092169184908111156141f7576141f7615376565b021790555060208281015182546040948501511515600160a81b0260ff60a81b196001600160a01b039093166101000292909216610100600160b01b03199091161717909155600092835260a29052902055565b621e8c518110156142845760405162461bcd60e51b815260206004820152600360248201526245313160e81b604482015260640161129a565b60008181526091602052604090205460ff16156142c95760405162461bcd60e51b815260206004820152600360248201526222989960e91b604482015260640161129a565b6068546040516331a9108f60e11b81526004810183905233916001600160a01b031690636352211e9060240160206040518083038186803b15801561430d57600080fd5b505afa158015614321573d6000803e3d6000fd5b505050506040513d601f19601f82011682018060405250810190614345919061568b565b6001600160a01b0316146143815760405162461bcd60e51b815260206004820152600360248201526245313360e81b604482015260640161129a565b6000818152609160205260408120805460ff191660011790556143a33361379d565b6040519091508190839033907f584ea1a98d504e99c0dd0ca5ace55f5458d725e7e20a1ebb2e5e5af38434397190600090a45050565b6000609e547f315444e506fb06e32d43fe2cf48f37218994285028f458255be4a56810b66b8d609e5460405161441191815260200190565b60405180910390a2609e8054906000614429836156a8565b91905055506001609e5461208b91906156e3565b600082815260a060205260408120805463ffffffff165b81546144719060ff6401000000008204169063ffffffff16615957565b63ffffffff168110156116ea57600081815260906020526040902061449585614a6f565b6086549096509094508410156144dd57805461ffff1916600117815560405182907fe745cd12d6f4eb3c23b4aeb859314255073bdc0805d89f7622090698abf484b290600090a25b825460009065010000000000900460ff161561453d576144fc86614a6f565b855490975090955065010000000000900460ff1685101561453d576000614521614ab6565b9050801561453b57614534848289614b26565b9650600191505b505b806145d45783546601000000000000900460ff161561456757614562838960016134d6565b6145d4565b6065546040516323b872dd60e01b81523060048201526001600160a01b038a8116602483015260448201869052909116906323b872dd90606401600060405180830381600087803b1580156145bb57600080fd5b505af11580156145cf573d6000803e3d6000fd5b505050505b505080806145e1906156a8565b915050614454565b600082815260a2602090815260408083205480845260909092528220909161461084614a6f565b9450905061461d81614c5d565b825461ff00191661010060ff92831602178084556201000090041615156001141561470957608860008154811061465657614656615658565b6000918252602090912001548254608880549091610100900460ff1690811061468157614681615658565b906000526020600020015461469691906156e3565b608b60008282546146a79190615621565b90915550508154608c90610100900460ff16600481106146c9576146c9615658565b01546004838101919091558254608c9161010090910460ff169081106146f1576146f1615658565b01805460018101825560009182526020909120018390555b815460405161010090910460ff16815283907fe15c536009c86cf1fa16027c6ee4538c2bcce2bdcd80dd17fec4ea96182ef04c9060200160405180910390a25050505050565b600082815260a160205260408120600181015490919081908190815b818110156149c25761477c87614a6f565b8098508194505050607c6090600088600101848154811061479f5761479f615658565b9060005260206000200154815260200190815260200160002060000160019054906101000a900460ff1660ff16815481106147dc576147dc615658565b90600052602060002001548310156148995785600201818154811061480357614803615658565b9060005260206000200154846148199190615621565b935085600101818154811061483057614830615658565b9060005260206000200154887f1162a37c4c79ccae63cfe9f80b5c888f58f52918fbdee026c67d0865e095b2c488600201848154811061487257614872615658565b906000526020600020015460405161488c91815260200190565b60405180910390a361494a565b8560020181815481106148ae576148ae615658565b9060005260206000200154856148c49190615621565b94508560010181815481106148db576148db615658565b9060005260206000200154896001600160a01b0316897f40e6a337f1a78915df745fd02b2ca082e64e8a780a99b8fbb355f64409b399cc89600201858154811061492757614927615658565b906000526020600020015460405161494191815260200190565b60405180910390a45b600088815260a16020526040812060010180548390811061496d5761496d615658565b9060005260206000200181905550600060a160008a815260200190815260200160002060020182815481106149a4576149a4615658565b600091825260209091200155806149ba816156a8565b91505061476b565b506149cc83614a3f565b84546149de9089906130e49087615621565b5050505050505050565b600054610100900460ff166120585760405162461bcd60e51b815260040161129a906158cc565b600054610100900460ff16614a365760405162461bcd60e51b815260040161129a906158cc565b61205833613879565b614a49308261410b565b608b541561331657608b54614a5e908261592d565b608a600082825461236f9190615621565b60008062100000831015614aa5576040805160208101859052016040516020818303038152906040528051906020012060001c92505b50506103ff811691600a9190911c90565b60008060015b60038111614b2057608c8160048110614ad757614ad7615658565b01546089805483908110614aed57614aed615658565b9060005260206000200154614b029190615639565b614b0c9083615621565b915080614b18816156a8565b915050614abc565b50919050565b6000614b5b604051806040016040528060118152602001706f6f67612025732061747461636b65642160781b81525085614cbb565b6000614b6984846019614d15565b935090506000614b7882614d73565b606554600082815260906020526040908190205490516323b872dd60e01b81523060048201526001600160a01b03630100000090920482166024820152604481018a905292935016906323b872dd90606401600060405180830381600087803b158015614be457600080fd5b505af1158015614bf8573d6000803e3d6000fd5b50505060008281526090602090815260409182902054915184815263010000009092046001600160a01b0316925088917f9055cdd665fdee53683ce213caee079a0b8a929160ad57c0b83ca49f032dfafc910160405180910390a35091949350505050565b6000805b60038160ff161015614cb25760878160ff1681548110614c8357614c83615658565b9060005260206000200154831015614ca05761249a81600161597f565b80614caa816156c3565b915050614c61565b50600092915050565b61173c8282604051602401614cd19291906159a4565b60408051601f198184030181529190526020810180517bffffffffffffffffffffffffffffffffffffffffffffffffffffffff166309710a9d60e41b179052614e71565b6000806001831b80851015614d4c576040805160208101879052016040516020818303038152906040528051906020012060001c94505b600086614d5a6001846156e3565b8716614d669190615a01565b979590941c955050505050565b60008060015b60038111614e67576000608c8260048110614d9657614d96615658565b01546089805484908110614dac57614dac615658565b9060005260206000200154614dc19190615639565b9050614dcd8184615621565b851015614e4757600060898381548110614de957614de9615658565b90600052602060002001548487614e0091906156e3565b614e0a919061592d565b9050608c8360048110614e1f57614e1f615658565b018181548110614e3157614e31615658565b9060005260206000200154945050505050919050565b614e518184615621565b9250508080614e5f906156a8565b915050614d79565b5060009392505050565b80516a636f6e736f6c652e6c6f67602083016000808483855afa5050505050565b828054828255906000526020600020908101928215614ecd579160200282015b82811115614ecd578251825591602001919060010190614eb2565b50614ed9929150614f18565b5090565b828054828255906000526020600020908101928215614ecd579160200282015b82811115614ecd578235825591602001919060010190614efd565b5b80821115614ed95760008155600101614f19565b600060208284031215614f3f57600080fd5b5035919050565b801515811461331657600080fd5b60008060408385031215614f6757600080fd5b823591506020830135614f7981614f46565b809150509250929050565b600060208284031215614f9657600080fd5b813561249a81614f46565b60008083601f840112614fb357600080fd5b50813567ffffffffffffffff811115614fcb57600080fd5b6020830191508360208260051b8501011115614fe657600080fd5b9250929050565b6000806020838503121561500057600080fd5b823567ffffffffffffffff81111561501757600080fd5b61502385828601614fa1565b90969095509350505050565b6000806040838503121561504257600080fd5b50508035926020909101359150565b6001600160a01b038116811461331657600080fd5b6000806040838503121561507957600080fd5b823561508481615051565b946020939093013593505050565b634e487b7160e01b600052604160045260246000fd5b60405160e0810167ffffffffffffffff811182821017156150cb576150cb615092565b60405290565b600082601f8301126150e257600080fd5b8135602067ffffffffffffffff808311156150ff576150ff615092565b8260051b604051601f19603f8301168101818110848211171561512457615124615092565b60405293845285810183019383810192508785111561514257600080fd5b83870191505b8482101561516157813583529183019190830190615148565b979650505050505050565b60006020828403121561517e57600080fd5b813567ffffffffffffffff8082111561519657600080fd5b9083019060e082860312156151aa57600080fd5b6151b26150a8565b82358152602083013560208201526040830135828111156151d257600080fd5b6151de878286016150d1565b6040830152506060830135828111156151f657600080fd5b615202878286016150d1565b6060830152506080830135608082015260a08301358281111561522457600080fd5b615230878286016150d1565b60a08301525060c083013560c082015280935050505092915050565b803560ff8116811461525d57600080fd5b919050565b60006080828403121561527457600080fd5b6040516080810181811067ffffffffffffffff8211171561529757615297615092565b604052823581529050806152ad6020840161524c565b602082015260408301356040820152606083013560608201525092915050565b60008060a083850312156152e057600080fd5b6152ea8484615262565b91506080830135614f7981615051565b600080600060c0848603121561530f57600080fd5b83359250602084013561532181614f46565b91506153308560408601615262565b90509250925092565b60006020828403121561534b57600080fd5b813567ffffffffffffffff81111561536257600080fd5b61536e848285016150d1565b949350505050565b634e487b7160e01b600052602160045260246000fd5b610100810160028a106153a1576153a1615376565b98815260ff97909716602088015294151560408701526001600160a01b03939093166060860152608085019190915260a084015260c083015260e09091015290565b6000602082840312156153f557600080fd5b813561249a81615051565b60008060006060848603121561541557600080fd5b505081359360208301359350604090920135919050565b6020808252825182820181905260009190848201906040850190845b8181101561546457835183529284019291840191600101615448565b50909695505050505050565b60006020828403121561548257600080fd5b813567ffffffffffffffff81111561549957600080fd5b82016102a0818503121561249a57600080fd5b6000602080835261010083018451828501528185015160408501526040850151606085015260608501516080850152608085015160a085015260a085015160e060c0860152818151808452610120870191508483019350600092505b808310156155285783518252928401926001929092019190840190615508565b5060c087015160e08701528094505050505092915050565b606081016003851061555457615554615376565b9381526001600160a01b03929092166020830152151560409091015290565b6000806040838503121561558657600080fd5b823591506155966020840161524c565b90509250929050565b600080600080604085870312156155b557600080fd5b843567ffffffffffffffff808211156155cd57600080fd5b6155d988838901614fa1565b909650945060208701359150808211156155f257600080fd5b506155ff87828801614fa1565b95989497509550505050565b634e487b7160e01b600052601160045260246000fd5b600082198211156156345761563461560b565b500190565b60008160001904831182151516156156535761565361560b565b500290565b634e487b7160e01b600052603260045260246000fd5b60006020828403121561568057600080fd5b815161249a81614f46565b60006020828403121561569d57600080fd5b815161249a81615051565b60006000198214156156bc576156bc61560b565b5060010190565b600060ff821660ff8114156156da576156da61560b565b60010192915050565b6000828210156156f5576156f561560b565b500390565b6000808335601e1984360301811261571157600080fd5b83018035915067ffffffffffffffff82111561572c57600080fd5b6020019150600581901b3603821315614fe657600080fd5b6000823560de1983360301811261575a57600080fd5b9190910192915050565b6801000000000000000083111561577d5761577d615092565b8054838255808410156157b4576000828152602081208581019083015b808210156157b05782825560018201915061579a565b5050505b5060008181526020812083915b858110156116ea5782358255602090920191600191820191016157c1565b813581556001602080840135828401556002830161580060408601866156fa565b6801000000000000000081111561581957615819615092565b82548184558082101561584d5760008481528581208381019083015b808210156158495782825590880190615835565b5050505b50600092835260208320925b81811015615874578235845592850192918401918501615859565b50505050505061588760608301836156fa565b615895818360038601615764565b5050608082013560048201556158ae60a08301836156fa565b6158bc818360058601615764565b505060c082013560068201555050565b6020808252602b908201527f496e697469616c697a61626c653a20636f6e7472616374206973206e6f74206960408201526a6e697469616c697a696e6760a81b606082015260800190565b634e487b7160e01b600052601260045260246000fd5b60008261593c5761593c615917565b500490565b634e487b7160e01b600052603160045260246000fd5b600063ffffffff8083168185168083038211156159765761597661560b565b01949350505050565b600060ff821660ff84168060ff0382111561599c5761599c61560b565b019392505050565b604081526000835180604084015260005b818110156159d257602081870181015160608684010152016159b5565b818111156159e4576000606083860101525b50602083019390935250601f91909101601f191601606001919050565b600082615a1057615a10615917565b50069056fe4f776e61626c653a2063616c6c6572206973206e6f7420746865206f776e6572a26469706673582212203c5fd07e434ed01f8c31afd83f058c578732afb3b02ac9b5522306a7fe9ab5c964736f6c63430008090033",
    "linkReferences": {},
    "deployedLinkReferences": {}
}