{
    "_format": "hh-sol-artifact-1",
    "contractName": "MekaApesGame",
    "sourceName": "contracts/MekaApesGame.sol",
    "abi": [
        {
            "anonymous": false,
            "inputs": [
                {
                    "indexed": true,
                    "internalType": "uint256",
                    "name": "tokenId",
                    "type": "uint256"
                },
                {
                    "indexed": false,
                    "internalType": "uint256",
                    "name": "amount",
                    "type": "uint256"
                }
            ],
            "name": "AttackReward",
            "type": "event"
        },
        {
            "anonymous": false,
            "inputs": [
                {
                    "indexed": true,
                    "internalType": "address",
                    "name": "account",
                    "type": "address"
                },
                {
                    "indexed": true,
                    "internalType": "uint256",
                    "name": "oogaId",
                    "type": "uint256"
                },
                {
                    "indexed": true,
                    "internalType": "uint256",
                    "name": "newTokenId",
                    "type": "uint256"
                }
            ],
            "name": "BabyOogaEvolve",
            "type": "event"
        },
        {
            "anonymous": false,
            "inputs": [
                {
                    "indexed": true,
                    "internalType": "address",
                    "name": "account",
                    "type": "address"
                },
                {
                    "indexed": true,
                    "internalType": "uint256",
                    "name": "tokenId",
                    "type": "uint256"
                },
                {
                    "indexed": false,
                    "internalType": "uint256",
                    "name": "amount",
                    "type": "uint256"
                }
            ],
            "name": "ClaimReward",
            "type": "event"
        },
        {
            "anonymous": false,
            "inputs": [
                {
                    "indexed": true,
                    "internalType": "address",
                    "name": "account",
                    "type": "address"
                },
                {
                    "indexed": true,
                    "internalType": "uint256",
                    "name": "oogaId",
                    "type": "uint256"
                },
                {
                    "indexed": false,
                    "internalType": "uint256",
                    "name": "newLevel",
                    "type": "uint256"
                }
            ],
            "name": "LevelUpRoboOoga",
            "type": "event"
        },
        {
            "anonymous": false,
            "inputs": [
                {
                    "indexed": true,
                    "internalType": "address",
                    "name": "account",
                    "type": "address"
                },
                {
                    "indexed": false,
                    "internalType": "uint256",
                    "name": "oogaIdSave",
                    "type": "uint256"
                },
                {
                    "indexed": true,
                    "internalType": "uint256",
                    "name": "oogaIdBurn",
                    "type": "uint256"
                },
                {
                    "indexed": false,
                    "internalType": "uint256",
                    "name": "megaLevel",
                    "type": "uint256"
                }
            ],
            "name": "MergeMekaApes",
            "type": "event"
        },
        {
            "anonymous": false,
            "inputs": [
                {
                    "indexed": true,
                    "internalType": "address",
                    "name": "account",
                    "type": "address"
                },
                {
                    "indexed": true,
                    "internalType": "uint256",
                    "name": "tokenId",
                    "type": "uint256"
                },
                {
                    "indexed": false,
                    "internalType": "uint256",
                    "name": "oogaType",
                    "type": "uint256"
                },
                {
                    "indexed": false,
                    "internalType": "uint256",
                    "name": "level",
                    "type": "uint256"
                }
            ],
            "name": "Mint",
            "type": "event"
        },
        {
            "anonymous": false,
            "inputs": [
                {
                    "indexed": true,
                    "internalType": "uint256",
                    "name": "oogaId",
                    "type": "uint256"
                },
                {
                    "indexed": true,
                    "internalType": "address",
                    "name": "tributeAccount",
                    "type": "address"
                }
            ],
            "name": "OogaAttacked",
            "type": "event"
        },
        {
            "anonymous": false,
            "inputs": [
                {
                    "indexed": true,
                    "internalType": "address",
                    "name": "previousOwner",
                    "type": "address"
                },
                {
                    "indexed": true,
                    "internalType": "address",
                    "name": "newOwner",
                    "type": "address"
                }
            ],
            "name": "OwnershipTransferred",
            "type": "event"
        },
        {
            "anonymous": false,
            "inputs": [
                {
                    "indexed": true,
                    "internalType": "uint256",
                    "name": "oogaId",
                    "type": "uint256"
                },
                {
                    "indexed": true,
                    "internalType": "address",
                    "name": "account",
                    "type": "address"
                }
            ],
            "name": "StakeOoga",
            "type": "event"
        },
        {
            "anonymous": false,
            "inputs": [
                {
                    "indexed": false,
                    "internalType": "uint256",
                    "name": "totalTax",
                    "type": "uint256"
                }
            ],
            "name": "TaxReward",
            "type": "event"
        },
        {
            "anonymous": false,
            "inputs": [
                {
                    "indexed": true,
                    "internalType": "uint256",
                    "name": "oogaId",
                    "type": "uint256"
                },
                {
                    "indexed": true,
                    "internalType": "address",
                    "name": "account",
                    "type": "address"
                }
            ],
            "name": "UnstakeOoga",
            "type": "event"
        },
        {
            "inputs": [],
            "name": "ATTACK_CHANCE_DENOM",
            "outputs": [
                {
                    "internalType": "uint256",
                    "name": "",
                    "type": "uint256"
                }
            ],
            "stateMutability": "view",
            "type": "function"
        },
        {
            "inputs": [],
            "name": "CLAIM_TAX_DENOM",
            "outputs": [
                {
                    "internalType": "uint256",
                    "name": "",
                    "type": "uint256"
                }
            ],
            "stateMutability": "view",
            "type": "function"
        },
        {
            "inputs": [
                {
                    "internalType": "bool",
                    "name": "mintSale_",
                    "type": "bool"
                }
            ],
            "name": "_changeMintSale",
            "outputs": [],
            "stateMutability": "nonpayable",
            "type": "function"
        },
        {
            "inputs": [
                {
                    "internalType": "uint256",
                    "name": "mintSaleAmount_",
                    "type": "uint256"
                }
            ],
            "name": "_changeMintSaleAmount",
            "outputs": [],
            "stateMutability": "nonpayable",
            "type": "function"
        },
        {
            "inputs": [
                {
                    "internalType": "uint256",
                    "name": "tokenId",
                    "type": "uint256"
                },
                {
                    "internalType": "uint256",
                    "name": "level",
                    "type": "uint256"
                }
            ],
            "name": "_changeOogaLevel",
            "outputs": [],
            "stateMutability": "nonpayable",
            "type": "function"
        },
        {
            "inputs": [
                {
                    "internalType": "bool",
                    "name": "publicMintStarted_",
                    "type": "bool"
                }
            ],
            "name": "_changePublicMintStarted",
            "outputs": [],
            "stateMutability": "nonpayable",
            "type": "function"
        },
        {
            "inputs": [
                {
                    "internalType": "address",
                    "name": "toAddress",
                    "type": "address"
                },
                {
                    "internalType": "uint256",
                    "name": "amount",
                    "type": "uint256"
                }
            ],
            "name": "_freeBurnOG",
            "outputs": [],
            "stateMutability": "nonpayable",
            "type": "function"
        },
        {
            "inputs": [
                {
                    "internalType": "address",
                    "name": "toAddress",
                    "type": "address"
                }
            ],
            "name": "_freeMintMeka",
            "outputs": [],
            "stateMutability": "nonpayable",
            "type": "function"
        },
        {
            "inputs": [
                {
                    "internalType": "address",
                    "name": "toAddress",
                    "type": "address"
                },
                {
                    "internalType": "uint256",
                    "name": "amount",
                    "type": "uint256"
                }
            ],
            "name": "_freeMintOG",
            "outputs": [],
            "stateMutability": "nonpayable",
            "type": "function"
        },
        {
            "inputs": [
                {
                    "internalType": "address",
                    "name": "toAddress",
                    "type": "address"
                }
            ],
            "name": "_freeMintRobo",
            "outputs": [],
            "stateMutability": "nonpayable",
            "type": "function"
        },
        {
            "inputs": [
                {
                    "components": [
                        {
                            "internalType": "uint256",
                            "name": "mintAllowance",
                            "type": "uint256"
                        },
                        {
                            "internalType": "uint8",
                            "name": "_v",
                            "type": "uint8"
                        },
                        {
                            "internalType": "bytes32",
                            "name": "_r",
                            "type": "bytes32"
                        },
                        {
                            "internalType": "bytes32",
                            "name": "_s",
                            "type": "bytes32"
                        }
                    ],
                    "internalType": "struct MintSignature",
                    "name": "sig",
                    "type": "tuple"
                },
                {
                    "internalType": "address",
                    "name": "acc",
                    "type": "address"
                }
            ],
            "name": "_verifyMintSig",
            "outputs": [
                {
                    "internalType": "bool",
                    "name": "",
                    "type": "bool"
                }
            ],
            "stateMutability": "view",
            "type": "function"
        },
        {
            "inputs": [
                {
                    "internalType": "address",
                    "name": "account",
                    "type": "address"
                },
                {
                    "internalType": "uint256",
                    "name": "mintAllowance",
                    "type": "uint256"
                }
            ],
            "name": "allowedToMint",
            "outputs": [
                {
                    "internalType": "uint256",
                    "name": "",
                    "type": "uint256"
                }
            ],
            "stateMutability": "view",
            "type": "function"
        },
        {
            "inputs": [
                {
                    "internalType": "uint256",
                    "name": "mintOGprice_",
                    "type": "uint256"
                },
                {
                    "internalType": "uint256",
                    "name": "mintOGstakePrice_",
                    "type": "uint256"
                },
                {
                    "internalType": "uint256",
                    "name": "mintDMTstakePrice_",
                    "type": "uint256"
                }
            ],
            "name": "changeMintERC20Price",
            "outputs": [],
            "stateMutability": "nonpayable",
            "type": "function"
        },
        {
            "inputs": [
                {
                    "internalType": "uint256",
                    "name": "mintPrice_",
                    "type": "uint256"
                },
                {
                    "internalType": "uint256",
                    "name": "mintStakePrice_",
                    "type": "uint256"
                }
            ],
            "name": "changeMintPrice",
            "outputs": [],
            "stateMutability": "nonpayable",
            "type": "function"
        },
        {
            "inputs": [
                {
                    "internalType": "bool",
                    "name": "publicMintStarted_",
                    "type": "bool"
                }
            ],
            "name": "changePublicMintStarted",
            "outputs": [],
            "stateMutability": "nonpayable",
            "type": "function"
        },
        {
            "inputs": [
                {
                    "internalType": "uint256",
                    "name": "tokenId",
                    "type": "uint256"
                }
            ],
            "name": "claimAvailableAmount",
            "outputs": [
                {
                    "internalType": "uint256",
                    "name": "",
                    "type": "uint256"
                }
            ],
            "stateMutability": "view",
            "type": "function"
        },
        {
            "inputs": [
                {
                    "internalType": "uint256[]",
                    "name": "tokenIds",
                    "type": "uint256[]"
                }
            ],
            "name": "claimAvailableAmountMultipleTokens",
            "outputs": [
                {
                    "internalType": "uint256[]",
                    "name": "result",
                    "type": "uint256[]"
                }
            ],
            "stateMutability": "view",
            "type": "function"
        },
        {
            "inputs": [
                {
                    "internalType": "uint256[]",
                    "name": "tokenIds",
                    "type": "uint256[]"
                }
            ],
            "name": "claimReward",
            "outputs": [],
            "stateMutability": "nonpayable",
            "type": "function"
        },
        {
            "inputs": [],
            "name": "claimTax",
            "outputs": [
                {
                    "internalType": "uint256",
                    "name": "",
                    "type": "uint256"
                }
            ],
            "stateMutability": "view",
            "type": "function"
        },
        {
            "inputs": [],
            "name": "dmtMintAttackChance",
            "outputs": [
                {
                    "internalType": "uint256",
                    "name": "",
                    "type": "uint256"
                }
            ],
            "stateMutability": "view",
            "type": "function"
        },
        {
            "inputs": [],
            "name": "dmtToken",
            "outputs": [
                {
                    "internalType": "contract IDMT_ERC20",
                    "name": "",
                    "type": "address"
                }
            ],
            "stateMutability": "view",
            "type": "function"
        },
        {
            "inputs": [],
            "name": "erc721Contract",
            "outputs": [
                {
                    "internalType": "contract MekaApesERC721",
                    "name": "",
                    "type": "address"
                }
            ],
            "stateMutability": "view",
            "type": "function"
        },
        {
            "inputs": [],
            "name": "ethMintAttackChance",
            "outputs": [
                {
                    "internalType": "uint256",
                    "name": "",
                    "type": "uint256"
                }
            ],
            "stateMutability": "view",
            "type": "function"
        },
        {
            "inputs": [
                {
                    "internalType": "uint256[]",
                    "name": "tokenIds",
                    "type": "uint256[]"
                }
            ],
            "name": "evolveBabyOogas",
            "outputs": [],
            "stateMutability": "nonpayable",
            "type": "function"
        },
        {
            "inputs": [
                {
                    "components": [
                        {
                            "internalType": "contract MekaApesERC721",
                            "name": "erc721Contract_",
                            "type": "address"
                        },
                        {
                            "internalType": "contract RNGOracle",
                            "name": "rngOracle_",
                            "type": "address"
                        },
                        {
                            "internalType": "contract OogearERC20",
                            "name": "ogToken_",
                            "type": "address"
                        },
                        {
                            "internalType": "contract IDMT_ERC20",
                            "name": "dmtToken_",
                            "type": "address"
                        },
                        {
                            "internalType": "contract IERC721",
                            "name": "oogaVerse_",
                            "type": "address"
                        },
                        {
                            "internalType": "address",
                            "name": "mintSigWallet_",
                            "type": "address"
                        },
                        {
                            "internalType": "uint256",
                            "name": "mintPrice_",
                            "type": "uint256"
                        },
                        {
                            "internalType": "uint256",
                            "name": "mintStakePrice_",
                            "type": "uint256"
                        },
                        {
                            "internalType": "uint256",
                            "name": "mintOGprice_",
                            "type": "uint256"
                        },
                        {
                            "internalType": "uint256",
                            "name": "mintOGstakePrice_",
                            "type": "uint256"
                        },
                        {
                            "internalType": "uint256",
                            "name": "mintDMTstakePrice_",
                            "type": "uint256"
                        },
                        {
                            "internalType": "uint256",
                            "name": "roboLevelupPrice_",
                            "type": "uint256"
                        },
                        {
                            "internalType": "uint256[]",
                            "name": "roboOogaRewardPerSec_",
                            "type": "uint256[]"
                        },
                        {
                            "internalType": "uint256[]",
                            "name": "roboOogaMinimalRewardToUnstake_",
                            "type": "uint256[]"
                        },
                        {
                            "internalType": "uint256[]",
                            "name": "roboOogaRewardAttackProbabilities_",
                            "type": "uint256[]"
                        },
                        {
                            "internalType": "uint256[]",
                            "name": "megaLevelProbabilities_",
                            "type": "uint256[]"
                        },
                        {
                            "internalType": "uint256[]",
                            "name": "mekaLevelSharePoints_",
                            "type": "uint256[]"
                        },
                        {
                            "internalType": "uint256[]",
                            "name": "megaTributePoints_",
                            "type": "uint256[]"
                        },
                        {
                            "internalType": "uint256",
                            "name": "claimTax_",
                            "type": "uint256"
                        }
                    ],
                    "internalType": "struct InitParams",
                    "name": "initParams",
                    "type": "tuple"
                }
            ],
            "name": "initialize",
            "outputs": [],
            "stateMutability": "nonpayable",
            "type": "function"
        },
        {
            "inputs": [
                {
                    "internalType": "uint256",
                    "name": "oogaId",
                    "type": "uint256"
                }
            ],
            "name": "isBabyOogaEvolved",
            "outputs": [
                {
                    "internalType": "bool",
                    "name": "",
                    "type": "bool"
                }
            ],
            "stateMutability": "view",
            "type": "function"
        },
        {
            "inputs": [
                {
                    "internalType": "uint256",
                    "name": "tokenId",
                    "type": "uint256"
                }
            ],
            "name": "levelUpRoboOooga",
            "outputs": [],
            "stateMutability": "nonpayable",
            "type": "function"
        },
        {
            "inputs": [],
            "name": "maxMintWithDMT",
            "outputs": [
                {
                    "internalType": "uint256",
                    "name": "",
                    "type": "uint256"
                }
            ],
            "stateMutability": "view",
            "type": "function"
        },
        {
            "inputs": [
                {
                    "internalType": "uint256",
                    "name": "",
                    "type": "uint256"
                }
            ],
            "name": "megaLevelProbabilities",
            "outputs": [
                {
                    "internalType": "uint256",
                    "name": "",
                    "type": "uint256"
                }
            ],
            "stateMutability": "view",
            "type": "function"
        },
        {
            "inputs": [
                {
                    "internalType": "uint256",
                    "name": "",
                    "type": "uint256"
                },
                {
                    "internalType": "uint256",
                    "name": "",
                    "type": "uint256"
                }
            ],
            "name": "megaStaked",
            "outputs": [
                {
                    "internalType": "uint256",
                    "name": "",
                    "type": "uint256"
                }
            ],
            "stateMutability": "view",
            "type": "function"
        },
        {
            "inputs": [
                {
                    "internalType": "uint256",
                    "name": "",
                    "type": "uint256"
                }
            ],
            "name": "megaTributePoints",
            "outputs": [
                {
                    "internalType": "uint256",
                    "name": "",
                    "type": "uint256"
                }
            ],
            "stateMutability": "view",
            "type": "function"
        },
        {
            "inputs": [
                {
                    "internalType": "uint256",
                    "name": "",
                    "type": "uint256"
                }
            ],
            "name": "mekaLevelSharePoints",
            "outputs": [
                {
                    "internalType": "uint256",
                    "name": "",
                    "type": "uint256"
                }
            ],
            "stateMutability": "view",
            "type": "function"
        },
        {
            "inputs": [],
            "name": "mekaTotalPointsStaked",
            "outputs": [
                {
                    "internalType": "uint256",
                    "name": "",
                    "type": "uint256"
                }
            ],
            "stateMutability": "view",
            "type": "function"
        },
        {
            "inputs": [],
            "name": "mekaTotalRewardPerPoint",
            "outputs": [
                {
                    "internalType": "uint256",
                    "name": "",
                    "type": "uint256"
                }
            ],
            "stateMutability": "view",
            "type": "function"
        },
        {
            "inputs": [
                {
                    "internalType": "uint256",
                    "name": "tokenIdSave",
                    "type": "uint256"
                },
                {
                    "internalType": "uint256",
                    "name": "tokenIdBurn",
                    "type": "uint256"
                }
            ],
            "name": "mergeMekaApes",
            "outputs": [],
            "stateMutability": "nonpayable",
            "type": "function"
        },
        {
            "inputs": [
                {
                    "internalType": "uint256",
                    "name": "amount",
                    "type": "uint256"
                },
                {
                    "internalType": "bool",
                    "name": "toStake",
                    "type": "bool"
                },
                {
                    "components": [
                        {
                            "internalType": "uint256",
                            "name": "mintAllowance",
                            "type": "uint256"
                        },
                        {
                            "internalType": "uint8",
                            "name": "_v",
                            "type": "uint8"
                        },
                        {
                            "internalType": "bytes32",
                            "name": "_r",
                            "type": "bytes32"
                        },
                        {
                            "internalType": "bytes32",
                            "name": "_s",
                            "type": "bytes32"
                        }
                    ],
                    "internalType": "struct MintSignature",
                    "name": "sig",
                    "type": "tuple"
                }
            ],
            "name": "mint",
            "outputs": [],
            "stateMutability": "payable",
            "type": "function"
        },
        {
            "inputs": [],
            "name": "mintDMTstakePrice",
            "outputs": [
                {
                    "internalType": "uint256",
                    "name": "",
                    "type": "uint256"
                }
            ],
            "stateMutability": "view",
            "type": "function"
        },
        {
            "inputs": [],
            "name": "mintOGprice",
            "outputs": [
                {
                    "internalType": "uint256",
                    "name": "",
                    "type": "uint256"
                }
            ],
            "stateMutability": "view",
            "type": "function"
        },
        {
            "inputs": [],
            "name": "mintOGstakePrice",
            "outputs": [
                {
                    "internalType": "uint256",
                    "name": "",
                    "type": "uint256"
                }
            ],
            "stateMutability": "view",
            "type": "function"
        },
        {
            "inputs": [],
            "name": "mintPrice",
            "outputs": [
                {
                    "internalType": "uint256",
                    "name": "",
                    "type": "uint256"
                }
            ],
            "stateMutability": "view",
            "type": "function"
        },
        {
            "inputs": [],
            "name": "mintSale",
            "outputs": [
                {
                    "internalType": "bool",
                    "name": "",
                    "type": "bool"
                }
            ],
            "stateMutability": "view",
            "type": "function"
        },
        {
            "inputs": [],
            "name": "mintSaleAmount",
            "outputs": [
                {
                    "internalType": "uint256",
                    "name": "",
                    "type": "uint256"
                }
            ],
            "stateMutability": "view",
            "type": "function"
        },
        {
            "inputs": [],
            "name": "mintSigWallet",
            "outputs": [
                {
                    "internalType": "address",
                    "name": "",
                    "type": "address"
                }
            ],
            "stateMutability": "view",
            "type": "function"
        },
        {
            "inputs": [],
            "name": "mintStakePrice",
            "outputs": [
                {
                    "internalType": "uint256",
                    "name": "",
                    "type": "uint256"
                }
            ],
            "stateMutability": "view",
            "type": "function"
        },
        {
            "inputs": [
                {
                    "internalType": "uint256",
                    "name": "amount",
                    "type": "uint256"
                }
            ],
            "name": "mintWithDMT",
            "outputs": [],
            "stateMutability": "nonpayable",
            "type": "function"
        },
        {
            "inputs": [
                {
                    "internalType": "uint256",
                    "name": "amount",
                    "type": "uint256"
                },
                {
                    "internalType": "bool",
                    "name": "toStake",
                    "type": "bool"
                }
            ],
            "name": "mintWithOG",
            "outputs": [],
            "stateMutability": "nonpayable",
            "type": "function"
        },
        {
            "inputs": [],
            "name": "nextTokenId",
            "outputs": [
                {
                    "internalType": "uint256",
                    "name": "",
                    "type": "uint256"
                }
            ],
            "stateMutability": "view",
            "type": "function"
        },
        {
            "inputs": [
                {
                    "internalType": "address",
                    "name": "",
                    "type": "address"
                }
            ],
            "name": "numberOfMintedOogas",
            "outputs": [
                {
                    "internalType": "uint256",
                    "name": "",
                    "type": "uint256"
                }
            ],
            "stateMutability": "view",
            "type": "function"
        },
        {
            "inputs": [],
            "name": "ogMintAttackChance",
            "outputs": [
                {
                    "internalType": "uint256",
                    "name": "",
                    "type": "uint256"
                }
            ],
            "stateMutability": "view",
            "type": "function"
        },
        {
            "inputs": [],
            "name": "ogToken",
            "outputs": [
                {
                    "internalType": "contract OogearERC20",
                    "name": "",
                    "type": "address"
                }
            ],
            "stateMutability": "view",
            "type": "function"
        },
        {
            "inputs": [
                {
                    "internalType": "uint256",
                    "name": "",
                    "type": "uint256"
                }
            ],
            "name": "oogaAttributes",
            "outputs": [
                {
                    "internalType": "enum OogaType",
                    "name": "oogaType",
                    "type": "uint8"
                },
                {
                    "internalType": "uint256",
                    "name": "level",
                    "type": "uint256"
                },
                {
                    "internalType": "bool",
                    "name": "staked",
                    "type": "bool"
                },
                {
                    "internalType": "address",
                    "name": "stakedOwner",
                    "type": "address"
                },
                {
                    "internalType": "uint256",
                    "name": "lastClaimTimestamp",
                    "type": "uint256"
                },
                {
                    "internalType": "uint256",
                    "name": "savedReward",
                    "type": "uint256"
                },
                {
                    "internalType": "uint256",
                    "name": "lastRewardPerPoint",
                    "type": "uint256"
                },
                {
                    "internalType": "uint256",
                    "name": "stakedMegaIndex",
                    "type": "uint256"
                }
            ],
            "stateMutability": "view",
            "type": "function"
        },
        {
            "inputs": [
                {
                    "internalType": "uint256",
                    "name": "",
                    "type": "uint256"
                }
            ],
            "name": "oogaEvolved",
            "outputs": [
                {
                    "internalType": "bool",
                    "name": "",
                    "type": "bool"
                }
            ],
            "stateMutability": "view",
            "type": "function"
        },
        {
            "inputs": [],
            "name": "oogaVerse",
            "outputs": [
                {
                    "internalType": "contract IERC721",
                    "name": "",
                    "type": "address"
                }
            ],
            "stateMutability": "view",
            "type": "function"
        },
        {
            "inputs": [],
            "name": "owner",
            "outputs": [
                {
                    "internalType": "address",
                    "name": "",
                    "type": "address"
                }
            ],
            "stateMutability": "view",
            "type": "function"
        },
        {
            "inputs": [],
            "name": "randomMekaProbability",
            "outputs": [
                {
                    "internalType": "uint256",
                    "name": "",
                    "type": "uint256"
                }
            ],
            "stateMutability": "view",
            "type": "function"
        },
        {
            "inputs": [],
            "name": "renounceOwnership",
            "outputs": [],
            "stateMutability": "nonpayable",
            "type": "function"
        },
        {
            "inputs": [],
            "name": "rngOracle",
            "outputs": [
                {
                    "internalType": "contract RNGOracle",
                    "name": "",
                    "type": "address"
                }
            ],
            "stateMutability": "view",
            "type": "function"
        },
        {
            "inputs": [],
            "name": "roboLevelupPrice",
            "outputs": [
                {
                    "internalType": "uint256",
                    "name": "",
                    "type": "uint256"
                }
            ],
            "stateMutability": "view",
            "type": "function"
        },
        {
            "inputs": [
                {
                    "internalType": "uint256",
                    "name": "",
                    "type": "uint256"
                }
            ],
            "name": "roboOogaMinimalRewardToUnstake",
            "outputs": [
                {
                    "internalType": "uint256",
                    "name": "",
                    "type": "uint256"
                }
            ],
            "stateMutability": "view",
            "type": "function"
        },
        {
            "inputs": [
                {
                    "internalType": "uint256",
                    "name": "",
                    "type": "uint256"
                }
            ],
            "name": "roboOogaRewardAttackProbabilities",
            "outputs": [
                {
                    "internalType": "uint256",
                    "name": "",
                    "type": "uint256"
                }
            ],
            "stateMutability": "view",
            "type": "function"
        },
        {
            "inputs": [
                {
                    "internalType": "uint256",
                    "name": "",
                    "type": "uint256"
                }
            ],
            "name": "roboOogaRewardPerSec",
            "outputs": [
                {
                    "internalType": "uint256",
                    "name": "",
                    "type": "uint256"
                }
            ],
            "stateMutability": "view",
            "type": "function"
        },
        {
            "inputs": [
                {
                    "internalType": "uint256[]",
                    "name": "tokenIds",
                    "type": "uint256[]"
                }
            ],
            "name": "stake",
            "outputs": [],
            "stateMutability": "nonpayable",
            "type": "function"
        },
        {
            "inputs": [],
            "name": "tokensMintedWithDMT",
            "outputs": [
                {
                    "internalType": "uint256",
                    "name": "",
                    "type": "uint256"
                }
            ],
            "stateMutability": "view",
            "type": "function"
        },
        {
            "inputs": [],
            "name": "totalMintedTokens",
            "outputs": [
                {
                    "internalType": "uint256",
                    "name": "",
                    "type": "uint256"
                }
            ],
            "stateMutability": "view",
            "type": "function"
        },
        {
            "inputs": [
                {
                    "internalType": "address",
                    "name": "newOwner",
                    "type": "address"
                }
            ],
            "name": "transferOwnership",
            "outputs": [],
            "stateMutability": "nonpayable",
            "type": "function"
        },
        {
            "inputs": [
                {
                    "internalType": "uint256[]",
                    "name": "tokenIds",
                    "type": "uint256[]"
                }
            ],
            "name": "unstake",
            "outputs": [],
            "stateMutability": "nonpayable",
            "type": "function"
        }
    ],
    "bytecode": "0x608060405234801561001057600080fd5b506145db806100206000396000f3fe6080604052600436106103f95760003560e01c806375794a3c1161020d578063c37a576111610128578063e6b4d60b116100bb578063ed3940791161008a578063f38972ed1161006f578063f38972ed14610bff578063febeb13214610c1f578063ff75eece14610c3557600080fd5b8063ed39407914610bbf578063f2fde38b14610bdf57600080fd5b8063e6b4d60b14610b4f578063e6f0ba6114610b65578063e9a16bdb14610b85578063ecb24fb514610b9f57600080fd5b8063cb8b61ca116100f7578063cb8b61ca14610acc578063d7c97fb414610ae2578063dd2f6d4b14610b02578063e449f34114610b2f57600080fd5b8063c37a576114610a2c578063c94c7ff414610a5c578063ca62ea3714610a7c578063cabf161414610aac57600080fd5b80639c507b8b116101a0578063b56c61051161016f578063b56c6105146109c0578063b5e62301146109d6578063b69b2a65146109f6578063c06fda8e14610a1657600080fd5b80639c507b8b146109545780639e15827614610974578063a4acf0511461098a578063ab2a4058146109aa57600080fd5b80638da5cb5b116101dc5780638da5cb5b146108d45780638e32e316146108f2578063909e376d1461090757806397881c2f1461092757600080fd5b806375794a3c1461084e5780637bf1b562146108645780637e5ae4b71461088457806386e7f030146108b457600080fd5b806340070459116103185780636853709a116102ab5780636fddcb461161027a57806370a96f331161025f57806370a96f33146107eb578063715018a614610819578063729a90c81461082e57600080fd5b80636fddcb46146107ab57806370342d0c146107cb57600080fd5b80636853709a146106ca5780636a0206b2146106f85780636b906d55146107185780636bff95061461072e57600080fd5b80635123455f116102e75780635123455f146106755780635e71cc7c146106885780636415e1831461069e5780636817c76c146106b457600080fd5b806340070459146105ef578063448883d71461060f578063489da8ff1461062557806350e3ec881461064557600080fd5b806317522d9f11610390578063257822101161035f578063257822101461058d5780633586dd9a146105a357806338e692af146105b95780633bf27cf1146105cf57600080fd5b806317522d9f146104f557806319de52211461052d5780631a4803711461054d578063213edf361461056d57600080fd5b80630ee9a59b116103cc5780630ee9a59b1461047f5780630fbf0a931461049f578063113bf887146104bf57806312f30bde146104d557600080fd5b806301719327146103fe5780630181de421461042757806308a1c3911461043d5780630a1b494d1461045d575b600080fd5b34801561040a57600080fd5b50610414607c5481565b6040519081526020015b60405180910390f35b34801561043357600080fd5b5061041460825481565b34801561044957600080fd5b5061041461045836600461423d565b610c55565b34801561046957600080fd5b5061047d61047836600461426d565b610c76565b005b34801561048b57600080fd5b5061041461049a36600461423d565b610dc5565b3480156104ab57600080fd5b5061047d6104ba366004614125565b610dd5565b3480156104cb57600080fd5b5061041460755481565b3480156104e157600080fd5b5061047d6104f0366004614195565b610f20565b34801561050157600080fd5b50606654610515906001600160a01b031681565b6040516001600160a01b03909116815260200161041e565b34801561053957600080fd5b506104146105483660046142cf565b610f7a565b34801561055957600080fd5b5061047d6105683660046140fa565b610fae565b34801561057957600080fd5b5061047d61058836600461423d565b611032565b34801561059957600080fd5b5061041460785481565b3480156105af57600080fd5b5061041460705481565b3480156105c557600080fd5b5061041460815481565b3480156105db57600080fd5b50606854610515906001600160a01b031681565b3480156105fb57600080fd5b5061047d61060a3660046142f0565b611341565b34801561061b57600080fd5b5061041460745481565b34801561063157600080fd5b5061041461064036600461423d565b6113a9565b34801561065157600080fd5b50610665610660366004614206565b6113b9565b604051901515815260200161041e565b61047d610683366004614291565b6114ed565b34801561069457600080fd5b50610414608c5481565b3480156106aa57600080fd5b50610414606d5481565b3480156106c057600080fd5b50610414606b5481565b3480156106d657600080fd5b5061047d6106e5366004614195565b608a805460ff1916911515919091179055565b34801561070457600080fd5b5061047d6107133660046141cd565b611715565b34801561072457600080fd5b50610414606f5481565b34801561073a57600080fd5b5061079761074936600461423d565b608760205260009081526040902080546001820154600283015460038401546004850154600586015460069096015460ff9586169694958416946101009094046001600160a01b0316939088565b60405161041e98979695949392919061435f565b3480156107b757600080fd5b5061047d6107c63660046140c2565b611b0f565b3480156107d757600080fd5b5061047d6107e63660046142cf565b611b18565b3480156107f757600080fd5b5061047d610806366004614195565b608d805460ff1916911515919091179055565b34801561082557600080fd5b5061047d611b7d565b34801561083a57600080fd5b5061041461084936600461423d565b611be3565b34801561085a57600080fd5b5061041460765481565b34801561087057600080fd5b5061041461087f36600461423d565b611bf3565b34801561089057600080fd5b5061066561089f36600461423d565b60009081526088602052604090205460ff1690565b3480156108c057600080fd5b5061047d6108cf36600461423d565b608c55565b3480156108e057600080fd5b506033546001600160a01b0316610515565b3480156108fe57600080fd5b50610414611c03565b34801561091357600080fd5b50606954610515906001600160a01b031681565b34801561093357600080fd5b50610947610942366004614125565b611c1b565b60405161041e919061431b565b34801561096057600080fd5b5061047d61096f3660046140c2565b611cee565b34801561098057600080fd5b50610414607d5481565b34801561099657600080fd5b5061047d6109a536600461423d565b611cf7565b3480156109b657600080fd5b50610414606c5481565b3480156109cc57600080fd5b50610414607a5481565b3480156109e257600080fd5b506104146109f136600461423d565b611e89565b348015610a0257600080fd5b50606754610515906001600160a01b031681565b348015610a2257600080fd5b50610414607b5481565b348015610a3857600080fd5b50610665610a4736600461423d565b60886020526000908152604090205460ff1681565b348015610a6857600080fd5b5061047d610a77366004614125565b61202d565b348015610a8857600080fd5b5061047d610a973660046142cf565b60009182526087602052604090912060010155565b348015610ab857600080fd5b50610414610ac73660046140fa565b612039565b348015610ad857600080fd5b50610414606e5481565b348015610aee57600080fd5b50606554610515906001600160a01b031681565b348015610b0e57600080fd5b50610414610b1d3660046140c2565b608b6020526000908152604090205481565b348015610b3b57600080fd5b5061047d610b4a366004614125565b61207b565b348015610b5b57600080fd5b5061041460795481565b348015610b7157600080fd5b50606a54610515906001600160a01b031681565b348015610b9157600080fd5b50608d546106659060ff1681565b348015610bab57600080fd5b5061047d610bba3660046142cf565b6121c6565b348015610bcb57600080fd5b5061047d610bda366004614125565b6125de565b348015610beb57600080fd5b5061047d610bfa3660046140c2565b61267d565b348015610c0b57600080fd5b5061047d610c1a3660046140fa565b61275f565b348015610c2b57600080fd5b5061041460775481565b348015610c4157600080fd5b50610414610c5036600461423d565b6127b1565b60738181548110610c6557600080fd5b600091825260209091200154905081565b608e5482610c82611c03565b610c8c91906144a7565b1115610cdf5760405162461bcd60e51b815260206004820152600360248201527f453331000000000000000000000000000000000000000000000000000000000060448201526064015b60405180910390fd5b60008115610cf05750606e54610cf5565b50606d545b6067546001600160a01b03166323b872dd3330610d1287866144df565b6040517fffffffff0000000000000000000000000000000000000000000000000000000060e086901b1681526001600160a01b0393841660048201529290911660248301526044820152606401602060405180830381600087803b158015610d7957600080fd5b505af1158015610d8d573d6000803e3d6000fd5b505050506040513d601f19601f82011682018060405250810190610db191906141b1565b50610dc0338484607b546127c1565b505050565b607e8181548110610c6557600080fd5b60005b81811015610dc05760655433906001600160a01b0316636352211e858585818110610e1357634e487b7160e01b600052603260045260246000fd5b905060200201356040518263ffffffff1660e01b8152600401610e3891815260200190565b60206040518083038186803b158015610e5057600080fd5b505afa158015610e64573d6000803e3d6000fd5b505050506040513d601f19601f82011682018060405250810190610e8891906140de565b6001600160a01b031614610ede5760405162461bcd60e51b815260206004820152600360248201527f45343100000000000000000000000000000000000000000000000000000000006044820152606401610cd6565b610f0e838383818110610f0157634e487b7160e01b600052603260045260246000fd5b905060200201353361296c565b80610f1881614533565b915050610dd8565b6033546001600160a01b031633146106e55760405162461bcd60e51b815260206004820181905260248201527f4f776e61626c653a2063616c6c6572206973206e6f7420746865206f776e65726044820152606401610cd6565b60838260048110610f8a57600080fd5b018181548110610f9957600080fd5b90600052602060002001600091509150505481565b6067546040517f40c10f190000000000000000000000000000000000000000000000000000000081526001600160a01b03848116600483015260248201849052909116906340c10f19906044015b600060405180830381600087803b15801561101657600080fd5b505af115801561102a573d6000803e3d6000fd5b505050505050565b608d5460ff16156110855760405162461bcd60e51b815260206004820152600360248201527f45303100000000000000000000000000000000000000000000000000000000006044820152606401610cd6565b6000818152608760205260409081902060655491517f6352211e00000000000000000000000000000000000000000000000000000000815260048101849052909133916001600160a01b0390911690636352211e9060240160206040518083038186803b1580156110f557600080fd5b505afa158015611109573d6000803e3d6000fd5b505050506040513d601f19601f8201168201806040525081019061112d91906140de565b6001600160a01b031614806111535750600281015461010090046001600160a01b031633145b61119f5760405162461bcd60e51b815260206004820152600360248201527f45373200000000000000000000000000000000000000000000000000000000006044820152606401610cd6565b6000815460ff1660018111156111c557634e487b7160e01b600052602160045260246000fd5b1480156111d6575060038160010154105b6112225760405162461bcd60e51b815260206004820152600360248201527f45373100000000000000000000000000000000000000000000000000000000006044820152606401610cd6565b600281015460ff16156112575761123882611e89565b81600401600082825461124b91906144a7565b90915550504260038201555b6068546070546040517f23b872dd00000000000000000000000000000000000000000000000000000000815233600482015230602482015260448101919091526001600160a01b03909116906323b872dd90606401600060405180830381600087803b1580156112c657600080fd5b505af11580156112da573d6000803e3d6000fd5b505050600182018054915060006112f083614533565b919050555081336001600160a01b03167f2ef0b9f6641bfe4ae9f94f2b9b20ece8b29e13b163e6425c14ff8f520e79412e836001015460405161133591815260200190565b60405180910390a35050565b6033546001600160a01b0316331461139b5760405162461bcd60e51b815260206004820181905260248201527f4f776e61626c653a2063616c6c6572206973206e6f7420746865206f776e65726044820152606401610cd6565b606d92909255606e55606f55565b60728181548110610c6557600080fd5b8151604080516001600160a01b0384166020808301919091528183019390935281518082038301815260608201909252815191909201207f19457468657265756d205369676e6564204d6573736167653a0a3332000000006080830152609c8201819052600091829060bc01604051602081830303815290604052805190602001209050600060018287602001518860400151896060015160405160008152602001604052604051611487949392919093845260ff9290921660208401526040830152606082015260800190565b6020604051602081039080840390855afa1580156114a9573d6000803e3d6000fd5b50506040517fffffffffffffffffffffffffffffffffffffffffffffffffffffffffffffffe00151606a546001600160a01b03908116911614979650505050505050565b608d5460ff1661153f5760405162461bcd60e51b815260206004820152600360248201527f45303000000000000000000000000000000000000000000000000000000000006044820152606401610cd6565b608c548361154b611c03565b61155591906144a7565b111561157d57611563611c03565b608c54611570919061451c565b608d805460ff1916905592505b8051156115da5761158e81336113b9565b6115da5760405162461bcd60e51b815260206004820152600360248201527f45323000000000000000000000000000000000000000000000000000000000006044820152606401610cd6565b608a5460009060ff166115ee5760006115f2565b6089545b82516115fe91906144a7565b336000908152608b6020526040902054909150819061161e9086906144a7565b111561166c5760405162461bcd60e51b815260206004820152600360248201527f45323100000000000000000000000000000000000000000000000000000000006044820152606401610cd6565b336000908152608b60205260408120805486929061168b9084906144a7565b909155506000905083156116a25750606c546116a7565b50606b545b6116b181866144df565b3410156117005760405162461bcd60e51b815260206004820152600360248201527f45323200000000000000000000000000000000000000000000000000000000006044820152606401610cd6565b61170e3386866079546127c1565b5050505050565b600054610100900460ff166117305760005460ff1615611734565b303b155b6117a65760405162461bcd60e51b815260206004820152602e60248201527f496e697469616c697a61626c653a20636f6e747261637420697320616c72656160448201527f647920696e697469616c697a65640000000000000000000000000000000000006064820152608401610cd6565b600054610100900460ff161580156117e557600080547fffffffffffffffffffffffffffffffffffffffffffffffffffffffffffff0000166101011790555b6117ed612b77565b6117fa60208301836140c2565b606580547fffffffffffffffffffffffff0000000000000000000000000000000000000000166001600160a01b039290921691909117905561184260408301602084016140c2565b606680547fffffffffffffffffffffffff0000000000000000000000000000000000000000166001600160a01b039290921691909117905561188a60608301604084016140c2565b606780547fffffffffffffffffffffffff0000000000000000000000000000000000000000166001600160a01b03929092169190911790556118d260808301606084016140c2565b606880547fffffffffffffffffffffffff0000000000000000000000000000000000000000166001600160a01b039290921691909117905561191a60a08301608084016140c2565b606980547fffffffffffffffffffffffff0000000000000000000000000000000000000000166001600160a01b039290921691909117905561196260c0830160a084016140c2565b606a80547fffffffffffffffffffffffff0000000000000000000000000000000000000000166001600160a01b0392909216919091179055620f4241607655600060778190556127106078819055608c5561d6d8608e5560798190556005607a55600a607b8190556064607c55607d55608d805460ff199081166001179091556003608955608a805490911690556081819055608255611a066101e083018361443a565b611a1291607e91613fe2565b50611a2161020083018361443a565b611a2d91607f91613fe2565b50611a3c61022083018361443a565b611a4891608091613fe2565b5060c0820135606b5560e0820135606c55610100820135606d55610120820135606e55610140820135606f55610160820135607055611a8b61018083018361443a565b611a9791607191613fe2565b50611aa66101a083018361443a565b611ab291607291613fe2565b50611ac16101c083018361443a565b611acd91607391613fe2565b5061024082013560745560646075558015611b0b57600080547fffffffffffffffffffffffffffffffffffffffffffffffffffffffffffff00ff1690555b5050565b611b0b81612c04565b6033546001600160a01b03163314611b725760405162461bcd60e51b815260206004820181905260248201527f4f776e61626c653a2063616c6c6572206973206e6f7420746865206f776e65726044820152606401610cd6565b606b91909155606c55565b6033546001600160a01b03163314611bd75760405162461bcd60e51b815260206004820181905260248201527f4f776e61626c653a2063616c6c6572206973206e6f7420746865206f776e65726044820152606401610cd6565b611be16000612c9e565b565b607f8181548110610c6557600080fd5b60808181548110610c6557600080fd5b6000620f4241607654611c16919061451c565b905090565b60608167ffffffffffffffff811115611c4457634e487b7160e01b600052604160045260246000fd5b604051908082528060200260200182016040528015611c6d578160200160208202803683370190505b50905060005b82811015611ce757611caa848483818110611c9e57634e487b7160e01b600052603260045260246000fd5b90506020020135611e89565b828281518110611cca57634e487b7160e01b600052603260045260246000fd5b602090810291909101015280611cdf81614533565b915050611c73565b5092915050565b611b0b81612d08565b608e5481611d03611c03565b611d0d91906144a7565b1115611d5b5760405162461bcd60e51b815260206004820152600360248201527f45333200000000000000000000000000000000000000000000000000000000006044820152606401610cd6565b60785481607754611d6c91906144a7565b1115611dba5760405162461bcd60e51b815260206004820152600360248201527f45353100000000000000000000000000000000000000000000000000000000006044820152606401610cd6565b606854606f546001600160a01b03909116906323b872dd9033903090611de19086906144df565b6040517fffffffff0000000000000000000000000000000000000000000000000000000060e086901b1681526001600160a01b0393841660048201529290911660248301526044820152606401600060405180830381600087803b158015611e4857600080fd5b505af1158015611e5c573d6000803e3d6000fd5b50505050611e6f33826001607a546127c1565b8060776000828254611e8191906144a7565b909155505050565b60008181526087602052604080822081516101008101909252805483929190829060ff166001811115611ecc57634e487b7160e01b600052602160045260246000fd5b6001811115611eeb57634e487b7160e01b600052602160045260246000fd5b815260018201546020820152600282015460ff81161515604083015261010090046001600160a01b0316606082015260038201546080820152600482015460a0820152600582015460c082015260069091015460e0909101529050600081516001811115611f6957634e487b7160e01b600052602160045260246000fd5b1415611fe1576071816020015181548110611f9457634e487b7160e01b600052603260045260246000fd5b9060005260206000200154608760008581526020019081526020016000206003015442611fc1919061451c565b611fcb91906144df565b8160a00151611fda91906144a7565b9392505050565b607f81602001518154811061200657634e487b7160e01b600052603260045260246000fd5b90600052602060002001548160c00151608154612023919061451c565b611fda91906144df565b611b0b82826000612d2a565b6001600160a01b0382166000908152608b6020526040812054608a5460ff16612063576000612067565b6089545b61207190846144a7565b611fda919061451c565b61208782826001612d2a565b60005b81811015610dc057608760008484848181106120b657634e487b7160e01b600052603260045260246000fd5b602090810292909201358352508101919091526040016000206002015460ff1680156121395750336087600085858581811061210257634e487b7160e01b600052603260045260246000fd5b90506020020135815260200190815260200160002060020160019054906101000a90046001600160a01b03166001600160a01b0316145b6121855760405162461bcd60e51b815260206004820152600360248201527f45343200000000000000000000000000000000000000000000000000000000006044820152606401610cd6565b6121b48383838181106121a857634e487b7160e01b600052603260045260246000fd5b9050602002013561321b565b806121be81614533565b91505061208a565b608d5460ff16156122195760405162461bcd60e51b815260206004820152600360248201527f45303100000000000000000000000000000000000000000000000000000000006044820152606401610cd6565b808214156122695760405162461bcd60e51b815260206004820152600360248201527f45383100000000000000000000000000000000000000000000000000000000006044820152606401610cd6565b6065546040517f6352211e0000000000000000000000000000000000000000000000000000000081526004810184905233916001600160a01b031690636352211e9060240160206040518083038186803b1580156122c657600080fd5b505afa1580156122da573d6000803e3d6000fd5b505050506040513d601f19601f820116820180604052508101906122fe91906140de565b6001600160a01b03161480156123af57506065546040517f6352211e0000000000000000000000000000000000000000000000000000000081526004810183905233916001600160a01b031690636352211e9060240160206040518083038186803b15801561236c57600080fd5b505afa158015612380573d6000803e3d6000fd5b505050506040513d601f19601f820116820180604052508101906123a491906140de565b6001600160a01b0316145b6123fb5760405162461bcd60e51b815260206004820152600360248201527f45383200000000000000000000000000000000000000000000000000000000006044820152606401610cd6565b60008281526087602052604080822083835291206001825460ff16600181111561243557634e487b7160e01b600052602160045260246000fd5b14801561246557506001815460ff16600181111561246357634e487b7160e01b600052602160045260246000fd5b145b6124b15760405162461bcd60e51b815260206004820152600360248201527f45383300000000000000000000000000000000000000000000000000000000006044820152606401610cd6565b60018201541580156124c557506001810154155b6125115760405162461bcd60e51b815260206004820152600360248201527f45383400000000000000000000000000000000000000000000000000000000006044820152606401610cd6565b612519613514565b60018301556065546040517f42966c68000000000000000000000000000000000000000000000000000000008152600481018590526001600160a01b03909116906342966c6890602401600060405180830381600087803b15801561257d57600080fd5b505af1158015612591573d6000803e3d6000fd5b505050600183015460408051878152602081019290925285925033917fa52b122853769966325e268b87626455fe921b1f137288cd6e1ed928135319eb910160405180910390a350505050565b608d5460ff16156126315760405162461bcd60e51b815260206004820152600360248201527f45303100000000000000000000000000000000000000000000000000000000006044820152606401610cd6565b60005b81811015610dc05761266b83838381811061265f57634e487b7160e01b600052603260045260246000fd5b90506020020135613630565b8061267581614533565b915050612634565b6033546001600160a01b031633146126d75760405162461bcd60e51b815260206004820181905260248201527f4f776e61626c653a2063616c6c6572206973206e6f7420746865206f776e65726044820152606401610cd6565b6001600160a01b0381166127535760405162461bcd60e51b815260206004820152602660248201527f4f776e61626c653a206e6577206f776e657220697320746865207a65726f206160448201527f64647265737300000000000000000000000000000000000000000000000000006064820152608401610cd6565b61275c81612c9e565b50565b6067546040517f9dc29fac0000000000000000000000000000000000000000000000000000000081526001600160a01b0384811660048301526024820184905290911690639dc29fac90604401610ffc565b60718181548110610c6557600080fd5b60005b8381101561170e57607d546066546040517fcd4b691400000000000000000000000000000000000000000000000000000000815260646004820152600092916001600160a01b03169063cd4b691490602401602060405180830381600087803b15801561283057600080fd5b505af1158015612844573d6000803e3d6000fd5b505050506040513d601f19601f820116820180604052508101906128689190614255565b109050600081156128835761287c87612c04565b905061288f565b61288c87612d08565b90505b60008411801561293357506066546040517fcd4b69140000000000000000000000000000000000000000000000000000000081526064600482015285916001600160a01b03169063cd4b691490602401602060405180830381600087803b1580156128f957600080fd5b505af115801561290d573d6000803e3d6000fd5b505050506040513d601f19601f820116820180604052508101906129319190614255565b105b15612947576129428188613825565b612957565b841561295757612957818861296c565b5050808061296490614533565b9150506127c4565b6000828152608760205260409081902060655491517f23b872dd0000000000000000000000000000000000000000000000000000000081526001600160a01b03848116600483015230602483015260448201869052919291909116906323b872dd90606401600060405180830381600087803b1580156129eb57600080fd5b505af11580156129ff573d6000803e3d6000fd5b5050505060028101805460017fffffffffffffffffffffff0000000000000000000000000000000000000000009091166101006001600160a01b0386160217811790915542600383015560006004830155815460ff166001811115612a7457634e487b7160e01b600052602160045260246000fd5b1415612b3c57607f816001015481548110612a9f57634e487b7160e01b600052603260045260246000fd5b906000526020600020015460826000828254612abb91906144a7565b90915550506081546005820155600181015415612b3c576083816001015460048110612af757634e487b7160e01b600052603260045260246000fd5b01546006820155600181015460839060048110612b2457634e487b7160e01b600052603260045260246000fd5b01805460018101825560009182526020909120018390555b6040516001600160a01b0383169084907f5b53344e2b3d15f33a2ab59e3c199c7bbcb08f5ce03bf0a25c14f978647299a790600090a3505050565b600054610100900460ff16612bf45760405162461bcd60e51b815260206004820152602b60248201527f496e697469616c697a61626c653a20636f6e7472616374206973206e6f74206960448201527f6e697469616c697a696e670000000000000000000000000000000000000000006064820152608401610cd6565b612bfc613930565b611be16139ad565b6000806076549050612c818382604051806101000160405280600180811115612c3d57634e487b7160e01b600052602160045260246000fd5b81526020016000815260200160001515815260200160006001600160a01b031681526020016000815260200160008152602001600081526020016000815250613a33565b5060768054906000612c9283614533565b90915550909392505050565b603380546001600160a01b038381167fffffffffffffffffffffffff0000000000000000000000000000000000000000831681179093556040519116919082907f8be0079c531659141344cd1fd0a4f28419497f9722a3daafe3b4186f6b6457e090600090a35050565b60765460408051610100810190915260009190612c8190849083908086612c3d565b60008060005b8481101561315a57600060876000888885818110612d5e57634e487b7160e01b600052603260045260246000fd5b60209081029290920135835250810191909152604001600020600281015490915060ff1615156001148015612da45750600281015461010090046001600160a01b031633145b612df05760405162461bcd60e51b815260206004820152600360248201527f45393100000000000000000000000000000000000000000000000000000000006044820152606401610cd6565b6000612e15888885818110611c9e57634e487b7160e01b600052603260045260246000fd5b90506000825460ff166001811115612e3d57634e487b7160e01b600052602160045260246000fd5b14156130ba5760008615612f96576072836001015481548110612e7057634e487b7160e01b600052603260045260246000fd5b9060005260206000200154821015612eca5760405162461bcd60e51b815260206004820152600360248201527f45393200000000000000000000000000000000000000000000000000000000006044820152606401610cd6565b6073836001015481548110612eef57634e487b7160e01b600052603260045260246000fd5b6000918252602090912001546066546040517fcd4b6914000000000000000000000000000000000000000000000000000000008152606460048201526001600160a01b039091169063cd4b691490602401602060405180830381600087803b158015612f5a57600080fd5b505af1158015612f6e573d6000803e3d6000fd5b505050506040513d601f19601f82011682018060405250810190612f929190614255565b1090505b801561300a57612fa582613c06565b888885818110612fc557634e487b7160e01b600052603260045260246000fd5b905060200201357f726c288861959eddbddaef4fb090f1e0eaae7d917f9c43a68504e4bc42b2f71983604051612ffd91815260200190565b60405180910390a26130b4565b60006075546074548461301d91906144df565b61302791906144bf565b9050613033818461451c565b61303d90886144a7565b965061304981876144a7565b955089898681811061306b57634e487b7160e01b600052603260045260246000fd5b60200291909101359050337fe74e5c9d4ac1fc33412485f18c159a0a391efe287ab3fd271123f30e6bacf4e36130a1848761451c565b60405190815260200160405180910390a3505b50613139565b6130c481866144a7565b608154600584015594508787848181106130ee57634e487b7160e01b600052603260045260246000fd5b90506020020135336001600160a01b03167fe74e5c9d4ac1fc33412485f18c159a0a391efe287ab3fd271123f30e6bacf4e38360405161313091815260200190565b60405180910390a35b5042600382015560006004909101558061315281614533565b915050612d30565b5061316481613c06565b6040518181527f0693f2d9c6761dccc13ecb93b9216162e46eadef5549bbbc3b90950b348bf9d49060200160405180910390a16067546040517f40c10f19000000000000000000000000000000000000000000000000000000008152336004820152602481018490526001600160a01b03909116906340c10f1990604401600060405180830381600087803b1580156131fc57600080fd5b505af1158015613210573d6000803e3d6000fd5b505050505050505050565b60008181526087602052604090819020600281015460655492517f23b872dd0000000000000000000000000000000000000000000000000000000081523060048201526101009091046001600160a01b039081166024830181905260448301869052929316906323b872dd90606401600060405180830381600087803b1580156132a457600080fd5b505af11580156132b8573d6000803e3d6000fd5b5050506002830180547fffffffffffffffffffffff000000000000000000000000000000000000000000169055506001825460ff16600181111561330c57634e487b7160e01b600052602160045260246000fd5b14156134d257607f82600101548154811061333757634e487b7160e01b600052603260045260246000fd5b906000526020600020015460826000828254613353919061451c565b90915550506001820154156134d2576000608383600101546004811061338957634e487b7160e01b600052603260045260246000fd5b01600160838560010154600481106133b157634e487b7160e01b600052603260045260246000fd5b01546133bd919061451c565b815481106133db57634e487b7160e01b600052603260045260246000fd5b9060005260206000200154905080608384600101546004811061340e57634e487b7160e01b600052603260045260246000fd5b0184600601548154811061343257634e487b7160e01b600052603260045260246000fd5b9060005260206000200181905550608383600101546004811061346557634e487b7160e01b600052603260045260246000fd5b0180548061348357634e487b7160e01b600052603160045260246000fd5b6000828152602080822083017fffffffffffffffffffffffffffffffffffffffffffffffffffffffffffffffff9081018390559092019092556006808601549383526087909152604090912001555b6000600683018190556040516001600160a01b0383169185917f3a01954f64bfeed1c903bc3920f7a5639288ea25efc7a539195648519e4184a39190a3505050565b6066546040517fcd4b69140000000000000000000000000000000000000000000000000000000081526064600482015260009182916001600160a01b039091169063cd4b691490602401602060405180830381600087803b15801561357857600080fd5b505af115801561358c573d6000803e3d6000fd5b505050506040513d601f19601f820116820180604052508101906135b09190614255565b90506000805b607e5481101561362657607e81815481106135e157634e487b7160e01b600052603260045260246000fd5b9060005260206000200154826135f791906144a7565b9150818310156136145761360c8160016144a7565b935050505090565b8061361e81614533565b9150506135b6565b5060009250505090565b621e8c518110156136835760405162461bcd60e51b815260206004820152600360248201527f45313100000000000000000000000000000000000000000000000000000000006044820152606401610cd6565b60008181526088602052604090205460ff16156136e25760405162461bcd60e51b815260206004820152600360248201527f45313200000000000000000000000000000000000000000000000000000000006044820152606401610cd6565b6069546040517f6352211e0000000000000000000000000000000000000000000000000000000081526004810183905233916001600160a01b031690636352211e9060240160206040518083038186803b15801561373f57600080fd5b505afa158015613753573d6000803e3d6000fd5b505050506040513d601f19601f8201168201806040525081019061377791906140de565b6001600160a01b0316146137cd5760405162461bcd60e51b815260206004820152600360248201527f45313300000000000000000000000000000000000000000000000000000000006044820152606401610cd6565b6000818152608860205260408120805460ff191660011790556137ef33612c04565b6040519091508190839033907f584ea1a98d504e99c0dd0ca5ace55f5458d725e7e20a1ebb2e5e5af38434397190600090a45050565b6138646040518060400160405280601181526020017f6f6f67612025732061747461636b65642100000000000000000000000000000081525083613ca2565b600061386e613d33565b6065546040517f23b872dd0000000000000000000000000000000000000000000000000000000081526001600160a01b038581166004830152306024830152604482018790529293509116906323b872dd90606401600060405180830381600087803b1580156138dd57600080fd5b505af11580156138f1573d6000803e3d6000fd5b50506040516001600160a01b03841692508591507f25e62b5345bc3d4cc6669b9d9091c6019b1f835ba44175f80633ce4636f68aa390600090a3505050565b600054610100900460ff16611be15760405162461bcd60e51b815260206004820152602b60248201527f496e697469616c697a61626c653a20636f6e7472616374206973206e6f74206960448201527f6e697469616c697a696e670000000000000000000000000000000000000000006064820152608401610cd6565b600054610100900460ff16613a2a5760405162461bcd60e51b815260206004820152602b60248201527f496e697469616c697a61626c653a20636f6e7472616374206973206e6f74206960448201527f6e697469616c697a696e670000000000000000000000000000000000000000006064820152608401610cd6565b611be133612c9e565b6065546040517f40c10f190000000000000000000000000000000000000000000000000000000081526001600160a01b0385811660048301526024820185905260009216906340c10f1990604401600060405180830381600087803b158015613a9b57600080fd5b505af1158015613aaf573d6000803e3d6000fd5b505050600084815260876020526040902083518154859350829060ff191660018381811115613aee57634e487b7160e01b600052602160045260246000fd5b02179055506020820151600182810191909155604083015160028301805460608601517fffffffffffffffffffffff0000000000000000000000000000000000000000009091169215157fffffffffffffffffffffff0000000000000000000000000000000000000000ff16929092176101006001600160a01b03938416021790556080840151600384015560a0840151600484015560c0840151600584015560e090930151600690920191909155835185928716917fb4c03061fb5b7fed76389d5af8f2e0ddb09f8c70d1333abbb62582835e10accb9190811115613be457634e487b7160e01b600052602160045260246000fd5b60208087015160408051938452918301520160405180910390a3509092915050565b6067546040517f40c10f19000000000000000000000000000000000000000000000000000000008152306004820152602481018390526001600160a01b03909116906340c10f1990604401600060405180830381600087803b158015613c6b57600080fd5b505af1158015613c7f573d6000803e3d6000fd5b5050505060825481613c9191906144bf565b60816000828254611e8191906144a7565b611b0b8282604051602401613cb89291906143c1565b604080517fffffffffffffffffffffffffffffffffffffffffffffffffffffffffffffffe08184030181529190526020810180517bffffffffffffffffffffffffffffffffffffffffffffffffffffffff167f9710a9d000000000000000000000000000000000000000000000000000000000179052613fc1565b60008060015b60038111613db95760838160048110613d6257634e487b7160e01b600052603260045260246000fd5b01546080805483908110613d8657634e487b7160e01b600052603260045260246000fd5b9060005260206000200154613d9b91906144df565b613da590836144a7565b915080613db181614533565b915050613d39565b6066546040517fcd4b6914000000000000000000000000000000000000000000000000000000008152600481018490526000916001600160a01b03169063cd4b691490602401602060405180830381600087803b158015613e1957600080fd5b505af1158015613e2d573d6000803e3d6000fd5b505050506040513d601f19601f82011682018060405250810190613e519190614255565b90506000600192505b60038311613fb757600060838460048110613e8557634e487b7160e01b600052603260045260246000fd5b01546080805486908110613ea957634e487b7160e01b600052603260045260246000fd5b9060005260206000200154613ebe91906144df565b9050613eca81836144a7565b831015613f9757600060808581548110613ef457634e487b7160e01b600052603260045260246000fd5b90600052602060002001548385613f0b919061451c565b613f1591906144bf565b90506087600060838760048110613f3c57634e487b7160e01b600052603260045260246000fd5b018381548110613f5c57634e487b7160e01b600052603260045260246000fd5b9060005260206000200154815260200190815260200160002060020160019054906101000a90046001600160a01b0316965050505050505090565b613fa181836144a7565b9150508280613faf90614533565b935050613e5a565b3094505050505090565b80516a636f6e736f6c652e6c6f67602083016000808483855afa5050505050565b82805482825590600052602060002090810192821561401d579160200282015b8281111561401d578235825591602001919060010190614002565b5061402992915061402d565b5090565b5b80821115614029576000815560010161402e565b600060808284031215614053578081fd5b6040516080810181811067ffffffffffffffff8211171561408257634e487b7160e01b83526041600452602483fd5b60405282358152905080602083013560ff811681146140a057600080fd5b8060208301525060408301356040820152606083013560608201525092915050565b6000602082840312156140d3578081fd5b8135611fda81614582565b6000602082840312156140ef578081fd5b8151611fda81614582565b6000806040838503121561410c578081fd5b823561411781614582565b946020939093013593505050565b60008060208385031215614137578182fd5b823567ffffffffffffffff8082111561414e578384fd5b818501915085601f830112614161578384fd5b81358181111561416f578485fd5b8660208260051b8501011115614183578485fd5b60209290920196919550909350505050565b6000602082840312156141a6578081fd5b8135611fda81614597565b6000602082840312156141c2578081fd5b8151611fda81614597565b6000602082840312156141de578081fd5b813567ffffffffffffffff8111156141f4578182fd5b82016102608185031215611fda578182fd5b60008060a08385031215614218578182fd5b6142228484614042565b9150608083013561423281614582565b809150509250929050565b60006020828403121561424e578081fd5b5035919050565b600060208284031215614266578081fd5b5051919050565b6000806040838503121561427f578182fd5b82359150602083013561423281614597565b600080600060c084860312156142a5578081fd5b8335925060208401356142b781614597565b91506142c68560408601614042565b90509250925092565b600080604083850312156142e1578182fd5b50508035926020909101359150565b600080600060608486031215614304578081fd5b505081359360208301359350604090920135919050565b6020808252825182820181905260009190848201906040850190845b8181101561435357835183529284019291840191600101614337565b50909695505050505050565b610100810160028a1061438257634e487b7160e01b600052602160045260246000fd5b988152602081019790975294151560408701526001600160a01b03939093166060860152608085019190915260a084015260c083015260e09091015290565b6040815260008351806040840152815b818110156143ee57602081870181015160608684010152016143d1565b818111156143ff5782606083860101525b50602083019390935250601f919091017fffffffffffffffffffffffffffffffffffffffffffffffffffffffffffffffe01601606001919050565b60008083357fffffffffffffffffffffffffffffffffffffffffffffffffffffffffffffffe184360301811261446e578283fd5b83018035915067ffffffffffffffff821115614488578283fd5b6020019150600581901b36038213156144a057600080fd5b9250929050565b600082198211156144ba576144ba61456c565b500190565b6000826144da57634e487b7160e01b81526012600452602481fd5b500490565b6000817fffffffffffffffffffffffffffffffffffffffffffffffffffffffffffffffff04831182151516156145175761451761456c565b500290565b60008282101561452e5761452e61456c565b500390565b60007fffffffffffffffffffffffffffffffffffffffffffffffffffffffffffffffff8214156145655761456561456c565b5060010190565b634e487b7160e01b600052601160045260246000fd5b6001600160a01b038116811461275c57600080fd5b801515811461275c57600080fdfea2646970667358221220dd6e85f17049dc084ecbcf2fb019a58b5efb14903115d9be5c06b0ea04ce424e64736f6c63430008040033",
    "linkReferences": {},
    "deployedLinkReferences": {}
}