{
    "_format": "hh-sol-artifact-1",
    "contractName": "OogearERC20",
    "sourceName": "contracts/OogearERC20.sol",
    "abi": [
        {
            "inputs": [
                {
                    "internalType": "string",
                    "name": "name_",
                    "type": "string"
                },
                {
                    "internalType": "string",
                    "name": "symbol_",
                    "type": "string"
                }
            ],
            "stateMutability": "nonpayable",
            "type": "constructor"
        },
        {
            "anonymous": false,
            "inputs": [
                {
                    "indexed": true,
                    "internalType": "address",
                    "name": "owner",
                    "type": "address"
                },
                {
                    "indexed": true,
                    "internalType": "address",
                    "name": "spender",
                    "type": "address"
                },
                {
                    "indexed": false,
                    "internalType": "uint256",
                    "name": "value",
                    "type": "uint256"
                }
            ],
            "name": "Approval",
            "type": "event"
        },
        {
            "anonymous": false,
            "inputs": [
                {
                    "indexed": true,
                    "internalType": "address",
                    "name": "previousOwner",
                    "type": "address"
                },
                {
                    "indexed": true,
                    "internalType": "address",
                    "name": "newOwner",
                    "type": "address"
                }
            ],
            "name": "OwnershipTransferred",
            "type": "event"
        },
        {
            "anonymous": false,
            "inputs": [
                {
                    "indexed": true,
                    "internalType": "address",
                    "name": "from",
                    "type": "address"
                },
                {
                    "indexed": true,
                    "internalType": "address",
                    "name": "to",
                    "type": "address"
                },
                {
                    "indexed": false,
                    "internalType": "uint256",
                    "name": "value",
                    "type": "uint256"
                }
            ],
            "name": "Transfer",
            "type": "event"
        },
        {
            "inputs": [
                {
                    "internalType": "address",
                    "name": "owner",
                    "type": "address"
                },
                {
                    "internalType": "address",
                    "name": "spender",
                    "type": "address"
                }
            ],
            "name": "allowance",
            "outputs": [
                {
                    "internalType": "uint256",
                    "name": "",
                    "type": "uint256"
                }
            ],
            "stateMutability": "view",
            "type": "function"
        },
        {
            "inputs": [
                {
                    "internalType": "address",
                    "name": "spender",
                    "type": "address"
                },
                {
                    "internalType": "uint256",
                    "name": "amount",
                    "type": "uint256"
                }
            ],
            "name": "approve",
            "outputs": [
                {
                    "internalType": "bool",
                    "name": "",
                    "type": "bool"
                }
            ],
            "stateMutability": "nonpayable",
            "type": "function"
        },
        {
            "inputs": [
                {
                    "internalType": "address",
                    "name": "account",
                    "type": "address"
                }
            ],
            "name": "balanceOf",
            "outputs": [
                {
                    "internalType": "uint256",
                    "name": "",
                    "type": "uint256"
                }
            ],
            "stateMutability": "view",
            "type": "function"
        },
        {
            "inputs": [
                {
                    "internalType": "address",
                    "name": "account",
                    "type": "address"
                },
                {
                    "internalType": "uint256",
                    "name": "amount",
                    "type": "uint256"
                }
            ],
            "name": "burn",
            "outputs": [],
            "stateMutability": "nonpayable",
            "type": "function"
        },
        {
            "inputs": [],
            "name": "decimals",
            "outputs": [
                {
                    "internalType": "uint8",
                    "name": "",
                    "type": "uint8"
                }
            ],
            "stateMutability": "view",
            "type": "function"
        },
        {
            "inputs": [
                {
                    "internalType": "address",
                    "name": "spender",
                    "type": "address"
                },
                {
                    "internalType": "uint256",
                    "name": "subtractedValue",
                    "type": "uint256"
                }
            ],
            "name": "decreaseAllowance",
            "outputs": [
                {
                    "internalType": "bool",
                    "name": "",
                    "type": "bool"
                }
            ],
            "stateMutability": "nonpayable",
            "type": "function"
        },
        {
            "inputs": [],
            "name": "gameContract",
            "outputs": [
                {
                    "internalType": "address",
                    "name": "",
                    "type": "address"
                }
            ],
            "stateMutability": "view",
            "type": "function"
        },
        {
            "inputs": [
                {
                    "internalType": "address",
                    "name": "spender",
                    "type": "address"
                },
                {
                    "internalType": "uint256",
                    "name": "addedValue",
                    "type": "uint256"
                }
            ],
            "name": "increaseAllowance",
            "outputs": [
                {
                    "internalType": "bool",
                    "name": "",
                    "type": "bool"
                }
            ],
            "stateMutability": "nonpayable",
            "type": "function"
        },
        {
            "inputs": [
                {
                    "internalType": "address",
                    "name": "account",
                    "type": "address"
                },
                {
                    "internalType": "uint256",
                    "name": "amount",
                    "type": "uint256"
                }
            ],
            "name": "mint",
            "outputs": [],
            "stateMutability": "nonpayable",
            "type": "function"
        },
        {
            "inputs": [],
            "name": "name",
            "outputs": [
                {
                    "internalType": "string",
                    "name": "",
                    "type": "string"
                }
            ],
            "stateMutability": "view",
            "type": "function"
        },
        {
            "inputs": [],
            "name": "owner",
            "outputs": [
                {
                    "internalType": "address",
                    "name": "",
                    "type": "address"
                }
            ],
            "stateMutability": "view",
            "type": "function"
        },
        {
            "inputs": [],
            "name": "renounceOwnership",
            "outputs": [],
            "stateMutability": "nonpayable",
            "type": "function"
        },
        {
            "inputs": [
                {
                    "internalType": "address",
                    "name": "gameContract_",
                    "type": "address"
                }
            ],
            "name": "setGameContract",
            "outputs": [],
            "stateMutability": "nonpayable",
            "type": "function"
        },
        {
            "inputs": [],
            "name": "symbol",
            "outputs": [
                {
                    "internalType": "string",
                    "name": "",
                    "type": "string"
                }
            ],
            "stateMutability": "view",
            "type": "function"
        },
        {
            "inputs": [],
            "name": "totalSupply",
            "outputs": [
                {
                    "internalType": "uint256",
                    "name": "",
                    "type": "uint256"
                }
            ],
            "stateMutability": "view",
            "type": "function"
        },
        {
            "inputs": [
                {
                    "internalType": "address",
                    "name": "recipient",
                    "type": "address"
                },
                {
                    "internalType": "uint256",
                    "name": "amount",
                    "type": "uint256"
                }
            ],
            "name": "transfer",
            "outputs": [
                {
                    "internalType": "bool",
                    "name": "",
                    "type": "bool"
                }
            ],
            "stateMutability": "nonpayable",
            "type": "function"
        },
        {
            "inputs": [
                {
                    "internalType": "address",
                    "name": "sender",
                    "type": "address"
                },
                {
                    "internalType": "address",
                    "name": "recipient",
                    "type": "address"
                },
                {
                    "internalType": "uint256",
                    "name": "amount",
                    "type": "uint256"
                }
            ],
            "name": "transferFrom",
            "outputs": [
                {
                    "internalType": "bool",
                    "name": "",
                    "type": "bool"
                }
            ],
            "stateMutability": "nonpayable",
            "type": "function"
        },
        {
            "inputs": [
                {
                    "internalType": "address",
                    "name": "newOwner",
                    "type": "address"
                }
            ],
            "name": "transferOwnership",
            "outputs": [],
            "stateMutability": "nonpayable",
            "type": "function"
        }
    ],
    "bytecode": "0x60806040523480156200001157600080fd5b506040516200119f3803806200119f833981016040819052620000349162000251565b8151829082906200004d906003906020850190620000de565b50805162000063906004906020840190620000de565b505050620000806200007a6200008860201b60201c565b6200008c565b5050620002f8565b3390565b600580546001600160a01b038381166001600160a01b0319831681179093556040519116919082907f8be0079c531659141344cd1fd0a4f28419497f9722a3daafe3b4186f6b6457e090600090a35050565b828054620000ec90620002bb565b90600052602060002090601f0160209004810192826200011057600085556200015b565b82601f106200012b57805160ff19168380011785556200015b565b828001600101855582156200015b579182015b828111156200015b5782518255916020019190600101906200013e565b50620001699291506200016d565b5090565b5b808211156200016957600081556001016200016e565b634e487b7160e01b600052604160045260246000fd5b600082601f830112620001ac57600080fd5b81516001600160401b0380821115620001c957620001c962000184565b604051601f8301601f19908116603f01168101908282118183101715620001f457620001f462000184565b816040528381526020925086838588010111156200021157600080fd5b600091505b8382101562000235578582018301518183018401529082019062000216565b83821115620002475760008385830101525b9695505050505050565b600080604083850312156200026557600080fd5b82516001600160401b03808211156200027d57600080fd5b6200028b868387016200019a565b93506020850151915080821115620002a257600080fd5b50620002b1858286016200019a565b9150509250929050565b600181811c90821680620002d057607f821691505b60208210811415620002f257634e487b7160e01b600052602260045260246000fd5b50919050565b610e9780620003086000396000f3fe608060405234801561001057600080fd5b50600436106101165760003560e01c8063715018a6116100a2578063a457c2d711610071578063a457c2d71461023c578063a9059cbb1461024f578063d3f3300914610262578063dd62ed3e14610275578063f2fde38b146102ae57600080fd5b8063715018a6146101f45780638da5cb5b146101fc57806395d89b41146102215780639dc29fac1461022957600080fd5b8063313ce567116100e9578063313ce567146101815780633950935114610190578063405ebd4d146101a357806340c10f19146101b857806370a08231146101cb57600080fd5b806306fdde031461011b578063095ea7b31461013957806318160ddd1461015c57806323b872dd1461016e575b600080fd5b6101236102c1565b6040516101309190610cb5565b60405180910390f35b61014c610147366004610d26565b610353565b6040519015158152602001610130565b6002545b604051908152602001610130565b61014c61017c366004610d50565b610369565b60405160128152602001610130565b61014c61019e366004610d26565b610416565b6101b66101b1366004610d8c565b610452565b005b6101b66101c6366004610d26565b6104ce565b6101606101d9366004610d8c565b6001600160a01b031660009081526020819052604090205490565b6101b661051b565b6005546001600160a01b03165b6040516001600160a01b039091168152602001610130565b610123610581565b6101b6610237366004610d26565b610590565b61014c61024a366004610d26565b6105d9565b61014c61025d366004610d26565b610672565b600654610209906001600160a01b031681565b610160610283366004610dae565b6001600160a01b03918216600090815260016020908152604080832093909416825291909152205490565b6101b66102bc366004610d8c565b61067f565b6060600380546102d090610de1565b80601f01602080910402602001604051908101604052809291908181526020018280546102fc90610de1565b80156103495780601f1061031e57610100808354040283529160200191610349565b820191906000526020600020905b81548152906001019060200180831161032c57829003601f168201915b5050505050905090565b600061036033848461074a565b50600192915050565b6000806103768533610283565b9050828110158061039157506006546001600160a01b031633145b6103f35760405162461bcd60e51b815260206004820152602860248201527f45524332303a207472616e7366657220616d6f756e74206578636565647320616044820152676c6c6f77616e636560c01b60648201526084015b60405180910390fd5b610400853385840361074a565b61040b85858561086f565b506001949350505050565b3360008181526001602090815260408083206001600160a01b0387168452909152812054909161036091859061044d908690610e32565b61074a565b6005546001600160a01b031633146104ac5760405162461bcd60e51b815260206004820181905260248201527f4f776e61626c653a2063616c6c6572206973206e6f7420746865206f776e657260448201526064016103ea565b600680546001600160a01b0319166001600160a01b0392909216919091179055565b6006546001600160a01b0316331461050d5760405162461bcd60e51b8152602060048201526002602482015261453160f01b60448201526064016103ea565b6105178282610a3e565b5050565b6005546001600160a01b031633146105755760405162461bcd60e51b815260206004820181905260248201527f4f776e61626c653a2063616c6c6572206973206e6f7420746865206f776e657260448201526064016103ea565b61057f6000610b1d565b565b6060600480546102d090610de1565b6006546001600160a01b031633146105cf5760405162461bcd60e51b8152602060048201526002602482015261229960f11b60448201526064016103ea565b6105178282610b6f565b3360009081526001602090815260408083206001600160a01b03861684529091528120548281101561065b5760405162461bcd60e51b815260206004820152602560248201527f45524332303a2064656372656173656420616c6c6f77616e63652062656c6f77604482015264207a65726f60d81b60648201526084016103ea565b610668338585840361074a565b5060019392505050565b600061036033848461086f565b6005546001600160a01b031633146106d95760405162461bcd60e51b815260206004820181905260248201527f4f776e61626c653a2063616c6c6572206973206e6f7420746865206f776e657260448201526064016103ea565b6001600160a01b03811661073e5760405162461bcd60e51b815260206004820152602660248201527f4f776e61626c653a206e6577206f776e657220697320746865207a65726f206160448201526564647265737360d01b60648201526084016103ea565b61074781610b1d565b50565b6001600160a01b0383166107ac5760405162461bcd60e51b8152602060048201526024808201527f45524332303a20617070726f76652066726f6d20746865207a65726f206164646044820152637265737360e01b60648201526084016103ea565b6001600160a01b03821661080d5760405162461bcd60e51b815260206004820152602260248201527f45524332303a20617070726f766520746f20746865207a65726f206164647265604482015261737360f01b60648201526084016103ea565b6001600160a01b0383811660008181526001602090815260408083209487168084529482529182902085905590518481527f8c5be1e5ebec7d5bd14f71427d1e84f3dd0314c0f7b2291e5b200ac8c7c3b92591015b60405180910390a3505050565b6001600160a01b0383166108d35760405162461bcd60e51b815260206004820152602560248201527f45524332303a207472616e736665722066726f6d20746865207a65726f206164604482015264647265737360d81b60648201526084016103ea565b6001600160a01b0382166109355760405162461bcd60e51b815260206004820152602360248201527f45524332303a207472616e7366657220746f20746865207a65726f206164647260448201526265737360e81b60648201526084016103ea565b6001600160a01b038316600090815260208190526040902054818110156109ad5760405162461bcd60e51b815260206004820152602660248201527f45524332303a207472616e7366657220616d6f756e7420657863656564732062604482015265616c616e636560d01b60648201526084016103ea565b6001600160a01b038085166000908152602081905260408082208585039055918516815290812080548492906109e4908490610e32565b92505081905550826001600160a01b0316846001600160a01b03167fddf252ad1be2c89b69c2b068fc378daa952ba7f163c4a11628f55a4df523b3ef84604051610a3091815260200190565b60405180910390a350505050565b6001600160a01b038216610a945760405162461bcd60e51b815260206004820152601f60248201527f45524332303a206d696e7420746f20746865207a65726f20616464726573730060448201526064016103ea565b8060026000828254610aa69190610e32565b90915550506001600160a01b03821660009081526020819052604081208054839290610ad3908490610e32565b90915550506040518181526001600160a01b038316906000907fddf252ad1be2c89b69c2b068fc378daa952ba7f163c4a11628f55a4df523b3ef9060200160405180910390a35050565b600580546001600160a01b038381166001600160a01b0319831681179093556040519116919082907f8be0079c531659141344cd1fd0a4f28419497f9722a3daafe3b4186f6b6457e090600090a35050565b6001600160a01b038216610bcf5760405162461bcd60e51b815260206004820152602160248201527f45524332303a206275726e2066726f6d20746865207a65726f206164647265736044820152607360f81b60648201526084016103ea565b6001600160a01b03821660009081526020819052604090205481811015610c435760405162461bcd60e51b815260206004820152602260248201527f45524332303a206275726e20616d6f756e7420657863656564732062616c616e604482015261636560f01b60648201526084016103ea565b6001600160a01b0383166000908152602081905260408120838303905560028054849290610c72908490610e4a565b90915550506040518281526000906001600160a01b038516907fddf252ad1be2c89b69c2b068fc378daa952ba7f163c4a11628f55a4df523b3ef90602001610862565b600060208083528351808285015260005b81811015610ce257858101830151858201604001528201610cc6565b81811115610cf4576000604083870101525b50601f01601f1916929092016040019392505050565b80356001600160a01b0381168114610d2157600080fd5b919050565b60008060408385031215610d3957600080fd5b610d4283610d0a565b946020939093013593505050565b600080600060608486031215610d6557600080fd5b610d6e84610d0a565b9250610d7c60208501610d0a565b9150604084013590509250925092565b600060208284031215610d9e57600080fd5b610da782610d0a565b9392505050565b60008060408385031215610dc157600080fd5b610dca83610d0a565b9150610dd860208401610d0a565b90509250929050565b600181811c90821680610df557607f821691505b60208210811415610e1657634e487b7160e01b600052602260045260246000fd5b50919050565b634e487b7160e01b600052601160045260246000fd5b60008219821115610e4557610e45610e1c565b500190565b600082821015610e5c57610e5c610e1c565b50039056fea26469706673582212206f4fc2a6444827bcd81e1df9e8de4f184bfc51b33afa7d796261aa3e93cad9da64736f6c63430008090033",
    "linkReferences": {},
    "deployedLinkReferences": {}
}